{"contracts/ServiceFactory.sol":{"ServiceFactory":{"abi":[{"inputs":[],"stateMutability":"nonpayable","type":"constructor"},{"anonymous":false,"inputs":[{"indexed":true,"internalType":"address","name":"seller","type":"address"},{"indexed":false,"internalType":"address","name":"serviceAddress","type":"address"}],"name":"ServiceCreated","type":"event"},{"anonymous":false,"inputs":[{"indexed":true,"internalType":"address","name":"seller","type":"address"},{"indexed":false,"internalType":"address","name":"serviceAddress","type":"address"}],"name":"ServiceDeactivate","type":"event"},{"anonymous":false,"inputs":[{"indexed":true,"internalType":"address","name":"seller","type":"address"},{"indexed":false,"internalType":"address","name":"serviceAddress","type":"address"}],"name":"ServiceUpdated","type":"event"},{"inputs":[{"internalType":"string","name":"_servicename","type":"string"},{"internalType":"string","name":"_servicedescription","type":"string"}],"name":"createService","outputs":[],"stateMutability":"nonpayable","type":"function"},{"inputs":[{"internalType":"string","name":"_servicename","type":"string"}],"name":"deactivateService","outputs":[],"stateMutability":"nonpayable","type":"function"},{"inputs":[],"name":"getServicesAddresses","outputs":[{"internalType":"address[]","name":"","type":"address[]"}],"stateMutability":"view","type":"function"},{"inputs":[{"internalType":"uint256","name":"","type":"uint256"}],"name":"services","outputs":[{"internalType":"contract Service","name":"","type":"address"}],"stateMutability":"view","type":"function"},{"inputs":[{"internalType":"string","name":"_servicename","type":"string"},{"internalType":"string","name":"_servicedescription","type":"string"}],"name":"updateService","outputs":[],"stateMutability":"nonpayable","type":"function"}],"evm":{"bytecode":{"linkReferences":{},"object":"60a060405234801561001057600080fd5b503373ffffffffffffffffffffffffffffffffffffffff1660808173ffffffffffffffffffffffffffffffffffffffff1681525050608051614bb261005d60003960005050614bb26000f3fe60806040523480156200001157600080fd5b50600436106200005e5760003560e01c80636a5e1f921462000063578063718b57dc1462000083578063956a9e1514620000a3578063bd5ec58f14620000c3578063c22c4f4314620000e5575b600080fd5b6200008160048036038101906200007b91906200173a565b6200011b565b005b620000a160048036038101906200009b91906200173a565b62000214565b005b620000c16004803603810190620000bb9190620017bf565b62000b91565b005b620000cd6200145e565b604051620000dc919062001912565b60405180910390f35b620001036004803603810190620000fd919062001971565b62001576565b60405162000112919062001a0e565b60405180910390f35b60003383836040516200012e90620015b6565b6200013c9392919062001ac5565b604051809103906000f08015801562000159573d6000803e3d6000fd5b5090506000819080600181540180825580915050600190039060005260206000200160009091909190916101000a81548173ffffffffffffffffffffffffffffffffffffffff021916908373ffffffffffffffffffffffffffffffffffffffff1602179055503373ffffffffffffffffffffffffffffffffffffffff167f8c7aaaeebf752abf043872061bbbd8963e7ad51c16f16dd260e42d4565fe4f318260405162000207919062001b10565b60405180910390a2505050565b816000805b6000805490508110156200047957826040516020016200023a919062001b6f565b604051602081830303815290604052805190602001206000828154811062000267576200026662001b88565b5b9060005260206000200160009054906101000a900473ffffffffffffffffffffffffffffffffffffffff1673ffffffffffffffffffffffffffffffffffffffff166306fdde036040518163ffffffff1660e01b8152600401600060405180830381865afa158015620002dd573d6000803e3d6000fd5b505050506040513d6000823e3d601f19601f8201168201806040525081019062000308919062001c35565b6040516020016200031a919062001b6f565b60405160208183030381529060405280519060200120036200046357600081815481106200034d576200034c62001b88565b5b9060005260206000200160009054906101000a900473ffffffffffffffffffffffffffffffffffffffff1673ffffffffffffffffffffffffffffffffffffffff1663893d20e86040518163ffffffff1660e01b8152600401602060405180830381865afa158015620003c3573d6000803e3d6000fd5b505050506040513d601f19601f82011682018060405250810190620003e9919062001cb7565b73ffffffffffffffffffffffffffffffffffffffff163373ffffffffffffffffffffffffffffffffffffffff161462000459576040517f08c379a0000000000000000000000000000000000000000000000000000000008152600401620004509062001d5f565b60405180910390fd5b6001915062000479565b8080620004709062001db0565b91505062000219565b5080620004bd576040517f08c379a0000000000000000000000000000000000000000000000000000000008152600401620004b49062001e4d565b60405180910390fd5b836000805b600080549050811015620006f45782604051602001620004e3919062001b6f565b604051602081830303815290604052805190602001206000828154811062000510576200050f62001b88565b5b9060005260206000200160009054906101000a900473ffffffffffffffffffffffffffffffffffffffff1673ffffffffffffffffffffffffffffffffffffffff166306fdde036040518163ffffffff1660e01b8152600401600060405180830381865afa15801562000586573d6000803e3d6000fd5b505050506040513d6000823e3d601f19601f82011682018060405250810190620005b1919062001c35565b604051602001620005c3919062001b6f565b6040516020818303038152906040528051906020012003620006de5760008181548110620005f657620005f562001b88565b5b9060005260206000200160009054906101000a900473ffffffffffffffffffffffffffffffffffffffff1673ffffffffffffffffffffffffffffffffffffffff166322f3e2d46040518163ffffffff1660e01b8152600401602060405180830381865afa1580156200066c573d6000803e3d6000fd5b505050506040513d601f19601f8201168201806040525081019062000692919062001eac565b620006d4576040517f08c379a0000000000000000000000000000000000000000000000000000000008152600401620006cb9062001f2e565b60405180910390fd5b60019150620006f4565b8080620006eb9062001db0565b915050620004c2565b508062000738576040517f08c379a00000000000000000000000000000000000000000000000000000000081526004016200072f9062001e4d565b60405180910390fd5b60005b60008054905081101562000b8857866040516020016200075c919062001b6f565b604051602081830303815290604052805190602001206000828154811062000789576200078862001b88565b5b9060005260206000200160009054906101000a900473ffffffffffffffffffffffffffffffffffffffff1673ffffffffffffffffffffffffffffffffffffffff166306fdde036040518163ffffffff1660e01b8152600401600060405180830381865afa158015620007ff573d6000803e3d6000fd5b505050506040513d6000823e3d601f19601f820116820180604052508101906200082a919062001c35565b6040516020016200083c919062001b6f565b604051602081830303815290604052805190602001200362000b7257600081815481106200086f576200086e62001b88565b5b9060005260206000200160009054906101000a900473ffffffffffffffffffffffffffffffffffffffff1673ffffffffffffffffffffffffffffffffffffffff1663893d20e86040518163ffffffff1660e01b8152600401602060405180830381865afa158015620008e5573d6000803e3d6000fd5b505050506040513d601f19601f820116820180604052508101906200090b919062001cb7565b73ffffffffffffffffffffffffffffffffffffffff163373ffffffffffffffffffffffffffffffffffffffff16146200097b576040517f08c379a0000000000000000000000000000000000000000000000000000000008152600401620009729062001d5f565b60405180910390fd5b6000818154811062000992576200099162001b88565b5b9060005260206000200160009054906101000a900473ffffffffffffffffffffffffffffffffffffffff1673ffffffffffffffffffffffffffffffffffffffff1663c47f0027886040518263ffffffff1660e01b8152600401620009f7919062001f50565b600060405180830381600087803b15801562000a1257600080fd5b505af115801562000a27573d6000803e3d6000fd5b505050506000818154811062000a425762000a4162001b88565b5b9060005260206000200160009054906101000a900473ffffffffffffffffffffffffffffffffffffffff1673ffffffffffffffffffffffffffffffffffffffff166390c3f38f876040518263ffffffff1660e01b815260040162000aa7919062001f50565b600060405180830381600087803b15801562000ac257600080fd5b505af115801562000ad7573d6000803e3d6000fd5b505050503373ffffffffffffffffffffffffffffffffffffffff167f8dd9d4fb666af0b82c9823e221aedb4557c6a38226da896973c5a245e7b0450d6000838154811062000b2a5762000b2962001b88565b5b9060005260206000200160009054906101000a900473ffffffffffffffffffffffffffffffffffffffff1660405162000b64919062001b10565b60405180910390a262000b88565b808062000b7f9062001db0565b9150506200073b565b50505050505050565b806000805b60008054905081101562000df6578260405160200162000bb7919062001b6f565b604051602081830303815290604052805190602001206000828154811062000be45762000be362001b88565b5b9060005260206000200160009054906101000a900473ffffffffffffffffffffffffffffffffffffffff1673ffffffffffffffffffffffffffffffffffffffff166306fdde036040518163ffffffff1660e01b8152600401600060405180830381865afa15801562000c5a573d6000803e3d6000fd5b505050506040513d6000823e3d601f19601f8201168201806040525081019062000c85919062001c35565b60405160200162000c97919062001b6f565b604051602081830303815290604052805190602001200362000de0576000818154811062000cca5762000cc962001b88565b5b9060005260206000200160009054906101000a900473ffffffffffffffffffffffffffffffffffffffff1673ffffffffffffffffffffffffffffffffffffffff1663893d20e86040518163ffffffff1660e01b8152600401602060405180830381865afa15801562000d40573d6000803e3d6000fd5b505050506040513d601f19601f8201168201806040525081019062000d66919062001cb7565b73ffffffffffffffffffffffffffffffffffffffff163373ffffffffffffffffffffffffffffffffffffffff161462000dd6576040517f08c379a000000000000000000000000000000000000000000000000000000000815260040162000dcd9062001d5f565b60405180910390fd5b6001915062000df6565b808062000ded9062001db0565b91505062000b96565b508062000e3a576040517f08c379a000000000000000000000000000000000000000000000000000000000815260040162000e319062001e4d565b60405180910390fd5b826000805b60008054905081101562001071578260405160200162000e60919062001b6f565b604051602081830303815290604052805190602001206000828154811062000e8d5762000e8c62001b88565b5b9060005260206000200160009054906101000a900473ffffffffffffffffffffffffffffffffffffffff1673ffffffffffffffffffffffffffffffffffffffff166306fdde036040518163ffffffff1660e01b8152600401600060405180830381865afa15801562000f03573d6000803e3d6000fd5b505050506040513d6000823e3d601f19601f8201168201806040525081019062000f2e919062001c35565b60405160200162000f40919062001b6f565b60405160208183030381529060405280519060200120036200105b576000818154811062000f735762000f7262001b88565b5b9060005260206000200160009054906101000a900473ffffffffffffffffffffffffffffffffffffffff1673ffffffffffffffffffffffffffffffffffffffff166322f3e2d46040518163ffffffff1660e01b8152600401602060405180830381865afa15801562000fe9573d6000803e3d6000fd5b505050506040513d601f19601f820116820180604052508101906200100f919062001eac565b62001051576040517f08c379a0000000000000000000000000000000000000000000000000000000008152600401620010489062001f2e565b60405180910390fd5b6001915062001071565b8080620010689062001db0565b91505062000e3f565b5080620010b5576040517f08c379a0000000000000000000000000000000000000000000000000000000008152600401620010ac9062001e4d565b60405180910390fd5b60005b600080549050811015620014565785604051602001620010d9919062001b6f565b604051602081830303815290604052805190602001206000828154811062001106576200110562001b88565b5b9060005260206000200160009054906101000a900473ffffffffffffffffffffffffffffffffffffffff1673ffffffffffffffffffffffffffffffffffffffff166306fdde036040518163ffffffff1660e01b8152600401600060405180830381865afa1580156200117c573d6000803e3d6000fd5b505050506040513d6000823e3d601f19601f82011682018060405250810190620011a7919062001c35565b604051602001620011b9919062001b6f565b6040516020818303038152906040528051906020012003620014405760008181548110620011ec57620011eb62001b88565b5b9060005260206000200160009054906101000a900473ffffffffffffffffffffffffffffffffffffffff1673ffffffffffffffffffffffffffffffffffffffff1663893d20e86040518163ffffffff1660e01b8152600401602060405180830381865afa15801562001262573d6000803e3d6000fd5b505050506040513d601f19601f8201168201806040525081019062001288919062001cb7565b73ffffffffffffffffffffffffffffffffffffffff163373ffffffffffffffffffffffffffffffffffffffff1614620012f8576040517f08c379a0000000000000000000000000000000000000000000000000000000008152600401620012ef9062001d5f565b60405180910390fd5b600081815481106200130f576200130e62001b88565b5b9060005260206000200160009054906101000a900473ffffffffffffffffffffffffffffffffffffffff1673ffffffffffffffffffffffffffffffffffffffff16632750fc7860006040518263ffffffff1660e01b815260040162001375919062001f85565b600060405180830381600087803b1580156200139057600080fd5b505af1158015620013a5573d6000803e3d6000fd5b505050503373ffffffffffffffffffffffffffffffffffffffff167ff06e81c1ada9c812d94044a534bf6ca8bbe18ba4a514336c9b632c561345081660008381548110620013f857620013f762001b88565b5b9060005260206000200160009054906101000a900473ffffffffffffffffffffffffffffffffffffffff1660405162001432919062001b10565b60405180910390a262001456565b80806200144d9062001db0565b915050620010b8565b505050505050565b60606000808054905067ffffffffffffffff811115620014835762001482620015f3565b5b604051908082528060200260200182016040528015620014b25781602001602082028036833780820191505090505b50905060005b6000805490508110156200156e5760008181548110620014dd57620014dc62001b88565b5b9060005260206000200160009054906101000a900473ffffffffffffffffffffffffffffffffffffffff168282815181106200151e576200151d62001b88565b5b602002602001019073ffffffffffffffffffffffffffffffffffffffff16908173ffffffffffffffffffffffffffffffffffffffff16815250508080620015659062001db0565b915050620014b8565b508091505090565b600081815481106200158757600080fd5b906000526020600020016000915054906101000a900473ffffffffffffffffffffffffffffffffffffffff1681565b612bda8062001fa383390190565b6000604051905090565b600080fd5b600080fd5b600080fd5b600080fd5b6000601f19601f8301169050919050565b7f4e487b7100000000000000000000000000000000000000000000000000000000600052604160045260246000fd5b6200162d82620015e2565b810181811067ffffffffffffffff821117156200164f576200164e620015f3565b5b80604052505050565b600062001664620015c4565b905062001672828262001622565b919050565b600067ffffffffffffffff821115620016955762001694620015f3565b5b620016a082620015e2565b9050602081019050919050565b82818337600083830152505050565b6000620016d3620016cd8462001677565b62001658565b905082815260208101848484011115620016f257620016f1620015dd565b5b620016ff848285620016ad565b509392505050565b600082601f8301126200171f576200171e620015d8565b5b813562001731848260208601620016bc565b91505092915050565b60008060408385031215620017545762001753620015ce565b5b600083013567ffffffffffffffff811115620017755762001774620015d3565b5b620017838582860162001707565b925050602083013567ffffffffffffffff811115620017a757620017a6620015d3565b5b620017b58582860162001707565b9150509250929050565b600060208284031215620017d857620017d7620015ce565b5b600082013567ffffffffffffffff811115620017f957620017f8620015d3565b5b620018078482850162001707565b91505092915050565b600081519050919050565b600082825260208201905092915050565b6000819050602082019050919050565b600073ffffffffffffffffffffffffffffffffffffffff82169050919050565b600062001869826200183c565b9050919050565b6200187b816200185c565b82525050565b60006200188f838362001870565b60208301905092915050565b6000602082019050919050565b6000620018b58262001810565b620018c181856200181b565b9350620018ce836200182c565b8060005b8381101562001905578151620018e9888262001881565b9750620018f6836200189b565b925050600181019050620018d2565b5085935050505092915050565b600060208201905081810360008301526200192e8184620018a8565b905092915050565b6000819050919050565b6200194b8162001936565b81146200195757600080fd5b50565b6000813590506200196b8162001940565b92915050565b6000602082840312156200198a5762001989620015ce565b5b60006200199a848285016200195a565b91505092915050565b6000819050919050565b6000620019ce620019c8620019c2846200183c565b620019a3565b6200183c565b9050919050565b6000620019e282620019ad565b9050919050565b6000620019f682620019d5565b9050919050565b62001a0881620019e9565b82525050565b600060208201905062001a256000830184620019fd565b92915050565b62001a36816200185c565b82525050565b600081519050919050565b600082825260208201905092915050565b60005b8381101562001a7857808201518184015260208101905062001a5b565b60008484015250505050565b600062001a918262001a3c565b62001a9d818562001a47565b935062001aaf81856020860162001a58565b62001aba81620015e2565b840191505092915050565b600060608201905062001adc600083018662001a2b565b818103602083015262001af0818562001a84565b9050818103604083015262001b06818462001a84565b9050949350505050565b600060208201905062001b27600083018462001a2b565b92915050565b600081905092915050565b600062001b458262001a3c565b62001b51818562001b2d565b935062001b6381856020860162001a58565b80840191505092915050565b600062001b7d828462001b38565b915081905092915050565b7f4e487b7100000000000000000000000000000000000000000000000000000000600052603260045260246000fd5b600062001bce62001bc88462001677565b62001658565b90508281526020810184848401111562001bed5762001bec620015dd565b5b62001bfa84828562001a58565b509392505050565b600082601f83011262001c1a5762001c19620015d8565b5b815162001c2c84826020860162001bb7565b91505092915050565b60006020828403121562001c4e5762001c4d620015ce565b5b600082015167ffffffffffffffff81111562001c6f5762001c6e620015d3565b5b62001c7d8482850162001c02565b91505092915050565b62001c91816200185c565b811462001c9d57600080fd5b50565b60008151905062001cb18162001c86565b92915050565b60006020828403121562001cd05762001ccf620015ce565b5b600062001ce08482850162001ca0565b91505092915050565b7f4f6e6c79207468652073656c6c65722074686174206f776e732074686520736560008201527f72766963652063616e2063616c6c20746869732066756e6374696f6e00000000602082015250565b600062001d47603c8362001a47565b915062001d548262001ce9565b604082019050919050565b6000602082019050818103600083015262001d7a8162001d38565b9050919050565b7f4e487b7100000000000000000000000000000000000000000000000000000000600052601160045260246000fd5b600062001dbd8262001936565b91507fffffffffffffffffffffffffffffffffffffffffffffffffffffffffffffffff820362001df25762001df162001d81565b5b600182019050919050565b7f53657276696365206e6f7420666f756e64000000000000000000000000000000600082015250565b600062001e3560118362001a47565b915062001e428262001dfd565b602082019050919050565b6000602082019050818103600083015262001e688162001e26565b9050919050565b60008115159050919050565b62001e868162001e6f565b811462001e9257600080fd5b50565b60008151905062001ea68162001e7b565b92915050565b60006020828403121562001ec55762001ec4620015ce565b5b600062001ed58482850162001e95565b91505092915050565b7f53657276696365206973206e6f74206163746976650000000000000000000000600082015250565b600062001f1660158362001a47565b915062001f238262001ede565b602082019050919050565b6000602082019050818103600083015262001f498162001f07565b9050919050565b6000602082019050818103600083015262001f6c818462001a84565b905092915050565b62001f7f8162001e6f565b82525050565b600060208201905062001f9c600083018462001f74565b9291505056fe60a06040526001600260006101000a81548160ff02191690831515021790555060006003553480156200003157600080fd5b5060405162002bda38038062002bda8339818101604052810190620000579190620002b0565b8273ffffffffffffffffffffffffffffffffffffffff1660808173ffffffffffffffffffffffffffffffffffffffff168152505081600090816200009c919062000595565b508060019081620000ae919062000595565b505050506200067c565b6000604051905090565b600080fd5b600080fd5b600073ffffffffffffffffffffffffffffffffffffffff82169050919050565b6000620000f982620000cc565b9050919050565b6200010b81620000ec565b81146200011757600080fd5b50565b6000815190506200012b8162000100565b92915050565b600080fd5b600080fd5b6000601f19601f8301169050919050565b7f4e487b7100000000000000000000000000000000000000000000000000000000600052604160045260246000fd5b62000186826200013b565b810181811067ffffffffffffffff82111715620001a857620001a76200014c565b5b80604052505050565b6000620001bd620000b8565b9050620001cb82826200017b565b919050565b600067ffffffffffffffff821115620001ee57620001ed6200014c565b5b620001f9826200013b565b9050602081019050919050565b60005b838110156200022657808201518184015260208101905062000209565b60008484015250505050565b6000620002496200024384620001d0565b620001b1565b90508281526020810184848401111562000268576200026762000136565b5b6200027584828562000206565b509392505050565b600082601f83011262000295576200029462000131565b5b8151620002a784826020860162000232565b91505092915050565b600080600060608486031215620002cc57620002cb620000c2565b5b6000620002dc868287016200011a565b935050602084015167ffffffffffffffff8111156200030057620002ff620000c7565b5b6200030e868287016200027d565b925050604084015167ffffffffffffffff811115620003325762000331620000c7565b5b62000340868287016200027d565b9150509250925092565b600081519050919050565b7f4e487b7100000000000000000000000000000000000000000000000000000000600052602260045260246000fd5b600060028204905060018216806200039d57607f821691505b602082108103620003b357620003b262000355565b5b50919050565b60008190508160005260206000209050919050565b60006020601f8301049050919050565b600082821b905092915050565b6000600883026200041d7fffffffffffffffffffffffffffffffffffffffffffffffffffffffffffffffff82620003de565b620004298683620003de565b95508019841693508086168417925050509392505050565b6000819050919050565b6000819050919050565b600062000476620004706200046a8462000441565b6200044b565b62000441565b9050919050565b6000819050919050565b620004928362000455565b620004aa620004a1826200047d565b848454620003eb565b825550505050565b600090565b620004c1620004b2565b620004ce81848462000487565b505050565b5b81811015620004f657620004ea600082620004b7565b600181019050620004d4565b5050565b601f82111562000545576200050f81620003b9565b6200051a84620003ce565b810160208510156200052a578190505b620005426200053985620003ce565b830182620004d3565b50505b505050565b600082821c905092915050565b60006200056a600019846008026200054a565b1980831691505092915050565b600062000585838362000557565b9150826002028217905092915050565b620005a0826200034a565b67ffffffffffffffff811115620005bc57620005bb6200014c565b5b620005c8825462000384565b620005d5828285620004fa565b600060209050601f8311600181146200060d5760008415620005f8578287015190505b62000604858262000577565b86555062000674565b601f1984166200061d86620003b9565b60005b82811015620006475784890151825560018201915060208501945060208101905062000620565b8683101562000667578489015162000663601f89168262000557565b8355505b6001600288020188555050505b505050505050565b60805161251f620006bb6000396000818161061501528181610760015281816110a10152818161129601528181611570015261168c015261251f6000f3fe6080604052600436106100e85760003560e01c80633b47a9ac1161008a5780638a2405a8116100595780638a2405a8146102a957806390c3f38f146102d2578063c47f0027146102fb578063fba7cc7914610324576100e8565b80633b47a9ac146102075780637284e416146102375780637ac9b09814610262578063893d20e81461027e576100e8565b806321235083116100c6578063212350831461016e57806322f3e2d4146101975780632750fc78146101c25780633399d389146101eb576100e8565b806306fdde03146100ed57806317d7de7c146101185780631a09254114610143575b600080fd5b3480156100f957600080fd5b5061010261034f565b60405161010f919061184d565b60405180910390f35b34801561012457600080fd5b5061012d6103dd565b60405161013a919061184d565b60405180910390f35b34801561014f57600080fd5b5061015861046f565b604051610165919061184d565b60405180910390f35b34801561017a57600080fd5b50610195600480360381019061019091906118b9565b610501565b005b3480156101a357600080fd5b506101ac61074b565b6040516101b99190611901565b60405180910390f35b3480156101ce57600080fd5b506101e960048036038101906101e49190611948565b61075e565b005b610205600480360381019061020091906119d3565b610835565b005b34801561021357600080fd5b5061021c610b49565b60405161022e96959493929190611ba2565b60405180910390f35b34801561024357600080fd5b5061024c610eff565b604051610259919061184d565b60405180910390f35b61027c600480360381019061027791906118b9565b610f8d565b005b34801561028a57600080fd5b50610293611292565b6040516102a09190611c3c565b60405180910390f35b3480156102b557600080fd5b506102d060048036038101906102cb91906119d3565b6112ba565b005b3480156102de57600080fd5b506102f960048036038101906102f49190611d8c565b61156e565b005b34801561030757600080fd5b50610322600480360381019061031d9190611d8c565b61168a565b005b34801561033057600080fd5b506103396117a6565b6040516103469190611901565b60405180910390f35b6000805461035c90611e04565b80601f016020809104026020016040519081016040528092919081815260200182805461038890611e04565b80156103d55780601f106103aa576101008083540402835291602001916103d5565b820191906000526020600020905b8154815290600101906020018083116103b857829003601f168201915b505050505081565b6060600080546103ec90611e04565b80601f016020809104026020016040519081016040528092919081815260200182805461041890611e04565b80156104655780601f1061043a57610100808354040283529160200191610465565b820191906000526020600020905b81548152906001019060200180831161044857829003601f168201915b5050505050905090565b60606001805461047e90611e04565b80601f01602080910402602001604051908101604052809291908181526020018280546104aa90611e04565b80156104f75780601f106104cc576101008083540402835291602001916104f7565b820191906000526020600020905b8154815290600101906020018083116104da57829003601f168201915b5050505050905090565b80600073ffffffffffffffffffffffffffffffffffffffff166004600083815260200190815260200160002060000160009054906101000a900473ffffffffffffffffffffffffffffffffffffffff1673ffffffffffffffffffffffffffffffffffffffff16036105a7576040517f08c379a000000000000000000000000000000000000000000000000000000000815260040161059e90611e81565b60405180910390fd5b813373ffffffffffffffffffffffffffffffffffffffff166004600083815260200190815260200160002060000160009054906101000a900473ffffffffffffffffffffffffffffffffffffffff1673ffffffffffffffffffffffffffffffffffffffff16148061066357507f000000000000000000000000000000000000000000000000000000000000000073ffffffffffffffffffffffffffffffffffffffff163373ffffffffffffffffffffffffffffffffffffffff16145b6106a2576040517f08c379a000000000000000000000000000000000000000000000000000000000815260040161069990611eed565b60405180910390fd5b600260009054906101000a900460ff166106f1576040517f08c379a00000000000000000000000000000000000000000000000000000000081526004016106e890611f59565b60405180910390fd5b6103e8426106ff9190611fa8565b6004600085815260200190815260200160002060050181905550827fbd2bcea75d16a85f005cd83447e0de57341bf926fe7419e6d553663e91ab4da760405160405180910390a2505050565b600260009054906101000a900460ff1681565b7f000000000000000000000000000000000000000000000000000000000000000073ffffffffffffffffffffffffffffffffffffffff163373ffffffffffffffffffffffffffffffffffffffff16146107ec576040517f08c379a00000000000000000000000000000000000000000000000000000000081526004016107e390612036565b60405180910390fd5b80600260006101000a81548160ff0219169083151502179055507f0338bfbdafb8aabb328abde5acfe20059c4c051ba2d9c13b41fa03b3bc9e637a60405160405180910390a150565b8260005b600354811015610929578173ffffffffffffffffffffffffffffffffffffffff166004600083815260200190815260200160002060000160009054906101000a900473ffffffffffffffffffffffffffffffffffffffff1673ffffffffffffffffffffffffffffffffffffffff161480156108d6575060046000828152602001908152602001600020600501546103e8426108d49190611fa8565b105b15610916576040517f08c379a000000000000000000000000000000000000000000000000000000000815260040161090d906120c8565b60405180910390fd5b8080610921906120e8565b915050610839565b50826000811161096e576040517f08c379a00000000000000000000000000000000000000000000000000000000081526004016109659061217c565b60405180910390fd5b600260009054906101000a900460ff166109bd576040517f08c379a00000000000000000000000000000000000000000000000000000000081526004016109b490611f59565b60405180910390fd5b60006040518060c001604052808773ffffffffffffffffffffffffffffffffffffffff16815260200160035481526020018681526020018581526020016103e842610a089190611fa8565b81526020016103e86201518087610a1f9190611fa8565b42610a2a919061219c565b610a349190611fa8565b81525090508060046000600354815260200190815260200160002060008201518160000160006101000a81548173ffffffffffffffffffffffffffffffffffffffff021916908373ffffffffffffffffffffffffffffffffffffffff1602179055506020820151816001015560408201518160020155606082015181600301556080820151816004015560a082015181600501559050506003547f6a2b70dde6ae0193f84b6a9eeb3b0ebdc3a35e99d9167b88c570158dd09cb0f760405160405180910390a26003547f9040c259954b48f5dfdf60ea91e742403e7552202de9925d509fdd8187b2130b60405160405180910390a260036000815480929190610b3c906120e8565b9190505550505050505050565b606080606080606080600060035467ffffffffffffffff811115610b7057610b6f611c61565b5b604051908082528060200260200182016040528015610b9e5781602001602082028036833780820191505090505b509050600060035467ffffffffffffffff811115610bbf57610bbe611c61565b5b604051908082528060200260200182016040528015610bed5781602001602082028036833780820191505090505b509050600060035467ffffffffffffffff811115610c0e57610c0d611c61565b5b604051908082528060200260200182016040528015610c3c5781602001602082028036833780820191505090505b509050600060035467ffffffffffffffff811115610c5d57610c5c611c61565b5b604051908082528060200260200182016040528015610c8b5781602001602082028036833780820191505090505b509050600060035467ffffffffffffffff811115610cac57610cab611c61565b5b604051908082528060200260200182016040528015610cda5781602001602082028036833780820191505090505b509050600060035467ffffffffffffffff811115610cfb57610cfa611c61565b5b604051908082528060200260200182016040528015610d295781602001602082028036833780820191505090505b50905060005b600354811015610ede576004600082815260200190815260200160002060000160009054906101000a900473ffffffffffffffffffffffffffffffffffffffff16878281518110610d8357610d826121d0565b5b602002602001019073ffffffffffffffffffffffffffffffffffffffff16908173ffffffffffffffffffffffffffffffffffffffff16815250506004600082815260200190815260200160002060010154868281518110610de757610de66121d0565b5b6020026020010181815250506004600082815260200190815260200160002060020154858281518110610e1d57610e1c6121d0565b5b6020026020010181815250506004600082815260200190815260200160002060030154848281518110610e5357610e526121d0565b5b6020026020010181815250506004600082815260200190815260200160002060040154838281518110610e8957610e886121d0565b5b6020026020010181815250506004600082815260200190815260200160002060050154828281518110610ebf57610ebe6121d0565b5b6020026020010181815250508080610ed6906120e8565b915050610d2f565b508585858585859b509b509b509b509b509b50505050505050909192939495565b60018054610f0c90611e04565b80601f0160208091040260200160405190810160405280929190818152602001828054610f3890611e04565b8015610f855780601f10610f5a57610100808354040283529160200191610f85565b820191906000526020600020905b815481529060010190602001808311610f6857829003601f168201915b505050505081565b80600073ffffffffffffffffffffffffffffffffffffffff166004600083815260200190815260200160002060000160009054906101000a900473ffffffffffffffffffffffffffffffffffffffff1673ffffffffffffffffffffffffffffffffffffffff1603611033576040517f08c379a000000000000000000000000000000000000000000000000000000000815260040161102a90611e81565b60405180910390fd5b813373ffffffffffffffffffffffffffffffffffffffff166004600083815260200190815260200160002060000160009054906101000a900473ffffffffffffffffffffffffffffffffffffffff1673ffffffffffffffffffffffffffffffffffffffff1614806110ef57507f000000000000000000000000000000000000000000000000000000000000000073ffffffffffffffffffffffffffffffffffffffff163373ffffffffffffffffffffffffffffffffffffffff16145b61112e576040517f08c379a000000000000000000000000000000000000000000000000000000000815260040161112590611eed565b60405180910390fd5b600260009054906101000a900460ff1661117d576040517f08c379a000000000000000000000000000000000000000000000000000000000815260040161117490611f59565b60405180910390fd5b60003490506000600460008681526020019081526020016000206002015490508082146111df576040517f08c379a00000000000000000000000000000000000000000000000000000000081526004016111d69061224b565b60405180910390fd5b6103e8426111ed9190611fa8565b60046000878152602001908152602001600020600401819055506103e862015180600460008881526020019081526020016000206003015461122f9190611fa8565b4261123a919061219c565b6112449190611fa8565b6004600087815260200190815260200160002060050181905550847f9040c259954b48f5dfdf60ea91e742403e7552202de9925d509fdd8187b2130b60405160405180910390a25050505050565b60007f0000000000000000000000000000000000000000000000000000000000000000905090565b8260005b6003548110156113ae578173ffffffffffffffffffffffffffffffffffffffff166004600083815260200190815260200160002060000160009054906101000a900473ffffffffffffffffffffffffffffffffffffffff1673ffffffffffffffffffffffffffffffffffffffff1614801561135b575060046000828152602001908152602001600020600501546103e8426113599190611fa8565b105b1561139b576040517f08c379a0000000000000000000000000000000000000000000000000000000008152600401611392906120c8565b60405180910390fd5b80806113a6906120e8565b9150506112be565b5082600081116113f3576040517f08c379a00000000000000000000000000000000000000000000000000000000081526004016113ea9061217c565b60405180910390fd5b600260009054906101000a900460ff16611442576040517f08c379a000000000000000000000000000000000000000000000000000000000815260040161143990611f59565b60405180910390fd5b60006040518060c001604052808773ffffffffffffffffffffffffffffffffffffffff168152602001600354815260200186815260200185815260200160008152602001600081525090508060046000600354815260200190815260200160002060008201518160000160006101000a81548173ffffffffffffffffffffffffffffffffffffffff021916908373ffffffffffffffffffffffffffffffffffffffff1602179055506020820151816001015560408201518160020155606082015181600301556080820151816004015560a082015181600501559050506003547f6a2b70dde6ae0193f84b6a9eeb3b0ebdc3a35e99d9167b88c570158dd09cb0f760405160405180910390a260036000815480929190611561906120e8565b9190505550505050505050565b7f000000000000000000000000000000000000000000000000000000000000000073ffffffffffffffffffffffffffffffffffffffff163373ffffffffffffffffffffffffffffffffffffffff16146115fc576040517f08c379a00000000000000000000000000000000000000000000000000000000081526004016115f390612036565b60405180910390fd5b600260009054906101000a900460ff1661164b576040517f08c379a000000000000000000000000000000000000000000000000000000000815260040161164290611f59565b60405180910390fd5b806001908161165a9190612417565b507f0338bfbdafb8aabb328abde5acfe20059c4c051ba2d9c13b41fa03b3bc9e637a60405160405180910390a150565b7f000000000000000000000000000000000000000000000000000000000000000073ffffffffffffffffffffffffffffffffffffffff163373ffffffffffffffffffffffffffffffffffffffff1614611718576040517f08c379a000000000000000000000000000000000000000000000000000000000815260040161170f90612036565b60405180910390fd5b600260009054906101000a900460ff16611767576040517f08c379a000000000000000000000000000000000000000000000000000000000815260040161175e90611f59565b60405180910390fd5b80600090816117769190612417565b507f0338bfbdafb8aabb328abde5acfe20059c4c051ba2d9c13b41fa03b3bc9e637a60405160405180910390a150565b6000600260009054906101000a900460ff16905090565b600081519050919050565b600082825260208201905092915050565b60005b838110156117f75780820151818401526020810190506117dc565b60008484015250505050565b6000601f19601f8301169050919050565b600061181f826117bd565b61182981856117c8565b93506118398185602086016117d9565b61184281611803565b840191505092915050565b600060208201905081810360008301526118678184611814565b905092915050565b6000604051905090565b600080fd5b600080fd5b6000819050919050565b61189681611883565b81146118a157600080fd5b50565b6000813590506118b38161188d565b92915050565b6000602082840312156118cf576118ce611879565b5b60006118dd848285016118a4565b91505092915050565b60008115159050919050565b6118fb816118e6565b82525050565b600060208201905061191660008301846118f2565b92915050565b611925816118e6565b811461193057600080fd5b50565b6000813590506119428161191c565b92915050565b60006020828403121561195e5761195d611879565b5b600061196c84828501611933565b91505092915050565b600073ffffffffffffffffffffffffffffffffffffffff82169050919050565b60006119a082611975565b9050919050565b6119b081611995565b81146119bb57600080fd5b50565b6000813590506119cd816119a7565b92915050565b6000806000606084860312156119ec576119eb611879565b5b60006119fa868287016119be565b9350506020611a0b868287016118a4565b9250506040611a1c868287016118a4565b9150509250925092565b600081519050919050565b600082825260208201905092915050565b6000819050602082019050919050565b611a5b81611995565b82525050565b6000611a6d8383611a52565b60208301905092915050565b6000602082019050919050565b6000611a9182611a26565b611a9b8185611a31565b9350611aa683611a42565b8060005b83811015611ad7578151611abe8882611a61565b9750611ac983611a79565b925050600181019050611aaa565b5085935050505092915050565b600081519050919050565b600082825260208201905092915050565b6000819050602082019050919050565b611b1981611883565b82525050565b6000611b2b8383611b10565b60208301905092915050565b6000602082019050919050565b6000611b4f82611ae4565b611b598185611aef565b9350611b6483611b00565b8060005b83811015611b95578151611b7c8882611b1f565b9750611b8783611b37565b925050600181019050611b68565b5085935050505092915050565b600060c0820190508181036000830152611bbc8189611a86565b90508181036020830152611bd08188611b44565b90508181036040830152611be48187611b44565b90508181036060830152611bf88186611b44565b90508181036080830152611c0c8185611b44565b905081810360a0830152611c208184611b44565b9050979650505050505050565b611c3681611995565b82525050565b6000602082019050611c516000830184611c2d565b92915050565b600080fd5b600080fd5b7f4e487b7100000000000000000000000000000000000000000000000000000000600052604160045260246000fd5b611c9982611803565b810181811067ffffffffffffffff82111715611cb857611cb7611c61565b5b80604052505050565b6000611ccb61186f565b9050611cd78282611c90565b919050565b600067ffffffffffffffff821115611cf757611cf6611c61565b5b611d0082611803565b9050602081019050919050565b82818337600083830152505050565b6000611d2f611d2a84611cdc565b611cc1565b905082815260208101848484011115611d4b57611d4a611c5c565b5b611d56848285611d0d565b509392505050565b600082601f830112611d7357611d72611c57565b5b8135611d83848260208601611d1c565b91505092915050565b600060208284031215611da257611da1611879565b5b600082013567ffffffffffffffff811115611dc057611dbf61187e565b5b611dcc84828501611d5e565b91505092915050565b7f4e487b7100000000000000000000000000000000000000000000000000000000600052602260045260246000fd5b60006002820490506001821680611e1c57607f821691505b602082108103611e2f57611e2e611dd5565b5b50919050565b7f537562736372697074696f6e20646f6573206e6f742065786973740000000000600082015250565b6000611e6b601b836117c8565b9150611e7682611e35565b602082019050919050565b60006020820190508181036000830152611e9a81611e5e565b9050919050565b7f43616c6c6572206973206e6f7420746865207375627363726962657200000000600082015250565b6000611ed7601c836117c8565b9150611ee282611ea1565b602082019050919050565b60006020820190508181036000830152611f0681611eca565b9050919050565b7f53657276696365206973206e6f74206163746976650000000000000000000000600082015250565b6000611f436015836117c8565b9150611f4e82611f0d565b602082019050919050565b60006020820190508181036000830152611f7281611f36565b9050919050565b7f4e487b7100000000000000000000000000000000000000000000000000000000600052601160045260246000fd5b6000611fb382611883565b9150611fbe83611883565b9250828202611fcc81611883565b91508282048414831517611fe357611fe2611f79565b5b5092915050565b7f4f6e6c79206f776e657220697320616c6c6f7765640000000000000000000000600082015250565b60006120206015836117c8565b915061202b82611fea565b602082019050919050565b6000602082019050818103600083015261204f81612013565b9050919050565b7f5375627363726962657220616c72656164792068617320616e2061637469766560008201527f20737562736372697074696f6e00000000000000000000000000000000000000602082015250565b60006120b2602d836117c8565b91506120bd82612056565b604082019050919050565b600060208201905081810360008301526120e1816120a5565b9050919050565b60006120f382611883565b91507fffffffffffffffffffffffffffffffffffffffffffffffffffffffffffffffff820361212557612124611f79565b5b600182019050919050565b7f56616c7565206d7573742062652067726561746572207468616e207a65726f00600082015250565b6000612166601f836117c8565b915061217182612130565b602082019050919050565b6000602082019050818103600083015261219581612159565b9050919050565b60006121a782611883565b91506121b283611883565b92508282019050808211156121ca576121c9611f79565b5b92915050565b7f4e487b7100000000000000000000000000000000000000000000000000000000600052603260045260246000fd5b7f496e76616c696420616d6f756e74000000000000000000000000000000000000600082015250565b6000612235600e836117c8565b9150612240826121ff565b602082019050919050565b6000602082019050818103600083015261226481612228565b9050919050565b60008190508160005260206000209050919050565b60006020601f8301049050919050565b600082821b905092915050565b6000600883026122cd7fffffffffffffffffffffffffffffffffffffffffffffffffffffffffffffffff82612290565b6122d78683612290565b95508019841693508086168417925050509392505050565b6000819050919050565b600061231461230f61230a84611883565b6122ef565b611883565b9050919050565b6000819050919050565b61232e836122f9565b61234261233a8261231b565b84845461229d565b825550505050565b600090565b61235761234a565b612362818484612325565b505050565b5b818110156123865761237b60008261234f565b600181019050612368565b5050565b601f8211156123cb5761239c8161226b565b6123a584612280565b810160208510156123b4578190505b6123c86123c085612280565b830182612367565b50505b505050565b600082821c905092915050565b60006123ee600019846008026123d0565b1980831691505092915050565b600061240783836123dd565b9150826002028217905092915050565b612420826117bd565b67ffffffffffffffff81111561243957612438611c61565b5b6124438254611e04565b61244e82828561238a565b600060209050601f831160018114612481576000841561246f578287015190505b61247985826123fb565b8655506124e1565b601f19841661248f8661226b565b60005b828110156124b757848901518255600182019150602085019450602081019050612492565b868310156124d457848901516124d0601f8916826123dd565b8355505b6001600288020188555050505b50505050505056fea2646970667358221220a4436363195f229d59d2470c64eef2f9c0b2e520901f7b9bfd35c06007625d9d64736f6c63430008140033a2646970667358221220f68607401180378fba90e50fc9e705b589424ee0a53d68ceb895b2ffe6d2c4aa64736f6c63430008140033","opcodes":"PUSH1 0xA0 PUSH1 0x40 MSTORE CALLVALUE DUP1 ISZERO PUSH2 0x10 JUMPI PUSH1 0x0 DUP1 REVERT JUMPDEST POP CALLER PUSH20 0xFFFFFFFFFFFFFFFFFFFFFFFFFFFFFFFFFFFFFFFF AND PUSH1 0x80 DUP2 PUSH20 0xFFFFFFFFFFFFFFFFFFFFFFFFFFFFFFFFFFFFFFFF AND DUP2 MSTORE POP POP PUSH1 0x80 MLOAD PUSH2 0x4BB2 PUSH2 0x5D PUSH1 0x0 CODECOPY PUSH1 0x0 POP POP PUSH2 0x4BB2 PUSH1 0x0 RETURN INVALID PUSH1 0x80 PUSH1 0x40 MSTORE CALLVALUE DUP1 ISZERO PUSH3 0x11 JUMPI PUSH1 0x0 DUP1 REVERT JUMPDEST POP PUSH1 0x4 CALLDATASIZE LT PUSH3 0x5E JUMPI PUSH1 0x0 CALLDATALOAD PUSH1 0xE0 SHR DUP1 PUSH4 0x6A5E1F92 EQ PUSH3 0x63 JUMPI DUP1 PUSH4 0x718B57DC EQ PUSH3 0x83 JUMPI DUP1 PUSH4 0x956A9E15 EQ PUSH3 0xA3 JUMPI DUP1 PUSH4 0xBD5EC58F EQ PUSH3 0xC3 JUMPI DUP1 PUSH4 0xC22C4F43 EQ PUSH3 0xE5 JUMPI JUMPDEST PUSH1 0x0 DUP1 REVERT JUMPDEST PUSH3 0x81 PUSH1 0x4 DUP1 CALLDATASIZE SUB DUP2 ADD SWAP1 PUSH3 0x7B SWAP2 SWAP1 PUSH3 0x173A JUMP JUMPDEST PUSH3 0x11B JUMP JUMPDEST STOP JUMPDEST PUSH3 0xA1 PUSH1 0x4 DUP1 CALLDATASIZE SUB DUP2 ADD SWAP1 PUSH3 0x9B SWAP2 SWAP1 PUSH3 0x173A JUMP JUMPDEST PUSH3 0x214 JUMP JUMPDEST STOP JUMPDEST PUSH3 0xC1 PUSH1 0x4 DUP1 CALLDATASIZE SUB DUP2 ADD SWAP1 PUSH3 0xBB SWAP2 SWAP1 PUSH3 0x17BF JUMP JUMPDEST PUSH3 0xB91 JUMP JUMPDEST STOP JUMPDEST PUSH3 0xCD PUSH3 0x145E JUMP JUMPDEST PUSH1 0x40 MLOAD PUSH3 0xDC SWAP2 SWAP1 PUSH3 0x1912 JUMP JUMPDEST PUSH1 0x40 MLOAD DUP1 SWAP2 SUB SWAP1 RETURN JUMPDEST PUSH3 0x103 PUSH1 0x4 DUP1 CALLDATASIZE SUB DUP2 ADD SWAP1 PUSH3 0xFD SWAP2 SWAP1 PUSH3 0x1971 JUMP JUMPDEST PUSH3 0x1576 JUMP JUMPDEST PUSH1 0x40 MLOAD PUSH3 0x112 SWAP2 SWAP1 PUSH3 0x1A0E JUMP JUMPDEST PUSH1 0x40 MLOAD DUP1 SWAP2 SUB SWAP1 RETURN JUMPDEST PUSH1 0x0 CALLER DUP4 DUP4 PUSH1 0x40 MLOAD PUSH3 0x12E SWAP1 PUSH3 0x15B6 JUMP JUMPDEST PUSH3 0x13C SWAP4 SWAP3 SWAP2 SWAP1 PUSH3 0x1AC5 JUMP JUMPDEST PUSH1 0x40 MLOAD DUP1 SWAP2 SUB SWAP1 PUSH1 0x0 CREATE DUP1 ISZERO DUP1 ISZERO PUSH3 0x159 JUMPI RETURNDATASIZE PUSH1 0x0 DUP1 RETURNDATACOPY RETURNDATASIZE PUSH1 0x0 REVERT JUMPDEST POP SWAP1 POP PUSH1 0x0 DUP2 SWAP1 DUP1 PUSH1 0x1 DUP2 SLOAD ADD DUP1 DUP3 SSTORE DUP1 SWAP2 POP POP PUSH1 0x1 SWAP1 SUB SWAP1 PUSH1 0x0 MSTORE PUSH1 0x20 PUSH1 0x0 KECCAK256 ADD PUSH1 0x0 SWAP1 SWAP2 SWAP1 SWAP2 SWAP1 SWAP2 PUSH2 0x100 EXP DUP2 SLOAD DUP2 PUSH20 0xFFFFFFFFFFFFFFFFFFFFFFFFFFFFFFFFFFFFFFFF MUL NOT AND SWAP1 DUP4 PUSH20 0xFFFFFFFFFFFFFFFFFFFFFFFFFFFFFFFFFFFFFFFF AND MUL OR SWAP1 SSTORE POP CALLER PUSH20 0xFFFFFFFFFFFFFFFFFFFFFFFFFFFFFFFFFFFFFFFF AND PUSH32 0x8C7AAAEEBF752ABF043872061BBBD8963E7AD51C16F16DD260E42D4565FE4F31 DUP3 PUSH1 0x40 MLOAD PUSH3 0x207 SWAP2 SWAP1 PUSH3 0x1B10 JUMP JUMPDEST PUSH1 0x40 MLOAD DUP1 SWAP2 SUB SWAP1 LOG2 POP POP POP JUMP JUMPDEST DUP2 PUSH1 0x0 DUP1 JUMPDEST PUSH1 0x0 DUP1 SLOAD SWAP1 POP DUP2 LT ISZERO PUSH3 0x479 JUMPI DUP3 PUSH1 0x40 MLOAD PUSH1 0x20 ADD PUSH3 0x23A SWAP2 SWAP1 PUSH3 0x1B6F JUMP JUMPDEST PUSH1 0x40 MLOAD PUSH1 0x20 DUP2 DUP4 SUB SUB DUP2 MSTORE SWAP1 PUSH1 0x40 MSTORE DUP1 MLOAD SWAP1 PUSH1 0x20 ADD KECCAK256 PUSH1 0x0 DUP3 DUP2 SLOAD DUP2 LT PUSH3 0x267 JUMPI PUSH3 0x266 PUSH3 0x1B88 JUMP JUMPDEST JUMPDEST SWAP1 PUSH1 0x0 MSTORE PUSH1 0x20 PUSH1 0x0 KECCAK256 ADD PUSH1 0x0 SWAP1 SLOAD SWAP1 PUSH2 0x100 EXP SWAP1 DIV PUSH20 0xFFFFFFFFFFFFFFFFFFFFFFFFFFFFFFFFFFFFFFFF AND PUSH20 0xFFFFFFFFFFFFFFFFFFFFFFFFFFFFFFFFFFFFFFFF AND PUSH4 0x6FDDE03 PUSH1 0x40 MLOAD DUP2 PUSH4 0xFFFFFFFF AND PUSH1 0xE0 SHL DUP2 MSTORE PUSH1 0x4 ADD PUSH1 0x0 PUSH1 0x40 MLOAD DUP1 DUP4 SUB DUP2 DUP7 GAS STATICCALL ISZERO DUP1 ISZERO PUSH3 0x2DD JUMPI RETURNDATASIZE PUSH1 0x0 DUP1 RETURNDATACOPY RETURNDATASIZE PUSH1 0x0 REVERT JUMPDEST POP POP POP POP PUSH1 0x40 MLOAD RETURNDATASIZE PUSH1 0x0 DUP3 RETURNDATACOPY RETURNDATASIZE PUSH1 0x1F NOT PUSH1 0x1F DUP3 ADD AND DUP3 ADD DUP1 PUSH1 0x40 MSTORE POP DUP2 ADD SWAP1 PUSH3 0x308 SWAP2 SWAP1 PUSH3 0x1C35 JUMP JUMPDEST PUSH1 0x40 MLOAD PUSH1 0x20 ADD PUSH3 0x31A SWAP2 SWAP1 PUSH3 0x1B6F JUMP JUMPDEST PUSH1 0x40 MLOAD PUSH1 0x20 DUP2 DUP4 SUB SUB DUP2 MSTORE SWAP1 PUSH1 0x40 MSTORE DUP1 MLOAD SWAP1 PUSH1 0x20 ADD KECCAK256 SUB PUSH3 0x463 JUMPI PUSH1 0x0 DUP2 DUP2 SLOAD DUP2 LT PUSH3 0x34D JUMPI PUSH3 0x34C PUSH3 0x1B88 JUMP JUMPDEST JUMPDEST SWAP1 PUSH1 0x0 MSTORE PUSH1 0x20 PUSH1 0x0 KECCAK256 ADD PUSH1 0x0 SWAP1 SLOAD SWAP1 PUSH2 0x100 EXP SWAP1 DIV PUSH20 0xFFFFFFFFFFFFFFFFFFFFFFFFFFFFFFFFFFFFFFFF AND PUSH20 0xFFFFFFFFFFFFFFFFFFFFFFFFFFFFFFFFFFFFFFFF AND PUSH4 0x893D20E8 PUSH1 0x40 MLOAD DUP2 PUSH4 0xFFFFFFFF AND PUSH1 0xE0 SHL DUP2 MSTORE PUSH1 0x4 ADD PUSH1 0x20 PUSH1 0x40 MLOAD DUP1 DUP4 SUB DUP2 DUP7 GAS STATICCALL ISZERO DUP1 ISZERO PUSH3 0x3C3 JUMPI RETURNDATASIZE PUSH1 0x0 DUP1 RETURNDATACOPY RETURNDATASIZE PUSH1 0x0 REVERT JUMPDEST POP POP POP POP PUSH1 0x40 MLOAD RETURNDATASIZE PUSH1 0x1F NOT PUSH1 0x1F DUP3 ADD AND DUP3 ADD DUP1 PUSH1 0x40 MSTORE POP DUP2 ADD SWAP1 PUSH3 0x3E9 SWAP2 SWAP1 PUSH3 0x1CB7 JUMP JUMPDEST PUSH20 0xFFFFFFFFFFFFFFFFFFFFFFFFFFFFFFFFFFFFFFFF AND CALLER PUSH20 0xFFFFFFFFFFFFFFFFFFFFFFFFFFFFFFFFFFFFFFFF AND EQ PUSH3 0x459 JUMPI PUSH1 0x40 MLOAD PUSH32 0x8C379A000000000000000000000000000000000000000000000000000000000 DUP2 MSTORE PUSH1 0x4 ADD PUSH3 0x450 SWAP1 PUSH3 0x1D5F JUMP JUMPDEST PUSH1 0x40 MLOAD DUP1 SWAP2 SUB SWAP1 REVERT JUMPDEST PUSH1 0x1 SWAP2 POP PUSH3 0x479 JUMP JUMPDEST DUP1 DUP1 PUSH3 0x470 SWAP1 PUSH3 0x1DB0 JUMP JUMPDEST SWAP2 POP POP PUSH3 0x219 JUMP JUMPDEST POP DUP1 PUSH3 0x4BD JUMPI PUSH1 0x40 MLOAD PUSH32 0x8C379A000000000000000000000000000000000000000000000000000000000 DUP2 MSTORE PUSH1 0x4 ADD PUSH3 0x4B4 SWAP1 PUSH3 0x1E4D JUMP JUMPDEST PUSH1 0x40 MLOAD DUP1 SWAP2 SUB SWAP1 REVERT JUMPDEST DUP4 PUSH1 0x0 DUP1 JUMPDEST PUSH1 0x0 DUP1 SLOAD SWAP1 POP DUP2 LT ISZERO PUSH3 0x6F4 JUMPI DUP3 PUSH1 0x40 MLOAD PUSH1 0x20 ADD PUSH3 0x4E3 SWAP2 SWAP1 PUSH3 0x1B6F JUMP JUMPDEST PUSH1 0x40 MLOAD PUSH1 0x20 DUP2 DUP4 SUB SUB DUP2 MSTORE SWAP1 PUSH1 0x40 MSTORE DUP1 MLOAD SWAP1 PUSH1 0x20 ADD KECCAK256 PUSH1 0x0 DUP3 DUP2 SLOAD DUP2 LT PUSH3 0x510 JUMPI PUSH3 0x50F PUSH3 0x1B88 JUMP JUMPDEST JUMPDEST SWAP1 PUSH1 0x0 MSTORE PUSH1 0x20 PUSH1 0x0 KECCAK256 ADD PUSH1 0x0 SWAP1 SLOAD SWAP1 PUSH2 0x100 EXP SWAP1 DIV PUSH20 0xFFFFFFFFFFFFFFFFFFFFFFFFFFFFFFFFFFFFFFFF AND PUSH20 0xFFFFFFFFFFFFFFFFFFFFFFFFFFFFFFFFFFFFFFFF AND PUSH4 0x6FDDE03 PUSH1 0x40 MLOAD DUP2 PUSH4 0xFFFFFFFF AND PUSH1 0xE0 SHL DUP2 MSTORE PUSH1 0x4 ADD PUSH1 0x0 PUSH1 0x40 MLOAD DUP1 DUP4 SUB DUP2 DUP7 GAS STATICCALL ISZERO DUP1 ISZERO PUSH3 0x586 JUMPI RETURNDATASIZE PUSH1 0x0 DUP1 RETURNDATACOPY RETURNDATASIZE PUSH1 0x0 REVERT JUMPDEST POP POP POP POP PUSH1 0x40 MLOAD RETURNDATASIZE PUSH1 0x0 DUP3 RETURNDATACOPY RETURNDATASIZE PUSH1 0x1F NOT PUSH1 0x1F DUP3 ADD AND DUP3 ADD DUP1 PUSH1 0x40 MSTORE POP DUP2 ADD SWAP1 PUSH3 0x5B1 SWAP2 SWAP1 PUSH3 0x1C35 JUMP JUMPDEST PUSH1 0x40 MLOAD PUSH1 0x20 ADD PUSH3 0x5C3 SWAP2 SWAP1 PUSH3 0x1B6F JUMP JUMPDEST PUSH1 0x40 MLOAD PUSH1 0x20 DUP2 DUP4 SUB SUB DUP2 MSTORE SWAP1 PUSH1 0x40 MSTORE DUP1 MLOAD SWAP1 PUSH1 0x20 ADD KECCAK256 SUB PUSH3 0x6DE JUMPI PUSH1 0x0 DUP2 DUP2 SLOAD DUP2 LT PUSH3 0x5F6 JUMPI PUSH3 0x5F5 PUSH3 0x1B88 JUMP JUMPDEST JUMPDEST SWAP1 PUSH1 0x0 MSTORE PUSH1 0x20 PUSH1 0x0 KECCAK256 ADD PUSH1 0x0 SWAP1 SLOAD SWAP1 PUSH2 0x100 EXP SWAP1 DIV PUSH20 0xFFFFFFFFFFFFFFFFFFFFFFFFFFFFFFFFFFFFFFFF AND PUSH20 0xFFFFFFFFFFFFFFFFFFFFFFFFFFFFFFFFFFFFFFFF AND PUSH4 0x22F3E2D4 PUSH1 0x40 MLOAD DUP2 PUSH4 0xFFFFFFFF AND PUSH1 0xE0 SHL DUP2 MSTORE PUSH1 0x4 ADD PUSH1 0x20 PUSH1 0x40 MLOAD DUP1 DUP4 SUB DUP2 DUP7 GAS STATICCALL ISZERO DUP1 ISZERO PUSH3 0x66C JUMPI RETURNDATASIZE PUSH1 0x0 DUP1 RETURNDATACOPY RETURNDATASIZE PUSH1 0x0 REVERT JUMPDEST POP POP POP POP PUSH1 0x40 MLOAD RETURNDATASIZE PUSH1 0x1F NOT PUSH1 0x1F DUP3 ADD AND DUP3 ADD DUP1 PUSH1 0x40 MSTORE POP DUP2 ADD SWAP1 PUSH3 0x692 SWAP2 SWAP1 PUSH3 0x1EAC JUMP JUMPDEST PUSH3 0x6D4 JUMPI PUSH1 0x40 MLOAD PUSH32 0x8C379A000000000000000000000000000000000000000000000000000000000 DUP2 MSTORE PUSH1 0x4 ADD PUSH3 0x6CB SWAP1 PUSH3 0x1F2E JUMP JUMPDEST PUSH1 0x40 MLOAD DUP1 SWAP2 SUB SWAP1 REVERT JUMPDEST PUSH1 0x1 SWAP2 POP PUSH3 0x6F4 JUMP JUMPDEST DUP1 DUP1 PUSH3 0x6EB SWAP1 PUSH3 0x1DB0 JUMP JUMPDEST SWAP2 POP POP PUSH3 0x4C2 JUMP JUMPDEST POP DUP1 PUSH3 0x738 JUMPI PUSH1 0x40 MLOAD PUSH32 0x8C379A000000000000000000000000000000000000000000000000000000000 DUP2 MSTORE PUSH1 0x4 ADD PUSH3 0x72F SWAP1 PUSH3 0x1E4D JUMP JUMPDEST PUSH1 0x40 MLOAD DUP1 SWAP2 SUB SWAP1 REVERT JUMPDEST PUSH1 0x0 JUMPDEST PUSH1 0x0 DUP1 SLOAD SWAP1 POP DUP2 LT ISZERO PUSH3 0xB88 JUMPI DUP7 PUSH1 0x40 MLOAD PUSH1 0x20 ADD PUSH3 0x75C SWAP2 SWAP1 PUSH3 0x1B6F JUMP JUMPDEST PUSH1 0x40 MLOAD PUSH1 0x20 DUP2 DUP4 SUB SUB DUP2 MSTORE SWAP1 PUSH1 0x40 MSTORE DUP1 MLOAD SWAP1 PUSH1 0x20 ADD KECCAK256 PUSH1 0x0 DUP3 DUP2 SLOAD DUP2 LT PUSH3 0x789 JUMPI PUSH3 0x788 PUSH3 0x1B88 JUMP JUMPDEST JUMPDEST SWAP1 PUSH1 0x0 MSTORE PUSH1 0x20 PUSH1 0x0 KECCAK256 ADD PUSH1 0x0 SWAP1 SLOAD SWAP1 PUSH2 0x100 EXP SWAP1 DIV PUSH20 0xFFFFFFFFFFFFFFFFFFFFFFFFFFFFFFFFFFFFFFFF AND PUSH20 0xFFFFFFFFFFFFFFFFFFFFFFFFFFFFFFFFFFFFFFFF AND PUSH4 0x6FDDE03 PUSH1 0x40 MLOAD DUP2 PUSH4 0xFFFFFFFF AND PUSH1 0xE0 SHL DUP2 MSTORE PUSH1 0x4 ADD PUSH1 0x0 PUSH1 0x40 MLOAD DUP1 DUP4 SUB DUP2 DUP7 GAS STATICCALL ISZERO DUP1 ISZERO PUSH3 0x7FF JUMPI RETURNDATASIZE PUSH1 0x0 DUP1 RETURNDATACOPY RETURNDATASIZE PUSH1 0x0 REVERT JUMPDEST POP POP POP POP PUSH1 0x40 MLOAD RETURNDATASIZE PUSH1 0x0 DUP3 RETURNDATACOPY RETURNDATASIZE PUSH1 0x1F NOT PUSH1 0x1F DUP3 ADD AND DUP3 ADD DUP1 PUSH1 0x40 MSTORE POP DUP2 ADD SWAP1 PUSH3 0x82A SWAP2 SWAP1 PUSH3 0x1C35 JUMP JUMPDEST PUSH1 0x40 MLOAD PUSH1 0x20 ADD PUSH3 0x83C SWAP2 SWAP1 PUSH3 0x1B6F JUMP JUMPDEST PUSH1 0x40 MLOAD PUSH1 0x20 DUP2 DUP4 SUB SUB DUP2 MSTORE SWAP1 PUSH1 0x40 MSTORE DUP1 MLOAD SWAP1 PUSH1 0x20 ADD KECCAK256 SUB PUSH3 0xB72 JUMPI PUSH1 0x0 DUP2 DUP2 SLOAD DUP2 LT PUSH3 0x86F JUMPI PUSH3 0x86E PUSH3 0x1B88 JUMP JUMPDEST JUMPDEST SWAP1 PUSH1 0x0 MSTORE PUSH1 0x20 PUSH1 0x0 KECCAK256 ADD PUSH1 0x0 SWAP1 SLOAD SWAP1 PUSH2 0x100 EXP SWAP1 DIV PUSH20 0xFFFFFFFFFFFFFFFFFFFFFFFFFFFFFFFFFFFFFFFF AND PUSH20 0xFFFFFFFFFFFFFFFFFFFFFFFFFFFFFFFFFFFFFFFF AND PUSH4 0x893D20E8 PUSH1 0x40 MLOAD DUP2 PUSH4 0xFFFFFFFF AND PUSH1 0xE0 SHL DUP2 MSTORE PUSH1 0x4 ADD PUSH1 0x20 PUSH1 0x40 MLOAD DUP1 DUP4 SUB DUP2 DUP7 GAS STATICCALL ISZERO DUP1 ISZERO PUSH3 0x8E5 JUMPI RETURNDATASIZE PUSH1 0x0 DUP1 RETURNDATACOPY RETURNDATASIZE PUSH1 0x0 REVERT JUMPDEST POP POP POP POP PUSH1 0x40 MLOAD RETURNDATASIZE PUSH1 0x1F NOT PUSH1 0x1F DUP3 ADD AND DUP3 ADD DUP1 PUSH1 0x40 MSTORE POP DUP2 ADD SWAP1 PUSH3 0x90B SWAP2 SWAP1 PUSH3 0x1CB7 JUMP JUMPDEST PUSH20 0xFFFFFFFFFFFFFFFFFFFFFFFFFFFFFFFFFFFFFFFF AND CALLER PUSH20 0xFFFFFFFFFFFFFFFFFFFFFFFFFFFFFFFFFFFFFFFF AND EQ PUSH3 0x97B JUMPI PUSH1 0x40 MLOAD PUSH32 0x8C379A000000000000000000000000000000000000000000000000000000000 DUP2 MSTORE PUSH1 0x4 ADD PUSH3 0x972 SWAP1 PUSH3 0x1D5F JUMP JUMPDEST PUSH1 0x40 MLOAD DUP1 SWAP2 SUB SWAP1 REVERT JUMPDEST PUSH1 0x0 DUP2 DUP2 SLOAD DUP2 LT PUSH3 0x992 JUMPI PUSH3 0x991 PUSH3 0x1B88 JUMP JUMPDEST JUMPDEST SWAP1 PUSH1 0x0 MSTORE PUSH1 0x20 PUSH1 0x0 KECCAK256 ADD PUSH1 0x0 SWAP1 SLOAD SWAP1 PUSH2 0x100 EXP SWAP1 DIV PUSH20 0xFFFFFFFFFFFFFFFFFFFFFFFFFFFFFFFFFFFFFFFF AND PUSH20 0xFFFFFFFFFFFFFFFFFFFFFFFFFFFFFFFFFFFFFFFF AND PUSH4 0xC47F0027 DUP9 PUSH1 0x40 MLOAD DUP3 PUSH4 0xFFFFFFFF AND PUSH1 0xE0 SHL DUP2 MSTORE PUSH1 0x4 ADD PUSH3 0x9F7 SWAP2 SWAP1 PUSH3 0x1F50 JUMP JUMPDEST PUSH1 0x0 PUSH1 0x40 MLOAD DUP1 DUP4 SUB DUP2 PUSH1 0x0 DUP8 DUP1 EXTCODESIZE ISZERO DUP1 ISZERO PUSH3 0xA12 JUMPI PUSH1 0x0 DUP1 REVERT JUMPDEST POP GAS CALL ISZERO DUP1 ISZERO PUSH3 0xA27 JUMPI RETURNDATASIZE PUSH1 0x0 DUP1 RETURNDATACOPY RETURNDATASIZE PUSH1 0x0 REVERT JUMPDEST POP POP POP POP PUSH1 0x0 DUP2 DUP2 SLOAD DUP2 LT PUSH3 0xA42 JUMPI PUSH3 0xA41 PUSH3 0x1B88 JUMP JUMPDEST JUMPDEST SWAP1 PUSH1 0x0 MSTORE PUSH1 0x20 PUSH1 0x0 KECCAK256 ADD PUSH1 0x0 SWAP1 SLOAD SWAP1 PUSH2 0x100 EXP SWAP1 DIV PUSH20 0xFFFFFFFFFFFFFFFFFFFFFFFFFFFFFFFFFFFFFFFF AND PUSH20 0xFFFFFFFFFFFFFFFFFFFFFFFFFFFFFFFFFFFFFFFF AND PUSH4 0x90C3F38F DUP8 PUSH1 0x40 MLOAD DUP3 PUSH4 0xFFFFFFFF AND PUSH1 0xE0 SHL DUP2 MSTORE PUSH1 0x4 ADD PUSH3 0xAA7 SWAP2 SWAP1 PUSH3 0x1F50 JUMP JUMPDEST PUSH1 0x0 PUSH1 0x40 MLOAD DUP1 DUP4 SUB DUP2 PUSH1 0x0 DUP8 DUP1 EXTCODESIZE ISZERO DUP1 ISZERO PUSH3 0xAC2 JUMPI PUSH1 0x0 DUP1 REVERT JUMPDEST POP GAS CALL ISZERO DUP1 ISZERO PUSH3 0xAD7 JUMPI RETURNDATASIZE PUSH1 0x0 DUP1 RETURNDATACOPY RETURNDATASIZE PUSH1 0x0 REVERT JUMPDEST POP POP POP POP CALLER PUSH20 0xFFFFFFFFFFFFFFFFFFFFFFFFFFFFFFFFFFFFFFFF AND PUSH32 0x8DD9D4FB666AF0B82C9823E221AEDB4557C6A38226DA896973C5A245E7B0450D PUSH1 0x0 DUP4 DUP2 SLOAD DUP2 LT PUSH3 0xB2A JUMPI PUSH3 0xB29 PUSH3 0x1B88 JUMP JUMPDEST JUMPDEST SWAP1 PUSH1 0x0 MSTORE PUSH1 0x20 PUSH1 0x0 KECCAK256 ADD PUSH1 0x0 SWAP1 SLOAD SWAP1 PUSH2 0x100 EXP SWAP1 DIV PUSH20 0xFFFFFFFFFFFFFFFFFFFFFFFFFFFFFFFFFFFFFFFF AND PUSH1 0x40 MLOAD PUSH3 0xB64 SWAP2 SWAP1 PUSH3 0x1B10 JUMP JUMPDEST PUSH1 0x40 MLOAD DUP1 SWAP2 SUB SWAP1 LOG2 PUSH3 0xB88 JUMP JUMPDEST DUP1 DUP1 PUSH3 0xB7F SWAP1 PUSH3 0x1DB0 JUMP JUMPDEST SWAP2 POP POP PUSH3 0x73B JUMP JUMPDEST POP POP POP POP POP POP POP JUMP JUMPDEST DUP1 PUSH1 0x0 DUP1 JUMPDEST PUSH1 0x0 DUP1 SLOAD SWAP1 POP DUP2 LT ISZERO PUSH3 0xDF6 JUMPI DUP3 PUSH1 0x40 MLOAD PUSH1 0x20 ADD PUSH3 0xBB7 SWAP2 SWAP1 PUSH3 0x1B6F JUMP JUMPDEST PUSH1 0x40 MLOAD PUSH1 0x20 DUP2 DUP4 SUB SUB DUP2 MSTORE SWAP1 PUSH1 0x40 MSTORE DUP1 MLOAD SWAP1 PUSH1 0x20 ADD KECCAK256 PUSH1 0x0 DUP3 DUP2 SLOAD DUP2 LT PUSH3 0xBE4 JUMPI PUSH3 0xBE3 PUSH3 0x1B88 JUMP JUMPDEST JUMPDEST SWAP1 PUSH1 0x0 MSTORE PUSH1 0x20 PUSH1 0x0 KECCAK256 ADD PUSH1 0x0 SWAP1 SLOAD SWAP1 PUSH2 0x100 EXP SWAP1 DIV PUSH20 0xFFFFFFFFFFFFFFFFFFFFFFFFFFFFFFFFFFFFFFFF AND PUSH20 0xFFFFFFFFFFFFFFFFFFFFFFFFFFFFFFFFFFFFFFFF AND PUSH4 0x6FDDE03 PUSH1 0x40 MLOAD DUP2 PUSH4 0xFFFFFFFF AND PUSH1 0xE0 SHL DUP2 MSTORE PUSH1 0x4 ADD PUSH1 0x0 PUSH1 0x40 MLOAD DUP1 DUP4 SUB DUP2 DUP7 GAS STATICCALL ISZERO DUP1 ISZERO PUSH3 0xC5A JUMPI RETURNDATASIZE PUSH1 0x0 DUP1 RETURNDATACOPY RETURNDATASIZE PUSH1 0x0 REVERT JUMPDEST POP POP POP POP PUSH1 0x40 MLOAD RETURNDATASIZE PUSH1 0x0 DUP3 RETURNDATACOPY RETURNDATASIZE PUSH1 0x1F NOT PUSH1 0x1F DUP3 ADD AND DUP3 ADD DUP1 PUSH1 0x40 MSTORE POP DUP2 ADD SWAP1 PUSH3 0xC85 SWAP2 SWAP1 PUSH3 0x1C35 JUMP JUMPDEST PUSH1 0x40 MLOAD PUSH1 0x20 ADD PUSH3 0xC97 SWAP2 SWAP1 PUSH3 0x1B6F JUMP JUMPDEST PUSH1 0x40 MLOAD PUSH1 0x20 DUP2 DUP4 SUB SUB DUP2 MSTORE SWAP1 PUSH1 0x40 MSTORE DUP1 MLOAD SWAP1 PUSH1 0x20 ADD KECCAK256 SUB PUSH3 0xDE0 JUMPI PUSH1 0x0 DUP2 DUP2 SLOAD DUP2 LT PUSH3 0xCCA JUMPI PUSH3 0xCC9 PUSH3 0x1B88 JUMP JUMPDEST JUMPDEST SWAP1 PUSH1 0x0 MSTORE PUSH1 0x20 PUSH1 0x0 KECCAK256 ADD PUSH1 0x0 SWAP1 SLOAD SWAP1 PUSH2 0x100 EXP SWAP1 DIV PUSH20 0xFFFFFFFFFFFFFFFFFFFFFFFFFFFFFFFFFFFFFFFF AND PUSH20 0xFFFFFFFFFFFFFFFFFFFFFFFFFFFFFFFFFFFFFFFF AND PUSH4 0x893D20E8 PUSH1 0x40 MLOAD DUP2 PUSH4 0xFFFFFFFF AND PUSH1 0xE0 SHL DUP2 MSTORE PUSH1 0x4 ADD PUSH1 0x20 PUSH1 0x40 MLOAD DUP1 DUP4 SUB DUP2 DUP7 GAS STATICCALL ISZERO DUP1 ISZERO PUSH3 0xD40 JUMPI RETURNDATASIZE PUSH1 0x0 DUP1 RETURNDATACOPY RETURNDATASIZE PUSH1 0x0 REVERT JUMPDEST POP POP POP POP PUSH1 0x40 MLOAD RETURNDATASIZE PUSH1 0x1F NOT PUSH1 0x1F DUP3 ADD AND DUP3 ADD DUP1 PUSH1 0x40 MSTORE POP DUP2 ADD SWAP1 PUSH3 0xD66 SWAP2 SWAP1 PUSH3 0x1CB7 JUMP JUMPDEST PUSH20 0xFFFFFFFFFFFFFFFFFFFFFFFFFFFFFFFFFFFFFFFF AND CALLER PUSH20 0xFFFFFFFFFFFFFFFFFFFFFFFFFFFFFFFFFFFFFFFF AND EQ PUSH3 0xDD6 JUMPI PUSH1 0x40 MLOAD PUSH32 0x8C379A000000000000000000000000000000000000000000000000000000000 DUP2 MSTORE PUSH1 0x4 ADD PUSH3 0xDCD SWAP1 PUSH3 0x1D5F JUMP JUMPDEST PUSH1 0x40 MLOAD DUP1 SWAP2 SUB SWAP1 REVERT JUMPDEST PUSH1 0x1 SWAP2 POP PUSH3 0xDF6 JUMP JUMPDEST DUP1 DUP1 PUSH3 0xDED SWAP1 PUSH3 0x1DB0 JUMP JUMPDEST SWAP2 POP POP PUSH3 0xB96 JUMP JUMPDEST POP DUP1 PUSH3 0xE3A JUMPI PUSH1 0x40 MLOAD PUSH32 0x8C379A000000000000000000000000000000000000000000000000000000000 DUP2 MSTORE PUSH1 0x4 ADD PUSH3 0xE31 SWAP1 PUSH3 0x1E4D JUMP JUMPDEST PUSH1 0x40 MLOAD DUP1 SWAP2 SUB SWAP1 REVERT JUMPDEST DUP3 PUSH1 0x0 DUP1 JUMPDEST PUSH1 0x0 DUP1 SLOAD SWAP1 POP DUP2 LT ISZERO PUSH3 0x1071 JUMPI DUP3 PUSH1 0x40 MLOAD PUSH1 0x20 ADD PUSH3 0xE60 SWAP2 SWAP1 PUSH3 0x1B6F JUMP JUMPDEST PUSH1 0x40 MLOAD PUSH1 0x20 DUP2 DUP4 SUB SUB DUP2 MSTORE SWAP1 PUSH1 0x40 MSTORE DUP1 MLOAD SWAP1 PUSH1 0x20 ADD KECCAK256 PUSH1 0x0 DUP3 DUP2 SLOAD DUP2 LT PUSH3 0xE8D JUMPI PUSH3 0xE8C PUSH3 0x1B88 JUMP JUMPDEST JUMPDEST SWAP1 PUSH1 0x0 MSTORE PUSH1 0x20 PUSH1 0x0 KECCAK256 ADD PUSH1 0x0 SWAP1 SLOAD SWAP1 PUSH2 0x100 EXP SWAP1 DIV PUSH20 0xFFFFFFFFFFFFFFFFFFFFFFFFFFFFFFFFFFFFFFFF AND PUSH20 0xFFFFFFFFFFFFFFFFFFFFFFFFFFFFFFFFFFFFFFFF AND PUSH4 0x6FDDE03 PUSH1 0x40 MLOAD DUP2 PUSH4 0xFFFFFFFF AND PUSH1 0xE0 SHL DUP2 MSTORE PUSH1 0x4 ADD PUSH1 0x0 PUSH1 0x40 MLOAD DUP1 DUP4 SUB DUP2 DUP7 GAS STATICCALL ISZERO DUP1 ISZERO PUSH3 0xF03 JUMPI RETURNDATASIZE PUSH1 0x0 DUP1 RETURNDATACOPY RETURNDATASIZE PUSH1 0x0 REVERT JUMPDEST POP POP POP POP PUSH1 0x40 MLOAD RETURNDATASIZE PUSH1 0x0 DUP3 RETURNDATACOPY RETURNDATASIZE PUSH1 0x1F NOT PUSH1 0x1F DUP3 ADD AND DUP3 ADD DUP1 PUSH1 0x40 MSTORE POP DUP2 ADD SWAP1 PUSH3 0xF2E SWAP2 SWAP1 PUSH3 0x1C35 JUMP JUMPDEST PUSH1 0x40 MLOAD PUSH1 0x20 ADD PUSH3 0xF40 SWAP2 SWAP1 PUSH3 0x1B6F JUMP JUMPDEST PUSH1 0x40 MLOAD PUSH1 0x20 DUP2 DUP4 SUB SUB DUP2 MSTORE SWAP1 PUSH1 0x40 MSTORE DUP1 MLOAD SWAP1 PUSH1 0x20 ADD KECCAK256 SUB PUSH3 0x105B JUMPI PUSH1 0x0 DUP2 DUP2 SLOAD DUP2 LT PUSH3 0xF73 JUMPI PUSH3 0xF72 PUSH3 0x1B88 JUMP JUMPDEST JUMPDEST SWAP1 PUSH1 0x0 MSTORE PUSH1 0x20 PUSH1 0x0 KECCAK256 ADD PUSH1 0x0 SWAP1 SLOAD SWAP1 PUSH2 0x100 EXP SWAP1 DIV PUSH20 0xFFFFFFFFFFFFFFFFFFFFFFFFFFFFFFFFFFFFFFFF AND PUSH20 0xFFFFFFFFFFFFFFFFFFFFFFFFFFFFFFFFFFFFFFFF AND PUSH4 0x22F3E2D4 PUSH1 0x40 MLOAD DUP2 PUSH4 0xFFFFFFFF AND PUSH1 0xE0 SHL DUP2 MSTORE PUSH1 0x4 ADD PUSH1 0x20 PUSH1 0x40 MLOAD DUP1 DUP4 SUB DUP2 DUP7 GAS STATICCALL ISZERO DUP1 ISZERO PUSH3 0xFE9 JUMPI RETURNDATASIZE PUSH1 0x0 DUP1 RETURNDATACOPY RETURNDATASIZE PUSH1 0x0 REVERT JUMPDEST POP POP POP POP PUSH1 0x40 MLOAD RETURNDATASIZE PUSH1 0x1F NOT PUSH1 0x1F DUP3 ADD AND DUP3 ADD DUP1 PUSH1 0x40 MSTORE POP DUP2 ADD SWAP1 PUSH3 0x100F SWAP2 SWAP1 PUSH3 0x1EAC JUMP JUMPDEST PUSH3 0x1051 JUMPI PUSH1 0x40 MLOAD PUSH32 0x8C379A000000000000000000000000000000000000000000000000000000000 DUP2 MSTORE PUSH1 0x4 ADD PUSH3 0x1048 SWAP1 PUSH3 0x1F2E JUMP JUMPDEST PUSH1 0x40 MLOAD DUP1 SWAP2 SUB SWAP1 REVERT JUMPDEST PUSH1 0x1 SWAP2 POP PUSH3 0x1071 JUMP JUMPDEST DUP1 DUP1 PUSH3 0x1068 SWAP1 PUSH3 0x1DB0 JUMP JUMPDEST SWAP2 POP POP PUSH3 0xE3F JUMP JUMPDEST POP DUP1 PUSH3 0x10B5 JUMPI PUSH1 0x40 MLOAD PUSH32 0x8C379A000000000000000000000000000000000000000000000000000000000 DUP2 MSTORE PUSH1 0x4 ADD PUSH3 0x10AC SWAP1 PUSH3 0x1E4D JUMP JUMPDEST PUSH1 0x40 MLOAD DUP1 SWAP2 SUB SWAP1 REVERT JUMPDEST PUSH1 0x0 JUMPDEST PUSH1 0x0 DUP1 SLOAD SWAP1 POP DUP2 LT ISZERO PUSH3 0x1456 JUMPI DUP6 PUSH1 0x40 MLOAD PUSH1 0x20 ADD PUSH3 0x10D9 SWAP2 SWAP1 PUSH3 0x1B6F JUMP JUMPDEST PUSH1 0x40 MLOAD PUSH1 0x20 DUP2 DUP4 SUB SUB DUP2 MSTORE SWAP1 PUSH1 0x40 MSTORE DUP1 MLOAD SWAP1 PUSH1 0x20 ADD KECCAK256 PUSH1 0x0 DUP3 DUP2 SLOAD DUP2 LT PUSH3 0x1106 JUMPI PUSH3 0x1105 PUSH3 0x1B88 JUMP JUMPDEST JUMPDEST SWAP1 PUSH1 0x0 MSTORE PUSH1 0x20 PUSH1 0x0 KECCAK256 ADD PUSH1 0x0 SWAP1 SLOAD SWAP1 PUSH2 0x100 EXP SWAP1 DIV PUSH20 0xFFFFFFFFFFFFFFFFFFFFFFFFFFFFFFFFFFFFFFFF AND PUSH20 0xFFFFFFFFFFFFFFFFFFFFFFFFFFFFFFFFFFFFFFFF AND PUSH4 0x6FDDE03 PUSH1 0x40 MLOAD DUP2 PUSH4 0xFFFFFFFF AND PUSH1 0xE0 SHL DUP2 MSTORE PUSH1 0x4 ADD PUSH1 0x0 PUSH1 0x40 MLOAD DUP1 DUP4 SUB DUP2 DUP7 GAS STATICCALL ISZERO DUP1 ISZERO PUSH3 0x117C JUMPI RETURNDATASIZE PUSH1 0x0 DUP1 RETURNDATACOPY RETURNDATASIZE PUSH1 0x0 REVERT JUMPDEST POP POP POP POP PUSH1 0x40 MLOAD RETURNDATASIZE PUSH1 0x0 DUP3 RETURNDATACOPY RETURNDATASIZE PUSH1 0x1F NOT PUSH1 0x1F DUP3 ADD AND DUP3 ADD DUP1 PUSH1 0x40 MSTORE POP DUP2 ADD SWAP1 PUSH3 0x11A7 SWAP2 SWAP1 PUSH3 0x1C35 JUMP JUMPDEST PUSH1 0x40 MLOAD PUSH1 0x20 ADD PUSH3 0x11B9 SWAP2 SWAP1 PUSH3 0x1B6F JUMP JUMPDEST PUSH1 0x40 MLOAD PUSH1 0x20 DUP2 DUP4 SUB SUB DUP2 MSTORE SWAP1 PUSH1 0x40 MSTORE DUP1 MLOAD SWAP1 PUSH1 0x20 ADD KECCAK256 SUB PUSH3 0x1440 JUMPI PUSH1 0x0 DUP2 DUP2 SLOAD DUP2 LT PUSH3 0x11EC JUMPI PUSH3 0x11EB PUSH3 0x1B88 JUMP JUMPDEST JUMPDEST SWAP1 PUSH1 0x0 MSTORE PUSH1 0x20 PUSH1 0x0 KECCAK256 ADD PUSH1 0x0 SWAP1 SLOAD SWAP1 PUSH2 0x100 EXP SWAP1 DIV PUSH20 0xFFFFFFFFFFFFFFFFFFFFFFFFFFFFFFFFFFFFFFFF AND PUSH20 0xFFFFFFFFFFFFFFFFFFFFFFFFFFFFFFFFFFFFFFFF AND PUSH4 0x893D20E8 PUSH1 0x40 MLOAD DUP2 PUSH4 0xFFFFFFFF AND PUSH1 0xE0 SHL DUP2 MSTORE PUSH1 0x4 ADD PUSH1 0x20 PUSH1 0x40 MLOAD DUP1 DUP4 SUB DUP2 DUP7 GAS STATICCALL ISZERO DUP1 ISZERO PUSH3 0x1262 JUMPI RETURNDATASIZE PUSH1 0x0 DUP1 RETURNDATACOPY RETURNDATASIZE PUSH1 0x0 REVERT JUMPDEST POP POP POP POP PUSH1 0x40 MLOAD RETURNDATASIZE PUSH1 0x1F NOT PUSH1 0x1F DUP3 ADD AND DUP3 ADD DUP1 PUSH1 0x40 MSTORE POP DUP2 ADD SWAP1 PUSH3 0x1288 SWAP2 SWAP1 PUSH3 0x1CB7 JUMP JUMPDEST PUSH20 0xFFFFFFFFFFFFFFFFFFFFFFFFFFFFFFFFFFFFFFFF AND CALLER PUSH20 0xFFFFFFFFFFFFFFFFFFFFFFFFFFFFFFFFFFFFFFFF AND EQ PUSH3 0x12F8 JUMPI PUSH1 0x40 MLOAD PUSH32 0x8C379A000000000000000000000000000000000000000000000000000000000 DUP2 MSTORE PUSH1 0x4 ADD PUSH3 0x12EF SWAP1 PUSH3 0x1D5F JUMP JUMPDEST PUSH1 0x40 MLOAD DUP1 SWAP2 SUB SWAP1 REVERT JUMPDEST PUSH1 0x0 DUP2 DUP2 SLOAD DUP2 LT PUSH3 0x130F JUMPI PUSH3 0x130E PUSH3 0x1B88 JUMP JUMPDEST JUMPDEST SWAP1 PUSH1 0x0 MSTORE PUSH1 0x20 PUSH1 0x0 KECCAK256 ADD PUSH1 0x0 SWAP1 SLOAD SWAP1 PUSH2 0x100 EXP SWAP1 DIV PUSH20 0xFFFFFFFFFFFFFFFFFFFFFFFFFFFFFFFFFFFFFFFF AND PUSH20 0xFFFFFFFFFFFFFFFFFFFFFFFFFFFFFFFFFFFFFFFF AND PUSH4 0x2750FC78 PUSH1 0x0 PUSH1 0x40 MLOAD DUP3 PUSH4 0xFFFFFFFF AND PUSH1 0xE0 SHL DUP2 MSTORE PUSH1 0x4 ADD PUSH3 0x1375 SWAP2 SWAP1 PUSH3 0x1F85 JUMP JUMPDEST PUSH1 0x0 PUSH1 0x40 MLOAD DUP1 DUP4 SUB DUP2 PUSH1 0x0 DUP8 DUP1 EXTCODESIZE ISZERO DUP1 ISZERO PUSH3 0x1390 JUMPI PUSH1 0x0 DUP1 REVERT JUMPDEST POP GAS CALL ISZERO DUP1 ISZERO PUSH3 0x13A5 JUMPI RETURNDATASIZE PUSH1 0x0 DUP1 RETURNDATACOPY RETURNDATASIZE PUSH1 0x0 REVERT JUMPDEST POP POP POP POP CALLER PUSH20 0xFFFFFFFFFFFFFFFFFFFFFFFFFFFFFFFFFFFFFFFF AND PUSH32 0xF06E81C1ADA9C812D94044A534BF6CA8BBE18BA4A514336C9B632C5613450816 PUSH1 0x0 DUP4 DUP2 SLOAD DUP2 LT PUSH3 0x13F8 JUMPI PUSH3 0x13F7 PUSH3 0x1B88 JUMP JUMPDEST JUMPDEST SWAP1 PUSH1 0x0 MSTORE PUSH1 0x20 PUSH1 0x0 KECCAK256 ADD PUSH1 0x0 SWAP1 SLOAD SWAP1 PUSH2 0x100 EXP SWAP1 DIV PUSH20 0xFFFFFFFFFFFFFFFFFFFFFFFFFFFFFFFFFFFFFFFF AND PUSH1 0x40 MLOAD PUSH3 0x1432 SWAP2 SWAP1 PUSH3 0x1B10 JUMP JUMPDEST PUSH1 0x40 MLOAD DUP1 SWAP2 SUB SWAP1 LOG2 PUSH3 0x1456 JUMP JUMPDEST DUP1 DUP1 PUSH3 0x144D SWAP1 PUSH3 0x1DB0 JUMP JUMPDEST SWAP2 POP POP PUSH3 0x10B8 JUMP JUMPDEST POP POP POP POP POP POP JUMP JUMPDEST PUSH1 0x60 PUSH1 0x0 DUP1 DUP1 SLOAD SWAP1 POP PUSH8 0xFFFFFFFFFFFFFFFF DUP2 GT ISZERO PUSH3 0x1483 JUMPI PUSH3 0x1482 PUSH3 0x15F3 JUMP JUMPDEST JUMPDEST PUSH1 0x40 MLOAD SWAP1 DUP1 DUP3 MSTORE DUP1 PUSH1 0x20 MUL PUSH1 0x20 ADD DUP3 ADD PUSH1 0x40 MSTORE DUP1 ISZERO PUSH3 0x14B2 JUMPI DUP2 PUSH1 0x20 ADD PUSH1 0x20 DUP3 MUL DUP1 CALLDATASIZE DUP4 CALLDATACOPY DUP1 DUP3 ADD SWAP2 POP POP SWAP1 POP JUMPDEST POP SWAP1 POP PUSH1 0x0 JUMPDEST PUSH1 0x0 DUP1 SLOAD SWAP1 POP DUP2 LT ISZERO PUSH3 0x156E JUMPI PUSH1 0x0 DUP2 DUP2 SLOAD DUP2 LT PUSH3 0x14DD JUMPI PUSH3 0x14DC PUSH3 0x1B88 JUMP JUMPDEST JUMPDEST SWAP1 PUSH1 0x0 MSTORE PUSH1 0x20 PUSH1 0x0 KECCAK256 ADD PUSH1 0x0 SWAP1 SLOAD SWAP1 PUSH2 0x100 EXP SWAP1 DIV PUSH20 0xFFFFFFFFFFFFFFFFFFFFFFFFFFFFFFFFFFFFFFFF AND DUP3 DUP3 DUP2 MLOAD DUP2 LT PUSH3 0x151E JUMPI PUSH3 0x151D PUSH3 0x1B88 JUMP JUMPDEST JUMPDEST PUSH1 0x20 MUL PUSH1 0x20 ADD ADD SWAP1 PUSH20 0xFFFFFFFFFFFFFFFFFFFFFFFFFFFFFFFFFFFFFFFF AND SWAP1 DUP2 PUSH20 0xFFFFFFFFFFFFFFFFFFFFFFFFFFFFFFFFFFFFFFFF AND DUP2 MSTORE POP POP DUP1 DUP1 PUSH3 0x1565 SWAP1 PUSH3 0x1DB0 JUMP JUMPDEST SWAP2 POP POP PUSH3 0x14B8 JUMP JUMPDEST POP DUP1 SWAP2 POP POP SWAP1 JUMP JUMPDEST PUSH1 0x0 DUP2 DUP2 SLOAD DUP2 LT PUSH3 0x1587 JUMPI PUSH1 0x0 DUP1 REVERT JUMPDEST SWAP1 PUSH1 0x0 MSTORE PUSH1 0x20 PUSH1 0x0 KECCAK256 ADD PUSH1 0x0 SWAP2 POP SLOAD SWAP1 PUSH2 0x100 EXP SWAP1 DIV PUSH20 0xFFFFFFFFFFFFFFFFFFFFFFFFFFFFFFFFFFFFFFFF AND DUP2 JUMP JUMPDEST PUSH2 0x2BDA DUP1 PUSH3 0x1FA3 DUP4 CODECOPY ADD SWAP1 JUMP JUMPDEST PUSH1 0x0 PUSH1 0x40 MLOAD SWAP1 POP SWAP1 JUMP JUMPDEST PUSH1 0x0 DUP1 REVERT JUMPDEST PUSH1 0x0 DUP1 REVERT JUMPDEST PUSH1 0x0 DUP1 REVERT JUMPDEST PUSH1 0x0 DUP1 REVERT JUMPDEST PUSH1 0x0 PUSH1 0x1F NOT PUSH1 0x1F DUP4 ADD AND SWAP1 POP SWAP2 SWAP1 POP JUMP JUMPDEST PUSH32 0x4E487B7100000000000000000000000000000000000000000000000000000000 PUSH1 0x0 MSTORE PUSH1 0x41 PUSH1 0x4 MSTORE PUSH1 0x24 PUSH1 0x0 REVERT JUMPDEST PUSH3 0x162D DUP3 PUSH3 0x15E2 JUMP JUMPDEST DUP2 ADD DUP2 DUP2 LT PUSH8 0xFFFFFFFFFFFFFFFF DUP3 GT OR ISZERO PUSH3 0x164F JUMPI PUSH3 0x164E PUSH3 0x15F3 JUMP JUMPDEST JUMPDEST DUP1 PUSH1 0x40 MSTORE POP POP POP JUMP JUMPDEST PUSH1 0x0 PUSH3 0x1664 PUSH3 0x15C4 JUMP JUMPDEST SWAP1 POP PUSH3 0x1672 DUP3 DUP3 PUSH3 0x1622 JUMP JUMPDEST SWAP2 SWAP1 POP JUMP JUMPDEST PUSH1 0x0 PUSH8 0xFFFFFFFFFFFFFFFF DUP3 GT ISZERO PUSH3 0x1695 JUMPI PUSH3 0x1694 PUSH3 0x15F3 JUMP JUMPDEST JUMPDEST PUSH3 0x16A0 DUP3 PUSH3 0x15E2 JUMP JUMPDEST SWAP1 POP PUSH1 0x20 DUP2 ADD SWAP1 POP SWAP2 SWAP1 POP JUMP JUMPDEST DUP3 DUP2 DUP4 CALLDATACOPY PUSH1 0x0 DUP4 DUP4 ADD MSTORE POP POP POP JUMP JUMPDEST PUSH1 0x0 PUSH3 0x16D3 PUSH3 0x16CD DUP5 PUSH3 0x1677 JUMP JUMPDEST PUSH3 0x1658 JUMP JUMPDEST SWAP1 POP DUP3 DUP2 MSTORE PUSH1 0x20 DUP2 ADD DUP5 DUP5 DUP5 ADD GT ISZERO PUSH3 0x16F2 JUMPI PUSH3 0x16F1 PUSH3 0x15DD JUMP JUMPDEST JUMPDEST PUSH3 0x16FF DUP5 DUP3 DUP6 PUSH3 0x16AD JUMP JUMPDEST POP SWAP4 SWAP3 POP POP POP JUMP JUMPDEST PUSH1 0x0 DUP3 PUSH1 0x1F DUP4 ADD SLT PUSH3 0x171F JUMPI PUSH3 0x171E PUSH3 0x15D8 JUMP JUMPDEST JUMPDEST DUP2 CALLDATALOAD PUSH3 0x1731 DUP5 DUP3 PUSH1 0x20 DUP7 ADD PUSH3 0x16BC JUMP JUMPDEST SWAP2 POP POP SWAP3 SWAP2 POP POP JUMP JUMPDEST PUSH1 0x0 DUP1 PUSH1 0x40 DUP4 DUP6 SUB SLT ISZERO PUSH3 0x1754 JUMPI PUSH3 0x1753 PUSH3 0x15CE JUMP JUMPDEST JUMPDEST PUSH1 0x0 DUP4 ADD CALLDATALOAD PUSH8 0xFFFFFFFFFFFFFFFF DUP2 GT ISZERO PUSH3 0x1775 JUMPI PUSH3 0x1774 PUSH3 0x15D3 JUMP JUMPDEST JUMPDEST PUSH3 0x1783 DUP6 DUP3 DUP7 ADD PUSH3 0x1707 JUMP JUMPDEST SWAP3 POP POP PUSH1 0x20 DUP4 ADD CALLDATALOAD PUSH8 0xFFFFFFFFFFFFFFFF DUP2 GT ISZERO PUSH3 0x17A7 JUMPI PUSH3 0x17A6 PUSH3 0x15D3 JUMP JUMPDEST JUMPDEST PUSH3 0x17B5 DUP6 DUP3 DUP7 ADD PUSH3 0x1707 JUMP JUMPDEST SWAP2 POP POP SWAP3 POP SWAP3 SWAP1 POP JUMP JUMPDEST PUSH1 0x0 PUSH1 0x20 DUP3 DUP5 SUB SLT ISZERO PUSH3 0x17D8 JUMPI PUSH3 0x17D7 PUSH3 0x15CE JUMP JUMPDEST JUMPDEST PUSH1 0x0 DUP3 ADD CALLDATALOAD PUSH8 0xFFFFFFFFFFFFFFFF DUP2 GT ISZERO PUSH3 0x17F9 JUMPI PUSH3 0x17F8 PUSH3 0x15D3 JUMP JUMPDEST JUMPDEST PUSH3 0x1807 DUP5 DUP3 DUP6 ADD PUSH3 0x1707 JUMP JUMPDEST SWAP2 POP POP SWAP3 SWAP2 POP POP JUMP JUMPDEST PUSH1 0x0 DUP2 MLOAD SWAP1 POP SWAP2 SWAP1 POP JUMP JUMPDEST PUSH1 0x0 DUP3 DUP3 MSTORE PUSH1 0x20 DUP3 ADD SWAP1 POP SWAP3 SWAP2 POP POP JUMP JUMPDEST PUSH1 0x0 DUP2 SWAP1 POP PUSH1 0x20 DUP3 ADD SWAP1 POP SWAP2 SWAP1 POP JUMP JUMPDEST PUSH1 0x0 PUSH20 0xFFFFFFFFFFFFFFFFFFFFFFFFFFFFFFFFFFFFFFFF DUP3 AND SWAP1 POP SWAP2 SWAP1 POP JUMP JUMPDEST PUSH1 0x0 PUSH3 0x1869 DUP3 PUSH3 0x183C JUMP JUMPDEST SWAP1 POP SWAP2 SWAP1 POP JUMP JUMPDEST PUSH3 0x187B DUP2 PUSH3 0x185C JUMP JUMPDEST DUP3 MSTORE POP POP JUMP JUMPDEST PUSH1 0x0 PUSH3 0x188F DUP4 DUP4 PUSH3 0x1870 JUMP JUMPDEST PUSH1 0x20 DUP4 ADD SWAP1 POP SWAP3 SWAP2 POP POP JUMP JUMPDEST PUSH1 0x0 PUSH1 0x20 DUP3 ADD SWAP1 POP SWAP2 SWAP1 POP JUMP JUMPDEST PUSH1 0x0 PUSH3 0x18B5 DUP3 PUSH3 0x1810 JUMP JUMPDEST PUSH3 0x18C1 DUP2 DUP6 PUSH3 0x181B JUMP JUMPDEST SWAP4 POP PUSH3 0x18CE DUP4 PUSH3 0x182C JUMP JUMPDEST DUP1 PUSH1 0x0 JUMPDEST DUP4 DUP2 LT ISZERO PUSH3 0x1905 JUMPI DUP2 MLOAD PUSH3 0x18E9 DUP9 DUP3 PUSH3 0x1881 JUMP JUMPDEST SWAP8 POP PUSH3 0x18F6 DUP4 PUSH3 0x189B JUMP JUMPDEST SWAP3 POP POP PUSH1 0x1 DUP2 ADD SWAP1 POP PUSH3 0x18D2 JUMP JUMPDEST POP DUP6 SWAP4 POP POP POP POP SWAP3 SWAP2 POP POP JUMP JUMPDEST PUSH1 0x0 PUSH1 0x20 DUP3 ADD SWAP1 POP DUP2 DUP2 SUB PUSH1 0x0 DUP4 ADD MSTORE PUSH3 0x192E DUP2 DUP5 PUSH3 0x18A8 JUMP JUMPDEST SWAP1 POP SWAP3 SWAP2 POP POP JUMP JUMPDEST PUSH1 0x0 DUP2 SWAP1 POP SWAP2 SWAP1 POP JUMP JUMPDEST PUSH3 0x194B DUP2 PUSH3 0x1936 JUMP JUMPDEST DUP2 EQ PUSH3 0x1957 JUMPI PUSH1 0x0 DUP1 REVERT JUMPDEST POP JUMP JUMPDEST PUSH1 0x0 DUP2 CALLDATALOAD SWAP1 POP PUSH3 0x196B DUP2 PUSH3 0x1940 JUMP JUMPDEST SWAP3 SWAP2 POP POP JUMP JUMPDEST PUSH1 0x0 PUSH1 0x20 DUP3 DUP5 SUB SLT ISZERO PUSH3 0x198A JUMPI PUSH3 0x1989 PUSH3 0x15CE JUMP JUMPDEST JUMPDEST PUSH1 0x0 PUSH3 0x199A DUP5 DUP3 DUP6 ADD PUSH3 0x195A JUMP JUMPDEST SWAP2 POP POP SWAP3 SWAP2 POP POP JUMP JUMPDEST PUSH1 0x0 DUP2 SWAP1 POP SWAP2 SWAP1 POP JUMP JUMPDEST PUSH1 0x0 PUSH3 0x19CE PUSH3 0x19C8 PUSH3 0x19C2 DUP5 PUSH3 0x183C JUMP JUMPDEST PUSH3 0x19A3 JUMP JUMPDEST PUSH3 0x183C JUMP JUMPDEST SWAP1 POP SWAP2 SWAP1 POP JUMP JUMPDEST PUSH1 0x0 PUSH3 0x19E2 DUP3 PUSH3 0x19AD JUMP JUMPDEST SWAP1 POP SWAP2 SWAP1 POP JUMP JUMPDEST PUSH1 0x0 PUSH3 0x19F6 DUP3 PUSH3 0x19D5 JUMP JUMPDEST SWAP1 POP SWAP2 SWAP1 POP JUMP JUMPDEST PUSH3 0x1A08 DUP2 PUSH3 0x19E9 JUMP JUMPDEST DUP3 MSTORE POP POP JUMP JUMPDEST PUSH1 0x0 PUSH1 0x20 DUP3 ADD SWAP1 POP PUSH3 0x1A25 PUSH1 0x0 DUP4 ADD DUP5 PUSH3 0x19FD JUMP JUMPDEST SWAP3 SWAP2 POP POP JUMP JUMPDEST PUSH3 0x1A36 DUP2 PUSH3 0x185C JUMP JUMPDEST DUP3 MSTORE POP POP JUMP JUMPDEST PUSH1 0x0 DUP2 MLOAD SWAP1 POP SWAP2 SWAP1 POP JUMP JUMPDEST PUSH1 0x0 DUP3 DUP3 MSTORE PUSH1 0x20 DUP3 ADD SWAP1 POP SWAP3 SWAP2 POP POP JUMP JUMPDEST PUSH1 0x0 JUMPDEST DUP4 DUP2 LT ISZERO PUSH3 0x1A78 JUMPI DUP1 DUP3 ADD MLOAD DUP2 DUP5 ADD MSTORE PUSH1 0x20 DUP2 ADD SWAP1 POP PUSH3 0x1A5B JUMP JUMPDEST PUSH1 0x0 DUP5 DUP5 ADD MSTORE POP POP POP POP JUMP JUMPDEST PUSH1 0x0 PUSH3 0x1A91 DUP3 PUSH3 0x1A3C JUMP JUMPDEST PUSH3 0x1A9D DUP2 DUP6 PUSH3 0x1A47 JUMP JUMPDEST SWAP4 POP PUSH3 0x1AAF DUP2 DUP6 PUSH1 0x20 DUP7 ADD PUSH3 0x1A58 JUMP JUMPDEST PUSH3 0x1ABA DUP2 PUSH3 0x15E2 JUMP JUMPDEST DUP5 ADD SWAP2 POP POP SWAP3 SWAP2 POP POP JUMP JUMPDEST PUSH1 0x0 PUSH1 0x60 DUP3 ADD SWAP1 POP PUSH3 0x1ADC PUSH1 0x0 DUP4 ADD DUP7 PUSH3 0x1A2B JUMP JUMPDEST DUP2 DUP2 SUB PUSH1 0x20 DUP4 ADD MSTORE PUSH3 0x1AF0 DUP2 DUP6 PUSH3 0x1A84 JUMP JUMPDEST SWAP1 POP DUP2 DUP2 SUB PUSH1 0x40 DUP4 ADD MSTORE PUSH3 0x1B06 DUP2 DUP5 PUSH3 0x1A84 JUMP JUMPDEST SWAP1 POP SWAP5 SWAP4 POP POP POP POP JUMP JUMPDEST PUSH1 0x0 PUSH1 0x20 DUP3 ADD SWAP1 POP PUSH3 0x1B27 PUSH1 0x0 DUP4 ADD DUP5 PUSH3 0x1A2B JUMP JUMPDEST SWAP3 SWAP2 POP POP JUMP JUMPDEST PUSH1 0x0 DUP2 SWAP1 POP SWAP3 SWAP2 POP POP JUMP JUMPDEST PUSH1 0x0 PUSH3 0x1B45 DUP3 PUSH3 0x1A3C JUMP JUMPDEST PUSH3 0x1B51 DUP2 DUP6 PUSH3 0x1B2D JUMP JUMPDEST SWAP4 POP PUSH3 0x1B63 DUP2 DUP6 PUSH1 0x20 DUP7 ADD PUSH3 0x1A58 JUMP JUMPDEST DUP1 DUP5 ADD SWAP2 POP POP SWAP3 SWAP2 POP POP JUMP JUMPDEST PUSH1 0x0 PUSH3 0x1B7D DUP3 DUP5 PUSH3 0x1B38 JUMP JUMPDEST SWAP2 POP DUP2 SWAP1 POP SWAP3 SWAP2 POP POP JUMP JUMPDEST PUSH32 0x4E487B7100000000000000000000000000000000000000000000000000000000 PUSH1 0x0 MSTORE PUSH1 0x32 PUSH1 0x4 MSTORE PUSH1 0x24 PUSH1 0x0 REVERT JUMPDEST PUSH1 0x0 PUSH3 0x1BCE PUSH3 0x1BC8 DUP5 PUSH3 0x1677 JUMP JUMPDEST PUSH3 0x1658 JUMP JUMPDEST SWAP1 POP DUP3 DUP2 MSTORE PUSH1 0x20 DUP2 ADD DUP5 DUP5 DUP5 ADD GT ISZERO PUSH3 0x1BED JUMPI PUSH3 0x1BEC PUSH3 0x15DD JUMP JUMPDEST JUMPDEST PUSH3 0x1BFA DUP5 DUP3 DUP6 PUSH3 0x1A58 JUMP JUMPDEST POP SWAP4 SWAP3 POP POP POP JUMP JUMPDEST PUSH1 0x0 DUP3 PUSH1 0x1F DUP4 ADD SLT PUSH3 0x1C1A JUMPI PUSH3 0x1C19 PUSH3 0x15D8 JUMP JUMPDEST JUMPDEST DUP2 MLOAD PUSH3 0x1C2C DUP5 DUP3 PUSH1 0x20 DUP7 ADD PUSH3 0x1BB7 JUMP JUMPDEST SWAP2 POP POP SWAP3 SWAP2 POP POP JUMP JUMPDEST PUSH1 0x0 PUSH1 0x20 DUP3 DUP5 SUB SLT ISZERO PUSH3 0x1C4E JUMPI PUSH3 0x1C4D PUSH3 0x15CE JUMP JUMPDEST JUMPDEST PUSH1 0x0 DUP3 ADD MLOAD PUSH8 0xFFFFFFFFFFFFFFFF DUP2 GT ISZERO PUSH3 0x1C6F JUMPI PUSH3 0x1C6E PUSH3 0x15D3 JUMP JUMPDEST JUMPDEST PUSH3 0x1C7D DUP5 DUP3 DUP6 ADD PUSH3 0x1C02 JUMP JUMPDEST SWAP2 POP POP SWAP3 SWAP2 POP POP JUMP JUMPDEST PUSH3 0x1C91 DUP2 PUSH3 0x185C JUMP JUMPDEST DUP2 EQ PUSH3 0x1C9D JUMPI PUSH1 0x0 DUP1 REVERT JUMPDEST POP JUMP JUMPDEST PUSH1 0x0 DUP2 MLOAD SWAP1 POP PUSH3 0x1CB1 DUP2 PUSH3 0x1C86 JUMP JUMPDEST SWAP3 SWAP2 POP POP JUMP JUMPDEST PUSH1 0x0 PUSH1 0x20 DUP3 DUP5 SUB SLT ISZERO PUSH3 0x1CD0 JUMPI PUSH3 0x1CCF PUSH3 0x15CE JUMP JUMPDEST JUMPDEST PUSH1 0x0 PUSH3 0x1CE0 DUP5 DUP3 DUP6 ADD PUSH3 0x1CA0 JUMP JUMPDEST SWAP2 POP POP SWAP3 SWAP2 POP POP JUMP JUMPDEST PUSH32 0x4F6E6C79207468652073656C6C65722074686174206F776E7320746865207365 PUSH1 0x0 DUP3 ADD MSTORE PUSH32 0x72766963652063616E2063616C6C20746869732066756E6374696F6E00000000 PUSH1 0x20 DUP3 ADD MSTORE POP JUMP JUMPDEST PUSH1 0x0 PUSH3 0x1D47 PUSH1 0x3C DUP4 PUSH3 0x1A47 JUMP JUMPDEST SWAP2 POP PUSH3 0x1D54 DUP3 PUSH3 0x1CE9 JUMP JUMPDEST PUSH1 0x40 DUP3 ADD SWAP1 POP SWAP2 SWAP1 POP JUMP JUMPDEST PUSH1 0x0 PUSH1 0x20 DUP3 ADD SWAP1 POP DUP2 DUP2 SUB PUSH1 0x0 DUP4 ADD MSTORE PUSH3 0x1D7A DUP2 PUSH3 0x1D38 JUMP JUMPDEST SWAP1 POP SWAP2 SWAP1 POP JUMP JUMPDEST PUSH32 0x4E487B7100000000000000000000000000000000000000000000000000000000 PUSH1 0x0 MSTORE PUSH1 0x11 PUSH1 0x4 MSTORE PUSH1 0x24 PUSH1 0x0 REVERT JUMPDEST PUSH1 0x0 PUSH3 0x1DBD DUP3 PUSH3 0x1936 JUMP JUMPDEST SWAP2 POP PUSH32 0xFFFFFFFFFFFFFFFFFFFFFFFFFFFFFFFFFFFFFFFFFFFFFFFFFFFFFFFFFFFFFFFF DUP3 SUB PUSH3 0x1DF2 JUMPI PUSH3 0x1DF1 PUSH3 0x1D81 JUMP JUMPDEST JUMPDEST PUSH1 0x1 DUP3 ADD SWAP1 POP SWAP2 SWAP1 POP JUMP JUMPDEST PUSH32 0x53657276696365206E6F7420666F756E64000000000000000000000000000000 PUSH1 0x0 DUP3 ADD MSTORE POP JUMP JUMPDEST PUSH1 0x0 PUSH3 0x1E35 PUSH1 0x11 DUP4 PUSH3 0x1A47 JUMP JUMPDEST SWAP2 POP PUSH3 0x1E42 DUP3 PUSH3 0x1DFD JUMP JUMPDEST PUSH1 0x20 DUP3 ADD SWAP1 POP SWAP2 SWAP1 POP JUMP JUMPDEST PUSH1 0x0 PUSH1 0x20 DUP3 ADD SWAP1 POP DUP2 DUP2 SUB PUSH1 0x0 DUP4 ADD MSTORE PUSH3 0x1E68 DUP2 PUSH3 0x1E26 JUMP JUMPDEST SWAP1 POP SWAP2 SWAP1 POP JUMP JUMPDEST PUSH1 0x0 DUP2 ISZERO ISZERO SWAP1 POP SWAP2 SWAP1 POP JUMP JUMPDEST PUSH3 0x1E86 DUP2 PUSH3 0x1E6F JUMP JUMPDEST DUP2 EQ PUSH3 0x1E92 JUMPI PUSH1 0x0 DUP1 REVERT JUMPDEST POP JUMP JUMPDEST PUSH1 0x0 DUP2 MLOAD SWAP1 POP PUSH3 0x1EA6 DUP2 PUSH3 0x1E7B JUMP JUMPDEST SWAP3 SWAP2 POP POP JUMP JUMPDEST PUSH1 0x0 PUSH1 0x20 DUP3 DUP5 SUB SLT ISZERO PUSH3 0x1EC5 JUMPI PUSH3 0x1EC4 PUSH3 0x15CE JUMP JUMPDEST JUMPDEST PUSH1 0x0 PUSH3 0x1ED5 DUP5 DUP3 DUP6 ADD PUSH3 0x1E95 JUMP JUMPDEST SWAP2 POP POP SWAP3 SWAP2 POP POP JUMP JUMPDEST PUSH32 0x53657276696365206973206E6F74206163746976650000000000000000000000 PUSH1 0x0 DUP3 ADD MSTORE POP JUMP JUMPDEST PUSH1 0x0 PUSH3 0x1F16 PUSH1 0x15 DUP4 PUSH3 0x1A47 JUMP JUMPDEST SWAP2 POP PUSH3 0x1F23 DUP3 PUSH3 0x1EDE JUMP JUMPDEST PUSH1 0x20 DUP3 ADD SWAP1 POP SWAP2 SWAP1 POP JUMP JUMPDEST PUSH1 0x0 PUSH1 0x20 DUP3 ADD SWAP1 POP DUP2 DUP2 SUB PUSH1 0x0 DUP4 ADD MSTORE PUSH3 0x1F49 DUP2 PUSH3 0x1F07 JUMP JUMPDEST SWAP1 POP SWAP2 SWAP1 POP JUMP JUMPDEST PUSH1 0x0 PUSH1 0x20 DUP3 ADD SWAP1 POP DUP2 DUP2 SUB PUSH1 0x0 DUP4 ADD MSTORE PUSH3 0x1F6C DUP2 DUP5 PUSH3 0x1A84 JUMP JUMPDEST SWAP1 POP SWAP3 SWAP2 POP POP JUMP JUMPDEST PUSH3 0x1F7F DUP2 PUSH3 0x1E6F JUMP JUMPDEST DUP3 MSTORE POP POP JUMP JUMPDEST PUSH1 0x0 PUSH1 0x20 DUP3 ADD SWAP1 POP PUSH3 0x1F9C PUSH1 0x0 DUP4 ADD DUP5 PUSH3 0x1F74 JUMP JUMPDEST SWAP3 SWAP2 POP POP JUMP INVALID PUSH1 0xA0 PUSH1 0x40 MSTORE PUSH1 0x1 PUSH1 0x2 PUSH1 0x0 PUSH2 0x100 EXP DUP2 SLOAD DUP2 PUSH1 0xFF MUL NOT AND SWAP1 DUP4 ISZERO ISZERO MUL OR SWAP1 SSTORE POP PUSH1 0x0 PUSH1 0x3 SSTORE CALLVALUE DUP1 ISZERO PUSH3 0x31 JUMPI PUSH1 0x0 DUP1 REVERT JUMPDEST POP PUSH1 0x40 MLOAD PUSH3 0x2BDA CODESIZE SUB DUP1 PUSH3 0x2BDA DUP4 CODECOPY DUP2 DUP2 ADD PUSH1 0x40 MSTORE DUP2 ADD SWAP1 PUSH3 0x57 SWAP2 SWAP1 PUSH3 0x2B0 JUMP JUMPDEST DUP3 PUSH20 0xFFFFFFFFFFFFFFFFFFFFFFFFFFFFFFFFFFFFFFFF AND PUSH1 0x80 DUP2 PUSH20 0xFFFFFFFFFFFFFFFFFFFFFFFFFFFFFFFFFFFFFFFF AND DUP2 MSTORE POP POP DUP2 PUSH1 0x0 SWAP1 DUP2 PUSH3 0x9C SWAP2 SWAP1 PUSH3 0x595 JUMP JUMPDEST POP DUP1 PUSH1 0x1 SWAP1 DUP2 PUSH3 0xAE SWAP2 SWAP1 PUSH3 0x595 JUMP JUMPDEST POP POP POP POP PUSH3 0x67C JUMP JUMPDEST PUSH1 0x0 PUSH1 0x40 MLOAD SWAP1 POP SWAP1 JUMP JUMPDEST PUSH1 0x0 DUP1 REVERT JUMPDEST PUSH1 0x0 DUP1 REVERT JUMPDEST PUSH1 0x0 PUSH20 0xFFFFFFFFFFFFFFFFFFFFFFFFFFFFFFFFFFFFFFFF DUP3 AND SWAP1 POP SWAP2 SWAP1 POP JUMP JUMPDEST PUSH1 0x0 PUSH3 0xF9 DUP3 PUSH3 0xCC JUMP JUMPDEST SWAP1 POP SWAP2 SWAP1 POP JUMP JUMPDEST PUSH3 0x10B DUP2 PUSH3 0xEC JUMP JUMPDEST DUP2 EQ PUSH3 0x117 JUMPI PUSH1 0x0 DUP1 REVERT JUMPDEST POP JUMP JUMPDEST PUSH1 0x0 DUP2 MLOAD SWAP1 POP PUSH3 0x12B DUP2 PUSH3 0x100 JUMP JUMPDEST SWAP3 SWAP2 POP POP JUMP JUMPDEST PUSH1 0x0 DUP1 REVERT JUMPDEST PUSH1 0x0 DUP1 REVERT JUMPDEST PUSH1 0x0 PUSH1 0x1F NOT PUSH1 0x1F DUP4 ADD AND SWAP1 POP SWAP2 SWAP1 POP JUMP JUMPDEST PUSH32 0x4E487B7100000000000000000000000000000000000000000000000000000000 PUSH1 0x0 MSTORE PUSH1 0x41 PUSH1 0x4 MSTORE PUSH1 0x24 PUSH1 0x0 REVERT JUMPDEST PUSH3 0x186 DUP3 PUSH3 0x13B JUMP JUMPDEST DUP2 ADD DUP2 DUP2 LT PUSH8 0xFFFFFFFFFFFFFFFF DUP3 GT OR ISZERO PUSH3 0x1A8 JUMPI PUSH3 0x1A7 PUSH3 0x14C JUMP JUMPDEST JUMPDEST DUP1 PUSH1 0x40 MSTORE POP POP POP JUMP JUMPDEST PUSH1 0x0 PUSH3 0x1BD PUSH3 0xB8 JUMP JUMPDEST SWAP1 POP PUSH3 0x1CB DUP3 DUP3 PUSH3 0x17B JUMP JUMPDEST SWAP2 SWAP1 POP JUMP JUMPDEST PUSH1 0x0 PUSH8 0xFFFFFFFFFFFFFFFF DUP3 GT ISZERO PUSH3 0x1EE JUMPI PUSH3 0x1ED PUSH3 0x14C JUMP JUMPDEST JUMPDEST PUSH3 0x1F9 DUP3 PUSH3 0x13B JUMP JUMPDEST SWAP1 POP PUSH1 0x20 DUP2 ADD SWAP1 POP SWAP2 SWAP1 POP JUMP JUMPDEST PUSH1 0x0 JUMPDEST DUP4 DUP2 LT ISZERO PUSH3 0x226 JUMPI DUP1 DUP3 ADD MLOAD DUP2 DUP5 ADD MSTORE PUSH1 0x20 DUP2 ADD SWAP1 POP PUSH3 0x209 JUMP JUMPDEST PUSH1 0x0 DUP5 DUP5 ADD MSTORE POP POP POP POP JUMP JUMPDEST PUSH1 0x0 PUSH3 0x249 PUSH3 0x243 DUP5 PUSH3 0x1D0 JUMP JUMPDEST PUSH3 0x1B1 JUMP JUMPDEST SWAP1 POP DUP3 DUP2 MSTORE PUSH1 0x20 DUP2 ADD DUP5 DUP5 DUP5 ADD GT ISZERO PUSH3 0x268 JUMPI PUSH3 0x267 PUSH3 0x136 JUMP JUMPDEST JUMPDEST PUSH3 0x275 DUP5 DUP3 DUP6 PUSH3 0x206 JUMP JUMPDEST POP SWAP4 SWAP3 POP POP POP JUMP JUMPDEST PUSH1 0x0 DUP3 PUSH1 0x1F DUP4 ADD SLT PUSH3 0x295 JUMPI PUSH3 0x294 PUSH3 0x131 JUMP JUMPDEST JUMPDEST DUP2 MLOAD PUSH3 0x2A7 DUP5 DUP3 PUSH1 0x20 DUP7 ADD PUSH3 0x232 JUMP JUMPDEST SWAP2 POP POP SWAP3 SWAP2 POP POP JUMP JUMPDEST PUSH1 0x0 DUP1 PUSH1 0x0 PUSH1 0x60 DUP5 DUP7 SUB SLT ISZERO PUSH3 0x2CC JUMPI PUSH3 0x2CB PUSH3 0xC2 JUMP JUMPDEST JUMPDEST PUSH1 0x0 PUSH3 0x2DC DUP7 DUP3 DUP8 ADD PUSH3 0x11A JUMP JUMPDEST SWAP4 POP POP PUSH1 0x20 DUP5 ADD MLOAD PUSH8 0xFFFFFFFFFFFFFFFF DUP2 GT ISZERO PUSH3 0x300 JUMPI PUSH3 0x2FF PUSH3 0xC7 JUMP JUMPDEST JUMPDEST PUSH3 0x30E DUP7 DUP3 DUP8 ADD PUSH3 0x27D JUMP JUMPDEST SWAP3 POP POP PUSH1 0x40 DUP5 ADD MLOAD PUSH8 0xFFFFFFFFFFFFFFFF DUP2 GT ISZERO PUSH3 0x332 JUMPI PUSH3 0x331 PUSH3 0xC7 JUMP JUMPDEST JUMPDEST PUSH3 0x340 DUP7 DUP3 DUP8 ADD PUSH3 0x27D JUMP JUMPDEST SWAP2 POP POP SWAP3 POP SWAP3 POP SWAP3 JUMP JUMPDEST PUSH1 0x0 DUP2 MLOAD SWAP1 POP SWAP2 SWAP1 POP JUMP JUMPDEST PUSH32 0x4E487B7100000000000000000000000000000000000000000000000000000000 PUSH1 0x0 MSTORE PUSH1 0x22 PUSH1 0x4 MSTORE PUSH1 0x24 PUSH1 0x0 REVERT JUMPDEST PUSH1 0x0 PUSH1 0x2 DUP3 DIV SWAP1 POP PUSH1 0x1 DUP3 AND DUP1 PUSH3 0x39D JUMPI PUSH1 0x7F DUP3 AND SWAP2 POP JUMPDEST PUSH1 0x20 DUP3 LT DUP2 SUB PUSH3 0x3B3 JUMPI PUSH3 0x3B2 PUSH3 0x355 JUMP JUMPDEST JUMPDEST POP SWAP2 SWAP1 POP JUMP JUMPDEST PUSH1 0x0 DUP2 SWAP1 POP DUP2 PUSH1 0x0 MSTORE PUSH1 0x20 PUSH1 0x0 KECCAK256 SWAP1 POP SWAP2 SWAP1 POP JUMP JUMPDEST PUSH1 0x0 PUSH1 0x20 PUSH1 0x1F DUP4 ADD DIV SWAP1 POP SWAP2 SWAP1 POP JUMP JUMPDEST PUSH1 0x0 DUP3 DUP3 SHL SWAP1 POP SWAP3 SWAP2 POP POP JUMP JUMPDEST PUSH1 0x0 PUSH1 0x8 DUP4 MUL PUSH3 0x41D PUSH32 0xFFFFFFFFFFFFFFFFFFFFFFFFFFFFFFFFFFFFFFFFFFFFFFFFFFFFFFFFFFFFFFFF DUP3 PUSH3 0x3DE JUMP JUMPDEST PUSH3 0x429 DUP7 DUP4 PUSH3 0x3DE JUMP JUMPDEST SWAP6 POP DUP1 NOT DUP5 AND SWAP4 POP DUP1 DUP7 AND DUP5 OR SWAP3 POP POP POP SWAP4 SWAP3 POP POP POP JUMP JUMPDEST PUSH1 0x0 DUP2 SWAP1 POP SWAP2 SWAP1 POP JUMP JUMPDEST PUSH1 0x0 DUP2 SWAP1 POP SWAP2 SWAP1 POP JUMP JUMPDEST PUSH1 0x0 PUSH3 0x476 PUSH3 0x470 PUSH3 0x46A DUP5 PUSH3 0x441 JUMP JUMPDEST PUSH3 0x44B JUMP JUMPDEST PUSH3 0x441 JUMP JUMPDEST SWAP1 POP SWAP2 SWAP1 POP JUMP JUMPDEST PUSH1 0x0 DUP2 SWAP1 POP SWAP2 SWAP1 POP JUMP JUMPDEST PUSH3 0x492 DUP4 PUSH3 0x455 JUMP JUMPDEST PUSH3 0x4AA PUSH3 0x4A1 DUP3 PUSH3 0x47D JUMP JUMPDEST DUP5 DUP5 SLOAD PUSH3 0x3EB JUMP JUMPDEST DUP3 SSTORE POP POP POP POP JUMP JUMPDEST PUSH1 0x0 SWAP1 JUMP JUMPDEST PUSH3 0x4C1 PUSH3 0x4B2 JUMP JUMPDEST PUSH3 0x4CE DUP2 DUP5 DUP5 PUSH3 0x487 JUMP JUMPDEST POP POP POP JUMP JUMPDEST JUMPDEST DUP2 DUP2 LT ISZERO PUSH3 0x4F6 JUMPI PUSH3 0x4EA PUSH1 0x0 DUP3 PUSH3 0x4B7 JUMP JUMPDEST PUSH1 0x1 DUP2 ADD SWAP1 POP PUSH3 0x4D4 JUMP JUMPDEST POP POP JUMP JUMPDEST PUSH1 0x1F DUP3 GT ISZERO PUSH3 0x545 JUMPI PUSH3 0x50F DUP2 PUSH3 0x3B9 JUMP JUMPDEST PUSH3 0x51A DUP5 PUSH3 0x3CE JUMP JUMPDEST DUP2 ADD PUSH1 0x20 DUP6 LT ISZERO PUSH3 0x52A JUMPI DUP2 SWAP1 POP JUMPDEST PUSH3 0x542 PUSH3 0x539 DUP6 PUSH3 0x3CE JUMP JUMPDEST DUP4 ADD DUP3 PUSH3 0x4D3 JUMP JUMPDEST POP POP JUMPDEST POP POP POP JUMP JUMPDEST PUSH1 0x0 DUP3 DUP3 SHR SWAP1 POP SWAP3 SWAP2 POP POP JUMP JUMPDEST PUSH1 0x0 PUSH3 0x56A PUSH1 0x0 NOT DUP5 PUSH1 0x8 MUL PUSH3 0x54A JUMP JUMPDEST NOT DUP1 DUP4 AND SWAP2 POP POP SWAP3 SWAP2 POP POP JUMP JUMPDEST PUSH1 0x0 PUSH3 0x585 DUP4 DUP4 PUSH3 0x557 JUMP JUMPDEST SWAP2 POP DUP3 PUSH1 0x2 MUL DUP3 OR SWAP1 POP SWAP3 SWAP2 POP POP JUMP JUMPDEST PUSH3 0x5A0 DUP3 PUSH3 0x34A JUMP JUMPDEST PUSH8 0xFFFFFFFFFFFFFFFF DUP2 GT ISZERO PUSH3 0x5BC JUMPI PUSH3 0x5BB PUSH3 0x14C JUMP JUMPDEST JUMPDEST PUSH3 0x5C8 DUP3 SLOAD PUSH3 0x384 JUMP JUMPDEST PUSH3 0x5D5 DUP3 DUP3 DUP6 PUSH3 0x4FA JUMP JUMPDEST PUSH1 0x0 PUSH1 0x20 SWAP1 POP PUSH1 0x1F DUP4 GT PUSH1 0x1 DUP2 EQ PUSH3 0x60D JUMPI PUSH1 0x0 DUP5 ISZERO PUSH3 0x5F8 JUMPI DUP3 DUP8 ADD MLOAD SWAP1 POP JUMPDEST PUSH3 0x604 DUP6 DUP3 PUSH3 0x577 JUMP JUMPDEST DUP7 SSTORE POP PUSH3 0x674 JUMP JUMPDEST PUSH1 0x1F NOT DUP5 AND PUSH3 0x61D DUP7 PUSH3 0x3B9 JUMP JUMPDEST PUSH1 0x0 JUMPDEST DUP3 DUP2 LT ISZERO PUSH3 0x647 JUMPI DUP5 DUP10 ADD MLOAD DUP3 SSTORE PUSH1 0x1 DUP3 ADD SWAP2 POP PUSH1 0x20 DUP6 ADD SWAP5 POP PUSH1 0x20 DUP2 ADD SWAP1 POP PUSH3 0x620 JUMP JUMPDEST DUP7 DUP4 LT ISZERO PUSH3 0x667 JUMPI DUP5 DUP10 ADD MLOAD PUSH3 0x663 PUSH1 0x1F DUP10 AND DUP3 PUSH3 0x557 JUMP JUMPDEST DUP4 SSTORE POP JUMPDEST PUSH1 0x1 PUSH1 0x2 DUP9 MUL ADD DUP9 SSTORE POP POP POP JUMPDEST POP POP POP POP POP POP JUMP JUMPDEST PUSH1 0x80 MLOAD PUSH2 0x251F PUSH3 0x6BB PUSH1 0x0 CODECOPY PUSH1 0x0 DUP2 DUP2 PUSH2 0x615 ADD MSTORE DUP2 DUP2 PUSH2 0x760 ADD MSTORE DUP2 DUP2 PUSH2 0x10A1 ADD MSTORE DUP2 DUP2 PUSH2 0x1296 ADD MSTORE DUP2 DUP2 PUSH2 0x1570 ADD MSTORE PUSH2 0x168C ADD MSTORE PUSH2 0x251F PUSH1 0x0 RETURN INVALID PUSH1 0x80 PUSH1 0x40 MSTORE PUSH1 0x4 CALLDATASIZE LT PUSH2 0xE8 JUMPI PUSH1 0x0 CALLDATALOAD PUSH1 0xE0 SHR DUP1 PUSH4 0x3B47A9AC GT PUSH2 0x8A JUMPI DUP1 PUSH4 0x8A2405A8 GT PUSH2 0x59 JUMPI DUP1 PUSH4 0x8A2405A8 EQ PUSH2 0x2A9 JUMPI DUP1 PUSH4 0x90C3F38F EQ PUSH2 0x2D2 JUMPI DUP1 PUSH4 0xC47F0027 EQ PUSH2 0x2FB JUMPI DUP1 PUSH4 0xFBA7CC79 EQ PUSH2 0x324 JUMPI PUSH2 0xE8 JUMP JUMPDEST DUP1 PUSH4 0x3B47A9AC EQ PUSH2 0x207 JUMPI DUP1 PUSH4 0x7284E416 EQ PUSH2 0x237 JUMPI DUP1 PUSH4 0x7AC9B098 EQ PUSH2 0x262 JUMPI DUP1 PUSH4 0x893D20E8 EQ PUSH2 0x27E JUMPI PUSH2 0xE8 JUMP JUMPDEST DUP1 PUSH4 0x21235083 GT PUSH2 0xC6 JUMPI DUP1 PUSH4 0x21235083 EQ PUSH2 0x16E JUMPI DUP1 PUSH4 0x22F3E2D4 EQ PUSH2 0x197 JUMPI DUP1 PUSH4 0x2750FC78 EQ PUSH2 0x1C2 JUMPI DUP1 PUSH4 0x3399D389 EQ PUSH2 0x1EB JUMPI PUSH2 0xE8 JUMP JUMPDEST DUP1 PUSH4 0x6FDDE03 EQ PUSH2 0xED JUMPI DUP1 PUSH4 0x17D7DE7C EQ PUSH2 0x118 JUMPI DUP1 PUSH4 0x1A092541 EQ PUSH2 0x143 JUMPI JUMPDEST PUSH1 0x0 DUP1 REVERT JUMPDEST CALLVALUE DUP1 ISZERO PUSH2 0xF9 JUMPI PUSH1 0x0 DUP1 REVERT JUMPDEST POP PUSH2 0x102 PUSH2 0x34F JUMP JUMPDEST PUSH1 0x40 MLOAD PUSH2 0x10F SWAP2 SWAP1 PUSH2 0x184D JUMP JUMPDEST PUSH1 0x40 MLOAD DUP1 SWAP2 SUB SWAP1 RETURN JUMPDEST CALLVALUE DUP1 ISZERO PUSH2 0x124 JUMPI PUSH1 0x0 DUP1 REVERT JUMPDEST POP PUSH2 0x12D PUSH2 0x3DD JUMP JUMPDEST PUSH1 0x40 MLOAD PUSH2 0x13A SWAP2 SWAP1 PUSH2 0x184D JUMP JUMPDEST PUSH1 0x40 MLOAD DUP1 SWAP2 SUB SWAP1 RETURN JUMPDEST CALLVALUE DUP1 ISZERO PUSH2 0x14F JUMPI PUSH1 0x0 DUP1 REVERT JUMPDEST POP PUSH2 0x158 PUSH2 0x46F JUMP JUMPDEST PUSH1 0x40 MLOAD PUSH2 0x165 SWAP2 SWAP1 PUSH2 0x184D JUMP JUMPDEST PUSH1 0x40 MLOAD DUP1 SWAP2 SUB SWAP1 RETURN JUMPDEST CALLVALUE DUP1 ISZERO PUSH2 0x17A JUMPI PUSH1 0x0 DUP1 REVERT JUMPDEST POP PUSH2 0x195 PUSH1 0x4 DUP1 CALLDATASIZE SUB DUP2 ADD SWAP1 PUSH2 0x190 SWAP2 SWAP1 PUSH2 0x18B9 JUMP JUMPDEST PUSH2 0x501 JUMP JUMPDEST STOP JUMPDEST CALLVALUE DUP1 ISZERO PUSH2 0x1A3 JUMPI PUSH1 0x0 DUP1 REVERT JUMPDEST POP PUSH2 0x1AC PUSH2 0x74B JUMP JUMPDEST PUSH1 0x40 MLOAD PUSH2 0x1B9 SWAP2 SWAP1 PUSH2 0x1901 JUMP JUMPDEST PUSH1 0x40 MLOAD DUP1 SWAP2 SUB SWAP1 RETURN JUMPDEST CALLVALUE DUP1 ISZERO PUSH2 0x1CE JUMPI PUSH1 0x0 DUP1 REVERT JUMPDEST POP PUSH2 0x1E9 PUSH1 0x4 DUP1 CALLDATASIZE SUB DUP2 ADD SWAP1 PUSH2 0x1E4 SWAP2 SWAP1 PUSH2 0x1948 JUMP JUMPDEST PUSH2 0x75E JUMP JUMPDEST STOP JUMPDEST PUSH2 0x205 PUSH1 0x4 DUP1 CALLDATASIZE SUB DUP2 ADD SWAP1 PUSH2 0x200 SWAP2 SWAP1 PUSH2 0x19D3 JUMP JUMPDEST PUSH2 0x835 JUMP JUMPDEST STOP JUMPDEST CALLVALUE DUP1 ISZERO PUSH2 0x213 JUMPI PUSH1 0x0 DUP1 REVERT JUMPDEST POP PUSH2 0x21C PUSH2 0xB49 JUMP JUMPDEST PUSH1 0x40 MLOAD PUSH2 0x22E SWAP7 SWAP6 SWAP5 SWAP4 SWAP3 SWAP2 SWAP1 PUSH2 0x1BA2 JUMP JUMPDEST PUSH1 0x40 MLOAD DUP1 SWAP2 SUB SWAP1 RETURN JUMPDEST CALLVALUE DUP1 ISZERO PUSH2 0x243 JUMPI PUSH1 0x0 DUP1 REVERT JUMPDEST POP PUSH2 0x24C PUSH2 0xEFF JUMP JUMPDEST PUSH1 0x40 MLOAD PUSH2 0x259 SWAP2 SWAP1 PUSH2 0x184D JUMP JUMPDEST PUSH1 0x40 MLOAD DUP1 SWAP2 SUB SWAP1 RETURN JUMPDEST PUSH2 0x27C PUSH1 0x4 DUP1 CALLDATASIZE SUB DUP2 ADD SWAP1 PUSH2 0x277 SWAP2 SWAP1 PUSH2 0x18B9 JUMP JUMPDEST PUSH2 0xF8D JUMP JUMPDEST STOP JUMPDEST CALLVALUE DUP1 ISZERO PUSH2 0x28A JUMPI PUSH1 0x0 DUP1 REVERT JUMPDEST POP PUSH2 0x293 PUSH2 0x1292 JUMP JUMPDEST PUSH1 0x40 MLOAD PUSH2 0x2A0 SWAP2 SWAP1 PUSH2 0x1C3C JUMP JUMPDEST PUSH1 0x40 MLOAD DUP1 SWAP2 SUB SWAP1 RETURN JUMPDEST CALLVALUE DUP1 ISZERO PUSH2 0x2B5 JUMPI PUSH1 0x0 DUP1 REVERT JUMPDEST POP PUSH2 0x2D0 PUSH1 0x4 DUP1 CALLDATASIZE SUB DUP2 ADD SWAP1 PUSH2 0x2CB SWAP2 SWAP1 PUSH2 0x19D3 JUMP JUMPDEST PUSH2 0x12BA JUMP JUMPDEST STOP JUMPDEST CALLVALUE DUP1 ISZERO PUSH2 0x2DE JUMPI PUSH1 0x0 DUP1 REVERT JUMPDEST POP PUSH2 0x2F9 PUSH1 0x4 DUP1 CALLDATASIZE SUB DUP2 ADD SWAP1 PUSH2 0x2F4 SWAP2 SWAP1 PUSH2 0x1D8C JUMP JUMPDEST PUSH2 0x156E JUMP JUMPDEST STOP JUMPDEST CALLVALUE DUP1 ISZERO PUSH2 0x307 JUMPI PUSH1 0x0 DUP1 REVERT JUMPDEST POP PUSH2 0x322 PUSH1 0x4 DUP1 CALLDATASIZE SUB DUP2 ADD SWAP1 PUSH2 0x31D SWAP2 SWAP1 PUSH2 0x1D8C JUMP JUMPDEST PUSH2 0x168A JUMP JUMPDEST STOP JUMPDEST CALLVALUE DUP1 ISZERO PUSH2 0x330 JUMPI PUSH1 0x0 DUP1 REVERT JUMPDEST POP PUSH2 0x339 PUSH2 0x17A6 JUMP JUMPDEST PUSH1 0x40 MLOAD PUSH2 0x346 SWAP2 SWAP1 PUSH2 0x1901 JUMP JUMPDEST PUSH1 0x40 MLOAD DUP1 SWAP2 SUB SWAP1 RETURN JUMPDEST PUSH1 0x0 DUP1 SLOAD PUSH2 0x35C SWAP1 PUSH2 0x1E04 JUMP JUMPDEST DUP1 PUSH1 0x1F ADD PUSH1 0x20 DUP1 SWAP2 DIV MUL PUSH1 0x20 ADD PUSH1 0x40 MLOAD SWAP1 DUP2 ADD PUSH1 0x40 MSTORE DUP1 SWAP3 SWAP2 SWAP1 DUP2 DUP2 MSTORE PUSH1 0x20 ADD DUP3 DUP1 SLOAD PUSH2 0x388 SWAP1 PUSH2 0x1E04 JUMP JUMPDEST DUP1 ISZERO PUSH2 0x3D5 JUMPI DUP1 PUSH1 0x1F LT PUSH2 0x3AA JUMPI PUSH2 0x100 DUP1 DUP4 SLOAD DIV MUL DUP4 MSTORE SWAP2 PUSH1 0x20 ADD SWAP2 PUSH2 0x3D5 JUMP JUMPDEST DUP3 ADD SWAP2 SWAP1 PUSH1 0x0 MSTORE PUSH1 0x20 PUSH1 0x0 KECCAK256 SWAP1 JUMPDEST DUP2 SLOAD DUP2 MSTORE SWAP1 PUSH1 0x1 ADD SWAP1 PUSH1 0x20 ADD DUP1 DUP4 GT PUSH2 0x3B8 JUMPI DUP3 SWAP1 SUB PUSH1 0x1F AND DUP3 ADD SWAP2 JUMPDEST POP POP POP POP POP DUP2 JUMP JUMPDEST PUSH1 0x60 PUSH1 0x0 DUP1 SLOAD PUSH2 0x3EC SWAP1 PUSH2 0x1E04 JUMP JUMPDEST DUP1 PUSH1 0x1F ADD PUSH1 0x20 DUP1 SWAP2 DIV MUL PUSH1 0x20 ADD PUSH1 0x40 MLOAD SWAP1 DUP2 ADD PUSH1 0x40 MSTORE DUP1 SWAP3 SWAP2 SWAP1 DUP2 DUP2 MSTORE PUSH1 0x20 ADD DUP3 DUP1 SLOAD PUSH2 0x418 SWAP1 PUSH2 0x1E04 JUMP JUMPDEST DUP1 ISZERO PUSH2 0x465 JUMPI DUP1 PUSH1 0x1F LT PUSH2 0x43A JUMPI PUSH2 0x100 DUP1 DUP4 SLOAD DIV MUL DUP4 MSTORE SWAP2 PUSH1 0x20 ADD SWAP2 PUSH2 0x465 JUMP JUMPDEST DUP3 ADD SWAP2 SWAP1 PUSH1 0x0 MSTORE PUSH1 0x20 PUSH1 0x0 KECCAK256 SWAP1 JUMPDEST DUP2 SLOAD DUP2 MSTORE SWAP1 PUSH1 0x1 ADD SWAP1 PUSH1 0x20 ADD DUP1 DUP4 GT PUSH2 0x448 JUMPI DUP3 SWAP1 SUB PUSH1 0x1F AND DUP3 ADD SWAP2 JUMPDEST POP POP POP POP POP SWAP1 POP SWAP1 JUMP JUMPDEST PUSH1 0x60 PUSH1 0x1 DUP1 SLOAD PUSH2 0x47E SWAP1 PUSH2 0x1E04 JUMP JUMPDEST DUP1 PUSH1 0x1F ADD PUSH1 0x20 DUP1 SWAP2 DIV MUL PUSH1 0x20 ADD PUSH1 0x40 MLOAD SWAP1 DUP2 ADD PUSH1 0x40 MSTORE DUP1 SWAP3 SWAP2 SWAP1 DUP2 DUP2 MSTORE PUSH1 0x20 ADD DUP3 DUP1 SLOAD PUSH2 0x4AA SWAP1 PUSH2 0x1E04 JUMP JUMPDEST DUP1 ISZERO PUSH2 0x4F7 JUMPI DUP1 PUSH1 0x1F LT PUSH2 0x4CC JUMPI PUSH2 0x100 DUP1 DUP4 SLOAD DIV MUL DUP4 MSTORE SWAP2 PUSH1 0x20 ADD SWAP2 PUSH2 0x4F7 JUMP JUMPDEST DUP3 ADD SWAP2 SWAP1 PUSH1 0x0 MSTORE PUSH1 0x20 PUSH1 0x0 KECCAK256 SWAP1 JUMPDEST DUP2 SLOAD DUP2 MSTORE SWAP1 PUSH1 0x1 ADD SWAP1 PUSH1 0x20 ADD DUP1 DUP4 GT PUSH2 0x4DA JUMPI DUP3 SWAP1 SUB PUSH1 0x1F AND DUP3 ADD SWAP2 JUMPDEST POP POP POP POP POP SWAP1 POP SWAP1 JUMP JUMPDEST DUP1 PUSH1 0x0 PUSH20 0xFFFFFFFFFFFFFFFFFFFFFFFFFFFFFFFFFFFFFFFF AND PUSH1 0x4 PUSH1 0x0 DUP4 DUP2 MSTORE PUSH1 0x20 ADD SWAP1 DUP2 MSTORE PUSH1 0x20 ADD PUSH1 0x0 KECCAK256 PUSH1 0x0 ADD PUSH1 0x0 SWAP1 SLOAD SWAP1 PUSH2 0x100 EXP SWAP1 DIV PUSH20 0xFFFFFFFFFFFFFFFFFFFFFFFFFFFFFFFFFFFFFFFF AND PUSH20 0xFFFFFFFFFFFFFFFFFFFFFFFFFFFFFFFFFFFFFFFF AND SUB PUSH2 0x5A7 JUMPI PUSH1 0x40 MLOAD PUSH32 0x8C379A000000000000000000000000000000000000000000000000000000000 DUP2 MSTORE PUSH1 0x4 ADD PUSH2 0x59E SWAP1 PUSH2 0x1E81 JUMP JUMPDEST PUSH1 0x40 MLOAD DUP1 SWAP2 SUB SWAP1 REVERT JUMPDEST DUP2 CALLER PUSH20 0xFFFFFFFFFFFFFFFFFFFFFFFFFFFFFFFFFFFFFFFF AND PUSH1 0x4 PUSH1 0x0 DUP4 DUP2 MSTORE PUSH1 0x20 ADD SWAP1 DUP2 MSTORE PUSH1 0x20 ADD PUSH1 0x0 KECCAK256 PUSH1 0x0 ADD PUSH1 0x0 SWAP1 SLOAD SWAP1 PUSH2 0x100 EXP SWAP1 DIV PUSH20 0xFFFFFFFFFFFFFFFFFFFFFFFFFFFFFFFFFFFFFFFF AND PUSH20 0xFFFFFFFFFFFFFFFFFFFFFFFFFFFFFFFFFFFFFFFF AND EQ DUP1 PUSH2 0x663 JUMPI POP PUSH32 0x0 PUSH20 0xFFFFFFFFFFFFFFFFFFFFFFFFFFFFFFFFFFFFFFFF AND CALLER PUSH20 0xFFFFFFFFFFFFFFFFFFFFFFFFFFFFFFFFFFFFFFFF AND EQ JUMPDEST PUSH2 0x6A2 JUMPI PUSH1 0x40 MLOAD PUSH32 0x8C379A000000000000000000000000000000000000000000000000000000000 DUP2 MSTORE PUSH1 0x4 ADD PUSH2 0x699 SWAP1 PUSH2 0x1EED JUMP JUMPDEST PUSH1 0x40 MLOAD DUP1 SWAP2 SUB SWAP1 REVERT JUMPDEST PUSH1 0x2 PUSH1 0x0 SWAP1 SLOAD SWAP1 PUSH2 0x100 EXP SWAP1 DIV PUSH1 0xFF AND PUSH2 0x6F1 JUMPI PUSH1 0x40 MLOAD PUSH32 0x8C379A000000000000000000000000000000000000000000000000000000000 DUP2 MSTORE PUSH1 0x4 ADD PUSH2 0x6E8 SWAP1 PUSH2 0x1F59 JUMP JUMPDEST PUSH1 0x40 MLOAD DUP1 SWAP2 SUB SWAP1 REVERT JUMPDEST PUSH2 0x3E8 TIMESTAMP PUSH2 0x6FF SWAP2 SWAP1 PUSH2 0x1FA8 JUMP JUMPDEST PUSH1 0x4 PUSH1 0x0 DUP6 DUP2 MSTORE PUSH1 0x20 ADD SWAP1 DUP2 MSTORE PUSH1 0x20 ADD PUSH1 0x0 KECCAK256 PUSH1 0x5 ADD DUP2 SWAP1 SSTORE POP DUP3 PUSH32 0xBD2BCEA75D16A85F005CD83447E0DE57341BF926FE7419E6D553663E91AB4DA7 PUSH1 0x40 MLOAD PUSH1 0x40 MLOAD DUP1 SWAP2 SUB SWAP1 LOG2 POP POP POP JUMP JUMPDEST PUSH1 0x2 PUSH1 0x0 SWAP1 SLOAD SWAP1 PUSH2 0x100 EXP SWAP1 DIV PUSH1 0xFF AND DUP2 JUMP JUMPDEST PUSH32 0x0 PUSH20 0xFFFFFFFFFFFFFFFFFFFFFFFFFFFFFFFFFFFFFFFF AND CALLER PUSH20 0xFFFFFFFFFFFFFFFFFFFFFFFFFFFFFFFFFFFFFFFF AND EQ PUSH2 0x7EC JUMPI PUSH1 0x40 MLOAD PUSH32 0x8C379A000000000000000000000000000000000000000000000000000000000 DUP2 MSTORE PUSH1 0x4 ADD PUSH2 0x7E3 SWAP1 PUSH2 0x2036 JUMP JUMPDEST PUSH1 0x40 MLOAD DUP1 SWAP2 SUB SWAP1 REVERT JUMPDEST DUP1 PUSH1 0x2 PUSH1 0x0 PUSH2 0x100 EXP DUP2 SLOAD DUP2 PUSH1 0xFF MUL NOT AND SWAP1 DUP4 ISZERO ISZERO MUL OR SWAP1 SSTORE POP PUSH32 0x338BFBDAFB8AABB328ABDE5ACFE20059C4C051BA2D9C13B41FA03B3BC9E637A PUSH1 0x40 MLOAD PUSH1 0x40 MLOAD DUP1 SWAP2 SUB SWAP1 LOG1 POP JUMP JUMPDEST DUP3 PUSH1 0x0 JUMPDEST PUSH1 0x3 SLOAD DUP2 LT ISZERO PUSH2 0x929 JUMPI DUP2 PUSH20 0xFFFFFFFFFFFFFFFFFFFFFFFFFFFFFFFFFFFFFFFF AND PUSH1 0x4 PUSH1 0x0 DUP4 DUP2 MSTORE PUSH1 0x20 ADD SWAP1 DUP2 MSTORE PUSH1 0x20 ADD PUSH1 0x0 KECCAK256 PUSH1 0x0 ADD PUSH1 0x0 SWAP1 SLOAD SWAP1 PUSH2 0x100 EXP SWAP1 DIV PUSH20 0xFFFFFFFFFFFFFFFFFFFFFFFFFFFFFFFFFFFFFFFF AND PUSH20 0xFFFFFFFFFFFFFFFFFFFFFFFFFFFFFFFFFFFFFFFF AND EQ DUP1 ISZERO PUSH2 0x8D6 JUMPI POP PUSH1 0x4 PUSH1 0x0 DUP3 DUP2 MSTORE PUSH1 0x20 ADD SWAP1 DUP2 MSTORE PUSH1 0x20 ADD PUSH1 0x0 KECCAK256 PUSH1 0x5 ADD SLOAD PUSH2 0x3E8 TIMESTAMP PUSH2 0x8D4 SWAP2 SWAP1 PUSH2 0x1FA8 JUMP JUMPDEST LT JUMPDEST ISZERO PUSH2 0x916 JUMPI PUSH1 0x40 MLOAD PUSH32 0x8C379A000000000000000000000000000000000000000000000000000000000 DUP2 MSTORE PUSH1 0x4 ADD PUSH2 0x90D SWAP1 PUSH2 0x20C8 JUMP JUMPDEST PUSH1 0x40 MLOAD DUP1 SWAP2 SUB SWAP1 REVERT JUMPDEST DUP1 DUP1 PUSH2 0x921 SWAP1 PUSH2 0x20E8 JUMP JUMPDEST SWAP2 POP POP PUSH2 0x839 JUMP JUMPDEST POP DUP3 PUSH1 0x0 DUP2 GT PUSH2 0x96E JUMPI PUSH1 0x40 MLOAD PUSH32 0x8C379A000000000000000000000000000000000000000000000000000000000 DUP2 MSTORE PUSH1 0x4 ADD PUSH2 0x965 SWAP1 PUSH2 0x217C JUMP JUMPDEST PUSH1 0x40 MLOAD DUP1 SWAP2 SUB SWAP1 REVERT JUMPDEST PUSH1 0x2 PUSH1 0x0 SWAP1 SLOAD SWAP1 PUSH2 0x100 EXP SWAP1 DIV PUSH1 0xFF AND PUSH2 0x9BD JUMPI PUSH1 0x40 MLOAD PUSH32 0x8C379A000000000000000000000000000000000000000000000000000000000 DUP2 MSTORE PUSH1 0x4 ADD PUSH2 0x9B4 SWAP1 PUSH2 0x1F59 JUMP JUMPDEST PUSH1 0x40 MLOAD DUP1 SWAP2 SUB SWAP1 REVERT JUMPDEST PUSH1 0x0 PUSH1 0x40 MLOAD DUP1 PUSH1 0xC0 ADD PUSH1 0x40 MSTORE DUP1 DUP8 PUSH20 0xFFFFFFFFFFFFFFFFFFFFFFFFFFFFFFFFFFFFFFFF AND DUP2 MSTORE PUSH1 0x20 ADD PUSH1 0x3 SLOAD DUP2 MSTORE PUSH1 0x20 ADD DUP7 DUP2 MSTORE PUSH1 0x20 ADD DUP6 DUP2 MSTORE PUSH1 0x20 ADD PUSH2 0x3E8 TIMESTAMP PUSH2 0xA08 SWAP2 SWAP1 PUSH2 0x1FA8 JUMP JUMPDEST DUP2 MSTORE PUSH1 0x20 ADD PUSH2 0x3E8 PUSH3 0x15180 DUP8 PUSH2 0xA1F SWAP2 SWAP1 PUSH2 0x1FA8 JUMP JUMPDEST TIMESTAMP PUSH2 0xA2A SWAP2 SWAP1 PUSH2 0x219C JUMP JUMPDEST PUSH2 0xA34 SWAP2 SWAP1 PUSH2 0x1FA8 JUMP JUMPDEST DUP2 MSTORE POP SWAP1 POP DUP1 PUSH1 0x4 PUSH1 0x0 PUSH1 0x3 SLOAD DUP2 MSTORE PUSH1 0x20 ADD SWAP1 DUP2 MSTORE PUSH1 0x20 ADD PUSH1 0x0 KECCAK256 PUSH1 0x0 DUP3 ADD MLOAD DUP2 PUSH1 0x0 ADD PUSH1 0x0 PUSH2 0x100 EXP DUP2 SLOAD DUP2 PUSH20 0xFFFFFFFFFFFFFFFFFFFFFFFFFFFFFFFFFFFFFFFF MUL NOT AND SWAP1 DUP4 PUSH20 0xFFFFFFFFFFFFFFFFFFFFFFFFFFFFFFFFFFFFFFFF AND MUL OR SWAP1 SSTORE POP PUSH1 0x20 DUP3 ADD MLOAD DUP2 PUSH1 0x1 ADD SSTORE PUSH1 0x40 DUP3 ADD MLOAD DUP2 PUSH1 0x2 ADD SSTORE PUSH1 0x60 DUP3 ADD MLOAD DUP2 PUSH1 0x3 ADD SSTORE PUSH1 0x80 DUP3 ADD MLOAD DUP2 PUSH1 0x4 ADD SSTORE PUSH1 0xA0 DUP3 ADD MLOAD DUP2 PUSH1 0x5 ADD SSTORE SWAP1 POP POP PUSH1 0x3 SLOAD PUSH32 0x6A2B70DDE6AE0193F84B6A9EEB3B0EBDC3A35E99D9167B88C570158DD09CB0F7 PUSH1 0x40 MLOAD PUSH1 0x40 MLOAD DUP1 SWAP2 SUB SWAP1 LOG2 PUSH1 0x3 SLOAD PUSH32 0x9040C259954B48F5DFDF60EA91E742403E7552202DE9925D509FDD8187B2130B PUSH1 0x40 MLOAD PUSH1 0x40 MLOAD DUP1 SWAP2 SUB SWAP1 LOG2 PUSH1 0x3 PUSH1 0x0 DUP2 SLOAD DUP1 SWAP3 SWAP2 SWAP1 PUSH2 0xB3C SWAP1 PUSH2 0x20E8 JUMP JUMPDEST SWAP2 SWAP1 POP SSTORE POP POP POP POP POP POP POP JUMP JUMPDEST PUSH1 0x60 DUP1 PUSH1 0x60 DUP1 PUSH1 0x60 DUP1 PUSH1 0x0 PUSH1 0x3 SLOAD PUSH8 0xFFFFFFFFFFFFFFFF DUP2 GT ISZERO PUSH2 0xB70 JUMPI PUSH2 0xB6F PUSH2 0x1C61 JUMP JUMPDEST JUMPDEST PUSH1 0x40 MLOAD SWAP1 DUP1 DUP3 MSTORE DUP1 PUSH1 0x20 MUL PUSH1 0x20 ADD DUP3 ADD PUSH1 0x40 MSTORE DUP1 ISZERO PUSH2 0xB9E JUMPI DUP2 PUSH1 0x20 ADD PUSH1 0x20 DUP3 MUL DUP1 CALLDATASIZE DUP4 CALLDATACOPY DUP1 DUP3 ADD SWAP2 POP POP SWAP1 POP JUMPDEST POP SWAP1 POP PUSH1 0x0 PUSH1 0x3 SLOAD PUSH8 0xFFFFFFFFFFFFFFFF DUP2 GT ISZERO PUSH2 0xBBF JUMPI PUSH2 0xBBE PUSH2 0x1C61 JUMP JUMPDEST JUMPDEST PUSH1 0x40 MLOAD SWAP1 DUP1 DUP3 MSTORE DUP1 PUSH1 0x20 MUL PUSH1 0x20 ADD DUP3 ADD PUSH1 0x40 MSTORE DUP1 ISZERO PUSH2 0xBED JUMPI DUP2 PUSH1 0x20 ADD PUSH1 0x20 DUP3 MUL DUP1 CALLDATASIZE DUP4 CALLDATACOPY DUP1 DUP3 ADD SWAP2 POP POP SWAP1 POP JUMPDEST POP SWAP1 POP PUSH1 0x0 PUSH1 0x3 SLOAD PUSH8 0xFFFFFFFFFFFFFFFF DUP2 GT ISZERO PUSH2 0xC0E JUMPI PUSH2 0xC0D PUSH2 0x1C61 JUMP JUMPDEST JUMPDEST PUSH1 0x40 MLOAD SWAP1 DUP1 DUP3 MSTORE DUP1 PUSH1 0x20 MUL PUSH1 0x20 ADD DUP3 ADD PUSH1 0x40 MSTORE DUP1 ISZERO PUSH2 0xC3C JUMPI DUP2 PUSH1 0x20 ADD PUSH1 0x20 DUP3 MUL DUP1 CALLDATASIZE DUP4 CALLDATACOPY DUP1 DUP3 ADD SWAP2 POP POP SWAP1 POP JUMPDEST POP SWAP1 POP PUSH1 0x0 PUSH1 0x3 SLOAD PUSH8 0xFFFFFFFFFFFFFFFF DUP2 GT ISZERO PUSH2 0xC5D JUMPI PUSH2 0xC5C PUSH2 0x1C61 JUMP JUMPDEST JUMPDEST PUSH1 0x40 MLOAD SWAP1 DUP1 DUP3 MSTORE DUP1 PUSH1 0x20 MUL PUSH1 0x20 ADD DUP3 ADD PUSH1 0x40 MSTORE DUP1 ISZERO PUSH2 0xC8B JUMPI DUP2 PUSH1 0x20 ADD PUSH1 0x20 DUP3 MUL DUP1 CALLDATASIZE DUP4 CALLDATACOPY DUP1 DUP3 ADD SWAP2 POP POP SWAP1 POP JUMPDEST POP SWAP1 POP PUSH1 0x0 PUSH1 0x3 SLOAD PUSH8 0xFFFFFFFFFFFFFFFF DUP2 GT ISZERO PUSH2 0xCAC JUMPI PUSH2 0xCAB PUSH2 0x1C61 JUMP JUMPDEST JUMPDEST PUSH1 0x40 MLOAD SWAP1 DUP1 DUP3 MSTORE DUP1 PUSH1 0x20 MUL PUSH1 0x20 ADD DUP3 ADD PUSH1 0x40 MSTORE DUP1 ISZERO PUSH2 0xCDA JUMPI DUP2 PUSH1 0x20 ADD PUSH1 0x20 DUP3 MUL DUP1 CALLDATASIZE DUP4 CALLDATACOPY DUP1 DUP3 ADD SWAP2 POP POP SWAP1 POP JUMPDEST POP SWAP1 POP PUSH1 0x0 PUSH1 0x3 SLOAD PUSH8 0xFFFFFFFFFFFFFFFF DUP2 GT ISZERO PUSH2 0xCFB JUMPI PUSH2 0xCFA PUSH2 0x1C61 JUMP JUMPDEST JUMPDEST PUSH1 0x40 MLOAD SWAP1 DUP1 DUP3 MSTORE DUP1 PUSH1 0x20 MUL PUSH1 0x20 ADD DUP3 ADD PUSH1 0x40 MSTORE DUP1 ISZERO PUSH2 0xD29 JUMPI DUP2 PUSH1 0x20 ADD PUSH1 0x20 DUP3 MUL DUP1 CALLDATASIZE DUP4 CALLDATACOPY DUP1 DUP3 ADD SWAP2 POP POP SWAP1 POP JUMPDEST POP SWAP1 POP PUSH1 0x0 JUMPDEST PUSH1 0x3 SLOAD DUP2 LT ISZERO PUSH2 0xEDE JUMPI PUSH1 0x4 PUSH1 0x0 DUP3 DUP2 MSTORE PUSH1 0x20 ADD SWAP1 DUP2 MSTORE PUSH1 0x20 ADD PUSH1 0x0 KECCAK256 PUSH1 0x0 ADD PUSH1 0x0 SWAP1 SLOAD SWAP1 PUSH2 0x100 EXP SWAP1 DIV PUSH20 0xFFFFFFFFFFFFFFFFFFFFFFFFFFFFFFFFFFFFFFFF AND DUP8 DUP3 DUP2 MLOAD DUP2 LT PUSH2 0xD83 JUMPI PUSH2 0xD82 PUSH2 0x21D0 JUMP JUMPDEST JUMPDEST PUSH1 0x20 MUL PUSH1 0x20 ADD ADD SWAP1 PUSH20 0xFFFFFFFFFFFFFFFFFFFFFFFFFFFFFFFFFFFFFFFF AND SWAP1 DUP2 PUSH20 0xFFFFFFFFFFFFFFFFFFFFFFFFFFFFFFFFFFFFFFFF AND DUP2 MSTORE POP POP PUSH1 0x4 PUSH1 0x0 DUP3 DUP2 MSTORE PUSH1 0x20 ADD SWAP1 DUP2 MSTORE PUSH1 0x20 ADD PUSH1 0x0 KECCAK256 PUSH1 0x1 ADD SLOAD DUP7 DUP3 DUP2 MLOAD DUP2 LT PUSH2 0xDE7 JUMPI PUSH2 0xDE6 PUSH2 0x21D0 JUMP JUMPDEST JUMPDEST PUSH1 0x20 MUL PUSH1 0x20 ADD ADD DUP2 DUP2 MSTORE POP POP PUSH1 0x4 PUSH1 0x0 DUP3 DUP2 MSTORE PUSH1 0x20 ADD SWAP1 DUP2 MSTORE PUSH1 0x20 ADD PUSH1 0x0 KECCAK256 PUSH1 0x2 ADD SLOAD DUP6 DUP3 DUP2 MLOAD DUP2 LT PUSH2 0xE1D JUMPI PUSH2 0xE1C PUSH2 0x21D0 JUMP JUMPDEST JUMPDEST PUSH1 0x20 MUL PUSH1 0x20 ADD ADD DUP2 DUP2 MSTORE POP POP PUSH1 0x4 PUSH1 0x0 DUP3 DUP2 MSTORE PUSH1 0x20 ADD SWAP1 DUP2 MSTORE PUSH1 0x20 ADD PUSH1 0x0 KECCAK256 PUSH1 0x3 ADD SLOAD DUP5 DUP3 DUP2 MLOAD DUP2 LT PUSH2 0xE53 JUMPI PUSH2 0xE52 PUSH2 0x21D0 JUMP JUMPDEST JUMPDEST PUSH1 0x20 MUL PUSH1 0x20 ADD ADD DUP2 DUP2 MSTORE POP POP PUSH1 0x4 PUSH1 0x0 DUP3 DUP2 MSTORE PUSH1 0x20 ADD SWAP1 DUP2 MSTORE PUSH1 0x20 ADD PUSH1 0x0 KECCAK256 PUSH1 0x4 ADD SLOAD DUP4 DUP3 DUP2 MLOAD DUP2 LT PUSH2 0xE89 JUMPI PUSH2 0xE88 PUSH2 0x21D0 JUMP JUMPDEST JUMPDEST PUSH1 0x20 MUL PUSH1 0x20 ADD ADD DUP2 DUP2 MSTORE POP POP PUSH1 0x4 PUSH1 0x0 DUP3 DUP2 MSTORE PUSH1 0x20 ADD SWAP1 DUP2 MSTORE PUSH1 0x20 ADD PUSH1 0x0 KECCAK256 PUSH1 0x5 ADD SLOAD DUP3 DUP3 DUP2 MLOAD DUP2 LT PUSH2 0xEBF JUMPI PUSH2 0xEBE PUSH2 0x21D0 JUMP JUMPDEST JUMPDEST PUSH1 0x20 MUL PUSH1 0x20 ADD ADD DUP2 DUP2 MSTORE POP POP DUP1 DUP1 PUSH2 0xED6 SWAP1 PUSH2 0x20E8 JUMP JUMPDEST SWAP2 POP POP PUSH2 0xD2F JUMP JUMPDEST POP DUP6 DUP6 DUP6 DUP6 DUP6 DUP6 SWAP12 POP SWAP12 POP SWAP12 POP SWAP12 POP SWAP12 POP SWAP12 POP POP POP POP POP POP POP SWAP1 SWAP2 SWAP3 SWAP4 SWAP5 SWAP6 JUMP JUMPDEST PUSH1 0x1 DUP1 SLOAD PUSH2 0xF0C SWAP1 PUSH2 0x1E04 JUMP JUMPDEST DUP1 PUSH1 0x1F ADD PUSH1 0x20 DUP1 SWAP2 DIV MUL PUSH1 0x20 ADD PUSH1 0x40 MLOAD SWAP1 DUP2 ADD PUSH1 0x40 MSTORE DUP1 SWAP3 SWAP2 SWAP1 DUP2 DUP2 MSTORE PUSH1 0x20 ADD DUP3 DUP1 SLOAD PUSH2 0xF38 SWAP1 PUSH2 0x1E04 JUMP JUMPDEST DUP1 ISZERO PUSH2 0xF85 JUMPI DUP1 PUSH1 0x1F LT PUSH2 0xF5A JUMPI PUSH2 0x100 DUP1 DUP4 SLOAD DIV MUL DUP4 MSTORE SWAP2 PUSH1 0x20 ADD SWAP2 PUSH2 0xF85 JUMP JUMPDEST DUP3 ADD SWAP2 SWAP1 PUSH1 0x0 MSTORE PUSH1 0x20 PUSH1 0x0 KECCAK256 SWAP1 JUMPDEST DUP2 SLOAD DUP2 MSTORE SWAP1 PUSH1 0x1 ADD SWAP1 PUSH1 0x20 ADD DUP1 DUP4 GT PUSH2 0xF68 JUMPI DUP3 SWAP1 SUB PUSH1 0x1F AND DUP3 ADD SWAP2 JUMPDEST POP POP POP POP POP DUP2 JUMP JUMPDEST DUP1 PUSH1 0x0 PUSH20 0xFFFFFFFFFFFFFFFFFFFFFFFFFFFFFFFFFFFFFFFF AND PUSH1 0x4 PUSH1 0x0 DUP4 DUP2 MSTORE PUSH1 0x20 ADD SWAP1 DUP2 MSTORE PUSH1 0x20 ADD PUSH1 0x0 KECCAK256 PUSH1 0x0 ADD PUSH1 0x0 SWAP1 SLOAD SWAP1 PUSH2 0x100 EXP SWAP1 DIV PUSH20 0xFFFFFFFFFFFFFFFFFFFFFFFFFFFFFFFFFFFFFFFF AND PUSH20 0xFFFFFFFFFFFFFFFFFFFFFFFFFFFFFFFFFFFFFFFF AND SUB PUSH2 0x1033 JUMPI PUSH1 0x40 MLOAD PUSH32 0x8C379A000000000000000000000000000000000000000000000000000000000 DUP2 MSTORE PUSH1 0x4 ADD PUSH2 0x102A SWAP1 PUSH2 0x1E81 JUMP JUMPDEST PUSH1 0x40 MLOAD DUP1 SWAP2 SUB SWAP1 REVERT JUMPDEST DUP2 CALLER PUSH20 0xFFFFFFFFFFFFFFFFFFFFFFFFFFFFFFFFFFFFFFFF AND PUSH1 0x4 PUSH1 0x0 DUP4 DUP2 MSTORE PUSH1 0x20 ADD SWAP1 DUP2 MSTORE PUSH1 0x20 ADD PUSH1 0x0 KECCAK256 PUSH1 0x0 ADD PUSH1 0x0 SWAP1 SLOAD SWAP1 PUSH2 0x100 EXP SWAP1 DIV PUSH20 0xFFFFFFFFFFFFFFFFFFFFFFFFFFFFFFFFFFFFFFFF AND PUSH20 0xFFFFFFFFFFFFFFFFFFFFFFFFFFFFFFFFFFFFFFFF AND EQ DUP1 PUSH2 0x10EF JUMPI POP PUSH32 0x0 PUSH20 0xFFFFFFFFFFFFFFFFFFFFFFFFFFFFFFFFFFFFFFFF AND CALLER PUSH20 0xFFFFFFFFFFFFFFFFFFFFFFFFFFFFFFFFFFFFFFFF AND EQ JUMPDEST PUSH2 0x112E JUMPI PUSH1 0x40 MLOAD PUSH32 0x8C379A000000000000000000000000000000000000000000000000000000000 DUP2 MSTORE PUSH1 0x4 ADD PUSH2 0x1125 SWAP1 PUSH2 0x1EED JUMP JUMPDEST PUSH1 0x40 MLOAD DUP1 SWAP2 SUB SWAP1 REVERT JUMPDEST PUSH1 0x2 PUSH1 0x0 SWAP1 SLOAD SWAP1 PUSH2 0x100 EXP SWAP1 DIV PUSH1 0xFF AND PUSH2 0x117D JUMPI PUSH1 0x40 MLOAD PUSH32 0x8C379A000000000000000000000000000000000000000000000000000000000 DUP2 MSTORE PUSH1 0x4 ADD PUSH2 0x1174 SWAP1 PUSH2 0x1F59 JUMP JUMPDEST PUSH1 0x40 MLOAD DUP1 SWAP2 SUB SWAP1 REVERT JUMPDEST PUSH1 0x0 CALLVALUE SWAP1 POP PUSH1 0x0 PUSH1 0x4 PUSH1 0x0 DUP7 DUP2 MSTORE PUSH1 0x20 ADD SWAP1 DUP2 MSTORE PUSH1 0x20 ADD PUSH1 0x0 KECCAK256 PUSH1 0x2 ADD SLOAD SWAP1 POP DUP1 DUP3 EQ PUSH2 0x11DF JUMPI PUSH1 0x40 MLOAD PUSH32 0x8C379A000000000000000000000000000000000000000000000000000000000 DUP2 MSTORE PUSH1 0x4 ADD PUSH2 0x11D6 SWAP1 PUSH2 0x224B JUMP JUMPDEST PUSH1 0x40 MLOAD DUP1 SWAP2 SUB SWAP1 REVERT JUMPDEST PUSH2 0x3E8 TIMESTAMP PUSH2 0x11ED SWAP2 SWAP1 PUSH2 0x1FA8 JUMP JUMPDEST PUSH1 0x4 PUSH1 0x0 DUP8 DUP2 MSTORE PUSH1 0x20 ADD SWAP1 DUP2 MSTORE PUSH1 0x20 ADD PUSH1 0x0 KECCAK256 PUSH1 0x4 ADD DUP2 SWAP1 SSTORE POP PUSH2 0x3E8 PUSH3 0x15180 PUSH1 0x4 PUSH1 0x0 DUP9 DUP2 MSTORE PUSH1 0x20 ADD SWAP1 DUP2 MSTORE PUSH1 0x20 ADD PUSH1 0x0 KECCAK256 PUSH1 0x3 ADD SLOAD PUSH2 0x122F SWAP2 SWAP1 PUSH2 0x1FA8 JUMP JUMPDEST TIMESTAMP PUSH2 0x123A SWAP2 SWAP1 PUSH2 0x219C JUMP JUMPDEST PUSH2 0x1244 SWAP2 SWAP1 PUSH2 0x1FA8 JUMP JUMPDEST PUSH1 0x4 PUSH1 0x0 DUP8 DUP2 MSTORE PUSH1 0x20 ADD SWAP1 DUP2 MSTORE PUSH1 0x20 ADD PUSH1 0x0 KECCAK256 PUSH1 0x5 ADD DUP2 SWAP1 SSTORE POP DUP5 PUSH32 0x9040C259954B48F5DFDF60EA91E742403E7552202DE9925D509FDD8187B2130B PUSH1 0x40 MLOAD PUSH1 0x40 MLOAD DUP1 SWAP2 SUB SWAP1 LOG2 POP POP POP POP POP JUMP JUMPDEST PUSH1 0x0 PUSH32 0x0 SWAP1 POP SWAP1 JUMP JUMPDEST DUP3 PUSH1 0x0 JUMPDEST PUSH1 0x3 SLOAD DUP2 LT ISZERO PUSH2 0x13AE JUMPI DUP2 PUSH20 0xFFFFFFFFFFFFFFFFFFFFFFFFFFFFFFFFFFFFFFFF AND PUSH1 0x4 PUSH1 0x0 DUP4 DUP2 MSTORE PUSH1 0x20 ADD SWAP1 DUP2 MSTORE PUSH1 0x20 ADD PUSH1 0x0 KECCAK256 PUSH1 0x0 ADD PUSH1 0x0 SWAP1 SLOAD SWAP1 PUSH2 0x100 EXP SWAP1 DIV PUSH20 0xFFFFFFFFFFFFFFFFFFFFFFFFFFFFFFFFFFFFFFFF AND PUSH20 0xFFFFFFFFFFFFFFFFFFFFFFFFFFFFFFFFFFFFFFFF AND EQ DUP1 ISZERO PUSH2 0x135B JUMPI POP PUSH1 0x4 PUSH1 0x0 DUP3 DUP2 MSTORE PUSH1 0x20 ADD SWAP1 DUP2 MSTORE PUSH1 0x20 ADD PUSH1 0x0 KECCAK256 PUSH1 0x5 ADD SLOAD PUSH2 0x3E8 TIMESTAMP PUSH2 0x1359 SWAP2 SWAP1 PUSH2 0x1FA8 JUMP JUMPDEST LT JUMPDEST ISZERO PUSH2 0x139B JUMPI PUSH1 0x40 MLOAD PUSH32 0x8C379A000000000000000000000000000000000000000000000000000000000 DUP2 MSTORE PUSH1 0x4 ADD PUSH2 0x1392 SWAP1 PUSH2 0x20C8 JUMP JUMPDEST PUSH1 0x40 MLOAD DUP1 SWAP2 SUB SWAP1 REVERT JUMPDEST DUP1 DUP1 PUSH2 0x13A6 SWAP1 PUSH2 0x20E8 JUMP JUMPDEST SWAP2 POP POP PUSH2 0x12BE JUMP JUMPDEST POP DUP3 PUSH1 0x0 DUP2 GT PUSH2 0x13F3 JUMPI PUSH1 0x40 MLOAD PUSH32 0x8C379A000000000000000000000000000000000000000000000000000000000 DUP2 MSTORE PUSH1 0x4 ADD PUSH2 0x13EA SWAP1 PUSH2 0x217C JUMP JUMPDEST PUSH1 0x40 MLOAD DUP1 SWAP2 SUB SWAP1 REVERT JUMPDEST PUSH1 0x2 PUSH1 0x0 SWAP1 SLOAD SWAP1 PUSH2 0x100 EXP SWAP1 DIV PUSH1 0xFF AND PUSH2 0x1442 JUMPI PUSH1 0x40 MLOAD PUSH32 0x8C379A000000000000000000000000000000000000000000000000000000000 DUP2 MSTORE PUSH1 0x4 ADD PUSH2 0x1439 SWAP1 PUSH2 0x1F59 JUMP JUMPDEST PUSH1 0x40 MLOAD DUP1 SWAP2 SUB SWAP1 REVERT JUMPDEST PUSH1 0x0 PUSH1 0x40 MLOAD DUP1 PUSH1 0xC0 ADD PUSH1 0x40 MSTORE DUP1 DUP8 PUSH20 0xFFFFFFFFFFFFFFFFFFFFFFFFFFFFFFFFFFFFFFFF AND DUP2 MSTORE PUSH1 0x20 ADD PUSH1 0x3 SLOAD DUP2 MSTORE PUSH1 0x20 ADD DUP7 DUP2 MSTORE PUSH1 0x20 ADD DUP6 DUP2 MSTORE PUSH1 0x20 ADD PUSH1 0x0 DUP2 MSTORE PUSH1 0x20 ADD PUSH1 0x0 DUP2 MSTORE POP SWAP1 POP DUP1 PUSH1 0x4 PUSH1 0x0 PUSH1 0x3 SLOAD DUP2 MSTORE PUSH1 0x20 ADD SWAP1 DUP2 MSTORE PUSH1 0x20 ADD PUSH1 0x0 KECCAK256 PUSH1 0x0 DUP3 ADD MLOAD DUP2 PUSH1 0x0 ADD PUSH1 0x0 PUSH2 0x100 EXP DUP2 SLOAD DUP2 PUSH20 0xFFFFFFFFFFFFFFFFFFFFFFFFFFFFFFFFFFFFFFFF MUL NOT AND SWAP1 DUP4 PUSH20 0xFFFFFFFFFFFFFFFFFFFFFFFFFFFFFFFFFFFFFFFF AND MUL OR SWAP1 SSTORE POP PUSH1 0x20 DUP3 ADD MLOAD DUP2 PUSH1 0x1 ADD SSTORE PUSH1 0x40 DUP3 ADD MLOAD DUP2 PUSH1 0x2 ADD SSTORE PUSH1 0x60 DUP3 ADD MLOAD DUP2 PUSH1 0x3 ADD SSTORE PUSH1 0x80 DUP3 ADD MLOAD DUP2 PUSH1 0x4 ADD SSTORE PUSH1 0xA0 DUP3 ADD MLOAD DUP2 PUSH1 0x5 ADD SSTORE SWAP1 POP POP PUSH1 0x3 SLOAD PUSH32 0x6A2B70DDE6AE0193F84B6A9EEB3B0EBDC3A35E99D9167B88C570158DD09CB0F7 PUSH1 0x40 MLOAD PUSH1 0x40 MLOAD DUP1 SWAP2 SUB SWAP1 LOG2 PUSH1 0x3 PUSH1 0x0 DUP2 SLOAD DUP1 SWAP3 SWAP2 SWAP1 PUSH2 0x1561 SWAP1 PUSH2 0x20E8 JUMP JUMPDEST SWAP2 SWAP1 POP SSTORE POP POP POP POP POP POP POP JUMP JUMPDEST PUSH32 0x0 PUSH20 0xFFFFFFFFFFFFFFFFFFFFFFFFFFFFFFFFFFFFFFFF AND CALLER PUSH20 0xFFFFFFFFFFFFFFFFFFFFFFFFFFFFFFFFFFFFFFFF AND EQ PUSH2 0x15FC JUMPI PUSH1 0x40 MLOAD PUSH32 0x8C379A000000000000000000000000000000000000000000000000000000000 DUP2 MSTORE PUSH1 0x4 ADD PUSH2 0x15F3 SWAP1 PUSH2 0x2036 JUMP JUMPDEST PUSH1 0x40 MLOAD DUP1 SWAP2 SUB SWAP1 REVERT JUMPDEST PUSH1 0x2 PUSH1 0x0 SWAP1 SLOAD SWAP1 PUSH2 0x100 EXP SWAP1 DIV PUSH1 0xFF AND PUSH2 0x164B JUMPI PUSH1 0x40 MLOAD PUSH32 0x8C379A000000000000000000000000000000000000000000000000000000000 DUP2 MSTORE PUSH1 0x4 ADD PUSH2 0x1642 SWAP1 PUSH2 0x1F59 JUMP JUMPDEST PUSH1 0x40 MLOAD DUP1 SWAP2 SUB SWAP1 REVERT JUMPDEST DUP1 PUSH1 0x1 SWAP1 DUP2 PUSH2 0x165A SWAP2 SWAP1 PUSH2 0x2417 JUMP JUMPDEST POP PUSH32 0x338BFBDAFB8AABB328ABDE5ACFE20059C4C051BA2D9C13B41FA03B3BC9E637A PUSH1 0x40 MLOAD PUSH1 0x40 MLOAD DUP1 SWAP2 SUB SWAP1 LOG1 POP JUMP JUMPDEST PUSH32 0x0 PUSH20 0xFFFFFFFFFFFFFFFFFFFFFFFFFFFFFFFFFFFFFFFF AND CALLER PUSH20 0xFFFFFFFFFFFFFFFFFFFFFFFFFFFFFFFFFFFFFFFF AND EQ PUSH2 0x1718 JUMPI PUSH1 0x40 MLOAD PUSH32 0x8C379A000000000000000000000000000000000000000000000000000000000 DUP2 MSTORE PUSH1 0x4 ADD PUSH2 0x170F SWAP1 PUSH2 0x2036 JUMP JUMPDEST PUSH1 0x40 MLOAD DUP1 SWAP2 SUB SWAP1 REVERT JUMPDEST PUSH1 0x2 PUSH1 0x0 SWAP1 SLOAD SWAP1 PUSH2 0x100 EXP SWAP1 DIV PUSH1 0xFF AND PUSH2 0x1767 JUMPI PUSH1 0x40 MLOAD PUSH32 0x8C379A000000000000000000000000000000000000000000000000000000000 DUP2 MSTORE PUSH1 0x4 ADD PUSH2 0x175E SWAP1 PUSH2 0x1F59 JUMP JUMPDEST PUSH1 0x40 MLOAD DUP1 SWAP2 SUB SWAP1 REVERT JUMPDEST DUP1 PUSH1 0x0 SWAP1 DUP2 PUSH2 0x1776 SWAP2 SWAP1 PUSH2 0x2417 JUMP JUMPDEST POP PUSH32 0x338BFBDAFB8AABB328ABDE5ACFE20059C4C051BA2D9C13B41FA03B3BC9E637A PUSH1 0x40 MLOAD PUSH1 0x40 MLOAD DUP1 SWAP2 SUB SWAP1 LOG1 POP JUMP JUMPDEST PUSH1 0x0 PUSH1 0x2 PUSH1 0x0 SWAP1 SLOAD SWAP1 PUSH2 0x100 EXP SWAP1 DIV PUSH1 0xFF AND SWAP1 POP SWAP1 JUMP JUMPDEST PUSH1 0x0 DUP2 MLOAD SWAP1 POP SWAP2 SWAP1 POP JUMP JUMPDEST PUSH1 0x0 DUP3 DUP3 MSTORE PUSH1 0x20 DUP3 ADD SWAP1 POP SWAP3 SWAP2 POP POP JUMP JUMPDEST PUSH1 0x0 JUMPDEST DUP4 DUP2 LT ISZERO PUSH2 0x17F7 JUMPI DUP1 DUP3 ADD MLOAD DUP2 DUP5 ADD MSTORE PUSH1 0x20 DUP2 ADD SWAP1 POP PUSH2 0x17DC JUMP JUMPDEST PUSH1 0x0 DUP5 DUP5 ADD MSTORE POP POP POP POP JUMP JUMPDEST PUSH1 0x0 PUSH1 0x1F NOT PUSH1 0x1F DUP4 ADD AND SWAP1 POP SWAP2 SWAP1 POP JUMP JUMPDEST PUSH1 0x0 PUSH2 0x181F DUP3 PUSH2 0x17BD JUMP JUMPDEST PUSH2 0x1829 DUP2 DUP6 PUSH2 0x17C8 JUMP JUMPDEST SWAP4 POP PUSH2 0x1839 DUP2 DUP6 PUSH1 0x20 DUP7 ADD PUSH2 0x17D9 JUMP JUMPDEST PUSH2 0x1842 DUP2 PUSH2 0x1803 JUMP JUMPDEST DUP5 ADD SWAP2 POP POP SWAP3 SWAP2 POP POP JUMP JUMPDEST PUSH1 0x0 PUSH1 0x20 DUP3 ADD SWAP1 POP DUP2 DUP2 SUB PUSH1 0x0 DUP4 ADD MSTORE PUSH2 0x1867 DUP2 DUP5 PUSH2 0x1814 JUMP JUMPDEST SWAP1 POP SWAP3 SWAP2 POP POP JUMP JUMPDEST PUSH1 0x0 PUSH1 0x40 MLOAD SWAP1 POP SWAP1 JUMP JUMPDEST PUSH1 0x0 DUP1 REVERT JUMPDEST PUSH1 0x0 DUP1 REVERT JUMPDEST PUSH1 0x0 DUP2 SWAP1 POP SWAP2 SWAP1 POP JUMP JUMPDEST PUSH2 0x1896 DUP2 PUSH2 0x1883 JUMP JUMPDEST DUP2 EQ PUSH2 0x18A1 JUMPI PUSH1 0x0 DUP1 REVERT JUMPDEST POP JUMP JUMPDEST PUSH1 0x0 DUP2 CALLDATALOAD SWAP1 POP PUSH2 0x18B3 DUP2 PUSH2 0x188D JUMP JUMPDEST SWAP3 SWAP2 POP POP JUMP JUMPDEST PUSH1 0x0 PUSH1 0x20 DUP3 DUP5 SUB SLT ISZERO PUSH2 0x18CF JUMPI PUSH2 0x18CE PUSH2 0x1879 JUMP JUMPDEST JUMPDEST PUSH1 0x0 PUSH2 0x18DD DUP5 DUP3 DUP6 ADD PUSH2 0x18A4 JUMP JUMPDEST SWAP2 POP POP SWAP3 SWAP2 POP POP JUMP JUMPDEST PUSH1 0x0 DUP2 ISZERO ISZERO SWAP1 POP SWAP2 SWAP1 POP JUMP JUMPDEST PUSH2 0x18FB DUP2 PUSH2 0x18E6 JUMP JUMPDEST DUP3 MSTORE POP POP JUMP JUMPDEST PUSH1 0x0 PUSH1 0x20 DUP3 ADD SWAP1 POP PUSH2 0x1916 PUSH1 0x0 DUP4 ADD DUP5 PUSH2 0x18F2 JUMP JUMPDEST SWAP3 SWAP2 POP POP JUMP JUMPDEST PUSH2 0x1925 DUP2 PUSH2 0x18E6 JUMP JUMPDEST DUP2 EQ PUSH2 0x1930 JUMPI PUSH1 0x0 DUP1 REVERT JUMPDEST POP JUMP JUMPDEST PUSH1 0x0 DUP2 CALLDATALOAD SWAP1 POP PUSH2 0x1942 DUP2 PUSH2 0x191C JUMP JUMPDEST SWAP3 SWAP2 POP POP JUMP JUMPDEST PUSH1 0x0 PUSH1 0x20 DUP3 DUP5 SUB SLT ISZERO PUSH2 0x195E JUMPI PUSH2 0x195D PUSH2 0x1879 JUMP JUMPDEST JUMPDEST PUSH1 0x0 PUSH2 0x196C DUP5 DUP3 DUP6 ADD PUSH2 0x1933 JUMP JUMPDEST SWAP2 POP POP SWAP3 SWAP2 POP POP JUMP JUMPDEST PUSH1 0x0 PUSH20 0xFFFFFFFFFFFFFFFFFFFFFFFFFFFFFFFFFFFFFFFF DUP3 AND SWAP1 POP SWAP2 SWAP1 POP JUMP JUMPDEST PUSH1 0x0 PUSH2 0x19A0 DUP3 PUSH2 0x1975 JUMP JUMPDEST SWAP1 POP SWAP2 SWAP1 POP JUMP JUMPDEST PUSH2 0x19B0 DUP2 PUSH2 0x1995 JUMP JUMPDEST DUP2 EQ PUSH2 0x19BB JUMPI PUSH1 0x0 DUP1 REVERT JUMPDEST POP JUMP JUMPDEST PUSH1 0x0 DUP2 CALLDATALOAD SWAP1 POP PUSH2 0x19CD DUP2 PUSH2 0x19A7 JUMP JUMPDEST SWAP3 SWAP2 POP POP JUMP JUMPDEST PUSH1 0x0 DUP1 PUSH1 0x0 PUSH1 0x60 DUP5 DUP7 SUB SLT ISZERO PUSH2 0x19EC JUMPI PUSH2 0x19EB PUSH2 0x1879 JUMP JUMPDEST JUMPDEST PUSH1 0x0 PUSH2 0x19FA DUP7 DUP3 DUP8 ADD PUSH2 0x19BE JUMP JUMPDEST SWAP4 POP POP PUSH1 0x20 PUSH2 0x1A0B DUP7 DUP3 DUP8 ADD PUSH2 0x18A4 JUMP JUMPDEST SWAP3 POP POP PUSH1 0x40 PUSH2 0x1A1C DUP7 DUP3 DUP8 ADD PUSH2 0x18A4 JUMP JUMPDEST SWAP2 POP POP SWAP3 POP SWAP3 POP SWAP3 JUMP JUMPDEST PUSH1 0x0 DUP2 MLOAD SWAP1 POP SWAP2 SWAP1 POP JUMP JUMPDEST PUSH1 0x0 DUP3 DUP3 MSTORE PUSH1 0x20 DUP3 ADD SWAP1 POP SWAP3 SWAP2 POP POP JUMP JUMPDEST PUSH1 0x0 DUP2 SWAP1 POP PUSH1 0x20 DUP3 ADD SWAP1 POP SWAP2 SWAP1 POP JUMP JUMPDEST PUSH2 0x1A5B DUP2 PUSH2 0x1995 JUMP JUMPDEST DUP3 MSTORE POP POP JUMP JUMPDEST PUSH1 0x0 PUSH2 0x1A6D DUP4 DUP4 PUSH2 0x1A52 JUMP JUMPDEST PUSH1 0x20 DUP4 ADD SWAP1 POP SWAP3 SWAP2 POP POP JUMP JUMPDEST PUSH1 0x0 PUSH1 0x20 DUP3 ADD SWAP1 POP SWAP2 SWAP1 POP JUMP JUMPDEST PUSH1 0x0 PUSH2 0x1A91 DUP3 PUSH2 0x1A26 JUMP JUMPDEST PUSH2 0x1A9B DUP2 DUP6 PUSH2 0x1A31 JUMP JUMPDEST SWAP4 POP PUSH2 0x1AA6 DUP4 PUSH2 0x1A42 JUMP JUMPDEST DUP1 PUSH1 0x0 JUMPDEST DUP4 DUP2 LT ISZERO PUSH2 0x1AD7 JUMPI DUP2 MLOAD PUSH2 0x1ABE DUP9 DUP3 PUSH2 0x1A61 JUMP JUMPDEST SWAP8 POP PUSH2 0x1AC9 DUP4 PUSH2 0x1A79 JUMP JUMPDEST SWAP3 POP POP PUSH1 0x1 DUP2 ADD SWAP1 POP PUSH2 0x1AAA JUMP JUMPDEST POP DUP6 SWAP4 POP POP POP POP SWAP3 SWAP2 POP POP JUMP JUMPDEST PUSH1 0x0 DUP2 MLOAD SWAP1 POP SWAP2 SWAP1 POP JUMP JUMPDEST PUSH1 0x0 DUP3 DUP3 MSTORE PUSH1 0x20 DUP3 ADD SWAP1 POP SWAP3 SWAP2 POP POP JUMP JUMPDEST PUSH1 0x0 DUP2 SWAP1 POP PUSH1 0x20 DUP3 ADD SWAP1 POP SWAP2 SWAP1 POP JUMP JUMPDEST PUSH2 0x1B19 DUP2 PUSH2 0x1883 JUMP JUMPDEST DUP3 MSTORE POP POP JUMP JUMPDEST PUSH1 0x0 PUSH2 0x1B2B DUP4 DUP4 PUSH2 0x1B10 JUMP JUMPDEST PUSH1 0x20 DUP4 ADD SWAP1 POP SWAP3 SWAP2 POP POP JUMP JUMPDEST PUSH1 0x0 PUSH1 0x20 DUP3 ADD SWAP1 POP SWAP2 SWAP1 POP JUMP JUMPDEST PUSH1 0x0 PUSH2 0x1B4F DUP3 PUSH2 0x1AE4 JUMP JUMPDEST PUSH2 0x1B59 DUP2 DUP6 PUSH2 0x1AEF JUMP JUMPDEST SWAP4 POP PUSH2 0x1B64 DUP4 PUSH2 0x1B00 JUMP JUMPDEST DUP1 PUSH1 0x0 JUMPDEST DUP4 DUP2 LT ISZERO PUSH2 0x1B95 JUMPI DUP2 MLOAD PUSH2 0x1B7C DUP9 DUP3 PUSH2 0x1B1F JUMP JUMPDEST SWAP8 POP PUSH2 0x1B87 DUP4 PUSH2 0x1B37 JUMP JUMPDEST SWAP3 POP POP PUSH1 0x1 DUP2 ADD SWAP1 POP PUSH2 0x1B68 JUMP JUMPDEST POP DUP6 SWAP4 POP POP POP POP SWAP3 SWAP2 POP POP JUMP JUMPDEST PUSH1 0x0 PUSH1 0xC0 DUP3 ADD SWAP1 POP DUP2 DUP2 SUB PUSH1 0x0 DUP4 ADD MSTORE PUSH2 0x1BBC DUP2 DUP10 PUSH2 0x1A86 JUMP JUMPDEST SWAP1 POP DUP2 DUP2 SUB PUSH1 0x20 DUP4 ADD MSTORE PUSH2 0x1BD0 DUP2 DUP9 PUSH2 0x1B44 JUMP JUMPDEST SWAP1 POP DUP2 DUP2 SUB PUSH1 0x40 DUP4 ADD MSTORE PUSH2 0x1BE4 DUP2 DUP8 PUSH2 0x1B44 JUMP JUMPDEST SWAP1 POP DUP2 DUP2 SUB PUSH1 0x60 DUP4 ADD MSTORE PUSH2 0x1BF8 DUP2 DUP7 PUSH2 0x1B44 JUMP JUMPDEST SWAP1 POP DUP2 DUP2 SUB PUSH1 0x80 DUP4 ADD MSTORE PUSH2 0x1C0C DUP2 DUP6 PUSH2 0x1B44 JUMP JUMPDEST SWAP1 POP DUP2 DUP2 SUB PUSH1 0xA0 DUP4 ADD MSTORE PUSH2 0x1C20 DUP2 DUP5 PUSH2 0x1B44 JUMP JUMPDEST SWAP1 POP SWAP8 SWAP7 POP POP POP POP POP POP POP JUMP JUMPDEST PUSH2 0x1C36 DUP2 PUSH2 0x1995 JUMP JUMPDEST DUP3 MSTORE POP POP JUMP JUMPDEST PUSH1 0x0 PUSH1 0x20 DUP3 ADD SWAP1 POP PUSH2 0x1C51 PUSH1 0x0 DUP4 ADD DUP5 PUSH2 0x1C2D JUMP JUMPDEST SWAP3 SWAP2 POP POP JUMP JUMPDEST PUSH1 0x0 DUP1 REVERT JUMPDEST PUSH1 0x0 DUP1 REVERT JUMPDEST PUSH32 0x4E487B7100000000000000000000000000000000000000000000000000000000 PUSH1 0x0 MSTORE PUSH1 0x41 PUSH1 0x4 MSTORE PUSH1 0x24 PUSH1 0x0 REVERT JUMPDEST PUSH2 0x1C99 DUP3 PUSH2 0x1803 JUMP JUMPDEST DUP2 ADD DUP2 DUP2 LT PUSH8 0xFFFFFFFFFFFFFFFF DUP3 GT OR ISZERO PUSH2 0x1CB8 JUMPI PUSH2 0x1CB7 PUSH2 0x1C61 JUMP JUMPDEST JUMPDEST DUP1 PUSH1 0x40 MSTORE POP POP POP JUMP JUMPDEST PUSH1 0x0 PUSH2 0x1CCB PUSH2 0x186F JUMP JUMPDEST SWAP1 POP PUSH2 0x1CD7 DUP3 DUP3 PUSH2 0x1C90 JUMP JUMPDEST SWAP2 SWAP1 POP JUMP JUMPDEST PUSH1 0x0 PUSH8 0xFFFFFFFFFFFFFFFF DUP3 GT ISZERO PUSH2 0x1CF7 JUMPI PUSH2 0x1CF6 PUSH2 0x1C61 JUMP JUMPDEST JUMPDEST PUSH2 0x1D00 DUP3 PUSH2 0x1803 JUMP JUMPDEST SWAP1 POP PUSH1 0x20 DUP2 ADD SWAP1 POP SWAP2 SWAP1 POP JUMP JUMPDEST DUP3 DUP2 DUP4 CALLDATACOPY PUSH1 0x0 DUP4 DUP4 ADD MSTORE POP POP POP JUMP JUMPDEST PUSH1 0x0 PUSH2 0x1D2F PUSH2 0x1D2A DUP5 PUSH2 0x1CDC JUMP JUMPDEST PUSH2 0x1CC1 JUMP JUMPDEST SWAP1 POP DUP3 DUP2 MSTORE PUSH1 0x20 DUP2 ADD DUP5 DUP5 DUP5 ADD GT ISZERO PUSH2 0x1D4B JUMPI PUSH2 0x1D4A PUSH2 0x1C5C JUMP JUMPDEST JUMPDEST PUSH2 0x1D56 DUP5 DUP3 DUP6 PUSH2 0x1D0D JUMP JUMPDEST POP SWAP4 SWAP3 POP POP POP JUMP JUMPDEST PUSH1 0x0 DUP3 PUSH1 0x1F DUP4 ADD SLT PUSH2 0x1D73 JUMPI PUSH2 0x1D72 PUSH2 0x1C57 JUMP JUMPDEST JUMPDEST DUP2 CALLDATALOAD PUSH2 0x1D83 DUP5 DUP3 PUSH1 0x20 DUP7 ADD PUSH2 0x1D1C JUMP JUMPDEST SWAP2 POP POP SWAP3 SWAP2 POP POP JUMP JUMPDEST PUSH1 0x0 PUSH1 0x20 DUP3 DUP5 SUB SLT ISZERO PUSH2 0x1DA2 JUMPI PUSH2 0x1DA1 PUSH2 0x1879 JUMP JUMPDEST JUMPDEST PUSH1 0x0 DUP3 ADD CALLDATALOAD PUSH8 0xFFFFFFFFFFFFFFFF DUP2 GT ISZERO PUSH2 0x1DC0 JUMPI PUSH2 0x1DBF PUSH2 0x187E JUMP JUMPDEST JUMPDEST PUSH2 0x1DCC DUP5 DUP3 DUP6 ADD PUSH2 0x1D5E JUMP JUMPDEST SWAP2 POP POP SWAP3 SWAP2 POP POP JUMP JUMPDEST PUSH32 0x4E487B7100000000000000000000000000000000000000000000000000000000 PUSH1 0x0 MSTORE PUSH1 0x22 PUSH1 0x4 MSTORE PUSH1 0x24 PUSH1 0x0 REVERT JUMPDEST PUSH1 0x0 PUSH1 0x2 DUP3 DIV SWAP1 POP PUSH1 0x1 DUP3 AND DUP1 PUSH2 0x1E1C JUMPI PUSH1 0x7F DUP3 AND SWAP2 POP JUMPDEST PUSH1 0x20 DUP3 LT DUP2 SUB PUSH2 0x1E2F JUMPI PUSH2 0x1E2E PUSH2 0x1DD5 JUMP JUMPDEST JUMPDEST POP SWAP2 SWAP1 POP JUMP JUMPDEST PUSH32 0x537562736372697074696F6E20646F6573206E6F742065786973740000000000 PUSH1 0x0 DUP3 ADD MSTORE POP JUMP JUMPDEST PUSH1 0x0 PUSH2 0x1E6B PUSH1 0x1B DUP4 PUSH2 0x17C8 JUMP JUMPDEST SWAP2 POP PUSH2 0x1E76 DUP3 PUSH2 0x1E35 JUMP JUMPDEST PUSH1 0x20 DUP3 ADD SWAP1 POP SWAP2 SWAP1 POP JUMP JUMPDEST PUSH1 0x0 PUSH1 0x20 DUP3 ADD SWAP1 POP DUP2 DUP2 SUB PUSH1 0x0 DUP4 ADD MSTORE PUSH2 0x1E9A DUP2 PUSH2 0x1E5E JUMP JUMPDEST SWAP1 POP SWAP2 SWAP1 POP JUMP JUMPDEST PUSH32 0x43616C6C6572206973206E6F7420746865207375627363726962657200000000 PUSH1 0x0 DUP3 ADD MSTORE POP JUMP JUMPDEST PUSH1 0x0 PUSH2 0x1ED7 PUSH1 0x1C DUP4 PUSH2 0x17C8 JUMP JUMPDEST SWAP2 POP PUSH2 0x1EE2 DUP3 PUSH2 0x1EA1 JUMP JUMPDEST PUSH1 0x20 DUP3 ADD SWAP1 POP SWAP2 SWAP1 POP JUMP JUMPDEST PUSH1 0x0 PUSH1 0x20 DUP3 ADD SWAP1 POP DUP2 DUP2 SUB PUSH1 0x0 DUP4 ADD MSTORE PUSH2 0x1F06 DUP2 PUSH2 0x1ECA JUMP JUMPDEST SWAP1 POP SWAP2 SWAP1 POP JUMP JUMPDEST PUSH32 0x53657276696365206973206E6F74206163746976650000000000000000000000 PUSH1 0x0 DUP3 ADD MSTORE POP JUMP JUMPDEST PUSH1 0x0 PUSH2 0x1F43 PUSH1 0x15 DUP4 PUSH2 0x17C8 JUMP JUMPDEST SWAP2 POP PUSH2 0x1F4E DUP3 PUSH2 0x1F0D JUMP JUMPDEST PUSH1 0x20 DUP3 ADD SWAP1 POP SWAP2 SWAP1 POP JUMP JUMPDEST PUSH1 0x0 PUSH1 0x20 DUP3 ADD SWAP1 POP DUP2 DUP2 SUB PUSH1 0x0 DUP4 ADD MSTORE PUSH2 0x1F72 DUP2 PUSH2 0x1F36 JUMP JUMPDEST SWAP1 POP SWAP2 SWAP1 POP JUMP JUMPDEST PUSH32 0x4E487B7100000000000000000000000000000000000000000000000000000000 PUSH1 0x0 MSTORE PUSH1 0x11 PUSH1 0x4 MSTORE PUSH1 0x24 PUSH1 0x0 REVERT JUMPDEST PUSH1 0x0 PUSH2 0x1FB3 DUP3 PUSH2 0x1883 JUMP JUMPDEST SWAP2 POP PUSH2 0x1FBE DUP4 PUSH2 0x1883 JUMP JUMPDEST SWAP3 POP DUP3 DUP3 MUL PUSH2 0x1FCC DUP2 PUSH2 0x1883 JUMP JUMPDEST SWAP2 POP DUP3 DUP3 DIV DUP5 EQ DUP4 ISZERO OR PUSH2 0x1FE3 JUMPI PUSH2 0x1FE2 PUSH2 0x1F79 JUMP JUMPDEST JUMPDEST POP SWAP3 SWAP2 POP POP JUMP JUMPDEST PUSH32 0x4F6E6C79206F776E657220697320616C6C6F7765640000000000000000000000 PUSH1 0x0 DUP3 ADD MSTORE POP JUMP JUMPDEST PUSH1 0x0 PUSH2 0x2020 PUSH1 0x15 DUP4 PUSH2 0x17C8 JUMP JUMPDEST SWAP2 POP PUSH2 0x202B DUP3 PUSH2 0x1FEA JUMP JUMPDEST PUSH1 0x20 DUP3 ADD SWAP1 POP SWAP2 SWAP1 POP JUMP JUMPDEST PUSH1 0x0 PUSH1 0x20 DUP3 ADD SWAP1 POP DUP2 DUP2 SUB PUSH1 0x0 DUP4 ADD MSTORE PUSH2 0x204F DUP2 PUSH2 0x2013 JUMP JUMPDEST SWAP1 POP SWAP2 SWAP1 POP JUMP JUMPDEST PUSH32 0x5375627363726962657220616C72656164792068617320616E20616374697665 PUSH1 0x0 DUP3 ADD MSTORE PUSH32 0x20737562736372697074696F6E00000000000000000000000000000000000000 PUSH1 0x20 DUP3 ADD MSTORE POP JUMP JUMPDEST PUSH1 0x0 PUSH2 0x20B2 PUSH1 0x2D DUP4 PUSH2 0x17C8 JUMP JUMPDEST SWAP2 POP PUSH2 0x20BD DUP3 PUSH2 0x2056 JUMP JUMPDEST PUSH1 0x40 DUP3 ADD SWAP1 POP SWAP2 SWAP1 POP JUMP JUMPDEST PUSH1 0x0 PUSH1 0x20 DUP3 ADD SWAP1 POP DUP2 DUP2 SUB PUSH1 0x0 DUP4 ADD MSTORE PUSH2 0x20E1 DUP2 PUSH2 0x20A5 JUMP JUMPDEST SWAP1 POP SWAP2 SWAP1 POP JUMP JUMPDEST PUSH1 0x0 PUSH2 0x20F3 DUP3 PUSH2 0x1883 JUMP JUMPDEST SWAP2 POP PUSH32 0xFFFFFFFFFFFFFFFFFFFFFFFFFFFFFFFFFFFFFFFFFFFFFFFFFFFFFFFFFFFFFFFF DUP3 SUB PUSH2 0x2125 JUMPI PUSH2 0x2124 PUSH2 0x1F79 JUMP JUMPDEST JUMPDEST PUSH1 0x1 DUP3 ADD SWAP1 POP SWAP2 SWAP1 POP JUMP JUMPDEST PUSH32 0x56616C7565206D7573742062652067726561746572207468616E207A65726F00 PUSH1 0x0 DUP3 ADD MSTORE POP JUMP JUMPDEST PUSH1 0x0 PUSH2 0x2166 PUSH1 0x1F DUP4 PUSH2 0x17C8 JUMP JUMPDEST SWAP2 POP PUSH2 0x2171 DUP3 PUSH2 0x2130 JUMP JUMPDEST PUSH1 0x20 DUP3 ADD SWAP1 POP SWAP2 SWAP1 POP JUMP JUMPDEST PUSH1 0x0 PUSH1 0x20 DUP3 ADD SWAP1 POP DUP2 DUP2 SUB PUSH1 0x0 DUP4 ADD MSTORE PUSH2 0x2195 DUP2 PUSH2 0x2159 JUMP JUMPDEST SWAP1 POP SWAP2 SWAP1 POP JUMP JUMPDEST PUSH1 0x0 PUSH2 0x21A7 DUP3 PUSH2 0x1883 JUMP JUMPDEST SWAP2 POP PUSH2 0x21B2 DUP4 PUSH2 0x1883 JUMP JUMPDEST SWAP3 POP DUP3 DUP3 ADD SWAP1 POP DUP1 DUP3 GT ISZERO PUSH2 0x21CA JUMPI PUSH2 0x21C9 PUSH2 0x1F79 JUMP JUMPDEST JUMPDEST SWAP3 SWAP2 POP POP JUMP JUMPDEST PUSH32 0x4E487B7100000000000000000000000000000000000000000000000000000000 PUSH1 0x0 MSTORE PUSH1 0x32 PUSH1 0x4 MSTORE PUSH1 0x24 PUSH1 0x0 REVERT JUMPDEST PUSH32 0x496E76616C696420616D6F756E74000000000000000000000000000000000000 PUSH1 0x0 DUP3 ADD MSTORE POP JUMP JUMPDEST PUSH1 0x0 PUSH2 0x2235 PUSH1 0xE DUP4 PUSH2 0x17C8 JUMP JUMPDEST SWAP2 POP PUSH2 0x2240 DUP3 PUSH2 0x21FF JUMP JUMPDEST PUSH1 0x20 DUP3 ADD SWAP1 POP SWAP2 SWAP1 POP JUMP JUMPDEST PUSH1 0x0 PUSH1 0x20 DUP3 ADD SWAP1 POP DUP2 DUP2 SUB PUSH1 0x0 DUP4 ADD MSTORE PUSH2 0x2264 DUP2 PUSH2 0x2228 JUMP JUMPDEST SWAP1 POP SWAP2 SWAP1 POP JUMP JUMPDEST PUSH1 0x0 DUP2 SWAP1 POP DUP2 PUSH1 0x0 MSTORE PUSH1 0x20 PUSH1 0x0 KECCAK256 SWAP1 POP SWAP2 SWAP1 POP JUMP JUMPDEST PUSH1 0x0 PUSH1 0x20 PUSH1 0x1F DUP4 ADD DIV SWAP1 POP SWAP2 SWAP1 POP JUMP JUMPDEST PUSH1 0x0 DUP3 DUP3 SHL SWAP1 POP SWAP3 SWAP2 POP POP JUMP JUMPDEST PUSH1 0x0 PUSH1 0x8 DUP4 MUL PUSH2 0x22CD PUSH32 0xFFFFFFFFFFFFFFFFFFFFFFFFFFFFFFFFFFFFFFFFFFFFFFFFFFFFFFFFFFFFFFFF DUP3 PUSH2 0x2290 JUMP JUMPDEST PUSH2 0x22D7 DUP7 DUP4 PUSH2 0x2290 JUMP JUMPDEST SWAP6 POP DUP1 NOT DUP5 AND SWAP4 POP DUP1 DUP7 AND DUP5 OR SWAP3 POP POP POP SWAP4 SWAP3 POP POP POP JUMP JUMPDEST PUSH1 0x0 DUP2 SWAP1 POP SWAP2 SWAP1 POP JUMP JUMPDEST PUSH1 0x0 PUSH2 0x2314 PUSH2 0x230F PUSH2 0x230A DUP5 PUSH2 0x1883 JUMP JUMPDEST PUSH2 0x22EF JUMP JUMPDEST PUSH2 0x1883 JUMP JUMPDEST SWAP1 POP SWAP2 SWAP1 POP JUMP JUMPDEST PUSH1 0x0 DUP2 SWAP1 POP SWAP2 SWAP1 POP JUMP JUMPDEST PUSH2 0x232E DUP4 PUSH2 0x22F9 JUMP JUMPDEST PUSH2 0x2342 PUSH2 0x233A DUP3 PUSH2 0x231B JUMP JUMPDEST DUP5 DUP5 SLOAD PUSH2 0x229D JUMP JUMPDEST DUP3 SSTORE POP POP POP POP JUMP JUMPDEST PUSH1 0x0 SWAP1 JUMP JUMPDEST PUSH2 0x2357 PUSH2 0x234A JUMP JUMPDEST PUSH2 0x2362 DUP2 DUP5 DUP5 PUSH2 0x2325 JUMP JUMPDEST POP POP POP JUMP JUMPDEST JUMPDEST DUP2 DUP2 LT ISZERO PUSH2 0x2386 JUMPI PUSH2 0x237B PUSH1 0x0 DUP3 PUSH2 0x234F JUMP JUMPDEST PUSH1 0x1 DUP2 ADD SWAP1 POP PUSH2 0x2368 JUMP JUMPDEST POP POP JUMP JUMPDEST PUSH1 0x1F DUP3 GT ISZERO PUSH2 0x23CB JUMPI PUSH2 0x239C DUP2 PUSH2 0x226B JUMP JUMPDEST PUSH2 0x23A5 DUP5 PUSH2 0x2280 JUMP JUMPDEST DUP2 ADD PUSH1 0x20 DUP6 LT ISZERO PUSH2 0x23B4 JUMPI DUP2 SWAP1 POP JUMPDEST PUSH2 0x23C8 PUSH2 0x23C0 DUP6 PUSH2 0x2280 JUMP JUMPDEST DUP4 ADD DUP3 PUSH2 0x2367 JUMP JUMPDEST POP POP JUMPDEST POP POP POP JUMP JUMPDEST PUSH1 0x0 DUP3 DUP3 SHR SWAP1 POP SWAP3 SWAP2 POP POP JUMP JUMPDEST PUSH1 0x0 PUSH2 0x23EE PUSH1 0x0 NOT DUP5 PUSH1 0x8 MUL PUSH2 0x23D0 JUMP JUMPDEST NOT DUP1 DUP4 AND SWAP2 POP POP SWAP3 SWAP2 POP POP JUMP JUMPDEST PUSH1 0x0 PUSH2 0x2407 DUP4 DUP4 PUSH2 0x23DD JUMP JUMPDEST SWAP2 POP DUP3 PUSH1 0x2 MUL DUP3 OR SWAP1 POP SWAP3 SWAP2 POP POP JUMP JUMPDEST PUSH2 0x2420 DUP3 PUSH2 0x17BD JUMP JUMPDEST PUSH8 0xFFFFFFFFFFFFFFFF DUP2 GT ISZERO PUSH2 0x2439 JUMPI PUSH2 0x2438 PUSH2 0x1C61 JUMP JUMPDEST JUMPDEST PUSH2 0x2443 DUP3 SLOAD PUSH2 0x1E04 JUMP JUMPDEST PUSH2 0x244E DUP3 DUP3 DUP6 PUSH2 0x238A JUMP JUMPDEST PUSH1 0x0 PUSH1 0x20 SWAP1 POP PUSH1 0x1F DUP4 GT PUSH1 0x1 DUP2 EQ PUSH2 0x2481 JUMPI PUSH1 0x0 DUP5 ISZERO PUSH2 0x246F JUMPI DUP3 DUP8 ADD MLOAD SWAP1 POP JUMPDEST PUSH2 0x2479 DUP6 DUP3 PUSH2 0x23FB JUMP JUMPDEST DUP7 SSTORE POP PUSH2 0x24E1 JUMP JUMPDEST PUSH1 0x1F NOT DUP5 AND PUSH2 0x248F DUP7 PUSH2 0x226B JUMP JUMPDEST PUSH1 0x0 JUMPDEST DUP3 DUP2 LT ISZERO PUSH2 0x24B7 JUMPI DUP5 DUP10 ADD MLOAD DUP3 SSTORE PUSH1 0x1 DUP3 ADD SWAP2 POP PUSH1 0x20 DUP6 ADD SWAP5 POP PUSH1 0x20 DUP2 ADD SWAP1 POP PUSH2 0x2492 JUMP JUMPDEST DUP7 DUP4 LT ISZERO PUSH2 0x24D4 JUMPI DUP5 DUP10 ADD MLOAD PUSH2 0x24D0 PUSH1 0x1F DUP10 AND DUP3 PUSH2 0x23DD JUMP JUMPDEST DUP4 SSTORE POP JUMPDEST PUSH1 0x1 PUSH1 0x2 DUP9 MUL ADD DUP9 SSTORE POP POP POP JUMPDEST POP POP POP POP POP POP JUMP INVALID LOG2 PUSH5 0x6970667358 0x22 SLT KECCAK256 LOG4 NUMBER PUSH4 0x63195F22 SWAP14 MSIZE 0xD2 SELFBALANCE 0xC PUSH5 0xEEF2F9C0B2 0xE5 KECCAK256 SWAP1 0x1F PUSH28 0x9BFD35C06007625D9D64736F6C63430008140033A264697066735822 SLT KECCAK256 0xF6 DUP7 SMOD BLOCKHASH GT DUP1 CALLDATACOPY DUP16 0xBA SWAP1 0xE5 0xF 0xC9 0xE7 SDIV 0xB5 DUP10 TIMESTAMP 0x4E 0xE0 0xA5 RETURNDATASIZE PUSH9 0xCEB895B2FFE6D2C4AA PUSH5 0x736F6C6343 STOP ADDMOD EQ STOP CALLER "},"methodIdentifiers":{"createService(string,string)":"6a5e1f92","deactivateService(string)":"956a9e15","getServicesAddresses()":"bd5ec58f","services(uint256)":"c22c4f43","updateService(string,string)":"718b57dc"}}}}}