{"contracts/ServiceFactory.sol":{"ServiceFactory":{"abi":[{"inputs":[],"stateMutability":"nonpayable","type":"constructor"},{"anonymous":false,"inputs":[{"indexed":false,"internalType":"address","name":"serviceAddress","type":"address"}],"name":"ServiceCreated","type":"event"},{"anonymous":false,"inputs":[{"indexed":false,"internalType":"address","name":"serviceAddress","type":"address"}],"name":"ServiceDeactivated","type":"event"},{"anonymous":false,"inputs":[{"indexed":false,"internalType":"address","name":"serviceAddress","type":"address"}],"name":"ServiceUpdated","type":"event"},{"inputs":[{"internalType":"string","name":"_servicename","type":"string"},{"internalType":"string","name":"_servicedescription","type":"string"}],"name":"createService","outputs":[],"stateMutability":"nonpayable","type":"function"},{"inputs":[{"internalType":"address","name":"_serviceaddress","type":"address"}],"name":"deactivateService","outputs":[],"stateMutability":"nonpayable","type":"function"},{"inputs":[],"name":"getServicesAddresses","outputs":[{"internalType":"address[]","name":"","type":"address[]"}],"stateMutability":"view","type":"function"},{"inputs":[{"internalType":"uint256","name":"","type":"uint256"}],"name":"services","outputs":[{"internalType":"contract Service","name":"","type":"address"}],"stateMutability":"view","type":"function"},{"inputs":[{"internalType":"address","name":"_serviceaddress","type":"address"},{"internalType":"string","name":"_newname","type":"string"},{"internalType":"string","name":"_newdescription","type":"string"}],"name":"updateService","outputs":[],"stateMutability":"nonpayable","type":"function"}],"evm":{"bytecode":{"linkReferences":{},"object":"608060405234801561001057600080fd5b5061448b806100206000396000f3fe60806040523480156200001157600080fd5b50600436106200005e5760003560e01c80636a5e1f92146200006357806371edce7c1462000083578063b35b764914620000a3578063bd5ec58f14620000c3578063c22c4f4314620000e5575b600080fd5b6200008160048036038101906200007b91906200135a565b6200011b565b005b620000a160048036038101906200009b919062001444565b620001fd565b005b620000c16004803603810190620000bb919062001476565b620008e5565b005b620000cd6200107e565b604051620000dc9190620015de565b60405180910390f35b620001036004803603810190620000fd91906200163d565b62001196565b604051620001129190620016da565b60405180910390f35b60003383836040516200012e90620011d6565b6200013c9392919062001791565b604051809103906000f08015801562000159573d6000803e3d6000fd5b5090506000819080600181540180825580915050600190039060005260206000200160009091909190916101000a81548173ffffffffffffffffffffffffffffffffffffffff021916908373ffffffffffffffffffffffffffffffffffffffff1602179055507fae046aa848296872ccdf284df55df8650f0cf3addb0f62eb26d9a10112c7445081604051620001f09190620017dc565b60405180910390a1505050565b806000805b600080549050811015620003c8578273ffffffffffffffffffffffffffffffffffffffff16600082815481106200023e576200023d620017f9565b5b9060005260206000200160009054906101000a900473ffffffffffffffffffffffffffffffffffffffff1673ffffffffffffffffffffffffffffffffffffffff1603620003b257600081815481106200029c576200029b620017f9565b5b9060005260206000200160009054906101000a900473ffffffffffffffffffffffffffffffffffffffff1673ffffffffffffffffffffffffffffffffffffffff1663893d20e86040518163ffffffff1660e01b8152600401602060405180830381865afa15801562000312573d6000803e3d6000fd5b505050506040513d601f19601f820116820180604052508101906200033891906200183f565b73ffffffffffffffffffffffffffffffffffffffff163373ffffffffffffffffffffffffffffffffffffffff1614620003a8576040517f08c379a00000000000000000000000000000000000000000000000000000000081526004016200039f90620018e7565b60405180910390fd5b60019150620003c8565b8080620003bf9062001938565b91505062000202565b50806200040c576040517f08c379a00000000000000000000000000000000000000000000000000000000081526004016200040390620019d5565b60405180910390fd5b826000805b600080549050811015620005a9578273ffffffffffffffffffffffffffffffffffffffff16600082815481106200044d576200044c620017f9565b5b9060005260206000200160009054906101000a900473ffffffffffffffffffffffffffffffffffffffff1673ffffffffffffffffffffffffffffffffffffffff1603620005935760008181548110620004ab57620004aa620017f9565b5b9060005260206000200160009054906101000a900473ffffffffffffffffffffffffffffffffffffffff1673ffffffffffffffffffffffffffffffffffffffff166322f3e2d46040518163ffffffff1660e01b8152600401602060405180830381865afa15801562000521573d6000803e3d6000fd5b505050506040513d601f19601f8201168201806040525081019062000547919062001a34565b62000589576040517f08c379a0000000000000000000000000000000000000000000000000000000008152600401620005809062001ab6565b60405180910390fd5b60019150620005a9565b8080620005a09062001938565b91505062000411565b5080620005ed576040517f08c379a0000000000000000000000000000000000000000000000000000000008152600401620005e490620019d5565b60405180910390fd5b60005b600080549050811015620008dd578573ffffffffffffffffffffffffffffffffffffffff16600082815481106200062c576200062b620017f9565b5b9060005260206000200160009054906101000a900473ffffffffffffffffffffffffffffffffffffffff1673ffffffffffffffffffffffffffffffffffffffff1603620008c757600081815481106200068a5762000689620017f9565b5b9060005260206000200160009054906101000a900473ffffffffffffffffffffffffffffffffffffffff1673ffffffffffffffffffffffffffffffffffffffff1663893d20e86040518163ffffffff1660e01b8152600401602060405180830381865afa15801562000700573d6000803e3d6000fd5b505050506040513d601f19601f820116820180604052508101906200072691906200183f565b73ffffffffffffffffffffffffffffffffffffffff163373ffffffffffffffffffffffffffffffffffffffff161462000796576040517f08c379a00000000000000000000000000000000000000000000000000000000081526004016200078d90620018e7565b60405180910390fd5b60008181548110620007ad57620007ac620017f9565b5b9060005260206000200160009054906101000a900473ffffffffffffffffffffffffffffffffffffffff1673ffffffffffffffffffffffffffffffffffffffff16632750fc7860006040518263ffffffff1660e01b815260040162000813919062001ae9565b600060405180830381600087803b1580156200082e57600080fd5b505af115801562000843573d6000803e3d6000fd5b505050507f86d6aa2827e28270c1635780e8a17d61c38028e75531a0a25c5004862521289d600082815481106200087f576200087e620017f9565b5b9060005260206000200160009054906101000a900473ffffffffffffffffffffffffffffffffffffffff16604051620008b99190620017dc565b60405180910390a1620008dd565b8080620008d49062001938565b915050620005f0565b505050505050565b826000805b60008054905081101562000ab0578273ffffffffffffffffffffffffffffffffffffffff1660008281548110620009265762000925620017f9565b5b9060005260206000200160009054906101000a900473ffffffffffffffffffffffffffffffffffffffff1673ffffffffffffffffffffffffffffffffffffffff160362000a9a5760008181548110620009845762000983620017f9565b5b9060005260206000200160009054906101000a900473ffffffffffffffffffffffffffffffffffffffff1673ffffffffffffffffffffffffffffffffffffffff1663893d20e86040518163ffffffff1660e01b8152600401602060405180830381865afa158015620009fa573d6000803e3d6000fd5b505050506040513d601f19601f8201168201806040525081019062000a2091906200183f565b73ffffffffffffffffffffffffffffffffffffffff163373ffffffffffffffffffffffffffffffffffffffff161462000a90576040517f08c379a000000000000000000000000000000000000000000000000000000000815260040162000a8790620018e7565b60405180910390fd5b6001915062000ab0565b808062000aa79062001938565b915050620008ea565b508062000af4576040517f08c379a000000000000000000000000000000000000000000000000000000000815260040162000aeb90620019d5565b60405180910390fd5b846000805b60008054905081101562000c91578273ffffffffffffffffffffffffffffffffffffffff166000828154811062000b355762000b34620017f9565b5b9060005260206000200160009054906101000a900473ffffffffffffffffffffffffffffffffffffffff1673ffffffffffffffffffffffffffffffffffffffff160362000c7b576000818154811062000b935762000b92620017f9565b5b9060005260206000200160009054906101000a900473ffffffffffffffffffffffffffffffffffffffff1673ffffffffffffffffffffffffffffffffffffffff166322f3e2d46040518163ffffffff1660e01b8152600401602060405180830381865afa15801562000c09573d6000803e3d6000fd5b505050506040513d601f19601f8201168201806040525081019062000c2f919062001a34565b62000c71576040517f08c379a000000000000000000000000000000000000000000000000000000000815260040162000c689062001ab6565b60405180910390fd5b6001915062000c91565b808062000c889062001938565b91505062000af9565b508062000cd5576040517f08c379a000000000000000000000000000000000000000000000000000000000815260040162000ccc90620019d5565b60405180910390fd5b60005b60008054905081101562001074578773ffffffffffffffffffffffffffffffffffffffff166000828154811062000d145762000d13620017f9565b5b9060005260206000200160009054906101000a900473ffffffffffffffffffffffffffffffffffffffff1673ffffffffffffffffffffffffffffffffffffffff16036200105e576000818154811062000d725762000d71620017f9565b5b9060005260206000200160009054906101000a900473ffffffffffffffffffffffffffffffffffffffff1673ffffffffffffffffffffffffffffffffffffffff1663893d20e86040518163ffffffff1660e01b8152600401602060405180830381865afa15801562000de8573d6000803e3d6000fd5b505050506040513d601f19601f8201168201806040525081019062000e0e91906200183f565b73ffffffffffffffffffffffffffffffffffffffff163373ffffffffffffffffffffffffffffffffffffffff161462000e7e576040517f08c379a000000000000000000000000000000000000000000000000000000000815260040162000e7590620018e7565b60405180910390fd5b6000818154811062000e955762000e94620017f9565b5b9060005260206000200160009054906101000a900473ffffffffffffffffffffffffffffffffffffffff1673ffffffffffffffffffffffffffffffffffffffff1663c47f0027886040518263ffffffff1660e01b815260040162000efa919062001b06565b600060405180830381600087803b15801562000f1557600080fd5b505af115801562000f2a573d6000803e3d6000fd5b505050506000818154811062000f455762000f44620017f9565b5b9060005260206000200160009054906101000a900473ffffffffffffffffffffffffffffffffffffffff1673ffffffffffffffffffffffffffffffffffffffff166390c3f38f876040518263ffffffff1660e01b815260040162000faa919062001b06565b600060405180830381600087803b15801562000fc557600080fd5b505af115801562000fda573d6000803e3d6000fd5b505050507f0176c74b9bca78214099248dd4e675a4be45c1f7417e269f78ef97e96ece2a5160008281548110620010165762001015620017f9565b5b9060005260206000200160009054906101000a900473ffffffffffffffffffffffffffffffffffffffff16604051620010509190620017dc565b60405180910390a162001074565b80806200106b9062001938565b91505062000cd8565b5050505050505050565b60606000808054905067ffffffffffffffff811115620010a357620010a262001213565b5b604051908082528060200260200182016040528015620010d25781602001602082028036833780820191505090505b50905060005b6000805490508110156200118e5760008181548110620010fd57620010fc620017f9565b5b9060005260206000200160009054906101000a900473ffffffffffffffffffffffffffffffffffffffff168282815181106200113e576200113d620017f9565b5b602002602001019073ffffffffffffffffffffffffffffffffffffffff16908173ffffffffffffffffffffffffffffffffffffffff16815250508080620011859062001938565b915050620010d8565b508091505090565b60008181548110620011a757600080fd5b906000526020600020016000915054906101000a900473ffffffffffffffffffffffffffffffffffffffff1681565b61292b8062001b2b83390190565b6000604051905090565b600080fd5b600080fd5b600080fd5b600080fd5b6000601f19601f8301169050919050565b7f4e487b7100000000000000000000000000000000000000000000000000000000600052604160045260246000fd5b6200124d8262001202565b810181811067ffffffffffffffff821117156200126f576200126e62001213565b5b80604052505050565b600062001284620011e4565b905062001292828262001242565b919050565b600067ffffffffffffffff821115620012b557620012b462001213565b5b620012c08262001202565b9050602081019050919050565b82818337600083830152505050565b6000620012f3620012ed8462001297565b62001278565b905082815260208101848484011115620013125762001311620011fd565b5b6200131f848285620012cd565b509392505050565b600082601f8301126200133f576200133e620011f8565b5b813562001351848260208601620012dc565b91505092915050565b60008060408385031215620013745762001373620011ee565b5b600083013567ffffffffffffffff811115620013955762001394620011f3565b5b620013a38582860162001327565b925050602083013567ffffffffffffffff811115620013c757620013c6620011f3565b5b620013d58582860162001327565b9150509250929050565b600073ffffffffffffffffffffffffffffffffffffffff82169050919050565b60006200140c82620013df565b9050919050565b6200141e81620013ff565b81146200142a57600080fd5b50565b6000813590506200143e8162001413565b92915050565b6000602082840312156200145d576200145c620011ee565b5b60006200146d848285016200142d565b91505092915050565b600080600060608486031215620014925762001491620011ee565b5b6000620014a2868287016200142d565b935050602084013567ffffffffffffffff811115620014c657620014c5620011f3565b5b620014d48682870162001327565b925050604084013567ffffffffffffffff811115620014f857620014f7620011f3565b5b620015068682870162001327565b9150509250925092565b600081519050919050565b600082825260208201905092915050565b6000819050602082019050919050565b6200154781620013ff565b82525050565b60006200155b83836200153c565b60208301905092915050565b6000602082019050919050565b6000620015818262001510565b6200158d81856200151b565b93506200159a836200152c565b8060005b83811015620015d1578151620015b588826200154d565b9750620015c28362001567565b9250506001810190506200159e565b5085935050505092915050565b60006020820190508181036000830152620015fa818462001574565b905092915050565b6000819050919050565b620016178162001602565b81146200162357600080fd5b50565b60008135905062001637816200160c565b92915050565b600060208284031215620016565762001655620011ee565b5b6000620016668482850162001626565b91505092915050565b6000819050919050565b60006200169a620016946200168e84620013df565b6200166f565b620013df565b9050919050565b6000620016ae8262001679565b9050919050565b6000620016c282620016a1565b9050919050565b620016d481620016b5565b82525050565b6000602082019050620016f16000830184620016c9565b92915050565b6200170281620013ff565b82525050565b600081519050919050565b600082825260208201905092915050565b60005b838110156200174457808201518184015260208101905062001727565b60008484015250505050565b60006200175d8262001708565b62001769818562001713565b93506200177b81856020860162001724565b620017868162001202565b840191505092915050565b6000606082019050620017a86000830186620016f7565b8181036020830152620017bc818562001750565b90508181036040830152620017d2818462001750565b9050949350505050565b6000602082019050620017f36000830184620016f7565b92915050565b7f4e487b7100000000000000000000000000000000000000000000000000000000600052603260045260246000fd5b600081519050620018398162001413565b92915050565b600060208284031215620018585762001857620011ee565b5b6000620018688482850162001828565b91505092915050565b7f4f6e6c79207468652073656c6c65722074686174206f776e732074686520736560008201527f72766963652063616e2063616c6c20746869732066756e6374696f6e00000000602082015250565b6000620018cf603c8362001713565b9150620018dc8262001871565b604082019050919050565b600060208201905081810360008301526200190281620018c0565b9050919050565b7f4e487b7100000000000000000000000000000000000000000000000000000000600052601160045260246000fd5b6000620019458262001602565b91507fffffffffffffffffffffffffffffffffffffffffffffffffffffffffffffffff82036200197a576200197962001909565b5b600182019050919050565b7f53657276696365206e6f7420666f756e64000000000000000000000000000000600082015250565b6000620019bd60118362001713565b9150620019ca8262001985565b602082019050919050565b60006020820190508181036000830152620019f081620019ae565b9050919050565b60008115159050919050565b62001a0e81620019f7565b811462001a1a57600080fd5b50565b60008151905062001a2e8162001a03565b92915050565b60006020828403121562001a4d5762001a4c620011ee565b5b600062001a5d8482850162001a1d565b91505092915050565b7f53657276696365206973206e6f74206163746976650000000000000000000000600082015250565b600062001a9e60158362001713565b915062001aab8262001a66565b602082019050919050565b6000602082019050818103600083015262001ad18162001a8f565b9050919050565b62001ae381620019f7565b82525050565b600060208201905062001b00600083018462001ad8565b92915050565b6000602082019050818103600083015262001b22818462001750565b90509291505056fe60a06040526001600260006101000a81548160ff02191690831515021790555060006003553480156200003157600080fd5b506040516200292b3803806200292b8339818101604052810190620000579190620002b0565b8273ffffffffffffffffffffffffffffffffffffffff1660808173ffffffffffffffffffffffffffffffffffffffff168152505081600090816200009c919062000595565b508060019081620000ae919062000595565b505050506200067c565b6000604051905090565b600080fd5b600080fd5b600073ffffffffffffffffffffffffffffffffffffffff82169050919050565b6000620000f982620000cc565b9050919050565b6200010b81620000ec565b81146200011757600080fd5b50565b6000815190506200012b8162000100565b92915050565b600080fd5b600080fd5b6000601f19601f8301169050919050565b7f4e487b7100000000000000000000000000000000000000000000000000000000600052604160045260246000fd5b62000186826200013b565b810181811067ffffffffffffffff82111715620001a857620001a76200014c565b5b80604052505050565b6000620001bd620000b8565b9050620001cb82826200017b565b919050565b600067ffffffffffffffff821115620001ee57620001ed6200014c565b5b620001f9826200013b565b9050602081019050919050565b60005b838110156200022657808201518184015260208101905062000209565b60008484015250505050565b6000620002496200024384620001d0565b620001b1565b90508281526020810184848401111562000268576200026762000136565b5b6200027584828562000206565b509392505050565b600082601f83011262000295576200029462000131565b5b8151620002a784826020860162000232565b91505092915050565b600080600060608486031215620002cc57620002cb620000c2565b5b6000620002dc868287016200011a565b935050602084015167ffffffffffffffff8111156200030057620002ff620000c7565b5b6200030e868287016200027d565b925050604084015167ffffffffffffffff811115620003325762000331620000c7565b5b62000340868287016200027d565b9150509250925092565b600081519050919050565b7f4e487b7100000000000000000000000000000000000000000000000000000000600052602260045260246000fd5b600060028204905060018216806200039d57607f821691505b602082108103620003b357620003b262000355565b5b50919050565b60008190508160005260206000209050919050565b60006020601f8301049050919050565b600082821b905092915050565b6000600883026200041d7fffffffffffffffffffffffffffffffffffffffffffffffffffffffffffffffff82620003de565b620004298683620003de565b95508019841693508086168417925050509392505050565b6000819050919050565b6000819050919050565b600062000476620004706200046a8462000441565b6200044b565b62000441565b9050919050565b6000819050919050565b620004928362000455565b620004aa620004a1826200047d565b848454620003eb565b825550505050565b600090565b620004c1620004b2565b620004ce81848462000487565b505050565b5b81811015620004f657620004ea600082620004b7565b600181019050620004d4565b5050565b601f82111562000545576200050f81620003b9565b6200051a84620003ce565b810160208510156200052a578190505b620005426200053985620003ce565b830182620004d3565b50505b505050565b600082821c905092915050565b60006200056a600019846008026200054a565b1980831691505092915050565b600062000585838362000557565b9150826002028217905092915050565b620005a0826200034a565b67ffffffffffffffff811115620005bc57620005bb6200014c565b5b620005c8825462000384565b620005d5828285620004fa565b600060209050601f8311600181146200060d5760008415620005f8578287015190505b62000604858262000577565b86555062000674565b601f1984166200061d86620003b9565b60005b82811015620006475784890151825560018201915060208501945060208101905062000620565b8683101562000667578489015162000663601f89168262000557565b8355505b6001600288020188555050505b505050505050565b608051612285620006a66000396000818161061501528181610fe701526111dc01526122856000f3fe6080604052600436106100e85760003560e01c80633b47a9ac1161008a5780638a2405a8116100595780638a2405a8146102a957806390c3f38f146102d2578063c47f0027146102fb578063fba7cc7914610324576100e8565b80633b47a9ac146102075780637284e416146102375780637ac9b09814610262578063893d20e81461027e576100e8565b806321235083116100c6578063212350831461016e57806322f3e2d4146101975780632750fc78146101c25780633399d389146101eb576100e8565b806306fdde03146100ed57806317d7de7c146101185780631a09254114610143575b600080fd5b3480156100f957600080fd5b5061010261034f565b60405161010f919061161f565b60405180910390f35b34801561012457600080fd5b5061012d6103dd565b60405161013a919061161f565b60405180910390f35b34801561014f57600080fd5b5061015861046f565b604051610165919061161f565b60405180910390f35b34801561017a57600080fd5b506101956004803603810190610190919061168b565b610501565b005b3480156101a357600080fd5b506101ac61074b565b6040516101b991906116d3565b60405180910390f35b3480156101ce57600080fd5b506101e960048036038101906101e4919061171a565b61075e565b005b610205600480360381019061020091906117a5565b61077b565b005b34801561021357600080fd5b5061021c610a8f565b60405161022e96959493929190611974565b60405180910390f35b34801561024357600080fd5b5061024c610e45565b604051610259919061161f565b60405180910390f35b61027c6004803603810190610277919061168b565b610ed3565b005b34801561028a57600080fd5b506102936111d8565b6040516102a09190611a0e565b60405180910390f35b3480156102b557600080fd5b506102d060048036038101906102cb91906117a5565b611200565b005b3480156102de57600080fd5b506102f960048036038101906102f49190611b5e565b6114b4565b005b34801561030757600080fd5b50610322600480360381019061031d9190611b5e565b611516565b005b34801561033057600080fd5b50610339611578565b60405161034691906116d3565b60405180910390f35b6000805461035c90611bd6565b80601f016020809104026020016040519081016040528092919081815260200182805461038890611bd6565b80156103d55780601f106103aa576101008083540402835291602001916103d5565b820191906000526020600020905b8154815290600101906020018083116103b857829003601f168201915b505050505081565b6060600080546103ec90611bd6565b80601f016020809104026020016040519081016040528092919081815260200182805461041890611bd6565b80156104655780601f1061043a57610100808354040283529160200191610465565b820191906000526020600020905b81548152906001019060200180831161044857829003601f168201915b5050505050905090565b60606001805461047e90611bd6565b80601f01602080910402602001604051908101604052809291908181526020018280546104aa90611bd6565b80156104f75780601f106104cc576101008083540402835291602001916104f7565b820191906000526020600020905b8154815290600101906020018083116104da57829003601f168201915b5050505050905090565b80600073ffffffffffffffffffffffffffffffffffffffff166004600083815260200190815260200160002060000160009054906101000a900473ffffffffffffffffffffffffffffffffffffffff1673ffffffffffffffffffffffffffffffffffffffff16036105a7576040517f08c379a000000000000000000000000000000000000000000000000000000000815260040161059e90611c53565b60405180910390fd5b813373ffffffffffffffffffffffffffffffffffffffff166004600083815260200190815260200160002060000160009054906101000a900473ffffffffffffffffffffffffffffffffffffffff1673ffffffffffffffffffffffffffffffffffffffff16148061066357507f000000000000000000000000000000000000000000000000000000000000000073ffffffffffffffffffffffffffffffffffffffff163373ffffffffffffffffffffffffffffffffffffffff16145b6106a2576040517f08c379a000000000000000000000000000000000000000000000000000000000815260040161069990611cbf565b60405180910390fd5b600260009054906101000a900460ff166106f1576040517f08c379a00000000000000000000000000000000000000000000000000000000081526004016106e890611d2b565b60405180910390fd5b6103e8426106ff9190611d7a565b6004600085815260200190815260200160002060050181905550827fbd2bcea75d16a85f005cd83447e0de57341bf926fe7419e6d553663e91ab4da760405160405180910390a2505050565b600260009054906101000a900460ff1681565b80600260006101000a81548160ff02191690831515021790555050565b8260005b60035481101561086f578173ffffffffffffffffffffffffffffffffffffffff166004600083815260200190815260200160002060000160009054906101000a900473ffffffffffffffffffffffffffffffffffffffff1673ffffffffffffffffffffffffffffffffffffffff1614801561081c575060046000828152602001908152602001600020600501546103e84261081a9190611d7a565b105b1561085c576040517f08c379a000000000000000000000000000000000000000000000000000000000815260040161085390611e2e565b60405180910390fd5b808061086790611e4e565b91505061077f565b5082600081116108b4576040517f08c379a00000000000000000000000000000000000000000000000000000000081526004016108ab90611ee2565b60405180910390fd5b600260009054906101000a900460ff16610903576040517f08c379a00000000000000000000000000000000000000000000000000000000081526004016108fa90611d2b565b60405180910390fd5b60006040518060c001604052808773ffffffffffffffffffffffffffffffffffffffff16815260200160035481526020018681526020018581526020016103e84261094e9190611d7a565b81526020016103e862015180876109659190611d7a565b426109709190611f02565b61097a9190611d7a565b81525090508060046000600354815260200190815260200160002060008201518160000160006101000a81548173ffffffffffffffffffffffffffffffffffffffff021916908373ffffffffffffffffffffffffffffffffffffffff1602179055506020820151816001015560408201518160020155606082015181600301556080820151816004015560a082015181600501559050506003547f6a2b70dde6ae0193f84b6a9eeb3b0ebdc3a35e99d9167b88c570158dd09cb0f760405160405180910390a26003547f9040c259954b48f5dfdf60ea91e742403e7552202de9925d509fdd8187b2130b60405160405180910390a260036000815480929190610a8290611e4e565b9190505550505050505050565b606080606080606080600060035467ffffffffffffffff811115610ab657610ab5611a33565b5b604051908082528060200260200182016040528015610ae45781602001602082028036833780820191505090505b509050600060035467ffffffffffffffff811115610b0557610b04611a33565b5b604051908082528060200260200182016040528015610b335781602001602082028036833780820191505090505b509050600060035467ffffffffffffffff811115610b5457610b53611a33565b5b604051908082528060200260200182016040528015610b825781602001602082028036833780820191505090505b509050600060035467ffffffffffffffff811115610ba357610ba2611a33565b5b604051908082528060200260200182016040528015610bd15781602001602082028036833780820191505090505b509050600060035467ffffffffffffffff811115610bf257610bf1611a33565b5b604051908082528060200260200182016040528015610c205781602001602082028036833780820191505090505b509050600060035467ffffffffffffffff811115610c4157610c40611a33565b5b604051908082528060200260200182016040528015610c6f5781602001602082028036833780820191505090505b50905060005b600354811015610e24576004600082815260200190815260200160002060000160009054906101000a900473ffffffffffffffffffffffffffffffffffffffff16878281518110610cc957610cc8611f36565b5b602002602001019073ffffffffffffffffffffffffffffffffffffffff16908173ffffffffffffffffffffffffffffffffffffffff16815250506004600082815260200190815260200160002060010154868281518110610d2d57610d2c611f36565b5b6020026020010181815250506004600082815260200190815260200160002060020154858281518110610d6357610d62611f36565b5b6020026020010181815250506004600082815260200190815260200160002060030154848281518110610d9957610d98611f36565b5b6020026020010181815250506004600082815260200190815260200160002060040154838281518110610dcf57610dce611f36565b5b6020026020010181815250506004600082815260200190815260200160002060050154828281518110610e0557610e04611f36565b5b6020026020010181815250508080610e1c90611e4e565b915050610c75565b508585858585859b509b509b509b509b509b50505050505050909192939495565b60018054610e5290611bd6565b80601f0160208091040260200160405190810160405280929190818152602001828054610e7e90611bd6565b8015610ecb5780601f10610ea057610100808354040283529160200191610ecb565b820191906000526020600020905b815481529060010190602001808311610eae57829003601f168201915b505050505081565b80600073ffffffffffffffffffffffffffffffffffffffff166004600083815260200190815260200160002060000160009054906101000a900473ffffffffffffffffffffffffffffffffffffffff1673ffffffffffffffffffffffffffffffffffffffff1603610f79576040517f08c379a0000000000000000000000000000000000000000000000000000000008152600401610f7090611c53565b60405180910390fd5b813373ffffffffffffffffffffffffffffffffffffffff166004600083815260200190815260200160002060000160009054906101000a900473ffffffffffffffffffffffffffffffffffffffff1673ffffffffffffffffffffffffffffffffffffffff16148061103557507f000000000000000000000000000000000000000000000000000000000000000073ffffffffffffffffffffffffffffffffffffffff163373ffffffffffffffffffffffffffffffffffffffff16145b611074576040517f08c379a000000000000000000000000000000000000000000000000000000000815260040161106b90611cbf565b60405180910390fd5b600260009054906101000a900460ff166110c3576040517f08c379a00000000000000000000000000000000000000000000000000000000081526004016110ba90611d2b565b60405180910390fd5b6000349050600060046000868152602001908152602001600020600201549050808214611125576040517f08c379a000000000000000000000000000000000000000000000000000000000815260040161111c90611fb1565b60405180910390fd5b6103e8426111339190611d7a565b60046000878152602001908152602001600020600401819055506103e86201518060046000888152602001908152602001600020600301546111759190611d7a565b426111809190611f02565b61118a9190611d7a565b6004600087815260200190815260200160002060050181905550847f9040c259954b48f5dfdf60ea91e742403e7552202de9925d509fdd8187b2130b60405160405180910390a25050505050565b60007f0000000000000000000000000000000000000000000000000000000000000000905090565b8260005b6003548110156112f4578173ffffffffffffffffffffffffffffffffffffffff166004600083815260200190815260200160002060000160009054906101000a900473ffffffffffffffffffffffffffffffffffffffff1673ffffffffffffffffffffffffffffffffffffffff161480156112a1575060046000828152602001908152602001600020600501546103e84261129f9190611d7a565b105b156112e1576040517f08c379a00000000000000000000000000000000000000000000000000000000081526004016112d890611e2e565b60405180910390fd5b80806112ec90611e4e565b915050611204565b508260008111611339576040517f08c379a000000000000000000000000000000000000000000000000000000000815260040161133090611ee2565b60405180910390fd5b600260009054906101000a900460ff16611388576040517f08c379a000000000000000000000000000000000000000000000000000000000815260040161137f90611d2b565b60405180910390fd5b60006040518060c001604052808773ffffffffffffffffffffffffffffffffffffffff168152602001600354815260200186815260200185815260200160008152602001600081525090508060046000600354815260200190815260200160002060008201518160000160006101000a81548173ffffffffffffffffffffffffffffffffffffffff021916908373ffffffffffffffffffffffffffffffffffffffff1602179055506020820151816001015560408201518160020155606082015181600301556080820151816004015560a082015181600501559050506003547f6a2b70dde6ae0193f84b6a9eeb3b0ebdc3a35e99d9167b88c570158dd09cb0f760405160405180910390a2600360008154809291906114a790611e4e565b9190505550505050505050565b600260009054906101000a900460ff16611503576040517f08c379a00000000000000000000000000000000000000000000000000000000081526004016114fa90611d2b565b60405180910390fd5b8060019081611512919061217d565b5050565b600260009054906101000a900460ff16611565576040517f08c379a000000000000000000000000000000000000000000000000000000000815260040161155c90611d2b565b60405180910390fd5b8060009081611574919061217d565b5050565b6000600260009054906101000a900460ff16905090565b600081519050919050565b600082825260208201905092915050565b60005b838110156115c95780820151818401526020810190506115ae565b60008484015250505050565b6000601f19601f8301169050919050565b60006115f18261158f565b6115fb818561159a565b935061160b8185602086016115ab565b611614816115d5565b840191505092915050565b6000602082019050818103600083015261163981846115e6565b905092915050565b6000604051905090565b600080fd5b600080fd5b6000819050919050565b61166881611655565b811461167357600080fd5b50565b6000813590506116858161165f565b92915050565b6000602082840312156116a1576116a061164b565b5b60006116af84828501611676565b91505092915050565b60008115159050919050565b6116cd816116b8565b82525050565b60006020820190506116e860008301846116c4565b92915050565b6116f7816116b8565b811461170257600080fd5b50565b600081359050611714816116ee565b92915050565b6000602082840312156117305761172f61164b565b5b600061173e84828501611705565b91505092915050565b600073ffffffffffffffffffffffffffffffffffffffff82169050919050565b600061177282611747565b9050919050565b61178281611767565b811461178d57600080fd5b50565b60008135905061179f81611779565b92915050565b6000806000606084860312156117be576117bd61164b565b5b60006117cc86828701611790565b93505060206117dd86828701611676565b92505060406117ee86828701611676565b9150509250925092565b600081519050919050565b600082825260208201905092915050565b6000819050602082019050919050565b61182d81611767565b82525050565b600061183f8383611824565b60208301905092915050565b6000602082019050919050565b6000611863826117f8565b61186d8185611803565b935061187883611814565b8060005b838110156118a95781516118908882611833565b975061189b8361184b565b92505060018101905061187c565b5085935050505092915050565b600081519050919050565b600082825260208201905092915050565b6000819050602082019050919050565b6118eb81611655565b82525050565b60006118fd83836118e2565b60208301905092915050565b6000602082019050919050565b6000611921826118b6565b61192b81856118c1565b9350611936836118d2565b8060005b8381101561196757815161194e88826118f1565b975061195983611909565b92505060018101905061193a565b5085935050505092915050565b600060c082019050818103600083015261198e8189611858565b905081810360208301526119a28188611916565b905081810360408301526119b68187611916565b905081810360608301526119ca8186611916565b905081810360808301526119de8185611916565b905081810360a08301526119f28184611916565b9050979650505050505050565b611a0881611767565b82525050565b6000602082019050611a2360008301846119ff565b92915050565b600080fd5b600080fd5b7f4e487b7100000000000000000000000000000000000000000000000000000000600052604160045260246000fd5b611a6b826115d5565b810181811067ffffffffffffffff82111715611a8a57611a89611a33565b5b80604052505050565b6000611a9d611641565b9050611aa98282611a62565b919050565b600067ffffffffffffffff821115611ac957611ac8611a33565b5b611ad2826115d5565b9050602081019050919050565b82818337600083830152505050565b6000611b01611afc84611aae565b611a93565b905082815260208101848484011115611b1d57611b1c611a2e565b5b611b28848285611adf565b509392505050565b600082601f830112611b4557611b44611a29565b5b8135611b55848260208601611aee565b91505092915050565b600060208284031215611b7457611b7361164b565b5b600082013567ffffffffffffffff811115611b9257611b91611650565b5b611b9e84828501611b30565b91505092915050565b7f4e487b7100000000000000000000000000000000000000000000000000000000600052602260045260246000fd5b60006002820490506001821680611bee57607f821691505b602082108103611c0157611c00611ba7565b5b50919050565b7f537562736372697074696f6e20646f6573206e6f742065786973740000000000600082015250565b6000611c3d601b8361159a565b9150611c4882611c07565b602082019050919050565b60006020820190508181036000830152611c6c81611c30565b9050919050565b7f43616c6c6572206973206e6f7420746865207375627363726962657200000000600082015250565b6000611ca9601c8361159a565b9150611cb482611c73565b602082019050919050565b60006020820190508181036000830152611cd881611c9c565b9050919050565b7f53657276696365206973206e6f74206163746976650000000000000000000000600082015250565b6000611d1560158361159a565b9150611d2082611cdf565b602082019050919050565b60006020820190508181036000830152611d4481611d08565b9050919050565b7f4e487b7100000000000000000000000000000000000000000000000000000000600052601160045260246000fd5b6000611d8582611655565b9150611d9083611655565b9250828202611d9e81611655565b91508282048414831517611db557611db4611d4b565b5b5092915050565b7f5375627363726962657220616c72656164792068617320616e2061637469766560008201527f20737562736372697074696f6e00000000000000000000000000000000000000602082015250565b6000611e18602d8361159a565b9150611e2382611dbc565b604082019050919050565b60006020820190508181036000830152611e4781611e0b565b9050919050565b6000611e5982611655565b91507fffffffffffffffffffffffffffffffffffffffffffffffffffffffffffffffff8203611e8b57611e8a611d4b565b5b600182019050919050565b7f56616c7565206d7573742062652067726561746572207468616e207a65726f00600082015250565b6000611ecc601f8361159a565b9150611ed782611e96565b602082019050919050565b60006020820190508181036000830152611efb81611ebf565b9050919050565b6000611f0d82611655565b9150611f1883611655565b9250828201905080821115611f3057611f2f611d4b565b5b92915050565b7f4e487b7100000000000000000000000000000000000000000000000000000000600052603260045260246000fd5b7f496e76616c696420616d6f756e74000000000000000000000000000000000000600082015250565b6000611f9b600e8361159a565b9150611fa682611f65565b602082019050919050565b60006020820190508181036000830152611fca81611f8e565b9050919050565b60008190508160005260206000209050919050565b60006020601f8301049050919050565b600082821b905092915050565b6000600883026120337fffffffffffffffffffffffffffffffffffffffffffffffffffffffffffffffff82611ff6565b61203d8683611ff6565b95508019841693508086168417925050509392505050565b6000819050919050565b600061207a61207561207084611655565b612055565b611655565b9050919050565b6000819050919050565b6120948361205f565b6120a86120a082612081565b848454612003565b825550505050565b600090565b6120bd6120b0565b6120c881848461208b565b505050565b5b818110156120ec576120e16000826120b5565b6001810190506120ce565b5050565b601f8211156121315761210281611fd1565b61210b84611fe6565b8101602085101561211a578190505b61212e61212685611fe6565b8301826120cd565b50505b505050565b600082821c905092915050565b600061215460001984600802612136565b1980831691505092915050565b600061216d8383612143565b9150826002028217905092915050565b6121868261158f565b67ffffffffffffffff81111561219f5761219e611a33565b5b6121a98254611bd6565b6121b48282856120f0565b600060209050601f8311600181146121e757600084156121d5578287015190505b6121df8582612161565b865550612247565b601f1984166121f586611fd1565b60005b8281101561221d578489015182556001820191506020850194506020810190506121f8565b8683101561223a5784890151612236601f891682612143565b8355505b6001600288020188555050505b50505050505056fea26469706673582212204a5fe3b82988aed1b8045fe7b5a51828c7856f7a2a309b9a78621afb17bbd0c764736f6c63430008140033a2646970667358221220037224bcffd6fef459fe21c11fa4197a57691c04d9fbff4ac645090dce0ce12e64736f6c63430008140033","opcodes":"PUSH1 0x80 PUSH1 0x40 MSTORE CALLVALUE DUP1 ISZERO PUSH2 0x10 JUMPI PUSH1 0x0 DUP1 REVERT JUMPDEST POP PUSH2 0x448B DUP1 PUSH2 0x20 PUSH1 0x0 CODECOPY PUSH1 0x0 RETURN INVALID PUSH1 0x80 PUSH1 0x40 MSTORE CALLVALUE DUP1 ISZERO PUSH3 0x11 JUMPI PUSH1 0x0 DUP1 REVERT JUMPDEST POP PUSH1 0x4 CALLDATASIZE LT PUSH3 0x5E JUMPI PUSH1 0x0 CALLDATALOAD PUSH1 0xE0 SHR DUP1 PUSH4 0x6A5E1F92 EQ PUSH3 0x63 JUMPI DUP1 PUSH4 0x71EDCE7C EQ PUSH3 0x83 JUMPI DUP1 PUSH4 0xB35B7649 EQ PUSH3 0xA3 JUMPI DUP1 PUSH4 0xBD5EC58F EQ PUSH3 0xC3 JUMPI DUP1 PUSH4 0xC22C4F43 EQ PUSH3 0xE5 JUMPI JUMPDEST PUSH1 0x0 DUP1 REVERT JUMPDEST PUSH3 0x81 PUSH1 0x4 DUP1 CALLDATASIZE SUB DUP2 ADD SWAP1 PUSH3 0x7B SWAP2 SWAP1 PUSH3 0x135A JUMP JUMPDEST PUSH3 0x11B JUMP JUMPDEST STOP JUMPDEST PUSH3 0xA1 PUSH1 0x4 DUP1 CALLDATASIZE SUB DUP2 ADD SWAP1 PUSH3 0x9B SWAP2 SWAP1 PUSH3 0x1444 JUMP JUMPDEST PUSH3 0x1FD JUMP JUMPDEST STOP JUMPDEST PUSH3 0xC1 PUSH1 0x4 DUP1 CALLDATASIZE SUB DUP2 ADD SWAP1 PUSH3 0xBB SWAP2 SWAP1 PUSH3 0x1476 JUMP JUMPDEST PUSH3 0x8E5 JUMP JUMPDEST STOP JUMPDEST PUSH3 0xCD PUSH3 0x107E JUMP JUMPDEST PUSH1 0x40 MLOAD PUSH3 0xDC SWAP2 SWAP1 PUSH3 0x15DE JUMP JUMPDEST PUSH1 0x40 MLOAD DUP1 SWAP2 SUB SWAP1 RETURN JUMPDEST PUSH3 0x103 PUSH1 0x4 DUP1 CALLDATASIZE SUB DUP2 ADD SWAP1 PUSH3 0xFD SWAP2 SWAP1 PUSH3 0x163D JUMP JUMPDEST PUSH3 0x1196 JUMP JUMPDEST PUSH1 0x40 MLOAD PUSH3 0x112 SWAP2 SWAP1 PUSH3 0x16DA JUMP JUMPDEST PUSH1 0x40 MLOAD DUP1 SWAP2 SUB SWAP1 RETURN JUMPDEST PUSH1 0x0 CALLER DUP4 DUP4 PUSH1 0x40 MLOAD PUSH3 0x12E SWAP1 PUSH3 0x11D6 JUMP JUMPDEST PUSH3 0x13C SWAP4 SWAP3 SWAP2 SWAP1 PUSH3 0x1791 JUMP JUMPDEST PUSH1 0x40 MLOAD DUP1 SWAP2 SUB SWAP1 PUSH1 0x0 CREATE DUP1 ISZERO DUP1 ISZERO PUSH3 0x159 JUMPI RETURNDATASIZE PUSH1 0x0 DUP1 RETURNDATACOPY RETURNDATASIZE PUSH1 0x0 REVERT JUMPDEST POP SWAP1 POP PUSH1 0x0 DUP2 SWAP1 DUP1 PUSH1 0x1 DUP2 SLOAD ADD DUP1 DUP3 SSTORE DUP1 SWAP2 POP POP PUSH1 0x1 SWAP1 SUB SWAP1 PUSH1 0x0 MSTORE PUSH1 0x20 PUSH1 0x0 KECCAK256 ADD PUSH1 0x0 SWAP1 SWAP2 SWAP1 SWAP2 SWAP1 SWAP2 PUSH2 0x100 EXP DUP2 SLOAD DUP2 PUSH20 0xFFFFFFFFFFFFFFFFFFFFFFFFFFFFFFFFFFFFFFFF MUL NOT AND SWAP1 DUP4 PUSH20 0xFFFFFFFFFFFFFFFFFFFFFFFFFFFFFFFFFFFFFFFF AND MUL OR SWAP1 SSTORE POP PUSH32 0xAE046AA848296872CCDF284DF55DF8650F0CF3ADDB0F62EB26D9A10112C74450 DUP2 PUSH1 0x40 MLOAD PUSH3 0x1F0 SWAP2 SWAP1 PUSH3 0x17DC JUMP JUMPDEST PUSH1 0x40 MLOAD DUP1 SWAP2 SUB SWAP1 LOG1 POP POP POP JUMP JUMPDEST DUP1 PUSH1 0x0 DUP1 JUMPDEST PUSH1 0x0 DUP1 SLOAD SWAP1 POP DUP2 LT ISZERO PUSH3 0x3C8 JUMPI DUP3 PUSH20 0xFFFFFFFFFFFFFFFFFFFFFFFFFFFFFFFFFFFFFFFF AND PUSH1 0x0 DUP3 DUP2 SLOAD DUP2 LT PUSH3 0x23E JUMPI PUSH3 0x23D PUSH3 0x17F9 JUMP JUMPDEST JUMPDEST SWAP1 PUSH1 0x0 MSTORE PUSH1 0x20 PUSH1 0x0 KECCAK256 ADD PUSH1 0x0 SWAP1 SLOAD SWAP1 PUSH2 0x100 EXP SWAP1 DIV PUSH20 0xFFFFFFFFFFFFFFFFFFFFFFFFFFFFFFFFFFFFFFFF AND PUSH20 0xFFFFFFFFFFFFFFFFFFFFFFFFFFFFFFFFFFFFFFFF AND SUB PUSH3 0x3B2 JUMPI PUSH1 0x0 DUP2 DUP2 SLOAD DUP2 LT PUSH3 0x29C JUMPI PUSH3 0x29B PUSH3 0x17F9 JUMP JUMPDEST JUMPDEST SWAP1 PUSH1 0x0 MSTORE PUSH1 0x20 PUSH1 0x0 KECCAK256 ADD PUSH1 0x0 SWAP1 SLOAD SWAP1 PUSH2 0x100 EXP SWAP1 DIV PUSH20 0xFFFFFFFFFFFFFFFFFFFFFFFFFFFFFFFFFFFFFFFF AND PUSH20 0xFFFFFFFFFFFFFFFFFFFFFFFFFFFFFFFFFFFFFFFF AND PUSH4 0x893D20E8 PUSH1 0x40 MLOAD DUP2 PUSH4 0xFFFFFFFF AND PUSH1 0xE0 SHL DUP2 MSTORE PUSH1 0x4 ADD PUSH1 0x20 PUSH1 0x40 MLOAD DUP1 DUP4 SUB DUP2 DUP7 GAS STATICCALL ISZERO DUP1 ISZERO PUSH3 0x312 JUMPI RETURNDATASIZE PUSH1 0x0 DUP1 RETURNDATACOPY RETURNDATASIZE PUSH1 0x0 REVERT JUMPDEST POP POP POP POP PUSH1 0x40 MLOAD RETURNDATASIZE PUSH1 0x1F NOT PUSH1 0x1F DUP3 ADD AND DUP3 ADD DUP1 PUSH1 0x40 MSTORE POP DUP2 ADD SWAP1 PUSH3 0x338 SWAP2 SWAP1 PUSH3 0x183F JUMP JUMPDEST PUSH20 0xFFFFFFFFFFFFFFFFFFFFFFFFFFFFFFFFFFFFFFFF AND CALLER PUSH20 0xFFFFFFFFFFFFFFFFFFFFFFFFFFFFFFFFFFFFFFFF AND EQ PUSH3 0x3A8 JUMPI PUSH1 0x40 MLOAD PUSH32 0x8C379A000000000000000000000000000000000000000000000000000000000 DUP2 MSTORE PUSH1 0x4 ADD PUSH3 0x39F SWAP1 PUSH3 0x18E7 JUMP JUMPDEST PUSH1 0x40 MLOAD DUP1 SWAP2 SUB SWAP1 REVERT JUMPDEST PUSH1 0x1 SWAP2 POP PUSH3 0x3C8 JUMP JUMPDEST DUP1 DUP1 PUSH3 0x3BF SWAP1 PUSH3 0x1938 JUMP JUMPDEST SWAP2 POP POP PUSH3 0x202 JUMP JUMPDEST POP DUP1 PUSH3 0x40C JUMPI PUSH1 0x40 MLOAD PUSH32 0x8C379A000000000000000000000000000000000000000000000000000000000 DUP2 MSTORE PUSH1 0x4 ADD PUSH3 0x403 SWAP1 PUSH3 0x19D5 JUMP JUMPDEST PUSH1 0x40 MLOAD DUP1 SWAP2 SUB SWAP1 REVERT JUMPDEST DUP3 PUSH1 0x0 DUP1 JUMPDEST PUSH1 0x0 DUP1 SLOAD SWAP1 POP DUP2 LT ISZERO PUSH3 0x5A9 JUMPI DUP3 PUSH20 0xFFFFFFFFFFFFFFFFFFFFFFFFFFFFFFFFFFFFFFFF AND PUSH1 0x0 DUP3 DUP2 SLOAD DUP2 LT PUSH3 0x44D JUMPI PUSH3 0x44C PUSH3 0x17F9 JUMP JUMPDEST JUMPDEST SWAP1 PUSH1 0x0 MSTORE PUSH1 0x20 PUSH1 0x0 KECCAK256 ADD PUSH1 0x0 SWAP1 SLOAD SWAP1 PUSH2 0x100 EXP SWAP1 DIV PUSH20 0xFFFFFFFFFFFFFFFFFFFFFFFFFFFFFFFFFFFFFFFF AND PUSH20 0xFFFFFFFFFFFFFFFFFFFFFFFFFFFFFFFFFFFFFFFF AND SUB PUSH3 0x593 JUMPI PUSH1 0x0 DUP2 DUP2 SLOAD DUP2 LT PUSH3 0x4AB JUMPI PUSH3 0x4AA PUSH3 0x17F9 JUMP JUMPDEST JUMPDEST SWAP1 PUSH1 0x0 MSTORE PUSH1 0x20 PUSH1 0x0 KECCAK256 ADD PUSH1 0x0 SWAP1 SLOAD SWAP1 PUSH2 0x100 EXP SWAP1 DIV PUSH20 0xFFFFFFFFFFFFFFFFFFFFFFFFFFFFFFFFFFFFFFFF AND PUSH20 0xFFFFFFFFFFFFFFFFFFFFFFFFFFFFFFFFFFFFFFFF AND PUSH4 0x22F3E2D4 PUSH1 0x40 MLOAD DUP2 PUSH4 0xFFFFFFFF AND PUSH1 0xE0 SHL DUP2 MSTORE PUSH1 0x4 ADD PUSH1 0x20 PUSH1 0x40 MLOAD DUP1 DUP4 SUB DUP2 DUP7 GAS STATICCALL ISZERO DUP1 ISZERO PUSH3 0x521 JUMPI RETURNDATASIZE PUSH1 0x0 DUP1 RETURNDATACOPY RETURNDATASIZE PUSH1 0x0 REVERT JUMPDEST POP POP POP POP PUSH1 0x40 MLOAD RETURNDATASIZE PUSH1 0x1F NOT PUSH1 0x1F DUP3 ADD AND DUP3 ADD DUP1 PUSH1 0x40 MSTORE POP DUP2 ADD SWAP1 PUSH3 0x547 SWAP2 SWAP1 PUSH3 0x1A34 JUMP JUMPDEST PUSH3 0x589 JUMPI PUSH1 0x40 MLOAD PUSH32 0x8C379A000000000000000000000000000000000000000000000000000000000 DUP2 MSTORE PUSH1 0x4 ADD PUSH3 0x580 SWAP1 PUSH3 0x1AB6 JUMP JUMPDEST PUSH1 0x40 MLOAD DUP1 SWAP2 SUB SWAP1 REVERT JUMPDEST PUSH1 0x1 SWAP2 POP PUSH3 0x5A9 JUMP JUMPDEST DUP1 DUP1 PUSH3 0x5A0 SWAP1 PUSH3 0x1938 JUMP JUMPDEST SWAP2 POP POP PUSH3 0x411 JUMP JUMPDEST POP DUP1 PUSH3 0x5ED JUMPI PUSH1 0x40 MLOAD PUSH32 0x8C379A000000000000000000000000000000000000000000000000000000000 DUP2 MSTORE PUSH1 0x4 ADD PUSH3 0x5E4 SWAP1 PUSH3 0x19D5 JUMP JUMPDEST PUSH1 0x40 MLOAD DUP1 SWAP2 SUB SWAP1 REVERT JUMPDEST PUSH1 0x0 JUMPDEST PUSH1 0x0 DUP1 SLOAD SWAP1 POP DUP2 LT ISZERO PUSH3 0x8DD JUMPI DUP6 PUSH20 0xFFFFFFFFFFFFFFFFFFFFFFFFFFFFFFFFFFFFFFFF AND PUSH1 0x0 DUP3 DUP2 SLOAD DUP2 LT PUSH3 0x62C JUMPI PUSH3 0x62B PUSH3 0x17F9 JUMP JUMPDEST JUMPDEST SWAP1 PUSH1 0x0 MSTORE PUSH1 0x20 PUSH1 0x0 KECCAK256 ADD PUSH1 0x0 SWAP1 SLOAD SWAP1 PUSH2 0x100 EXP SWAP1 DIV PUSH20 0xFFFFFFFFFFFFFFFFFFFFFFFFFFFFFFFFFFFFFFFF AND PUSH20 0xFFFFFFFFFFFFFFFFFFFFFFFFFFFFFFFFFFFFFFFF AND SUB PUSH3 0x8C7 JUMPI PUSH1 0x0 DUP2 DUP2 SLOAD DUP2 LT PUSH3 0x68A JUMPI PUSH3 0x689 PUSH3 0x17F9 JUMP JUMPDEST JUMPDEST SWAP1 PUSH1 0x0 MSTORE PUSH1 0x20 PUSH1 0x0 KECCAK256 ADD PUSH1 0x0 SWAP1 SLOAD SWAP1 PUSH2 0x100 EXP SWAP1 DIV PUSH20 0xFFFFFFFFFFFFFFFFFFFFFFFFFFFFFFFFFFFFFFFF AND PUSH20 0xFFFFFFFFFFFFFFFFFFFFFFFFFFFFFFFFFFFFFFFF AND PUSH4 0x893D20E8 PUSH1 0x40 MLOAD DUP2 PUSH4 0xFFFFFFFF AND PUSH1 0xE0 SHL DUP2 MSTORE PUSH1 0x4 ADD PUSH1 0x20 PUSH1 0x40 MLOAD DUP1 DUP4 SUB DUP2 DUP7 GAS STATICCALL ISZERO DUP1 ISZERO PUSH3 0x700 JUMPI RETURNDATASIZE PUSH1 0x0 DUP1 RETURNDATACOPY RETURNDATASIZE PUSH1 0x0 REVERT JUMPDEST POP POP POP POP PUSH1 0x40 MLOAD RETURNDATASIZE PUSH1 0x1F NOT PUSH1 0x1F DUP3 ADD AND DUP3 ADD DUP1 PUSH1 0x40 MSTORE POP DUP2 ADD SWAP1 PUSH3 0x726 SWAP2 SWAP1 PUSH3 0x183F JUMP JUMPDEST PUSH20 0xFFFFFFFFFFFFFFFFFFFFFFFFFFFFFFFFFFFFFFFF AND CALLER PUSH20 0xFFFFFFFFFFFFFFFFFFFFFFFFFFFFFFFFFFFFFFFF AND EQ PUSH3 0x796 JUMPI PUSH1 0x40 MLOAD PUSH32 0x8C379A000000000000000000000000000000000000000000000000000000000 DUP2 MSTORE PUSH1 0x4 ADD PUSH3 0x78D SWAP1 PUSH3 0x18E7 JUMP JUMPDEST PUSH1 0x40 MLOAD DUP1 SWAP2 SUB SWAP1 REVERT JUMPDEST PUSH1 0x0 DUP2 DUP2 SLOAD DUP2 LT PUSH3 0x7AD JUMPI PUSH3 0x7AC PUSH3 0x17F9 JUMP JUMPDEST JUMPDEST SWAP1 PUSH1 0x0 MSTORE PUSH1 0x20 PUSH1 0x0 KECCAK256 ADD PUSH1 0x0 SWAP1 SLOAD SWAP1 PUSH2 0x100 EXP SWAP1 DIV PUSH20 0xFFFFFFFFFFFFFFFFFFFFFFFFFFFFFFFFFFFFFFFF AND PUSH20 0xFFFFFFFFFFFFFFFFFFFFFFFFFFFFFFFFFFFFFFFF AND PUSH4 0x2750FC78 PUSH1 0x0 PUSH1 0x40 MLOAD DUP3 PUSH4 0xFFFFFFFF AND PUSH1 0xE0 SHL DUP2 MSTORE PUSH1 0x4 ADD PUSH3 0x813 SWAP2 SWAP1 PUSH3 0x1AE9 JUMP JUMPDEST PUSH1 0x0 PUSH1 0x40 MLOAD DUP1 DUP4 SUB DUP2 PUSH1 0x0 DUP8 DUP1 EXTCODESIZE ISZERO DUP1 ISZERO PUSH3 0x82E JUMPI PUSH1 0x0 DUP1 REVERT JUMPDEST POP GAS CALL ISZERO DUP1 ISZERO PUSH3 0x843 JUMPI RETURNDATASIZE PUSH1 0x0 DUP1 RETURNDATACOPY RETURNDATASIZE PUSH1 0x0 REVERT JUMPDEST POP POP POP POP PUSH32 0x86D6AA2827E28270C1635780E8A17D61C38028E75531A0A25C5004862521289D PUSH1 0x0 DUP3 DUP2 SLOAD DUP2 LT PUSH3 0x87F JUMPI PUSH3 0x87E PUSH3 0x17F9 JUMP JUMPDEST JUMPDEST SWAP1 PUSH1 0x0 MSTORE PUSH1 0x20 PUSH1 0x0 KECCAK256 ADD PUSH1 0x0 SWAP1 SLOAD SWAP1 PUSH2 0x100 EXP SWAP1 DIV PUSH20 0xFFFFFFFFFFFFFFFFFFFFFFFFFFFFFFFFFFFFFFFF AND PUSH1 0x40 MLOAD PUSH3 0x8B9 SWAP2 SWAP1 PUSH3 0x17DC JUMP JUMPDEST PUSH1 0x40 MLOAD DUP1 SWAP2 SUB SWAP1 LOG1 PUSH3 0x8DD JUMP JUMPDEST DUP1 DUP1 PUSH3 0x8D4 SWAP1 PUSH3 0x1938 JUMP JUMPDEST SWAP2 POP POP PUSH3 0x5F0 JUMP JUMPDEST POP POP POP POP POP POP JUMP JUMPDEST DUP3 PUSH1 0x0 DUP1 JUMPDEST PUSH1 0x0 DUP1 SLOAD SWAP1 POP DUP2 LT ISZERO PUSH3 0xAB0 JUMPI DUP3 PUSH20 0xFFFFFFFFFFFFFFFFFFFFFFFFFFFFFFFFFFFFFFFF AND PUSH1 0x0 DUP3 DUP2 SLOAD DUP2 LT PUSH3 0x926 JUMPI PUSH3 0x925 PUSH3 0x17F9 JUMP JUMPDEST JUMPDEST SWAP1 PUSH1 0x0 MSTORE PUSH1 0x20 PUSH1 0x0 KECCAK256 ADD PUSH1 0x0 SWAP1 SLOAD SWAP1 PUSH2 0x100 EXP SWAP1 DIV PUSH20 0xFFFFFFFFFFFFFFFFFFFFFFFFFFFFFFFFFFFFFFFF AND PUSH20 0xFFFFFFFFFFFFFFFFFFFFFFFFFFFFFFFFFFFFFFFF AND SUB PUSH3 0xA9A JUMPI PUSH1 0x0 DUP2 DUP2 SLOAD DUP2 LT PUSH3 0x984 JUMPI PUSH3 0x983 PUSH3 0x17F9 JUMP JUMPDEST JUMPDEST SWAP1 PUSH1 0x0 MSTORE PUSH1 0x20 PUSH1 0x0 KECCAK256 ADD PUSH1 0x0 SWAP1 SLOAD SWAP1 PUSH2 0x100 EXP SWAP1 DIV PUSH20 0xFFFFFFFFFFFFFFFFFFFFFFFFFFFFFFFFFFFFFFFF AND PUSH20 0xFFFFFFFFFFFFFFFFFFFFFFFFFFFFFFFFFFFFFFFF AND PUSH4 0x893D20E8 PUSH1 0x40 MLOAD DUP2 PUSH4 0xFFFFFFFF AND PUSH1 0xE0 SHL DUP2 MSTORE PUSH1 0x4 ADD PUSH1 0x20 PUSH1 0x40 MLOAD DUP1 DUP4 SUB DUP2 DUP7 GAS STATICCALL ISZERO DUP1 ISZERO PUSH3 0x9FA JUMPI RETURNDATASIZE PUSH1 0x0 DUP1 RETURNDATACOPY RETURNDATASIZE PUSH1 0x0 REVERT JUMPDEST POP POP POP POP PUSH1 0x40 MLOAD RETURNDATASIZE PUSH1 0x1F NOT PUSH1 0x1F DUP3 ADD AND DUP3 ADD DUP1 PUSH1 0x40 MSTORE POP DUP2 ADD SWAP1 PUSH3 0xA20 SWAP2 SWAP1 PUSH3 0x183F JUMP JUMPDEST PUSH20 0xFFFFFFFFFFFFFFFFFFFFFFFFFFFFFFFFFFFFFFFF AND CALLER PUSH20 0xFFFFFFFFFFFFFFFFFFFFFFFFFFFFFFFFFFFFFFFF AND EQ PUSH3 0xA90 JUMPI PUSH1 0x40 MLOAD PUSH32 0x8C379A000000000000000000000000000000000000000000000000000000000 DUP2 MSTORE PUSH1 0x4 ADD PUSH3 0xA87 SWAP1 PUSH3 0x18E7 JUMP JUMPDEST PUSH1 0x40 MLOAD DUP1 SWAP2 SUB SWAP1 REVERT JUMPDEST PUSH1 0x1 SWAP2 POP PUSH3 0xAB0 JUMP JUMPDEST DUP1 DUP1 PUSH3 0xAA7 SWAP1 PUSH3 0x1938 JUMP JUMPDEST SWAP2 POP POP PUSH3 0x8EA JUMP JUMPDEST POP DUP1 PUSH3 0xAF4 JUMPI PUSH1 0x40 MLOAD PUSH32 0x8C379A000000000000000000000000000000000000000000000000000000000 DUP2 MSTORE PUSH1 0x4 ADD PUSH3 0xAEB SWAP1 PUSH3 0x19D5 JUMP JUMPDEST PUSH1 0x40 MLOAD DUP1 SWAP2 SUB SWAP1 REVERT JUMPDEST DUP5 PUSH1 0x0 DUP1 JUMPDEST PUSH1 0x0 DUP1 SLOAD SWAP1 POP DUP2 LT ISZERO PUSH3 0xC91 JUMPI DUP3 PUSH20 0xFFFFFFFFFFFFFFFFFFFFFFFFFFFFFFFFFFFFFFFF AND PUSH1 0x0 DUP3 DUP2 SLOAD DUP2 LT PUSH3 0xB35 JUMPI PUSH3 0xB34 PUSH3 0x17F9 JUMP JUMPDEST JUMPDEST SWAP1 PUSH1 0x0 MSTORE PUSH1 0x20 PUSH1 0x0 KECCAK256 ADD PUSH1 0x0 SWAP1 SLOAD SWAP1 PUSH2 0x100 EXP SWAP1 DIV PUSH20 0xFFFFFFFFFFFFFFFFFFFFFFFFFFFFFFFFFFFFFFFF AND PUSH20 0xFFFFFFFFFFFFFFFFFFFFFFFFFFFFFFFFFFFFFFFF AND SUB PUSH3 0xC7B JUMPI PUSH1 0x0 DUP2 DUP2 SLOAD DUP2 LT PUSH3 0xB93 JUMPI PUSH3 0xB92 PUSH3 0x17F9 JUMP JUMPDEST JUMPDEST SWAP1 PUSH1 0x0 MSTORE PUSH1 0x20 PUSH1 0x0 KECCAK256 ADD PUSH1 0x0 SWAP1 SLOAD SWAP1 PUSH2 0x100 EXP SWAP1 DIV PUSH20 0xFFFFFFFFFFFFFFFFFFFFFFFFFFFFFFFFFFFFFFFF AND PUSH20 0xFFFFFFFFFFFFFFFFFFFFFFFFFFFFFFFFFFFFFFFF AND PUSH4 0x22F3E2D4 PUSH1 0x40 MLOAD DUP2 PUSH4 0xFFFFFFFF AND PUSH1 0xE0 SHL DUP2 MSTORE PUSH1 0x4 ADD PUSH1 0x20 PUSH1 0x40 MLOAD DUP1 DUP4 SUB DUP2 DUP7 GAS STATICCALL ISZERO DUP1 ISZERO PUSH3 0xC09 JUMPI RETURNDATASIZE PUSH1 0x0 DUP1 RETURNDATACOPY RETURNDATASIZE PUSH1 0x0 REVERT JUMPDEST POP POP POP POP PUSH1 0x40 MLOAD RETURNDATASIZE PUSH1 0x1F NOT PUSH1 0x1F DUP3 ADD AND DUP3 ADD DUP1 PUSH1 0x40 MSTORE POP DUP2 ADD SWAP1 PUSH3 0xC2F SWAP2 SWAP1 PUSH3 0x1A34 JUMP JUMPDEST PUSH3 0xC71 JUMPI PUSH1 0x40 MLOAD PUSH32 0x8C379A000000000000000000000000000000000000000000000000000000000 DUP2 MSTORE PUSH1 0x4 ADD PUSH3 0xC68 SWAP1 PUSH3 0x1AB6 JUMP JUMPDEST PUSH1 0x40 MLOAD DUP1 SWAP2 SUB SWAP1 REVERT JUMPDEST PUSH1 0x1 SWAP2 POP PUSH3 0xC91 JUMP JUMPDEST DUP1 DUP1 PUSH3 0xC88 SWAP1 PUSH3 0x1938 JUMP JUMPDEST SWAP2 POP POP PUSH3 0xAF9 JUMP JUMPDEST POP DUP1 PUSH3 0xCD5 JUMPI PUSH1 0x40 MLOAD PUSH32 0x8C379A000000000000000000000000000000000000000000000000000000000 DUP2 MSTORE PUSH1 0x4 ADD PUSH3 0xCCC SWAP1 PUSH3 0x19D5 JUMP JUMPDEST PUSH1 0x40 MLOAD DUP1 SWAP2 SUB SWAP1 REVERT JUMPDEST PUSH1 0x0 JUMPDEST PUSH1 0x0 DUP1 SLOAD SWAP1 POP DUP2 LT ISZERO PUSH3 0x1074 JUMPI DUP8 PUSH20 0xFFFFFFFFFFFFFFFFFFFFFFFFFFFFFFFFFFFFFFFF AND PUSH1 0x0 DUP3 DUP2 SLOAD DUP2 LT PUSH3 0xD14 JUMPI PUSH3 0xD13 PUSH3 0x17F9 JUMP JUMPDEST JUMPDEST SWAP1 PUSH1 0x0 MSTORE PUSH1 0x20 PUSH1 0x0 KECCAK256 ADD PUSH1 0x0 SWAP1 SLOAD SWAP1 PUSH2 0x100 EXP SWAP1 DIV PUSH20 0xFFFFFFFFFFFFFFFFFFFFFFFFFFFFFFFFFFFFFFFF AND PUSH20 0xFFFFFFFFFFFFFFFFFFFFFFFFFFFFFFFFFFFFFFFF AND SUB PUSH3 0x105E JUMPI PUSH1 0x0 DUP2 DUP2 SLOAD DUP2 LT PUSH3 0xD72 JUMPI PUSH3 0xD71 PUSH3 0x17F9 JUMP JUMPDEST JUMPDEST SWAP1 PUSH1 0x0 MSTORE PUSH1 0x20 PUSH1 0x0 KECCAK256 ADD PUSH1 0x0 SWAP1 SLOAD SWAP1 PUSH2 0x100 EXP SWAP1 DIV PUSH20 0xFFFFFFFFFFFFFFFFFFFFFFFFFFFFFFFFFFFFFFFF AND PUSH20 0xFFFFFFFFFFFFFFFFFFFFFFFFFFFFFFFFFFFFFFFF AND PUSH4 0x893D20E8 PUSH1 0x40 MLOAD DUP2 PUSH4 0xFFFFFFFF AND PUSH1 0xE0 SHL DUP2 MSTORE PUSH1 0x4 ADD PUSH1 0x20 PUSH1 0x40 MLOAD DUP1 DUP4 SUB DUP2 DUP7 GAS STATICCALL ISZERO DUP1 ISZERO PUSH3 0xDE8 JUMPI RETURNDATASIZE PUSH1 0x0 DUP1 RETURNDATACOPY RETURNDATASIZE PUSH1 0x0 REVERT JUMPDEST POP POP POP POP PUSH1 0x40 MLOAD RETURNDATASIZE PUSH1 0x1F NOT PUSH1 0x1F DUP3 ADD AND DUP3 ADD DUP1 PUSH1 0x40 MSTORE POP DUP2 ADD SWAP1 PUSH3 0xE0E SWAP2 SWAP1 PUSH3 0x183F JUMP JUMPDEST PUSH20 0xFFFFFFFFFFFFFFFFFFFFFFFFFFFFFFFFFFFFFFFF AND CALLER PUSH20 0xFFFFFFFFFFFFFFFFFFFFFFFFFFFFFFFFFFFFFFFF AND EQ PUSH3 0xE7E JUMPI PUSH1 0x40 MLOAD PUSH32 0x8C379A000000000000000000000000000000000000000000000000000000000 DUP2 MSTORE PUSH1 0x4 ADD PUSH3 0xE75 SWAP1 PUSH3 0x18E7 JUMP JUMPDEST PUSH1 0x40 MLOAD DUP1 SWAP2 SUB SWAP1 REVERT JUMPDEST PUSH1 0x0 DUP2 DUP2 SLOAD DUP2 LT PUSH3 0xE95 JUMPI PUSH3 0xE94 PUSH3 0x17F9 JUMP JUMPDEST JUMPDEST SWAP1 PUSH1 0x0 MSTORE PUSH1 0x20 PUSH1 0x0 KECCAK256 ADD PUSH1 0x0 SWAP1 SLOAD SWAP1 PUSH2 0x100 EXP SWAP1 DIV PUSH20 0xFFFFFFFFFFFFFFFFFFFFFFFFFFFFFFFFFFFFFFFF AND PUSH20 0xFFFFFFFFFFFFFFFFFFFFFFFFFFFFFFFFFFFFFFFF AND PUSH4 0xC47F0027 DUP9 PUSH1 0x40 MLOAD DUP3 PUSH4 0xFFFFFFFF AND PUSH1 0xE0 SHL DUP2 MSTORE PUSH1 0x4 ADD PUSH3 0xEFA SWAP2 SWAP1 PUSH3 0x1B06 JUMP JUMPDEST PUSH1 0x0 PUSH1 0x40 MLOAD DUP1 DUP4 SUB DUP2 PUSH1 0x0 DUP8 DUP1 EXTCODESIZE ISZERO DUP1 ISZERO PUSH3 0xF15 JUMPI PUSH1 0x0 DUP1 REVERT JUMPDEST POP GAS CALL ISZERO DUP1 ISZERO PUSH3 0xF2A JUMPI RETURNDATASIZE PUSH1 0x0 DUP1 RETURNDATACOPY RETURNDATASIZE PUSH1 0x0 REVERT JUMPDEST POP POP POP POP PUSH1 0x0 DUP2 DUP2 SLOAD DUP2 LT PUSH3 0xF45 JUMPI PUSH3 0xF44 PUSH3 0x17F9 JUMP JUMPDEST JUMPDEST SWAP1 PUSH1 0x0 MSTORE PUSH1 0x20 PUSH1 0x0 KECCAK256 ADD PUSH1 0x0 SWAP1 SLOAD SWAP1 PUSH2 0x100 EXP SWAP1 DIV PUSH20 0xFFFFFFFFFFFFFFFFFFFFFFFFFFFFFFFFFFFFFFFF AND PUSH20 0xFFFFFFFFFFFFFFFFFFFFFFFFFFFFFFFFFFFFFFFF AND PUSH4 0x90C3F38F DUP8 PUSH1 0x40 MLOAD DUP3 PUSH4 0xFFFFFFFF AND PUSH1 0xE0 SHL DUP2 MSTORE PUSH1 0x4 ADD PUSH3 0xFAA SWAP2 SWAP1 PUSH3 0x1B06 JUMP JUMPDEST PUSH1 0x0 PUSH1 0x40 MLOAD DUP1 DUP4 SUB DUP2 PUSH1 0x0 DUP8 DUP1 EXTCODESIZE ISZERO DUP1 ISZERO PUSH3 0xFC5 JUMPI PUSH1 0x0 DUP1 REVERT JUMPDEST POP GAS CALL ISZERO DUP1 ISZERO PUSH3 0xFDA JUMPI RETURNDATASIZE PUSH1 0x0 DUP1 RETURNDATACOPY RETURNDATASIZE PUSH1 0x0 REVERT JUMPDEST POP POP POP POP PUSH32 0x176C74B9BCA78214099248DD4E675A4BE45C1F7417E269F78EF97E96ECE2A51 PUSH1 0x0 DUP3 DUP2 SLOAD DUP2 LT PUSH3 0x1016 JUMPI PUSH3 0x1015 PUSH3 0x17F9 JUMP JUMPDEST JUMPDEST SWAP1 PUSH1 0x0 MSTORE PUSH1 0x20 PUSH1 0x0 KECCAK256 ADD PUSH1 0x0 SWAP1 SLOAD SWAP1 PUSH2 0x100 EXP SWAP1 DIV PUSH20 0xFFFFFFFFFFFFFFFFFFFFFFFFFFFFFFFFFFFFFFFF AND PUSH1 0x40 MLOAD PUSH3 0x1050 SWAP2 SWAP1 PUSH3 0x17DC JUMP JUMPDEST PUSH1 0x40 MLOAD DUP1 SWAP2 SUB SWAP1 LOG1 PUSH3 0x1074 JUMP JUMPDEST DUP1 DUP1 PUSH3 0x106B SWAP1 PUSH3 0x1938 JUMP JUMPDEST SWAP2 POP POP PUSH3 0xCD8 JUMP JUMPDEST POP POP POP POP POP POP POP POP JUMP JUMPDEST PUSH1 0x60 PUSH1 0x0 DUP1 DUP1 SLOAD SWAP1 POP PUSH8 0xFFFFFFFFFFFFFFFF DUP2 GT ISZERO PUSH3 0x10A3 JUMPI PUSH3 0x10A2 PUSH3 0x1213 JUMP JUMPDEST JUMPDEST PUSH1 0x40 MLOAD SWAP1 DUP1 DUP3 MSTORE DUP1 PUSH1 0x20 MUL PUSH1 0x20 ADD DUP3 ADD PUSH1 0x40 MSTORE DUP1 ISZERO PUSH3 0x10D2 JUMPI DUP2 PUSH1 0x20 ADD PUSH1 0x20 DUP3 MUL DUP1 CALLDATASIZE DUP4 CALLDATACOPY DUP1 DUP3 ADD SWAP2 POP POP SWAP1 POP JUMPDEST POP SWAP1 POP PUSH1 0x0 JUMPDEST PUSH1 0x0 DUP1 SLOAD SWAP1 POP DUP2 LT ISZERO PUSH3 0x118E JUMPI PUSH1 0x0 DUP2 DUP2 SLOAD DUP2 LT PUSH3 0x10FD JUMPI PUSH3 0x10FC PUSH3 0x17F9 JUMP JUMPDEST JUMPDEST SWAP1 PUSH1 0x0 MSTORE PUSH1 0x20 PUSH1 0x0 KECCAK256 ADD PUSH1 0x0 SWAP1 SLOAD SWAP1 PUSH2 0x100 EXP SWAP1 DIV PUSH20 0xFFFFFFFFFFFFFFFFFFFFFFFFFFFFFFFFFFFFFFFF AND DUP3 DUP3 DUP2 MLOAD DUP2 LT PUSH3 0x113E JUMPI PUSH3 0x113D PUSH3 0x17F9 JUMP JUMPDEST JUMPDEST PUSH1 0x20 MUL PUSH1 0x20 ADD ADD SWAP1 PUSH20 0xFFFFFFFFFFFFFFFFFFFFFFFFFFFFFFFFFFFFFFFF AND SWAP1 DUP2 PUSH20 0xFFFFFFFFFFFFFFFFFFFFFFFFFFFFFFFFFFFFFFFF AND DUP2 MSTORE POP POP DUP1 DUP1 PUSH3 0x1185 SWAP1 PUSH3 0x1938 JUMP JUMPDEST SWAP2 POP POP PUSH3 0x10D8 JUMP JUMPDEST POP DUP1 SWAP2 POP POP SWAP1 JUMP JUMPDEST PUSH1 0x0 DUP2 DUP2 SLOAD DUP2 LT PUSH3 0x11A7 JUMPI PUSH1 0x0 DUP1 REVERT JUMPDEST SWAP1 PUSH1 0x0 MSTORE PUSH1 0x20 PUSH1 0x0 KECCAK256 ADD PUSH1 0x0 SWAP2 POP SLOAD SWAP1 PUSH2 0x100 EXP SWAP1 DIV PUSH20 0xFFFFFFFFFFFFFFFFFFFFFFFFFFFFFFFFFFFFFFFF AND DUP2 JUMP JUMPDEST PUSH2 0x292B DUP1 PUSH3 0x1B2B DUP4 CODECOPY ADD SWAP1 JUMP JUMPDEST PUSH1 0x0 PUSH1 0x40 MLOAD SWAP1 POP SWAP1 JUMP JUMPDEST PUSH1 0x0 DUP1 REVERT JUMPDEST PUSH1 0x0 DUP1 REVERT JUMPDEST PUSH1 0x0 DUP1 REVERT JUMPDEST PUSH1 0x0 DUP1 REVERT JUMPDEST PUSH1 0x0 PUSH1 0x1F NOT PUSH1 0x1F DUP4 ADD AND SWAP1 POP SWAP2 SWAP1 POP JUMP JUMPDEST PUSH32 0x4E487B7100000000000000000000000000000000000000000000000000000000 PUSH1 0x0 MSTORE PUSH1 0x41 PUSH1 0x4 MSTORE PUSH1 0x24 PUSH1 0x0 REVERT JUMPDEST PUSH3 0x124D DUP3 PUSH3 0x1202 JUMP JUMPDEST DUP2 ADD DUP2 DUP2 LT PUSH8 0xFFFFFFFFFFFFFFFF DUP3 GT OR ISZERO PUSH3 0x126F JUMPI PUSH3 0x126E PUSH3 0x1213 JUMP JUMPDEST JUMPDEST DUP1 PUSH1 0x40 MSTORE POP POP POP JUMP JUMPDEST PUSH1 0x0 PUSH3 0x1284 PUSH3 0x11E4 JUMP JUMPDEST SWAP1 POP PUSH3 0x1292 DUP3 DUP3 PUSH3 0x1242 JUMP JUMPDEST SWAP2 SWAP1 POP JUMP JUMPDEST PUSH1 0x0 PUSH8 0xFFFFFFFFFFFFFFFF DUP3 GT ISZERO PUSH3 0x12B5 JUMPI PUSH3 0x12B4 PUSH3 0x1213 JUMP JUMPDEST JUMPDEST PUSH3 0x12C0 DUP3 PUSH3 0x1202 JUMP JUMPDEST SWAP1 POP PUSH1 0x20 DUP2 ADD SWAP1 POP SWAP2 SWAP1 POP JUMP JUMPDEST DUP3 DUP2 DUP4 CALLDATACOPY PUSH1 0x0 DUP4 DUP4 ADD MSTORE POP POP POP JUMP JUMPDEST PUSH1 0x0 PUSH3 0x12F3 PUSH3 0x12ED DUP5 PUSH3 0x1297 JUMP JUMPDEST PUSH3 0x1278 JUMP JUMPDEST SWAP1 POP DUP3 DUP2 MSTORE PUSH1 0x20 DUP2 ADD DUP5 DUP5 DUP5 ADD GT ISZERO PUSH3 0x1312 JUMPI PUSH3 0x1311 PUSH3 0x11FD JUMP JUMPDEST JUMPDEST PUSH3 0x131F DUP5 DUP3 DUP6 PUSH3 0x12CD JUMP JUMPDEST POP SWAP4 SWAP3 POP POP POP JUMP JUMPDEST PUSH1 0x0 DUP3 PUSH1 0x1F DUP4 ADD SLT PUSH3 0x133F JUMPI PUSH3 0x133E PUSH3 0x11F8 JUMP JUMPDEST JUMPDEST DUP2 CALLDATALOAD PUSH3 0x1351 DUP5 DUP3 PUSH1 0x20 DUP7 ADD PUSH3 0x12DC JUMP JUMPDEST SWAP2 POP POP SWAP3 SWAP2 POP POP JUMP JUMPDEST PUSH1 0x0 DUP1 PUSH1 0x40 DUP4 DUP6 SUB SLT ISZERO PUSH3 0x1374 JUMPI PUSH3 0x1373 PUSH3 0x11EE JUMP JUMPDEST JUMPDEST PUSH1 0x0 DUP4 ADD CALLDATALOAD PUSH8 0xFFFFFFFFFFFFFFFF DUP2 GT ISZERO PUSH3 0x1395 JUMPI PUSH3 0x1394 PUSH3 0x11F3 JUMP JUMPDEST JUMPDEST PUSH3 0x13A3 DUP6 DUP3 DUP7 ADD PUSH3 0x1327 JUMP JUMPDEST SWAP3 POP POP PUSH1 0x20 DUP4 ADD CALLDATALOAD PUSH8 0xFFFFFFFFFFFFFFFF DUP2 GT ISZERO PUSH3 0x13C7 JUMPI PUSH3 0x13C6 PUSH3 0x11F3 JUMP JUMPDEST JUMPDEST PUSH3 0x13D5 DUP6 DUP3 DUP7 ADD PUSH3 0x1327 JUMP JUMPDEST SWAP2 POP POP SWAP3 POP SWAP3 SWAP1 POP JUMP JUMPDEST PUSH1 0x0 PUSH20 0xFFFFFFFFFFFFFFFFFFFFFFFFFFFFFFFFFFFFFFFF DUP3 AND SWAP1 POP SWAP2 SWAP1 POP JUMP JUMPDEST PUSH1 0x0 PUSH3 0x140C DUP3 PUSH3 0x13DF JUMP JUMPDEST SWAP1 POP SWAP2 SWAP1 POP JUMP JUMPDEST PUSH3 0x141E DUP2 PUSH3 0x13FF JUMP JUMPDEST DUP2 EQ PUSH3 0x142A JUMPI PUSH1 0x0 DUP1 REVERT JUMPDEST POP JUMP JUMPDEST PUSH1 0x0 DUP2 CALLDATALOAD SWAP1 POP PUSH3 0x143E DUP2 PUSH3 0x1413 JUMP JUMPDEST SWAP3 SWAP2 POP POP JUMP JUMPDEST PUSH1 0x0 PUSH1 0x20 DUP3 DUP5 SUB SLT ISZERO PUSH3 0x145D JUMPI PUSH3 0x145C PUSH3 0x11EE JUMP JUMPDEST JUMPDEST PUSH1 0x0 PUSH3 0x146D DUP5 DUP3 DUP6 ADD PUSH3 0x142D JUMP JUMPDEST SWAP2 POP POP SWAP3 SWAP2 POP POP JUMP JUMPDEST PUSH1 0x0 DUP1 PUSH1 0x0 PUSH1 0x60 DUP5 DUP7 SUB SLT ISZERO PUSH3 0x1492 JUMPI PUSH3 0x1491 PUSH3 0x11EE JUMP JUMPDEST JUMPDEST PUSH1 0x0 PUSH3 0x14A2 DUP7 DUP3 DUP8 ADD PUSH3 0x142D JUMP JUMPDEST SWAP4 POP POP PUSH1 0x20 DUP5 ADD CALLDATALOAD PUSH8 0xFFFFFFFFFFFFFFFF DUP2 GT ISZERO PUSH3 0x14C6 JUMPI PUSH3 0x14C5 PUSH3 0x11F3 JUMP JUMPDEST JUMPDEST PUSH3 0x14D4 DUP7 DUP3 DUP8 ADD PUSH3 0x1327 JUMP JUMPDEST SWAP3 POP POP PUSH1 0x40 DUP5 ADD CALLDATALOAD PUSH8 0xFFFFFFFFFFFFFFFF DUP2 GT ISZERO PUSH3 0x14F8 JUMPI PUSH3 0x14F7 PUSH3 0x11F3 JUMP JUMPDEST JUMPDEST PUSH3 0x1506 DUP7 DUP3 DUP8 ADD PUSH3 0x1327 JUMP JUMPDEST SWAP2 POP POP SWAP3 POP SWAP3 POP SWAP3 JUMP JUMPDEST PUSH1 0x0 DUP2 MLOAD SWAP1 POP SWAP2 SWAP1 POP JUMP JUMPDEST PUSH1 0x0 DUP3 DUP3 MSTORE PUSH1 0x20 DUP3 ADD SWAP1 POP SWAP3 SWAP2 POP POP JUMP JUMPDEST PUSH1 0x0 DUP2 SWAP1 POP PUSH1 0x20 DUP3 ADD SWAP1 POP SWAP2 SWAP1 POP JUMP JUMPDEST PUSH3 0x1547 DUP2 PUSH3 0x13FF JUMP JUMPDEST DUP3 MSTORE POP POP JUMP JUMPDEST PUSH1 0x0 PUSH3 0x155B DUP4 DUP4 PUSH3 0x153C JUMP JUMPDEST PUSH1 0x20 DUP4 ADD SWAP1 POP SWAP3 SWAP2 POP POP JUMP JUMPDEST PUSH1 0x0 PUSH1 0x20 DUP3 ADD SWAP1 POP SWAP2 SWAP1 POP JUMP JUMPDEST PUSH1 0x0 PUSH3 0x1581 DUP3 PUSH3 0x1510 JUMP JUMPDEST PUSH3 0x158D DUP2 DUP6 PUSH3 0x151B JUMP JUMPDEST SWAP4 POP PUSH3 0x159A DUP4 PUSH3 0x152C JUMP JUMPDEST DUP1 PUSH1 0x0 JUMPDEST DUP4 DUP2 LT ISZERO PUSH3 0x15D1 JUMPI DUP2 MLOAD PUSH3 0x15B5 DUP9 DUP3 PUSH3 0x154D JUMP JUMPDEST SWAP8 POP PUSH3 0x15C2 DUP4 PUSH3 0x1567 JUMP JUMPDEST SWAP3 POP POP PUSH1 0x1 DUP2 ADD SWAP1 POP PUSH3 0x159E JUMP JUMPDEST POP DUP6 SWAP4 POP POP POP POP SWAP3 SWAP2 POP POP JUMP JUMPDEST PUSH1 0x0 PUSH1 0x20 DUP3 ADD SWAP1 POP DUP2 DUP2 SUB PUSH1 0x0 DUP4 ADD MSTORE PUSH3 0x15FA DUP2 DUP5 PUSH3 0x1574 JUMP JUMPDEST SWAP1 POP SWAP3 SWAP2 POP POP JUMP JUMPDEST PUSH1 0x0 DUP2 SWAP1 POP SWAP2 SWAP1 POP JUMP JUMPDEST PUSH3 0x1617 DUP2 PUSH3 0x1602 JUMP JUMPDEST DUP2 EQ PUSH3 0x1623 JUMPI PUSH1 0x0 DUP1 REVERT JUMPDEST POP JUMP JUMPDEST PUSH1 0x0 DUP2 CALLDATALOAD SWAP1 POP PUSH3 0x1637 DUP2 PUSH3 0x160C JUMP JUMPDEST SWAP3 SWAP2 POP POP JUMP JUMPDEST PUSH1 0x0 PUSH1 0x20 DUP3 DUP5 SUB SLT ISZERO PUSH3 0x1656 JUMPI PUSH3 0x1655 PUSH3 0x11EE JUMP JUMPDEST JUMPDEST PUSH1 0x0 PUSH3 0x1666 DUP5 DUP3 DUP6 ADD PUSH3 0x1626 JUMP JUMPDEST SWAP2 POP POP SWAP3 SWAP2 POP POP JUMP JUMPDEST PUSH1 0x0 DUP2 SWAP1 POP SWAP2 SWAP1 POP JUMP JUMPDEST PUSH1 0x0 PUSH3 0x169A PUSH3 0x1694 PUSH3 0x168E DUP5 PUSH3 0x13DF JUMP JUMPDEST PUSH3 0x166F JUMP JUMPDEST PUSH3 0x13DF JUMP JUMPDEST SWAP1 POP SWAP2 SWAP1 POP JUMP JUMPDEST PUSH1 0x0 PUSH3 0x16AE DUP3 PUSH3 0x1679 JUMP JUMPDEST SWAP1 POP SWAP2 SWAP1 POP JUMP JUMPDEST PUSH1 0x0 PUSH3 0x16C2 DUP3 PUSH3 0x16A1 JUMP JUMPDEST SWAP1 POP SWAP2 SWAP1 POP JUMP JUMPDEST PUSH3 0x16D4 DUP2 PUSH3 0x16B5 JUMP JUMPDEST DUP3 MSTORE POP POP JUMP JUMPDEST PUSH1 0x0 PUSH1 0x20 DUP3 ADD SWAP1 POP PUSH3 0x16F1 PUSH1 0x0 DUP4 ADD DUP5 PUSH3 0x16C9 JUMP JUMPDEST SWAP3 SWAP2 POP POP JUMP JUMPDEST PUSH3 0x1702 DUP2 PUSH3 0x13FF JUMP JUMPDEST DUP3 MSTORE POP POP JUMP JUMPDEST PUSH1 0x0 DUP2 MLOAD SWAP1 POP SWAP2 SWAP1 POP JUMP JUMPDEST PUSH1 0x0 DUP3 DUP3 MSTORE PUSH1 0x20 DUP3 ADD SWAP1 POP SWAP3 SWAP2 POP POP JUMP JUMPDEST PUSH1 0x0 JUMPDEST DUP4 DUP2 LT ISZERO PUSH3 0x1744 JUMPI DUP1 DUP3 ADD MLOAD DUP2 DUP5 ADD MSTORE PUSH1 0x20 DUP2 ADD SWAP1 POP PUSH3 0x1727 JUMP JUMPDEST PUSH1 0x0 DUP5 DUP5 ADD MSTORE POP POP POP POP JUMP JUMPDEST PUSH1 0x0 PUSH3 0x175D DUP3 PUSH3 0x1708 JUMP JUMPDEST PUSH3 0x1769 DUP2 DUP6 PUSH3 0x1713 JUMP JUMPDEST SWAP4 POP PUSH3 0x177B DUP2 DUP6 PUSH1 0x20 DUP7 ADD PUSH3 0x1724 JUMP JUMPDEST PUSH3 0x1786 DUP2 PUSH3 0x1202 JUMP JUMPDEST DUP5 ADD SWAP2 POP POP SWAP3 SWAP2 POP POP JUMP JUMPDEST PUSH1 0x0 PUSH1 0x60 DUP3 ADD SWAP1 POP PUSH3 0x17A8 PUSH1 0x0 DUP4 ADD DUP7 PUSH3 0x16F7 JUMP JUMPDEST DUP2 DUP2 SUB PUSH1 0x20 DUP4 ADD MSTORE PUSH3 0x17BC DUP2 DUP6 PUSH3 0x1750 JUMP JUMPDEST SWAP1 POP DUP2 DUP2 SUB PUSH1 0x40 DUP4 ADD MSTORE PUSH3 0x17D2 DUP2 DUP5 PUSH3 0x1750 JUMP JUMPDEST SWAP1 POP SWAP5 SWAP4 POP POP POP POP JUMP JUMPDEST PUSH1 0x0 PUSH1 0x20 DUP3 ADD SWAP1 POP PUSH3 0x17F3 PUSH1 0x0 DUP4 ADD DUP5 PUSH3 0x16F7 JUMP JUMPDEST SWAP3 SWAP2 POP POP JUMP JUMPDEST PUSH32 0x4E487B7100000000000000000000000000000000000000000000000000000000 PUSH1 0x0 MSTORE PUSH1 0x32 PUSH1 0x4 MSTORE PUSH1 0x24 PUSH1 0x0 REVERT JUMPDEST PUSH1 0x0 DUP2 MLOAD SWAP1 POP PUSH3 0x1839 DUP2 PUSH3 0x1413 JUMP JUMPDEST SWAP3 SWAP2 POP POP JUMP JUMPDEST PUSH1 0x0 PUSH1 0x20 DUP3 DUP5 SUB SLT ISZERO PUSH3 0x1858 JUMPI PUSH3 0x1857 PUSH3 0x11EE JUMP JUMPDEST JUMPDEST PUSH1 0x0 PUSH3 0x1868 DUP5 DUP3 DUP6 ADD PUSH3 0x1828 JUMP JUMPDEST SWAP2 POP POP SWAP3 SWAP2 POP POP JUMP JUMPDEST PUSH32 0x4F6E6C79207468652073656C6C65722074686174206F776E7320746865207365 PUSH1 0x0 DUP3 ADD MSTORE PUSH32 0x72766963652063616E2063616C6C20746869732066756E6374696F6E00000000 PUSH1 0x20 DUP3 ADD MSTORE POP JUMP JUMPDEST PUSH1 0x0 PUSH3 0x18CF PUSH1 0x3C DUP4 PUSH3 0x1713 JUMP JUMPDEST SWAP2 POP PUSH3 0x18DC DUP3 PUSH3 0x1871 JUMP JUMPDEST PUSH1 0x40 DUP3 ADD SWAP1 POP SWAP2 SWAP1 POP JUMP JUMPDEST PUSH1 0x0 PUSH1 0x20 DUP3 ADD SWAP1 POP DUP2 DUP2 SUB PUSH1 0x0 DUP4 ADD MSTORE PUSH3 0x1902 DUP2 PUSH3 0x18C0 JUMP JUMPDEST SWAP1 POP SWAP2 SWAP1 POP JUMP JUMPDEST PUSH32 0x4E487B7100000000000000000000000000000000000000000000000000000000 PUSH1 0x0 MSTORE PUSH1 0x11 PUSH1 0x4 MSTORE PUSH1 0x24 PUSH1 0x0 REVERT JUMPDEST PUSH1 0x0 PUSH3 0x1945 DUP3 PUSH3 0x1602 JUMP JUMPDEST SWAP2 POP PUSH32 0xFFFFFFFFFFFFFFFFFFFFFFFFFFFFFFFFFFFFFFFFFFFFFFFFFFFFFFFFFFFFFFFF DUP3 SUB PUSH3 0x197A JUMPI PUSH3 0x1979 PUSH3 0x1909 JUMP JUMPDEST JUMPDEST PUSH1 0x1 DUP3 ADD SWAP1 POP SWAP2 SWAP1 POP JUMP JUMPDEST PUSH32 0x53657276696365206E6F7420666F756E64000000000000000000000000000000 PUSH1 0x0 DUP3 ADD MSTORE POP JUMP JUMPDEST PUSH1 0x0 PUSH3 0x19BD PUSH1 0x11 DUP4 PUSH3 0x1713 JUMP JUMPDEST SWAP2 POP PUSH3 0x19CA DUP3 PUSH3 0x1985 JUMP JUMPDEST PUSH1 0x20 DUP3 ADD SWAP1 POP SWAP2 SWAP1 POP JUMP JUMPDEST PUSH1 0x0 PUSH1 0x20 DUP3 ADD SWAP1 POP DUP2 DUP2 SUB PUSH1 0x0 DUP4 ADD MSTORE PUSH3 0x19F0 DUP2 PUSH3 0x19AE JUMP JUMPDEST SWAP1 POP SWAP2 SWAP1 POP JUMP JUMPDEST PUSH1 0x0 DUP2 ISZERO ISZERO SWAP1 POP SWAP2 SWAP1 POP JUMP JUMPDEST PUSH3 0x1A0E DUP2 PUSH3 0x19F7 JUMP JUMPDEST DUP2 EQ PUSH3 0x1A1A JUMPI PUSH1 0x0 DUP1 REVERT JUMPDEST POP JUMP JUMPDEST PUSH1 0x0 DUP2 MLOAD SWAP1 POP PUSH3 0x1A2E DUP2 PUSH3 0x1A03 JUMP JUMPDEST SWAP3 SWAP2 POP POP JUMP JUMPDEST PUSH1 0x0 PUSH1 0x20 DUP3 DUP5 SUB SLT ISZERO PUSH3 0x1A4D JUMPI PUSH3 0x1A4C PUSH3 0x11EE JUMP JUMPDEST JUMPDEST PUSH1 0x0 PUSH3 0x1A5D DUP5 DUP3 DUP6 ADD PUSH3 0x1A1D JUMP JUMPDEST SWAP2 POP POP SWAP3 SWAP2 POP POP JUMP JUMPDEST PUSH32 0x53657276696365206973206E6F74206163746976650000000000000000000000 PUSH1 0x0 DUP3 ADD MSTORE POP JUMP JUMPDEST PUSH1 0x0 PUSH3 0x1A9E PUSH1 0x15 DUP4 PUSH3 0x1713 JUMP JUMPDEST SWAP2 POP PUSH3 0x1AAB DUP3 PUSH3 0x1A66 JUMP JUMPDEST PUSH1 0x20 DUP3 ADD SWAP1 POP SWAP2 SWAP1 POP JUMP JUMPDEST PUSH1 0x0 PUSH1 0x20 DUP3 ADD SWAP1 POP DUP2 DUP2 SUB PUSH1 0x0 DUP4 ADD MSTORE PUSH3 0x1AD1 DUP2 PUSH3 0x1A8F JUMP JUMPDEST SWAP1 POP SWAP2 SWAP1 POP JUMP JUMPDEST PUSH3 0x1AE3 DUP2 PUSH3 0x19F7 JUMP JUMPDEST DUP3 MSTORE POP POP JUMP JUMPDEST PUSH1 0x0 PUSH1 0x20 DUP3 ADD SWAP1 POP PUSH3 0x1B00 PUSH1 0x0 DUP4 ADD DUP5 PUSH3 0x1AD8 JUMP JUMPDEST SWAP3 SWAP2 POP POP JUMP JUMPDEST PUSH1 0x0 PUSH1 0x20 DUP3 ADD SWAP1 POP DUP2 DUP2 SUB PUSH1 0x0 DUP4 ADD MSTORE PUSH3 0x1B22 DUP2 DUP5 PUSH3 0x1750 JUMP JUMPDEST SWAP1 POP SWAP3 SWAP2 POP POP JUMP INVALID PUSH1 0xA0 PUSH1 0x40 MSTORE PUSH1 0x1 PUSH1 0x2 PUSH1 0x0 PUSH2 0x100 EXP DUP2 SLOAD DUP2 PUSH1 0xFF MUL NOT AND SWAP1 DUP4 ISZERO ISZERO MUL OR SWAP1 SSTORE POP PUSH1 0x0 PUSH1 0x3 SSTORE CALLVALUE DUP1 ISZERO PUSH3 0x31 JUMPI PUSH1 0x0 DUP1 REVERT JUMPDEST POP PUSH1 0x40 MLOAD PUSH3 0x292B CODESIZE SUB DUP1 PUSH3 0x292B DUP4 CODECOPY DUP2 DUP2 ADD PUSH1 0x40 MSTORE DUP2 ADD SWAP1 PUSH3 0x57 SWAP2 SWAP1 PUSH3 0x2B0 JUMP JUMPDEST DUP3 PUSH20 0xFFFFFFFFFFFFFFFFFFFFFFFFFFFFFFFFFFFFFFFF AND PUSH1 0x80 DUP2 PUSH20 0xFFFFFFFFFFFFFFFFFFFFFFFFFFFFFFFFFFFFFFFF AND DUP2 MSTORE POP POP DUP2 PUSH1 0x0 SWAP1 DUP2 PUSH3 0x9C SWAP2 SWAP1 PUSH3 0x595 JUMP JUMPDEST POP DUP1 PUSH1 0x1 SWAP1 DUP2 PUSH3 0xAE SWAP2 SWAP1 PUSH3 0x595 JUMP JUMPDEST POP POP POP POP PUSH3 0x67C JUMP JUMPDEST PUSH1 0x0 PUSH1 0x40 MLOAD SWAP1 POP SWAP1 JUMP JUMPDEST PUSH1 0x0 DUP1 REVERT JUMPDEST PUSH1 0x0 DUP1 REVERT JUMPDEST PUSH1 0x0 PUSH20 0xFFFFFFFFFFFFFFFFFFFFFFFFFFFFFFFFFFFFFFFF DUP3 AND SWAP1 POP SWAP2 SWAP1 POP JUMP JUMPDEST PUSH1 0x0 PUSH3 0xF9 DUP3 PUSH3 0xCC JUMP JUMPDEST SWAP1 POP SWAP2 SWAP1 POP JUMP JUMPDEST PUSH3 0x10B DUP2 PUSH3 0xEC JUMP JUMPDEST DUP2 EQ PUSH3 0x117 JUMPI PUSH1 0x0 DUP1 REVERT JUMPDEST POP JUMP JUMPDEST PUSH1 0x0 DUP2 MLOAD SWAP1 POP PUSH3 0x12B DUP2 PUSH3 0x100 JUMP JUMPDEST SWAP3 SWAP2 POP POP JUMP JUMPDEST PUSH1 0x0 DUP1 REVERT JUMPDEST PUSH1 0x0 DUP1 REVERT JUMPDEST PUSH1 0x0 PUSH1 0x1F NOT PUSH1 0x1F DUP4 ADD AND SWAP1 POP SWAP2 SWAP1 POP JUMP JUMPDEST PUSH32 0x4E487B7100000000000000000000000000000000000000000000000000000000 PUSH1 0x0 MSTORE PUSH1 0x41 PUSH1 0x4 MSTORE PUSH1 0x24 PUSH1 0x0 REVERT JUMPDEST PUSH3 0x186 DUP3 PUSH3 0x13B JUMP JUMPDEST DUP2 ADD DUP2 DUP2 LT PUSH8 0xFFFFFFFFFFFFFFFF DUP3 GT OR ISZERO PUSH3 0x1A8 JUMPI PUSH3 0x1A7 PUSH3 0x14C JUMP JUMPDEST JUMPDEST DUP1 PUSH1 0x40 MSTORE POP POP POP JUMP JUMPDEST PUSH1 0x0 PUSH3 0x1BD PUSH3 0xB8 JUMP JUMPDEST SWAP1 POP PUSH3 0x1CB DUP3 DUP3 PUSH3 0x17B JUMP JUMPDEST SWAP2 SWAP1 POP JUMP JUMPDEST PUSH1 0x0 PUSH8 0xFFFFFFFFFFFFFFFF DUP3 GT ISZERO PUSH3 0x1EE JUMPI PUSH3 0x1ED PUSH3 0x14C JUMP JUMPDEST JUMPDEST PUSH3 0x1F9 DUP3 PUSH3 0x13B JUMP JUMPDEST SWAP1 POP PUSH1 0x20 DUP2 ADD SWAP1 POP SWAP2 SWAP1 POP JUMP JUMPDEST PUSH1 0x0 JUMPDEST DUP4 DUP2 LT ISZERO PUSH3 0x226 JUMPI DUP1 DUP3 ADD MLOAD DUP2 DUP5 ADD MSTORE PUSH1 0x20 DUP2 ADD SWAP1 POP PUSH3 0x209 JUMP JUMPDEST PUSH1 0x0 DUP5 DUP5 ADD MSTORE POP POP POP POP JUMP JUMPDEST PUSH1 0x0 PUSH3 0x249 PUSH3 0x243 DUP5 PUSH3 0x1D0 JUMP JUMPDEST PUSH3 0x1B1 JUMP JUMPDEST SWAP1 POP DUP3 DUP2 MSTORE PUSH1 0x20 DUP2 ADD DUP5 DUP5 DUP5 ADD GT ISZERO PUSH3 0x268 JUMPI PUSH3 0x267 PUSH3 0x136 JUMP JUMPDEST JUMPDEST PUSH3 0x275 DUP5 DUP3 DUP6 PUSH3 0x206 JUMP JUMPDEST POP SWAP4 SWAP3 POP POP POP JUMP JUMPDEST PUSH1 0x0 DUP3 PUSH1 0x1F DUP4 ADD SLT PUSH3 0x295 JUMPI PUSH3 0x294 PUSH3 0x131 JUMP JUMPDEST JUMPDEST DUP2 MLOAD PUSH3 0x2A7 DUP5 DUP3 PUSH1 0x20 DUP7 ADD PUSH3 0x232 JUMP JUMPDEST SWAP2 POP POP SWAP3 SWAP2 POP POP JUMP JUMPDEST PUSH1 0x0 DUP1 PUSH1 0x0 PUSH1 0x60 DUP5 DUP7 SUB SLT ISZERO PUSH3 0x2CC JUMPI PUSH3 0x2CB PUSH3 0xC2 JUMP JUMPDEST JUMPDEST PUSH1 0x0 PUSH3 0x2DC DUP7 DUP3 DUP8 ADD PUSH3 0x11A JUMP JUMPDEST SWAP4 POP POP PUSH1 0x20 DUP5 ADD MLOAD PUSH8 0xFFFFFFFFFFFFFFFF DUP2 GT ISZERO PUSH3 0x300 JUMPI PUSH3 0x2FF PUSH3 0xC7 JUMP JUMPDEST JUMPDEST PUSH3 0x30E DUP7 DUP3 DUP8 ADD PUSH3 0x27D JUMP JUMPDEST SWAP3 POP POP PUSH1 0x40 DUP5 ADD MLOAD PUSH8 0xFFFFFFFFFFFFFFFF DUP2 GT ISZERO PUSH3 0x332 JUMPI PUSH3 0x331 PUSH3 0xC7 JUMP JUMPDEST JUMPDEST PUSH3 0x340 DUP7 DUP3 DUP8 ADD PUSH3 0x27D JUMP JUMPDEST SWAP2 POP POP SWAP3 POP SWAP3 POP SWAP3 JUMP JUMPDEST PUSH1 0x0 DUP2 MLOAD SWAP1 POP SWAP2 SWAP1 POP JUMP JUMPDEST PUSH32 0x4E487B7100000000000000000000000000000000000000000000000000000000 PUSH1 0x0 MSTORE PUSH1 0x22 PUSH1 0x4 MSTORE PUSH1 0x24 PUSH1 0x0 REVERT JUMPDEST PUSH1 0x0 PUSH1 0x2 DUP3 DIV SWAP1 POP PUSH1 0x1 DUP3 AND DUP1 PUSH3 0x39D JUMPI PUSH1 0x7F DUP3 AND SWAP2 POP JUMPDEST PUSH1 0x20 DUP3 LT DUP2 SUB PUSH3 0x3B3 JUMPI PUSH3 0x3B2 PUSH3 0x355 JUMP JUMPDEST JUMPDEST POP SWAP2 SWAP1 POP JUMP JUMPDEST PUSH1 0x0 DUP2 SWAP1 POP DUP2 PUSH1 0x0 MSTORE PUSH1 0x20 PUSH1 0x0 KECCAK256 SWAP1 POP SWAP2 SWAP1 POP JUMP JUMPDEST PUSH1 0x0 PUSH1 0x20 PUSH1 0x1F DUP4 ADD DIV SWAP1 POP SWAP2 SWAP1 POP JUMP JUMPDEST PUSH1 0x0 DUP3 DUP3 SHL SWAP1 POP SWAP3 SWAP2 POP POP JUMP JUMPDEST PUSH1 0x0 PUSH1 0x8 DUP4 MUL PUSH3 0x41D PUSH32 0xFFFFFFFFFFFFFFFFFFFFFFFFFFFFFFFFFFFFFFFFFFFFFFFFFFFFFFFFFFFFFFFF DUP3 PUSH3 0x3DE JUMP JUMPDEST PUSH3 0x429 DUP7 DUP4 PUSH3 0x3DE JUMP JUMPDEST SWAP6 POP DUP1 NOT DUP5 AND SWAP4 POP DUP1 DUP7 AND DUP5 OR SWAP3 POP POP POP SWAP4 SWAP3 POP POP POP JUMP JUMPDEST PUSH1 0x0 DUP2 SWAP1 POP SWAP2 SWAP1 POP JUMP JUMPDEST PUSH1 0x0 DUP2 SWAP1 POP SWAP2 SWAP1 POP JUMP JUMPDEST PUSH1 0x0 PUSH3 0x476 PUSH3 0x470 PUSH3 0x46A DUP5 PUSH3 0x441 JUMP JUMPDEST PUSH3 0x44B JUMP JUMPDEST PUSH3 0x441 JUMP JUMPDEST SWAP1 POP SWAP2 SWAP1 POP JUMP JUMPDEST PUSH1 0x0 DUP2 SWAP1 POP SWAP2 SWAP1 POP JUMP JUMPDEST PUSH3 0x492 DUP4 PUSH3 0x455 JUMP JUMPDEST PUSH3 0x4AA PUSH3 0x4A1 DUP3 PUSH3 0x47D JUMP JUMPDEST DUP5 DUP5 SLOAD PUSH3 0x3EB JUMP JUMPDEST DUP3 SSTORE POP POP POP POP JUMP JUMPDEST PUSH1 0x0 SWAP1 JUMP JUMPDEST PUSH3 0x4C1 PUSH3 0x4B2 JUMP JUMPDEST PUSH3 0x4CE DUP2 DUP5 DUP5 PUSH3 0x487 JUMP JUMPDEST POP POP POP JUMP JUMPDEST JUMPDEST DUP2 DUP2 LT ISZERO PUSH3 0x4F6 JUMPI PUSH3 0x4EA PUSH1 0x0 DUP3 PUSH3 0x4B7 JUMP JUMPDEST PUSH1 0x1 DUP2 ADD SWAP1 POP PUSH3 0x4D4 JUMP JUMPDEST POP POP JUMP JUMPDEST PUSH1 0x1F DUP3 GT ISZERO PUSH3 0x545 JUMPI PUSH3 0x50F DUP2 PUSH3 0x3B9 JUMP JUMPDEST PUSH3 0x51A DUP5 PUSH3 0x3CE JUMP JUMPDEST DUP2 ADD PUSH1 0x20 DUP6 LT ISZERO PUSH3 0x52A JUMPI DUP2 SWAP1 POP JUMPDEST PUSH3 0x542 PUSH3 0x539 DUP6 PUSH3 0x3CE JUMP JUMPDEST DUP4 ADD DUP3 PUSH3 0x4D3 JUMP JUMPDEST POP POP JUMPDEST POP POP POP JUMP JUMPDEST PUSH1 0x0 DUP3 DUP3 SHR SWAP1 POP SWAP3 SWAP2 POP POP JUMP JUMPDEST PUSH1 0x0 PUSH3 0x56A PUSH1 0x0 NOT DUP5 PUSH1 0x8 MUL PUSH3 0x54A JUMP JUMPDEST NOT DUP1 DUP4 AND SWAP2 POP POP SWAP3 SWAP2 POP POP JUMP JUMPDEST PUSH1 0x0 PUSH3 0x585 DUP4 DUP4 PUSH3 0x557 JUMP JUMPDEST SWAP2 POP DUP3 PUSH1 0x2 MUL DUP3 OR SWAP1 POP SWAP3 SWAP2 POP POP JUMP JUMPDEST PUSH3 0x5A0 DUP3 PUSH3 0x34A JUMP JUMPDEST PUSH8 0xFFFFFFFFFFFFFFFF DUP2 GT ISZERO PUSH3 0x5BC JUMPI PUSH3 0x5BB PUSH3 0x14C JUMP JUMPDEST JUMPDEST PUSH3 0x5C8 DUP3 SLOAD PUSH3 0x384 JUMP JUMPDEST PUSH3 0x5D5 DUP3 DUP3 DUP6 PUSH3 0x4FA JUMP JUMPDEST PUSH1 0x0 PUSH1 0x20 SWAP1 POP PUSH1 0x1F DUP4 GT PUSH1 0x1 DUP2 EQ PUSH3 0x60D JUMPI PUSH1 0x0 DUP5 ISZERO PUSH3 0x5F8 JUMPI DUP3 DUP8 ADD MLOAD SWAP1 POP JUMPDEST PUSH3 0x604 DUP6 DUP3 PUSH3 0x577 JUMP JUMPDEST DUP7 SSTORE POP PUSH3 0x674 JUMP JUMPDEST PUSH1 0x1F NOT DUP5 AND PUSH3 0x61D DUP7 PUSH3 0x3B9 JUMP JUMPDEST PUSH1 0x0 JUMPDEST DUP3 DUP2 LT ISZERO PUSH3 0x647 JUMPI DUP5 DUP10 ADD MLOAD DUP3 SSTORE PUSH1 0x1 DUP3 ADD SWAP2 POP PUSH1 0x20 DUP6 ADD SWAP5 POP PUSH1 0x20 DUP2 ADD SWAP1 POP PUSH3 0x620 JUMP JUMPDEST DUP7 DUP4 LT ISZERO PUSH3 0x667 JUMPI DUP5 DUP10 ADD MLOAD PUSH3 0x663 PUSH1 0x1F DUP10 AND DUP3 PUSH3 0x557 JUMP JUMPDEST DUP4 SSTORE POP JUMPDEST PUSH1 0x1 PUSH1 0x2 DUP9 MUL ADD DUP9 SSTORE POP POP POP JUMPDEST POP POP POP POP POP POP JUMP JUMPDEST PUSH1 0x80 MLOAD PUSH2 0x2285 PUSH3 0x6A6 PUSH1 0x0 CODECOPY PUSH1 0x0 DUP2 DUP2 PUSH2 0x615 ADD MSTORE DUP2 DUP2 PUSH2 0xFE7 ADD MSTORE PUSH2 0x11DC ADD MSTORE PUSH2 0x2285 PUSH1 0x0 RETURN INVALID PUSH1 0x80 PUSH1 0x40 MSTORE PUSH1 0x4 CALLDATASIZE LT PUSH2 0xE8 JUMPI PUSH1 0x0 CALLDATALOAD PUSH1 0xE0 SHR DUP1 PUSH4 0x3B47A9AC GT PUSH2 0x8A JUMPI DUP1 PUSH4 0x8A2405A8 GT PUSH2 0x59 JUMPI DUP1 PUSH4 0x8A2405A8 EQ PUSH2 0x2A9 JUMPI DUP1 PUSH4 0x90C3F38F EQ PUSH2 0x2D2 JUMPI DUP1 PUSH4 0xC47F0027 EQ PUSH2 0x2FB JUMPI DUP1 PUSH4 0xFBA7CC79 EQ PUSH2 0x324 JUMPI PUSH2 0xE8 JUMP JUMPDEST DUP1 PUSH4 0x3B47A9AC EQ PUSH2 0x207 JUMPI DUP1 PUSH4 0x7284E416 EQ PUSH2 0x237 JUMPI DUP1 PUSH4 0x7AC9B098 EQ PUSH2 0x262 JUMPI DUP1 PUSH4 0x893D20E8 EQ PUSH2 0x27E JUMPI PUSH2 0xE8 JUMP JUMPDEST DUP1 PUSH4 0x21235083 GT PUSH2 0xC6 JUMPI DUP1 PUSH4 0x21235083 EQ PUSH2 0x16E JUMPI DUP1 PUSH4 0x22F3E2D4 EQ PUSH2 0x197 JUMPI DUP1 PUSH4 0x2750FC78 EQ PUSH2 0x1C2 JUMPI DUP1 PUSH4 0x3399D389 EQ PUSH2 0x1EB JUMPI PUSH2 0xE8 JUMP JUMPDEST DUP1 PUSH4 0x6FDDE03 EQ PUSH2 0xED JUMPI DUP1 PUSH4 0x17D7DE7C EQ PUSH2 0x118 JUMPI DUP1 PUSH4 0x1A092541 EQ PUSH2 0x143 JUMPI JUMPDEST PUSH1 0x0 DUP1 REVERT JUMPDEST CALLVALUE DUP1 ISZERO PUSH2 0xF9 JUMPI PUSH1 0x0 DUP1 REVERT JUMPDEST POP PUSH2 0x102 PUSH2 0x34F JUMP JUMPDEST PUSH1 0x40 MLOAD PUSH2 0x10F SWAP2 SWAP1 PUSH2 0x161F JUMP JUMPDEST PUSH1 0x40 MLOAD DUP1 SWAP2 SUB SWAP1 RETURN JUMPDEST CALLVALUE DUP1 ISZERO PUSH2 0x124 JUMPI PUSH1 0x0 DUP1 REVERT JUMPDEST POP PUSH2 0x12D PUSH2 0x3DD JUMP JUMPDEST PUSH1 0x40 MLOAD PUSH2 0x13A SWAP2 SWAP1 PUSH2 0x161F JUMP JUMPDEST PUSH1 0x40 MLOAD DUP1 SWAP2 SUB SWAP1 RETURN JUMPDEST CALLVALUE DUP1 ISZERO PUSH2 0x14F JUMPI PUSH1 0x0 DUP1 REVERT JUMPDEST POP PUSH2 0x158 PUSH2 0x46F JUMP JUMPDEST PUSH1 0x40 MLOAD PUSH2 0x165 SWAP2 SWAP1 PUSH2 0x161F JUMP JUMPDEST PUSH1 0x40 MLOAD DUP1 SWAP2 SUB SWAP1 RETURN JUMPDEST CALLVALUE DUP1 ISZERO PUSH2 0x17A JUMPI PUSH1 0x0 DUP1 REVERT JUMPDEST POP PUSH2 0x195 PUSH1 0x4 DUP1 CALLDATASIZE SUB DUP2 ADD SWAP1 PUSH2 0x190 SWAP2 SWAP1 PUSH2 0x168B JUMP JUMPDEST PUSH2 0x501 JUMP JUMPDEST STOP JUMPDEST CALLVALUE DUP1 ISZERO PUSH2 0x1A3 JUMPI PUSH1 0x0 DUP1 REVERT JUMPDEST POP PUSH2 0x1AC PUSH2 0x74B JUMP JUMPDEST PUSH1 0x40 MLOAD PUSH2 0x1B9 SWAP2 SWAP1 PUSH2 0x16D3 JUMP JUMPDEST PUSH1 0x40 MLOAD DUP1 SWAP2 SUB SWAP1 RETURN JUMPDEST CALLVALUE DUP1 ISZERO PUSH2 0x1CE JUMPI PUSH1 0x0 DUP1 REVERT JUMPDEST POP PUSH2 0x1E9 PUSH1 0x4 DUP1 CALLDATASIZE SUB DUP2 ADD SWAP1 PUSH2 0x1E4 SWAP2 SWAP1 PUSH2 0x171A JUMP JUMPDEST PUSH2 0x75E JUMP JUMPDEST STOP JUMPDEST PUSH2 0x205 PUSH1 0x4 DUP1 CALLDATASIZE SUB DUP2 ADD SWAP1 PUSH2 0x200 SWAP2 SWAP1 PUSH2 0x17A5 JUMP JUMPDEST PUSH2 0x77B JUMP JUMPDEST STOP JUMPDEST CALLVALUE DUP1 ISZERO PUSH2 0x213 JUMPI PUSH1 0x0 DUP1 REVERT JUMPDEST POP PUSH2 0x21C PUSH2 0xA8F JUMP JUMPDEST PUSH1 0x40 MLOAD PUSH2 0x22E SWAP7 SWAP6 SWAP5 SWAP4 SWAP3 SWAP2 SWAP1 PUSH2 0x1974 JUMP JUMPDEST PUSH1 0x40 MLOAD DUP1 SWAP2 SUB SWAP1 RETURN JUMPDEST CALLVALUE DUP1 ISZERO PUSH2 0x243 JUMPI PUSH1 0x0 DUP1 REVERT JUMPDEST POP PUSH2 0x24C PUSH2 0xE45 JUMP JUMPDEST PUSH1 0x40 MLOAD PUSH2 0x259 SWAP2 SWAP1 PUSH2 0x161F JUMP JUMPDEST PUSH1 0x40 MLOAD DUP1 SWAP2 SUB SWAP1 RETURN JUMPDEST PUSH2 0x27C PUSH1 0x4 DUP1 CALLDATASIZE SUB DUP2 ADD SWAP1 PUSH2 0x277 SWAP2 SWAP1 PUSH2 0x168B JUMP JUMPDEST PUSH2 0xED3 JUMP JUMPDEST STOP JUMPDEST CALLVALUE DUP1 ISZERO PUSH2 0x28A JUMPI PUSH1 0x0 DUP1 REVERT JUMPDEST POP PUSH2 0x293 PUSH2 0x11D8 JUMP JUMPDEST PUSH1 0x40 MLOAD PUSH2 0x2A0 SWAP2 SWAP1 PUSH2 0x1A0E JUMP JUMPDEST PUSH1 0x40 MLOAD DUP1 SWAP2 SUB SWAP1 RETURN JUMPDEST CALLVALUE DUP1 ISZERO PUSH2 0x2B5 JUMPI PUSH1 0x0 DUP1 REVERT JUMPDEST POP PUSH2 0x2D0 PUSH1 0x4 DUP1 CALLDATASIZE SUB DUP2 ADD SWAP1 PUSH2 0x2CB SWAP2 SWAP1 PUSH2 0x17A5 JUMP JUMPDEST PUSH2 0x1200 JUMP JUMPDEST STOP JUMPDEST CALLVALUE DUP1 ISZERO PUSH2 0x2DE JUMPI PUSH1 0x0 DUP1 REVERT JUMPDEST POP PUSH2 0x2F9 PUSH1 0x4 DUP1 CALLDATASIZE SUB DUP2 ADD SWAP1 PUSH2 0x2F4 SWAP2 SWAP1 PUSH2 0x1B5E JUMP JUMPDEST PUSH2 0x14B4 JUMP JUMPDEST STOP JUMPDEST CALLVALUE DUP1 ISZERO PUSH2 0x307 JUMPI PUSH1 0x0 DUP1 REVERT JUMPDEST POP PUSH2 0x322 PUSH1 0x4 DUP1 CALLDATASIZE SUB DUP2 ADD SWAP1 PUSH2 0x31D SWAP2 SWAP1 PUSH2 0x1B5E JUMP JUMPDEST PUSH2 0x1516 JUMP JUMPDEST STOP JUMPDEST CALLVALUE DUP1 ISZERO PUSH2 0x330 JUMPI PUSH1 0x0 DUP1 REVERT JUMPDEST POP PUSH2 0x339 PUSH2 0x1578 JUMP JUMPDEST PUSH1 0x40 MLOAD PUSH2 0x346 SWAP2 SWAP1 PUSH2 0x16D3 JUMP JUMPDEST PUSH1 0x40 MLOAD DUP1 SWAP2 SUB SWAP1 RETURN JUMPDEST PUSH1 0x0 DUP1 SLOAD PUSH2 0x35C SWAP1 PUSH2 0x1BD6 JUMP JUMPDEST DUP1 PUSH1 0x1F ADD PUSH1 0x20 DUP1 SWAP2 DIV MUL PUSH1 0x20 ADD PUSH1 0x40 MLOAD SWAP1 DUP2 ADD PUSH1 0x40 MSTORE DUP1 SWAP3 SWAP2 SWAP1 DUP2 DUP2 MSTORE PUSH1 0x20 ADD DUP3 DUP1 SLOAD PUSH2 0x388 SWAP1 PUSH2 0x1BD6 JUMP JUMPDEST DUP1 ISZERO PUSH2 0x3D5 JUMPI DUP1 PUSH1 0x1F LT PUSH2 0x3AA JUMPI PUSH2 0x100 DUP1 DUP4 SLOAD DIV MUL DUP4 MSTORE SWAP2 PUSH1 0x20 ADD SWAP2 PUSH2 0x3D5 JUMP JUMPDEST DUP3 ADD SWAP2 SWAP1 PUSH1 0x0 MSTORE PUSH1 0x20 PUSH1 0x0 KECCAK256 SWAP1 JUMPDEST DUP2 SLOAD DUP2 MSTORE SWAP1 PUSH1 0x1 ADD SWAP1 PUSH1 0x20 ADD DUP1 DUP4 GT PUSH2 0x3B8 JUMPI DUP3 SWAP1 SUB PUSH1 0x1F AND DUP3 ADD SWAP2 JUMPDEST POP POP POP POP POP DUP2 JUMP JUMPDEST PUSH1 0x60 PUSH1 0x0 DUP1 SLOAD PUSH2 0x3EC SWAP1 PUSH2 0x1BD6 JUMP JUMPDEST DUP1 PUSH1 0x1F ADD PUSH1 0x20 DUP1 SWAP2 DIV MUL PUSH1 0x20 ADD PUSH1 0x40 MLOAD SWAP1 DUP2 ADD PUSH1 0x40 MSTORE DUP1 SWAP3 SWAP2 SWAP1 DUP2 DUP2 MSTORE PUSH1 0x20 ADD DUP3 DUP1 SLOAD PUSH2 0x418 SWAP1 PUSH2 0x1BD6 JUMP JUMPDEST DUP1 ISZERO PUSH2 0x465 JUMPI DUP1 PUSH1 0x1F LT PUSH2 0x43A JUMPI PUSH2 0x100 DUP1 DUP4 SLOAD DIV MUL DUP4 MSTORE SWAP2 PUSH1 0x20 ADD SWAP2 PUSH2 0x465 JUMP JUMPDEST DUP3 ADD SWAP2 SWAP1 PUSH1 0x0 MSTORE PUSH1 0x20 PUSH1 0x0 KECCAK256 SWAP1 JUMPDEST DUP2 SLOAD DUP2 MSTORE SWAP1 PUSH1 0x1 ADD SWAP1 PUSH1 0x20 ADD DUP1 DUP4 GT PUSH2 0x448 JUMPI DUP3 SWAP1 SUB PUSH1 0x1F AND DUP3 ADD SWAP2 JUMPDEST POP POP POP POP POP SWAP1 POP SWAP1 JUMP JUMPDEST PUSH1 0x60 PUSH1 0x1 DUP1 SLOAD PUSH2 0x47E SWAP1 PUSH2 0x1BD6 JUMP JUMPDEST DUP1 PUSH1 0x1F ADD PUSH1 0x20 DUP1 SWAP2 DIV MUL PUSH1 0x20 ADD PUSH1 0x40 MLOAD SWAP1 DUP2 ADD PUSH1 0x40 MSTORE DUP1 SWAP3 SWAP2 SWAP1 DUP2 DUP2 MSTORE PUSH1 0x20 ADD DUP3 DUP1 SLOAD PUSH2 0x4AA SWAP1 PUSH2 0x1BD6 JUMP JUMPDEST DUP1 ISZERO PUSH2 0x4F7 JUMPI DUP1 PUSH1 0x1F LT PUSH2 0x4CC JUMPI PUSH2 0x100 DUP1 DUP4 SLOAD DIV MUL DUP4 MSTORE SWAP2 PUSH1 0x20 ADD SWAP2 PUSH2 0x4F7 JUMP JUMPDEST DUP3 ADD SWAP2 SWAP1 PUSH1 0x0 MSTORE PUSH1 0x20 PUSH1 0x0 KECCAK256 SWAP1 JUMPDEST DUP2 SLOAD DUP2 MSTORE SWAP1 PUSH1 0x1 ADD SWAP1 PUSH1 0x20 ADD DUP1 DUP4 GT PUSH2 0x4DA JUMPI DUP3 SWAP1 SUB PUSH1 0x1F AND DUP3 ADD SWAP2 JUMPDEST POP POP POP POP POP SWAP1 POP SWAP1 JUMP JUMPDEST DUP1 PUSH1 0x0 PUSH20 0xFFFFFFFFFFFFFFFFFFFFFFFFFFFFFFFFFFFFFFFF AND PUSH1 0x4 PUSH1 0x0 DUP4 DUP2 MSTORE PUSH1 0x20 ADD SWAP1 DUP2 MSTORE PUSH1 0x20 ADD PUSH1 0x0 KECCAK256 PUSH1 0x0 ADD PUSH1 0x0 SWAP1 SLOAD SWAP1 PUSH2 0x100 EXP SWAP1 DIV PUSH20 0xFFFFFFFFFFFFFFFFFFFFFFFFFFFFFFFFFFFFFFFF AND PUSH20 0xFFFFFFFFFFFFFFFFFFFFFFFFFFFFFFFFFFFFFFFF AND SUB PUSH2 0x5A7 JUMPI PUSH1 0x40 MLOAD PUSH32 0x8C379A000000000000000000000000000000000000000000000000000000000 DUP2 MSTORE PUSH1 0x4 ADD PUSH2 0x59E SWAP1 PUSH2 0x1C53 JUMP JUMPDEST PUSH1 0x40 MLOAD DUP1 SWAP2 SUB SWAP1 REVERT JUMPDEST DUP2 CALLER PUSH20 0xFFFFFFFFFFFFFFFFFFFFFFFFFFFFFFFFFFFFFFFF AND PUSH1 0x4 PUSH1 0x0 DUP4 DUP2 MSTORE PUSH1 0x20 ADD SWAP1 DUP2 MSTORE PUSH1 0x20 ADD PUSH1 0x0 KECCAK256 PUSH1 0x0 ADD PUSH1 0x0 SWAP1 SLOAD SWAP1 PUSH2 0x100 EXP SWAP1 DIV PUSH20 0xFFFFFFFFFFFFFFFFFFFFFFFFFFFFFFFFFFFFFFFF AND PUSH20 0xFFFFFFFFFFFFFFFFFFFFFFFFFFFFFFFFFFFFFFFF AND EQ DUP1 PUSH2 0x663 JUMPI POP PUSH32 0x0 PUSH20 0xFFFFFFFFFFFFFFFFFFFFFFFFFFFFFFFFFFFFFFFF AND CALLER PUSH20 0xFFFFFFFFFFFFFFFFFFFFFFFFFFFFFFFFFFFFFFFF AND EQ JUMPDEST PUSH2 0x6A2 JUMPI PUSH1 0x40 MLOAD PUSH32 0x8C379A000000000000000000000000000000000000000000000000000000000 DUP2 MSTORE PUSH1 0x4 ADD PUSH2 0x699 SWAP1 PUSH2 0x1CBF JUMP JUMPDEST PUSH1 0x40 MLOAD DUP1 SWAP2 SUB SWAP1 REVERT JUMPDEST PUSH1 0x2 PUSH1 0x0 SWAP1 SLOAD SWAP1 PUSH2 0x100 EXP SWAP1 DIV PUSH1 0xFF AND PUSH2 0x6F1 JUMPI PUSH1 0x40 MLOAD PUSH32 0x8C379A000000000000000000000000000000000000000000000000000000000 DUP2 MSTORE PUSH1 0x4 ADD PUSH2 0x6E8 SWAP1 PUSH2 0x1D2B JUMP JUMPDEST PUSH1 0x40 MLOAD DUP1 SWAP2 SUB SWAP1 REVERT JUMPDEST PUSH2 0x3E8 TIMESTAMP PUSH2 0x6FF SWAP2 SWAP1 PUSH2 0x1D7A JUMP JUMPDEST PUSH1 0x4 PUSH1 0x0 DUP6 DUP2 MSTORE PUSH1 0x20 ADD SWAP1 DUP2 MSTORE PUSH1 0x20 ADD PUSH1 0x0 KECCAK256 PUSH1 0x5 ADD DUP2 SWAP1 SSTORE POP DUP3 PUSH32 0xBD2BCEA75D16A85F005CD83447E0DE57341BF926FE7419E6D553663E91AB4DA7 PUSH1 0x40 MLOAD PUSH1 0x40 MLOAD DUP1 SWAP2 SUB SWAP1 LOG2 POP POP POP JUMP JUMPDEST PUSH1 0x2 PUSH1 0x0 SWAP1 SLOAD SWAP1 PUSH2 0x100 EXP SWAP1 DIV PUSH1 0xFF AND DUP2 JUMP JUMPDEST DUP1 PUSH1 0x2 PUSH1 0x0 PUSH2 0x100 EXP DUP2 SLOAD DUP2 PUSH1 0xFF MUL NOT AND SWAP1 DUP4 ISZERO ISZERO MUL OR SWAP1 SSTORE POP POP JUMP JUMPDEST DUP3 PUSH1 0x0 JUMPDEST PUSH1 0x3 SLOAD DUP2 LT ISZERO PUSH2 0x86F JUMPI DUP2 PUSH20 0xFFFFFFFFFFFFFFFFFFFFFFFFFFFFFFFFFFFFFFFF AND PUSH1 0x4 PUSH1 0x0 DUP4 DUP2 MSTORE PUSH1 0x20 ADD SWAP1 DUP2 MSTORE PUSH1 0x20 ADD PUSH1 0x0 KECCAK256 PUSH1 0x0 ADD PUSH1 0x0 SWAP1 SLOAD SWAP1 PUSH2 0x100 EXP SWAP1 DIV PUSH20 0xFFFFFFFFFFFFFFFFFFFFFFFFFFFFFFFFFFFFFFFF AND PUSH20 0xFFFFFFFFFFFFFFFFFFFFFFFFFFFFFFFFFFFFFFFF AND EQ DUP1 ISZERO PUSH2 0x81C JUMPI POP PUSH1 0x4 PUSH1 0x0 DUP3 DUP2 MSTORE PUSH1 0x20 ADD SWAP1 DUP2 MSTORE PUSH1 0x20 ADD PUSH1 0x0 KECCAK256 PUSH1 0x5 ADD SLOAD PUSH2 0x3E8 TIMESTAMP PUSH2 0x81A SWAP2 SWAP1 PUSH2 0x1D7A JUMP JUMPDEST LT JUMPDEST ISZERO PUSH2 0x85C JUMPI PUSH1 0x40 MLOAD PUSH32 0x8C379A000000000000000000000000000000000000000000000000000000000 DUP2 MSTORE PUSH1 0x4 ADD PUSH2 0x853 SWAP1 PUSH2 0x1E2E JUMP JUMPDEST PUSH1 0x40 MLOAD DUP1 SWAP2 SUB SWAP1 REVERT JUMPDEST DUP1 DUP1 PUSH2 0x867 SWAP1 PUSH2 0x1E4E JUMP JUMPDEST SWAP2 POP POP PUSH2 0x77F JUMP JUMPDEST POP DUP3 PUSH1 0x0 DUP2 GT PUSH2 0x8B4 JUMPI PUSH1 0x40 MLOAD PUSH32 0x8C379A000000000000000000000000000000000000000000000000000000000 DUP2 MSTORE PUSH1 0x4 ADD PUSH2 0x8AB SWAP1 PUSH2 0x1EE2 JUMP JUMPDEST PUSH1 0x40 MLOAD DUP1 SWAP2 SUB SWAP1 REVERT JUMPDEST PUSH1 0x2 PUSH1 0x0 SWAP1 SLOAD SWAP1 PUSH2 0x100 EXP SWAP1 DIV PUSH1 0xFF AND PUSH2 0x903 JUMPI PUSH1 0x40 MLOAD PUSH32 0x8C379A000000000000000000000000000000000000000000000000000000000 DUP2 MSTORE PUSH1 0x4 ADD PUSH2 0x8FA SWAP1 PUSH2 0x1D2B JUMP JUMPDEST PUSH1 0x40 MLOAD DUP1 SWAP2 SUB SWAP1 REVERT JUMPDEST PUSH1 0x0 PUSH1 0x40 MLOAD DUP1 PUSH1 0xC0 ADD PUSH1 0x40 MSTORE DUP1 DUP8 PUSH20 0xFFFFFFFFFFFFFFFFFFFFFFFFFFFFFFFFFFFFFFFF AND DUP2 MSTORE PUSH1 0x20 ADD PUSH1 0x3 SLOAD DUP2 MSTORE PUSH1 0x20 ADD DUP7 DUP2 MSTORE PUSH1 0x20 ADD DUP6 DUP2 MSTORE PUSH1 0x20 ADD PUSH2 0x3E8 TIMESTAMP PUSH2 0x94E SWAP2 SWAP1 PUSH2 0x1D7A JUMP JUMPDEST DUP2 MSTORE PUSH1 0x20 ADD PUSH2 0x3E8 PUSH3 0x15180 DUP8 PUSH2 0x965 SWAP2 SWAP1 PUSH2 0x1D7A JUMP JUMPDEST TIMESTAMP PUSH2 0x970 SWAP2 SWAP1 PUSH2 0x1F02 JUMP JUMPDEST PUSH2 0x97A SWAP2 SWAP1 PUSH2 0x1D7A JUMP JUMPDEST DUP2 MSTORE POP SWAP1 POP DUP1 PUSH1 0x4 PUSH1 0x0 PUSH1 0x3 SLOAD DUP2 MSTORE PUSH1 0x20 ADD SWAP1 DUP2 MSTORE PUSH1 0x20 ADD PUSH1 0x0 KECCAK256 PUSH1 0x0 DUP3 ADD MLOAD DUP2 PUSH1 0x0 ADD PUSH1 0x0 PUSH2 0x100 EXP DUP2 SLOAD DUP2 PUSH20 0xFFFFFFFFFFFFFFFFFFFFFFFFFFFFFFFFFFFFFFFF MUL NOT AND SWAP1 DUP4 PUSH20 0xFFFFFFFFFFFFFFFFFFFFFFFFFFFFFFFFFFFFFFFF AND MUL OR SWAP1 SSTORE POP PUSH1 0x20 DUP3 ADD MLOAD DUP2 PUSH1 0x1 ADD SSTORE PUSH1 0x40 DUP3 ADD MLOAD DUP2 PUSH1 0x2 ADD SSTORE PUSH1 0x60 DUP3 ADD MLOAD DUP2 PUSH1 0x3 ADD SSTORE PUSH1 0x80 DUP3 ADD MLOAD DUP2 PUSH1 0x4 ADD SSTORE PUSH1 0xA0 DUP3 ADD MLOAD DUP2 PUSH1 0x5 ADD SSTORE SWAP1 POP POP PUSH1 0x3 SLOAD PUSH32 0x6A2B70DDE6AE0193F84B6A9EEB3B0EBDC3A35E99D9167B88C570158DD09CB0F7 PUSH1 0x40 MLOAD PUSH1 0x40 MLOAD DUP1 SWAP2 SUB SWAP1 LOG2 PUSH1 0x3 SLOAD PUSH32 0x9040C259954B48F5DFDF60EA91E742403E7552202DE9925D509FDD8187B2130B PUSH1 0x40 MLOAD PUSH1 0x40 MLOAD DUP1 SWAP2 SUB SWAP1 LOG2 PUSH1 0x3 PUSH1 0x0 DUP2 SLOAD DUP1 SWAP3 SWAP2 SWAP1 PUSH2 0xA82 SWAP1 PUSH2 0x1E4E JUMP JUMPDEST SWAP2 SWAP1 POP SSTORE POP POP POP POP POP POP POP JUMP JUMPDEST PUSH1 0x60 DUP1 PUSH1 0x60 DUP1 PUSH1 0x60 DUP1 PUSH1 0x0 PUSH1 0x3 SLOAD PUSH8 0xFFFFFFFFFFFFFFFF DUP2 GT ISZERO PUSH2 0xAB6 JUMPI PUSH2 0xAB5 PUSH2 0x1A33 JUMP JUMPDEST JUMPDEST PUSH1 0x40 MLOAD SWAP1 DUP1 DUP3 MSTORE DUP1 PUSH1 0x20 MUL PUSH1 0x20 ADD DUP3 ADD PUSH1 0x40 MSTORE DUP1 ISZERO PUSH2 0xAE4 JUMPI DUP2 PUSH1 0x20 ADD PUSH1 0x20 DUP3 MUL DUP1 CALLDATASIZE DUP4 CALLDATACOPY DUP1 DUP3 ADD SWAP2 POP POP SWAP1 POP JUMPDEST POP SWAP1 POP PUSH1 0x0 PUSH1 0x3 SLOAD PUSH8 0xFFFFFFFFFFFFFFFF DUP2 GT ISZERO PUSH2 0xB05 JUMPI PUSH2 0xB04 PUSH2 0x1A33 JUMP JUMPDEST JUMPDEST PUSH1 0x40 MLOAD SWAP1 DUP1 DUP3 MSTORE DUP1 PUSH1 0x20 MUL PUSH1 0x20 ADD DUP3 ADD PUSH1 0x40 MSTORE DUP1 ISZERO PUSH2 0xB33 JUMPI DUP2 PUSH1 0x20 ADD PUSH1 0x20 DUP3 MUL DUP1 CALLDATASIZE DUP4 CALLDATACOPY DUP1 DUP3 ADD SWAP2 POP POP SWAP1 POP JUMPDEST POP SWAP1 POP PUSH1 0x0 PUSH1 0x3 SLOAD PUSH8 0xFFFFFFFFFFFFFFFF DUP2 GT ISZERO PUSH2 0xB54 JUMPI PUSH2 0xB53 PUSH2 0x1A33 JUMP JUMPDEST JUMPDEST PUSH1 0x40 MLOAD SWAP1 DUP1 DUP3 MSTORE DUP1 PUSH1 0x20 MUL PUSH1 0x20 ADD DUP3 ADD PUSH1 0x40 MSTORE DUP1 ISZERO PUSH2 0xB82 JUMPI DUP2 PUSH1 0x20 ADD PUSH1 0x20 DUP3 MUL DUP1 CALLDATASIZE DUP4 CALLDATACOPY DUP1 DUP3 ADD SWAP2 POP POP SWAP1 POP JUMPDEST POP SWAP1 POP PUSH1 0x0 PUSH1 0x3 SLOAD PUSH8 0xFFFFFFFFFFFFFFFF DUP2 GT ISZERO PUSH2 0xBA3 JUMPI PUSH2 0xBA2 PUSH2 0x1A33 JUMP JUMPDEST JUMPDEST PUSH1 0x40 MLOAD SWAP1 DUP1 DUP3 MSTORE DUP1 PUSH1 0x20 MUL PUSH1 0x20 ADD DUP3 ADD PUSH1 0x40 MSTORE DUP1 ISZERO PUSH2 0xBD1 JUMPI DUP2 PUSH1 0x20 ADD PUSH1 0x20 DUP3 MUL DUP1 CALLDATASIZE DUP4 CALLDATACOPY DUP1 DUP3 ADD SWAP2 POP POP SWAP1 POP JUMPDEST POP SWAP1 POP PUSH1 0x0 PUSH1 0x3 SLOAD PUSH8 0xFFFFFFFFFFFFFFFF DUP2 GT ISZERO PUSH2 0xBF2 JUMPI PUSH2 0xBF1 PUSH2 0x1A33 JUMP JUMPDEST JUMPDEST PUSH1 0x40 MLOAD SWAP1 DUP1 DUP3 MSTORE DUP1 PUSH1 0x20 MUL PUSH1 0x20 ADD DUP3 ADD PUSH1 0x40 MSTORE DUP1 ISZERO PUSH2 0xC20 JUMPI DUP2 PUSH1 0x20 ADD PUSH1 0x20 DUP3 MUL DUP1 CALLDATASIZE DUP4 CALLDATACOPY DUP1 DUP3 ADD SWAP2 POP POP SWAP1 POP JUMPDEST POP SWAP1 POP PUSH1 0x0 PUSH1 0x3 SLOAD PUSH8 0xFFFFFFFFFFFFFFFF DUP2 GT ISZERO PUSH2 0xC41 JUMPI PUSH2 0xC40 PUSH2 0x1A33 JUMP JUMPDEST JUMPDEST PUSH1 0x40 MLOAD SWAP1 DUP1 DUP3 MSTORE DUP1 PUSH1 0x20 MUL PUSH1 0x20 ADD DUP3 ADD PUSH1 0x40 MSTORE DUP1 ISZERO PUSH2 0xC6F JUMPI DUP2 PUSH1 0x20 ADD PUSH1 0x20 DUP3 MUL DUP1 CALLDATASIZE DUP4 CALLDATACOPY DUP1 DUP3 ADD SWAP2 POP POP SWAP1 POP JUMPDEST POP SWAP1 POP PUSH1 0x0 JUMPDEST PUSH1 0x3 SLOAD DUP2 LT ISZERO PUSH2 0xE24 JUMPI PUSH1 0x4 PUSH1 0x0 DUP3 DUP2 MSTORE PUSH1 0x20 ADD SWAP1 DUP2 MSTORE PUSH1 0x20 ADD PUSH1 0x0 KECCAK256 PUSH1 0x0 ADD PUSH1 0x0 SWAP1 SLOAD SWAP1 PUSH2 0x100 EXP SWAP1 DIV PUSH20 0xFFFFFFFFFFFFFFFFFFFFFFFFFFFFFFFFFFFFFFFF AND DUP8 DUP3 DUP2 MLOAD DUP2 LT PUSH2 0xCC9 JUMPI PUSH2 0xCC8 PUSH2 0x1F36 JUMP JUMPDEST JUMPDEST PUSH1 0x20 MUL PUSH1 0x20 ADD ADD SWAP1 PUSH20 0xFFFFFFFFFFFFFFFFFFFFFFFFFFFFFFFFFFFFFFFF AND SWAP1 DUP2 PUSH20 0xFFFFFFFFFFFFFFFFFFFFFFFFFFFFFFFFFFFFFFFF AND DUP2 MSTORE POP POP PUSH1 0x4 PUSH1 0x0 DUP3 DUP2 MSTORE PUSH1 0x20 ADD SWAP1 DUP2 MSTORE PUSH1 0x20 ADD PUSH1 0x0 KECCAK256 PUSH1 0x1 ADD SLOAD DUP7 DUP3 DUP2 MLOAD DUP2 LT PUSH2 0xD2D JUMPI PUSH2 0xD2C PUSH2 0x1F36 JUMP JUMPDEST JUMPDEST PUSH1 0x20 MUL PUSH1 0x20 ADD ADD DUP2 DUP2 MSTORE POP POP PUSH1 0x4 PUSH1 0x0 DUP3 DUP2 MSTORE PUSH1 0x20 ADD SWAP1 DUP2 MSTORE PUSH1 0x20 ADD PUSH1 0x0 KECCAK256 PUSH1 0x2 ADD SLOAD DUP6 DUP3 DUP2 MLOAD DUP2 LT PUSH2 0xD63 JUMPI PUSH2 0xD62 PUSH2 0x1F36 JUMP JUMPDEST JUMPDEST PUSH1 0x20 MUL PUSH1 0x20 ADD ADD DUP2 DUP2 MSTORE POP POP PUSH1 0x4 PUSH1 0x0 DUP3 DUP2 MSTORE PUSH1 0x20 ADD SWAP1 DUP2 MSTORE PUSH1 0x20 ADD PUSH1 0x0 KECCAK256 PUSH1 0x3 ADD SLOAD DUP5 DUP3 DUP2 MLOAD DUP2 LT PUSH2 0xD99 JUMPI PUSH2 0xD98 PUSH2 0x1F36 JUMP JUMPDEST JUMPDEST PUSH1 0x20 MUL PUSH1 0x20 ADD ADD DUP2 DUP2 MSTORE POP POP PUSH1 0x4 PUSH1 0x0 DUP3 DUP2 MSTORE PUSH1 0x20 ADD SWAP1 DUP2 MSTORE PUSH1 0x20 ADD PUSH1 0x0 KECCAK256 PUSH1 0x4 ADD SLOAD DUP4 DUP3 DUP2 MLOAD DUP2 LT PUSH2 0xDCF JUMPI PUSH2 0xDCE PUSH2 0x1F36 JUMP JUMPDEST JUMPDEST PUSH1 0x20 MUL PUSH1 0x20 ADD ADD DUP2 DUP2 MSTORE POP POP PUSH1 0x4 PUSH1 0x0 DUP3 DUP2 MSTORE PUSH1 0x20 ADD SWAP1 DUP2 MSTORE PUSH1 0x20 ADD PUSH1 0x0 KECCAK256 PUSH1 0x5 ADD SLOAD DUP3 DUP3 DUP2 MLOAD DUP2 LT PUSH2 0xE05 JUMPI PUSH2 0xE04 PUSH2 0x1F36 JUMP JUMPDEST JUMPDEST PUSH1 0x20 MUL PUSH1 0x20 ADD ADD DUP2 DUP2 MSTORE POP POP DUP1 DUP1 PUSH2 0xE1C SWAP1 PUSH2 0x1E4E JUMP JUMPDEST SWAP2 POP POP PUSH2 0xC75 JUMP JUMPDEST POP DUP6 DUP6 DUP6 DUP6 DUP6 DUP6 SWAP12 POP SWAP12 POP SWAP12 POP SWAP12 POP SWAP12 POP SWAP12 POP POP POP POP POP POP POP SWAP1 SWAP2 SWAP3 SWAP4 SWAP5 SWAP6 JUMP JUMPDEST PUSH1 0x1 DUP1 SLOAD PUSH2 0xE52 SWAP1 PUSH2 0x1BD6 JUMP JUMPDEST DUP1 PUSH1 0x1F ADD PUSH1 0x20 DUP1 SWAP2 DIV MUL PUSH1 0x20 ADD PUSH1 0x40 MLOAD SWAP1 DUP2 ADD PUSH1 0x40 MSTORE DUP1 SWAP3 SWAP2 SWAP1 DUP2 DUP2 MSTORE PUSH1 0x20 ADD DUP3 DUP1 SLOAD PUSH2 0xE7E SWAP1 PUSH2 0x1BD6 JUMP JUMPDEST DUP1 ISZERO PUSH2 0xECB JUMPI DUP1 PUSH1 0x1F LT PUSH2 0xEA0 JUMPI PUSH2 0x100 DUP1 DUP4 SLOAD DIV MUL DUP4 MSTORE SWAP2 PUSH1 0x20 ADD SWAP2 PUSH2 0xECB JUMP JUMPDEST DUP3 ADD SWAP2 SWAP1 PUSH1 0x0 MSTORE PUSH1 0x20 PUSH1 0x0 KECCAK256 SWAP1 JUMPDEST DUP2 SLOAD DUP2 MSTORE SWAP1 PUSH1 0x1 ADD SWAP1 PUSH1 0x20 ADD DUP1 DUP4 GT PUSH2 0xEAE JUMPI DUP3 SWAP1 SUB PUSH1 0x1F AND DUP3 ADD SWAP2 JUMPDEST POP POP POP POP POP DUP2 JUMP JUMPDEST DUP1 PUSH1 0x0 PUSH20 0xFFFFFFFFFFFFFFFFFFFFFFFFFFFFFFFFFFFFFFFF AND PUSH1 0x4 PUSH1 0x0 DUP4 DUP2 MSTORE PUSH1 0x20 ADD SWAP1 DUP2 MSTORE PUSH1 0x20 ADD PUSH1 0x0 KECCAK256 PUSH1 0x0 ADD PUSH1 0x0 SWAP1 SLOAD SWAP1 PUSH2 0x100 EXP SWAP1 DIV PUSH20 0xFFFFFFFFFFFFFFFFFFFFFFFFFFFFFFFFFFFFFFFF AND PUSH20 0xFFFFFFFFFFFFFFFFFFFFFFFFFFFFFFFFFFFFFFFF AND SUB PUSH2 0xF79 JUMPI PUSH1 0x40 MLOAD PUSH32 0x8C379A000000000000000000000000000000000000000000000000000000000 DUP2 MSTORE PUSH1 0x4 ADD PUSH2 0xF70 SWAP1 PUSH2 0x1C53 JUMP JUMPDEST PUSH1 0x40 MLOAD DUP1 SWAP2 SUB SWAP1 REVERT JUMPDEST DUP2 CALLER PUSH20 0xFFFFFFFFFFFFFFFFFFFFFFFFFFFFFFFFFFFFFFFF AND PUSH1 0x4 PUSH1 0x0 DUP4 DUP2 MSTORE PUSH1 0x20 ADD SWAP1 DUP2 MSTORE PUSH1 0x20 ADD PUSH1 0x0 KECCAK256 PUSH1 0x0 ADD PUSH1 0x0 SWAP1 SLOAD SWAP1 PUSH2 0x100 EXP SWAP1 DIV PUSH20 0xFFFFFFFFFFFFFFFFFFFFFFFFFFFFFFFFFFFFFFFF AND PUSH20 0xFFFFFFFFFFFFFFFFFFFFFFFFFFFFFFFFFFFFFFFF AND EQ DUP1 PUSH2 0x1035 JUMPI POP PUSH32 0x0 PUSH20 0xFFFFFFFFFFFFFFFFFFFFFFFFFFFFFFFFFFFFFFFF AND CALLER PUSH20 0xFFFFFFFFFFFFFFFFFFFFFFFFFFFFFFFFFFFFFFFF AND EQ JUMPDEST PUSH2 0x1074 JUMPI PUSH1 0x40 MLOAD PUSH32 0x8C379A000000000000000000000000000000000000000000000000000000000 DUP2 MSTORE PUSH1 0x4 ADD PUSH2 0x106B SWAP1 PUSH2 0x1CBF JUMP JUMPDEST PUSH1 0x40 MLOAD DUP1 SWAP2 SUB SWAP1 REVERT JUMPDEST PUSH1 0x2 PUSH1 0x0 SWAP1 SLOAD SWAP1 PUSH2 0x100 EXP SWAP1 DIV PUSH1 0xFF AND PUSH2 0x10C3 JUMPI PUSH1 0x40 MLOAD PUSH32 0x8C379A000000000000000000000000000000000000000000000000000000000 DUP2 MSTORE PUSH1 0x4 ADD PUSH2 0x10BA SWAP1 PUSH2 0x1D2B JUMP JUMPDEST PUSH1 0x40 MLOAD DUP1 SWAP2 SUB SWAP1 REVERT JUMPDEST PUSH1 0x0 CALLVALUE SWAP1 POP PUSH1 0x0 PUSH1 0x4 PUSH1 0x0 DUP7 DUP2 MSTORE PUSH1 0x20 ADD SWAP1 DUP2 MSTORE PUSH1 0x20 ADD PUSH1 0x0 KECCAK256 PUSH1 0x2 ADD SLOAD SWAP1 POP DUP1 DUP3 EQ PUSH2 0x1125 JUMPI PUSH1 0x40 MLOAD PUSH32 0x8C379A000000000000000000000000000000000000000000000000000000000 DUP2 MSTORE PUSH1 0x4 ADD PUSH2 0x111C SWAP1 PUSH2 0x1FB1 JUMP JUMPDEST PUSH1 0x40 MLOAD DUP1 SWAP2 SUB SWAP1 REVERT JUMPDEST PUSH2 0x3E8 TIMESTAMP PUSH2 0x1133 SWAP2 SWAP1 PUSH2 0x1D7A JUMP JUMPDEST PUSH1 0x4 PUSH1 0x0 DUP8 DUP2 MSTORE PUSH1 0x20 ADD SWAP1 DUP2 MSTORE PUSH1 0x20 ADD PUSH1 0x0 KECCAK256 PUSH1 0x4 ADD DUP2 SWAP1 SSTORE POP PUSH2 0x3E8 PUSH3 0x15180 PUSH1 0x4 PUSH1 0x0 DUP9 DUP2 MSTORE PUSH1 0x20 ADD SWAP1 DUP2 MSTORE PUSH1 0x20 ADD PUSH1 0x0 KECCAK256 PUSH1 0x3 ADD SLOAD PUSH2 0x1175 SWAP2 SWAP1 PUSH2 0x1D7A JUMP JUMPDEST TIMESTAMP PUSH2 0x1180 SWAP2 SWAP1 PUSH2 0x1F02 JUMP JUMPDEST PUSH2 0x118A SWAP2 SWAP1 PUSH2 0x1D7A JUMP JUMPDEST PUSH1 0x4 PUSH1 0x0 DUP8 DUP2 MSTORE PUSH1 0x20 ADD SWAP1 DUP2 MSTORE PUSH1 0x20 ADD PUSH1 0x0 KECCAK256 PUSH1 0x5 ADD DUP2 SWAP1 SSTORE POP DUP5 PUSH32 0x9040C259954B48F5DFDF60EA91E742403E7552202DE9925D509FDD8187B2130B PUSH1 0x40 MLOAD PUSH1 0x40 MLOAD DUP1 SWAP2 SUB SWAP1 LOG2 POP POP POP POP POP JUMP JUMPDEST PUSH1 0x0 PUSH32 0x0 SWAP1 POP SWAP1 JUMP JUMPDEST DUP3 PUSH1 0x0 JUMPDEST PUSH1 0x3 SLOAD DUP2 LT ISZERO PUSH2 0x12F4 JUMPI DUP2 PUSH20 0xFFFFFFFFFFFFFFFFFFFFFFFFFFFFFFFFFFFFFFFF AND PUSH1 0x4 PUSH1 0x0 DUP4 DUP2 MSTORE PUSH1 0x20 ADD SWAP1 DUP2 MSTORE PUSH1 0x20 ADD PUSH1 0x0 KECCAK256 PUSH1 0x0 ADD PUSH1 0x0 SWAP1 SLOAD SWAP1 PUSH2 0x100 EXP SWAP1 DIV PUSH20 0xFFFFFFFFFFFFFFFFFFFFFFFFFFFFFFFFFFFFFFFF AND PUSH20 0xFFFFFFFFFFFFFFFFFFFFFFFFFFFFFFFFFFFFFFFF AND EQ DUP1 ISZERO PUSH2 0x12A1 JUMPI POP PUSH1 0x4 PUSH1 0x0 DUP3 DUP2 MSTORE PUSH1 0x20 ADD SWAP1 DUP2 MSTORE PUSH1 0x20 ADD PUSH1 0x0 KECCAK256 PUSH1 0x5 ADD SLOAD PUSH2 0x3E8 TIMESTAMP PUSH2 0x129F SWAP2 SWAP1 PUSH2 0x1D7A JUMP JUMPDEST LT JUMPDEST ISZERO PUSH2 0x12E1 JUMPI PUSH1 0x40 MLOAD PUSH32 0x8C379A000000000000000000000000000000000000000000000000000000000 DUP2 MSTORE PUSH1 0x4 ADD PUSH2 0x12D8 SWAP1 PUSH2 0x1E2E JUMP JUMPDEST PUSH1 0x40 MLOAD DUP1 SWAP2 SUB SWAP1 REVERT JUMPDEST DUP1 DUP1 PUSH2 0x12EC SWAP1 PUSH2 0x1E4E JUMP JUMPDEST SWAP2 POP POP PUSH2 0x1204 JUMP JUMPDEST POP DUP3 PUSH1 0x0 DUP2 GT PUSH2 0x1339 JUMPI PUSH1 0x40 MLOAD PUSH32 0x8C379A000000000000000000000000000000000000000000000000000000000 DUP2 MSTORE PUSH1 0x4 ADD PUSH2 0x1330 SWAP1 PUSH2 0x1EE2 JUMP JUMPDEST PUSH1 0x40 MLOAD DUP1 SWAP2 SUB SWAP1 REVERT JUMPDEST PUSH1 0x2 PUSH1 0x0 SWAP1 SLOAD SWAP1 PUSH2 0x100 EXP SWAP1 DIV PUSH1 0xFF AND PUSH2 0x1388 JUMPI PUSH1 0x40 MLOAD PUSH32 0x8C379A000000000000000000000000000000000000000000000000000000000 DUP2 MSTORE PUSH1 0x4 ADD PUSH2 0x137F SWAP1 PUSH2 0x1D2B JUMP JUMPDEST PUSH1 0x40 MLOAD DUP1 SWAP2 SUB SWAP1 REVERT JUMPDEST PUSH1 0x0 PUSH1 0x40 MLOAD DUP1 PUSH1 0xC0 ADD PUSH1 0x40 MSTORE DUP1 DUP8 PUSH20 0xFFFFFFFFFFFFFFFFFFFFFFFFFFFFFFFFFFFFFFFF AND DUP2 MSTORE PUSH1 0x20 ADD PUSH1 0x3 SLOAD DUP2 MSTORE PUSH1 0x20 ADD DUP7 DUP2 MSTORE PUSH1 0x20 ADD DUP6 DUP2 MSTORE PUSH1 0x20 ADD PUSH1 0x0 DUP2 MSTORE PUSH1 0x20 ADD PUSH1 0x0 DUP2 MSTORE POP SWAP1 POP DUP1 PUSH1 0x4 PUSH1 0x0 PUSH1 0x3 SLOAD DUP2 MSTORE PUSH1 0x20 ADD SWAP1 DUP2 MSTORE PUSH1 0x20 ADD PUSH1 0x0 KECCAK256 PUSH1 0x0 DUP3 ADD MLOAD DUP2 PUSH1 0x0 ADD PUSH1 0x0 PUSH2 0x100 EXP DUP2 SLOAD DUP2 PUSH20 0xFFFFFFFFFFFFFFFFFFFFFFFFFFFFFFFFFFFFFFFF MUL NOT AND SWAP1 DUP4 PUSH20 0xFFFFFFFFFFFFFFFFFFFFFFFFFFFFFFFFFFFFFFFF AND MUL OR SWAP1 SSTORE POP PUSH1 0x20 DUP3 ADD MLOAD DUP2 PUSH1 0x1 ADD SSTORE PUSH1 0x40 DUP3 ADD MLOAD DUP2 PUSH1 0x2 ADD SSTORE PUSH1 0x60 DUP3 ADD MLOAD DUP2 PUSH1 0x3 ADD SSTORE PUSH1 0x80 DUP3 ADD MLOAD DUP2 PUSH1 0x4 ADD SSTORE PUSH1 0xA0 DUP3 ADD MLOAD DUP2 PUSH1 0x5 ADD SSTORE SWAP1 POP POP PUSH1 0x3 SLOAD PUSH32 0x6A2B70DDE6AE0193F84B6A9EEB3B0EBDC3A35E99D9167B88C570158DD09CB0F7 PUSH1 0x40 MLOAD PUSH1 0x40 MLOAD DUP1 SWAP2 SUB SWAP1 LOG2 PUSH1 0x3 PUSH1 0x0 DUP2 SLOAD DUP1 SWAP3 SWAP2 SWAP1 PUSH2 0x14A7 SWAP1 PUSH2 0x1E4E JUMP JUMPDEST SWAP2 SWAP1 POP SSTORE POP POP POP POP POP POP POP JUMP JUMPDEST PUSH1 0x2 PUSH1 0x0 SWAP1 SLOAD SWAP1 PUSH2 0x100 EXP SWAP1 DIV PUSH1 0xFF AND PUSH2 0x1503 JUMPI PUSH1 0x40 MLOAD PUSH32 0x8C379A000000000000000000000000000000000000000000000000000000000 DUP2 MSTORE PUSH1 0x4 ADD PUSH2 0x14FA SWAP1 PUSH2 0x1D2B JUMP JUMPDEST PUSH1 0x40 MLOAD DUP1 SWAP2 SUB SWAP1 REVERT JUMPDEST DUP1 PUSH1 0x1 SWAP1 DUP2 PUSH2 0x1512 SWAP2 SWAP1 PUSH2 0x217D JUMP JUMPDEST POP POP JUMP JUMPDEST PUSH1 0x2 PUSH1 0x0 SWAP1 SLOAD SWAP1 PUSH2 0x100 EXP SWAP1 DIV PUSH1 0xFF AND PUSH2 0x1565 JUMPI PUSH1 0x40 MLOAD PUSH32 0x8C379A000000000000000000000000000000000000000000000000000000000 DUP2 MSTORE PUSH1 0x4 ADD PUSH2 0x155C SWAP1 PUSH2 0x1D2B JUMP JUMPDEST PUSH1 0x40 MLOAD DUP1 SWAP2 SUB SWAP1 REVERT JUMPDEST DUP1 PUSH1 0x0 SWAP1 DUP2 PUSH2 0x1574 SWAP2 SWAP1 PUSH2 0x217D JUMP JUMPDEST POP POP JUMP JUMPDEST PUSH1 0x0 PUSH1 0x2 PUSH1 0x0 SWAP1 SLOAD SWAP1 PUSH2 0x100 EXP SWAP1 DIV PUSH1 0xFF AND SWAP1 POP SWAP1 JUMP JUMPDEST PUSH1 0x0 DUP2 MLOAD SWAP1 POP SWAP2 SWAP1 POP JUMP JUMPDEST PUSH1 0x0 DUP3 DUP3 MSTORE PUSH1 0x20 DUP3 ADD SWAP1 POP SWAP3 SWAP2 POP POP JUMP JUMPDEST PUSH1 0x0 JUMPDEST DUP4 DUP2 LT ISZERO PUSH2 0x15C9 JUMPI DUP1 DUP3 ADD MLOAD DUP2 DUP5 ADD MSTORE PUSH1 0x20 DUP2 ADD SWAP1 POP PUSH2 0x15AE JUMP JUMPDEST PUSH1 0x0 DUP5 DUP5 ADD MSTORE POP POP POP POP JUMP JUMPDEST PUSH1 0x0 PUSH1 0x1F NOT PUSH1 0x1F DUP4 ADD AND SWAP1 POP SWAP2 SWAP1 POP JUMP JUMPDEST PUSH1 0x0 PUSH2 0x15F1 DUP3 PUSH2 0x158F JUMP JUMPDEST PUSH2 0x15FB DUP2 DUP6 PUSH2 0x159A JUMP JUMPDEST SWAP4 POP PUSH2 0x160B DUP2 DUP6 PUSH1 0x20 DUP7 ADD PUSH2 0x15AB JUMP JUMPDEST PUSH2 0x1614 DUP2 PUSH2 0x15D5 JUMP JUMPDEST DUP5 ADD SWAP2 POP POP SWAP3 SWAP2 POP POP JUMP JUMPDEST PUSH1 0x0 PUSH1 0x20 DUP3 ADD SWAP1 POP DUP2 DUP2 SUB PUSH1 0x0 DUP4 ADD MSTORE PUSH2 0x1639 DUP2 DUP5 PUSH2 0x15E6 JUMP JUMPDEST SWAP1 POP SWAP3 SWAP2 POP POP JUMP JUMPDEST PUSH1 0x0 PUSH1 0x40 MLOAD SWAP1 POP SWAP1 JUMP JUMPDEST PUSH1 0x0 DUP1 REVERT JUMPDEST PUSH1 0x0 DUP1 REVERT JUMPDEST PUSH1 0x0 DUP2 SWAP1 POP SWAP2 SWAP1 POP JUMP JUMPDEST PUSH2 0x1668 DUP2 PUSH2 0x1655 JUMP JUMPDEST DUP2 EQ PUSH2 0x1673 JUMPI PUSH1 0x0 DUP1 REVERT JUMPDEST POP JUMP JUMPDEST PUSH1 0x0 DUP2 CALLDATALOAD SWAP1 POP PUSH2 0x1685 DUP2 PUSH2 0x165F JUMP JUMPDEST SWAP3 SWAP2 POP POP JUMP JUMPDEST PUSH1 0x0 PUSH1 0x20 DUP3 DUP5 SUB SLT ISZERO PUSH2 0x16A1 JUMPI PUSH2 0x16A0 PUSH2 0x164B JUMP JUMPDEST JUMPDEST PUSH1 0x0 PUSH2 0x16AF DUP5 DUP3 DUP6 ADD PUSH2 0x1676 JUMP JUMPDEST SWAP2 POP POP SWAP3 SWAP2 POP POP JUMP JUMPDEST PUSH1 0x0 DUP2 ISZERO ISZERO SWAP1 POP SWAP2 SWAP1 POP JUMP JUMPDEST PUSH2 0x16CD DUP2 PUSH2 0x16B8 JUMP JUMPDEST DUP3 MSTORE POP POP JUMP JUMPDEST PUSH1 0x0 PUSH1 0x20 DUP3 ADD SWAP1 POP PUSH2 0x16E8 PUSH1 0x0 DUP4 ADD DUP5 PUSH2 0x16C4 JUMP JUMPDEST SWAP3 SWAP2 POP POP JUMP JUMPDEST PUSH2 0x16F7 DUP2 PUSH2 0x16B8 JUMP JUMPDEST DUP2 EQ PUSH2 0x1702 JUMPI PUSH1 0x0 DUP1 REVERT JUMPDEST POP JUMP JUMPDEST PUSH1 0x0 DUP2 CALLDATALOAD SWAP1 POP PUSH2 0x1714 DUP2 PUSH2 0x16EE JUMP JUMPDEST SWAP3 SWAP2 POP POP JUMP JUMPDEST PUSH1 0x0 PUSH1 0x20 DUP3 DUP5 SUB SLT ISZERO PUSH2 0x1730 JUMPI PUSH2 0x172F PUSH2 0x164B JUMP JUMPDEST JUMPDEST PUSH1 0x0 PUSH2 0x173E DUP5 DUP3 DUP6 ADD PUSH2 0x1705 JUMP JUMPDEST SWAP2 POP POP SWAP3 SWAP2 POP POP JUMP JUMPDEST PUSH1 0x0 PUSH20 0xFFFFFFFFFFFFFFFFFFFFFFFFFFFFFFFFFFFFFFFF DUP3 AND SWAP1 POP SWAP2 SWAP1 POP JUMP JUMPDEST PUSH1 0x0 PUSH2 0x1772 DUP3 PUSH2 0x1747 JUMP JUMPDEST SWAP1 POP SWAP2 SWAP1 POP JUMP JUMPDEST PUSH2 0x1782 DUP2 PUSH2 0x1767 JUMP JUMPDEST DUP2 EQ PUSH2 0x178D JUMPI PUSH1 0x0 DUP1 REVERT JUMPDEST POP JUMP JUMPDEST PUSH1 0x0 DUP2 CALLDATALOAD SWAP1 POP PUSH2 0x179F DUP2 PUSH2 0x1779 JUMP JUMPDEST SWAP3 SWAP2 POP POP JUMP JUMPDEST PUSH1 0x0 DUP1 PUSH1 0x0 PUSH1 0x60 DUP5 DUP7 SUB SLT ISZERO PUSH2 0x17BE JUMPI PUSH2 0x17BD PUSH2 0x164B JUMP JUMPDEST JUMPDEST PUSH1 0x0 PUSH2 0x17CC DUP7 DUP3 DUP8 ADD PUSH2 0x1790 JUMP JUMPDEST SWAP4 POP POP PUSH1 0x20 PUSH2 0x17DD DUP7 DUP3 DUP8 ADD PUSH2 0x1676 JUMP JUMPDEST SWAP3 POP POP PUSH1 0x40 PUSH2 0x17EE DUP7 DUP3 DUP8 ADD PUSH2 0x1676 JUMP JUMPDEST SWAP2 POP POP SWAP3 POP SWAP3 POP SWAP3 JUMP JUMPDEST PUSH1 0x0 DUP2 MLOAD SWAP1 POP SWAP2 SWAP1 POP JUMP JUMPDEST PUSH1 0x0 DUP3 DUP3 MSTORE PUSH1 0x20 DUP3 ADD SWAP1 POP SWAP3 SWAP2 POP POP JUMP JUMPDEST PUSH1 0x0 DUP2 SWAP1 POP PUSH1 0x20 DUP3 ADD SWAP1 POP SWAP2 SWAP1 POP JUMP JUMPDEST PUSH2 0x182D DUP2 PUSH2 0x1767 JUMP JUMPDEST DUP3 MSTORE POP POP JUMP JUMPDEST PUSH1 0x0 PUSH2 0x183F DUP4 DUP4 PUSH2 0x1824 JUMP JUMPDEST PUSH1 0x20 DUP4 ADD SWAP1 POP SWAP3 SWAP2 POP POP JUMP JUMPDEST PUSH1 0x0 PUSH1 0x20 DUP3 ADD SWAP1 POP SWAP2 SWAP1 POP JUMP JUMPDEST PUSH1 0x0 PUSH2 0x1863 DUP3 PUSH2 0x17F8 JUMP JUMPDEST PUSH2 0x186D DUP2 DUP6 PUSH2 0x1803 JUMP JUMPDEST SWAP4 POP PUSH2 0x1878 DUP4 PUSH2 0x1814 JUMP JUMPDEST DUP1 PUSH1 0x0 JUMPDEST DUP4 DUP2 LT ISZERO PUSH2 0x18A9 JUMPI DUP2 MLOAD PUSH2 0x1890 DUP9 DUP3 PUSH2 0x1833 JUMP JUMPDEST SWAP8 POP PUSH2 0x189B DUP4 PUSH2 0x184B JUMP JUMPDEST SWAP3 POP POP PUSH1 0x1 DUP2 ADD SWAP1 POP PUSH2 0x187C JUMP JUMPDEST POP DUP6 SWAP4 POP POP POP POP SWAP3 SWAP2 POP POP JUMP JUMPDEST PUSH1 0x0 DUP2 MLOAD SWAP1 POP SWAP2 SWAP1 POP JUMP JUMPDEST PUSH1 0x0 DUP3 DUP3 MSTORE PUSH1 0x20 DUP3 ADD SWAP1 POP SWAP3 SWAP2 POP POP JUMP JUMPDEST PUSH1 0x0 DUP2 SWAP1 POP PUSH1 0x20 DUP3 ADD SWAP1 POP SWAP2 SWAP1 POP JUMP JUMPDEST PUSH2 0x18EB DUP2 PUSH2 0x1655 JUMP JUMPDEST DUP3 MSTORE POP POP JUMP JUMPDEST PUSH1 0x0 PUSH2 0x18FD DUP4 DUP4 PUSH2 0x18E2 JUMP JUMPDEST PUSH1 0x20 DUP4 ADD SWAP1 POP SWAP3 SWAP2 POP POP JUMP JUMPDEST PUSH1 0x0 PUSH1 0x20 DUP3 ADD SWAP1 POP SWAP2 SWAP1 POP JUMP JUMPDEST PUSH1 0x0 PUSH2 0x1921 DUP3 PUSH2 0x18B6 JUMP JUMPDEST PUSH2 0x192B DUP2 DUP6 PUSH2 0x18C1 JUMP JUMPDEST SWAP4 POP PUSH2 0x1936 DUP4 PUSH2 0x18D2 JUMP JUMPDEST DUP1 PUSH1 0x0 JUMPDEST DUP4 DUP2 LT ISZERO PUSH2 0x1967 JUMPI DUP2 MLOAD PUSH2 0x194E DUP9 DUP3 PUSH2 0x18F1 JUMP JUMPDEST SWAP8 POP PUSH2 0x1959 DUP4 PUSH2 0x1909 JUMP JUMPDEST SWAP3 POP POP PUSH1 0x1 DUP2 ADD SWAP1 POP PUSH2 0x193A JUMP JUMPDEST POP DUP6 SWAP4 POP POP POP POP SWAP3 SWAP2 POP POP JUMP JUMPDEST PUSH1 0x0 PUSH1 0xC0 DUP3 ADD SWAP1 POP DUP2 DUP2 SUB PUSH1 0x0 DUP4 ADD MSTORE PUSH2 0x198E DUP2 DUP10 PUSH2 0x1858 JUMP JUMPDEST SWAP1 POP DUP2 DUP2 SUB PUSH1 0x20 DUP4 ADD MSTORE PUSH2 0x19A2 DUP2 DUP9 PUSH2 0x1916 JUMP JUMPDEST SWAP1 POP DUP2 DUP2 SUB PUSH1 0x40 DUP4 ADD MSTORE PUSH2 0x19B6 DUP2 DUP8 PUSH2 0x1916 JUMP JUMPDEST SWAP1 POP DUP2 DUP2 SUB PUSH1 0x60 DUP4 ADD MSTORE PUSH2 0x19CA DUP2 DUP7 PUSH2 0x1916 JUMP JUMPDEST SWAP1 POP DUP2 DUP2 SUB PUSH1 0x80 DUP4 ADD MSTORE PUSH2 0x19DE DUP2 DUP6 PUSH2 0x1916 JUMP JUMPDEST SWAP1 POP DUP2 DUP2 SUB PUSH1 0xA0 DUP4 ADD MSTORE PUSH2 0x19F2 DUP2 DUP5 PUSH2 0x1916 JUMP JUMPDEST SWAP1 POP SWAP8 SWAP7 POP POP POP POP POP POP POP JUMP JUMPDEST PUSH2 0x1A08 DUP2 PUSH2 0x1767 JUMP JUMPDEST DUP3 MSTORE POP POP JUMP JUMPDEST PUSH1 0x0 PUSH1 0x20 DUP3 ADD SWAP1 POP PUSH2 0x1A23 PUSH1 0x0 DUP4 ADD DUP5 PUSH2 0x19FF JUMP JUMPDEST SWAP3 SWAP2 POP POP JUMP JUMPDEST PUSH1 0x0 DUP1 REVERT JUMPDEST PUSH1 0x0 DUP1 REVERT JUMPDEST PUSH32 0x4E487B7100000000000000000000000000000000000000000000000000000000 PUSH1 0x0 MSTORE PUSH1 0x41 PUSH1 0x4 MSTORE PUSH1 0x24 PUSH1 0x0 REVERT JUMPDEST PUSH2 0x1A6B DUP3 PUSH2 0x15D5 JUMP JUMPDEST DUP2 ADD DUP2 DUP2 LT PUSH8 0xFFFFFFFFFFFFFFFF DUP3 GT OR ISZERO PUSH2 0x1A8A JUMPI PUSH2 0x1A89 PUSH2 0x1A33 JUMP JUMPDEST JUMPDEST DUP1 PUSH1 0x40 MSTORE POP POP POP JUMP JUMPDEST PUSH1 0x0 PUSH2 0x1A9D PUSH2 0x1641 JUMP JUMPDEST SWAP1 POP PUSH2 0x1AA9 DUP3 DUP3 PUSH2 0x1A62 JUMP JUMPDEST SWAP2 SWAP1 POP JUMP JUMPDEST PUSH1 0x0 PUSH8 0xFFFFFFFFFFFFFFFF DUP3 GT ISZERO PUSH2 0x1AC9 JUMPI PUSH2 0x1AC8 PUSH2 0x1A33 JUMP JUMPDEST JUMPDEST PUSH2 0x1AD2 DUP3 PUSH2 0x15D5 JUMP JUMPDEST SWAP1 POP PUSH1 0x20 DUP2 ADD SWAP1 POP SWAP2 SWAP1 POP JUMP JUMPDEST DUP3 DUP2 DUP4 CALLDATACOPY PUSH1 0x0 DUP4 DUP4 ADD MSTORE POP POP POP JUMP JUMPDEST PUSH1 0x0 PUSH2 0x1B01 PUSH2 0x1AFC DUP5 PUSH2 0x1AAE JUMP JUMPDEST PUSH2 0x1A93 JUMP JUMPDEST SWAP1 POP DUP3 DUP2 MSTORE PUSH1 0x20 DUP2 ADD DUP5 DUP5 DUP5 ADD GT ISZERO PUSH2 0x1B1D JUMPI PUSH2 0x1B1C PUSH2 0x1A2E JUMP JUMPDEST JUMPDEST PUSH2 0x1B28 DUP5 DUP3 DUP6 PUSH2 0x1ADF JUMP JUMPDEST POP SWAP4 SWAP3 POP POP POP JUMP JUMPDEST PUSH1 0x0 DUP3 PUSH1 0x1F DUP4 ADD SLT PUSH2 0x1B45 JUMPI PUSH2 0x1B44 PUSH2 0x1A29 JUMP JUMPDEST JUMPDEST DUP2 CALLDATALOAD PUSH2 0x1B55 DUP5 DUP3 PUSH1 0x20 DUP7 ADD PUSH2 0x1AEE JUMP JUMPDEST SWAP2 POP POP SWAP3 SWAP2 POP POP JUMP JUMPDEST PUSH1 0x0 PUSH1 0x20 DUP3 DUP5 SUB SLT ISZERO PUSH2 0x1B74 JUMPI PUSH2 0x1B73 PUSH2 0x164B JUMP JUMPDEST JUMPDEST PUSH1 0x0 DUP3 ADD CALLDATALOAD PUSH8 0xFFFFFFFFFFFFFFFF DUP2 GT ISZERO PUSH2 0x1B92 JUMPI PUSH2 0x1B91 PUSH2 0x1650 JUMP JUMPDEST JUMPDEST PUSH2 0x1B9E DUP5 DUP3 DUP6 ADD PUSH2 0x1B30 JUMP JUMPDEST SWAP2 POP POP SWAP3 SWAP2 POP POP JUMP JUMPDEST PUSH32 0x4E487B7100000000000000000000000000000000000000000000000000000000 PUSH1 0x0 MSTORE PUSH1 0x22 PUSH1 0x4 MSTORE PUSH1 0x24 PUSH1 0x0 REVERT JUMPDEST PUSH1 0x0 PUSH1 0x2 DUP3 DIV SWAP1 POP PUSH1 0x1 DUP3 AND DUP1 PUSH2 0x1BEE JUMPI PUSH1 0x7F DUP3 AND SWAP2 POP JUMPDEST PUSH1 0x20 DUP3 LT DUP2 SUB PUSH2 0x1C01 JUMPI PUSH2 0x1C00 PUSH2 0x1BA7 JUMP JUMPDEST JUMPDEST POP SWAP2 SWAP1 POP JUMP JUMPDEST PUSH32 0x537562736372697074696F6E20646F6573206E6F742065786973740000000000 PUSH1 0x0 DUP3 ADD MSTORE POP JUMP JUMPDEST PUSH1 0x0 PUSH2 0x1C3D PUSH1 0x1B DUP4 PUSH2 0x159A JUMP JUMPDEST SWAP2 POP PUSH2 0x1C48 DUP3 PUSH2 0x1C07 JUMP JUMPDEST PUSH1 0x20 DUP3 ADD SWAP1 POP SWAP2 SWAP1 POP JUMP JUMPDEST PUSH1 0x0 PUSH1 0x20 DUP3 ADD SWAP1 POP DUP2 DUP2 SUB PUSH1 0x0 DUP4 ADD MSTORE PUSH2 0x1C6C DUP2 PUSH2 0x1C30 JUMP JUMPDEST SWAP1 POP SWAP2 SWAP1 POP JUMP JUMPDEST PUSH32 0x43616C6C6572206973206E6F7420746865207375627363726962657200000000 PUSH1 0x0 DUP3 ADD MSTORE POP JUMP JUMPDEST PUSH1 0x0 PUSH2 0x1CA9 PUSH1 0x1C DUP4 PUSH2 0x159A JUMP JUMPDEST SWAP2 POP PUSH2 0x1CB4 DUP3 PUSH2 0x1C73 JUMP JUMPDEST PUSH1 0x20 DUP3 ADD SWAP1 POP SWAP2 SWAP1 POP JUMP JUMPDEST PUSH1 0x0 PUSH1 0x20 DUP3 ADD SWAP1 POP DUP2 DUP2 SUB PUSH1 0x0 DUP4 ADD MSTORE PUSH2 0x1CD8 DUP2 PUSH2 0x1C9C JUMP JUMPDEST SWAP1 POP SWAP2 SWAP1 POP JUMP JUMPDEST PUSH32 0x53657276696365206973206E6F74206163746976650000000000000000000000 PUSH1 0x0 DUP3 ADD MSTORE POP JUMP JUMPDEST PUSH1 0x0 PUSH2 0x1D15 PUSH1 0x15 DUP4 PUSH2 0x159A JUMP JUMPDEST SWAP2 POP PUSH2 0x1D20 DUP3 PUSH2 0x1CDF JUMP JUMPDEST PUSH1 0x20 DUP3 ADD SWAP1 POP SWAP2 SWAP1 POP JUMP JUMPDEST PUSH1 0x0 PUSH1 0x20 DUP3 ADD SWAP1 POP DUP2 DUP2 SUB PUSH1 0x0 DUP4 ADD MSTORE PUSH2 0x1D44 DUP2 PUSH2 0x1D08 JUMP JUMPDEST SWAP1 POP SWAP2 SWAP1 POP JUMP JUMPDEST PUSH32 0x4E487B7100000000000000000000000000000000000000000000000000000000 PUSH1 0x0 MSTORE PUSH1 0x11 PUSH1 0x4 MSTORE PUSH1 0x24 PUSH1 0x0 REVERT JUMPDEST PUSH1 0x0 PUSH2 0x1D85 DUP3 PUSH2 0x1655 JUMP JUMPDEST SWAP2 POP PUSH2 0x1D90 DUP4 PUSH2 0x1655 JUMP JUMPDEST SWAP3 POP DUP3 DUP3 MUL PUSH2 0x1D9E DUP2 PUSH2 0x1655 JUMP JUMPDEST SWAP2 POP DUP3 DUP3 DIV DUP5 EQ DUP4 ISZERO OR PUSH2 0x1DB5 JUMPI PUSH2 0x1DB4 PUSH2 0x1D4B JUMP JUMPDEST JUMPDEST POP SWAP3 SWAP2 POP POP JUMP JUMPDEST PUSH32 0x5375627363726962657220616C72656164792068617320616E20616374697665 PUSH1 0x0 DUP3 ADD MSTORE PUSH32 0x20737562736372697074696F6E00000000000000000000000000000000000000 PUSH1 0x20 DUP3 ADD MSTORE POP JUMP JUMPDEST PUSH1 0x0 PUSH2 0x1E18 PUSH1 0x2D DUP4 PUSH2 0x159A JUMP JUMPDEST SWAP2 POP PUSH2 0x1E23 DUP3 PUSH2 0x1DBC JUMP JUMPDEST PUSH1 0x40 DUP3 ADD SWAP1 POP SWAP2 SWAP1 POP JUMP JUMPDEST PUSH1 0x0 PUSH1 0x20 DUP3 ADD SWAP1 POP DUP2 DUP2 SUB PUSH1 0x0 DUP4 ADD MSTORE PUSH2 0x1E47 DUP2 PUSH2 0x1E0B JUMP JUMPDEST SWAP1 POP SWAP2 SWAP1 POP JUMP JUMPDEST PUSH1 0x0 PUSH2 0x1E59 DUP3 PUSH2 0x1655 JUMP JUMPDEST SWAP2 POP PUSH32 0xFFFFFFFFFFFFFFFFFFFFFFFFFFFFFFFFFFFFFFFFFFFFFFFFFFFFFFFFFFFFFFFF DUP3 SUB PUSH2 0x1E8B JUMPI PUSH2 0x1E8A PUSH2 0x1D4B JUMP JUMPDEST JUMPDEST PUSH1 0x1 DUP3 ADD SWAP1 POP SWAP2 SWAP1 POP JUMP JUMPDEST PUSH32 0x56616C7565206D7573742062652067726561746572207468616E207A65726F00 PUSH1 0x0 DUP3 ADD MSTORE POP JUMP JUMPDEST PUSH1 0x0 PUSH2 0x1ECC PUSH1 0x1F DUP4 PUSH2 0x159A JUMP JUMPDEST SWAP2 POP PUSH2 0x1ED7 DUP3 PUSH2 0x1E96 JUMP JUMPDEST PUSH1 0x20 DUP3 ADD SWAP1 POP SWAP2 SWAP1 POP JUMP JUMPDEST PUSH1 0x0 PUSH1 0x20 DUP3 ADD SWAP1 POP DUP2 DUP2 SUB PUSH1 0x0 DUP4 ADD MSTORE PUSH2 0x1EFB DUP2 PUSH2 0x1EBF JUMP JUMPDEST SWAP1 POP SWAP2 SWAP1 POP JUMP JUMPDEST PUSH1 0x0 PUSH2 0x1F0D DUP3 PUSH2 0x1655 JUMP JUMPDEST SWAP2 POP PUSH2 0x1F18 DUP4 PUSH2 0x1655 JUMP JUMPDEST SWAP3 POP DUP3 DUP3 ADD SWAP1 POP DUP1 DUP3 GT ISZERO PUSH2 0x1F30 JUMPI PUSH2 0x1F2F PUSH2 0x1D4B JUMP JUMPDEST JUMPDEST SWAP3 SWAP2 POP POP JUMP JUMPDEST PUSH32 0x4E487B7100000000000000000000000000000000000000000000000000000000 PUSH1 0x0 MSTORE PUSH1 0x32 PUSH1 0x4 MSTORE PUSH1 0x24 PUSH1 0x0 REVERT JUMPDEST PUSH32 0x496E76616C696420616D6F756E74000000000000000000000000000000000000 PUSH1 0x0 DUP3 ADD MSTORE POP JUMP JUMPDEST PUSH1 0x0 PUSH2 0x1F9B PUSH1 0xE DUP4 PUSH2 0x159A JUMP JUMPDEST SWAP2 POP PUSH2 0x1FA6 DUP3 PUSH2 0x1F65 JUMP JUMPDEST PUSH1 0x20 DUP3 ADD SWAP1 POP SWAP2 SWAP1 POP JUMP JUMPDEST PUSH1 0x0 PUSH1 0x20 DUP3 ADD SWAP1 POP DUP2 DUP2 SUB PUSH1 0x0 DUP4 ADD MSTORE PUSH2 0x1FCA DUP2 PUSH2 0x1F8E JUMP JUMPDEST SWAP1 POP SWAP2 SWAP1 POP JUMP JUMPDEST PUSH1 0x0 DUP2 SWAP1 POP DUP2 PUSH1 0x0 MSTORE PUSH1 0x20 PUSH1 0x0 KECCAK256 SWAP1 POP SWAP2 SWAP1 POP JUMP JUMPDEST PUSH1 0x0 PUSH1 0x20 PUSH1 0x1F DUP4 ADD DIV SWAP1 POP SWAP2 SWAP1 POP JUMP JUMPDEST PUSH1 0x0 DUP3 DUP3 SHL SWAP1 POP SWAP3 SWAP2 POP POP JUMP JUMPDEST PUSH1 0x0 PUSH1 0x8 DUP4 MUL PUSH2 0x2033 PUSH32 0xFFFFFFFFFFFFFFFFFFFFFFFFFFFFFFFFFFFFFFFFFFFFFFFFFFFFFFFFFFFFFFFF DUP3 PUSH2 0x1FF6 JUMP JUMPDEST PUSH2 0x203D DUP7 DUP4 PUSH2 0x1FF6 JUMP JUMPDEST SWAP6 POP DUP1 NOT DUP5 AND SWAP4 POP DUP1 DUP7 AND DUP5 OR SWAP3 POP POP POP SWAP4 SWAP3 POP POP POP JUMP JUMPDEST PUSH1 0x0 DUP2 SWAP1 POP SWAP2 SWAP1 POP JUMP JUMPDEST PUSH1 0x0 PUSH2 0x207A PUSH2 0x2075 PUSH2 0x2070 DUP5 PUSH2 0x1655 JUMP JUMPDEST PUSH2 0x2055 JUMP JUMPDEST PUSH2 0x1655 JUMP JUMPDEST SWAP1 POP SWAP2 SWAP1 POP JUMP JUMPDEST PUSH1 0x0 DUP2 SWAP1 POP SWAP2 SWAP1 POP JUMP JUMPDEST PUSH2 0x2094 DUP4 PUSH2 0x205F JUMP JUMPDEST PUSH2 0x20A8 PUSH2 0x20A0 DUP3 PUSH2 0x2081 JUMP JUMPDEST DUP5 DUP5 SLOAD PUSH2 0x2003 JUMP JUMPDEST DUP3 SSTORE POP POP POP POP JUMP JUMPDEST PUSH1 0x0 SWAP1 JUMP JUMPDEST PUSH2 0x20BD PUSH2 0x20B0 JUMP JUMPDEST PUSH2 0x20C8 DUP2 DUP5 DUP5 PUSH2 0x208B JUMP JUMPDEST POP POP POP JUMP JUMPDEST JUMPDEST DUP2 DUP2 LT ISZERO PUSH2 0x20EC JUMPI PUSH2 0x20E1 PUSH1 0x0 DUP3 PUSH2 0x20B5 JUMP JUMPDEST PUSH1 0x1 DUP2 ADD SWAP1 POP PUSH2 0x20CE JUMP JUMPDEST POP POP JUMP JUMPDEST PUSH1 0x1F DUP3 GT ISZERO PUSH2 0x2131 JUMPI PUSH2 0x2102 DUP2 PUSH2 0x1FD1 JUMP JUMPDEST PUSH2 0x210B DUP5 PUSH2 0x1FE6 JUMP JUMPDEST DUP2 ADD PUSH1 0x20 DUP6 LT ISZERO PUSH2 0x211A JUMPI DUP2 SWAP1 POP JUMPDEST PUSH2 0x212E PUSH2 0x2126 DUP6 PUSH2 0x1FE6 JUMP JUMPDEST DUP4 ADD DUP3 PUSH2 0x20CD JUMP JUMPDEST POP POP JUMPDEST POP POP POP JUMP JUMPDEST PUSH1 0x0 DUP3 DUP3 SHR SWAP1 POP SWAP3 SWAP2 POP POP JUMP JUMPDEST PUSH1 0x0 PUSH2 0x2154 PUSH1 0x0 NOT DUP5 PUSH1 0x8 MUL PUSH2 0x2136 JUMP JUMPDEST NOT DUP1 DUP4 AND SWAP2 POP POP SWAP3 SWAP2 POP POP JUMP JUMPDEST PUSH1 0x0 PUSH2 0x216D DUP4 DUP4 PUSH2 0x2143 JUMP JUMPDEST SWAP2 POP DUP3 PUSH1 0x2 MUL DUP3 OR SWAP1 POP SWAP3 SWAP2 POP POP JUMP JUMPDEST PUSH2 0x2186 DUP3 PUSH2 0x158F JUMP JUMPDEST PUSH8 0xFFFFFFFFFFFFFFFF DUP2 GT ISZERO PUSH2 0x219F JUMPI PUSH2 0x219E PUSH2 0x1A33 JUMP JUMPDEST JUMPDEST PUSH2 0x21A9 DUP3 SLOAD PUSH2 0x1BD6 JUMP JUMPDEST PUSH2 0x21B4 DUP3 DUP3 DUP6 PUSH2 0x20F0 JUMP JUMPDEST PUSH1 0x0 PUSH1 0x20 SWAP1 POP PUSH1 0x1F DUP4 GT PUSH1 0x1 DUP2 EQ PUSH2 0x21E7 JUMPI PUSH1 0x0 DUP5 ISZERO PUSH2 0x21D5 JUMPI DUP3 DUP8 ADD MLOAD SWAP1 POP JUMPDEST PUSH2 0x21DF DUP6 DUP3 PUSH2 0x2161 JUMP JUMPDEST DUP7 SSTORE POP PUSH2 0x2247 JUMP JUMPDEST PUSH1 0x1F NOT DUP5 AND PUSH2 0x21F5 DUP7 PUSH2 0x1FD1 JUMP JUMPDEST PUSH1 0x0 JUMPDEST DUP3 DUP2 LT ISZERO PUSH2 0x221D JUMPI DUP5 DUP10 ADD MLOAD DUP3 SSTORE PUSH1 0x1 DUP3 ADD SWAP2 POP PUSH1 0x20 DUP6 ADD SWAP5 POP PUSH1 0x20 DUP2 ADD SWAP1 POP PUSH2 0x21F8 JUMP JUMPDEST DUP7 DUP4 LT ISZERO PUSH2 0x223A JUMPI DUP5 DUP10 ADD MLOAD PUSH2 0x2236 PUSH1 0x1F DUP10 AND DUP3 PUSH2 0x2143 JUMP JUMPDEST DUP4 SSTORE POP JUMPDEST PUSH1 0x1 PUSH1 0x2 DUP9 MUL ADD DUP9 SSTORE POP POP POP JUMPDEST POP POP POP POP POP POP JUMP INVALID LOG2 PUSH5 0x6970667358 0x22 SLT KECCAK256 0x4A PUSH0 0xE3 0xB8 0x29 DUP9 0xAE 0xD1 0xB8 DIV PUSH0 0xE7 0xB5 0xA5 XOR 0x28 0xC7 DUP6 PUSH16 0x7A2A309B9A78621AFB17BBD0C764736F PUSH13 0x63430008140033A26469706673 PC 0x22 SLT KECCAK256 SUB PUSH19 0x24BCFFD6FEF459FE21C11FA4197A57691C04D9 0xFB SELFDESTRUCT 0x4A 0xC6 GASLIMIT MULMOD 0xD 0xCE 0xC 0xE1 0x2E PUSH5 0x736F6C6343 STOP ADDMOD EQ STOP CALLER "},"methodIdentifiers":{"createService(string,string)":"6a5e1f92","deactivateService(address)":"71edce7c","getServicesAddresses()":"bd5ec58f","services(uint256)":"c22c4f43","updateService(address,string,string)":"b35b7649"}}}}}