{"contracts/ServiceFactory.sol":{"ServiceFactory":{"abi":[{"inputs":[],"stateMutability":"nonpayable","type":"constructor"},{"anonymous":false,"inputs":[{"indexed":false,"internalType":"address","name":"serviceAddress","type":"address"}],"name":"ServiceCreated","type":"event"},{"anonymous":false,"inputs":[{"indexed":false,"internalType":"address","name":"serviceAddress","type":"address"}],"name":"ServiceNotFound","type":"event"},{"inputs":[{"internalType":"string","name":"_servicename","type":"string"}],"name":"checkNameAvailability","outputs":[{"internalType":"bool","name":"","type":"bool"}],"stateMutability":"view","type":"function"},{"inputs":[],"name":"checkServices","outputs":[],"stateMutability":"nonpayable","type":"function"},{"inputs":[{"internalType":"string","name":"_servicename","type":"string"},{"internalType":"string","name":"_servicedescription","type":"string"}],"name":"createService","outputs":[],"stateMutability":"nonpayable","type":"function"},{"inputs":[],"name":"getServicesAddresses","outputs":[{"internalType":"address[]","name":"","type":"address[]"}],"stateMutability":"view","type":"function"},{"inputs":[{"internalType":"uint256","name":"","type":"uint256"}],"name":"services","outputs":[{"internalType":"contract Service","name":"","type":"address"}],"stateMutability":"view","type":"function"}],"evm":{"bytecode":{"linkReferences":{},"object":"608060405234801561001057600080fd5b506143cd806100206000396000f3fe60806040523480156200001157600080fd5b50600436106200005e5760003560e01c80636a5e1f921462000063578063a6a46ccb1462000083578063bd5ec58f146200008f578063c22c4f4314620000b1578063eabfca6914620000e7575b600080fd5b6200008160048036038101906200007b91906200089f565b6200011d565b005b6200008d62000375565b005b6200009962000442565b604051620000a8919062000a26565b60405180910390f35b620000cf6004803603810190620000c9919062000a85565b6200055a565b604051620000de919062000b22565b60405180910390f35b620001056004803603810190620000ff919062000b3f565b6200059a565b60405162000114919062000bad565b60405180910390f35b8160005b60008054905081101562000291578160405160200162000142919062000c43565b60405160208183030381529060405280519060200120600082815481106200016f576200016e62000c5c565b5b9060005260206000200160009054906101000a900473ffffffffffffffffffffffffffffffffffffffff1673ffffffffffffffffffffffffffffffffffffffff166317d7de7c6040518163ffffffff1660e01b8152600401600060405180830381865afa158015620001e5573d6000803e3d6000fd5b505050506040513d6000823e3d601f19601f8201168201806040525081019062000210919062000d09565b60405160200162000222919062000c43565b60405160208183030381529060405280519060200120036200027b576040517f08c379a0000000000000000000000000000000000000000000000000000000008152600401620002729062000dbb565b60405180910390fd5b8080620002889062000e0c565b91505062000121565b506000338484604051620002a5906200071b565b620002b39392919062000eab565b604051809103906000f080158015620002d0573d6000803e3d6000fd5b5090506000819080600181540180825580915050600190039060005260206000200160009091909190916101000a81548173ffffffffffffffffffffffffffffffffffffffff021916908373ffffffffffffffffffffffffffffffffffffffff1602179055507fae046aa848296872ccdf284df55df8650f0cf3addb0f62eb26d9a10112c744508160405162000367919062000ef6565b60405180910390a150505050565b60005b6000805490508110156200043f57600081815481106200039d576200039c62000c5c565b5b9060005260206000200160009054906101000a900473ffffffffffffffffffffffffffffffffffffffff1673ffffffffffffffffffffffffffffffffffffffff1663c82494a26040518163ffffffff1660e01b8152600401600060405180830381600087803b1580156200041057600080fd5b505af115801562000425573d6000803e3d6000fd5b505050508080620004369062000e0c565b91505062000378565b50565b60606000808054905067ffffffffffffffff81111562000467576200046662000758565b5b604051908082528060200260200182016040528015620004965781602001602082028036833780820191505090505b50905060005b600080549050811015620005525760008181548110620004c157620004c062000c5c565b5b9060005260206000200160009054906101000a900473ffffffffffffffffffffffffffffffffffffffff1682828151811062000502576200050162000c5c565b5b602002602001019073ffffffffffffffffffffffffffffffffffffffff16908173ffffffffffffffffffffffffffffffffffffffff16815250508080620005499062000e0c565b9150506200049c565b508091505090565b600081815481106200056b57600080fd5b906000526020600020016000915054906101000a900473ffffffffffffffffffffffffffffffffffffffff1681565b60008160005b600080549050811015620007105781604051602001620005c1919062000c43565b6040516020818303038152906040528051906020012060008281548110620005ee57620005ed62000c5c565b5b9060005260206000200160009054906101000a900473ffffffffffffffffffffffffffffffffffffffff1673ffffffffffffffffffffffffffffffffffffffff166317d7de7c6040518163ffffffff1660e01b8152600401600060405180830381865afa15801562000664573d6000803e3d6000fd5b505050506040513d6000823e3d601f19601f820116820180604052508101906200068f919062000d09565b604051602001620006a1919062000c43565b6040516020818303038152906040528051906020012003620006fa576040517f08c379a0000000000000000000000000000000000000000000000000000000008152600401620006f19062000dbb565b60405180910390fd5b8080620007079062000e0c565b915050620005a0565b506001915050919050565b6134848062000f1483390190565b6000604051905090565b600080fd5b600080fd5b600080fd5b600080fd5b6000601f19601f8301169050919050565b7f4e487b7100000000000000000000000000000000000000000000000000000000600052604160045260246000fd5b620007928262000747565b810181811067ffffffffffffffff82111715620007b457620007b362000758565b5b80604052505050565b6000620007c962000729565b9050620007d7828262000787565b919050565b600067ffffffffffffffff821115620007fa57620007f962000758565b5b620008058262000747565b9050602081019050919050565b82818337600083830152505050565b6000620008386200083284620007dc565b620007bd565b90508281526020810184848401111562000857576200085662000742565b5b6200086484828562000812565b509392505050565b600082601f8301126200088457620008836200073d565b5b81356200089684826020860162000821565b91505092915050565b60008060408385031215620008b957620008b862000733565b5b600083013567ffffffffffffffff811115620008da57620008d962000738565b5b620008e8858286016200086c565b925050602083013567ffffffffffffffff8111156200090c576200090b62000738565b5b6200091a858286016200086c565b9150509250929050565b600081519050919050565b600082825260208201905092915050565b6000819050602082019050919050565b600073ffffffffffffffffffffffffffffffffffffffff82169050919050565b60006200097d8262000950565b9050919050565b6200098f8162000970565b82525050565b6000620009a3838362000984565b60208301905092915050565b6000602082019050919050565b6000620009c98262000924565b620009d581856200092f565b9350620009e28362000940565b8060005b8381101562000a19578151620009fd888262000995565b975062000a0a83620009af565b925050600181019050620009e6565b5085935050505092915050565b6000602082019050818103600083015262000a428184620009bc565b905092915050565b6000819050919050565b62000a5f8162000a4a565b811462000a6b57600080fd5b50565b60008135905062000a7f8162000a54565b92915050565b60006020828403121562000a9e5762000a9d62000733565b5b600062000aae8482850162000a6e565b91505092915050565b6000819050919050565b600062000ae262000adc62000ad68462000950565b62000ab7565b62000950565b9050919050565b600062000af68262000ac1565b9050919050565b600062000b0a8262000ae9565b9050919050565b62000b1c8162000afd565b82525050565b600060208201905062000b39600083018462000b11565b92915050565b60006020828403121562000b585762000b5762000733565b5b600082013567ffffffffffffffff81111562000b795762000b7862000738565b5b62000b87848285016200086c565b91505092915050565b60008115159050919050565b62000ba78162000b90565b82525050565b600060208201905062000bc4600083018462000b9c565b92915050565b600081519050919050565b600081905092915050565b60005b8381101562000c0057808201518184015260208101905062000be3565b60008484015250505050565b600062000c198262000bca565b62000c25818562000bd5565b935062000c3781856020860162000be0565b80840191505092915050565b600062000c51828462000c0c565b915081905092915050565b7f4e487b7100000000000000000000000000000000000000000000000000000000600052603260045260246000fd5b600062000ca262000c9c84620007dc565b620007bd565b90508281526020810184848401111562000cc15762000cc062000742565b5b62000cce84828562000be0565b509392505050565b600082601f83011262000cee5762000ced6200073d565b5b815162000d0084826020860162000c8b565b91505092915050565b60006020828403121562000d225762000d2162000733565b5b600082015167ffffffffffffffff81111562000d435762000d4262000738565b5b62000d518482850162000cd6565b91505092915050565b600082825260208201905092915050565b7f53657276696365206e616d6520697320616c72656164792074616b656e000000600082015250565b600062000da3601d8362000d5a565b915062000db08262000d6b565b602082019050919050565b6000602082019050818103600083015262000dd68162000d94565b9050919050565b7f4e487b7100000000000000000000000000000000000000000000000000000000600052601160045260246000fd5b600062000e198262000a4a565b91507fffffffffffffffffffffffffffffffffffffffffffffffffffffffffffffffff820362000e4e5762000e4d62000ddd565b5b600182019050919050565b62000e648162000970565b82525050565b600062000e778262000bca565b62000e83818562000d5a565b935062000e9581856020860162000be0565b62000ea08162000747565b840191505092915050565b600060608201905062000ec2600083018662000e59565b818103602083015262000ed6818562000e6a565b9050818103604083015262000eec818462000e6a565b9050949350505050565b600060208201905062000f0d600083018462000e59565b9291505056fe60a06040526001600260006101000a81548160ff02191690831515021790555060006003553480156200003157600080fd5b5060405162003484380380620034848339818101604052810190620000579190620002b0565b8273ffffffffffffffffffffffffffffffffffffffff1660808173ffffffffffffffffffffffffffffffffffffffff168152505081600090816200009c919062000595565b508060019081620000ae919062000595565b505050506200067c565b6000604051905090565b600080fd5b600080fd5b600073ffffffffffffffffffffffffffffffffffffffff82169050919050565b6000620000f982620000cc565b9050919050565b6200010b81620000ec565b81146200011757600080fd5b50565b6000815190506200012b8162000100565b92915050565b600080fd5b600080fd5b6000601f19601f8301169050919050565b7f4e487b7100000000000000000000000000000000000000000000000000000000600052604160045260246000fd5b62000186826200013b565b810181811067ffffffffffffffff82111715620001a857620001a76200014c565b5b80604052505050565b6000620001bd620000b8565b9050620001cb82826200017b565b919050565b600067ffffffffffffffff821115620001ee57620001ed6200014c565b5b620001f9826200013b565b9050602081019050919050565b60005b838110156200022657808201518184015260208101905062000209565b60008484015250505050565b6000620002496200024384620001d0565b620001b1565b90508281526020810184848401111562000268576200026762000136565b5b6200027584828562000206565b509392505050565b600082601f83011262000295576200029462000131565b5b8151620002a784826020860162000232565b91505092915050565b600080600060608486031215620002cc57620002cb620000c2565b5b6000620002dc868287016200011a565b935050602084015167ffffffffffffffff8111156200030057620002ff620000c7565b5b6200030e868287016200027d565b925050604084015167ffffffffffffffff811115620003325762000331620000c7565b5b62000340868287016200027d565b9150509250925092565b600081519050919050565b7f4e487b7100000000000000000000000000000000000000000000000000000000600052602260045260246000fd5b600060028204905060018216806200039d57607f821691505b602082108103620003b357620003b262000355565b5b50919050565b60008190508160005260206000209050919050565b60006020601f8301049050919050565b600082821b905092915050565b6000600883026200041d7fffffffffffffffffffffffffffffffffffffffffffffffffffffffffffffffff82620003de565b620004298683620003de565b95508019841693508086168417925050509392505050565b6000819050919050565b6000819050919050565b600062000476620004706200046a8462000441565b6200044b565b62000441565b9050919050565b6000819050919050565b620004928362000455565b620004aa620004a1826200047d565b848454620003eb565b825550505050565b600090565b620004c1620004b2565b620004ce81848462000487565b505050565b5b81811015620004f657620004ea600082620004b7565b600181019050620004d4565b5050565b601f82111562000545576200050f81620003b9565b6200051a84620003ce565b810160208510156200052a578190505b620005426200053985620003ce565b830182620004d3565b50505b505050565b600082821c905092915050565b60006200056a600019846008026200054a565b1980831691505092915050565b600062000585838362000557565b9150826002028217905092915050565b620005a0826200034a565b67ffffffffffffffff811115620005bc57620005bb6200014c565b5b620005c8825462000384565b620005d5828285620004fa565b600060209050601f8311600181146200060d5760008415620005f8578287015190505b62000604858262000577565b86555062000674565b601f1984166200061d86620003b9565b60005b82811015620006475784890151825560018201915060208501945060208101905062000620565b8683101562000667578489015162000663601f89168262000557565b8355505b6001600288020188555050505b505050505050565b608051612dbb620006c96000396000818161068e01528181610818015281816111f7015281816114d20152818161170601528181611a2901528181611b190152611c4a0152612dbb6000f3fe6080604052600436106101095760003560e01c80637284e4161161009557806390c3f38f1161006457806390c3f38f1461031d578063a4f96c0c14610346578063c47f00271461035d578063c82494a214610386578063fba7cc791461039d57610109565b80637284e416146102825780637ac9b098146102ad578063893d20e8146102c95780638a2405a8146102f457610109565b806322f3e2d4116100dc57806322f3e2d4146101b85780632750fc78146101e35780633399d3891461020c5780633b47a9ac14610228578063718b57dc1461025957610109565b806306fdde031461010e57806317d7de7c146101395780631a09254114610164578063212350831461018f575b600080fd5b34801561011a57600080fd5b506101236103c8565b6040516101309190611e6d565b60405180910390f35b34801561014557600080fd5b5061014e610456565b60405161015b9190611e6d565b60405180910390f35b34801561017057600080fd5b506101796104e8565b6040516101869190611e6d565b60405180910390f35b34801561019b57600080fd5b506101b660048036038101906101b19190611ed9565b61057a565b005b3480156101c457600080fd5b506101cd610803565b6040516101da9190611f21565b60405180910390f35b3480156101ef57600080fd5b5061020a60048036038101906102059190611f68565b610816565b005b61022660048036038101906102219190611ff3565b6108c1565b005b34801561023457600080fd5b5061023d610bef565b60405161025097969594939291906122ce565b60405180910390f35b34801561026557600080fd5b50610280600480360381019061027b91906124a3565b6111f5565b005b34801561028e57600080fd5b50610297611330565b6040516102a49190611e6d565b60405180910390f35b6102c760048036038101906102c29190611ed9565b6113be565b005b3480156102d557600080fd5b506102de611702565b6040516102eb919061252a565b60405180910390f35b34801561030057600080fd5b5061031b60048036038101906103169190611ff3565b61172a565b005b34801561032957600080fd5b50610344600480360381019061033f9190612545565b611a27565b005b34801561035257600080fd5b5061035b611b17565b005b34801561036957600080fd5b50610384600480360381019061037f9190612545565b611c48565b005b34801561039257600080fd5b5061039b611d38565b005b3480156103a957600080fd5b506103b2611dc6565b6040516103bf9190611f21565b60405180910390f35b600080546103d5906125bd565b80601f0160208091040260200160405190810160405280929190818152602001828054610401906125bd565b801561044e5780601f106104235761010080835404028352916020019161044e565b820191906000526020600020905b81548152906001019060200180831161043157829003601f168201915b505050505081565b606060008054610465906125bd565b80601f0160208091040260200160405190810160405280929190818152602001828054610491906125bd565b80156104de5780601f106104b3576101008083540402835291602001916104de565b820191906000526020600020905b8154815290600101906020018083116104c157829003601f168201915b5050505050905090565b6060600180546104f7906125bd565b80601f0160208091040260200160405190810160405280929190818152602001828054610523906125bd565b80156105705780601f1061054557610100808354040283529160200191610570565b820191906000526020600020905b81548152906001019060200180831161055357829003601f168201915b5050505050905090565b80600073ffffffffffffffffffffffffffffffffffffffff166004600083815260200190815260200160002060000160009054906101000a900473ffffffffffffffffffffffffffffffffffffffff1673ffffffffffffffffffffffffffffffffffffffff1603610620576040517f08c379a00000000000000000000000000000000000000000000000000000000081526004016106179061263a565b60405180910390fd5b813373ffffffffffffffffffffffffffffffffffffffff166004600083815260200190815260200160002060000160009054906101000a900473ffffffffffffffffffffffffffffffffffffffff1673ffffffffffffffffffffffffffffffffffffffff1614806106dc57507f000000000000000000000000000000000000000000000000000000000000000073ffffffffffffffffffffffffffffffffffffffff163373ffffffffffffffffffffffffffffffffffffffff16145b61071b576040517f08c379a0000000000000000000000000000000000000000000000000000000008152600401610712906126a6565b60405180910390fd5b600260009054906101000a900460ff1661076a576040517f08c379a000000000000000000000000000000000000000000000000000000000815260040161076190612712565b60405180910390fd5b6103e8426107789190612761565b600460008581526020019081526020016000206005018190555060036004600085815260200190815260200160002060060160006101000a81548160ff021916908360038111156107cc576107cb6127a3565b5b0217905550827fbd2bcea75d16a85f005cd83447e0de57341bf926fe7419e6d553663e91ab4da760405160405180910390a2505050565b600260009054906101000a900460ff1681565b7f000000000000000000000000000000000000000000000000000000000000000073ffffffffffffffffffffffffffffffffffffffff163373ffffffffffffffffffffffffffffffffffffffff16146108a4576040517f08c379a000000000000000000000000000000000000000000000000000000000815260040161089b9061281e565b60405180910390fd5b80600260006101000a81548160ff02191690831515021790555050565b8260005b6003548110156109b5578173ffffffffffffffffffffffffffffffffffffffff166004600083815260200190815260200160002060000160009054906101000a900473ffffffffffffffffffffffffffffffffffffffff1673ffffffffffffffffffffffffffffffffffffffff16148015610962575060046000828152602001908152602001600020600501546103e8426109609190612761565b105b156109a2576040517f08c379a0000000000000000000000000000000000000000000000000000000008152600401610999906128b0565b60405180910390fd5b80806109ad906128d0565b9150506108c5565b5082600081116109fa576040517f08c379a00000000000000000000000000000000000000000000000000000000081526004016109f190612964565b60405180910390fd5b600260009054906101000a900460ff16610a49576040517f08c379a0000000000000000000000000000000000000000000000000000000008152600401610a4090612712565b60405180910390fd5b60006040518060e001604052808773ffffffffffffffffffffffffffffffffffffffff16815260200160035481526020018681526020018581526020016103e842610a949190612761565b81526020016103e86201518087610aab9190612761565b42610ab69190612984565b610ac09190612761565b815260200160016003811115610ad957610ad86127a3565b5b81525090508060046000600354815260200190815260200160002060008201518160000160006101000a81548173ffffffffffffffffffffffffffffffffffffffff021916908373ffffffffffffffffffffffffffffffffffffffff1602179055506020820151816001015560408201518160020155606082015181600301556080820151816004015560a0820151816005015560c08201518160060160006101000a81548160ff02191690836003811115610b9857610b976127a3565b5b02179055509050506003547ffc92a747fa9c2199bb773d08eb7a76c871b1c9b634b5a1afc3cc4ccc643032e660405160405180910390a260036000815480929190610be2906128d0565b9190505550505050505050565b6060806060806060806060600060035467ffffffffffffffff811115610c1857610c17612378565b5b604051908082528060200260200182016040528015610c465781602001602082028036833780820191505090505b509050600060035467ffffffffffffffff811115610c6757610c66612378565b5b604051908082528060200260200182016040528015610c955781602001602082028036833780820191505090505b509050600060035467ffffffffffffffff811115610cb657610cb5612378565b5b604051908082528060200260200182016040528015610ce45781602001602082028036833780820191505090505b509050600060035467ffffffffffffffff811115610d0557610d04612378565b5b604051908082528060200260200182016040528015610d335781602001602082028036833780820191505090505b509050600060035467ffffffffffffffff811115610d5457610d53612378565b5b604051908082528060200260200182016040528015610d825781602001602082028036833780820191505090505b509050600060035467ffffffffffffffff811115610da357610da2612378565b5b604051908082528060200260200182016040528015610dd15781602001602082028036833780820191505090505b509050600060035467ffffffffffffffff811115610df257610df1612378565b5b604051908082528060200260200182016040528015610e2557816020015b6060815260200190600190039081610e105790505b50905060005b6003548110156111cf576004600082815260200190815260200160002060000160009054906101000a900473ffffffffffffffffffffffffffffffffffffffff16888281518110610e7f57610e7e6129b8565b5b602002602001019073ffffffffffffffffffffffffffffffffffffffff16908173ffffffffffffffffffffffffffffffffffffffff16815250506004600082815260200190815260200160002060010154878281518110610ee357610ee26129b8565b5b6020026020010181815250506004600082815260200190815260200160002060020154868281518110610f1957610f186129b8565b5b6020026020010181815250506004600082815260200190815260200160002060030154858281518110610f4f57610f4e6129b8565b5b6020026020010181815250506004600082815260200190815260200160002060040154848281518110610f8557610f846129b8565b5b6020026020010181815250506004600082815260200190815260200160002060050154838281518110610fbb57610fba6129b8565b5b60200260200101818152505060006003811115610fdb57610fda6127a3565b5b6004600083815260200190815260200160002060060160009054906101000a900460ff166003811115611011576110106127a3565b5b14611167576001600381111561102a576110296127a3565b5b6004600083815260200190815260200160002060060160009054906101000a900460ff1660038111156110605761105f6127a3565b5b1461112b5760026003811115611079576110786127a3565b5b6004600083815260200190815260200160002060060160009054906101000a900460ff1660038111156110af576110ae6127a3565b5b146110ef576040518060400160405280600981526020017f43616e63656c6c65640000000000000000000000000000000000000000000000815250611126565b6040518060400160405280600781526020017f45787069726564000000000000000000000000000000000000000000000000008152505b611162565b6040518060400160405280600781526020017f4f6e676f696e67000000000000000000000000000000000000000000000000008152505b61119e565b6040518060400160405280600381526020017f4e657700000000000000000000000000000000000000000000000000000000008152505b8282815181106111b1576111b06129b8565b5b602002602001018190525080806111c7906128d0565b915050610e2b565b50868686868686869d509d509d509d509d509d509d505050505050505090919293949596565b7f000000000000000000000000000000000000000000000000000000000000000073ffffffffffffffffffffffffffffffffffffffff163373ffffffffffffffffffffffffffffffffffffffff1614611283576040517f08c379a000000000000000000000000000000000000000000000000000000000815260040161127a9061281e565b60405180910390fd5b600260009054906101000a900460ff166112d2576040517f08c379a00000000000000000000000000000000000000000000000000000000081526004016112c990612712565b60405180910390fd5b81600090816112e19190612b93565b5080600190816112f19190612b93565b507f4753ea05804b68917fe65e38a8d48a1c098336025a4e9f9bb64e37afe7268008306000604051611324929190612ce9565b60405180910390a15050565b6001805461133d906125bd565b80601f0160208091040260200160405190810160405280929190818152602001828054611369906125bd565b80156113b65780601f1061138b576101008083540402835291602001916113b6565b820191906000526020600020905b81548152906001019060200180831161139957829003601f168201915b505050505081565b80600073ffffffffffffffffffffffffffffffffffffffff166004600083815260200190815260200160002060000160009054906101000a900473ffffffffffffffffffffffffffffffffffffffff1673ffffffffffffffffffffffffffffffffffffffff1603611464576040517f08c379a000000000000000000000000000000000000000000000000000000000815260040161145b9061263a565b60405180910390fd5b813373ffffffffffffffffffffffffffffffffffffffff166004600083815260200190815260200160002060000160009054906101000a900473ffffffffffffffffffffffffffffffffffffffff1673ffffffffffffffffffffffffffffffffffffffff16148061152057507f000000000000000000000000000000000000000000000000000000000000000073ffffffffffffffffffffffffffffffffffffffff163373ffffffffffffffffffffffffffffffffffffffff16145b61155f576040517f08c379a0000000000000000000000000000000000000000000000000000000008152600401611556906126a6565b60405180910390fd5b600260009054906101000a900460ff166115ae576040517f08c379a00000000000000000000000000000000000000000000000000000000081526004016115a590612712565b60405180910390fd5b6000349050600060046000868152602001908152602001600020600201549050808214611610576040517f08c379a000000000000000000000000000000000000000000000000000000000815260040161160790612d65565b60405180910390fd5b6103e84261161e9190612761565b60046000878152602001908152602001600020600401819055506103e86201518060046000888152602001908152602001600020600301546116609190612761565b4261166b9190612984565b6116759190612761565b600460008781526020019081526020016000206005018190555060016004600087815260200190815260200160002060060160006101000a81548160ff021916908360038111156116c9576116c86127a3565b5b0217905550847f9040c259954b48f5dfdf60ea91e742403e7552202de9925d509fdd8187b2130b60405160405180910390a25050505050565b60007f0000000000000000000000000000000000000000000000000000000000000000905090565b8260005b60035481101561181e578173ffffffffffffffffffffffffffffffffffffffff166004600083815260200190815260200160002060000160009054906101000a900473ffffffffffffffffffffffffffffffffffffffff1673ffffffffffffffffffffffffffffffffffffffff161480156117cb575060046000828152602001908152602001600020600501546103e8426117c99190612761565b105b1561180b576040517f08c379a0000000000000000000000000000000000000000000000000000000008152600401611802906128b0565b60405180910390fd5b8080611816906128d0565b91505061172e565b508260008111611863576040517f08c379a000000000000000000000000000000000000000000000000000000000815260040161185a90612964565b60405180910390fd5b600260009054906101000a900460ff166118b2576040517f08c379a00000000000000000000000000000000000000000000000000000000081526004016118a990612712565b60405180910390fd5b60006040518060e001604052808773ffffffffffffffffffffffffffffffffffffffff1681526020016003548152602001868152602001858152602001600081526020016000815260200160006003811115611911576119106127a3565b5b81525090508060046000600354815260200190815260200160002060008201518160000160006101000a81548173ffffffffffffffffffffffffffffffffffffffff021916908373ffffffffffffffffffffffffffffffffffffffff1602179055506020820151816001015560408201518160020155606082015181600301556080820151816004015560a0820151816005015560c08201518160060160006101000a81548160ff021916908360038111156119d0576119cf6127a3565b5b02179055509050506003547f6a2b70dde6ae0193f84b6a9eeb3b0ebdc3a35e99d9167b88c570158dd09cb0f760405160405180910390a260036000815480929190611a1a906128d0565b9190505550505050505050565b7f000000000000000000000000000000000000000000000000000000000000000073ffffffffffffffffffffffffffffffffffffffff163373ffffffffffffffffffffffffffffffffffffffff1614611ab5576040517f08c379a0000000000000000000000000000000000000000000000000000000008152600401611aac9061281e565b60405180910390fd5b600260009054906101000a900460ff16611b04576040517f08c379a0000000000000000000000000000000000000000000000000000000008152600401611afb90612712565b60405180910390fd5b8060019081611b139190612b93565b5050565b7f000000000000000000000000000000000000000000000000000000000000000073ffffffffffffffffffffffffffffffffffffffff163373ffffffffffffffffffffffffffffffffffffffff1614611ba5576040517f08c379a0000000000000000000000000000000000000000000000000000000008152600401611b9c9061281e565b60405180910390fd5b600260009054906101000a900460ff16611bf4576040517f08c379a0000000000000000000000000000000000000000000000000000000008152600401611beb90612712565b60405180910390fd5b6000600260006101000a81548160ff0219169083151502179055507f86d6aa2827e28270c1635780e8a17d61c38028e75531a0a25c5004862521289d30604051611c3e919061252a565b60405180910390a1565b7f000000000000000000000000000000000000000000000000000000000000000073ffffffffffffffffffffffffffffffffffffffff163373ffffffffffffffffffffffffffffffffffffffff1614611cd6576040517f08c379a0000000000000000000000000000000000000000000000000000000008152600401611ccd9061281e565b60405180910390fd5b600260009054906101000a900460ff16611d25576040517f08c379a0000000000000000000000000000000000000000000000000000000008152600401611d1c90612712565b60405180910390fd5b8060009081611d349190612b93565b5050565b60005b600354811015611dc35760046000828152602001908152602001600020600501546103e842611d6a9190612761565b1115611db05760026004600083815260200190815260200160002060060160006101000a81548160ff02191690836003811115611daa57611da96127a3565b5b02179055505b8080611dbb906128d0565b915050611d3b565b50565b6000600260009054906101000a900460ff16905090565b600081519050919050565b600082825260208201905092915050565b60005b83811015611e17578082015181840152602081019050611dfc565b60008484015250505050565b6000601f19601f8301169050919050565b6000611e3f82611ddd565b611e498185611de8565b9350611e59818560208601611df9565b611e6281611e23565b840191505092915050565b60006020820190508181036000830152611e878184611e34565b905092915050565b6000604051905090565b600080fd5b600080fd5b6000819050919050565b611eb681611ea3565b8114611ec157600080fd5b50565b600081359050611ed381611ead565b92915050565b600060208284031215611eef57611eee611e99565b5b6000611efd84828501611ec4565b91505092915050565b60008115159050919050565b611f1b81611f06565b82525050565b6000602082019050611f366000830184611f12565b92915050565b611f4581611f06565b8114611f5057600080fd5b50565b600081359050611f6281611f3c565b92915050565b600060208284031215611f7e57611f7d611e99565b5b6000611f8c84828501611f53565b91505092915050565b600073ffffffffffffffffffffffffffffffffffffffff82169050919050565b6000611fc082611f95565b9050919050565b611fd081611fb5565b8114611fdb57600080fd5b50565b600081359050611fed81611fc7565b92915050565b60008060006060848603121561200c5761200b611e99565b5b600061201a86828701611fde565b935050602061202b86828701611ec4565b925050604061203c86828701611ec4565b9150509250925092565b600081519050919050565b600082825260208201905092915050565b6000819050602082019050919050565b61207b81611fb5565b82525050565b600061208d8383612072565b60208301905092915050565b6000602082019050919050565b60006120b182612046565b6120bb8185612051565b93506120c683612062565b8060005b838110156120f75781516120de8882612081565b97506120e983612099565b9250506001810190506120ca565b5085935050505092915050565b600081519050919050565b600082825260208201905092915050565b6000819050602082019050919050565b61213981611ea3565b82525050565b600061214b8383612130565b60208301905092915050565b6000602082019050919050565b600061216f82612104565b612179818561210f565b935061218483612120565b8060005b838110156121b557815161219c888261213f565b97506121a783612157565b925050600181019050612188565b5085935050505092915050565b600081519050919050565b600082825260208201905092915050565b6000819050602082019050919050565b600082825260208201905092915050565b600061220a82611ddd565b61221481856121ee565b9350612224818560208601611df9565b61222d81611e23565b840191505092915050565b600061224483836121ff565b905092915050565b6000602082019050919050565b6000612264826121c2565b61226e81856121cd565b935083602082028501612280856121de565b8060005b858110156122bc578484038952815161229d8582612238565b94506122a88361224c565b925060208a01995050600181019050612284565b50829750879550505050505092915050565b600060e08201905081810360008301526122e8818a6120a6565b905081810360208301526122fc8189612164565b905081810360408301526123108188612164565b905081810360608301526123248187612164565b905081810360808301526123388186612164565b905081810360a083015261234c8185612164565b905081810360c08301526123608184612259565b905098975050505050505050565b600080fd5b600080fd5b7f4e487b7100000000000000000000000000000000000000000000000000000000600052604160045260246000fd5b6123b082611e23565b810181811067ffffffffffffffff821117156123cf576123ce612378565b5b80604052505050565b60006123e2611e8f565b90506123ee82826123a7565b919050565b600067ffffffffffffffff82111561240e5761240d612378565b5b61241782611e23565b9050602081019050919050565b82818337600083830152505050565b6000612446612441846123f3565b6123d8565b90508281526020810184848401111561246257612461612373565b5b61246d848285612424565b509392505050565b600082601f83011261248a5761248961236e565b5b813561249a848260208601612433565b91505092915050565b600080604083850312156124ba576124b9611e99565b5b600083013567ffffffffffffffff8111156124d8576124d7611e9e565b5b6124e485828601612475565b925050602083013567ffffffffffffffff81111561250557612504611e9e565b5b61251185828601612475565b9150509250929050565b61252481611fb5565b82525050565b600060208201905061253f600083018461251b565b92915050565b60006020828403121561255b5761255a611e99565b5b600082013567ffffffffffffffff81111561257957612578611e9e565b5b61258584828501612475565b91505092915050565b7f4e487b7100000000000000000000000000000000000000000000000000000000600052602260045260246000fd5b600060028204905060018216806125d557607f821691505b6020821081036125e8576125e761258e565b5b50919050565b7f537562736372697074696f6e20646f6573206e6f742065786973740000000000600082015250565b6000612624601b83611de8565b915061262f826125ee565b602082019050919050565b6000602082019050818103600083015261265381612617565b9050919050565b7f43616c6c6572206973206e6f7420746865207375627363726962657200000000600082015250565b6000612690601c83611de8565b915061269b8261265a565b602082019050919050565b600060208201905081810360008301526126bf81612683565b9050919050565b7f53657276696365206973206e6f74206163746976650000000000000000000000600082015250565b60006126fc601583611de8565b9150612707826126c6565b602082019050919050565b6000602082019050818103600083015261272b816126ef565b9050919050565b7f4e487b7100000000000000000000000000000000000000000000000000000000600052601160045260246000fd5b600061276c82611ea3565b915061277783611ea3565b925082820261278581611ea3565b9150828204841483151761279c5761279b612732565b5b5092915050565b7f4e487b7100000000000000000000000000000000000000000000000000000000600052602160045260246000fd5b7f4f6e6c79206f776e657220697320616c6c6f7765640000000000000000000000600082015250565b6000612808601583611de8565b9150612813826127d2565b602082019050919050565b60006020820190508181036000830152612837816127fb565b9050919050565b7f5375627363726962657220616c72656164792068617320616e2061637469766560008201527f20737562736372697074696f6e00000000000000000000000000000000000000602082015250565b600061289a602d83611de8565b91506128a58261283e565b604082019050919050565b600060208201905081810360008301526128c98161288d565b9050919050565b60006128db82611ea3565b91507fffffffffffffffffffffffffffffffffffffffffffffffffffffffffffffffff820361290d5761290c612732565b5b600182019050919050565b7f56616c7565206d7573742062652067726561746572207468616e207a65726f00600082015250565b600061294e601f83611de8565b915061295982612918565b602082019050919050565b6000602082019050818103600083015261297d81612941565b9050919050565b600061298f82611ea3565b915061299a83611ea3565b92508282019050808211156129b2576129b1612732565b5b92915050565b7f4e487b7100000000000000000000000000000000000000000000000000000000600052603260045260246000fd5b60008190508160005260206000209050919050565b60006020601f8301049050919050565b600082821b905092915050565b600060088302612a497fffffffffffffffffffffffffffffffffffffffffffffffffffffffffffffffff82612a0c565b612a538683612a0c565b95508019841693508086168417925050509392505050565b6000819050919050565b6000612a90612a8b612a8684611ea3565b612a6b565b611ea3565b9050919050565b6000819050919050565b612aaa83612a75565b612abe612ab682612a97565b848454612a19565b825550505050565b600090565b612ad3612ac6565b612ade818484612aa1565b505050565b5b81811015612b0257612af7600082612acb565b600181019050612ae4565b5050565b601f821115612b4757612b18816129e7565b612b21846129fc565b81016020851015612b30578190505b612b44612b3c856129fc565b830182612ae3565b50505b505050565b600082821c905092915050565b6000612b6a60001984600802612b4c565b1980831691505092915050565b6000612b838383612b59565b9150826002028217905092915050565b612b9c82611ddd565b67ffffffffffffffff811115612bb557612bb4612378565b5b612bbf82546125bd565b612bca828285612b06565b600060209050601f831160018114612bfd5760008415612beb578287015190505b612bf58582612b77565b865550612c5d565b601f198416612c0b866129e7565b60005b82811015612c3357848901518255600182019150602085019450602081019050612c0e565b86831015612c505784890151612c4c601f891682612b59565b8355505b6001600288020188555050505b505050505050565b60008154612c72816125bd565b612c7c8186611de8565b94506001821660008114612c975760018114612cad57612ce0565b60ff198316865281151560200286019350612ce0565b612cb6856129e7565b60005b83811015612cd857815481890152600182019150602081019050612cb9565b808801955050505b50505092915050565b6000604082019050612cfe600083018561251b565b8181036020830152612d108184612c65565b90509392505050565b7f496e76616c696420616d6f756e74000000000000000000000000000000000000600082015250565b6000612d4f600e83611de8565b9150612d5a82612d19565b602082019050919050565b60006020820190508181036000830152612d7e81612d42565b905091905056fea26469706673582212209d431bce8d30ff8168f24c898ca9c26c1e12dd3d99ad1a719ecd4feeb2f6de3264736f6c63430008140033a2646970667358221220305f6d4291e73b2e339b9b6ba4acd9bc348097bc68d83006eb22394da88f8d4b64736f6c63430008140033","opcodes":"PUSH1 0x80 PUSH1 0x40 MSTORE CALLVALUE DUP1 ISZERO PUSH2 0x10 JUMPI PUSH1 0x0 DUP1 REVERT JUMPDEST POP PUSH2 0x43CD DUP1 PUSH2 0x20 PUSH1 0x0 CODECOPY PUSH1 0x0 RETURN INVALID PUSH1 0x80 PUSH1 0x40 MSTORE CALLVALUE DUP1 ISZERO PUSH3 0x11 JUMPI PUSH1 0x0 DUP1 REVERT JUMPDEST POP PUSH1 0x4 CALLDATASIZE LT PUSH3 0x5E JUMPI PUSH1 0x0 CALLDATALOAD PUSH1 0xE0 SHR DUP1 PUSH4 0x6A5E1F92 EQ PUSH3 0x63 JUMPI DUP1 PUSH4 0xA6A46CCB EQ PUSH3 0x83 JUMPI DUP1 PUSH4 0xBD5EC58F EQ PUSH3 0x8F JUMPI DUP1 PUSH4 0xC22C4F43 EQ PUSH3 0xB1 JUMPI DUP1 PUSH4 0xEABFCA69 EQ PUSH3 0xE7 JUMPI JUMPDEST PUSH1 0x0 DUP1 REVERT JUMPDEST PUSH3 0x81 PUSH1 0x4 DUP1 CALLDATASIZE SUB DUP2 ADD SWAP1 PUSH3 0x7B SWAP2 SWAP1 PUSH3 0x89F JUMP JUMPDEST PUSH3 0x11D JUMP JUMPDEST STOP JUMPDEST PUSH3 0x8D PUSH3 0x375 JUMP JUMPDEST STOP JUMPDEST PUSH3 0x99 PUSH3 0x442 JUMP JUMPDEST PUSH1 0x40 MLOAD PUSH3 0xA8 SWAP2 SWAP1 PUSH3 0xA26 JUMP JUMPDEST PUSH1 0x40 MLOAD DUP1 SWAP2 SUB SWAP1 RETURN JUMPDEST PUSH3 0xCF PUSH1 0x4 DUP1 CALLDATASIZE SUB DUP2 ADD SWAP1 PUSH3 0xC9 SWAP2 SWAP1 PUSH3 0xA85 JUMP JUMPDEST PUSH3 0x55A JUMP JUMPDEST PUSH1 0x40 MLOAD PUSH3 0xDE SWAP2 SWAP1 PUSH3 0xB22 JUMP JUMPDEST PUSH1 0x40 MLOAD DUP1 SWAP2 SUB SWAP1 RETURN JUMPDEST PUSH3 0x105 PUSH1 0x4 DUP1 CALLDATASIZE SUB DUP2 ADD SWAP1 PUSH3 0xFF SWAP2 SWAP1 PUSH3 0xB3F JUMP JUMPDEST PUSH3 0x59A JUMP JUMPDEST PUSH1 0x40 MLOAD PUSH3 0x114 SWAP2 SWAP1 PUSH3 0xBAD JUMP JUMPDEST PUSH1 0x40 MLOAD DUP1 SWAP2 SUB SWAP1 RETURN JUMPDEST DUP2 PUSH1 0x0 JUMPDEST PUSH1 0x0 DUP1 SLOAD SWAP1 POP DUP2 LT ISZERO PUSH3 0x291 JUMPI DUP2 PUSH1 0x40 MLOAD PUSH1 0x20 ADD PUSH3 0x142 SWAP2 SWAP1 PUSH3 0xC43 JUMP JUMPDEST PUSH1 0x40 MLOAD PUSH1 0x20 DUP2 DUP4 SUB SUB DUP2 MSTORE SWAP1 PUSH1 0x40 MSTORE DUP1 MLOAD SWAP1 PUSH1 0x20 ADD KECCAK256 PUSH1 0x0 DUP3 DUP2 SLOAD DUP2 LT PUSH3 0x16F JUMPI PUSH3 0x16E PUSH3 0xC5C JUMP JUMPDEST JUMPDEST SWAP1 PUSH1 0x0 MSTORE PUSH1 0x20 PUSH1 0x0 KECCAK256 ADD PUSH1 0x0 SWAP1 SLOAD SWAP1 PUSH2 0x100 EXP SWAP1 DIV PUSH20 0xFFFFFFFFFFFFFFFFFFFFFFFFFFFFFFFFFFFFFFFF AND PUSH20 0xFFFFFFFFFFFFFFFFFFFFFFFFFFFFFFFFFFFFFFFF AND PUSH4 0x17D7DE7C PUSH1 0x40 MLOAD DUP2 PUSH4 0xFFFFFFFF AND PUSH1 0xE0 SHL DUP2 MSTORE PUSH1 0x4 ADD PUSH1 0x0 PUSH1 0x40 MLOAD DUP1 DUP4 SUB DUP2 DUP7 GAS STATICCALL ISZERO DUP1 ISZERO PUSH3 0x1E5 JUMPI RETURNDATASIZE PUSH1 0x0 DUP1 RETURNDATACOPY RETURNDATASIZE PUSH1 0x0 REVERT JUMPDEST POP POP POP POP PUSH1 0x40 MLOAD RETURNDATASIZE PUSH1 0x0 DUP3 RETURNDATACOPY RETURNDATASIZE PUSH1 0x1F NOT PUSH1 0x1F DUP3 ADD AND DUP3 ADD DUP1 PUSH1 0x40 MSTORE POP DUP2 ADD SWAP1 PUSH3 0x210 SWAP2 SWAP1 PUSH3 0xD09 JUMP JUMPDEST PUSH1 0x40 MLOAD PUSH1 0x20 ADD PUSH3 0x222 SWAP2 SWAP1 PUSH3 0xC43 JUMP JUMPDEST PUSH1 0x40 MLOAD PUSH1 0x20 DUP2 DUP4 SUB SUB DUP2 MSTORE SWAP1 PUSH1 0x40 MSTORE DUP1 MLOAD SWAP1 PUSH1 0x20 ADD KECCAK256 SUB PUSH3 0x27B JUMPI PUSH1 0x40 MLOAD PUSH32 0x8C379A000000000000000000000000000000000000000000000000000000000 DUP2 MSTORE PUSH1 0x4 ADD PUSH3 0x272 SWAP1 PUSH3 0xDBB JUMP JUMPDEST PUSH1 0x40 MLOAD DUP1 SWAP2 SUB SWAP1 REVERT JUMPDEST DUP1 DUP1 PUSH3 0x288 SWAP1 PUSH3 0xE0C JUMP JUMPDEST SWAP2 POP POP PUSH3 0x121 JUMP JUMPDEST POP PUSH1 0x0 CALLER DUP5 DUP5 PUSH1 0x40 MLOAD PUSH3 0x2A5 SWAP1 PUSH3 0x71B JUMP JUMPDEST PUSH3 0x2B3 SWAP4 SWAP3 SWAP2 SWAP1 PUSH3 0xEAB JUMP JUMPDEST PUSH1 0x40 MLOAD DUP1 SWAP2 SUB SWAP1 PUSH1 0x0 CREATE DUP1 ISZERO DUP1 ISZERO PUSH3 0x2D0 JUMPI RETURNDATASIZE PUSH1 0x0 DUP1 RETURNDATACOPY RETURNDATASIZE PUSH1 0x0 REVERT JUMPDEST POP SWAP1 POP PUSH1 0x0 DUP2 SWAP1 DUP1 PUSH1 0x1 DUP2 SLOAD ADD DUP1 DUP3 SSTORE DUP1 SWAP2 POP POP PUSH1 0x1 SWAP1 SUB SWAP1 PUSH1 0x0 MSTORE PUSH1 0x20 PUSH1 0x0 KECCAK256 ADD PUSH1 0x0 SWAP1 SWAP2 SWAP1 SWAP2 SWAP1 SWAP2 PUSH2 0x100 EXP DUP2 SLOAD DUP2 PUSH20 0xFFFFFFFFFFFFFFFFFFFFFFFFFFFFFFFFFFFFFFFF MUL NOT AND SWAP1 DUP4 PUSH20 0xFFFFFFFFFFFFFFFFFFFFFFFFFFFFFFFFFFFFFFFF AND MUL OR SWAP1 SSTORE POP PUSH32 0xAE046AA848296872CCDF284DF55DF8650F0CF3ADDB0F62EB26D9A10112C74450 DUP2 PUSH1 0x40 MLOAD PUSH3 0x367 SWAP2 SWAP1 PUSH3 0xEF6 JUMP JUMPDEST PUSH1 0x40 MLOAD DUP1 SWAP2 SUB SWAP1 LOG1 POP POP POP POP JUMP JUMPDEST PUSH1 0x0 JUMPDEST PUSH1 0x0 DUP1 SLOAD SWAP1 POP DUP2 LT ISZERO PUSH3 0x43F JUMPI PUSH1 0x0 DUP2 DUP2 SLOAD DUP2 LT PUSH3 0x39D JUMPI PUSH3 0x39C PUSH3 0xC5C JUMP JUMPDEST JUMPDEST SWAP1 PUSH1 0x0 MSTORE PUSH1 0x20 PUSH1 0x0 KECCAK256 ADD PUSH1 0x0 SWAP1 SLOAD SWAP1 PUSH2 0x100 EXP SWAP1 DIV PUSH20 0xFFFFFFFFFFFFFFFFFFFFFFFFFFFFFFFFFFFFFFFF AND PUSH20 0xFFFFFFFFFFFFFFFFFFFFFFFFFFFFFFFFFFFFFFFF AND PUSH4 0xC82494A2 PUSH1 0x40 MLOAD DUP2 PUSH4 0xFFFFFFFF AND PUSH1 0xE0 SHL DUP2 MSTORE PUSH1 0x4 ADD PUSH1 0x0 PUSH1 0x40 MLOAD DUP1 DUP4 SUB DUP2 PUSH1 0x0 DUP8 DUP1 EXTCODESIZE ISZERO DUP1 ISZERO PUSH3 0x410 JUMPI PUSH1 0x0 DUP1 REVERT JUMPDEST POP GAS CALL ISZERO DUP1 ISZERO PUSH3 0x425 JUMPI RETURNDATASIZE PUSH1 0x0 DUP1 RETURNDATACOPY RETURNDATASIZE PUSH1 0x0 REVERT JUMPDEST POP POP POP POP DUP1 DUP1 PUSH3 0x436 SWAP1 PUSH3 0xE0C JUMP JUMPDEST SWAP2 POP POP PUSH3 0x378 JUMP JUMPDEST POP JUMP JUMPDEST PUSH1 0x60 PUSH1 0x0 DUP1 DUP1 SLOAD SWAP1 POP PUSH8 0xFFFFFFFFFFFFFFFF DUP2 GT ISZERO PUSH3 0x467 JUMPI PUSH3 0x466 PUSH3 0x758 JUMP JUMPDEST JUMPDEST PUSH1 0x40 MLOAD SWAP1 DUP1 DUP3 MSTORE DUP1 PUSH1 0x20 MUL PUSH1 0x20 ADD DUP3 ADD PUSH1 0x40 MSTORE DUP1 ISZERO PUSH3 0x496 JUMPI DUP2 PUSH1 0x20 ADD PUSH1 0x20 DUP3 MUL DUP1 CALLDATASIZE DUP4 CALLDATACOPY DUP1 DUP3 ADD SWAP2 POP POP SWAP1 POP JUMPDEST POP SWAP1 POP PUSH1 0x0 JUMPDEST PUSH1 0x0 DUP1 SLOAD SWAP1 POP DUP2 LT ISZERO PUSH3 0x552 JUMPI PUSH1 0x0 DUP2 DUP2 SLOAD DUP2 LT PUSH3 0x4C1 JUMPI PUSH3 0x4C0 PUSH3 0xC5C JUMP JUMPDEST JUMPDEST SWAP1 PUSH1 0x0 MSTORE PUSH1 0x20 PUSH1 0x0 KECCAK256 ADD PUSH1 0x0 SWAP1 SLOAD SWAP1 PUSH2 0x100 EXP SWAP1 DIV PUSH20 0xFFFFFFFFFFFFFFFFFFFFFFFFFFFFFFFFFFFFFFFF AND DUP3 DUP3 DUP2 MLOAD DUP2 LT PUSH3 0x502 JUMPI PUSH3 0x501 PUSH3 0xC5C JUMP JUMPDEST JUMPDEST PUSH1 0x20 MUL PUSH1 0x20 ADD ADD SWAP1 PUSH20 0xFFFFFFFFFFFFFFFFFFFFFFFFFFFFFFFFFFFFFFFF AND SWAP1 DUP2 PUSH20 0xFFFFFFFFFFFFFFFFFFFFFFFFFFFFFFFFFFFFFFFF AND DUP2 MSTORE POP POP DUP1 DUP1 PUSH3 0x549 SWAP1 PUSH3 0xE0C JUMP JUMPDEST SWAP2 POP POP PUSH3 0x49C JUMP JUMPDEST POP DUP1 SWAP2 POP POP SWAP1 JUMP JUMPDEST PUSH1 0x0 DUP2 DUP2 SLOAD DUP2 LT PUSH3 0x56B JUMPI PUSH1 0x0 DUP1 REVERT JUMPDEST SWAP1 PUSH1 0x0 MSTORE PUSH1 0x20 PUSH1 0x0 KECCAK256 ADD PUSH1 0x0 SWAP2 POP SLOAD SWAP1 PUSH2 0x100 EXP SWAP1 DIV PUSH20 0xFFFFFFFFFFFFFFFFFFFFFFFFFFFFFFFFFFFFFFFF AND DUP2 JUMP JUMPDEST PUSH1 0x0 DUP2 PUSH1 0x0 JUMPDEST PUSH1 0x0 DUP1 SLOAD SWAP1 POP DUP2 LT ISZERO PUSH3 0x710 JUMPI DUP2 PUSH1 0x40 MLOAD PUSH1 0x20 ADD PUSH3 0x5C1 SWAP2 SWAP1 PUSH3 0xC43 JUMP JUMPDEST PUSH1 0x40 MLOAD PUSH1 0x20 DUP2 DUP4 SUB SUB DUP2 MSTORE SWAP1 PUSH1 0x40 MSTORE DUP1 MLOAD SWAP1 PUSH1 0x20 ADD KECCAK256 PUSH1 0x0 DUP3 DUP2 SLOAD DUP2 LT PUSH3 0x5EE JUMPI PUSH3 0x5ED PUSH3 0xC5C JUMP JUMPDEST JUMPDEST SWAP1 PUSH1 0x0 MSTORE PUSH1 0x20 PUSH1 0x0 KECCAK256 ADD PUSH1 0x0 SWAP1 SLOAD SWAP1 PUSH2 0x100 EXP SWAP1 DIV PUSH20 0xFFFFFFFFFFFFFFFFFFFFFFFFFFFFFFFFFFFFFFFF AND PUSH20 0xFFFFFFFFFFFFFFFFFFFFFFFFFFFFFFFFFFFFFFFF AND PUSH4 0x17D7DE7C PUSH1 0x40 MLOAD DUP2 PUSH4 0xFFFFFFFF AND PUSH1 0xE0 SHL DUP2 MSTORE PUSH1 0x4 ADD PUSH1 0x0 PUSH1 0x40 MLOAD DUP1 DUP4 SUB DUP2 DUP7 GAS STATICCALL ISZERO DUP1 ISZERO PUSH3 0x664 JUMPI RETURNDATASIZE PUSH1 0x0 DUP1 RETURNDATACOPY RETURNDATASIZE PUSH1 0x0 REVERT JUMPDEST POP POP POP POP PUSH1 0x40 MLOAD RETURNDATASIZE PUSH1 0x0 DUP3 RETURNDATACOPY RETURNDATASIZE PUSH1 0x1F NOT PUSH1 0x1F DUP3 ADD AND DUP3 ADD DUP1 PUSH1 0x40 MSTORE POP DUP2 ADD SWAP1 PUSH3 0x68F SWAP2 SWAP1 PUSH3 0xD09 JUMP JUMPDEST PUSH1 0x40 MLOAD PUSH1 0x20 ADD PUSH3 0x6A1 SWAP2 SWAP1 PUSH3 0xC43 JUMP JUMPDEST PUSH1 0x40 MLOAD PUSH1 0x20 DUP2 DUP4 SUB SUB DUP2 MSTORE SWAP1 PUSH1 0x40 MSTORE DUP1 MLOAD SWAP1 PUSH1 0x20 ADD KECCAK256 SUB PUSH3 0x6FA JUMPI PUSH1 0x40 MLOAD PUSH32 0x8C379A000000000000000000000000000000000000000000000000000000000 DUP2 MSTORE PUSH1 0x4 ADD PUSH3 0x6F1 SWAP1 PUSH3 0xDBB JUMP JUMPDEST PUSH1 0x40 MLOAD DUP1 SWAP2 SUB SWAP1 REVERT JUMPDEST DUP1 DUP1 PUSH3 0x707 SWAP1 PUSH3 0xE0C JUMP JUMPDEST SWAP2 POP POP PUSH3 0x5A0 JUMP JUMPDEST POP PUSH1 0x1 SWAP2 POP POP SWAP2 SWAP1 POP JUMP JUMPDEST PUSH2 0x3484 DUP1 PUSH3 0xF14 DUP4 CODECOPY ADD SWAP1 JUMP JUMPDEST PUSH1 0x0 PUSH1 0x40 MLOAD SWAP1 POP SWAP1 JUMP JUMPDEST PUSH1 0x0 DUP1 REVERT JUMPDEST PUSH1 0x0 DUP1 REVERT JUMPDEST PUSH1 0x0 DUP1 REVERT JUMPDEST PUSH1 0x0 DUP1 REVERT JUMPDEST PUSH1 0x0 PUSH1 0x1F NOT PUSH1 0x1F DUP4 ADD AND SWAP1 POP SWAP2 SWAP1 POP JUMP JUMPDEST PUSH32 0x4E487B7100000000000000000000000000000000000000000000000000000000 PUSH1 0x0 MSTORE PUSH1 0x41 PUSH1 0x4 MSTORE PUSH1 0x24 PUSH1 0x0 REVERT JUMPDEST PUSH3 0x792 DUP3 PUSH3 0x747 JUMP JUMPDEST DUP2 ADD DUP2 DUP2 LT PUSH8 0xFFFFFFFFFFFFFFFF DUP3 GT OR ISZERO PUSH3 0x7B4 JUMPI PUSH3 0x7B3 PUSH3 0x758 JUMP JUMPDEST JUMPDEST DUP1 PUSH1 0x40 MSTORE POP POP POP JUMP JUMPDEST PUSH1 0x0 PUSH3 0x7C9 PUSH3 0x729 JUMP JUMPDEST SWAP1 POP PUSH3 0x7D7 DUP3 DUP3 PUSH3 0x787 JUMP JUMPDEST SWAP2 SWAP1 POP JUMP JUMPDEST PUSH1 0x0 PUSH8 0xFFFFFFFFFFFFFFFF DUP3 GT ISZERO PUSH3 0x7FA JUMPI PUSH3 0x7F9 PUSH3 0x758 JUMP JUMPDEST JUMPDEST PUSH3 0x805 DUP3 PUSH3 0x747 JUMP JUMPDEST SWAP1 POP PUSH1 0x20 DUP2 ADD SWAP1 POP SWAP2 SWAP1 POP JUMP JUMPDEST DUP3 DUP2 DUP4 CALLDATACOPY PUSH1 0x0 DUP4 DUP4 ADD MSTORE POP POP POP JUMP JUMPDEST PUSH1 0x0 PUSH3 0x838 PUSH3 0x832 DUP5 PUSH3 0x7DC JUMP JUMPDEST PUSH3 0x7BD JUMP JUMPDEST SWAP1 POP DUP3 DUP2 MSTORE PUSH1 0x20 DUP2 ADD DUP5 DUP5 DUP5 ADD GT ISZERO PUSH3 0x857 JUMPI PUSH3 0x856 PUSH3 0x742 JUMP JUMPDEST JUMPDEST PUSH3 0x864 DUP5 DUP3 DUP6 PUSH3 0x812 JUMP JUMPDEST POP SWAP4 SWAP3 POP POP POP JUMP JUMPDEST PUSH1 0x0 DUP3 PUSH1 0x1F DUP4 ADD SLT PUSH3 0x884 JUMPI PUSH3 0x883 PUSH3 0x73D JUMP JUMPDEST JUMPDEST DUP2 CALLDATALOAD PUSH3 0x896 DUP5 DUP3 PUSH1 0x20 DUP7 ADD PUSH3 0x821 JUMP JUMPDEST SWAP2 POP POP SWAP3 SWAP2 POP POP JUMP JUMPDEST PUSH1 0x0 DUP1 PUSH1 0x40 DUP4 DUP6 SUB SLT ISZERO PUSH3 0x8B9 JUMPI PUSH3 0x8B8 PUSH3 0x733 JUMP JUMPDEST JUMPDEST PUSH1 0x0 DUP4 ADD CALLDATALOAD PUSH8 0xFFFFFFFFFFFFFFFF DUP2 GT ISZERO PUSH3 0x8DA JUMPI PUSH3 0x8D9 PUSH3 0x738 JUMP JUMPDEST JUMPDEST PUSH3 0x8E8 DUP6 DUP3 DUP7 ADD PUSH3 0x86C JUMP JUMPDEST SWAP3 POP POP PUSH1 0x20 DUP4 ADD CALLDATALOAD PUSH8 0xFFFFFFFFFFFFFFFF DUP2 GT ISZERO PUSH3 0x90C JUMPI PUSH3 0x90B PUSH3 0x738 JUMP JUMPDEST JUMPDEST PUSH3 0x91A DUP6 DUP3 DUP7 ADD PUSH3 0x86C JUMP JUMPDEST SWAP2 POP POP SWAP3 POP SWAP3 SWAP1 POP JUMP JUMPDEST PUSH1 0x0 DUP2 MLOAD SWAP1 POP SWAP2 SWAP1 POP JUMP JUMPDEST PUSH1 0x0 DUP3 DUP3 MSTORE PUSH1 0x20 DUP3 ADD SWAP1 POP SWAP3 SWAP2 POP POP JUMP JUMPDEST PUSH1 0x0 DUP2 SWAP1 POP PUSH1 0x20 DUP3 ADD SWAP1 POP SWAP2 SWAP1 POP JUMP JUMPDEST PUSH1 0x0 PUSH20 0xFFFFFFFFFFFFFFFFFFFFFFFFFFFFFFFFFFFFFFFF DUP3 AND SWAP1 POP SWAP2 SWAP1 POP JUMP JUMPDEST PUSH1 0x0 PUSH3 0x97D DUP3 PUSH3 0x950 JUMP JUMPDEST SWAP1 POP SWAP2 SWAP1 POP JUMP JUMPDEST PUSH3 0x98F DUP2 PUSH3 0x970 JUMP JUMPDEST DUP3 MSTORE POP POP JUMP JUMPDEST PUSH1 0x0 PUSH3 0x9A3 DUP4 DUP4 PUSH3 0x984 JUMP JUMPDEST PUSH1 0x20 DUP4 ADD SWAP1 POP SWAP3 SWAP2 POP POP JUMP JUMPDEST PUSH1 0x0 PUSH1 0x20 DUP3 ADD SWAP1 POP SWAP2 SWAP1 POP JUMP JUMPDEST PUSH1 0x0 PUSH3 0x9C9 DUP3 PUSH3 0x924 JUMP JUMPDEST PUSH3 0x9D5 DUP2 DUP6 PUSH3 0x92F JUMP JUMPDEST SWAP4 POP PUSH3 0x9E2 DUP4 PUSH3 0x940 JUMP JUMPDEST DUP1 PUSH1 0x0 JUMPDEST DUP4 DUP2 LT ISZERO PUSH3 0xA19 JUMPI DUP2 MLOAD PUSH3 0x9FD DUP9 DUP3 PUSH3 0x995 JUMP JUMPDEST SWAP8 POP PUSH3 0xA0A DUP4 PUSH3 0x9AF JUMP JUMPDEST SWAP3 POP POP PUSH1 0x1 DUP2 ADD SWAP1 POP PUSH3 0x9E6 JUMP JUMPDEST POP DUP6 SWAP4 POP POP POP POP SWAP3 SWAP2 POP POP JUMP JUMPDEST PUSH1 0x0 PUSH1 0x20 DUP3 ADD SWAP1 POP DUP2 DUP2 SUB PUSH1 0x0 DUP4 ADD MSTORE PUSH3 0xA42 DUP2 DUP5 PUSH3 0x9BC JUMP JUMPDEST SWAP1 POP SWAP3 SWAP2 POP POP JUMP JUMPDEST PUSH1 0x0 DUP2 SWAP1 POP SWAP2 SWAP1 POP JUMP JUMPDEST PUSH3 0xA5F DUP2 PUSH3 0xA4A JUMP JUMPDEST DUP2 EQ PUSH3 0xA6B JUMPI PUSH1 0x0 DUP1 REVERT JUMPDEST POP JUMP JUMPDEST PUSH1 0x0 DUP2 CALLDATALOAD SWAP1 POP PUSH3 0xA7F DUP2 PUSH3 0xA54 JUMP JUMPDEST SWAP3 SWAP2 POP POP JUMP JUMPDEST PUSH1 0x0 PUSH1 0x20 DUP3 DUP5 SUB SLT ISZERO PUSH3 0xA9E JUMPI PUSH3 0xA9D PUSH3 0x733 JUMP JUMPDEST JUMPDEST PUSH1 0x0 PUSH3 0xAAE DUP5 DUP3 DUP6 ADD PUSH3 0xA6E JUMP JUMPDEST SWAP2 POP POP SWAP3 SWAP2 POP POP JUMP JUMPDEST PUSH1 0x0 DUP2 SWAP1 POP SWAP2 SWAP1 POP JUMP JUMPDEST PUSH1 0x0 PUSH3 0xAE2 PUSH3 0xADC PUSH3 0xAD6 DUP5 PUSH3 0x950 JUMP JUMPDEST PUSH3 0xAB7 JUMP JUMPDEST PUSH3 0x950 JUMP JUMPDEST SWAP1 POP SWAP2 SWAP1 POP JUMP JUMPDEST PUSH1 0x0 PUSH3 0xAF6 DUP3 PUSH3 0xAC1 JUMP JUMPDEST SWAP1 POP SWAP2 SWAP1 POP JUMP JUMPDEST PUSH1 0x0 PUSH3 0xB0A DUP3 PUSH3 0xAE9 JUMP JUMPDEST SWAP1 POP SWAP2 SWAP1 POP JUMP JUMPDEST PUSH3 0xB1C DUP2 PUSH3 0xAFD JUMP JUMPDEST DUP3 MSTORE POP POP JUMP JUMPDEST PUSH1 0x0 PUSH1 0x20 DUP3 ADD SWAP1 POP PUSH3 0xB39 PUSH1 0x0 DUP4 ADD DUP5 PUSH3 0xB11 JUMP JUMPDEST SWAP3 SWAP2 POP POP JUMP JUMPDEST PUSH1 0x0 PUSH1 0x20 DUP3 DUP5 SUB SLT ISZERO PUSH3 0xB58 JUMPI PUSH3 0xB57 PUSH3 0x733 JUMP JUMPDEST JUMPDEST PUSH1 0x0 DUP3 ADD CALLDATALOAD PUSH8 0xFFFFFFFFFFFFFFFF DUP2 GT ISZERO PUSH3 0xB79 JUMPI PUSH3 0xB78 PUSH3 0x738 JUMP JUMPDEST JUMPDEST PUSH3 0xB87 DUP5 DUP3 DUP6 ADD PUSH3 0x86C JUMP JUMPDEST SWAP2 POP POP SWAP3 SWAP2 POP POP JUMP JUMPDEST PUSH1 0x0 DUP2 ISZERO ISZERO SWAP1 POP SWAP2 SWAP1 POP JUMP JUMPDEST PUSH3 0xBA7 DUP2 PUSH3 0xB90 JUMP JUMPDEST DUP3 MSTORE POP POP JUMP JUMPDEST PUSH1 0x0 PUSH1 0x20 DUP3 ADD SWAP1 POP PUSH3 0xBC4 PUSH1 0x0 DUP4 ADD DUP5 PUSH3 0xB9C JUMP JUMPDEST SWAP3 SWAP2 POP POP JUMP JUMPDEST PUSH1 0x0 DUP2 MLOAD SWAP1 POP SWAP2 SWAP1 POP JUMP JUMPDEST PUSH1 0x0 DUP2 SWAP1 POP SWAP3 SWAP2 POP POP JUMP JUMPDEST PUSH1 0x0 JUMPDEST DUP4 DUP2 LT ISZERO PUSH3 0xC00 JUMPI DUP1 DUP3 ADD MLOAD DUP2 DUP5 ADD MSTORE PUSH1 0x20 DUP2 ADD SWAP1 POP PUSH3 0xBE3 JUMP JUMPDEST PUSH1 0x0 DUP5 DUP5 ADD MSTORE POP POP POP POP JUMP JUMPDEST PUSH1 0x0 PUSH3 0xC19 DUP3 PUSH3 0xBCA JUMP JUMPDEST PUSH3 0xC25 DUP2 DUP6 PUSH3 0xBD5 JUMP JUMPDEST SWAP4 POP PUSH3 0xC37 DUP2 DUP6 PUSH1 0x20 DUP7 ADD PUSH3 0xBE0 JUMP JUMPDEST DUP1 DUP5 ADD SWAP2 POP POP SWAP3 SWAP2 POP POP JUMP JUMPDEST PUSH1 0x0 PUSH3 0xC51 DUP3 DUP5 PUSH3 0xC0C JUMP JUMPDEST SWAP2 POP DUP2 SWAP1 POP SWAP3 SWAP2 POP POP JUMP JUMPDEST PUSH32 0x4E487B7100000000000000000000000000000000000000000000000000000000 PUSH1 0x0 MSTORE PUSH1 0x32 PUSH1 0x4 MSTORE PUSH1 0x24 PUSH1 0x0 REVERT JUMPDEST PUSH1 0x0 PUSH3 0xCA2 PUSH3 0xC9C DUP5 PUSH3 0x7DC JUMP JUMPDEST PUSH3 0x7BD JUMP JUMPDEST SWAP1 POP DUP3 DUP2 MSTORE PUSH1 0x20 DUP2 ADD DUP5 DUP5 DUP5 ADD GT ISZERO PUSH3 0xCC1 JUMPI PUSH3 0xCC0 PUSH3 0x742 JUMP JUMPDEST JUMPDEST PUSH3 0xCCE DUP5 DUP3 DUP6 PUSH3 0xBE0 JUMP JUMPDEST POP SWAP4 SWAP3 POP POP POP JUMP JUMPDEST PUSH1 0x0 DUP3 PUSH1 0x1F DUP4 ADD SLT PUSH3 0xCEE JUMPI PUSH3 0xCED PUSH3 0x73D JUMP JUMPDEST JUMPDEST DUP2 MLOAD PUSH3 0xD00 DUP5 DUP3 PUSH1 0x20 DUP7 ADD PUSH3 0xC8B JUMP JUMPDEST SWAP2 POP POP SWAP3 SWAP2 POP POP JUMP JUMPDEST PUSH1 0x0 PUSH1 0x20 DUP3 DUP5 SUB SLT ISZERO PUSH3 0xD22 JUMPI PUSH3 0xD21 PUSH3 0x733 JUMP JUMPDEST JUMPDEST PUSH1 0x0 DUP3 ADD MLOAD PUSH8 0xFFFFFFFFFFFFFFFF DUP2 GT ISZERO PUSH3 0xD43 JUMPI PUSH3 0xD42 PUSH3 0x738 JUMP JUMPDEST JUMPDEST PUSH3 0xD51 DUP5 DUP3 DUP6 ADD PUSH3 0xCD6 JUMP JUMPDEST SWAP2 POP POP SWAP3 SWAP2 POP POP JUMP JUMPDEST PUSH1 0x0 DUP3 DUP3 MSTORE PUSH1 0x20 DUP3 ADD SWAP1 POP SWAP3 SWAP2 POP POP JUMP JUMPDEST PUSH32 0x53657276696365206E616D6520697320616C72656164792074616B656E000000 PUSH1 0x0 DUP3 ADD MSTORE POP JUMP JUMPDEST PUSH1 0x0 PUSH3 0xDA3 PUSH1 0x1D DUP4 PUSH3 0xD5A JUMP JUMPDEST SWAP2 POP PUSH3 0xDB0 DUP3 PUSH3 0xD6B JUMP JUMPDEST PUSH1 0x20 DUP3 ADD SWAP1 POP SWAP2 SWAP1 POP JUMP JUMPDEST PUSH1 0x0 PUSH1 0x20 DUP3 ADD SWAP1 POP DUP2 DUP2 SUB PUSH1 0x0 DUP4 ADD MSTORE PUSH3 0xDD6 DUP2 PUSH3 0xD94 JUMP JUMPDEST SWAP1 POP SWAP2 SWAP1 POP JUMP JUMPDEST PUSH32 0x4E487B7100000000000000000000000000000000000000000000000000000000 PUSH1 0x0 MSTORE PUSH1 0x11 PUSH1 0x4 MSTORE PUSH1 0x24 PUSH1 0x0 REVERT JUMPDEST PUSH1 0x0 PUSH3 0xE19 DUP3 PUSH3 0xA4A JUMP JUMPDEST SWAP2 POP PUSH32 0xFFFFFFFFFFFFFFFFFFFFFFFFFFFFFFFFFFFFFFFFFFFFFFFFFFFFFFFFFFFFFFFF DUP3 SUB PUSH3 0xE4E JUMPI PUSH3 0xE4D PUSH3 0xDDD JUMP JUMPDEST JUMPDEST PUSH1 0x1 DUP3 ADD SWAP1 POP SWAP2 SWAP1 POP JUMP JUMPDEST PUSH3 0xE64 DUP2 PUSH3 0x970 JUMP JUMPDEST DUP3 MSTORE POP POP JUMP JUMPDEST PUSH1 0x0 PUSH3 0xE77 DUP3 PUSH3 0xBCA JUMP JUMPDEST PUSH3 0xE83 DUP2 DUP6 PUSH3 0xD5A JUMP JUMPDEST SWAP4 POP PUSH3 0xE95 DUP2 DUP6 PUSH1 0x20 DUP7 ADD PUSH3 0xBE0 JUMP JUMPDEST PUSH3 0xEA0 DUP2 PUSH3 0x747 JUMP JUMPDEST DUP5 ADD SWAP2 POP POP SWAP3 SWAP2 POP POP JUMP JUMPDEST PUSH1 0x0 PUSH1 0x60 DUP3 ADD SWAP1 POP PUSH3 0xEC2 PUSH1 0x0 DUP4 ADD DUP7 PUSH3 0xE59 JUMP JUMPDEST DUP2 DUP2 SUB PUSH1 0x20 DUP4 ADD MSTORE PUSH3 0xED6 DUP2 DUP6 PUSH3 0xE6A JUMP JUMPDEST SWAP1 POP DUP2 DUP2 SUB PUSH1 0x40 DUP4 ADD MSTORE PUSH3 0xEEC DUP2 DUP5 PUSH3 0xE6A JUMP JUMPDEST SWAP1 POP SWAP5 SWAP4 POP POP POP POP JUMP JUMPDEST PUSH1 0x0 PUSH1 0x20 DUP3 ADD SWAP1 POP PUSH3 0xF0D PUSH1 0x0 DUP4 ADD DUP5 PUSH3 0xE59 JUMP JUMPDEST SWAP3 SWAP2 POP POP JUMP INVALID PUSH1 0xA0 PUSH1 0x40 MSTORE PUSH1 0x1 PUSH1 0x2 PUSH1 0x0 PUSH2 0x100 EXP DUP2 SLOAD DUP2 PUSH1 0xFF MUL NOT AND SWAP1 DUP4 ISZERO ISZERO MUL OR SWAP1 SSTORE POP PUSH1 0x0 PUSH1 0x3 SSTORE CALLVALUE DUP1 ISZERO PUSH3 0x31 JUMPI PUSH1 0x0 DUP1 REVERT JUMPDEST POP PUSH1 0x40 MLOAD PUSH3 0x3484 CODESIZE SUB DUP1 PUSH3 0x3484 DUP4 CODECOPY DUP2 DUP2 ADD PUSH1 0x40 MSTORE DUP2 ADD SWAP1 PUSH3 0x57 SWAP2 SWAP1 PUSH3 0x2B0 JUMP JUMPDEST DUP3 PUSH20 0xFFFFFFFFFFFFFFFFFFFFFFFFFFFFFFFFFFFFFFFF AND PUSH1 0x80 DUP2 PUSH20 0xFFFFFFFFFFFFFFFFFFFFFFFFFFFFFFFFFFFFFFFF AND DUP2 MSTORE POP POP DUP2 PUSH1 0x0 SWAP1 DUP2 PUSH3 0x9C SWAP2 SWAP1 PUSH3 0x595 JUMP JUMPDEST POP DUP1 PUSH1 0x1 SWAP1 DUP2 PUSH3 0xAE SWAP2 SWAP1 PUSH3 0x595 JUMP JUMPDEST POP POP POP POP PUSH3 0x67C JUMP JUMPDEST PUSH1 0x0 PUSH1 0x40 MLOAD SWAP1 POP SWAP1 JUMP JUMPDEST PUSH1 0x0 DUP1 REVERT JUMPDEST PUSH1 0x0 DUP1 REVERT JUMPDEST PUSH1 0x0 PUSH20 0xFFFFFFFFFFFFFFFFFFFFFFFFFFFFFFFFFFFFFFFF DUP3 AND SWAP1 POP SWAP2 SWAP1 POP JUMP JUMPDEST PUSH1 0x0 PUSH3 0xF9 DUP3 PUSH3 0xCC JUMP JUMPDEST SWAP1 POP SWAP2 SWAP1 POP JUMP JUMPDEST PUSH3 0x10B DUP2 PUSH3 0xEC JUMP JUMPDEST DUP2 EQ PUSH3 0x117 JUMPI PUSH1 0x0 DUP1 REVERT JUMPDEST POP JUMP JUMPDEST PUSH1 0x0 DUP2 MLOAD SWAP1 POP PUSH3 0x12B DUP2 PUSH3 0x100 JUMP JUMPDEST SWAP3 SWAP2 POP POP JUMP JUMPDEST PUSH1 0x0 DUP1 REVERT JUMPDEST PUSH1 0x0 DUP1 REVERT JUMPDEST PUSH1 0x0 PUSH1 0x1F NOT PUSH1 0x1F DUP4 ADD AND SWAP1 POP SWAP2 SWAP1 POP JUMP JUMPDEST PUSH32 0x4E487B7100000000000000000000000000000000000000000000000000000000 PUSH1 0x0 MSTORE PUSH1 0x41 PUSH1 0x4 MSTORE PUSH1 0x24 PUSH1 0x0 REVERT JUMPDEST PUSH3 0x186 DUP3 PUSH3 0x13B JUMP JUMPDEST DUP2 ADD DUP2 DUP2 LT PUSH8 0xFFFFFFFFFFFFFFFF DUP3 GT OR ISZERO PUSH3 0x1A8 JUMPI PUSH3 0x1A7 PUSH3 0x14C JUMP JUMPDEST JUMPDEST DUP1 PUSH1 0x40 MSTORE POP POP POP JUMP JUMPDEST PUSH1 0x0 PUSH3 0x1BD PUSH3 0xB8 JUMP JUMPDEST SWAP1 POP PUSH3 0x1CB DUP3 DUP3 PUSH3 0x17B JUMP JUMPDEST SWAP2 SWAP1 POP JUMP JUMPDEST PUSH1 0x0 PUSH8 0xFFFFFFFFFFFFFFFF DUP3 GT ISZERO PUSH3 0x1EE JUMPI PUSH3 0x1ED PUSH3 0x14C JUMP JUMPDEST JUMPDEST PUSH3 0x1F9 DUP3 PUSH3 0x13B JUMP JUMPDEST SWAP1 POP PUSH1 0x20 DUP2 ADD SWAP1 POP SWAP2 SWAP1 POP JUMP JUMPDEST PUSH1 0x0 JUMPDEST DUP4 DUP2 LT ISZERO PUSH3 0x226 JUMPI DUP1 DUP3 ADD MLOAD DUP2 DUP5 ADD MSTORE PUSH1 0x20 DUP2 ADD SWAP1 POP PUSH3 0x209 JUMP JUMPDEST PUSH1 0x0 DUP5 DUP5 ADD MSTORE POP POP POP POP JUMP JUMPDEST PUSH1 0x0 PUSH3 0x249 PUSH3 0x243 DUP5 PUSH3 0x1D0 JUMP JUMPDEST PUSH3 0x1B1 JUMP JUMPDEST SWAP1 POP DUP3 DUP2 MSTORE PUSH1 0x20 DUP2 ADD DUP5 DUP5 DUP5 ADD GT ISZERO PUSH3 0x268 JUMPI PUSH3 0x267 PUSH3 0x136 JUMP JUMPDEST JUMPDEST PUSH3 0x275 DUP5 DUP3 DUP6 PUSH3 0x206 JUMP JUMPDEST POP SWAP4 SWAP3 POP POP POP JUMP JUMPDEST PUSH1 0x0 DUP3 PUSH1 0x1F DUP4 ADD SLT PUSH3 0x295 JUMPI PUSH3 0x294 PUSH3 0x131 JUMP JUMPDEST JUMPDEST DUP2 MLOAD PUSH3 0x2A7 DUP5 DUP3 PUSH1 0x20 DUP7 ADD PUSH3 0x232 JUMP JUMPDEST SWAP2 POP POP SWAP3 SWAP2 POP POP JUMP JUMPDEST PUSH1 0x0 DUP1 PUSH1 0x0 PUSH1 0x60 DUP5 DUP7 SUB SLT ISZERO PUSH3 0x2CC JUMPI PUSH3 0x2CB PUSH3 0xC2 JUMP JUMPDEST JUMPDEST PUSH1 0x0 PUSH3 0x2DC DUP7 DUP3 DUP8 ADD PUSH3 0x11A JUMP JUMPDEST SWAP4 POP POP PUSH1 0x20 DUP5 ADD MLOAD PUSH8 0xFFFFFFFFFFFFFFFF DUP2 GT ISZERO PUSH3 0x300 JUMPI PUSH3 0x2FF PUSH3 0xC7 JUMP JUMPDEST JUMPDEST PUSH3 0x30E DUP7 DUP3 DUP8 ADD PUSH3 0x27D JUMP JUMPDEST SWAP3 POP POP PUSH1 0x40 DUP5 ADD MLOAD PUSH8 0xFFFFFFFFFFFFFFFF DUP2 GT ISZERO PUSH3 0x332 JUMPI PUSH3 0x331 PUSH3 0xC7 JUMP JUMPDEST JUMPDEST PUSH3 0x340 DUP7 DUP3 DUP8 ADD PUSH3 0x27D JUMP JUMPDEST SWAP2 POP POP SWAP3 POP SWAP3 POP SWAP3 JUMP JUMPDEST PUSH1 0x0 DUP2 MLOAD SWAP1 POP SWAP2 SWAP1 POP JUMP JUMPDEST PUSH32 0x4E487B7100000000000000000000000000000000000000000000000000000000 PUSH1 0x0 MSTORE PUSH1 0x22 PUSH1 0x4 MSTORE PUSH1 0x24 PUSH1 0x0 REVERT JUMPDEST PUSH1 0x0 PUSH1 0x2 DUP3 DIV SWAP1 POP PUSH1 0x1 DUP3 AND DUP1 PUSH3 0x39D JUMPI PUSH1 0x7F DUP3 AND SWAP2 POP JUMPDEST PUSH1 0x20 DUP3 LT DUP2 SUB PUSH3 0x3B3 JUMPI PUSH3 0x3B2 PUSH3 0x355 JUMP JUMPDEST JUMPDEST POP SWAP2 SWAP1 POP JUMP JUMPDEST PUSH1 0x0 DUP2 SWAP1 POP DUP2 PUSH1 0x0 MSTORE PUSH1 0x20 PUSH1 0x0 KECCAK256 SWAP1 POP SWAP2 SWAP1 POP JUMP JUMPDEST PUSH1 0x0 PUSH1 0x20 PUSH1 0x1F DUP4 ADD DIV SWAP1 POP SWAP2 SWAP1 POP JUMP JUMPDEST PUSH1 0x0 DUP3 DUP3 SHL SWAP1 POP SWAP3 SWAP2 POP POP JUMP JUMPDEST PUSH1 0x0 PUSH1 0x8 DUP4 MUL PUSH3 0x41D PUSH32 0xFFFFFFFFFFFFFFFFFFFFFFFFFFFFFFFFFFFFFFFFFFFFFFFFFFFFFFFFFFFFFFFF DUP3 PUSH3 0x3DE JUMP JUMPDEST PUSH3 0x429 DUP7 DUP4 PUSH3 0x3DE JUMP JUMPDEST SWAP6 POP DUP1 NOT DUP5 AND SWAP4 POP DUP1 DUP7 AND DUP5 OR SWAP3 POP POP POP SWAP4 SWAP3 POP POP POP JUMP JUMPDEST PUSH1 0x0 DUP2 SWAP1 POP SWAP2 SWAP1 POP JUMP JUMPDEST PUSH1 0x0 DUP2 SWAP1 POP SWAP2 SWAP1 POP JUMP JUMPDEST PUSH1 0x0 PUSH3 0x476 PUSH3 0x470 PUSH3 0x46A DUP5 PUSH3 0x441 JUMP JUMPDEST PUSH3 0x44B JUMP JUMPDEST PUSH3 0x441 JUMP JUMPDEST SWAP1 POP SWAP2 SWAP1 POP JUMP JUMPDEST PUSH1 0x0 DUP2 SWAP1 POP SWAP2 SWAP1 POP JUMP JUMPDEST PUSH3 0x492 DUP4 PUSH3 0x455 JUMP JUMPDEST PUSH3 0x4AA PUSH3 0x4A1 DUP3 PUSH3 0x47D JUMP JUMPDEST DUP5 DUP5 SLOAD PUSH3 0x3EB JUMP JUMPDEST DUP3 SSTORE POP POP POP POP JUMP JUMPDEST PUSH1 0x0 SWAP1 JUMP JUMPDEST PUSH3 0x4C1 PUSH3 0x4B2 JUMP JUMPDEST PUSH3 0x4CE DUP2 DUP5 DUP5 PUSH3 0x487 JUMP JUMPDEST POP POP POP JUMP JUMPDEST JUMPDEST DUP2 DUP2 LT ISZERO PUSH3 0x4F6 JUMPI PUSH3 0x4EA PUSH1 0x0 DUP3 PUSH3 0x4B7 JUMP JUMPDEST PUSH1 0x1 DUP2 ADD SWAP1 POP PUSH3 0x4D4 JUMP JUMPDEST POP POP JUMP JUMPDEST PUSH1 0x1F DUP3 GT ISZERO PUSH3 0x545 JUMPI PUSH3 0x50F DUP2 PUSH3 0x3B9 JUMP JUMPDEST PUSH3 0x51A DUP5 PUSH3 0x3CE JUMP JUMPDEST DUP2 ADD PUSH1 0x20 DUP6 LT ISZERO PUSH3 0x52A JUMPI DUP2 SWAP1 POP JUMPDEST PUSH3 0x542 PUSH3 0x539 DUP6 PUSH3 0x3CE JUMP JUMPDEST DUP4 ADD DUP3 PUSH3 0x4D3 JUMP JUMPDEST POP POP JUMPDEST POP POP POP JUMP JUMPDEST PUSH1 0x0 DUP3 DUP3 SHR SWAP1 POP SWAP3 SWAP2 POP POP JUMP JUMPDEST PUSH1 0x0 PUSH3 0x56A PUSH1 0x0 NOT DUP5 PUSH1 0x8 MUL PUSH3 0x54A JUMP JUMPDEST NOT DUP1 DUP4 AND SWAP2 POP POP SWAP3 SWAP2 POP POP JUMP JUMPDEST PUSH1 0x0 PUSH3 0x585 DUP4 DUP4 PUSH3 0x557 JUMP JUMPDEST SWAP2 POP DUP3 PUSH1 0x2 MUL DUP3 OR SWAP1 POP SWAP3 SWAP2 POP POP JUMP JUMPDEST PUSH3 0x5A0 DUP3 PUSH3 0x34A JUMP JUMPDEST PUSH8 0xFFFFFFFFFFFFFFFF DUP2 GT ISZERO PUSH3 0x5BC JUMPI PUSH3 0x5BB PUSH3 0x14C JUMP JUMPDEST JUMPDEST PUSH3 0x5C8 DUP3 SLOAD PUSH3 0x384 JUMP JUMPDEST PUSH3 0x5D5 DUP3 DUP3 DUP6 PUSH3 0x4FA JUMP JUMPDEST PUSH1 0x0 PUSH1 0x20 SWAP1 POP PUSH1 0x1F DUP4 GT PUSH1 0x1 DUP2 EQ PUSH3 0x60D JUMPI PUSH1 0x0 DUP5 ISZERO PUSH3 0x5F8 JUMPI DUP3 DUP8 ADD MLOAD SWAP1 POP JUMPDEST PUSH3 0x604 DUP6 DUP3 PUSH3 0x577 JUMP JUMPDEST DUP7 SSTORE POP PUSH3 0x674 JUMP JUMPDEST PUSH1 0x1F NOT DUP5 AND PUSH3 0x61D DUP7 PUSH3 0x3B9 JUMP JUMPDEST PUSH1 0x0 JUMPDEST DUP3 DUP2 LT ISZERO PUSH3 0x647 JUMPI DUP5 DUP10 ADD MLOAD DUP3 SSTORE PUSH1 0x1 DUP3 ADD SWAP2 POP PUSH1 0x20 DUP6 ADD SWAP5 POP PUSH1 0x20 DUP2 ADD SWAP1 POP PUSH3 0x620 JUMP JUMPDEST DUP7 DUP4 LT ISZERO PUSH3 0x667 JUMPI DUP5 DUP10 ADD MLOAD PUSH3 0x663 PUSH1 0x1F DUP10 AND DUP3 PUSH3 0x557 JUMP JUMPDEST DUP4 SSTORE POP JUMPDEST PUSH1 0x1 PUSH1 0x2 DUP9 MUL ADD DUP9 SSTORE POP POP POP JUMPDEST POP POP POP POP POP POP JUMP JUMPDEST PUSH1 0x80 MLOAD PUSH2 0x2DBB PUSH3 0x6C9 PUSH1 0x0 CODECOPY PUSH1 0x0 DUP2 DUP2 PUSH2 0x68E ADD MSTORE DUP2 DUP2 PUSH2 0x818 ADD MSTORE DUP2 DUP2 PUSH2 0x11F7 ADD MSTORE DUP2 DUP2 PUSH2 0x14D2 ADD MSTORE DUP2 DUP2 PUSH2 0x1706 ADD MSTORE DUP2 DUP2 PUSH2 0x1A29 ADD MSTORE DUP2 DUP2 PUSH2 0x1B19 ADD MSTORE PUSH2 0x1C4A ADD MSTORE PUSH2 0x2DBB PUSH1 0x0 RETURN INVALID PUSH1 0x80 PUSH1 0x40 MSTORE PUSH1 0x4 CALLDATASIZE LT PUSH2 0x109 JUMPI PUSH1 0x0 CALLDATALOAD PUSH1 0xE0 SHR DUP1 PUSH4 0x7284E416 GT PUSH2 0x95 JUMPI DUP1 PUSH4 0x90C3F38F GT PUSH2 0x64 JUMPI DUP1 PUSH4 0x90C3F38F EQ PUSH2 0x31D JUMPI DUP1 PUSH4 0xA4F96C0C EQ PUSH2 0x346 JUMPI DUP1 PUSH4 0xC47F0027 EQ PUSH2 0x35D JUMPI DUP1 PUSH4 0xC82494A2 EQ PUSH2 0x386 JUMPI DUP1 PUSH4 0xFBA7CC79 EQ PUSH2 0x39D JUMPI PUSH2 0x109 JUMP JUMPDEST DUP1 PUSH4 0x7284E416 EQ PUSH2 0x282 JUMPI DUP1 PUSH4 0x7AC9B098 EQ PUSH2 0x2AD JUMPI DUP1 PUSH4 0x893D20E8 EQ PUSH2 0x2C9 JUMPI DUP1 PUSH4 0x8A2405A8 EQ PUSH2 0x2F4 JUMPI PUSH2 0x109 JUMP JUMPDEST DUP1 PUSH4 0x22F3E2D4 GT PUSH2 0xDC JUMPI DUP1 PUSH4 0x22F3E2D4 EQ PUSH2 0x1B8 JUMPI DUP1 PUSH4 0x2750FC78 EQ PUSH2 0x1E3 JUMPI DUP1 PUSH4 0x3399D389 EQ PUSH2 0x20C JUMPI DUP1 PUSH4 0x3B47A9AC EQ PUSH2 0x228 JUMPI DUP1 PUSH4 0x718B57DC EQ PUSH2 0x259 JUMPI PUSH2 0x109 JUMP JUMPDEST DUP1 PUSH4 0x6FDDE03 EQ PUSH2 0x10E JUMPI DUP1 PUSH4 0x17D7DE7C EQ PUSH2 0x139 JUMPI DUP1 PUSH4 0x1A092541 EQ PUSH2 0x164 JUMPI DUP1 PUSH4 0x21235083 EQ PUSH2 0x18F JUMPI JUMPDEST PUSH1 0x0 DUP1 REVERT JUMPDEST CALLVALUE DUP1 ISZERO PUSH2 0x11A JUMPI PUSH1 0x0 DUP1 REVERT JUMPDEST POP PUSH2 0x123 PUSH2 0x3C8 JUMP JUMPDEST PUSH1 0x40 MLOAD PUSH2 0x130 SWAP2 SWAP1 PUSH2 0x1E6D JUMP JUMPDEST PUSH1 0x40 MLOAD DUP1 SWAP2 SUB SWAP1 RETURN JUMPDEST CALLVALUE DUP1 ISZERO PUSH2 0x145 JUMPI PUSH1 0x0 DUP1 REVERT JUMPDEST POP PUSH2 0x14E PUSH2 0x456 JUMP JUMPDEST PUSH1 0x40 MLOAD PUSH2 0x15B SWAP2 SWAP1 PUSH2 0x1E6D JUMP JUMPDEST PUSH1 0x40 MLOAD DUP1 SWAP2 SUB SWAP1 RETURN JUMPDEST CALLVALUE DUP1 ISZERO PUSH2 0x170 JUMPI PUSH1 0x0 DUP1 REVERT JUMPDEST POP PUSH2 0x179 PUSH2 0x4E8 JUMP JUMPDEST PUSH1 0x40 MLOAD PUSH2 0x186 SWAP2 SWAP1 PUSH2 0x1E6D JUMP JUMPDEST PUSH1 0x40 MLOAD DUP1 SWAP2 SUB SWAP1 RETURN JUMPDEST CALLVALUE DUP1 ISZERO PUSH2 0x19B JUMPI PUSH1 0x0 DUP1 REVERT JUMPDEST POP PUSH2 0x1B6 PUSH1 0x4 DUP1 CALLDATASIZE SUB DUP2 ADD SWAP1 PUSH2 0x1B1 SWAP2 SWAP1 PUSH2 0x1ED9 JUMP JUMPDEST PUSH2 0x57A JUMP JUMPDEST STOP JUMPDEST CALLVALUE DUP1 ISZERO PUSH2 0x1C4 JUMPI PUSH1 0x0 DUP1 REVERT JUMPDEST POP PUSH2 0x1CD PUSH2 0x803 JUMP JUMPDEST PUSH1 0x40 MLOAD PUSH2 0x1DA SWAP2 SWAP1 PUSH2 0x1F21 JUMP JUMPDEST PUSH1 0x40 MLOAD DUP1 SWAP2 SUB SWAP1 RETURN JUMPDEST CALLVALUE DUP1 ISZERO PUSH2 0x1EF JUMPI PUSH1 0x0 DUP1 REVERT JUMPDEST POP PUSH2 0x20A PUSH1 0x4 DUP1 CALLDATASIZE SUB DUP2 ADD SWAP1 PUSH2 0x205 SWAP2 SWAP1 PUSH2 0x1F68 JUMP JUMPDEST PUSH2 0x816 JUMP JUMPDEST STOP JUMPDEST PUSH2 0x226 PUSH1 0x4 DUP1 CALLDATASIZE SUB DUP2 ADD SWAP1 PUSH2 0x221 SWAP2 SWAP1 PUSH2 0x1FF3 JUMP JUMPDEST PUSH2 0x8C1 JUMP JUMPDEST STOP JUMPDEST CALLVALUE DUP1 ISZERO PUSH2 0x234 JUMPI PUSH1 0x0 DUP1 REVERT JUMPDEST POP PUSH2 0x23D PUSH2 0xBEF JUMP JUMPDEST PUSH1 0x40 MLOAD PUSH2 0x250 SWAP8 SWAP7 SWAP6 SWAP5 SWAP4 SWAP3 SWAP2 SWAP1 PUSH2 0x22CE JUMP JUMPDEST PUSH1 0x40 MLOAD DUP1 SWAP2 SUB SWAP1 RETURN JUMPDEST CALLVALUE DUP1 ISZERO PUSH2 0x265 JUMPI PUSH1 0x0 DUP1 REVERT JUMPDEST POP PUSH2 0x280 PUSH1 0x4 DUP1 CALLDATASIZE SUB DUP2 ADD SWAP1 PUSH2 0x27B SWAP2 SWAP1 PUSH2 0x24A3 JUMP JUMPDEST PUSH2 0x11F5 JUMP JUMPDEST STOP JUMPDEST CALLVALUE DUP1 ISZERO PUSH2 0x28E JUMPI PUSH1 0x0 DUP1 REVERT JUMPDEST POP PUSH2 0x297 PUSH2 0x1330 JUMP JUMPDEST PUSH1 0x40 MLOAD PUSH2 0x2A4 SWAP2 SWAP1 PUSH2 0x1E6D JUMP JUMPDEST PUSH1 0x40 MLOAD DUP1 SWAP2 SUB SWAP1 RETURN JUMPDEST PUSH2 0x2C7 PUSH1 0x4 DUP1 CALLDATASIZE SUB DUP2 ADD SWAP1 PUSH2 0x2C2 SWAP2 SWAP1 PUSH2 0x1ED9 JUMP JUMPDEST PUSH2 0x13BE JUMP JUMPDEST STOP JUMPDEST CALLVALUE DUP1 ISZERO PUSH2 0x2D5 JUMPI PUSH1 0x0 DUP1 REVERT JUMPDEST POP PUSH2 0x2DE PUSH2 0x1702 JUMP JUMPDEST PUSH1 0x40 MLOAD PUSH2 0x2EB SWAP2 SWAP1 PUSH2 0x252A JUMP JUMPDEST PUSH1 0x40 MLOAD DUP1 SWAP2 SUB SWAP1 RETURN JUMPDEST CALLVALUE DUP1 ISZERO PUSH2 0x300 JUMPI PUSH1 0x0 DUP1 REVERT JUMPDEST POP PUSH2 0x31B PUSH1 0x4 DUP1 CALLDATASIZE SUB DUP2 ADD SWAP1 PUSH2 0x316 SWAP2 SWAP1 PUSH2 0x1FF3 JUMP JUMPDEST PUSH2 0x172A JUMP JUMPDEST STOP JUMPDEST CALLVALUE DUP1 ISZERO PUSH2 0x329 JUMPI PUSH1 0x0 DUP1 REVERT JUMPDEST POP PUSH2 0x344 PUSH1 0x4 DUP1 CALLDATASIZE SUB DUP2 ADD SWAP1 PUSH2 0x33F SWAP2 SWAP1 PUSH2 0x2545 JUMP JUMPDEST PUSH2 0x1A27 JUMP JUMPDEST STOP JUMPDEST CALLVALUE DUP1 ISZERO PUSH2 0x352 JUMPI PUSH1 0x0 DUP1 REVERT JUMPDEST POP PUSH2 0x35B PUSH2 0x1B17 JUMP JUMPDEST STOP JUMPDEST CALLVALUE DUP1 ISZERO PUSH2 0x369 JUMPI PUSH1 0x0 DUP1 REVERT JUMPDEST POP PUSH2 0x384 PUSH1 0x4 DUP1 CALLDATASIZE SUB DUP2 ADD SWAP1 PUSH2 0x37F SWAP2 SWAP1 PUSH2 0x2545 JUMP JUMPDEST PUSH2 0x1C48 JUMP JUMPDEST STOP JUMPDEST CALLVALUE DUP1 ISZERO PUSH2 0x392 JUMPI PUSH1 0x0 DUP1 REVERT JUMPDEST POP PUSH2 0x39B PUSH2 0x1D38 JUMP JUMPDEST STOP JUMPDEST CALLVALUE DUP1 ISZERO PUSH2 0x3A9 JUMPI PUSH1 0x0 DUP1 REVERT JUMPDEST POP PUSH2 0x3B2 PUSH2 0x1DC6 JUMP JUMPDEST PUSH1 0x40 MLOAD PUSH2 0x3BF SWAP2 SWAP1 PUSH2 0x1F21 JUMP JUMPDEST PUSH1 0x40 MLOAD DUP1 SWAP2 SUB SWAP1 RETURN JUMPDEST PUSH1 0x0 DUP1 SLOAD PUSH2 0x3D5 SWAP1 PUSH2 0x25BD JUMP JUMPDEST DUP1 PUSH1 0x1F ADD PUSH1 0x20 DUP1 SWAP2 DIV MUL PUSH1 0x20 ADD PUSH1 0x40 MLOAD SWAP1 DUP2 ADD PUSH1 0x40 MSTORE DUP1 SWAP3 SWAP2 SWAP1 DUP2 DUP2 MSTORE PUSH1 0x20 ADD DUP3 DUP1 SLOAD PUSH2 0x401 SWAP1 PUSH2 0x25BD JUMP JUMPDEST DUP1 ISZERO PUSH2 0x44E JUMPI DUP1 PUSH1 0x1F LT PUSH2 0x423 JUMPI PUSH2 0x100 DUP1 DUP4 SLOAD DIV MUL DUP4 MSTORE SWAP2 PUSH1 0x20 ADD SWAP2 PUSH2 0x44E JUMP JUMPDEST DUP3 ADD SWAP2 SWAP1 PUSH1 0x0 MSTORE PUSH1 0x20 PUSH1 0x0 KECCAK256 SWAP1 JUMPDEST DUP2 SLOAD DUP2 MSTORE SWAP1 PUSH1 0x1 ADD SWAP1 PUSH1 0x20 ADD DUP1 DUP4 GT PUSH2 0x431 JUMPI DUP3 SWAP1 SUB PUSH1 0x1F AND DUP3 ADD SWAP2 JUMPDEST POP POP POP POP POP DUP2 JUMP JUMPDEST PUSH1 0x60 PUSH1 0x0 DUP1 SLOAD PUSH2 0x465 SWAP1 PUSH2 0x25BD JUMP JUMPDEST DUP1 PUSH1 0x1F ADD PUSH1 0x20 DUP1 SWAP2 DIV MUL PUSH1 0x20 ADD PUSH1 0x40 MLOAD SWAP1 DUP2 ADD PUSH1 0x40 MSTORE DUP1 SWAP3 SWAP2 SWAP1 DUP2 DUP2 MSTORE PUSH1 0x20 ADD DUP3 DUP1 SLOAD PUSH2 0x491 SWAP1 PUSH2 0x25BD JUMP JUMPDEST DUP1 ISZERO PUSH2 0x4DE JUMPI DUP1 PUSH1 0x1F LT PUSH2 0x4B3 JUMPI PUSH2 0x100 DUP1 DUP4 SLOAD DIV MUL DUP4 MSTORE SWAP2 PUSH1 0x20 ADD SWAP2 PUSH2 0x4DE JUMP JUMPDEST DUP3 ADD SWAP2 SWAP1 PUSH1 0x0 MSTORE PUSH1 0x20 PUSH1 0x0 KECCAK256 SWAP1 JUMPDEST DUP2 SLOAD DUP2 MSTORE SWAP1 PUSH1 0x1 ADD SWAP1 PUSH1 0x20 ADD DUP1 DUP4 GT PUSH2 0x4C1 JUMPI DUP3 SWAP1 SUB PUSH1 0x1F AND DUP3 ADD SWAP2 JUMPDEST POP POP POP POP POP SWAP1 POP SWAP1 JUMP JUMPDEST PUSH1 0x60 PUSH1 0x1 DUP1 SLOAD PUSH2 0x4F7 SWAP1 PUSH2 0x25BD JUMP JUMPDEST DUP1 PUSH1 0x1F ADD PUSH1 0x20 DUP1 SWAP2 DIV MUL PUSH1 0x20 ADD PUSH1 0x40 MLOAD SWAP1 DUP2 ADD PUSH1 0x40 MSTORE DUP1 SWAP3 SWAP2 SWAP1 DUP2 DUP2 MSTORE PUSH1 0x20 ADD DUP3 DUP1 SLOAD PUSH2 0x523 SWAP1 PUSH2 0x25BD JUMP JUMPDEST DUP1 ISZERO PUSH2 0x570 JUMPI DUP1 PUSH1 0x1F LT PUSH2 0x545 JUMPI PUSH2 0x100 DUP1 DUP4 SLOAD DIV MUL DUP4 MSTORE SWAP2 PUSH1 0x20 ADD SWAP2 PUSH2 0x570 JUMP JUMPDEST DUP3 ADD SWAP2 SWAP1 PUSH1 0x0 MSTORE PUSH1 0x20 PUSH1 0x0 KECCAK256 SWAP1 JUMPDEST DUP2 SLOAD DUP2 MSTORE SWAP1 PUSH1 0x1 ADD SWAP1 PUSH1 0x20 ADD DUP1 DUP4 GT PUSH2 0x553 JUMPI DUP3 SWAP1 SUB PUSH1 0x1F AND DUP3 ADD SWAP2 JUMPDEST POP POP POP POP POP SWAP1 POP SWAP1 JUMP JUMPDEST DUP1 PUSH1 0x0 PUSH20 0xFFFFFFFFFFFFFFFFFFFFFFFFFFFFFFFFFFFFFFFF AND PUSH1 0x4 PUSH1 0x0 DUP4 DUP2 MSTORE PUSH1 0x20 ADD SWAP1 DUP2 MSTORE PUSH1 0x20 ADD PUSH1 0x0 KECCAK256 PUSH1 0x0 ADD PUSH1 0x0 SWAP1 SLOAD SWAP1 PUSH2 0x100 EXP SWAP1 DIV PUSH20 0xFFFFFFFFFFFFFFFFFFFFFFFFFFFFFFFFFFFFFFFF AND PUSH20 0xFFFFFFFFFFFFFFFFFFFFFFFFFFFFFFFFFFFFFFFF AND SUB PUSH2 0x620 JUMPI PUSH1 0x40 MLOAD PUSH32 0x8C379A000000000000000000000000000000000000000000000000000000000 DUP2 MSTORE PUSH1 0x4 ADD PUSH2 0x617 SWAP1 PUSH2 0x263A JUMP JUMPDEST PUSH1 0x40 MLOAD DUP1 SWAP2 SUB SWAP1 REVERT JUMPDEST DUP2 CALLER PUSH20 0xFFFFFFFFFFFFFFFFFFFFFFFFFFFFFFFFFFFFFFFF AND PUSH1 0x4 PUSH1 0x0 DUP4 DUP2 MSTORE PUSH1 0x20 ADD SWAP1 DUP2 MSTORE PUSH1 0x20 ADD PUSH1 0x0 KECCAK256 PUSH1 0x0 ADD PUSH1 0x0 SWAP1 SLOAD SWAP1 PUSH2 0x100 EXP SWAP1 DIV PUSH20 0xFFFFFFFFFFFFFFFFFFFFFFFFFFFFFFFFFFFFFFFF AND PUSH20 0xFFFFFFFFFFFFFFFFFFFFFFFFFFFFFFFFFFFFFFFF AND EQ DUP1 PUSH2 0x6DC JUMPI POP PUSH32 0x0 PUSH20 0xFFFFFFFFFFFFFFFFFFFFFFFFFFFFFFFFFFFFFFFF AND CALLER PUSH20 0xFFFFFFFFFFFFFFFFFFFFFFFFFFFFFFFFFFFFFFFF AND EQ JUMPDEST PUSH2 0x71B JUMPI PUSH1 0x40 MLOAD PUSH32 0x8C379A000000000000000000000000000000000000000000000000000000000 DUP2 MSTORE PUSH1 0x4 ADD PUSH2 0x712 SWAP1 PUSH2 0x26A6 JUMP JUMPDEST PUSH1 0x40 MLOAD DUP1 SWAP2 SUB SWAP1 REVERT JUMPDEST PUSH1 0x2 PUSH1 0x0 SWAP1 SLOAD SWAP1 PUSH2 0x100 EXP SWAP1 DIV PUSH1 0xFF AND PUSH2 0x76A JUMPI PUSH1 0x40 MLOAD PUSH32 0x8C379A000000000000000000000000000000000000000000000000000000000 DUP2 MSTORE PUSH1 0x4 ADD PUSH2 0x761 SWAP1 PUSH2 0x2712 JUMP JUMPDEST PUSH1 0x40 MLOAD DUP1 SWAP2 SUB SWAP1 REVERT JUMPDEST PUSH2 0x3E8 TIMESTAMP PUSH2 0x778 SWAP2 SWAP1 PUSH2 0x2761 JUMP JUMPDEST PUSH1 0x4 PUSH1 0x0 DUP6 DUP2 MSTORE PUSH1 0x20 ADD SWAP1 DUP2 MSTORE PUSH1 0x20 ADD PUSH1 0x0 KECCAK256 PUSH1 0x5 ADD DUP2 SWAP1 SSTORE POP PUSH1 0x3 PUSH1 0x4 PUSH1 0x0 DUP6 DUP2 MSTORE PUSH1 0x20 ADD SWAP1 DUP2 MSTORE PUSH1 0x20 ADD PUSH1 0x0 KECCAK256 PUSH1 0x6 ADD PUSH1 0x0 PUSH2 0x100 EXP DUP2 SLOAD DUP2 PUSH1 0xFF MUL NOT AND SWAP1 DUP4 PUSH1 0x3 DUP2 GT ISZERO PUSH2 0x7CC JUMPI PUSH2 0x7CB PUSH2 0x27A3 JUMP JUMPDEST JUMPDEST MUL OR SWAP1 SSTORE POP DUP3 PUSH32 0xBD2BCEA75D16A85F005CD83447E0DE57341BF926FE7419E6D553663E91AB4DA7 PUSH1 0x40 MLOAD PUSH1 0x40 MLOAD DUP1 SWAP2 SUB SWAP1 LOG2 POP POP POP JUMP JUMPDEST PUSH1 0x2 PUSH1 0x0 SWAP1 SLOAD SWAP1 PUSH2 0x100 EXP SWAP1 DIV PUSH1 0xFF AND DUP2 JUMP JUMPDEST PUSH32 0x0 PUSH20 0xFFFFFFFFFFFFFFFFFFFFFFFFFFFFFFFFFFFFFFFF AND CALLER PUSH20 0xFFFFFFFFFFFFFFFFFFFFFFFFFFFFFFFFFFFFFFFF AND EQ PUSH2 0x8A4 JUMPI PUSH1 0x40 MLOAD PUSH32 0x8C379A000000000000000000000000000000000000000000000000000000000 DUP2 MSTORE PUSH1 0x4 ADD PUSH2 0x89B SWAP1 PUSH2 0x281E JUMP JUMPDEST PUSH1 0x40 MLOAD DUP1 SWAP2 SUB SWAP1 REVERT JUMPDEST DUP1 PUSH1 0x2 PUSH1 0x0 PUSH2 0x100 EXP DUP2 SLOAD DUP2 PUSH1 0xFF MUL NOT AND SWAP1 DUP4 ISZERO ISZERO MUL OR SWAP1 SSTORE POP POP JUMP JUMPDEST DUP3 PUSH1 0x0 JUMPDEST PUSH1 0x3 SLOAD DUP2 LT ISZERO PUSH2 0x9B5 JUMPI DUP2 PUSH20 0xFFFFFFFFFFFFFFFFFFFFFFFFFFFFFFFFFFFFFFFF AND PUSH1 0x4 PUSH1 0x0 DUP4 DUP2 MSTORE PUSH1 0x20 ADD SWAP1 DUP2 MSTORE PUSH1 0x20 ADD PUSH1 0x0 KECCAK256 PUSH1 0x0 ADD PUSH1 0x0 SWAP1 SLOAD SWAP1 PUSH2 0x100 EXP SWAP1 DIV PUSH20 0xFFFFFFFFFFFFFFFFFFFFFFFFFFFFFFFFFFFFFFFF AND PUSH20 0xFFFFFFFFFFFFFFFFFFFFFFFFFFFFFFFFFFFFFFFF AND EQ DUP1 ISZERO PUSH2 0x962 JUMPI POP PUSH1 0x4 PUSH1 0x0 DUP3 DUP2 MSTORE PUSH1 0x20 ADD SWAP1 DUP2 MSTORE PUSH1 0x20 ADD PUSH1 0x0 KECCAK256 PUSH1 0x5 ADD SLOAD PUSH2 0x3E8 TIMESTAMP PUSH2 0x960 SWAP2 SWAP1 PUSH2 0x2761 JUMP JUMPDEST LT JUMPDEST ISZERO PUSH2 0x9A2 JUMPI PUSH1 0x40 MLOAD PUSH32 0x8C379A000000000000000000000000000000000000000000000000000000000 DUP2 MSTORE PUSH1 0x4 ADD PUSH2 0x999 SWAP1 PUSH2 0x28B0 JUMP JUMPDEST PUSH1 0x40 MLOAD DUP1 SWAP2 SUB SWAP1 REVERT JUMPDEST DUP1 DUP1 PUSH2 0x9AD SWAP1 PUSH2 0x28D0 JUMP JUMPDEST SWAP2 POP POP PUSH2 0x8C5 JUMP JUMPDEST POP DUP3 PUSH1 0x0 DUP2 GT PUSH2 0x9FA JUMPI PUSH1 0x40 MLOAD PUSH32 0x8C379A000000000000000000000000000000000000000000000000000000000 DUP2 MSTORE PUSH1 0x4 ADD PUSH2 0x9F1 SWAP1 PUSH2 0x2964 JUMP JUMPDEST PUSH1 0x40 MLOAD DUP1 SWAP2 SUB SWAP1 REVERT JUMPDEST PUSH1 0x2 PUSH1 0x0 SWAP1 SLOAD SWAP1 PUSH2 0x100 EXP SWAP1 DIV PUSH1 0xFF AND PUSH2 0xA49 JUMPI PUSH1 0x40 MLOAD PUSH32 0x8C379A000000000000000000000000000000000000000000000000000000000 DUP2 MSTORE PUSH1 0x4 ADD PUSH2 0xA40 SWAP1 PUSH2 0x2712 JUMP JUMPDEST PUSH1 0x40 MLOAD DUP1 SWAP2 SUB SWAP1 REVERT JUMPDEST PUSH1 0x0 PUSH1 0x40 MLOAD DUP1 PUSH1 0xE0 ADD PUSH1 0x40 MSTORE DUP1 DUP8 PUSH20 0xFFFFFFFFFFFFFFFFFFFFFFFFFFFFFFFFFFFFFFFF AND DUP2 MSTORE PUSH1 0x20 ADD PUSH1 0x3 SLOAD DUP2 MSTORE PUSH1 0x20 ADD DUP7 DUP2 MSTORE PUSH1 0x20 ADD DUP6 DUP2 MSTORE PUSH1 0x20 ADD PUSH2 0x3E8 TIMESTAMP PUSH2 0xA94 SWAP2 SWAP1 PUSH2 0x2761 JUMP JUMPDEST DUP2 MSTORE PUSH1 0x20 ADD PUSH2 0x3E8 PUSH3 0x15180 DUP8 PUSH2 0xAAB SWAP2 SWAP1 PUSH2 0x2761 JUMP JUMPDEST TIMESTAMP PUSH2 0xAB6 SWAP2 SWAP1 PUSH2 0x2984 JUMP JUMPDEST PUSH2 0xAC0 SWAP2 SWAP1 PUSH2 0x2761 JUMP JUMPDEST DUP2 MSTORE PUSH1 0x20 ADD PUSH1 0x1 PUSH1 0x3 DUP2 GT ISZERO PUSH2 0xAD9 JUMPI PUSH2 0xAD8 PUSH2 0x27A3 JUMP JUMPDEST JUMPDEST DUP2 MSTORE POP SWAP1 POP DUP1 PUSH1 0x4 PUSH1 0x0 PUSH1 0x3 SLOAD DUP2 MSTORE PUSH1 0x20 ADD SWAP1 DUP2 MSTORE PUSH1 0x20 ADD PUSH1 0x0 KECCAK256 PUSH1 0x0 DUP3 ADD MLOAD DUP2 PUSH1 0x0 ADD PUSH1 0x0 PUSH2 0x100 EXP DUP2 SLOAD DUP2 PUSH20 0xFFFFFFFFFFFFFFFFFFFFFFFFFFFFFFFFFFFFFFFF MUL NOT AND SWAP1 DUP4 PUSH20 0xFFFFFFFFFFFFFFFFFFFFFFFFFFFFFFFFFFFFFFFF AND MUL OR SWAP1 SSTORE POP PUSH1 0x20 DUP3 ADD MLOAD DUP2 PUSH1 0x1 ADD SSTORE PUSH1 0x40 DUP3 ADD MLOAD DUP2 PUSH1 0x2 ADD SSTORE PUSH1 0x60 DUP3 ADD MLOAD DUP2 PUSH1 0x3 ADD SSTORE PUSH1 0x80 DUP3 ADD MLOAD DUP2 PUSH1 0x4 ADD SSTORE PUSH1 0xA0 DUP3 ADD MLOAD DUP2 PUSH1 0x5 ADD SSTORE PUSH1 0xC0 DUP3 ADD MLOAD DUP2 PUSH1 0x6 ADD PUSH1 0x0 PUSH2 0x100 EXP DUP2 SLOAD DUP2 PUSH1 0xFF MUL NOT AND SWAP1 DUP4 PUSH1 0x3 DUP2 GT ISZERO PUSH2 0xB98 JUMPI PUSH2 0xB97 PUSH2 0x27A3 JUMP JUMPDEST JUMPDEST MUL OR SWAP1 SSTORE POP SWAP1 POP POP PUSH1 0x3 SLOAD PUSH32 0xFC92A747FA9C2199BB773D08EB7A76C871B1C9B634B5A1AFC3CC4CCC643032E6 PUSH1 0x40 MLOAD PUSH1 0x40 MLOAD DUP1 SWAP2 SUB SWAP1 LOG2 PUSH1 0x3 PUSH1 0x0 DUP2 SLOAD DUP1 SWAP3 SWAP2 SWAP1 PUSH2 0xBE2 SWAP1 PUSH2 0x28D0 JUMP JUMPDEST SWAP2 SWAP1 POP SSTORE POP POP POP POP POP POP POP JUMP JUMPDEST PUSH1 0x60 DUP1 PUSH1 0x60 DUP1 PUSH1 0x60 DUP1 PUSH1 0x60 PUSH1 0x0 PUSH1 0x3 SLOAD PUSH8 0xFFFFFFFFFFFFFFFF DUP2 GT ISZERO PUSH2 0xC18 JUMPI PUSH2 0xC17 PUSH2 0x2378 JUMP JUMPDEST JUMPDEST PUSH1 0x40 MLOAD SWAP1 DUP1 DUP3 MSTORE DUP1 PUSH1 0x20 MUL PUSH1 0x20 ADD DUP3 ADD PUSH1 0x40 MSTORE DUP1 ISZERO PUSH2 0xC46 JUMPI DUP2 PUSH1 0x20 ADD PUSH1 0x20 DUP3 MUL DUP1 CALLDATASIZE DUP4 CALLDATACOPY DUP1 DUP3 ADD SWAP2 POP POP SWAP1 POP JUMPDEST POP SWAP1 POP PUSH1 0x0 PUSH1 0x3 SLOAD PUSH8 0xFFFFFFFFFFFFFFFF DUP2 GT ISZERO PUSH2 0xC67 JUMPI PUSH2 0xC66 PUSH2 0x2378 JUMP JUMPDEST JUMPDEST PUSH1 0x40 MLOAD SWAP1 DUP1 DUP3 MSTORE DUP1 PUSH1 0x20 MUL PUSH1 0x20 ADD DUP3 ADD PUSH1 0x40 MSTORE DUP1 ISZERO PUSH2 0xC95 JUMPI DUP2 PUSH1 0x20 ADD PUSH1 0x20 DUP3 MUL DUP1 CALLDATASIZE DUP4 CALLDATACOPY DUP1 DUP3 ADD SWAP2 POP POP SWAP1 POP JUMPDEST POP SWAP1 POP PUSH1 0x0 PUSH1 0x3 SLOAD PUSH8 0xFFFFFFFFFFFFFFFF DUP2 GT ISZERO PUSH2 0xCB6 JUMPI PUSH2 0xCB5 PUSH2 0x2378 JUMP JUMPDEST JUMPDEST PUSH1 0x40 MLOAD SWAP1 DUP1 DUP3 MSTORE DUP1 PUSH1 0x20 MUL PUSH1 0x20 ADD DUP3 ADD PUSH1 0x40 MSTORE DUP1 ISZERO PUSH2 0xCE4 JUMPI DUP2 PUSH1 0x20 ADD PUSH1 0x20 DUP3 MUL DUP1 CALLDATASIZE DUP4 CALLDATACOPY DUP1 DUP3 ADD SWAP2 POP POP SWAP1 POP JUMPDEST POP SWAP1 POP PUSH1 0x0 PUSH1 0x3 SLOAD PUSH8 0xFFFFFFFFFFFFFFFF DUP2 GT ISZERO PUSH2 0xD05 JUMPI PUSH2 0xD04 PUSH2 0x2378 JUMP JUMPDEST JUMPDEST PUSH1 0x40 MLOAD SWAP1 DUP1 DUP3 MSTORE DUP1 PUSH1 0x20 MUL PUSH1 0x20 ADD DUP3 ADD PUSH1 0x40 MSTORE DUP1 ISZERO PUSH2 0xD33 JUMPI DUP2 PUSH1 0x20 ADD PUSH1 0x20 DUP3 MUL DUP1 CALLDATASIZE DUP4 CALLDATACOPY DUP1 DUP3 ADD SWAP2 POP POP SWAP1 POP JUMPDEST POP SWAP1 POP PUSH1 0x0 PUSH1 0x3 SLOAD PUSH8 0xFFFFFFFFFFFFFFFF DUP2 GT ISZERO PUSH2 0xD54 JUMPI PUSH2 0xD53 PUSH2 0x2378 JUMP JUMPDEST JUMPDEST PUSH1 0x40 MLOAD SWAP1 DUP1 DUP3 MSTORE DUP1 PUSH1 0x20 MUL PUSH1 0x20 ADD DUP3 ADD PUSH1 0x40 MSTORE DUP1 ISZERO PUSH2 0xD82 JUMPI DUP2 PUSH1 0x20 ADD PUSH1 0x20 DUP3 MUL DUP1 CALLDATASIZE DUP4 CALLDATACOPY DUP1 DUP3 ADD SWAP2 POP POP SWAP1 POP JUMPDEST POP SWAP1 POP PUSH1 0x0 PUSH1 0x3 SLOAD PUSH8 0xFFFFFFFFFFFFFFFF DUP2 GT ISZERO PUSH2 0xDA3 JUMPI PUSH2 0xDA2 PUSH2 0x2378 JUMP JUMPDEST JUMPDEST PUSH1 0x40 MLOAD SWAP1 DUP1 DUP3 MSTORE DUP1 PUSH1 0x20 MUL PUSH1 0x20 ADD DUP3 ADD PUSH1 0x40 MSTORE DUP1 ISZERO PUSH2 0xDD1 JUMPI DUP2 PUSH1 0x20 ADD PUSH1 0x20 DUP3 MUL DUP1 CALLDATASIZE DUP4 CALLDATACOPY DUP1 DUP3 ADD SWAP2 POP POP SWAP1 POP JUMPDEST POP SWAP1 POP PUSH1 0x0 PUSH1 0x3 SLOAD PUSH8 0xFFFFFFFFFFFFFFFF DUP2 GT ISZERO PUSH2 0xDF2 JUMPI PUSH2 0xDF1 PUSH2 0x2378 JUMP JUMPDEST JUMPDEST PUSH1 0x40 MLOAD SWAP1 DUP1 DUP3 MSTORE DUP1 PUSH1 0x20 MUL PUSH1 0x20 ADD DUP3 ADD PUSH1 0x40 MSTORE DUP1 ISZERO PUSH2 0xE25 JUMPI DUP2 PUSH1 0x20 ADD JUMPDEST PUSH1 0x60 DUP2 MSTORE PUSH1 0x20 ADD SWAP1 PUSH1 0x1 SWAP1 SUB SWAP1 DUP2 PUSH2 0xE10 JUMPI SWAP1 POP JUMPDEST POP SWAP1 POP PUSH1 0x0 JUMPDEST PUSH1 0x3 SLOAD DUP2 LT ISZERO PUSH2 0x11CF JUMPI PUSH1 0x4 PUSH1 0x0 DUP3 DUP2 MSTORE PUSH1 0x20 ADD SWAP1 DUP2 MSTORE PUSH1 0x20 ADD PUSH1 0x0 KECCAK256 PUSH1 0x0 ADD PUSH1 0x0 SWAP1 SLOAD SWAP1 PUSH2 0x100 EXP SWAP1 DIV PUSH20 0xFFFFFFFFFFFFFFFFFFFFFFFFFFFFFFFFFFFFFFFF AND DUP9 DUP3 DUP2 MLOAD DUP2 LT PUSH2 0xE7F JUMPI PUSH2 0xE7E PUSH2 0x29B8 JUMP JUMPDEST JUMPDEST PUSH1 0x20 MUL PUSH1 0x20 ADD ADD SWAP1 PUSH20 0xFFFFFFFFFFFFFFFFFFFFFFFFFFFFFFFFFFFFFFFF AND SWAP1 DUP2 PUSH20 0xFFFFFFFFFFFFFFFFFFFFFFFFFFFFFFFFFFFFFFFF AND DUP2 MSTORE POP POP PUSH1 0x4 PUSH1 0x0 DUP3 DUP2 MSTORE PUSH1 0x20 ADD SWAP1 DUP2 MSTORE PUSH1 0x20 ADD PUSH1 0x0 KECCAK256 PUSH1 0x1 ADD SLOAD DUP8 DUP3 DUP2 MLOAD DUP2 LT PUSH2 0xEE3 JUMPI PUSH2 0xEE2 PUSH2 0x29B8 JUMP JUMPDEST JUMPDEST PUSH1 0x20 MUL PUSH1 0x20 ADD ADD DUP2 DUP2 MSTORE POP POP PUSH1 0x4 PUSH1 0x0 DUP3 DUP2 MSTORE PUSH1 0x20 ADD SWAP1 DUP2 MSTORE PUSH1 0x20 ADD PUSH1 0x0 KECCAK256 PUSH1 0x2 ADD SLOAD DUP7 DUP3 DUP2 MLOAD DUP2 LT PUSH2 0xF19 JUMPI PUSH2 0xF18 PUSH2 0x29B8 JUMP JUMPDEST JUMPDEST PUSH1 0x20 MUL PUSH1 0x20 ADD ADD DUP2 DUP2 MSTORE POP POP PUSH1 0x4 PUSH1 0x0 DUP3 DUP2 MSTORE PUSH1 0x20 ADD SWAP1 DUP2 MSTORE PUSH1 0x20 ADD PUSH1 0x0 KECCAK256 PUSH1 0x3 ADD SLOAD DUP6 DUP3 DUP2 MLOAD DUP2 LT PUSH2 0xF4F JUMPI PUSH2 0xF4E PUSH2 0x29B8 JUMP JUMPDEST JUMPDEST PUSH1 0x20 MUL PUSH1 0x20 ADD ADD DUP2 DUP2 MSTORE POP POP PUSH1 0x4 PUSH1 0x0 DUP3 DUP2 MSTORE PUSH1 0x20 ADD SWAP1 DUP2 MSTORE PUSH1 0x20 ADD PUSH1 0x0 KECCAK256 PUSH1 0x4 ADD SLOAD DUP5 DUP3 DUP2 MLOAD DUP2 LT PUSH2 0xF85 JUMPI PUSH2 0xF84 PUSH2 0x29B8 JUMP JUMPDEST JUMPDEST PUSH1 0x20 MUL PUSH1 0x20 ADD ADD DUP2 DUP2 MSTORE POP POP PUSH1 0x4 PUSH1 0x0 DUP3 DUP2 MSTORE PUSH1 0x20 ADD SWAP1 DUP2 MSTORE PUSH1 0x20 ADD PUSH1 0x0 KECCAK256 PUSH1 0x5 ADD SLOAD DUP4 DUP3 DUP2 MLOAD DUP2 LT PUSH2 0xFBB JUMPI PUSH2 0xFBA PUSH2 0x29B8 JUMP JUMPDEST JUMPDEST PUSH1 0x20 MUL PUSH1 0x20 ADD ADD DUP2 DUP2 MSTORE POP POP PUSH1 0x0 PUSH1 0x3 DUP2 GT ISZERO PUSH2 0xFDB JUMPI PUSH2 0xFDA PUSH2 0x27A3 JUMP JUMPDEST JUMPDEST PUSH1 0x4 PUSH1 0x0 DUP4 DUP2 MSTORE PUSH1 0x20 ADD SWAP1 DUP2 MSTORE PUSH1 0x20 ADD PUSH1 0x0 KECCAK256 PUSH1 0x6 ADD PUSH1 0x0 SWAP1 SLOAD SWAP1 PUSH2 0x100 EXP SWAP1 DIV PUSH1 0xFF AND PUSH1 0x3 DUP2 GT ISZERO PUSH2 0x1011 JUMPI PUSH2 0x1010 PUSH2 0x27A3 JUMP JUMPDEST JUMPDEST EQ PUSH2 0x1167 JUMPI PUSH1 0x1 PUSH1 0x3 DUP2 GT ISZERO PUSH2 0x102A JUMPI PUSH2 0x1029 PUSH2 0x27A3 JUMP JUMPDEST JUMPDEST PUSH1 0x4 PUSH1 0x0 DUP4 DUP2 MSTORE PUSH1 0x20 ADD SWAP1 DUP2 MSTORE PUSH1 0x20 ADD PUSH1 0x0 KECCAK256 PUSH1 0x6 ADD PUSH1 0x0 SWAP1 SLOAD SWAP1 PUSH2 0x100 EXP SWAP1 DIV PUSH1 0xFF AND PUSH1 0x3 DUP2 GT ISZERO PUSH2 0x1060 JUMPI PUSH2 0x105F PUSH2 0x27A3 JUMP JUMPDEST JUMPDEST EQ PUSH2 0x112B JUMPI PUSH1 0x2 PUSH1 0x3 DUP2 GT ISZERO PUSH2 0x1079 JUMPI PUSH2 0x1078 PUSH2 0x27A3 JUMP JUMPDEST JUMPDEST PUSH1 0x4 PUSH1 0x0 DUP4 DUP2 MSTORE PUSH1 0x20 ADD SWAP1 DUP2 MSTORE PUSH1 0x20 ADD PUSH1 0x0 KECCAK256 PUSH1 0x6 ADD PUSH1 0x0 SWAP1 SLOAD SWAP1 PUSH2 0x100 EXP SWAP1 DIV PUSH1 0xFF AND PUSH1 0x3 DUP2 GT ISZERO PUSH2 0x10AF JUMPI PUSH2 0x10AE PUSH2 0x27A3 JUMP JUMPDEST JUMPDEST EQ PUSH2 0x10EF JUMPI PUSH1 0x40 MLOAD DUP1 PUSH1 0x40 ADD PUSH1 0x40 MSTORE DUP1 PUSH1 0x9 DUP2 MSTORE PUSH1 0x20 ADD PUSH32 0x43616E63656C6C65640000000000000000000000000000000000000000000000 DUP2 MSTORE POP PUSH2 0x1126 JUMP JUMPDEST PUSH1 0x40 MLOAD DUP1 PUSH1 0x40 ADD PUSH1 0x40 MSTORE DUP1 PUSH1 0x7 DUP2 MSTORE PUSH1 0x20 ADD PUSH32 0x4578706972656400000000000000000000000000000000000000000000000000 DUP2 MSTORE POP JUMPDEST PUSH2 0x1162 JUMP JUMPDEST PUSH1 0x40 MLOAD DUP1 PUSH1 0x40 ADD PUSH1 0x40 MSTORE DUP1 PUSH1 0x7 DUP2 MSTORE PUSH1 0x20 ADD PUSH32 0x4F6E676F696E6700000000000000000000000000000000000000000000000000 DUP2 MSTORE POP JUMPDEST PUSH2 0x119E JUMP JUMPDEST PUSH1 0x40 MLOAD DUP1 PUSH1 0x40 ADD PUSH1 0x40 MSTORE DUP1 PUSH1 0x3 DUP2 MSTORE PUSH1 0x20 ADD PUSH32 0x4E65770000000000000000000000000000000000000000000000000000000000 DUP2 MSTORE POP JUMPDEST DUP3 DUP3 DUP2 MLOAD DUP2 LT PUSH2 0x11B1 JUMPI PUSH2 0x11B0 PUSH2 0x29B8 JUMP JUMPDEST JUMPDEST PUSH1 0x20 MUL PUSH1 0x20 ADD ADD DUP2 SWAP1 MSTORE POP DUP1 DUP1 PUSH2 0x11C7 SWAP1 PUSH2 0x28D0 JUMP JUMPDEST SWAP2 POP POP PUSH2 0xE2B JUMP JUMPDEST POP DUP7 DUP7 DUP7 DUP7 DUP7 DUP7 DUP7 SWAP14 POP SWAP14 POP SWAP14 POP SWAP14 POP SWAP14 POP SWAP14 POP SWAP14 POP POP POP POP POP POP POP POP SWAP1 SWAP2 SWAP3 SWAP4 SWAP5 SWAP6 SWAP7 JUMP JUMPDEST PUSH32 0x0 PUSH20 0xFFFFFFFFFFFFFFFFFFFFFFFFFFFFFFFFFFFFFFFF AND CALLER PUSH20 0xFFFFFFFFFFFFFFFFFFFFFFFFFFFFFFFFFFFFFFFF AND EQ PUSH2 0x1283 JUMPI PUSH1 0x40 MLOAD PUSH32 0x8C379A000000000000000000000000000000000000000000000000000000000 DUP2 MSTORE PUSH1 0x4 ADD PUSH2 0x127A SWAP1 PUSH2 0x281E JUMP JUMPDEST PUSH1 0x40 MLOAD DUP1 SWAP2 SUB SWAP1 REVERT JUMPDEST PUSH1 0x2 PUSH1 0x0 SWAP1 SLOAD SWAP1 PUSH2 0x100 EXP SWAP1 DIV PUSH1 0xFF AND PUSH2 0x12D2 JUMPI PUSH1 0x40 MLOAD PUSH32 0x8C379A000000000000000000000000000000000000000000000000000000000 DUP2 MSTORE PUSH1 0x4 ADD PUSH2 0x12C9 SWAP1 PUSH2 0x2712 JUMP JUMPDEST PUSH1 0x40 MLOAD DUP1 SWAP2 SUB SWAP1 REVERT JUMPDEST DUP2 PUSH1 0x0 SWAP1 DUP2 PUSH2 0x12E1 SWAP2 SWAP1 PUSH2 0x2B93 JUMP JUMPDEST POP DUP1 PUSH1 0x1 SWAP1 DUP2 PUSH2 0x12F1 SWAP2 SWAP1 PUSH2 0x2B93 JUMP JUMPDEST POP PUSH32 0x4753EA05804B68917FE65E38A8D48A1C098336025A4E9F9BB64E37AFE7268008 ADDRESS PUSH1 0x0 PUSH1 0x40 MLOAD PUSH2 0x1324 SWAP3 SWAP2 SWAP1 PUSH2 0x2CE9 JUMP JUMPDEST PUSH1 0x40 MLOAD DUP1 SWAP2 SUB SWAP1 LOG1 POP POP JUMP JUMPDEST PUSH1 0x1 DUP1 SLOAD PUSH2 0x133D SWAP1 PUSH2 0x25BD JUMP JUMPDEST DUP1 PUSH1 0x1F ADD PUSH1 0x20 DUP1 SWAP2 DIV MUL PUSH1 0x20 ADD PUSH1 0x40 MLOAD SWAP1 DUP2 ADD PUSH1 0x40 MSTORE DUP1 SWAP3 SWAP2 SWAP1 DUP2 DUP2 MSTORE PUSH1 0x20 ADD DUP3 DUP1 SLOAD PUSH2 0x1369 SWAP1 PUSH2 0x25BD JUMP JUMPDEST DUP1 ISZERO PUSH2 0x13B6 JUMPI DUP1 PUSH1 0x1F LT PUSH2 0x138B JUMPI PUSH2 0x100 DUP1 DUP4 SLOAD DIV MUL DUP4 MSTORE SWAP2 PUSH1 0x20 ADD SWAP2 PUSH2 0x13B6 JUMP JUMPDEST DUP3 ADD SWAP2 SWAP1 PUSH1 0x0 MSTORE PUSH1 0x20 PUSH1 0x0 KECCAK256 SWAP1 JUMPDEST DUP2 SLOAD DUP2 MSTORE SWAP1 PUSH1 0x1 ADD SWAP1 PUSH1 0x20 ADD DUP1 DUP4 GT PUSH2 0x1399 JUMPI DUP3 SWAP1 SUB PUSH1 0x1F AND DUP3 ADD SWAP2 JUMPDEST POP POP POP POP POP DUP2 JUMP JUMPDEST DUP1 PUSH1 0x0 PUSH20 0xFFFFFFFFFFFFFFFFFFFFFFFFFFFFFFFFFFFFFFFF AND PUSH1 0x4 PUSH1 0x0 DUP4 DUP2 MSTORE PUSH1 0x20 ADD SWAP1 DUP2 MSTORE PUSH1 0x20 ADD PUSH1 0x0 KECCAK256 PUSH1 0x0 ADD PUSH1 0x0 SWAP1 SLOAD SWAP1 PUSH2 0x100 EXP SWAP1 DIV PUSH20 0xFFFFFFFFFFFFFFFFFFFFFFFFFFFFFFFFFFFFFFFF AND PUSH20 0xFFFFFFFFFFFFFFFFFFFFFFFFFFFFFFFFFFFFFFFF AND SUB PUSH2 0x1464 JUMPI PUSH1 0x40 MLOAD PUSH32 0x8C379A000000000000000000000000000000000000000000000000000000000 DUP2 MSTORE PUSH1 0x4 ADD PUSH2 0x145B SWAP1 PUSH2 0x263A JUMP JUMPDEST PUSH1 0x40 MLOAD DUP1 SWAP2 SUB SWAP1 REVERT JUMPDEST DUP2 CALLER PUSH20 0xFFFFFFFFFFFFFFFFFFFFFFFFFFFFFFFFFFFFFFFF AND PUSH1 0x4 PUSH1 0x0 DUP4 DUP2 MSTORE PUSH1 0x20 ADD SWAP1 DUP2 MSTORE PUSH1 0x20 ADD PUSH1 0x0 KECCAK256 PUSH1 0x0 ADD PUSH1 0x0 SWAP1 SLOAD SWAP1 PUSH2 0x100 EXP SWAP1 DIV PUSH20 0xFFFFFFFFFFFFFFFFFFFFFFFFFFFFFFFFFFFFFFFF AND PUSH20 0xFFFFFFFFFFFFFFFFFFFFFFFFFFFFFFFFFFFFFFFF AND EQ DUP1 PUSH2 0x1520 JUMPI POP PUSH32 0x0 PUSH20 0xFFFFFFFFFFFFFFFFFFFFFFFFFFFFFFFFFFFFFFFF AND CALLER PUSH20 0xFFFFFFFFFFFFFFFFFFFFFFFFFFFFFFFFFFFFFFFF AND EQ JUMPDEST PUSH2 0x155F JUMPI PUSH1 0x40 MLOAD PUSH32 0x8C379A000000000000000000000000000000000000000000000000000000000 DUP2 MSTORE PUSH1 0x4 ADD PUSH2 0x1556 SWAP1 PUSH2 0x26A6 JUMP JUMPDEST PUSH1 0x40 MLOAD DUP1 SWAP2 SUB SWAP1 REVERT JUMPDEST PUSH1 0x2 PUSH1 0x0 SWAP1 SLOAD SWAP1 PUSH2 0x100 EXP SWAP1 DIV PUSH1 0xFF AND PUSH2 0x15AE JUMPI PUSH1 0x40 MLOAD PUSH32 0x8C379A000000000000000000000000000000000000000000000000000000000 DUP2 MSTORE PUSH1 0x4 ADD PUSH2 0x15A5 SWAP1 PUSH2 0x2712 JUMP JUMPDEST PUSH1 0x40 MLOAD DUP1 SWAP2 SUB SWAP1 REVERT JUMPDEST PUSH1 0x0 CALLVALUE SWAP1 POP PUSH1 0x0 PUSH1 0x4 PUSH1 0x0 DUP7 DUP2 MSTORE PUSH1 0x20 ADD SWAP1 DUP2 MSTORE PUSH1 0x20 ADD PUSH1 0x0 KECCAK256 PUSH1 0x2 ADD SLOAD SWAP1 POP DUP1 DUP3 EQ PUSH2 0x1610 JUMPI PUSH1 0x40 MLOAD PUSH32 0x8C379A000000000000000000000000000000000000000000000000000000000 DUP2 MSTORE PUSH1 0x4 ADD PUSH2 0x1607 SWAP1 PUSH2 0x2D65 JUMP JUMPDEST PUSH1 0x40 MLOAD DUP1 SWAP2 SUB SWAP1 REVERT JUMPDEST PUSH2 0x3E8 TIMESTAMP PUSH2 0x161E SWAP2 SWAP1 PUSH2 0x2761 JUMP JUMPDEST PUSH1 0x4 PUSH1 0x0 DUP8 DUP2 MSTORE PUSH1 0x20 ADD SWAP1 DUP2 MSTORE PUSH1 0x20 ADD PUSH1 0x0 KECCAK256 PUSH1 0x4 ADD DUP2 SWAP1 SSTORE POP PUSH2 0x3E8 PUSH3 0x15180 PUSH1 0x4 PUSH1 0x0 DUP9 DUP2 MSTORE PUSH1 0x20 ADD SWAP1 DUP2 MSTORE PUSH1 0x20 ADD PUSH1 0x0 KECCAK256 PUSH1 0x3 ADD SLOAD PUSH2 0x1660 SWAP2 SWAP1 PUSH2 0x2761 JUMP JUMPDEST TIMESTAMP PUSH2 0x166B SWAP2 SWAP1 PUSH2 0x2984 JUMP JUMPDEST PUSH2 0x1675 SWAP2 SWAP1 PUSH2 0x2761 JUMP JUMPDEST PUSH1 0x4 PUSH1 0x0 DUP8 DUP2 MSTORE PUSH1 0x20 ADD SWAP1 DUP2 MSTORE PUSH1 0x20 ADD PUSH1 0x0 KECCAK256 PUSH1 0x5 ADD DUP2 SWAP1 SSTORE POP PUSH1 0x1 PUSH1 0x4 PUSH1 0x0 DUP8 DUP2 MSTORE PUSH1 0x20 ADD SWAP1 DUP2 MSTORE PUSH1 0x20 ADD PUSH1 0x0 KECCAK256 PUSH1 0x6 ADD PUSH1 0x0 PUSH2 0x100 EXP DUP2 SLOAD DUP2 PUSH1 0xFF MUL NOT AND SWAP1 DUP4 PUSH1 0x3 DUP2 GT ISZERO PUSH2 0x16C9 JUMPI PUSH2 0x16C8 PUSH2 0x27A3 JUMP JUMPDEST JUMPDEST MUL OR SWAP1 SSTORE POP DUP5 PUSH32 0x9040C259954B48F5DFDF60EA91E742403E7552202DE9925D509FDD8187B2130B PUSH1 0x40 MLOAD PUSH1 0x40 MLOAD DUP1 SWAP2 SUB SWAP1 LOG2 POP POP POP POP POP JUMP JUMPDEST PUSH1 0x0 PUSH32 0x0 SWAP1 POP SWAP1 JUMP JUMPDEST DUP3 PUSH1 0x0 JUMPDEST PUSH1 0x3 SLOAD DUP2 LT ISZERO PUSH2 0x181E JUMPI DUP2 PUSH20 0xFFFFFFFFFFFFFFFFFFFFFFFFFFFFFFFFFFFFFFFF AND PUSH1 0x4 PUSH1 0x0 DUP4 DUP2 MSTORE PUSH1 0x20 ADD SWAP1 DUP2 MSTORE PUSH1 0x20 ADD PUSH1 0x0 KECCAK256 PUSH1 0x0 ADD PUSH1 0x0 SWAP1 SLOAD SWAP1 PUSH2 0x100 EXP SWAP1 DIV PUSH20 0xFFFFFFFFFFFFFFFFFFFFFFFFFFFFFFFFFFFFFFFF AND PUSH20 0xFFFFFFFFFFFFFFFFFFFFFFFFFFFFFFFFFFFFFFFF AND EQ DUP1 ISZERO PUSH2 0x17CB JUMPI POP PUSH1 0x4 PUSH1 0x0 DUP3 DUP2 MSTORE PUSH1 0x20 ADD SWAP1 DUP2 MSTORE PUSH1 0x20 ADD PUSH1 0x0 KECCAK256 PUSH1 0x5 ADD SLOAD PUSH2 0x3E8 TIMESTAMP PUSH2 0x17C9 SWAP2 SWAP1 PUSH2 0x2761 JUMP JUMPDEST LT JUMPDEST ISZERO PUSH2 0x180B JUMPI PUSH1 0x40 MLOAD PUSH32 0x8C379A000000000000000000000000000000000000000000000000000000000 DUP2 MSTORE PUSH1 0x4 ADD PUSH2 0x1802 SWAP1 PUSH2 0x28B0 JUMP JUMPDEST PUSH1 0x40 MLOAD DUP1 SWAP2 SUB SWAP1 REVERT JUMPDEST DUP1 DUP1 PUSH2 0x1816 SWAP1 PUSH2 0x28D0 JUMP JUMPDEST SWAP2 POP POP PUSH2 0x172E JUMP JUMPDEST POP DUP3 PUSH1 0x0 DUP2 GT PUSH2 0x1863 JUMPI PUSH1 0x40 MLOAD PUSH32 0x8C379A000000000000000000000000000000000000000000000000000000000 DUP2 MSTORE PUSH1 0x4 ADD PUSH2 0x185A SWAP1 PUSH2 0x2964 JUMP JUMPDEST PUSH1 0x40 MLOAD DUP1 SWAP2 SUB SWAP1 REVERT JUMPDEST PUSH1 0x2 PUSH1 0x0 SWAP1 SLOAD SWAP1 PUSH2 0x100 EXP SWAP1 DIV PUSH1 0xFF AND PUSH2 0x18B2 JUMPI PUSH1 0x40 MLOAD PUSH32 0x8C379A000000000000000000000000000000000000000000000000000000000 DUP2 MSTORE PUSH1 0x4 ADD PUSH2 0x18A9 SWAP1 PUSH2 0x2712 JUMP JUMPDEST PUSH1 0x40 MLOAD DUP1 SWAP2 SUB SWAP1 REVERT JUMPDEST PUSH1 0x0 PUSH1 0x40 MLOAD DUP1 PUSH1 0xE0 ADD PUSH1 0x40 MSTORE DUP1 DUP8 PUSH20 0xFFFFFFFFFFFFFFFFFFFFFFFFFFFFFFFFFFFFFFFF AND DUP2 MSTORE PUSH1 0x20 ADD PUSH1 0x3 SLOAD DUP2 MSTORE PUSH1 0x20 ADD DUP7 DUP2 MSTORE PUSH1 0x20 ADD DUP6 DUP2 MSTORE PUSH1 0x20 ADD PUSH1 0x0 DUP2 MSTORE PUSH1 0x20 ADD PUSH1 0x0 DUP2 MSTORE PUSH1 0x20 ADD PUSH1 0x0 PUSH1 0x3 DUP2 GT ISZERO PUSH2 0x1911 JUMPI PUSH2 0x1910 PUSH2 0x27A3 JUMP JUMPDEST JUMPDEST DUP2 MSTORE POP SWAP1 POP DUP1 PUSH1 0x4 PUSH1 0x0 PUSH1 0x3 SLOAD DUP2 MSTORE PUSH1 0x20 ADD SWAP1 DUP2 MSTORE PUSH1 0x20 ADD PUSH1 0x0 KECCAK256 PUSH1 0x0 DUP3 ADD MLOAD DUP2 PUSH1 0x0 ADD PUSH1 0x0 PUSH2 0x100 EXP DUP2 SLOAD DUP2 PUSH20 0xFFFFFFFFFFFFFFFFFFFFFFFFFFFFFFFFFFFFFFFF MUL NOT AND SWAP1 DUP4 PUSH20 0xFFFFFFFFFFFFFFFFFFFFFFFFFFFFFFFFFFFFFFFF AND MUL OR SWAP1 SSTORE POP PUSH1 0x20 DUP3 ADD MLOAD DUP2 PUSH1 0x1 ADD SSTORE PUSH1 0x40 DUP3 ADD MLOAD DUP2 PUSH1 0x2 ADD SSTORE PUSH1 0x60 DUP3 ADD MLOAD DUP2 PUSH1 0x3 ADD SSTORE PUSH1 0x80 DUP3 ADD MLOAD DUP2 PUSH1 0x4 ADD SSTORE PUSH1 0xA0 DUP3 ADD MLOAD DUP2 PUSH1 0x5 ADD SSTORE PUSH1 0xC0 DUP3 ADD MLOAD DUP2 PUSH1 0x6 ADD PUSH1 0x0 PUSH2 0x100 EXP DUP2 SLOAD DUP2 PUSH1 0xFF MUL NOT AND SWAP1 DUP4 PUSH1 0x3 DUP2 GT ISZERO PUSH2 0x19D0 JUMPI PUSH2 0x19CF PUSH2 0x27A3 JUMP JUMPDEST JUMPDEST MUL OR SWAP1 SSTORE POP SWAP1 POP POP PUSH1 0x3 SLOAD PUSH32 0x6A2B70DDE6AE0193F84B6A9EEB3B0EBDC3A35E99D9167B88C570158DD09CB0F7 PUSH1 0x40 MLOAD PUSH1 0x40 MLOAD DUP1 SWAP2 SUB SWAP1 LOG2 PUSH1 0x3 PUSH1 0x0 DUP2 SLOAD DUP1 SWAP3 SWAP2 SWAP1 PUSH2 0x1A1A SWAP1 PUSH2 0x28D0 JUMP JUMPDEST SWAP2 SWAP1 POP SSTORE POP POP POP POP POP POP POP JUMP JUMPDEST PUSH32 0x0 PUSH20 0xFFFFFFFFFFFFFFFFFFFFFFFFFFFFFFFFFFFFFFFF AND CALLER PUSH20 0xFFFFFFFFFFFFFFFFFFFFFFFFFFFFFFFFFFFFFFFF AND EQ PUSH2 0x1AB5 JUMPI PUSH1 0x40 MLOAD PUSH32 0x8C379A000000000000000000000000000000000000000000000000000000000 DUP2 MSTORE PUSH1 0x4 ADD PUSH2 0x1AAC SWAP1 PUSH2 0x281E JUMP JUMPDEST PUSH1 0x40 MLOAD DUP1 SWAP2 SUB SWAP1 REVERT JUMPDEST PUSH1 0x2 PUSH1 0x0 SWAP1 SLOAD SWAP1 PUSH2 0x100 EXP SWAP1 DIV PUSH1 0xFF AND PUSH2 0x1B04 JUMPI PUSH1 0x40 MLOAD PUSH32 0x8C379A000000000000000000000000000000000000000000000000000000000 DUP2 MSTORE PUSH1 0x4 ADD PUSH2 0x1AFB SWAP1 PUSH2 0x2712 JUMP JUMPDEST PUSH1 0x40 MLOAD DUP1 SWAP2 SUB SWAP1 REVERT JUMPDEST DUP1 PUSH1 0x1 SWAP1 DUP2 PUSH2 0x1B13 SWAP2 SWAP1 PUSH2 0x2B93 JUMP JUMPDEST POP POP JUMP JUMPDEST PUSH32 0x0 PUSH20 0xFFFFFFFFFFFFFFFFFFFFFFFFFFFFFFFFFFFFFFFF AND CALLER PUSH20 0xFFFFFFFFFFFFFFFFFFFFFFFFFFFFFFFFFFFFFFFF AND EQ PUSH2 0x1BA5 JUMPI PUSH1 0x40 MLOAD PUSH32 0x8C379A000000000000000000000000000000000000000000000000000000000 DUP2 MSTORE PUSH1 0x4 ADD PUSH2 0x1B9C SWAP1 PUSH2 0x281E JUMP JUMPDEST PUSH1 0x40 MLOAD DUP1 SWAP2 SUB SWAP1 REVERT JUMPDEST PUSH1 0x2 PUSH1 0x0 SWAP1 SLOAD SWAP1 PUSH2 0x100 EXP SWAP1 DIV PUSH1 0xFF AND PUSH2 0x1BF4 JUMPI PUSH1 0x40 MLOAD PUSH32 0x8C379A000000000000000000000000000000000000000000000000000000000 DUP2 MSTORE PUSH1 0x4 ADD PUSH2 0x1BEB SWAP1 PUSH2 0x2712 JUMP JUMPDEST PUSH1 0x40 MLOAD DUP1 SWAP2 SUB SWAP1 REVERT JUMPDEST PUSH1 0x0 PUSH1 0x2 PUSH1 0x0 PUSH2 0x100 EXP DUP2 SLOAD DUP2 PUSH1 0xFF MUL NOT AND SWAP1 DUP4 ISZERO ISZERO MUL OR SWAP1 SSTORE POP PUSH32 0x86D6AA2827E28270C1635780E8A17D61C38028E75531A0A25C5004862521289D ADDRESS PUSH1 0x40 MLOAD PUSH2 0x1C3E SWAP2 SWAP1 PUSH2 0x252A JUMP JUMPDEST PUSH1 0x40 MLOAD DUP1 SWAP2 SUB SWAP1 LOG1 JUMP JUMPDEST PUSH32 0x0 PUSH20 0xFFFFFFFFFFFFFFFFFFFFFFFFFFFFFFFFFFFFFFFF AND CALLER PUSH20 0xFFFFFFFFFFFFFFFFFFFFFFFFFFFFFFFFFFFFFFFF AND EQ PUSH2 0x1CD6 JUMPI PUSH1 0x40 MLOAD PUSH32 0x8C379A000000000000000000000000000000000000000000000000000000000 DUP2 MSTORE PUSH1 0x4 ADD PUSH2 0x1CCD SWAP1 PUSH2 0x281E JUMP JUMPDEST PUSH1 0x40 MLOAD DUP1 SWAP2 SUB SWAP1 REVERT JUMPDEST PUSH1 0x2 PUSH1 0x0 SWAP1 SLOAD SWAP1 PUSH2 0x100 EXP SWAP1 DIV PUSH1 0xFF AND PUSH2 0x1D25 JUMPI PUSH1 0x40 MLOAD PUSH32 0x8C379A000000000000000000000000000000000000000000000000000000000 DUP2 MSTORE PUSH1 0x4 ADD PUSH2 0x1D1C SWAP1 PUSH2 0x2712 JUMP JUMPDEST PUSH1 0x40 MLOAD DUP1 SWAP2 SUB SWAP1 REVERT JUMPDEST DUP1 PUSH1 0x0 SWAP1 DUP2 PUSH2 0x1D34 SWAP2 SWAP1 PUSH2 0x2B93 JUMP JUMPDEST POP POP JUMP JUMPDEST PUSH1 0x0 JUMPDEST PUSH1 0x3 SLOAD DUP2 LT ISZERO PUSH2 0x1DC3 JUMPI PUSH1 0x4 PUSH1 0x0 DUP3 DUP2 MSTORE PUSH1 0x20 ADD SWAP1 DUP2 MSTORE PUSH1 0x20 ADD PUSH1 0x0 KECCAK256 PUSH1 0x5 ADD SLOAD PUSH2 0x3E8 TIMESTAMP PUSH2 0x1D6A SWAP2 SWAP1 PUSH2 0x2761 JUMP JUMPDEST GT ISZERO PUSH2 0x1DB0 JUMPI PUSH1 0x2 PUSH1 0x4 PUSH1 0x0 DUP4 DUP2 MSTORE PUSH1 0x20 ADD SWAP1 DUP2 MSTORE PUSH1 0x20 ADD PUSH1 0x0 KECCAK256 PUSH1 0x6 ADD PUSH1 0x0 PUSH2 0x100 EXP DUP2 SLOAD DUP2 PUSH1 0xFF MUL NOT AND SWAP1 DUP4 PUSH1 0x3 DUP2 GT ISZERO PUSH2 0x1DAA JUMPI PUSH2 0x1DA9 PUSH2 0x27A3 JUMP JUMPDEST JUMPDEST MUL OR SWAP1 SSTORE POP JUMPDEST DUP1 DUP1 PUSH2 0x1DBB SWAP1 PUSH2 0x28D0 JUMP JUMPDEST SWAP2 POP POP PUSH2 0x1D3B JUMP JUMPDEST POP JUMP JUMPDEST PUSH1 0x0 PUSH1 0x2 PUSH1 0x0 SWAP1 SLOAD SWAP1 PUSH2 0x100 EXP SWAP1 DIV PUSH1 0xFF AND SWAP1 POP SWAP1 JUMP JUMPDEST PUSH1 0x0 DUP2 MLOAD SWAP1 POP SWAP2 SWAP1 POP JUMP JUMPDEST PUSH1 0x0 DUP3 DUP3 MSTORE PUSH1 0x20 DUP3 ADD SWAP1 POP SWAP3 SWAP2 POP POP JUMP JUMPDEST PUSH1 0x0 JUMPDEST DUP4 DUP2 LT ISZERO PUSH2 0x1E17 JUMPI DUP1 DUP3 ADD MLOAD DUP2 DUP5 ADD MSTORE PUSH1 0x20 DUP2 ADD SWAP1 POP PUSH2 0x1DFC JUMP JUMPDEST PUSH1 0x0 DUP5 DUP5 ADD MSTORE POP POP POP POP JUMP JUMPDEST PUSH1 0x0 PUSH1 0x1F NOT PUSH1 0x1F DUP4 ADD AND SWAP1 POP SWAP2 SWAP1 POP JUMP JUMPDEST PUSH1 0x0 PUSH2 0x1E3F DUP3 PUSH2 0x1DDD JUMP JUMPDEST PUSH2 0x1E49 DUP2 DUP6 PUSH2 0x1DE8 JUMP JUMPDEST SWAP4 POP PUSH2 0x1E59 DUP2 DUP6 PUSH1 0x20 DUP7 ADD PUSH2 0x1DF9 JUMP JUMPDEST PUSH2 0x1E62 DUP2 PUSH2 0x1E23 JUMP JUMPDEST DUP5 ADD SWAP2 POP POP SWAP3 SWAP2 POP POP JUMP JUMPDEST PUSH1 0x0 PUSH1 0x20 DUP3 ADD SWAP1 POP DUP2 DUP2 SUB PUSH1 0x0 DUP4 ADD MSTORE PUSH2 0x1E87 DUP2 DUP5 PUSH2 0x1E34 JUMP JUMPDEST SWAP1 POP SWAP3 SWAP2 POP POP JUMP JUMPDEST PUSH1 0x0 PUSH1 0x40 MLOAD SWAP1 POP SWAP1 JUMP JUMPDEST PUSH1 0x0 DUP1 REVERT JUMPDEST PUSH1 0x0 DUP1 REVERT JUMPDEST PUSH1 0x0 DUP2 SWAP1 POP SWAP2 SWAP1 POP JUMP JUMPDEST PUSH2 0x1EB6 DUP2 PUSH2 0x1EA3 JUMP JUMPDEST DUP2 EQ PUSH2 0x1EC1 JUMPI PUSH1 0x0 DUP1 REVERT JUMPDEST POP JUMP JUMPDEST PUSH1 0x0 DUP2 CALLDATALOAD SWAP1 POP PUSH2 0x1ED3 DUP2 PUSH2 0x1EAD JUMP JUMPDEST SWAP3 SWAP2 POP POP JUMP JUMPDEST PUSH1 0x0 PUSH1 0x20 DUP3 DUP5 SUB SLT ISZERO PUSH2 0x1EEF JUMPI PUSH2 0x1EEE PUSH2 0x1E99 JUMP JUMPDEST JUMPDEST PUSH1 0x0 PUSH2 0x1EFD DUP5 DUP3 DUP6 ADD PUSH2 0x1EC4 JUMP JUMPDEST SWAP2 POP POP SWAP3 SWAP2 POP POP JUMP JUMPDEST PUSH1 0x0 DUP2 ISZERO ISZERO SWAP1 POP SWAP2 SWAP1 POP JUMP JUMPDEST PUSH2 0x1F1B DUP2 PUSH2 0x1F06 JUMP JUMPDEST DUP3 MSTORE POP POP JUMP JUMPDEST PUSH1 0x0 PUSH1 0x20 DUP3 ADD SWAP1 POP PUSH2 0x1F36 PUSH1 0x0 DUP4 ADD DUP5 PUSH2 0x1F12 JUMP JUMPDEST SWAP3 SWAP2 POP POP JUMP JUMPDEST PUSH2 0x1F45 DUP2 PUSH2 0x1F06 JUMP JUMPDEST DUP2 EQ PUSH2 0x1F50 JUMPI PUSH1 0x0 DUP1 REVERT JUMPDEST POP JUMP JUMPDEST PUSH1 0x0 DUP2 CALLDATALOAD SWAP1 POP PUSH2 0x1F62 DUP2 PUSH2 0x1F3C JUMP JUMPDEST SWAP3 SWAP2 POP POP JUMP JUMPDEST PUSH1 0x0 PUSH1 0x20 DUP3 DUP5 SUB SLT ISZERO PUSH2 0x1F7E JUMPI PUSH2 0x1F7D PUSH2 0x1E99 JUMP JUMPDEST JUMPDEST PUSH1 0x0 PUSH2 0x1F8C DUP5 DUP3 DUP6 ADD PUSH2 0x1F53 JUMP JUMPDEST SWAP2 POP POP SWAP3 SWAP2 POP POP JUMP JUMPDEST PUSH1 0x0 PUSH20 0xFFFFFFFFFFFFFFFFFFFFFFFFFFFFFFFFFFFFFFFF DUP3 AND SWAP1 POP SWAP2 SWAP1 POP JUMP JUMPDEST PUSH1 0x0 PUSH2 0x1FC0 DUP3 PUSH2 0x1F95 JUMP JUMPDEST SWAP1 POP SWAP2 SWAP1 POP JUMP JUMPDEST PUSH2 0x1FD0 DUP2 PUSH2 0x1FB5 JUMP JUMPDEST DUP2 EQ PUSH2 0x1FDB JUMPI PUSH1 0x0 DUP1 REVERT JUMPDEST POP JUMP JUMPDEST PUSH1 0x0 DUP2 CALLDATALOAD SWAP1 POP PUSH2 0x1FED DUP2 PUSH2 0x1FC7 JUMP JUMPDEST SWAP3 SWAP2 POP POP JUMP JUMPDEST PUSH1 0x0 DUP1 PUSH1 0x0 PUSH1 0x60 DUP5 DUP7 SUB SLT ISZERO PUSH2 0x200C JUMPI PUSH2 0x200B PUSH2 0x1E99 JUMP JUMPDEST JUMPDEST PUSH1 0x0 PUSH2 0x201A DUP7 DUP3 DUP8 ADD PUSH2 0x1FDE JUMP JUMPDEST SWAP4 POP POP PUSH1 0x20 PUSH2 0x202B DUP7 DUP3 DUP8 ADD PUSH2 0x1EC4 JUMP JUMPDEST SWAP3 POP POP PUSH1 0x40 PUSH2 0x203C DUP7 DUP3 DUP8 ADD PUSH2 0x1EC4 JUMP JUMPDEST SWAP2 POP POP SWAP3 POP SWAP3 POP SWAP3 JUMP JUMPDEST PUSH1 0x0 DUP2 MLOAD SWAP1 POP SWAP2 SWAP1 POP JUMP JUMPDEST PUSH1 0x0 DUP3 DUP3 MSTORE PUSH1 0x20 DUP3 ADD SWAP1 POP SWAP3 SWAP2 POP POP JUMP JUMPDEST PUSH1 0x0 DUP2 SWAP1 POP PUSH1 0x20 DUP3 ADD SWAP1 POP SWAP2 SWAP1 POP JUMP JUMPDEST PUSH2 0x207B DUP2 PUSH2 0x1FB5 JUMP JUMPDEST DUP3 MSTORE POP POP JUMP JUMPDEST PUSH1 0x0 PUSH2 0x208D DUP4 DUP4 PUSH2 0x2072 JUMP JUMPDEST PUSH1 0x20 DUP4 ADD SWAP1 POP SWAP3 SWAP2 POP POP JUMP JUMPDEST PUSH1 0x0 PUSH1 0x20 DUP3 ADD SWAP1 POP SWAP2 SWAP1 POP JUMP JUMPDEST PUSH1 0x0 PUSH2 0x20B1 DUP3 PUSH2 0x2046 JUMP JUMPDEST PUSH2 0x20BB DUP2 DUP6 PUSH2 0x2051 JUMP JUMPDEST SWAP4 POP PUSH2 0x20C6 DUP4 PUSH2 0x2062 JUMP JUMPDEST DUP1 PUSH1 0x0 JUMPDEST DUP4 DUP2 LT ISZERO PUSH2 0x20F7 JUMPI DUP2 MLOAD PUSH2 0x20DE DUP9 DUP3 PUSH2 0x2081 JUMP JUMPDEST SWAP8 POP PUSH2 0x20E9 DUP4 PUSH2 0x2099 JUMP JUMPDEST SWAP3 POP POP PUSH1 0x1 DUP2 ADD SWAP1 POP PUSH2 0x20CA JUMP JUMPDEST POP DUP6 SWAP4 POP POP POP POP SWAP3 SWAP2 POP POP JUMP JUMPDEST PUSH1 0x0 DUP2 MLOAD SWAP1 POP SWAP2 SWAP1 POP JUMP JUMPDEST PUSH1 0x0 DUP3 DUP3 MSTORE PUSH1 0x20 DUP3 ADD SWAP1 POP SWAP3 SWAP2 POP POP JUMP JUMPDEST PUSH1 0x0 DUP2 SWAP1 POP PUSH1 0x20 DUP3 ADD SWAP1 POP SWAP2 SWAP1 POP JUMP JUMPDEST PUSH2 0x2139 DUP2 PUSH2 0x1EA3 JUMP JUMPDEST DUP3 MSTORE POP POP JUMP JUMPDEST PUSH1 0x0 PUSH2 0x214B DUP4 DUP4 PUSH2 0x2130 JUMP JUMPDEST PUSH1 0x20 DUP4 ADD SWAP1 POP SWAP3 SWAP2 POP POP JUMP JUMPDEST PUSH1 0x0 PUSH1 0x20 DUP3 ADD SWAP1 POP SWAP2 SWAP1 POP JUMP JUMPDEST PUSH1 0x0 PUSH2 0x216F DUP3 PUSH2 0x2104 JUMP JUMPDEST PUSH2 0x2179 DUP2 DUP6 PUSH2 0x210F JUMP JUMPDEST SWAP4 POP PUSH2 0x2184 DUP4 PUSH2 0x2120 JUMP JUMPDEST DUP1 PUSH1 0x0 JUMPDEST DUP4 DUP2 LT ISZERO PUSH2 0x21B5 JUMPI DUP2 MLOAD PUSH2 0x219C DUP9 DUP3 PUSH2 0x213F JUMP JUMPDEST SWAP8 POP PUSH2 0x21A7 DUP4 PUSH2 0x2157 JUMP JUMPDEST SWAP3 POP POP PUSH1 0x1 DUP2 ADD SWAP1 POP PUSH2 0x2188 JUMP JUMPDEST POP DUP6 SWAP4 POP POP POP POP SWAP3 SWAP2 POP POP JUMP JUMPDEST PUSH1 0x0 DUP2 MLOAD SWAP1 POP SWAP2 SWAP1 POP JUMP JUMPDEST PUSH1 0x0 DUP3 DUP3 MSTORE PUSH1 0x20 DUP3 ADD SWAP1 POP SWAP3 SWAP2 POP POP JUMP JUMPDEST PUSH1 0x0 DUP2 SWAP1 POP PUSH1 0x20 DUP3 ADD SWAP1 POP SWAP2 SWAP1 POP JUMP JUMPDEST PUSH1 0x0 DUP3 DUP3 MSTORE PUSH1 0x20 DUP3 ADD SWAP1 POP SWAP3 SWAP2 POP POP JUMP JUMPDEST PUSH1 0x0 PUSH2 0x220A DUP3 PUSH2 0x1DDD JUMP JUMPDEST PUSH2 0x2214 DUP2 DUP6 PUSH2 0x21EE JUMP JUMPDEST SWAP4 POP PUSH2 0x2224 DUP2 DUP6 PUSH1 0x20 DUP7 ADD PUSH2 0x1DF9 JUMP JUMPDEST PUSH2 0x222D DUP2 PUSH2 0x1E23 JUMP JUMPDEST DUP5 ADD SWAP2 POP POP SWAP3 SWAP2 POP POP JUMP JUMPDEST PUSH1 0x0 PUSH2 0x2244 DUP4 DUP4 PUSH2 0x21FF JUMP JUMPDEST SWAP1 POP SWAP3 SWAP2 POP POP JUMP JUMPDEST PUSH1 0x0 PUSH1 0x20 DUP3 ADD SWAP1 POP SWAP2 SWAP1 POP JUMP JUMPDEST PUSH1 0x0 PUSH2 0x2264 DUP3 PUSH2 0x21C2 JUMP JUMPDEST PUSH2 0x226E DUP2 DUP6 PUSH2 0x21CD JUMP JUMPDEST SWAP4 POP DUP4 PUSH1 0x20 DUP3 MUL DUP6 ADD PUSH2 0x2280 DUP6 PUSH2 0x21DE JUMP JUMPDEST DUP1 PUSH1 0x0 JUMPDEST DUP6 DUP2 LT ISZERO PUSH2 0x22BC JUMPI DUP5 DUP5 SUB DUP10 MSTORE DUP2 MLOAD PUSH2 0x229D DUP6 DUP3 PUSH2 0x2238 JUMP JUMPDEST SWAP5 POP PUSH2 0x22A8 DUP4 PUSH2 0x224C JUMP JUMPDEST SWAP3 POP PUSH1 0x20 DUP11 ADD SWAP10 POP POP PUSH1 0x1 DUP2 ADD SWAP1 POP PUSH2 0x2284 JUMP JUMPDEST POP DUP3 SWAP8 POP DUP8 SWAP6 POP POP POP POP POP POP SWAP3 SWAP2 POP POP JUMP JUMPDEST PUSH1 0x0 PUSH1 0xE0 DUP3 ADD SWAP1 POP DUP2 DUP2 SUB PUSH1 0x0 DUP4 ADD MSTORE PUSH2 0x22E8 DUP2 DUP11 PUSH2 0x20A6 JUMP JUMPDEST SWAP1 POP DUP2 DUP2 SUB PUSH1 0x20 DUP4 ADD MSTORE PUSH2 0x22FC DUP2 DUP10 PUSH2 0x2164 JUMP JUMPDEST SWAP1 POP DUP2 DUP2 SUB PUSH1 0x40 DUP4 ADD MSTORE PUSH2 0x2310 DUP2 DUP9 PUSH2 0x2164 JUMP JUMPDEST SWAP1 POP DUP2 DUP2 SUB PUSH1 0x60 DUP4 ADD MSTORE PUSH2 0x2324 DUP2 DUP8 PUSH2 0x2164 JUMP JUMPDEST SWAP1 POP DUP2 DUP2 SUB PUSH1 0x80 DUP4 ADD MSTORE PUSH2 0x2338 DUP2 DUP7 PUSH2 0x2164 JUMP JUMPDEST SWAP1 POP DUP2 DUP2 SUB PUSH1 0xA0 DUP4 ADD MSTORE PUSH2 0x234C DUP2 DUP6 PUSH2 0x2164 JUMP JUMPDEST SWAP1 POP DUP2 DUP2 SUB PUSH1 0xC0 DUP4 ADD MSTORE PUSH2 0x2360 DUP2 DUP5 PUSH2 0x2259 JUMP JUMPDEST SWAP1 POP SWAP9 SWAP8 POP POP POP POP POP POP POP POP JUMP JUMPDEST PUSH1 0x0 DUP1 REVERT JUMPDEST PUSH1 0x0 DUP1 REVERT JUMPDEST PUSH32 0x4E487B7100000000000000000000000000000000000000000000000000000000 PUSH1 0x0 MSTORE PUSH1 0x41 PUSH1 0x4 MSTORE PUSH1 0x24 PUSH1 0x0 REVERT JUMPDEST PUSH2 0x23B0 DUP3 PUSH2 0x1E23 JUMP JUMPDEST DUP2 ADD DUP2 DUP2 LT PUSH8 0xFFFFFFFFFFFFFFFF DUP3 GT OR ISZERO PUSH2 0x23CF JUMPI PUSH2 0x23CE PUSH2 0x2378 JUMP JUMPDEST JUMPDEST DUP1 PUSH1 0x40 MSTORE POP POP POP JUMP JUMPDEST PUSH1 0x0 PUSH2 0x23E2 PUSH2 0x1E8F JUMP JUMPDEST SWAP1 POP PUSH2 0x23EE DUP3 DUP3 PUSH2 0x23A7 JUMP JUMPDEST SWAP2 SWAP1 POP JUMP JUMPDEST PUSH1 0x0 PUSH8 0xFFFFFFFFFFFFFFFF DUP3 GT ISZERO PUSH2 0x240E JUMPI PUSH2 0x240D PUSH2 0x2378 JUMP JUMPDEST JUMPDEST PUSH2 0x2417 DUP3 PUSH2 0x1E23 JUMP JUMPDEST SWAP1 POP PUSH1 0x20 DUP2 ADD SWAP1 POP SWAP2 SWAP1 POP JUMP JUMPDEST DUP3 DUP2 DUP4 CALLDATACOPY PUSH1 0x0 DUP4 DUP4 ADD MSTORE POP POP POP JUMP JUMPDEST PUSH1 0x0 PUSH2 0x2446 PUSH2 0x2441 DUP5 PUSH2 0x23F3 JUMP JUMPDEST PUSH2 0x23D8 JUMP JUMPDEST SWAP1 POP DUP3 DUP2 MSTORE PUSH1 0x20 DUP2 ADD DUP5 DUP5 DUP5 ADD GT ISZERO PUSH2 0x2462 JUMPI PUSH2 0x2461 PUSH2 0x2373 JUMP JUMPDEST JUMPDEST PUSH2 0x246D DUP5 DUP3 DUP6 PUSH2 0x2424 JUMP JUMPDEST POP SWAP4 SWAP3 POP POP POP JUMP JUMPDEST PUSH1 0x0 DUP3 PUSH1 0x1F DUP4 ADD SLT PUSH2 0x248A JUMPI PUSH2 0x2489 PUSH2 0x236E JUMP JUMPDEST JUMPDEST DUP2 CALLDATALOAD PUSH2 0x249A DUP5 DUP3 PUSH1 0x20 DUP7 ADD PUSH2 0x2433 JUMP JUMPDEST SWAP2 POP POP SWAP3 SWAP2 POP POP JUMP JUMPDEST PUSH1 0x0 DUP1 PUSH1 0x40 DUP4 DUP6 SUB SLT ISZERO PUSH2 0x24BA JUMPI PUSH2 0x24B9 PUSH2 0x1E99 JUMP JUMPDEST JUMPDEST PUSH1 0x0 DUP4 ADD CALLDATALOAD PUSH8 0xFFFFFFFFFFFFFFFF DUP2 GT ISZERO PUSH2 0x24D8 JUMPI PUSH2 0x24D7 PUSH2 0x1E9E JUMP JUMPDEST JUMPDEST PUSH2 0x24E4 DUP6 DUP3 DUP7 ADD PUSH2 0x2475 JUMP JUMPDEST SWAP3 POP POP PUSH1 0x20 DUP4 ADD CALLDATALOAD PUSH8 0xFFFFFFFFFFFFFFFF DUP2 GT ISZERO PUSH2 0x2505 JUMPI PUSH2 0x2504 PUSH2 0x1E9E JUMP JUMPDEST JUMPDEST PUSH2 0x2511 DUP6 DUP3 DUP7 ADD PUSH2 0x2475 JUMP JUMPDEST SWAP2 POP POP SWAP3 POP SWAP3 SWAP1 POP JUMP JUMPDEST PUSH2 0x2524 DUP2 PUSH2 0x1FB5 JUMP JUMPDEST DUP3 MSTORE POP POP JUMP JUMPDEST PUSH1 0x0 PUSH1 0x20 DUP3 ADD SWAP1 POP PUSH2 0x253F PUSH1 0x0 DUP4 ADD DUP5 PUSH2 0x251B JUMP JUMPDEST SWAP3 SWAP2 POP POP JUMP JUMPDEST PUSH1 0x0 PUSH1 0x20 DUP3 DUP5 SUB SLT ISZERO PUSH2 0x255B JUMPI PUSH2 0x255A PUSH2 0x1E99 JUMP JUMPDEST JUMPDEST PUSH1 0x0 DUP3 ADD CALLDATALOAD PUSH8 0xFFFFFFFFFFFFFFFF DUP2 GT ISZERO PUSH2 0x2579 JUMPI PUSH2 0x2578 PUSH2 0x1E9E JUMP JUMPDEST JUMPDEST PUSH2 0x2585 DUP5 DUP3 DUP6 ADD PUSH2 0x2475 JUMP JUMPDEST SWAP2 POP POP SWAP3 SWAP2 POP POP JUMP JUMPDEST PUSH32 0x4E487B7100000000000000000000000000000000000000000000000000000000 PUSH1 0x0 MSTORE PUSH1 0x22 PUSH1 0x4 MSTORE PUSH1 0x24 PUSH1 0x0 REVERT JUMPDEST PUSH1 0x0 PUSH1 0x2 DUP3 DIV SWAP1 POP PUSH1 0x1 DUP3 AND DUP1 PUSH2 0x25D5 JUMPI PUSH1 0x7F DUP3 AND SWAP2 POP JUMPDEST PUSH1 0x20 DUP3 LT DUP2 SUB PUSH2 0x25E8 JUMPI PUSH2 0x25E7 PUSH2 0x258E JUMP JUMPDEST JUMPDEST POP SWAP2 SWAP1 POP JUMP JUMPDEST PUSH32 0x537562736372697074696F6E20646F6573206E6F742065786973740000000000 PUSH1 0x0 DUP3 ADD MSTORE POP JUMP JUMPDEST PUSH1 0x0 PUSH2 0x2624 PUSH1 0x1B DUP4 PUSH2 0x1DE8 JUMP JUMPDEST SWAP2 POP PUSH2 0x262F DUP3 PUSH2 0x25EE JUMP JUMPDEST PUSH1 0x20 DUP3 ADD SWAP1 POP SWAP2 SWAP1 POP JUMP JUMPDEST PUSH1 0x0 PUSH1 0x20 DUP3 ADD SWAP1 POP DUP2 DUP2 SUB PUSH1 0x0 DUP4 ADD MSTORE PUSH2 0x2653 DUP2 PUSH2 0x2617 JUMP JUMPDEST SWAP1 POP SWAP2 SWAP1 POP JUMP JUMPDEST PUSH32 0x43616C6C6572206973206E6F7420746865207375627363726962657200000000 PUSH1 0x0 DUP3 ADD MSTORE POP JUMP JUMPDEST PUSH1 0x0 PUSH2 0x2690 PUSH1 0x1C DUP4 PUSH2 0x1DE8 JUMP JUMPDEST SWAP2 POP PUSH2 0x269B DUP3 PUSH2 0x265A JUMP JUMPDEST PUSH1 0x20 DUP3 ADD SWAP1 POP SWAP2 SWAP1 POP JUMP JUMPDEST PUSH1 0x0 PUSH1 0x20 DUP3 ADD SWAP1 POP DUP2 DUP2 SUB PUSH1 0x0 DUP4 ADD MSTORE PUSH2 0x26BF DUP2 PUSH2 0x2683 JUMP JUMPDEST SWAP1 POP SWAP2 SWAP1 POP JUMP JUMPDEST PUSH32 0x53657276696365206973206E6F74206163746976650000000000000000000000 PUSH1 0x0 DUP3 ADD MSTORE POP JUMP JUMPDEST PUSH1 0x0 PUSH2 0x26FC PUSH1 0x15 DUP4 PUSH2 0x1DE8 JUMP JUMPDEST SWAP2 POP PUSH2 0x2707 DUP3 PUSH2 0x26C6 JUMP JUMPDEST PUSH1 0x20 DUP3 ADD SWAP1 POP SWAP2 SWAP1 POP JUMP JUMPDEST PUSH1 0x0 PUSH1 0x20 DUP3 ADD SWAP1 POP DUP2 DUP2 SUB PUSH1 0x0 DUP4 ADD MSTORE PUSH2 0x272B DUP2 PUSH2 0x26EF JUMP JUMPDEST SWAP1 POP SWAP2 SWAP1 POP JUMP JUMPDEST PUSH32 0x4E487B7100000000000000000000000000000000000000000000000000000000 PUSH1 0x0 MSTORE PUSH1 0x11 PUSH1 0x4 MSTORE PUSH1 0x24 PUSH1 0x0 REVERT JUMPDEST PUSH1 0x0 PUSH2 0x276C DUP3 PUSH2 0x1EA3 JUMP JUMPDEST SWAP2 POP PUSH2 0x2777 DUP4 PUSH2 0x1EA3 JUMP JUMPDEST SWAP3 POP DUP3 DUP3 MUL PUSH2 0x2785 DUP2 PUSH2 0x1EA3 JUMP JUMPDEST SWAP2 POP DUP3 DUP3 DIV DUP5 EQ DUP4 ISZERO OR PUSH2 0x279C JUMPI PUSH2 0x279B PUSH2 0x2732 JUMP JUMPDEST JUMPDEST POP SWAP3 SWAP2 POP POP JUMP JUMPDEST PUSH32 0x4E487B7100000000000000000000000000000000000000000000000000000000 PUSH1 0x0 MSTORE PUSH1 0x21 PUSH1 0x4 MSTORE PUSH1 0x24 PUSH1 0x0 REVERT JUMPDEST PUSH32 0x4F6E6C79206F776E657220697320616C6C6F7765640000000000000000000000 PUSH1 0x0 DUP3 ADD MSTORE POP JUMP JUMPDEST PUSH1 0x0 PUSH2 0x2808 PUSH1 0x15 DUP4 PUSH2 0x1DE8 JUMP JUMPDEST SWAP2 POP PUSH2 0x2813 DUP3 PUSH2 0x27D2 JUMP JUMPDEST PUSH1 0x20 DUP3 ADD SWAP1 POP SWAP2 SWAP1 POP JUMP JUMPDEST PUSH1 0x0 PUSH1 0x20 DUP3 ADD SWAP1 POP DUP2 DUP2 SUB PUSH1 0x0 DUP4 ADD MSTORE PUSH2 0x2837 DUP2 PUSH2 0x27FB JUMP JUMPDEST SWAP1 POP SWAP2 SWAP1 POP JUMP JUMPDEST PUSH32 0x5375627363726962657220616C72656164792068617320616E20616374697665 PUSH1 0x0 DUP3 ADD MSTORE PUSH32 0x20737562736372697074696F6E00000000000000000000000000000000000000 PUSH1 0x20 DUP3 ADD MSTORE POP JUMP JUMPDEST PUSH1 0x0 PUSH2 0x289A PUSH1 0x2D DUP4 PUSH2 0x1DE8 JUMP JUMPDEST SWAP2 POP PUSH2 0x28A5 DUP3 PUSH2 0x283E JUMP JUMPDEST PUSH1 0x40 DUP3 ADD SWAP1 POP SWAP2 SWAP1 POP JUMP JUMPDEST PUSH1 0x0 PUSH1 0x20 DUP3 ADD SWAP1 POP DUP2 DUP2 SUB PUSH1 0x0 DUP4 ADD MSTORE PUSH2 0x28C9 DUP2 PUSH2 0x288D JUMP JUMPDEST SWAP1 POP SWAP2 SWAP1 POP JUMP JUMPDEST PUSH1 0x0 PUSH2 0x28DB DUP3 PUSH2 0x1EA3 JUMP JUMPDEST SWAP2 POP PUSH32 0xFFFFFFFFFFFFFFFFFFFFFFFFFFFFFFFFFFFFFFFFFFFFFFFFFFFFFFFFFFFFFFFF DUP3 SUB PUSH2 0x290D JUMPI PUSH2 0x290C PUSH2 0x2732 JUMP JUMPDEST JUMPDEST PUSH1 0x1 DUP3 ADD SWAP1 POP SWAP2 SWAP1 POP JUMP JUMPDEST PUSH32 0x56616C7565206D7573742062652067726561746572207468616E207A65726F00 PUSH1 0x0 DUP3 ADD MSTORE POP JUMP JUMPDEST PUSH1 0x0 PUSH2 0x294E PUSH1 0x1F DUP4 PUSH2 0x1DE8 JUMP JUMPDEST SWAP2 POP PUSH2 0x2959 DUP3 PUSH2 0x2918 JUMP JUMPDEST PUSH1 0x20 DUP3 ADD SWAP1 POP SWAP2 SWAP1 POP JUMP JUMPDEST PUSH1 0x0 PUSH1 0x20 DUP3 ADD SWAP1 POP DUP2 DUP2 SUB PUSH1 0x0 DUP4 ADD MSTORE PUSH2 0x297D DUP2 PUSH2 0x2941 JUMP JUMPDEST SWAP1 POP SWAP2 SWAP1 POP JUMP JUMPDEST PUSH1 0x0 PUSH2 0x298F DUP3 PUSH2 0x1EA3 JUMP JUMPDEST SWAP2 POP PUSH2 0x299A DUP4 PUSH2 0x1EA3 JUMP JUMPDEST SWAP3 POP DUP3 DUP3 ADD SWAP1 POP DUP1 DUP3 GT ISZERO PUSH2 0x29B2 JUMPI PUSH2 0x29B1 PUSH2 0x2732 JUMP JUMPDEST JUMPDEST SWAP3 SWAP2 POP POP JUMP JUMPDEST PUSH32 0x4E487B7100000000000000000000000000000000000000000000000000000000 PUSH1 0x0 MSTORE PUSH1 0x32 PUSH1 0x4 MSTORE PUSH1 0x24 PUSH1 0x0 REVERT JUMPDEST PUSH1 0x0 DUP2 SWAP1 POP DUP2 PUSH1 0x0 MSTORE PUSH1 0x20 PUSH1 0x0 KECCAK256 SWAP1 POP SWAP2 SWAP1 POP JUMP JUMPDEST PUSH1 0x0 PUSH1 0x20 PUSH1 0x1F DUP4 ADD DIV SWAP1 POP SWAP2 SWAP1 POP JUMP JUMPDEST PUSH1 0x0 DUP3 DUP3 SHL SWAP1 POP SWAP3 SWAP2 POP POP JUMP JUMPDEST PUSH1 0x0 PUSH1 0x8 DUP4 MUL PUSH2 0x2A49 PUSH32 0xFFFFFFFFFFFFFFFFFFFFFFFFFFFFFFFFFFFFFFFFFFFFFFFFFFFFFFFFFFFFFFFF DUP3 PUSH2 0x2A0C JUMP JUMPDEST PUSH2 0x2A53 DUP7 DUP4 PUSH2 0x2A0C JUMP JUMPDEST SWAP6 POP DUP1 NOT DUP5 AND SWAP4 POP DUP1 DUP7 AND DUP5 OR SWAP3 POP POP POP SWAP4 SWAP3 POP POP POP JUMP JUMPDEST PUSH1 0x0 DUP2 SWAP1 POP SWAP2 SWAP1 POP JUMP JUMPDEST PUSH1 0x0 PUSH2 0x2A90 PUSH2 0x2A8B PUSH2 0x2A86 DUP5 PUSH2 0x1EA3 JUMP JUMPDEST PUSH2 0x2A6B JUMP JUMPDEST PUSH2 0x1EA3 JUMP JUMPDEST SWAP1 POP SWAP2 SWAP1 POP JUMP JUMPDEST PUSH1 0x0 DUP2 SWAP1 POP SWAP2 SWAP1 POP JUMP JUMPDEST PUSH2 0x2AAA DUP4 PUSH2 0x2A75 JUMP JUMPDEST PUSH2 0x2ABE PUSH2 0x2AB6 DUP3 PUSH2 0x2A97 JUMP JUMPDEST DUP5 DUP5 SLOAD PUSH2 0x2A19 JUMP JUMPDEST DUP3 SSTORE POP POP POP POP JUMP JUMPDEST PUSH1 0x0 SWAP1 JUMP JUMPDEST PUSH2 0x2AD3 PUSH2 0x2AC6 JUMP JUMPDEST PUSH2 0x2ADE DUP2 DUP5 DUP5 PUSH2 0x2AA1 JUMP JUMPDEST POP POP POP JUMP JUMPDEST JUMPDEST DUP2 DUP2 LT ISZERO PUSH2 0x2B02 JUMPI PUSH2 0x2AF7 PUSH1 0x0 DUP3 PUSH2 0x2ACB JUMP JUMPDEST PUSH1 0x1 DUP2 ADD SWAP1 POP PUSH2 0x2AE4 JUMP JUMPDEST POP POP JUMP JUMPDEST PUSH1 0x1F DUP3 GT ISZERO PUSH2 0x2B47 JUMPI PUSH2 0x2B18 DUP2 PUSH2 0x29E7 JUMP JUMPDEST PUSH2 0x2B21 DUP5 PUSH2 0x29FC JUMP JUMPDEST DUP2 ADD PUSH1 0x20 DUP6 LT ISZERO PUSH2 0x2B30 JUMPI DUP2 SWAP1 POP JUMPDEST PUSH2 0x2B44 PUSH2 0x2B3C DUP6 PUSH2 0x29FC JUMP JUMPDEST DUP4 ADD DUP3 PUSH2 0x2AE3 JUMP JUMPDEST POP POP JUMPDEST POP POP POP JUMP JUMPDEST PUSH1 0x0 DUP3 DUP3 SHR SWAP1 POP SWAP3 SWAP2 POP POP JUMP JUMPDEST PUSH1 0x0 PUSH2 0x2B6A PUSH1 0x0 NOT DUP5 PUSH1 0x8 MUL PUSH2 0x2B4C JUMP JUMPDEST NOT DUP1 DUP4 AND SWAP2 POP POP SWAP3 SWAP2 POP POP JUMP JUMPDEST PUSH1 0x0 PUSH2 0x2B83 DUP4 DUP4 PUSH2 0x2B59 JUMP JUMPDEST SWAP2 POP DUP3 PUSH1 0x2 MUL DUP3 OR SWAP1 POP SWAP3 SWAP2 POP POP JUMP JUMPDEST PUSH2 0x2B9C DUP3 PUSH2 0x1DDD JUMP JUMPDEST PUSH8 0xFFFFFFFFFFFFFFFF DUP2 GT ISZERO PUSH2 0x2BB5 JUMPI PUSH2 0x2BB4 PUSH2 0x2378 JUMP JUMPDEST JUMPDEST PUSH2 0x2BBF DUP3 SLOAD PUSH2 0x25BD JUMP JUMPDEST PUSH2 0x2BCA DUP3 DUP3 DUP6 PUSH2 0x2B06 JUMP JUMPDEST PUSH1 0x0 PUSH1 0x20 SWAP1 POP PUSH1 0x1F DUP4 GT PUSH1 0x1 DUP2 EQ PUSH2 0x2BFD JUMPI PUSH1 0x0 DUP5 ISZERO PUSH2 0x2BEB JUMPI DUP3 DUP8 ADD MLOAD SWAP1 POP JUMPDEST PUSH2 0x2BF5 DUP6 DUP3 PUSH2 0x2B77 JUMP JUMPDEST DUP7 SSTORE POP PUSH2 0x2C5D JUMP JUMPDEST PUSH1 0x1F NOT DUP5 AND PUSH2 0x2C0B DUP7 PUSH2 0x29E7 JUMP JUMPDEST PUSH1 0x0 JUMPDEST DUP3 DUP2 LT ISZERO PUSH2 0x2C33 JUMPI DUP5 DUP10 ADD MLOAD DUP3 SSTORE PUSH1 0x1 DUP3 ADD SWAP2 POP PUSH1 0x20 DUP6 ADD SWAP5 POP PUSH1 0x20 DUP2 ADD SWAP1 POP PUSH2 0x2C0E JUMP JUMPDEST DUP7 DUP4 LT ISZERO PUSH2 0x2C50 JUMPI DUP5 DUP10 ADD MLOAD PUSH2 0x2C4C PUSH1 0x1F DUP10 AND DUP3 PUSH2 0x2B59 JUMP JUMPDEST DUP4 SSTORE POP JUMPDEST PUSH1 0x1 PUSH1 0x2 DUP9 MUL ADD DUP9 SSTORE POP POP POP JUMPDEST POP POP POP POP POP POP JUMP JUMPDEST PUSH1 0x0 DUP2 SLOAD PUSH2 0x2C72 DUP2 PUSH2 0x25BD JUMP JUMPDEST PUSH2 0x2C7C DUP2 DUP7 PUSH2 0x1DE8 JUMP JUMPDEST SWAP5 POP PUSH1 0x1 DUP3 AND PUSH1 0x0 DUP2 EQ PUSH2 0x2C97 JUMPI PUSH1 0x1 DUP2 EQ PUSH2 0x2CAD JUMPI PUSH2 0x2CE0 JUMP JUMPDEST PUSH1 0xFF NOT DUP4 AND DUP7 MSTORE DUP2 ISZERO ISZERO PUSH1 0x20 MUL DUP7 ADD SWAP4 POP PUSH2 0x2CE0 JUMP JUMPDEST PUSH2 0x2CB6 DUP6 PUSH2 0x29E7 JUMP JUMPDEST PUSH1 0x0 JUMPDEST DUP4 DUP2 LT ISZERO PUSH2 0x2CD8 JUMPI DUP2 SLOAD DUP2 DUP10 ADD MSTORE PUSH1 0x1 DUP3 ADD SWAP2 POP PUSH1 0x20 DUP2 ADD SWAP1 POP PUSH2 0x2CB9 JUMP JUMPDEST DUP1 DUP9 ADD SWAP6 POP POP POP JUMPDEST POP POP POP SWAP3 SWAP2 POP POP JUMP JUMPDEST PUSH1 0x0 PUSH1 0x40 DUP3 ADD SWAP1 POP PUSH2 0x2CFE PUSH1 0x0 DUP4 ADD DUP6 PUSH2 0x251B JUMP JUMPDEST DUP2 DUP2 SUB PUSH1 0x20 DUP4 ADD MSTORE PUSH2 0x2D10 DUP2 DUP5 PUSH2 0x2C65 JUMP JUMPDEST SWAP1 POP SWAP4 SWAP3 POP POP POP JUMP JUMPDEST PUSH32 0x496E76616C696420616D6F756E74000000000000000000000000000000000000 PUSH1 0x0 DUP3 ADD MSTORE POP JUMP JUMPDEST PUSH1 0x0 PUSH2 0x2D4F PUSH1 0xE DUP4 PUSH2 0x1DE8 JUMP JUMPDEST SWAP2 POP PUSH2 0x2D5A DUP3 PUSH2 0x2D19 JUMP JUMPDEST PUSH1 0x20 DUP3 ADD SWAP1 POP SWAP2 SWAP1 POP JUMP JUMPDEST PUSH1 0x0 PUSH1 0x20 DUP3 ADD SWAP1 POP DUP2 DUP2 SUB PUSH1 0x0 DUP4 ADD MSTORE PUSH2 0x2D7E DUP2 PUSH2 0x2D42 JUMP JUMPDEST SWAP1 POP SWAP2 SWAP1 POP JUMP INVALID LOG2 PUSH5 0x6970667358 0x22 SLT KECCAK256 SWAP14 NUMBER SHL 0xCE DUP14 ADDRESS SELFDESTRUCT DUP2 PUSH9 0xF24C898CA9C26C1E12 0xDD RETURNDATASIZE SWAP10 0xAD BYTE PUSH18 0x9ECD4FEEB2F6DE3264736F6C634300081400 CALLER LOG2 PUSH5 0x6970667358 0x22 SLT KECCAK256 ADDRESS PUSH0 PUSH14 0x4291E73B2E339B9B6BA4ACD9BC34 DUP1 SWAP8 0xBC PUSH9 0xD83006EB22394DA88F DUP14 0x4B PUSH5 0x736F6C6343 STOP ADDMOD EQ STOP CALLER "},"methodIdentifiers":{"checkNameAvailability(string)":"eabfca69","checkServices()":"a6a46ccb","createService(string,string)":"6a5e1f92","getServicesAddresses()":"bd5ec58f","services(uint256)":"c22c4f43"}}}}}