{
  "_format": "hh-sol-artifact-1",
  "contractName": "Service",
  "sourceName": "contracts/Service.sol",
  "abi": [
    {
      "inputs": [
        {
          "internalType": "address",
          "name": "_deployeraddress",
          "type": "address"
        },
        {
          "internalType": "string",
          "name": "_name",
          "type": "string"
        },
        {
          "internalType": "string",
          "name": "_description",
          "type": "string"
        }
      ],
      "stateMutability": "nonpayable",
      "type": "constructor"
    },
    {
      "anonymous": false,
      "inputs": [
        {
          "indexed": false,
          "internalType": "address",
          "name": "serviceAddress",
          "type": "address"
        }
      ],
      "name": "ServiceDeactivated",
      "type": "event"
    },
    {
      "anonymous": false,
      "inputs": [
        {
          "indexed": false,
          "internalType": "address",
          "name": "serviceAddress",
          "type": "address"
        },
        {
          "indexed": false,
          "internalType": "string",
          "name": "name",
          "type": "string"
        }
      ],
      "name": "ServiceUpdated",
      "type": "event"
    },
    {
      "anonymous": false,
      "inputs": [
        {
          "indexed": true,
          "internalType": "uint256",
          "name": "tokenId",
          "type": "uint256"
        }
      ],
      "name": "SubscriptionBought",
      "type": "event"
    },
    {
      "anonymous": false,
      "inputs": [
        {
          "indexed": true,
          "internalType": "uint256",
          "name": "tokenId",
          "type": "uint256"
        }
      ],
      "name": "SubscriptionCancelled",
      "type": "event"
    },
    {
      "anonymous": false,
      "inputs": [
        {
          "indexed": true,
          "internalType": "uint256",
          "name": "tokenId",
          "type": "uint256"
        }
      ],
      "name": "SubscriptionCreated",
      "type": "event"
    },
    {
      "anonymous": false,
      "inputs": [
        {
          "indexed": true,
          "internalType": "uint256",
          "name": "tokenId",
          "type": "uint256"
        }
      ],
      "name": "SubscriptionPaid",
      "type": "event"
    },
    {
      "inputs": [],
      "name": "addExpiredSubscription",
      "outputs": [],
      "stateMutability": "nonpayable",
      "type": "function"
    },
    {
      "inputs": [
        {
          "internalType": "address",
          "name": "_user",
          "type": "address"
        },
        {
          "internalType": "uint256",
          "name": "_price",
          "type": "uint256"
        },
        {
          "internalType": "uint256",
          "name": "_duration",
          "type": "uint256"
        }
      ],
      "name": "buySubscription",
      "outputs": [],
      "stateMutability": "payable",
      "type": "function"
    },
    {
      "inputs": [
        {
          "internalType": "uint256",
          "name": "_tokenId",
          "type": "uint256"
        }
      ],
      "name": "cancelSubscription",
      "outputs": [],
      "stateMutability": "nonpayable",
      "type": "function"
    },
    {
      "inputs": [],
      "name": "checkSubscriptions",
      "outputs": [],
      "stateMutability": "nonpayable",
      "type": "function"
    },
    {
      "inputs": [
        {
          "internalType": "address",
          "name": "_user",
          "type": "address"
        },
        {
          "internalType": "uint256",
          "name": "_price",
          "type": "uint256"
        },
        {
          "internalType": "uint256",
          "name": "_duration",
          "type": "uint256"
        }
      ],
      "name": "createSubscription",
      "outputs": [],
      "stateMutability": "nonpayable",
      "type": "function"
    },
    {
      "inputs": [],
      "name": "deactivateService",
      "outputs": [],
      "stateMutability": "nonpayable",
      "type": "function"
    },
    {
      "inputs": [],
      "name": "description",
      "outputs": [
        {
          "internalType": "string",
          "name": "",
          "type": "string"
        }
      ],
      "stateMutability": "view",
      "type": "function"
    },
    {
      "inputs": [],
      "name": "getDescription",
      "outputs": [
        {
          "internalType": "string",
          "name": "",
          "type": "string"
        }
      ],
      "stateMutability": "view",
      "type": "function"
    },
    {
      "inputs": [],
      "name": "getIsActive",
      "outputs": [
        {
          "internalType": "bool",
          "name": "",
          "type": "bool"
        }
      ],
      "stateMutability": "view",
      "type": "function"
    },
    {
      "inputs": [],
      "name": "getName",
      "outputs": [
        {
          "internalType": "string",
          "name": "",
          "type": "string"
        }
      ],
      "stateMutability": "view",
      "type": "function"
    },
    {
      "inputs": [],
      "name": "getOwner",
      "outputs": [
        {
          "internalType": "address",
          "name": "",
          "type": "address"
        }
      ],
      "stateMutability": "view",
      "type": "function"
    },
    {
      "inputs": [],
      "name": "getSubscriptions",
      "outputs": [
        {
          "internalType": "address[]",
          "name": "",
          "type": "address[]"
        },
        {
          "internalType": "uint256[]",
          "name": "",
          "type": "uint256[]"
        },
        {
          "internalType": "uint256[]",
          "name": "",
          "type": "uint256[]"
        },
        {
          "internalType": "uint256[]",
          "name": "",
          "type": "uint256[]"
        },
        {
          "internalType": "uint256[]",
          "name": "",
          "type": "uint256[]"
        },
        {
          "internalType": "uint256[]",
          "name": "",
          "type": "uint256[]"
        },
        {
          "internalType": "string[]",
          "name": "",
          "type": "string[]"
        }
      ],
      "stateMutability": "view",
      "type": "function"
    },
    {
      "inputs": [],
      "name": "isActive",
      "outputs": [
        {
          "internalType": "bool",
          "name": "",
          "type": "bool"
        }
      ],
      "stateMutability": "view",
      "type": "function"
    },
    {
      "inputs": [],
      "name": "name",
      "outputs": [
        {
          "internalType": "string",
          "name": "",
          "type": "string"
        }
      ],
      "stateMutability": "view",
      "type": "function"
    },
    {
      "inputs": [
        {
          "internalType": "uint256",
          "name": "_tokenId",
          "type": "uint256"
        }
      ],
      "name": "paySubscription",
      "outputs": [],
      "stateMutability": "payable",
      "type": "function"
    },
    {
      "inputs": [
        {
          "internalType": "string",
          "name": "_description",
          "type": "string"
        }
      ],
      "name": "setDescription",
      "outputs": [],
      "stateMutability": "nonpayable",
      "type": "function"
    },
    {
      "inputs": [
        {
          "internalType": "bool",
          "name": "_isActive",
          "type": "bool"
        }
      ],
      "name": "setIsActive",
      "outputs": [],
      "stateMutability": "nonpayable",
      "type": "function"
    },
    {
      "inputs": [
        {
          "internalType": "string",
          "name": "_name",
          "type": "string"
        }
      ],
      "name": "setName",
      "outputs": [],
      "stateMutability": "nonpayable",
      "type": "function"
    },
    {
      "inputs": [
        {
          "internalType": "string",
          "name": "_newname",
          "type": "string"
        },
        {
          "internalType": "string",
          "name": "_newdescription",
          "type": "string"
        }
      ],
      "name": "updateService",
      "outputs": [],
      "stateMutability": "nonpayable",
      "type": "function"
    }
  ],
  "bytecode": "0x60a06040526001600260006101000a81548160ff02191690831515021790555060006003553480156200003157600080fd5b5060405162003816380380620038168339818101604052810190620000579190620002b0565b8273ffffffffffffffffffffffffffffffffffffffff1660808173ffffffffffffffffffffffffffffffffffffffff168152505081600090816200009c919062000595565b508060019081620000ae919062000595565b505050506200067c565b6000604051905090565b600080fd5b600080fd5b600073ffffffffffffffffffffffffffffffffffffffff82169050919050565b6000620000f982620000cc565b9050919050565b6200010b81620000ec565b81146200011757600080fd5b50565b6000815190506200012b8162000100565b92915050565b600080fd5b600080fd5b6000601f19601f8301169050919050565b7f4e487b7100000000000000000000000000000000000000000000000000000000600052604160045260246000fd5b62000186826200013b565b810181811067ffffffffffffffff82111715620001a857620001a76200014c565b5b80604052505050565b6000620001bd620000b8565b9050620001cb82826200017b565b919050565b600067ffffffffffffffff821115620001ee57620001ed6200014c565b5b620001f9826200013b565b9050602081019050919050565b60005b838110156200022657808201518184015260208101905062000209565b60008484015250505050565b6000620002496200024384620001d0565b620001b1565b90508281526020810184848401111562000268576200026762000136565b5b6200027584828562000206565b509392505050565b600082601f83011262000295576200029462000131565b5b8151620002a784826020860162000232565b91505092915050565b600080600060608486031215620002cc57620002cb620000c2565b5b6000620002dc868287016200011a565b935050602084015167ffffffffffffffff8111156200030057620002ff620000c7565b5b6200030e868287016200027d565b925050604084015167ffffffffffffffff811115620003325762000331620000c7565b5b62000340868287016200027d565b9150509250925092565b600081519050919050565b7f4e487b7100000000000000000000000000000000000000000000000000000000600052602260045260246000fd5b600060028204905060018216806200039d57607f821691505b602082108103620003b357620003b262000355565b5b50919050565b60008190508160005260206000209050919050565b60006020601f8301049050919050565b600082821b905092915050565b6000600883026200041d7fffffffffffffffffffffffffffffffffffffffffffffffffffffffffffffffff82620003de565b620004298683620003de565b95508019841693508086168417925050509392505050565b6000819050919050565b6000819050919050565b600062000476620004706200046a8462000441565b6200044b565b62000441565b9050919050565b6000819050919050565b620004928362000455565b620004aa620004a1826200047d565b848454620003eb565b825550505050565b600090565b620004c1620004b2565b620004ce81848462000487565b505050565b5b81811015620004f657620004ea600082620004b7565b600181019050620004d4565b5050565b601f82111562000545576200050f81620003b9565b6200051a84620003ce565b810160208510156200052a578190505b620005426200053985620003ce565b830182620004d3565b50505b505050565b600082821c905092915050565b60006200056a600019846008026200054a565b1980831691505092915050565b600062000585838362000557565b9150826002028217905092915050565b620005a0826200034a565b67ffffffffffffffff811115620005bc57620005bb6200014c565b5b620005c8825462000384565b620005d5828285620004fa565b600060209050601f8311600181146200060d5760008415620005f8578287015190505b62000604858262000577565b86555062000674565b601f1984166200061d86620003b9565b60005b82811015620006475784890151825560018201915060208501945060208101905062000620565b8683101562000667578489015162000663601f89168262000557565b8355505b6001600288020188555050505b505050505050565b60805161314d620006c9600039600081816106b0015281816109b9015281816114300152818161170b0152818161193f01528181611cfa01528181611dea0152611f1b015261314d6000f3fe6080604052600436106101145760003560e01c8063718b57dc116100a057806390c3f38f1161006457806390c3f38f1461033f578063a4f96c0c14610368578063c47f00271461037f578063c82494a2146103a8578063fba7cc79146103bf57610114565b8063718b57dc1461027b5780637284e416146102a45780637ac9b098146102cf578063893d20e8146102eb5780638a2405a81461031657610114565b806321922488116100e757806321922488146101c357806322f3e2d4146101da5780632750fc78146102055780633399d3891461022e5780633b47a9ac1461024a57610114565b806306fdde031461011957806317d7de7c146101445780631a0925411461016f578063212350831461019a575b600080fd5b34801561012557600080fd5b5061012e6103ea565b60405161013b91906121cb565b60405180910390f35b34801561015057600080fd5b50610159610478565b60405161016691906121cb565b60405180910390f35b34801561017b57600080fd5b5061018461050a565b60405161019191906121cb565b60405180910390f35b3480156101a657600080fd5b506101c160048036038101906101bc9190612237565b61059c565b005b3480156101cf57600080fd5b506101d8610825565b005b3480156101e657600080fd5b506101ef6109a4565b6040516101fc919061227f565b60405180910390f35b34801561021157600080fd5b5061022c600480360381019061022791906122c6565b6109b7565b005b61024860048036038101906102439190612351565b610a62565b005b34801561025657600080fd5b5061025f610e28565b604051610272979695949392919061262c565b60405180910390f35b34801561028757600080fd5b506102a2600480360381019061029d9190612801565b61142e565b005b3480156102b057600080fd5b506102b9611569565b6040516102c691906121cb565b60405180910390f35b6102e960048036038101906102e49190612237565b6115f7565b005b3480156102f757600080fd5b5061030061193b565b60405161030d9190612888565b60405180910390f35b34801561032257600080fd5b5061033d60048036038101906103389190612351565b611963565b005b34801561034b57600080fd5b50610366600480360381019061036191906128a3565b611cf8565b005b34801561037457600080fd5b5061037d611de8565b005b34801561038b57600080fd5b506103a660048036038101906103a191906128a3565b611f19565b005b3480156103b457600080fd5b506103bd612009565b005b3480156103cb57600080fd5b506103d4612124565b6040516103e1919061227f565b60405180910390f35b600080546103f79061291b565b80601f01602080910402602001604051908101604052809291908181526020018280546104239061291b565b80156104705780601f1061044557610100808354040283529160200191610470565b820191906000526020600020905b81548152906001019060200180831161045357829003601f168201915b505050505081565b6060600080546104879061291b565b80601f01602080910402602001604051908101604052809291908181526020018280546104b39061291b565b80156105005780601f106104d557610100808354040283529160200191610500565b820191906000526020600020905b8154815290600101906020018083116104e357829003601f168201915b5050505050905090565b6060600180546105199061291b565b80601f01602080910402602001604051908101604052809291908181526020018280546105459061291b565b80156105925780601f1061056757610100808354040283529160200191610592565b820191906000526020600020905b81548152906001019060200180831161057557829003601f168201915b5050505050905090565b80600073ffffffffffffffffffffffffffffffffffffffff166004600083815260200190815260200160002060000160009054906101000a900473ffffffffffffffffffffffffffffffffffffffff1673ffffffffffffffffffffffffffffffffffffffff1603610642576040517f08c379a000000000000000000000000000000000000000000000000000000000815260040161063990612998565b60405180910390fd5b813373ffffffffffffffffffffffffffffffffffffffff166004600083815260200190815260200160002060000160009054906101000a900473ffffffffffffffffffffffffffffffffffffffff1673ffffffffffffffffffffffffffffffffffffffff1614806106fe57507f000000000000000000000000000000000000000000000000000000000000000073ffffffffffffffffffffffffffffffffffffffff163373ffffffffffffffffffffffffffffffffffffffff16145b61073d576040517f08c379a000000000000000000000000000000000000000000000000000000000815260040161073490612a04565b60405180910390fd5b600260009054906101000a900460ff1661078c576040517f08c379a000000000000000000000000000000000000000000000000000000000815260040161078390612a70565b60405180910390fd5b6103e84261079a9190612abf565b600460008581526020019081526020016000206005018190555060036004600085815260200190815260200160002060060160006101000a81548160ff021916908360038111156107ee576107ed612b01565b5b0217905550827fbd2bcea75d16a85f005cd83447e0de57341bf926fe7419e6d553663e91ab4da760405160405180910390a2505050565b60006040518060e00160405280600173ffffffffffffffffffffffffffffffffffffffff1681526020016003548152602001670de0b6b3a76400008152602001601e81526020016103e8624f1a004261087e9190612b30565b6108889190612abf565b81526020016103e862278d004261089f9190612b30565b6108a99190612abf565b8152602001600160038111156108c2576108c1612b01565b5b81525090508060046000600354815260200190815260200160002060008201518160000160006101000a81548173ffffffffffffffffffffffffffffffffffffffff021916908373ffffffffffffffffffffffffffffffffffffffff1602179055506020820151816001015560408201518160020155606082015181600301556080820151816004015560a0820151816005015560c08201518160060160006101000a81548160ff0219169083600381111561098157610980612b01565b5b02179055509050506003600081548092919061099c90612b64565b919050555050565b600260009054906101000a900460ff1681565b7f000000000000000000000000000000000000000000000000000000000000000073ffffffffffffffffffffffffffffffffffffffff163373ffffffffffffffffffffffffffffffffffffffff1614610a45576040517f08c379a0000000000000000000000000000000000000000000000000000000008152600401610a3c90612bf8565b60405180910390fd5b80600260006101000a81548160ff02191690831515021790555050565b8260005b600354811015610bee578173ffffffffffffffffffffffffffffffffffffffff166004600083815260200190815260200160002060000160009054906101000a900473ffffffffffffffffffffffffffffffffffffffff1673ffffffffffffffffffffffffffffffffffffffff16148015610b9b575060016003811115610af057610aef612b01565b5b6004600083815260200190815260200160002060060160009054906101000a900460ff166003811115610b2657610b25612b01565b5b1480610b9a575060006003811115610b4157610b40612b01565b5b6004600083815260200190815260200160002060060160009054906101000a900460ff166003811115610b7757610b76612b01565b5b148015610b995750600460008281526020019081526020016000206005015442105b5b5b15610bdb576040517f08c379a0000000000000000000000000000000000000000000000000000000008152600401610bd290612c8a565b60405180910390fd5b8080610be690612b64565b915050610a66565b508260008111610c33576040517f08c379a0000000000000000000000000000000000000000000000000000000008152600401610c2a90612cf6565b60405180910390fd5b600260009054906101000a900460ff16610c82576040517f08c379a0000000000000000000000000000000000000000000000000000000008152600401610c7990612a70565b60405180910390fd5b60006040518060e001604052808773ffffffffffffffffffffffffffffffffffffffff16815260200160035481526020018681526020018581526020016103e842610ccd9190612abf565b81526020016103e86201518087610ce49190612abf565b42610cef9190612d16565b610cf99190612abf565b815260200160016003811115610d1257610d11612b01565b5b81525090508060046000600354815260200190815260200160002060008201518160000160006101000a81548173ffffffffffffffffffffffffffffffffffffffff021916908373ffffffffffffffffffffffffffffffffffffffff1602179055506020820151816001015560408201518160020155606082015181600301556080820151816004015560a0820151816005015560c08201518160060160006101000a81548160ff02191690836003811115610dd157610dd0612b01565b5b02179055509050506003547ffc92a747fa9c2199bb773d08eb7a76c871b1c9b634b5a1afc3cc4ccc643032e660405160405180910390a260036000815480929190610e1b90612b64565b9190505550505050505050565b6060806060806060806060600060035467ffffffffffffffff811115610e5157610e506126d6565b5b604051908082528060200260200182016040528015610e7f5781602001602082028036833780820191505090505b509050600060035467ffffffffffffffff811115610ea057610e9f6126d6565b5b604051908082528060200260200182016040528015610ece5781602001602082028036833780820191505090505b509050600060035467ffffffffffffffff811115610eef57610eee6126d6565b5b604051908082528060200260200182016040528015610f1d5781602001602082028036833780820191505090505b509050600060035467ffffffffffffffff811115610f3e57610f3d6126d6565b5b604051908082528060200260200182016040528015610f6c5781602001602082028036833780820191505090505b509050600060035467ffffffffffffffff811115610f8d57610f8c6126d6565b5b604051908082528060200260200182016040528015610fbb5781602001602082028036833780820191505090505b509050600060035467ffffffffffffffff811115610fdc57610fdb6126d6565b5b60405190808252806020026020018201604052801561100a5781602001602082028036833780820191505090505b509050600060035467ffffffffffffffff81111561102b5761102a6126d6565b5b60405190808252806020026020018201604052801561105e57816020015b60608152602001906001900390816110495790505b50905060005b600354811015611408576004600082815260200190815260200160002060000160009054906101000a900473ffffffffffffffffffffffffffffffffffffffff168882815181106110b8576110b7612d4a565b5b602002602001019073ffffffffffffffffffffffffffffffffffffffff16908173ffffffffffffffffffffffffffffffffffffffff1681525050600460008281526020019081526020016000206001015487828151811061111c5761111b612d4a565b5b602002602001018181525050600460008281526020019081526020016000206002015486828151811061115257611151612d4a565b5b602002602001018181525050600460008281526020019081526020016000206003015485828151811061118857611187612d4a565b5b60200260200101818152505060046000828152602001908152602001600020600401548482815181106111be576111bd612d4a565b5b60200260200101818152505060046000828152602001908152602001600020600501548382815181106111f4576111f3612d4a565b5b6020026020010181815250506000600381111561121457611213612b01565b5b6004600083815260200190815260200160002060060160009054906101000a900460ff16600381111561124a57611249612b01565b5b146113a0576001600381111561126357611262612b01565b5b6004600083815260200190815260200160002060060160009054906101000a900460ff16600381111561129957611298612b01565b5b1461136457600260038111156112b2576112b1612b01565b5b6004600083815260200190815260200160002060060160009054906101000a900460ff1660038111156112e8576112e7612b01565b5b14611328576040518060400160405280600981526020017f43616e63656c6c6564000000000000000000000000000000000000000000000081525061135f565b6040518060400160405280600781526020017f45787069726564000000000000000000000000000000000000000000000000008152505b61139b565b6040518060400160405280600781526020017f4f6e676f696e67000000000000000000000000000000000000000000000000008152505b6113d7565b6040518060400160405280600381526020017f4e657700000000000000000000000000000000000000000000000000000000008152505b8282815181106113ea576113e9612d4a565b5b6020026020010181905250808061140090612b64565b915050611064565b50868686868686869d509d509d509d509d509d509d505050505050505090919293949596565b7f000000000000000000000000000000000000000000000000000000000000000073ffffffffffffffffffffffffffffffffffffffff163373ffffffffffffffffffffffffffffffffffffffff16146114bc576040517f08c379a00000000000000000000000000000000000000000000000000000000081526004016114b390612bf8565b60405180910390fd5b600260009054906101000a900460ff1661150b576040517f08c379a000000000000000000000000000000000000000000000000000000000815260040161150290612a70565b60405180910390fd5b816000908161151a9190612f25565b50806001908161152a9190612f25565b507f4753ea05804b68917fe65e38a8d48a1c098336025a4e9f9bb64e37afe726800830600060405161155d92919061307b565b60405180910390a15050565b600180546115769061291b565b80601f01602080910402602001604051908101604052809291908181526020018280546115a29061291b565b80156115ef5780601f106115c4576101008083540402835291602001916115ef565b820191906000526020600020905b8154815290600101906020018083116115d257829003601f168201915b505050505081565b80600073ffffffffffffffffffffffffffffffffffffffff166004600083815260200190815260200160002060000160009054906101000a900473ffffffffffffffffffffffffffffffffffffffff1673ffffffffffffffffffffffffffffffffffffffff160361169d576040517f08c379a000000000000000000000000000000000000000000000000000000000815260040161169490612998565b60405180910390fd5b813373ffffffffffffffffffffffffffffffffffffffff166004600083815260200190815260200160002060000160009054906101000a900473ffffffffffffffffffffffffffffffffffffffff1673ffffffffffffffffffffffffffffffffffffffff16148061175957507f000000000000000000000000000000000000000000000000000000000000000073ffffffffffffffffffffffffffffffffffffffff163373ffffffffffffffffffffffffffffffffffffffff16145b611798576040517f08c379a000000000000000000000000000000000000000000000000000000000815260040161178f90612a04565b60405180910390fd5b600260009054906101000a900460ff166117e7576040517f08c379a00000000000000000000000000000000000000000000000000000000081526004016117de90612a70565b60405180910390fd5b6000349050600060046000868152602001908152602001600020600201549050808214611849576040517f08c379a0000000000000000000000000000000000000000000000000000000008152600401611840906130f7565b60405180910390fd5b6103e8426118579190612abf565b60046000878152602001908152602001600020600401819055506103e86201518060046000888152602001908152602001600020600301546118999190612abf565b426118a49190612d16565b6118ae9190612abf565b600460008781526020019081526020016000206005018190555060016004600087815260200190815260200160002060060160006101000a81548160ff0219169083600381111561190257611901612b01565b5b0217905550847f9040c259954b48f5dfdf60ea91e742403e7552202de9925d509fdd8187b2130b60405160405180910390a25050505050565b60007f0000000000000000000000000000000000000000000000000000000000000000905090565b8260005b600354811015611aef578173ffffffffffffffffffffffffffffffffffffffff166004600083815260200190815260200160002060000160009054906101000a900473ffffffffffffffffffffffffffffffffffffffff1673ffffffffffffffffffffffffffffffffffffffff16148015611a9c5750600160038111156119f1576119f0612b01565b5b6004600083815260200190815260200160002060060160009054906101000a900460ff166003811115611a2757611a26612b01565b5b1480611a9b575060006003811115611a4257611a41612b01565b5b6004600083815260200190815260200160002060060160009054906101000a900460ff166003811115611a7857611a77612b01565b5b148015611a9a5750600460008281526020019081526020016000206005015442105b5b5b15611adc576040517f08c379a0000000000000000000000000000000000000000000000000000000008152600401611ad390612c8a565b60405180910390fd5b8080611ae790612b64565b915050611967565b508260008111611b34576040517f08c379a0000000000000000000000000000000000000000000000000000000008152600401611b2b90612cf6565b60405180910390fd5b600260009054906101000a900460ff16611b83576040517f08c379a0000000000000000000000000000000000000000000000000000000008152600401611b7a90612a70565b60405180910390fd5b60006040518060e001604052808773ffffffffffffffffffffffffffffffffffffffff1681526020016003548152602001868152602001858152602001600081526020016000815260200160006003811115611be257611be1612b01565b5b81525090508060046000600354815260200190815260200160002060008201518160000160006101000a81548173ffffffffffffffffffffffffffffffffffffffff021916908373ffffffffffffffffffffffffffffffffffffffff1602179055506020820151816001015560408201518160020155606082015181600301556080820151816004015560a0820151816005015560c08201518160060160006101000a81548160ff02191690836003811115611ca157611ca0612b01565b5b02179055509050506003547f6a2b70dde6ae0193f84b6a9eeb3b0ebdc3a35e99d9167b88c570158dd09cb0f760405160405180910390a260036000815480929190611ceb90612b64565b9190505550505050505050565b7f000000000000000000000000000000000000000000000000000000000000000073ffffffffffffffffffffffffffffffffffffffff163373ffffffffffffffffffffffffffffffffffffffff1614611d86576040517f08c379a0000000000000000000000000000000000000000000000000000000008152600401611d7d90612bf8565b60405180910390fd5b600260009054906101000a900460ff16611dd5576040517f08c379a0000000000000000000000000000000000000000000000000000000008152600401611dcc90612a70565b60405180910390fd5b8060019081611de49190612f25565b5050565b7f000000000000000000000000000000000000000000000000000000000000000073ffffffffffffffffffffffffffffffffffffffff163373ffffffffffffffffffffffffffffffffffffffff1614611e76576040517f08c379a0000000000000000000000000000000000000000000000000000000008152600401611e6d90612bf8565b60405180910390fd5b600260009054906101000a900460ff16611ec5576040517f08c379a0000000000000000000000000000000000000000000000000000000008152600401611ebc90612a70565b60405180910390fd5b6000600260006101000a81548160ff0219169083151502179055507f86d6aa2827e28270c1635780e8a17d61c38028e75531a0a25c5004862521289d30604051611f0f9190612888565b60405180910390a1565b7f000000000000000000000000000000000000000000000000000000000000000073ffffffffffffffffffffffffffffffffffffffff163373ffffffffffffffffffffffffffffffffffffffff1614611fa7576040517f08c379a0000000000000000000000000000000000000000000000000000000008152600401611f9e90612bf8565b60405180910390fd5b600260009054906101000a900460ff16611ff6576040517f08c379a0000000000000000000000000000000000000000000000000000000008152600401611fed90612a70565b60405180910390fd5b80600090816120059190612f25565b5050565b60005b6003548110156121215760046000828152602001908152602001600020600501546103e84261203b9190612abf565b11801561208f57506001600381111561205757612056612b01565b5b6004600083815260200190815260200160002060060160009054906101000a900460ff16600381111561208d5761208c612b01565b5b145b1561210e5760026004600083815260200190815260200160002060060160006101000a81548160ff021916908360038111156120ce576120cd612b01565b5b02179055507f4753ea05804b68917fe65e38a8d48a1c098336025a4e9f9bb64e37afe726800830600060405161210592919061307b565b60405180910390a15b808061211990612b64565b91505061200c565b50565b6000600260009054906101000a900460ff16905090565b600081519050919050565b600082825260208201905092915050565b60005b8381101561217557808201518184015260208101905061215a565b60008484015250505050565b6000601f19601f8301169050919050565b600061219d8261213b565b6121a78185612146565b93506121b7818560208601612157565b6121c081612181565b840191505092915050565b600060208201905081810360008301526121e58184612192565b905092915050565b6000604051905090565b600080fd5b600080fd5b6000819050919050565b61221481612201565b811461221f57600080fd5b50565b6000813590506122318161220b565b92915050565b60006020828403121561224d5761224c6121f7565b5b600061225b84828501612222565b91505092915050565b60008115159050919050565b61227981612264565b82525050565b60006020820190506122946000830184612270565b92915050565b6122a381612264565b81146122ae57600080fd5b50565b6000813590506122c08161229a565b92915050565b6000602082840312156122dc576122db6121f7565b5b60006122ea848285016122b1565b91505092915050565b600073ffffffffffffffffffffffffffffffffffffffff82169050919050565b600061231e826122f3565b9050919050565b61232e81612313565b811461233957600080fd5b50565b60008135905061234b81612325565b92915050565b60008060006060848603121561236a576123696121f7565b5b60006123788682870161233c565b935050602061238986828701612222565b925050604061239a86828701612222565b9150509250925092565b600081519050919050565b600082825260208201905092915050565b6000819050602082019050919050565b6123d981612313565b82525050565b60006123eb83836123d0565b60208301905092915050565b6000602082019050919050565b600061240f826123a4565b61241981856123af565b9350612424836123c0565b8060005b8381101561245557815161243c88826123df565b9750612447836123f7565b925050600181019050612428565b5085935050505092915050565b600081519050919050565b600082825260208201905092915050565b6000819050602082019050919050565b61249781612201565b82525050565b60006124a9838361248e565b60208301905092915050565b6000602082019050919050565b60006124cd82612462565b6124d7818561246d565b93506124e28361247e565b8060005b838110156125135781516124fa888261249d565b9750612505836124b5565b9250506001810190506124e6565b5085935050505092915050565b600081519050919050565b600082825260208201905092915050565b6000819050602082019050919050565b600082825260208201905092915050565b60006125688261213b565b612572818561254c565b9350612582818560208601612157565b61258b81612181565b840191505092915050565b60006125a2838361255d565b905092915050565b6000602082019050919050565b60006125c282612520565b6125cc818561252b565b9350836020820285016125de8561253c565b8060005b8581101561261a57848403895281516125fb8582612596565b9450612606836125aa565b925060208a019950506001810190506125e2565b50829750879550505050505092915050565b600060e0820190508181036000830152612646818a612404565b9050818103602083015261265a81896124c2565b9050818103604083015261266e81886124c2565b9050818103606083015261268281876124c2565b9050818103608083015261269681866124c2565b905081810360a08301526126aa81856124c2565b905081810360c08301526126be81846125b7565b905098975050505050505050565b600080fd5b600080fd5b7f4e487b7100000000000000000000000000000000000000000000000000000000600052604160045260246000fd5b61270e82612181565b810181811067ffffffffffffffff8211171561272d5761272c6126d6565b5b80604052505050565b60006127406121ed565b905061274c8282612705565b919050565b600067ffffffffffffffff82111561276c5761276b6126d6565b5b61277582612181565b9050602081019050919050565b82818337600083830152505050565b60006127a461279f84612751565b612736565b9050828152602081018484840111156127c0576127bf6126d1565b5b6127cb848285612782565b509392505050565b600082601f8301126127e8576127e76126cc565b5b81356127f8848260208601612791565b91505092915050565b60008060408385031215612818576128176121f7565b5b600083013567ffffffffffffffff811115612836576128356121fc565b5b612842858286016127d3565b925050602083013567ffffffffffffffff811115612863576128626121fc565b5b61286f858286016127d3565b9150509250929050565b61288281612313565b82525050565b600060208201905061289d6000830184612879565b92915050565b6000602082840312156128b9576128b86121f7565b5b600082013567ffffffffffffffff8111156128d7576128d66121fc565b5b6128e3848285016127d3565b91505092915050565b7f4e487b7100000000000000000000000000000000000000000000000000000000600052602260045260246000fd5b6000600282049050600182168061293357607f821691505b602082108103612946576129456128ec565b5b50919050565b7f537562736372697074696f6e20646f6573206e6f742065786973740000000000600082015250565b6000612982601b83612146565b915061298d8261294c565b602082019050919050565b600060208201905081810360008301526129b181612975565b9050919050565b7f43616c6c6572206973206e6f7420746865207375627363726962657200000000600082015250565b60006129ee601c83612146565b91506129f9826129b8565b602082019050919050565b60006020820190508181036000830152612a1d816129e1565b9050919050565b7f53657276696365206973206e6f74206163746976650000000000000000000000600082015250565b6000612a5a601583612146565b9150612a6582612a24565b602082019050919050565b60006020820190508181036000830152612a8981612a4d565b9050919050565b7f4e487b7100000000000000000000000000000000000000000000000000000000600052601160045260246000fd5b6000612aca82612201565b9150612ad583612201565b9250828202612ae381612201565b91508282048414831517612afa57612af9612a90565b5b5092915050565b7f4e487b7100000000000000000000000000000000000000000000000000000000600052602160045260246000fd5b6000612b3b82612201565b9150612b4683612201565b9250828203905081811115612b5e57612b5d612a90565b5b92915050565b6000612b6f82612201565b91507fffffffffffffffffffffffffffffffffffffffffffffffffffffffffffffffff8203612ba157612ba0612a90565b5b600182019050919050565b7f4f6e6c79206f776e657220697320616c6c6f7765640000000000000000000000600082015250565b6000612be2601583612146565b9150612bed82612bac565b602082019050919050565b60006020820190508181036000830152612c1181612bd5565b9050919050565b7f5375627363726962657220616c72656164792068617320616e2061637469766560008201527f20737562736372697074696f6e00000000000000000000000000000000000000602082015250565b6000612c74602d83612146565b9150612c7f82612c18565b604082019050919050565b60006020820190508181036000830152612ca381612c67565b9050919050565b7f56616c7565206d7573742062652067726561746572207468616e207a65726f00600082015250565b6000612ce0601f83612146565b9150612ceb82612caa565b602082019050919050565b60006020820190508181036000830152612d0f81612cd3565b9050919050565b6000612d2182612201565b9150612d2c83612201565b9250828201905080821115612d4457612d43612a90565b5b92915050565b7f4e487b7100000000000000000000000000000000000000000000000000000000600052603260045260246000fd5b60008190508160005260206000209050919050565b60006020601f8301049050919050565b600082821b905092915050565b600060088302612ddb7fffffffffffffffffffffffffffffffffffffffffffffffffffffffffffffffff82612d9e565b612de58683612d9e565b95508019841693508086168417925050509392505050565b6000819050919050565b6000612e22612e1d612e1884612201565b612dfd565b612201565b9050919050565b6000819050919050565b612e3c83612e07565b612e50612e4882612e29565b848454612dab565b825550505050565b600090565b612e65612e58565b612e70818484612e33565b505050565b5b81811015612e9457612e89600082612e5d565b600181019050612e76565b5050565b601f821115612ed957612eaa81612d79565b612eb384612d8e565b81016020851015612ec2578190505b612ed6612ece85612d8e565b830182612e75565b50505b505050565b600082821c905092915050565b6000612efc60001984600802612ede565b1980831691505092915050565b6000612f158383612eeb565b9150826002028217905092915050565b612f2e8261213b565b67ffffffffffffffff811115612f4757612f466126d6565b5b612f51825461291b565b612f5c828285612e98565b600060209050601f831160018114612f8f5760008415612f7d578287015190505b612f878582612f09565b865550612fef565b601f198416612f9d86612d79565b60005b82811015612fc557848901518255600182019150602085019450602081019050612fa0565b86831015612fe25784890151612fde601f891682612eeb565b8355505b6001600288020188555050505b505050505050565b600081546130048161291b565b61300e8186612146565b94506001821660008114613029576001811461303f57613072565b60ff198316865281151560200286019350613072565b61304885612d79565b60005b8381101561306a5781548189015260018201915060208101905061304b565b808801955050505b50505092915050565b60006040820190506130906000830185612879565b81810360208301526130a28184612ff7565b90509392505050565b7f496e76616c696420616d6f756e74000000000000000000000000000000000000600082015250565b60006130e1600e83612146565b91506130ec826130ab565b602082019050919050565b60006020820190508181036000830152613110816130d4565b905091905056fea26469706673582212207f4fc21919ae724fecae17a4ca144c78effa386196c0e4dd3d2aec82307fc9da64736f6c63430008140033",
  "linkReferences": {},
  "deployedLinkReferences": {}
}