{
  "_format": "hh-sol-artifact-1",
  "contractName": "Service",
  "sourceName": "contracts/Service.sol",
  "abi": [
    {
      "inputs": [
        {
          "internalType": "address",
          "name": "_deployeraddress",
          "type": "address"
        },
        {
          "internalType": "string",
          "name": "_name",
          "type": "string"
        },
        {
          "internalType": "string",
          "name": "_description",
          "type": "string"
        }
      ],
      "stateMutability": "nonpayable",
      "type": "constructor"
    },
    {
      "anonymous": false,
      "inputs": [
        {
          "indexed": true,
          "internalType": "address",
          "name": "serviceAddress",
          "type": "address"
        }
      ],
      "name": "ServiceDeactivated",
      "type": "event"
    },
    {
      "anonymous": false,
      "inputs": [
        {
          "indexed": true,
          "internalType": "address",
          "name": "serviceAddress",
          "type": "address"
        },
        {
          "indexed": false,
          "internalType": "string",
          "name": "name",
          "type": "string"
        }
      ],
      "name": "ServiceUpdated",
      "type": "event"
    },
    {
      "anonymous": false,
      "inputs": [
        {
          "indexed": true,
          "internalType": "uint256",
          "name": "tokenId",
          "type": "uint256"
        }
      ],
      "name": "SubscriptionBought",
      "type": "event"
    },
    {
      "anonymous": false,
      "inputs": [
        {
          "indexed": true,
          "internalType": "uint256",
          "name": "tokenId",
          "type": "uint256"
        }
      ],
      "name": "SubscriptionCancelled",
      "type": "event"
    },
    {
      "anonymous": false,
      "inputs": [
        {
          "indexed": true,
          "internalType": "uint256",
          "name": "tokenId",
          "type": "uint256"
        }
      ],
      "name": "SubscriptionCreated",
      "type": "event"
    },
    {
      "anonymous": false,
      "inputs": [
        {
          "indexed": true,
          "internalType": "uint256",
          "name": "tokenId",
          "type": "uint256"
        }
      ],
      "name": "SubscriptionPaid",
      "type": "event"
    },
    {
      "inputs": [
        {
          "internalType": "address",
          "name": "_user",
          "type": "address"
        },
        {
          "internalType": "uint256",
          "name": "_price",
          "type": "uint256"
        },
        {
          "internalType": "uint256",
          "name": "_duration",
          "type": "uint256"
        }
      ],
      "name": "buySubscription",
      "outputs": [],
      "stateMutability": "payable",
      "type": "function"
    },
    {
      "inputs": [
        {
          "internalType": "uint256",
          "name": "_tokenId",
          "type": "uint256"
        }
      ],
      "name": "cancelSubscription",
      "outputs": [],
      "stateMutability": "nonpayable",
      "type": "function"
    },
    {
      "inputs": [],
      "name": "checkSubscriptions",
      "outputs": [],
      "stateMutability": "nonpayable",
      "type": "function"
    },
    {
      "inputs": [
        {
          "internalType": "address",
          "name": "_user",
          "type": "address"
        },
        {
          "internalType": "uint256",
          "name": "_price",
          "type": "uint256"
        },
        {
          "internalType": "uint256",
          "name": "_duration",
          "type": "uint256"
        }
      ],
      "name": "createSubscription",
      "outputs": [],
      "stateMutability": "nonpayable",
      "type": "function"
    },
    {
      "inputs": [],
      "name": "deactivateService",
      "outputs": [],
      "stateMutability": "nonpayable",
      "type": "function"
    },
    {
      "inputs": [],
      "name": "description",
      "outputs": [
        {
          "internalType": "string",
          "name": "",
          "type": "string"
        }
      ],
      "stateMutability": "view",
      "type": "function"
    },
    {
      "inputs": [],
      "name": "getSubscriptions",
      "outputs": [
        {
          "internalType": "address[]",
          "name": "",
          "type": "address[]"
        },
        {
          "internalType": "uint256[]",
          "name": "",
          "type": "uint256[]"
        },
        {
          "internalType": "uint256[]",
          "name": "",
          "type": "uint256[]"
        },
        {
          "internalType": "uint256[]",
          "name": "",
          "type": "uint256[]"
        },
        {
          "internalType": "uint256[]",
          "name": "",
          "type": "uint256[]"
        },
        {
          "internalType": "uint256[]",
          "name": "",
          "type": "uint256[]"
        },
        {
          "internalType": "string[]",
          "name": "",
          "type": "string[]"
        }
      ],
      "stateMutability": "view",
      "type": "function"
    },
    {
      "inputs": [],
      "name": "isActive",
      "outputs": [
        {
          "internalType": "bool",
          "name": "",
          "type": "bool"
        }
      ],
      "stateMutability": "view",
      "type": "function"
    },
    {
      "inputs": [],
      "name": "name",
      "outputs": [
        {
          "internalType": "string",
          "name": "",
          "type": "string"
        }
      ],
      "stateMutability": "view",
      "type": "function"
    },
    {
      "inputs": [],
      "name": "ownerDeploy",
      "outputs": [
        {
          "internalType": "address",
          "name": "",
          "type": "address"
        }
      ],
      "stateMutability": "view",
      "type": "function"
    },
    {
      "inputs": [
        {
          "internalType": "uint256",
          "name": "_tokenId",
          "type": "uint256"
        }
      ],
      "name": "paySubscription",
      "outputs": [],
      "stateMutability": "payable",
      "type": "function"
    },
    {
      "inputs": [
        {
          "internalType": "uint256",
          "name": "",
          "type": "uint256"
        }
      ],
      "name": "subscriptions",
      "outputs": [
        {
          "internalType": "address",
          "name": "user",
          "type": "address"
        },
        {
          "internalType": "uint256",
          "name": "tokenId",
          "type": "uint256"
        },
        {
          "internalType": "uint256",
          "name": "price",
          "type": "uint256"
        },
        {
          "internalType": "uint256",
          "name": "duration",
          "type": "uint256"
        },
        {
          "internalType": "uint256",
          "name": "startDate",
          "type": "uint256"
        },
        {
          "internalType": "uint256",
          "name": "endDate",
          "type": "uint256"
        },
        {
          "internalType": "enum Service.Status",
          "name": "status",
          "type": "uint8"
        }
      ],
      "stateMutability": "view",
      "type": "function"
    },
    {
      "inputs": [
        {
          "internalType": "string",
          "name": "_newName",
          "type": "string"
        },
        {
          "internalType": "string",
          "name": "_newDescription",
          "type": "string"
        }
      ],
      "name": "updateService",
      "outputs": [],
      "stateMutability": "nonpayable",
      "type": "function"
    }
  ],
  "bytecode": "0x60a06040526001600260006101000a81548160ff02191690831515021790555060006003553480156200003157600080fd5b5060405162003179380380620031798339818101604052810190620000579190620002b0565b8273ffffffffffffffffffffffffffffffffffffffff1660808173ffffffffffffffffffffffffffffffffffffffff168152505081600090816200009c919062000595565b508060019081620000ae919062000595565b505050506200067c565b6000604051905090565b600080fd5b600080fd5b600073ffffffffffffffffffffffffffffffffffffffff82169050919050565b6000620000f982620000cc565b9050919050565b6200010b81620000ec565b81146200011757600080fd5b50565b6000815190506200012b8162000100565b92915050565b600080fd5b600080fd5b6000601f19601f8301169050919050565b7f4e487b7100000000000000000000000000000000000000000000000000000000600052604160045260246000fd5b62000186826200013b565b810181811067ffffffffffffffff82111715620001a857620001a76200014c565b5b80604052505050565b6000620001bd620000b8565b9050620001cb82826200017b565b919050565b600067ffffffffffffffff821115620001ee57620001ed6200014c565b5b620001f9826200013b565b9050602081019050919050565b60005b838110156200022657808201518184015260208101905062000209565b60008484015250505050565b6000620002496200024384620001d0565b620001b1565b90508281526020810184848401111562000268576200026762000136565b5b6200027584828562000206565b509392505050565b600082601f83011262000295576200029462000131565b5b8151620002a784826020860162000232565b91505092915050565b600080600060608486031215620002cc57620002cb620000c2565b5b6000620002dc868287016200011a565b935050602084015167ffffffffffffffff8111156200030057620002ff620000c7565b5b6200030e868287016200027d565b925050604084015167ffffffffffffffff811115620003325762000331620000c7565b5b62000340868287016200027d565b9150509250925092565b600081519050919050565b7f4e487b7100000000000000000000000000000000000000000000000000000000600052602260045260246000fd5b600060028204905060018216806200039d57607f821691505b602082108103620003b357620003b262000355565b5b50919050565b60008190508160005260206000209050919050565b60006020601f8301049050919050565b600082821b905092915050565b6000600883026200041d7fffffffffffffffffffffffffffffffffffffffffffffffffffffffffffffffff82620003de565b620004298683620003de565b95508019841693508086168417925050509392505050565b6000819050919050565b6000819050919050565b600062000476620004706200046a8462000441565b6200044b565b62000441565b9050919050565b6000819050919050565b620004928362000455565b620004aa620004a1826200047d565b848454620003eb565b825550505050565b600090565b620004c1620004b2565b620004ce81848462000487565b505050565b5b81811015620004f657620004ea600082620004b7565b600181019050620004d4565b5050565b601f82111562000545576200050f81620003b9565b6200051a84620003ce565b810160208510156200052a578190505b620005426200053985620003ce565b830182620004d3565b50505b505050565b600082821c905092915050565b60006200056a600019846008026200054a565b1980831691505092915050565b600062000585838362000557565b9150826002028217905092915050565b620005a0826200034a565b67ffffffffffffffff811115620005bc57620005bb6200014c565b5b620005c8825462000384565b620005d5828285620004fa565b600060209050601f8311600181146200060d5760008415620005f8578287015190505b62000604858262000577565b86555062000674565b601f1984166200061d86620003b9565b60005b82811015620006475784890151825560018201915060208501945060208101905062000620565b8683101562000667578489015162000663601f89168262000557565b8355505b6001600288020188555050505b505050505050565b608051612abe620006bb6000396000818161046a0152818161103201528181611321015281816114c8015281816118fa015261191e0152612abe6000f3fe6080604052600436106100c25760003560e01c8063718b57dc1161007f5780638a2405a8116100595780638a2405a8146102465780639bfbdb631461026f578063a4f96c0c1461029a578063c82494a2146102b1576100c2565b8063718b57dc146101d65780637284e416146101ff5780637ac9b0981461022a576100c2565b806306fdde03146100c757806321235083146100f257806322f3e2d41461011b5780632d5bbf60146101465780633399d389146101895780633b47a9ac146101a5575b600080fd5b3480156100d357600080fd5b506100dc6102c8565b6040516100e99190611b6e565b60405180910390f35b3480156100fe57600080fd5b5061011960048036038101906101149190611bda565b610356565b005b34801561012757600080fd5b50610130610568565b60405161013d9190611c22565b60405180910390f35b34801561015257600080fd5b5061016d60048036038101906101689190611bda565b61057b565b6040516101809796959493929190611d04565b60405180910390f35b6101a3600480360381019061019e9190611d9f565b6105ea565b005b3480156101b157600080fd5b506101ba6109d0565b6040516101cd979695949392919061207a565b60405180910390f35b3480156101e257600080fd5b506101fd60048036038101906101f8919061224f565b611030565b005b34801561020b57600080fd5b5061021461117f565b6040516102219190611b6e565b60405180910390f35b610244600480360381019061023f9190611bda565b61120d565b005b34801561025257600080fd5b5061026d60048036038101906102689190611d9f565b6114c6565b005b34801561027b57600080fd5b506102846118f8565b60405161029191906122c7565b60405180910390f35b3480156102a657600080fd5b506102af61191c565b005b3480156102bd57600080fd5b506102c6611a0a565b005b600080546102d590612311565b80601f016020809104026020016040519081016040528092919081815260200182805461030190612311565b801561034e5780601f106103235761010080835404028352916020019161034e565b820191906000526020600020905b81548152906001019060200180831161033157829003601f168201915b505050505081565b80600073ffffffffffffffffffffffffffffffffffffffff166004600083815260200190815260200160002060000160009054906101000a900473ffffffffffffffffffffffffffffffffffffffff1673ffffffffffffffffffffffffffffffffffffffff16036103fc576040517f08c379a00000000000000000000000000000000000000000000000000000000081526004016103f39061238e565b60405180910390fd5b813373ffffffffffffffffffffffffffffffffffffffff166004600083815260200190815260200160002060000160009054906101000a900473ffffffffffffffffffffffffffffffffffffffff1673ffffffffffffffffffffffffffffffffffffffff1614806104b857507f000000000000000000000000000000000000000000000000000000000000000073ffffffffffffffffffffffffffffffffffffffff163373ffffffffffffffffffffffffffffffffffffffff16145b6104f7576040517f08c379a00000000000000000000000000000000000000000000000000000000081526004016104ee90612420565b60405180910390fd5b60036004600085815260200190815260200160002060060160006101000a81548160ff0219169083600381111561053157610530611c8d565b5b0217905550827fbd2bcea75d16a85f005cd83447e0de57341bf926fe7419e6d553663e91ab4da760405160405180910390a2505050565b600260009054906101000a900460ff1681565b60046020528060005260406000206000915090508060000160009054906101000a900473ffffffffffffffffffffffffffffffffffffffff16908060010154908060020154908060030154908060040154908060050154908060060160009054906101000a900460ff16905087565b600260009054906101000a900460ff16610639576040517f08c379a00000000000000000000000000000000000000000000000000000000081526004016106309061248c565b60405180910390fd5b8260005b6003548110156107c5578173ffffffffffffffffffffffffffffffffffffffff166004600083815260200190815260200160002060000160009054906101000a900473ffffffffffffffffffffffffffffffffffffffff1673ffffffffffffffffffffffffffffffffffffffff161480156107725750600160038111156106c7576106c6611c8d565b5b6004600083815260200190815260200160002060060160009054906101000a900460ff1660038111156106fd576106fc611c8d565b5b148061077157506000600381111561071857610717611c8d565b5b6004600083815260200190815260200160002060060160009054906101000a900460ff16600381111561074e5761074d611c8d565b5b1480156107705750600460008281526020019081526020016000206005015442105b5b5b156107b2576040517f08c379a00000000000000000000000000000000000000000000000000000000081526004016107a99061251e565b60405180910390fd5b80806107bd9061256d565b91505061063d565b5060008311610809576040517f08c379a000000000000000000000000000000000000000000000000000000000815260040161080090612601565b60405180910390fd5b82341461084b576040517f08c379a00000000000000000000000000000000000000000000000000000000081526004016108429061266d565b60405180910390fd5b6040518060e001604052808573ffffffffffffffffffffffffffffffffffffffff1681526020016003548152602001848152602001838152602001428152602001620151808461089b919061268d565b426108a691906126cf565b8152602001600160038111156108bf576108be611c8d565b5b81525060046000600354815260200190815260200160002060008201518160000160006101000a81548173ffffffffffffffffffffffffffffffffffffffff021916908373ffffffffffffffffffffffffffffffffffffffff1602179055506020820151816001015560408201518160020155606082015181600301556080820151816004015560a0820151816005015560c08201518160060160006101000a81548160ff0219169083600381111561097b5761097a611c8d565b5b02179055509050506003547ffc92a747fa9c2199bb773d08eb7a76c871b1c9b634b5a1afc3cc4ccc643032e660405160405180910390a2600360008154809291906109c59061256d565b919050555050505050565b6060806060806060806060600060035467ffffffffffffffff8111156109f9576109f8612124565b5b604051908082528060200260200182016040528015610a275781602001602082028036833780820191505090505b509050600060035467ffffffffffffffff811115610a4857610a47612124565b5b604051908082528060200260200182016040528015610a765781602001602082028036833780820191505090505b509050600060035467ffffffffffffffff811115610a9757610a96612124565b5b604051908082528060200260200182016040528015610ac55781602001602082028036833780820191505090505b509050600060035467ffffffffffffffff811115610ae657610ae5612124565b5b604051908082528060200260200182016040528015610b145781602001602082028036833780820191505090505b509050600060035467ffffffffffffffff811115610b3557610b34612124565b5b604051908082528060200260200182016040528015610b635781602001602082028036833780820191505090505b509050600060035467ffffffffffffffff811115610b8457610b83612124565b5b604051908082528060200260200182016040528015610bb25781602001602082028036833780820191505090505b509050600060035467ffffffffffffffff811115610bd357610bd2612124565b5b604051908082528060200260200182016040528015610c0657816020015b6060815260200190600190039081610bf15790505b50905060005b60035481101561100a576004600082815260200190815260200160002060000160009054906101000a900473ffffffffffffffffffffffffffffffffffffffff16888281518110610c6057610c5f612703565b5b602002602001019073ffffffffffffffffffffffffffffffffffffffff16908173ffffffffffffffffffffffffffffffffffffffff16815250506004600082815260200190815260200160002060010154878281518110610cc457610cc3612703565b5b6020026020010181815250506004600082815260200190815260200160002060020154868281518110610cfa57610cf9612703565b5b6020026020010181815250506004600082815260200190815260200160002060030154858281518110610d3057610d2f612703565b5b6020026020010181815250506004600082815260200190815260200160002060040154848281518110610d6657610d65612703565b5b6020026020010181815250506004600082815260200190815260200160002060050154838281518110610d9c57610d9b612703565b5b60200260200101818152505060006003811115610dbc57610dbb611c8d565b5b6004600083815260200190815260200160002060060160009054906101000a900460ff166003811115610df257610df1611c8d565b5b03610e50576040518060400160405280600381526020017f4e65770000000000000000000000000000000000000000000000000000000000815250828281518110610e4057610e3f612703565b5b6020026020010181905250610ff7565b60016003811115610e6457610e63611c8d565b5b6004600083815260200190815260200160002060060160009054906101000a900460ff166003811115610e9a57610e99611c8d565b5b03610ef8576040518060400160405280600781526020017f4f6e676f696e6700000000000000000000000000000000000000000000000000815250828281518110610ee857610ee7612703565b5b6020026020010181905250610ff6565b60026003811115610f0c57610f0b611c8d565b5b6004600083815260200190815260200160002060060160009054906101000a900460ff166003811115610f4257610f41611c8d565b5b03610fa0576040518060400160405280600781526020017f4578706972656400000000000000000000000000000000000000000000000000815250828281518110610f9057610f8f612703565b5b6020026020010181905250610ff5565b6040518060400160405280600981526020017f43616e63656c6c65640000000000000000000000000000000000000000000000815250828281518110610fe957610fe8612703565b5b60200260200101819052505b5b5b80806110029061256d565b915050610c0c565b50868686868686869d509d509d509d509d509d509d505050505050505090919293949596565b7f000000000000000000000000000000000000000000000000000000000000000073ffffffffffffffffffffffffffffffffffffffff163373ffffffffffffffffffffffffffffffffffffffff16146110be576040517f08c379a00000000000000000000000000000000000000000000000000000000081526004016110b59061277e565b60405180910390fd5b600260009054906101000a900460ff1661110d576040517f08c379a00000000000000000000000000000000000000000000000000000000081526004016111049061248c565b60405180910390fd5b816000908161111c919061294a565b50806001908161112c919061294a565b503073ffffffffffffffffffffffffffffffffffffffff167f4753ea05804b68917fe65e38a8d48a1c098336025a4e9f9bb64e37afe7268008836040516111739190611b6e565b60405180910390a25050565b6001805461118c90612311565b80601f01602080910402602001604051908101604052809291908181526020018280546111b890612311565b80156112055780601f106111da57610100808354040283529160200191611205565b820191906000526020600020905b8154815290600101906020018083116111e857829003601f168201915b505050505081565b80600073ffffffffffffffffffffffffffffffffffffffff166004600083815260200190815260200160002060000160009054906101000a900473ffffffffffffffffffffffffffffffffffffffff1673ffffffffffffffffffffffffffffffffffffffff16036112b3576040517f08c379a00000000000000000000000000000000000000000000000000000000081526004016112aa9061238e565b60405180910390fd5b813373ffffffffffffffffffffffffffffffffffffffff166004600083815260200190815260200160002060000160009054906101000a900473ffffffffffffffffffffffffffffffffffffffff1673ffffffffffffffffffffffffffffffffffffffff16148061136f57507f000000000000000000000000000000000000000000000000000000000000000073ffffffffffffffffffffffffffffffffffffffff163373ffffffffffffffffffffffffffffffffffffffff16145b6113ae576040517f08c379a00000000000000000000000000000000000000000000000000000000081526004016113a590612420565b60405180910390fd5b600260009054906101000a900460ff166113fd576040517f08c379a00000000000000000000000000000000000000000000000000000000081526004016113f49061248c565b60405180910390fd5b60046000848152602001908152602001600020600201543414611455576040517f08c379a000000000000000000000000000000000000000000000000000000000815260040161144c90612a68565b60405180910390fd5b60016004600085815260200190815260200160002060060160006101000a81548160ff0219169083600381111561148f5761148e611c8d565b5b0217905550827f9040c259954b48f5dfdf60ea91e742403e7552202de9925d509fdd8187b2130b60405160405180910390a2505050565b7f000000000000000000000000000000000000000000000000000000000000000073ffffffffffffffffffffffffffffffffffffffff163373ffffffffffffffffffffffffffffffffffffffff1614611554576040517f08c379a000000000000000000000000000000000000000000000000000000000815260040161154b9061277e565b60405180910390fd5b600260009054906101000a900460ff166115a3576040517f08c379a000000000000000000000000000000000000000000000000000000000815260040161159a9061248c565b60405180910390fd5b8260005b60035481101561172f578173ffffffffffffffffffffffffffffffffffffffff166004600083815260200190815260200160002060000160009054906101000a900473ffffffffffffffffffffffffffffffffffffffff1673ffffffffffffffffffffffffffffffffffffffff161480156116dc57506001600381111561163157611630611c8d565b5b6004600083815260200190815260200160002060060160009054906101000a900460ff16600381111561166757611666611c8d565b5b14806116db57506000600381111561168257611681611c8d565b5b6004600083815260200190815260200160002060060160009054906101000a900460ff1660038111156116b8576116b7611c8d565b5b1480156116da5750600460008281526020019081526020016000206005015442105b5b5b1561171c576040517f08c379a00000000000000000000000000000000000000000000000000000000081526004016117139061251e565b60405180910390fd5b80806117279061256d565b9150506115a7565b5060008311611773576040517f08c379a000000000000000000000000000000000000000000000000000000000815260040161176a90612601565b60405180910390fd5b6040518060e001604052808573ffffffffffffffffffffffffffffffffffffffff168152602001600354815260200184815260200183815260200142815260200162015180846117c3919061268d565b426117ce91906126cf565b8152602001600060038111156117e7576117e6611c8d565b5b81525060046000600354815260200190815260200160002060008201518160000160006101000a81548173ffffffffffffffffffffffffffffffffffffffff021916908373ffffffffffffffffffffffffffffffffffffffff1602179055506020820151816001015560408201518160020155606082015181600301556080820151816004015560a0820151816005015560c08201518160060160006101000a81548160ff021916908360038111156118a3576118a2611c8d565b5b02179055509050506003547f6a2b70dde6ae0193f84b6a9eeb3b0ebdc3a35e99d9167b88c570158dd09cb0f760405160405180910390a2600360008154809291906118ed9061256d565b919050555050505050565b7f000000000000000000000000000000000000000000000000000000000000000081565b7f000000000000000000000000000000000000000000000000000000000000000073ffffffffffffffffffffffffffffffffffffffff163373ffffffffffffffffffffffffffffffffffffffff16146119aa576040517f08c379a00000000000000000000000000000000000000000000000000000000081526004016119a19061277e565b60405180910390fd5b6000600260006101000a81548160ff0219169083151502179055503073ffffffffffffffffffffffffffffffffffffffff167f86d6aa2827e28270c1635780e8a17d61c38028e75531a0a25c5004862521289d60405160405180910390a2565b60005b600354811015611adb5760016003811115611a2b57611a2a611c8d565b5b6004600083815260200190815260200160002060060160009054906101000a900460ff166003811115611a6157611a60611c8d565b5b148015611a835750600460008281526020019081526020016000206005015442115b15611ac85760026004600083815260200190815260200160002060060160006101000a81548160ff02191690836003811115611ac257611ac1611c8d565b5b02179055505b8080611ad39061256d565b915050611a0d565b50565b600081519050919050565b600082825260208201905092915050565b60005b83811015611b18578082015181840152602081019050611afd565b60008484015250505050565b6000601f19601f8301169050919050565b6000611b4082611ade565b611b4a8185611ae9565b9350611b5a818560208601611afa565b611b6381611b24565b840191505092915050565b60006020820190508181036000830152611b888184611b35565b905092915050565b6000604051905090565b600080fd5b600080fd5b6000819050919050565b611bb781611ba4565b8114611bc257600080fd5b50565b600081359050611bd481611bae565b92915050565b600060208284031215611bf057611bef611b9a565b5b6000611bfe84828501611bc5565b91505092915050565b60008115159050919050565b611c1c81611c07565b82525050565b6000602082019050611c376000830184611c13565b92915050565b600073ffffffffffffffffffffffffffffffffffffffff82169050919050565b6000611c6882611c3d565b9050919050565b611c7881611c5d565b82525050565b611c8781611ba4565b82525050565b7f4e487b7100000000000000000000000000000000000000000000000000000000600052602160045260246000fd5b60048110611ccd57611ccc611c8d565b5b50565b6000819050611cde82611cbc565b919050565b6000611cee82611cd0565b9050919050565b611cfe81611ce3565b82525050565b600060e082019050611d19600083018a611c6f565b611d266020830189611c7e565b611d336040830188611c7e565b611d406060830187611c7e565b611d4d6080830186611c7e565b611d5a60a0830185611c7e565b611d6760c0830184611cf5565b98975050505050505050565b611d7c81611c5d565b8114611d8757600080fd5b50565b600081359050611d9981611d73565b92915050565b600080600060608486031215611db857611db7611b9a565b5b6000611dc686828701611d8a565b9350506020611dd786828701611bc5565b9250506040611de886828701611bc5565b9150509250925092565b600081519050919050565b600082825260208201905092915050565b6000819050602082019050919050565b611e2781611c5d565b82525050565b6000611e398383611e1e565b60208301905092915050565b6000602082019050919050565b6000611e5d82611df2565b611e678185611dfd565b9350611e7283611e0e565b8060005b83811015611ea3578151611e8a8882611e2d565b9750611e9583611e45565b925050600181019050611e76565b5085935050505092915050565b600081519050919050565b600082825260208201905092915050565b6000819050602082019050919050565b611ee581611ba4565b82525050565b6000611ef78383611edc565b60208301905092915050565b6000602082019050919050565b6000611f1b82611eb0565b611f258185611ebb565b9350611f3083611ecc565b8060005b83811015611f61578151611f488882611eeb565b9750611f5383611f03565b925050600181019050611f34565b5085935050505092915050565b600081519050919050565b600082825260208201905092915050565b6000819050602082019050919050565b600082825260208201905092915050565b6000611fb682611ade565b611fc08185611f9a565b9350611fd0818560208601611afa565b611fd981611b24565b840191505092915050565b6000611ff08383611fab565b905092915050565b6000602082019050919050565b600061201082611f6e565b61201a8185611f79565b93508360208202850161202c85611f8a565b8060005b8581101561206857848403895281516120498582611fe4565b945061205483611ff8565b925060208a01995050600181019050612030565b50829750879550505050505092915050565b600060e0820190508181036000830152612094818a611e52565b905081810360208301526120a88189611f10565b905081810360408301526120bc8188611f10565b905081810360608301526120d08187611f10565b905081810360808301526120e48186611f10565b905081810360a08301526120f88185611f10565b905081810360c083015261210c8184612005565b905098975050505050505050565b600080fd5b600080fd5b7f4e487b7100000000000000000000000000000000000000000000000000000000600052604160045260246000fd5b61215c82611b24565b810181811067ffffffffffffffff8211171561217b5761217a612124565b5b80604052505050565b600061218e611b90565b905061219a8282612153565b919050565b600067ffffffffffffffff8211156121ba576121b9612124565b5b6121c382611b24565b9050602081019050919050565b82818337600083830152505050565b60006121f26121ed8461219f565b612184565b90508281526020810184848401111561220e5761220d61211f565b5b6122198482856121d0565b509392505050565b600082601f8301126122365761223561211a565b5b81356122468482602086016121df565b91505092915050565b6000806040838503121561226657612265611b9a565b5b600083013567ffffffffffffffff81111561228457612283611b9f565b5b61229085828601612221565b925050602083013567ffffffffffffffff8111156122b1576122b0611b9f565b5b6122bd85828601612221565b9150509250929050565b60006020820190506122dc6000830184611c6f565b92915050565b7f4e487b7100000000000000000000000000000000000000000000000000000000600052602260045260246000fd5b6000600282049050600182168061232957607f821691505b60208210810361233c5761233b6122e2565b5b50919050565b7f537562736372697074696f6e20646f6573206e6f742065786973740000000000600082015250565b6000612378601b83611ae9565b915061238382612342565b602082019050919050565b600060208201905081810360008301526123a78161236b565b9050919050565b7f43616c6c6572206973206e6f74207468652073756273637269626572206f722060008201527f6f776e6572000000000000000000000000000000000000000000000000000000602082015250565b600061240a602583611ae9565b9150612415826123ae565b604082019050919050565b60006020820190508181036000830152612439816123fd565b9050919050565b7f53657276696365206973206e6f74206163746976650000000000000000000000600082015250565b6000612476601583611ae9565b915061248182612440565b602082019050919050565b600060208201905081810360008301526124a581612469565b9050919050565b7f5375627363726962657220616c72656164792068617320616e2061637469766560008201527f20737562736372697074696f6e00000000000000000000000000000000000000602082015250565b6000612508602d83611ae9565b9150612513826124ac565b604082019050919050565b60006020820190508181036000830152612537816124fb565b9050919050565b7f4e487b7100000000000000000000000000000000000000000000000000000000600052601160045260246000fd5b600061257882611ba4565b91507fffffffffffffffffffffffffffffffffffffffffffffffffffffffffffffffff82036125aa576125a961253e565b5b600182019050919050565b7f5072696365206d7573742062652067726561746572207468616e207a65726f00600082015250565b60006125eb601f83611ae9565b91506125f6826125b5565b602082019050919050565b6000602082019050818103600083015261261a816125de565b9050919050565b7f496e636f7272656374207061796d656e7420616d6f756e740000000000000000600082015250565b6000612657601883611ae9565b915061266282612621565b602082019050919050565b600060208201905081810360008301526126868161264a565b9050919050565b600061269882611ba4565b91506126a383611ba4565b92508282026126b181611ba4565b915082820484148315176126c8576126c761253e565b5b5092915050565b60006126da82611ba4565b91506126e583611ba4565b92508282019050808211156126fd576126fc61253e565b5b92915050565b7f4e487b7100000000000000000000000000000000000000000000000000000000600052603260045260246000fd5b7f4f6e6c79206f776e657220697320616c6c6f7765640000000000000000000000600082015250565b6000612768601583611ae9565b915061277382612732565b602082019050919050565b600060208201905081810360008301526127978161275b565b9050919050565b60008190508160005260206000209050919050565b60006020601f8301049050919050565b600082821b905092915050565b6000600883026128007fffffffffffffffffffffffffffffffffffffffffffffffffffffffffffffffff826127c3565b61280a86836127c3565b95508019841693508086168417925050509392505050565b6000819050919050565b600061284761284261283d84611ba4565b612822565b611ba4565b9050919050565b6000819050919050565b6128618361282c565b61287561286d8261284e565b8484546127d0565b825550505050565b600090565b61288a61287d565b612895818484612858565b505050565b5b818110156128b9576128ae600082612882565b60018101905061289b565b5050565b601f8211156128fe576128cf8161279e565b6128d8846127b3565b810160208510156128e7578190505b6128fb6128f3856127b3565b83018261289a565b50505b505050565b600082821c905092915050565b600061292160001984600802612903565b1980831691505092915050565b600061293a8383612910565b9150826002028217905092915050565b61295382611ade565b67ffffffffffffffff81111561296c5761296b612124565b5b6129768254612311565b6129818282856128bd565b600060209050601f8311600181146129b457600084156129a2578287015190505b6129ac858261292e565b865550612a14565b601f1984166129c28661279e565b60005b828110156129ea578489015182556001820191506020850194506020810190506129c5565b86831015612a075784890151612a03601f891682612910565b8355505b6001600288020188555050505b505050505050565b7f496e76616c6964207061796d656e7420616d6f756e7400000000000000000000600082015250565b6000612a52601683611ae9565b9150612a5d82612a1c565b602082019050919050565b60006020820190508181036000830152612a8181612a45565b905091905056fea26469706673582212205c07156533901673394310be806790f3bd00912b4d77fdee72662bd465e739a764736f6c63430008140033",
  "linkReferences": {},
  "deployedLinkReferences": {}
}