{
  "_format": "hh-sol-artifact-1",
  "contractName": "Service",
  "sourceName": "contracts/Service.sol",
  "abi": [
    {
      "inputs": [
        {
          "internalType": "address",
          "name": "_deployeraddress",
          "type": "address"
        },
        {
          "internalType": "string",
          "name": "_name",
          "type": "string"
        },
        {
          "internalType": "string",
          "name": "_description",
          "type": "string"
        }
      ],
      "stateMutability": "nonpayable",
      "type": "constructor"
    },
    {
      "anonymous": false,
      "inputs": [
        {
          "indexed": false,
          "internalType": "address",
          "name": "serviceAddress",
          "type": "address"
        }
      ],
      "name": "ServiceDeactivated",
      "type": "event"
    },
    {
      "anonymous": false,
      "inputs": [
        {
          "indexed": false,
          "internalType": "address",
          "name": "serviceAddress",
          "type": "address"
        },
        {
          "indexed": false,
          "internalType": "string",
          "name": "name",
          "type": "string"
        }
      ],
      "name": "ServiceUpdated",
      "type": "event"
    },
    {
      "anonymous": false,
      "inputs": [
        {
          "indexed": true,
          "internalType": "uint256",
          "name": "tokenId",
          "type": "uint256"
        }
      ],
      "name": "SubscriptionCancelled",
      "type": "event"
    },
    {
      "anonymous": false,
      "inputs": [
        {
          "indexed": true,
          "internalType": "uint256",
          "name": "tokenId",
          "type": "uint256"
        }
      ],
      "name": "SubscriptionCreated",
      "type": "event"
    },
    {
      "anonymous": false,
      "inputs": [
        {
          "indexed": true,
          "internalType": "uint256",
          "name": "tokenId",
          "type": "uint256"
        }
      ],
      "name": "SubscriptionPaid",
      "type": "event"
    },
    {
      "inputs": [
        {
          "internalType": "address",
          "name": "_user",
          "type": "address"
        },
        {
          "internalType": "uint256",
          "name": "_price",
          "type": "uint256"
        },
        {
          "internalType": "uint256",
          "name": "_duration",
          "type": "uint256"
        }
      ],
      "name": "buySubscription",
      "outputs": [],
      "stateMutability": "payable",
      "type": "function"
    },
    {
      "inputs": [
        {
          "internalType": "uint256",
          "name": "_tokenId",
          "type": "uint256"
        }
      ],
      "name": "cancelSubscription",
      "outputs": [],
      "stateMutability": "nonpayable",
      "type": "function"
    },
    {
      "inputs": [
        {
          "internalType": "address",
          "name": "_user",
          "type": "address"
        },
        {
          "internalType": "uint256",
          "name": "_price",
          "type": "uint256"
        },
        {
          "internalType": "uint256",
          "name": "_duration",
          "type": "uint256"
        }
      ],
      "name": "createSubscription",
      "outputs": [],
      "stateMutability": "nonpayable",
      "type": "function"
    },
    {
      "inputs": [],
      "name": "deactivateService",
      "outputs": [],
      "stateMutability": "nonpayable",
      "type": "function"
    },
    {
      "inputs": [],
      "name": "description",
      "outputs": [
        {
          "internalType": "string",
          "name": "",
          "type": "string"
        }
      ],
      "stateMutability": "view",
      "type": "function"
    },
    {
      "inputs": [],
      "name": "getDescription",
      "outputs": [
        {
          "internalType": "string",
          "name": "",
          "type": "string"
        }
      ],
      "stateMutability": "view",
      "type": "function"
    },
    {
      "inputs": [],
      "name": "getIsActive",
      "outputs": [
        {
          "internalType": "bool",
          "name": "",
          "type": "bool"
        }
      ],
      "stateMutability": "view",
      "type": "function"
    },
    {
      "inputs": [],
      "name": "getName",
      "outputs": [
        {
          "internalType": "string",
          "name": "",
          "type": "string"
        }
      ],
      "stateMutability": "view",
      "type": "function"
    },
    {
      "inputs": [],
      "name": "getOwner",
      "outputs": [
        {
          "internalType": "address",
          "name": "",
          "type": "address"
        }
      ],
      "stateMutability": "view",
      "type": "function"
    },
    {
      "inputs": [],
      "name": "getSubscriptions",
      "outputs": [
        {
          "internalType": "address[]",
          "name": "",
          "type": "address[]"
        },
        {
          "internalType": "uint256[]",
          "name": "",
          "type": "uint256[]"
        },
        {
          "internalType": "uint256[]",
          "name": "",
          "type": "uint256[]"
        },
        {
          "internalType": "uint256[]",
          "name": "",
          "type": "uint256[]"
        },
        {
          "internalType": "uint256[]",
          "name": "",
          "type": "uint256[]"
        },
        {
          "internalType": "uint256[]",
          "name": "",
          "type": "uint256[]"
        }
      ],
      "stateMutability": "view",
      "type": "function"
    },
    {
      "inputs": [],
      "name": "isActive",
      "outputs": [
        {
          "internalType": "bool",
          "name": "",
          "type": "bool"
        }
      ],
      "stateMutability": "view",
      "type": "function"
    },
    {
      "inputs": [],
      "name": "name",
      "outputs": [
        {
          "internalType": "string",
          "name": "",
          "type": "string"
        }
      ],
      "stateMutability": "view",
      "type": "function"
    },
    {
      "inputs": [
        {
          "internalType": "uint256",
          "name": "_tokenId",
          "type": "uint256"
        }
      ],
      "name": "paySubscription",
      "outputs": [],
      "stateMutability": "payable",
      "type": "function"
    },
    {
      "inputs": [
        {
          "internalType": "string",
          "name": "_description",
          "type": "string"
        }
      ],
      "name": "setDescription",
      "outputs": [],
      "stateMutability": "nonpayable",
      "type": "function"
    },
    {
      "inputs": [
        {
          "internalType": "bool",
          "name": "_isActive",
          "type": "bool"
        }
      ],
      "name": "setIsActive",
      "outputs": [],
      "stateMutability": "nonpayable",
      "type": "function"
    },
    {
      "inputs": [
        {
          "internalType": "string",
          "name": "_name",
          "type": "string"
        }
      ],
      "name": "setName",
      "outputs": [],
      "stateMutability": "nonpayable",
      "type": "function"
    },
    {
      "inputs": [
        {
          "internalType": "string",
          "name": "_newname",
          "type": "string"
        },
        {
          "internalType": "string",
          "name": "_newdescription",
          "type": "string"
        }
      ],
      "name": "updateService",
      "outputs": [],
      "stateMutability": "nonpayable",
      "type": "function"
    }
  ],
  "bytecode": "0x60a06040526001600260006101000a81548160ff02191690831515021790555060006003553480156200003157600080fd5b5060405162002f5238038062002f528339818101604052810190620000579190620002b0565b8273ffffffffffffffffffffffffffffffffffffffff1660808173ffffffffffffffffffffffffffffffffffffffff168152505081600090816200009c919062000595565b508060019081620000ae919062000595565b505050506200067c565b6000604051905090565b600080fd5b600080fd5b600073ffffffffffffffffffffffffffffffffffffffff82169050919050565b6000620000f982620000cc565b9050919050565b6200010b81620000ec565b81146200011757600080fd5b50565b6000815190506200012b8162000100565b92915050565b600080fd5b600080fd5b6000601f19601f8301169050919050565b7f4e487b7100000000000000000000000000000000000000000000000000000000600052604160045260246000fd5b62000186826200013b565b810181811067ffffffffffffffff82111715620001a857620001a76200014c565b5b80604052505050565b6000620001bd620000b8565b9050620001cb82826200017b565b919050565b600067ffffffffffffffff821115620001ee57620001ed6200014c565b5b620001f9826200013b565b9050602081019050919050565b60005b838110156200022657808201518184015260208101905062000209565b60008484015250505050565b6000620002496200024384620001d0565b620001b1565b90508281526020810184848401111562000268576200026762000136565b5b6200027584828562000206565b509392505050565b600082601f83011262000295576200029462000131565b5b8151620002a784826020860162000232565b91505092915050565b600080600060608486031215620002cc57620002cb620000c2565b5b6000620002dc868287016200011a565b935050602084015167ffffffffffffffff8111156200030057620002ff620000c7565b5b6200030e868287016200027d565b925050604084015167ffffffffffffffff811115620003325762000331620000c7565b5b62000340868287016200027d565b9150509250925092565b600081519050919050565b7f4e487b7100000000000000000000000000000000000000000000000000000000600052602260045260246000fd5b600060028204905060018216806200039d57607f821691505b602082108103620003b357620003b262000355565b5b50919050565b60008190508160005260206000209050919050565b60006020601f8301049050919050565b600082821b905092915050565b6000600883026200041d7fffffffffffffffffffffffffffffffffffffffffffffffffffffffffffffffff82620003de565b620004298683620003de565b95508019841693508086168417925050509392505050565b6000819050919050565b6000819050919050565b600062000476620004706200046a8462000441565b6200044b565b62000441565b9050919050565b6000819050919050565b620004928362000455565b620004aa620004a1826200047d565b848454620003eb565b825550505050565b600090565b620004c1620004b2565b620004ce81848462000487565b505050565b5b81811015620004f657620004ea600082620004b7565b600181019050620004d4565b5050565b601f82111562000545576200050f81620003b9565b6200051a84620003ce565b810160208510156200052a578190505b620005426200053985620003ce565b830182620004d3565b50505b505050565b600082821c905092915050565b60006200056a600019846008026200054a565b1980831691505092915050565b600062000585838362000557565b9150826002028217905092915050565b620005a0826200034a565b67ffffffffffffffff811115620005bc57620005bb6200014c565b5b620005c8825462000384565b620005d5828285620004fa565b600060209050601f8311600181146200060d5760008415620005f8578287015190505b62000604858262000577565b86555062000674565b601f1984166200061d86620003b9565b60005b82811015620006475784890151825560018201915060208501945060208101905062000620565b8683101562000667578489015162000663601f89168262000557565b8355505b6001600288020188555050505b505050505050565b608051612889620006c96000396000818161066b015281816107b601528181610f2b01528181611206015281816113fb015281816116d5015281816117c501526118f601526128896000f3fe6080604052600436106100fe5760003560e01c8063718b57dc116100955780638a2405a8116100645780638a2405a8146102e857806390c3f38f14610311578063a4f96c0c1461033a578063c47f002714610351578063fba7cc791461037a576100fe565b8063718b57dc1461024d5780637284e416146102765780637ac9b098146102a1578063893d20e8146102bd576100fe565b806322f3e2d4116100d157806322f3e2d4146101ad5780632750fc78146101d85780633399d389146102015780633b47a9ac1461021d576100fe565b806306fdde031461010357806317d7de7c1461012e5780631a092541146101595780632123508314610184575b600080fd5b34801561010f57600080fd5b506101186103a5565b6040516101259190611a8b565b60405180910390f35b34801561013a57600080fd5b50610143610433565b6040516101509190611a8b565b60405180910390f35b34801561016557600080fd5b5061016e6104c5565b60405161017b9190611a8b565b60405180910390f35b34801561019057600080fd5b506101ab60048036038101906101a69190611af7565b610557565b005b3480156101b957600080fd5b506101c26107a1565b6040516101cf9190611b3f565b60405180910390f35b3480156101e457600080fd5b506101ff60048036038101906101fa9190611b86565b6107b4565b005b61021b60048036038101906102169190611c11565b61085f565b005b34801561022957600080fd5b50610232610b73565b60405161024496959493929190611de0565b60405180910390f35b34801561025957600080fd5b50610274600480360381019061026f9190611fa0565b610f29565b005b34801561028257600080fd5b5061028b611064565b6040516102989190611a8b565b60405180910390f35b6102bb60048036038101906102b69190611af7565b6110f2565b005b3480156102c957600080fd5b506102d26113f7565b6040516102df9190612027565b60405180910390f35b3480156102f457600080fd5b5061030f600480360381019061030a9190611c11565b61141f565b005b34801561031d57600080fd5b5061033860048036038101906103339190612042565b6116d3565b005b34801561034657600080fd5b5061034f6117c3565b005b34801561035d57600080fd5b5061037860048036038101906103739190612042565b6118f4565b005b34801561038657600080fd5b5061038f6119e4565b60405161039c9190611b3f565b60405180910390f35b600080546103b2906120ba565b80601f01602080910402602001604051908101604052809291908181526020018280546103de906120ba565b801561042b5780601f106104005761010080835404028352916020019161042b565b820191906000526020600020905b81548152906001019060200180831161040e57829003601f168201915b505050505081565b606060008054610442906120ba565b80601f016020809104026020016040519081016040528092919081815260200182805461046e906120ba565b80156104bb5780601f10610490576101008083540402835291602001916104bb565b820191906000526020600020905b81548152906001019060200180831161049e57829003601f168201915b5050505050905090565b6060600180546104d4906120ba565b80601f0160208091040260200160405190810160405280929190818152602001828054610500906120ba565b801561054d5780601f106105225761010080835404028352916020019161054d565b820191906000526020600020905b81548152906001019060200180831161053057829003601f168201915b5050505050905090565b80600073ffffffffffffffffffffffffffffffffffffffff166004600083815260200190815260200160002060000160009054906101000a900473ffffffffffffffffffffffffffffffffffffffff1673ffffffffffffffffffffffffffffffffffffffff16036105fd576040517f08c379a00000000000000000000000000000000000000000000000000000000081526004016105f490612137565b60405180910390fd5b813373ffffffffffffffffffffffffffffffffffffffff166004600083815260200190815260200160002060000160009054906101000a900473ffffffffffffffffffffffffffffffffffffffff1673ffffffffffffffffffffffffffffffffffffffff1614806106b957507f000000000000000000000000000000000000000000000000000000000000000073ffffffffffffffffffffffffffffffffffffffff163373ffffffffffffffffffffffffffffffffffffffff16145b6106f8576040517f08c379a00000000000000000000000000000000000000000000000000000000081526004016106ef906121a3565b60405180910390fd5b600260009054906101000a900460ff16610747576040517f08c379a000000000000000000000000000000000000000000000000000000000815260040161073e9061220f565b60405180910390fd5b6103e842610755919061225e565b6004600085815260200190815260200160002060050181905550827fbd2bcea75d16a85f005cd83447e0de57341bf926fe7419e6d553663e91ab4da760405160405180910390a2505050565b600260009054906101000a900460ff1681565b7f000000000000000000000000000000000000000000000000000000000000000073ffffffffffffffffffffffffffffffffffffffff163373ffffffffffffffffffffffffffffffffffffffff1614610842576040517f08c379a0000000000000000000000000000000000000000000000000000000008152600401610839906122ec565b60405180910390fd5b80600260006101000a81548160ff02191690831515021790555050565b8260005b600354811015610953578173ffffffffffffffffffffffffffffffffffffffff166004600083815260200190815260200160002060000160009054906101000a900473ffffffffffffffffffffffffffffffffffffffff1673ffffffffffffffffffffffffffffffffffffffff16148015610900575060046000828152602001908152602001600020600501546103e8426108fe919061225e565b105b15610940576040517f08c379a00000000000000000000000000000000000000000000000000000000081526004016109379061237e565b60405180910390fd5b808061094b9061239e565b915050610863565b508260008111610998576040517f08c379a000000000000000000000000000000000000000000000000000000000815260040161098f90612432565b60405180910390fd5b600260009054906101000a900460ff166109e7576040517f08c379a00000000000000000000000000000000000000000000000000000000081526004016109de9061220f565b60405180910390fd5b60006040518060c001604052808773ffffffffffffffffffffffffffffffffffffffff16815260200160035481526020018681526020018581526020016103e842610a32919061225e565b81526020016103e86201518087610a49919061225e565b42610a549190612452565b610a5e919061225e565b81525090508060046000600354815260200190815260200160002060008201518160000160006101000a81548173ffffffffffffffffffffffffffffffffffffffff021916908373ffffffffffffffffffffffffffffffffffffffff1602179055506020820151816001015560408201518160020155606082015181600301556080820151816004015560a082015181600501559050506003547f6a2b70dde6ae0193f84b6a9eeb3b0ebdc3a35e99d9167b88c570158dd09cb0f760405160405180910390a26003547f9040c259954b48f5dfdf60ea91e742403e7552202de9925d509fdd8187b2130b60405160405180910390a260036000815480929190610b669061239e565b9190505550505050505050565b606080606080606080600060035467ffffffffffffffff811115610b9a57610b99611e75565b5b604051908082528060200260200182016040528015610bc85781602001602082028036833780820191505090505b509050600060035467ffffffffffffffff811115610be957610be8611e75565b5b604051908082528060200260200182016040528015610c175781602001602082028036833780820191505090505b509050600060035467ffffffffffffffff811115610c3857610c37611e75565b5b604051908082528060200260200182016040528015610c665781602001602082028036833780820191505090505b509050600060035467ffffffffffffffff811115610c8757610c86611e75565b5b604051908082528060200260200182016040528015610cb55781602001602082028036833780820191505090505b509050600060035467ffffffffffffffff811115610cd657610cd5611e75565b5b604051908082528060200260200182016040528015610d045781602001602082028036833780820191505090505b509050600060035467ffffffffffffffff811115610d2557610d24611e75565b5b604051908082528060200260200182016040528015610d535781602001602082028036833780820191505090505b50905060005b600354811015610f08576004600082815260200190815260200160002060000160009054906101000a900473ffffffffffffffffffffffffffffffffffffffff16878281518110610dad57610dac612486565b5b602002602001019073ffffffffffffffffffffffffffffffffffffffff16908173ffffffffffffffffffffffffffffffffffffffff16815250506004600082815260200190815260200160002060010154868281518110610e1157610e10612486565b5b6020026020010181815250506004600082815260200190815260200160002060020154858281518110610e4757610e46612486565b5b6020026020010181815250506004600082815260200190815260200160002060030154848281518110610e7d57610e7c612486565b5b6020026020010181815250506004600082815260200190815260200160002060040154838281518110610eb357610eb2612486565b5b6020026020010181815250506004600082815260200190815260200160002060050154828281518110610ee957610ee8612486565b5b6020026020010181815250508080610f009061239e565b915050610d59565b508585858585859b509b509b509b509b509b50505050505050909192939495565b7f000000000000000000000000000000000000000000000000000000000000000073ffffffffffffffffffffffffffffffffffffffff163373ffffffffffffffffffffffffffffffffffffffff1614610fb7576040517f08c379a0000000000000000000000000000000000000000000000000000000008152600401610fae906122ec565b60405180910390fd5b600260009054906101000a900460ff16611006576040517f08c379a0000000000000000000000000000000000000000000000000000000008152600401610ffd9061220f565b60405180910390fd5b81600090816110159190612661565b5080600190816110259190612661565b507f4753ea05804b68917fe65e38a8d48a1c098336025a4e9f9bb64e37afe72680083060006040516110589291906127b7565b60405180910390a15050565b60018054611071906120ba565b80601f016020809104026020016040519081016040528092919081815260200182805461109d906120ba565b80156110ea5780601f106110bf576101008083540402835291602001916110ea565b820191906000526020600020905b8154815290600101906020018083116110cd57829003601f168201915b505050505081565b80600073ffffffffffffffffffffffffffffffffffffffff166004600083815260200190815260200160002060000160009054906101000a900473ffffffffffffffffffffffffffffffffffffffff1673ffffffffffffffffffffffffffffffffffffffff1603611198576040517f08c379a000000000000000000000000000000000000000000000000000000000815260040161118f90612137565b60405180910390fd5b813373ffffffffffffffffffffffffffffffffffffffff166004600083815260200190815260200160002060000160009054906101000a900473ffffffffffffffffffffffffffffffffffffffff1673ffffffffffffffffffffffffffffffffffffffff16148061125457507f000000000000000000000000000000000000000000000000000000000000000073ffffffffffffffffffffffffffffffffffffffff163373ffffffffffffffffffffffffffffffffffffffff16145b611293576040517f08c379a000000000000000000000000000000000000000000000000000000000815260040161128a906121a3565b60405180910390fd5b600260009054906101000a900460ff166112e2576040517f08c379a00000000000000000000000000000000000000000000000000000000081526004016112d99061220f565b60405180910390fd5b6000349050600060046000868152602001908152602001600020600201549050808214611344576040517f08c379a000000000000000000000000000000000000000000000000000000000815260040161133b90612833565b60405180910390fd5b6103e842611352919061225e565b60046000878152602001908152602001600020600401819055506103e8620151806004600088815260200190815260200160002060030154611394919061225e565b4261139f9190612452565b6113a9919061225e565b6004600087815260200190815260200160002060050181905550847f9040c259954b48f5dfdf60ea91e742403e7552202de9925d509fdd8187b2130b60405160405180910390a25050505050565b60007f0000000000000000000000000000000000000000000000000000000000000000905090565b8260005b600354811015611513578173ffffffffffffffffffffffffffffffffffffffff166004600083815260200190815260200160002060000160009054906101000a900473ffffffffffffffffffffffffffffffffffffffff1673ffffffffffffffffffffffffffffffffffffffff161480156114c0575060046000828152602001908152602001600020600501546103e8426114be919061225e565b105b15611500576040517f08c379a00000000000000000000000000000000000000000000000000000000081526004016114f79061237e565b60405180910390fd5b808061150b9061239e565b915050611423565b508260008111611558576040517f08c379a000000000000000000000000000000000000000000000000000000000815260040161154f90612432565b60405180910390fd5b600260009054906101000a900460ff166115a7576040517f08c379a000000000000000000000000000000000000000000000000000000000815260040161159e9061220f565b60405180910390fd5b60006040518060c001604052808773ffffffffffffffffffffffffffffffffffffffff168152602001600354815260200186815260200185815260200160008152602001600081525090508060046000600354815260200190815260200160002060008201518160000160006101000a81548173ffffffffffffffffffffffffffffffffffffffff021916908373ffffffffffffffffffffffffffffffffffffffff1602179055506020820151816001015560408201518160020155606082015181600301556080820151816004015560a082015181600501559050506003547f6a2b70dde6ae0193f84b6a9eeb3b0ebdc3a35e99d9167b88c570158dd09cb0f760405160405180910390a2600360008154809291906116c69061239e565b9190505550505050505050565b7f000000000000000000000000000000000000000000000000000000000000000073ffffffffffffffffffffffffffffffffffffffff163373ffffffffffffffffffffffffffffffffffffffff1614611761576040517f08c379a0000000000000000000000000000000000000000000000000000000008152600401611758906122ec565b60405180910390fd5b600260009054906101000a900460ff166117b0576040517f08c379a00000000000000000000000000000000000000000000000000000000081526004016117a79061220f565b60405180910390fd5b80600190816117bf9190612661565b5050565b7f000000000000000000000000000000000000000000000000000000000000000073ffffffffffffffffffffffffffffffffffffffff163373ffffffffffffffffffffffffffffffffffffffff1614611851576040517f08c379a0000000000000000000000000000000000000000000000000000000008152600401611848906122ec565b60405180910390fd5b600260009054906101000a900460ff166118a0576040517f08c379a00000000000000000000000000000000000000000000000000000000081526004016118979061220f565b60405180910390fd5b6000600260006101000a81548160ff0219169083151502179055507f86d6aa2827e28270c1635780e8a17d61c38028e75531a0a25c5004862521289d306040516118ea9190612027565b60405180910390a1565b7f000000000000000000000000000000000000000000000000000000000000000073ffffffffffffffffffffffffffffffffffffffff163373ffffffffffffffffffffffffffffffffffffffff1614611982576040517f08c379a0000000000000000000000000000000000000000000000000000000008152600401611979906122ec565b60405180910390fd5b600260009054906101000a900460ff166119d1576040517f08c379a00000000000000000000000000000000000000000000000000000000081526004016119c89061220f565b60405180910390fd5b80600090816119e09190612661565b5050565b6000600260009054906101000a900460ff16905090565b600081519050919050565b600082825260208201905092915050565b60005b83811015611a35578082015181840152602081019050611a1a565b60008484015250505050565b6000601f19601f8301169050919050565b6000611a5d826119fb565b611a678185611a06565b9350611a77818560208601611a17565b611a8081611a41565b840191505092915050565b60006020820190508181036000830152611aa58184611a52565b905092915050565b6000604051905090565b600080fd5b600080fd5b6000819050919050565b611ad481611ac1565b8114611adf57600080fd5b50565b600081359050611af181611acb565b92915050565b600060208284031215611b0d57611b0c611ab7565b5b6000611b1b84828501611ae2565b91505092915050565b60008115159050919050565b611b3981611b24565b82525050565b6000602082019050611b546000830184611b30565b92915050565b611b6381611b24565b8114611b6e57600080fd5b50565b600081359050611b8081611b5a565b92915050565b600060208284031215611b9c57611b9b611ab7565b5b6000611baa84828501611b71565b91505092915050565b600073ffffffffffffffffffffffffffffffffffffffff82169050919050565b6000611bde82611bb3565b9050919050565b611bee81611bd3565b8114611bf957600080fd5b50565b600081359050611c0b81611be5565b92915050565b600080600060608486031215611c2a57611c29611ab7565b5b6000611c3886828701611bfc565b9350506020611c4986828701611ae2565b9250506040611c5a86828701611ae2565b9150509250925092565b600081519050919050565b600082825260208201905092915050565b6000819050602082019050919050565b611c9981611bd3565b82525050565b6000611cab8383611c90565b60208301905092915050565b6000602082019050919050565b6000611ccf82611c64565b611cd98185611c6f565b9350611ce483611c80565b8060005b83811015611d15578151611cfc8882611c9f565b9750611d0783611cb7565b925050600181019050611ce8565b5085935050505092915050565b600081519050919050565b600082825260208201905092915050565b6000819050602082019050919050565b611d5781611ac1565b82525050565b6000611d698383611d4e565b60208301905092915050565b6000602082019050919050565b6000611d8d82611d22565b611d978185611d2d565b9350611da283611d3e565b8060005b83811015611dd3578151611dba8882611d5d565b9750611dc583611d75565b925050600181019050611da6565b5085935050505092915050565b600060c0820190508181036000830152611dfa8189611cc4565b90508181036020830152611e0e8188611d82565b90508181036040830152611e228187611d82565b90508181036060830152611e368186611d82565b90508181036080830152611e4a8185611d82565b905081810360a0830152611e5e8184611d82565b9050979650505050505050565b600080fd5b600080fd5b7f4e487b7100000000000000000000000000000000000000000000000000000000600052604160045260246000fd5b611ead82611a41565b810181811067ffffffffffffffff82111715611ecc57611ecb611e75565b5b80604052505050565b6000611edf611aad565b9050611eeb8282611ea4565b919050565b600067ffffffffffffffff821115611f0b57611f0a611e75565b5b611f1482611a41565b9050602081019050919050565b82818337600083830152505050565b6000611f43611f3e84611ef0565b611ed5565b905082815260208101848484011115611f5f57611f5e611e70565b5b611f6a848285611f21565b509392505050565b600082601f830112611f8757611f86611e6b565b5b8135611f97848260208601611f30565b91505092915050565b60008060408385031215611fb757611fb6611ab7565b5b600083013567ffffffffffffffff811115611fd557611fd4611abc565b5b611fe185828601611f72565b925050602083013567ffffffffffffffff81111561200257612001611abc565b5b61200e85828601611f72565b9150509250929050565b61202181611bd3565b82525050565b600060208201905061203c6000830184612018565b92915050565b60006020828403121561205857612057611ab7565b5b600082013567ffffffffffffffff81111561207657612075611abc565b5b61208284828501611f72565b91505092915050565b7f4e487b7100000000000000000000000000000000000000000000000000000000600052602260045260246000fd5b600060028204905060018216806120d257607f821691505b6020821081036120e5576120e461208b565b5b50919050565b7f537562736372697074696f6e20646f6573206e6f742065786973740000000000600082015250565b6000612121601b83611a06565b915061212c826120eb565b602082019050919050565b6000602082019050818103600083015261215081612114565b9050919050565b7f43616c6c6572206973206e6f7420746865207375627363726962657200000000600082015250565b600061218d601c83611a06565b915061219882612157565b602082019050919050565b600060208201905081810360008301526121bc81612180565b9050919050565b7f53657276696365206973206e6f74206163746976650000000000000000000000600082015250565b60006121f9601583611a06565b9150612204826121c3565b602082019050919050565b60006020820190508181036000830152612228816121ec565b9050919050565b7f4e487b7100000000000000000000000000000000000000000000000000000000600052601160045260246000fd5b600061226982611ac1565b915061227483611ac1565b925082820261228281611ac1565b915082820484148315176122995761229861222f565b5b5092915050565b7f4f6e6c79206f776e657220697320616c6c6f7765640000000000000000000000600082015250565b60006122d6601583611a06565b91506122e1826122a0565b602082019050919050565b60006020820190508181036000830152612305816122c9565b9050919050565b7f5375627363726962657220616c72656164792068617320616e2061637469766560008201527f20737562736372697074696f6e00000000000000000000000000000000000000602082015250565b6000612368602d83611a06565b91506123738261230c565b604082019050919050565b600060208201905081810360008301526123978161235b565b9050919050565b60006123a982611ac1565b91507fffffffffffffffffffffffffffffffffffffffffffffffffffffffffffffffff82036123db576123da61222f565b5b600182019050919050565b7f56616c7565206d7573742062652067726561746572207468616e207a65726f00600082015250565b600061241c601f83611a06565b9150612427826123e6565b602082019050919050565b6000602082019050818103600083015261244b8161240f565b9050919050565b600061245d82611ac1565b915061246883611ac1565b92508282019050808211156124805761247f61222f565b5b92915050565b7f4e487b7100000000000000000000000000000000000000000000000000000000600052603260045260246000fd5b60008190508160005260206000209050919050565b60006020601f8301049050919050565b600082821b905092915050565b6000600883026125177fffffffffffffffffffffffffffffffffffffffffffffffffffffffffffffffff826124da565b61252186836124da565b95508019841693508086168417925050509392505050565b6000819050919050565b600061255e61255961255484611ac1565b612539565b611ac1565b9050919050565b6000819050919050565b61257883612543565b61258c61258482612565565b8484546124e7565b825550505050565b600090565b6125a1612594565b6125ac81848461256f565b505050565b5b818110156125d0576125c5600082612599565b6001810190506125b2565b5050565b601f821115612615576125e6816124b5565b6125ef846124ca565b810160208510156125fe578190505b61261261260a856124ca565b8301826125b1565b50505b505050565b600082821c905092915050565b60006126386000198460080261261a565b1980831691505092915050565b60006126518383612627565b9150826002028217905092915050565b61266a826119fb565b67ffffffffffffffff81111561268357612682611e75565b5b61268d82546120ba565b6126988282856125d4565b600060209050601f8311600181146126cb57600084156126b9578287015190505b6126c38582612645565b86555061272b565b601f1984166126d9866124b5565b60005b82811015612701578489015182556001820191506020850194506020810190506126dc565b8683101561271e578489015161271a601f891682612627565b8355505b6001600288020188555050505b505050505050565b60008154612740816120ba565b61274a8186611a06565b94506001821660008114612765576001811461277b576127ae565b60ff1983168652811515602002860193506127ae565b612784856124b5565b60005b838110156127a657815481890152600182019150602081019050612787565b808801955050505b50505092915050565b60006040820190506127cc6000830185612018565b81810360208301526127de8184612733565b90509392505050565b7f496e76616c696420616d6f756e74000000000000000000000000000000000000600082015250565b600061281d600e83611a06565b9150612828826127e7565b602082019050919050565b6000602082019050818103600083015261284c81612810565b905091905056fea2646970667358221220eb24326d6326eaf13c311f65e17d0b9acdbfff583da3bcf98f989040b59ad5d964736f6c63430008140033",
  "linkReferences": {},
  "deployedLinkReferences": {}
}