{
  "_format": "hh-sol-artifact-1",
  "contractName": "Service",
  "sourceName": "contracts/Service.sol",
  "abi": [
    {
      "inputs": [
        {
          "internalType": "address",
          "name": "_deployeraddress",
          "type": "address"
        },
        {
          "internalType": "string",
          "name": "_name",
          "type": "string"
        },
        {
          "internalType": "string",
          "name": "_description",
          "type": "string"
        }
      ],
      "stateMutability": "nonpayable",
      "type": "constructor"
    },
    {
      "anonymous": false,
      "inputs": [
        {
          "indexed": false,
          "internalType": "address",
          "name": "serviceAddress",
          "type": "address"
        }
      ],
      "name": "ServiceDeactivated",
      "type": "event"
    },
    {
      "anonymous": false,
      "inputs": [
        {
          "indexed": false,
          "internalType": "address",
          "name": "serviceAddress",
          "type": "address"
        },
        {
          "indexed": false,
          "internalType": "string",
          "name": "name",
          "type": "string"
        }
      ],
      "name": "ServiceUpdated",
      "type": "event"
    },
    {
      "anonymous": false,
      "inputs": [
        {
          "indexed": true,
          "internalType": "uint256",
          "name": "tokenId",
          "type": "uint256"
        }
      ],
      "name": "SubscriptionBought",
      "type": "event"
    },
    {
      "anonymous": false,
      "inputs": [
        {
          "indexed": true,
          "internalType": "uint256",
          "name": "tokenId",
          "type": "uint256"
        }
      ],
      "name": "SubscriptionCancelled",
      "type": "event"
    },
    {
      "anonymous": false,
      "inputs": [
        {
          "indexed": true,
          "internalType": "uint256",
          "name": "tokenId",
          "type": "uint256"
        }
      ],
      "name": "SubscriptionCreated",
      "type": "event"
    },
    {
      "anonymous": false,
      "inputs": [
        {
          "indexed": true,
          "internalType": "uint256",
          "name": "tokenId",
          "type": "uint256"
        }
      ],
      "name": "SubscriptionPaid",
      "type": "event"
    },
    {
      "inputs": [],
      "name": "addExpiredSubscription",
      "outputs": [],
      "stateMutability": "nonpayable",
      "type": "function"
    },
    {
      "inputs": [
        {
          "internalType": "address",
          "name": "_user",
          "type": "address"
        },
        {
          "internalType": "uint256",
          "name": "_price",
          "type": "uint256"
        },
        {
          "internalType": "uint256",
          "name": "_duration",
          "type": "uint256"
        }
      ],
      "name": "buySubscription",
      "outputs": [],
      "stateMutability": "payable",
      "type": "function"
    },
    {
      "inputs": [
        {
          "internalType": "uint256",
          "name": "_tokenId",
          "type": "uint256"
        }
      ],
      "name": "cancelSubscription",
      "outputs": [],
      "stateMutability": "nonpayable",
      "type": "function"
    },
    {
      "inputs": [],
      "name": "checkSubscriptions",
      "outputs": [],
      "stateMutability": "nonpayable",
      "type": "function"
    },
    {
      "inputs": [
        {
          "internalType": "address",
          "name": "_user",
          "type": "address"
        },
        {
          "internalType": "uint256",
          "name": "_price",
          "type": "uint256"
        },
        {
          "internalType": "uint256",
          "name": "_duration",
          "type": "uint256"
        }
      ],
      "name": "createSubscription",
      "outputs": [],
      "stateMutability": "nonpayable",
      "type": "function"
    },
    {
      "inputs": [],
      "name": "deactivateService",
      "outputs": [],
      "stateMutability": "nonpayable",
      "type": "function"
    },
    {
      "inputs": [],
      "name": "description",
      "outputs": [
        {
          "internalType": "string",
          "name": "",
          "type": "string"
        }
      ],
      "stateMutability": "view",
      "type": "function"
    },
    {
      "inputs": [],
      "name": "getDescription",
      "outputs": [
        {
          "internalType": "string",
          "name": "",
          "type": "string"
        }
      ],
      "stateMutability": "view",
      "type": "function"
    },
    {
      "inputs": [],
      "name": "getIsActive",
      "outputs": [
        {
          "internalType": "bool",
          "name": "",
          "type": "bool"
        }
      ],
      "stateMutability": "view",
      "type": "function"
    },
    {
      "inputs": [],
      "name": "getName",
      "outputs": [
        {
          "internalType": "string",
          "name": "",
          "type": "string"
        }
      ],
      "stateMutability": "view",
      "type": "function"
    },
    {
      "inputs": [],
      "name": "getOwner",
      "outputs": [
        {
          "internalType": "address",
          "name": "",
          "type": "address"
        }
      ],
      "stateMutability": "view",
      "type": "function"
    },
    {
      "inputs": [],
      "name": "getSubscriptions",
      "outputs": [
        {
          "internalType": "address[]",
          "name": "",
          "type": "address[]"
        },
        {
          "internalType": "uint256[]",
          "name": "",
          "type": "uint256[]"
        },
        {
          "internalType": "uint256[]",
          "name": "",
          "type": "uint256[]"
        },
        {
          "internalType": "uint256[]",
          "name": "",
          "type": "uint256[]"
        },
        {
          "internalType": "uint256[]",
          "name": "",
          "type": "uint256[]"
        },
        {
          "internalType": "uint256[]",
          "name": "",
          "type": "uint256[]"
        },
        {
          "internalType": "string[]",
          "name": "",
          "type": "string[]"
        }
      ],
      "stateMutability": "view",
      "type": "function"
    },
    {
      "inputs": [],
      "name": "isActive",
      "outputs": [
        {
          "internalType": "bool",
          "name": "",
          "type": "bool"
        }
      ],
      "stateMutability": "view",
      "type": "function"
    },
    {
      "inputs": [],
      "name": "name",
      "outputs": [
        {
          "internalType": "string",
          "name": "",
          "type": "string"
        }
      ],
      "stateMutability": "view",
      "type": "function"
    },
    {
      "inputs": [
        {
          "internalType": "uint256",
          "name": "_tokenId",
          "type": "uint256"
        }
      ],
      "name": "paySubscription",
      "outputs": [],
      "stateMutability": "payable",
      "type": "function"
    },
    {
      "inputs": [
        {
          "internalType": "string",
          "name": "_description",
          "type": "string"
        }
      ],
      "name": "setDescription",
      "outputs": [],
      "stateMutability": "nonpayable",
      "type": "function"
    },
    {
      "inputs": [
        {
          "internalType": "bool",
          "name": "_isActive",
          "type": "bool"
        }
      ],
      "name": "setIsActive",
      "outputs": [],
      "stateMutability": "nonpayable",
      "type": "function"
    },
    {
      "inputs": [
        {
          "internalType": "string",
          "name": "_name",
          "type": "string"
        }
      ],
      "name": "setName",
      "outputs": [],
      "stateMutability": "nonpayable",
      "type": "function"
    },
    {
      "inputs": [
        {
          "internalType": "string",
          "name": "_newname",
          "type": "string"
        },
        {
          "internalType": "string",
          "name": "_newdescription",
          "type": "string"
        }
      ],
      "name": "updateService",
      "outputs": [],
      "stateMutability": "nonpayable",
      "type": "function"
    }
  ],
  "bytecode": "0x60a06040526001600260006101000a81548160ff02191690831515021790555060006003553480156200003157600080fd5b506040516200370d3803806200370d8339818101604052810190620000579190620002b0565b8273ffffffffffffffffffffffffffffffffffffffff1660808173ffffffffffffffffffffffffffffffffffffffff168152505081600090816200009c919062000595565b508060019081620000ae919062000595565b505050506200067c565b6000604051905090565b600080fd5b600080fd5b600073ffffffffffffffffffffffffffffffffffffffff82169050919050565b6000620000f982620000cc565b9050919050565b6200010b81620000ec565b81146200011757600080fd5b50565b6000815190506200012b8162000100565b92915050565b600080fd5b600080fd5b6000601f19601f8301169050919050565b7f4e487b7100000000000000000000000000000000000000000000000000000000600052604160045260246000fd5b62000186826200013b565b810181811067ffffffffffffffff82111715620001a857620001a76200014c565b5b80604052505050565b6000620001bd620000b8565b9050620001cb82826200017b565b919050565b600067ffffffffffffffff821115620001ee57620001ed6200014c565b5b620001f9826200013b565b9050602081019050919050565b60005b838110156200022657808201518184015260208101905062000209565b60008484015250505050565b6000620002496200024384620001d0565b620001b1565b90508281526020810184848401111562000268576200026762000136565b5b6200027584828562000206565b509392505050565b600082601f83011262000295576200029462000131565b5b8151620002a784826020860162000232565b91505092915050565b600080600060608486031215620002cc57620002cb620000c2565b5b6000620002dc868287016200011a565b935050602084015167ffffffffffffffff8111156200030057620002ff620000c7565b5b6200030e868287016200027d565b925050604084015167ffffffffffffffff811115620003325762000331620000c7565b5b62000340868287016200027d565b9150509250925092565b600081519050919050565b7f4e487b7100000000000000000000000000000000000000000000000000000000600052602260045260246000fd5b600060028204905060018216806200039d57607f821691505b602082108103620003b357620003b262000355565b5b50919050565b60008190508160005260206000209050919050565b60006020601f8301049050919050565b600082821b905092915050565b6000600883026200041d7fffffffffffffffffffffffffffffffffffffffffffffffffffffffffffffffff82620003de565b620004298683620003de565b95508019841693508086168417925050509392505050565b6000819050919050565b6000819050919050565b600062000476620004706200046a8462000441565b6200044b565b62000441565b9050919050565b6000819050919050565b620004928362000455565b620004aa620004a1826200047d565b848454620003eb565b825550505050565b600090565b620004c1620004b2565b620004ce81848462000487565b505050565b5b81811015620004f657620004ea600082620004b7565b600181019050620004d4565b5050565b601f82111562000545576200050f81620003b9565b6200051a84620003ce565b810160208510156200052a578190505b620005426200053985620003ce565b830182620004d3565b50505b505050565b600082821c905092915050565b60006200056a600019846008026200054a565b1980831691505092915050565b600062000585838362000557565b9150826002028217905092915050565b620005a0826200034a565b67ffffffffffffffff811115620005bc57620005bb6200014c565b5b620005c8825462000384565b620005d5828285620004fa565b600060209050601f8311600181146200060d5760008415620005f8578287015190505b62000604858262000577565b86555062000674565b601f1984166200061d86620003b9565b60005b82811015620006475784890151825560018201915060208501945060208101905062000620565b8683101562000667578489015162000663601f89168262000557565b8355505b6001600288020188555050505b505050505050565b608051613044620006c9600039600081816106b0015281816109e0015281816113bf0152818161169a015281816118ce01528181611bf101528181611ce10152611e1201526130446000f3fe6080604052600436106101145760003560e01c8063718b57dc116100a057806390c3f38f1161006457806390c3f38f1461033f578063a4f96c0c14610368578063c47f00271461037f578063c82494a2146103a8578063fba7cc79146103bf57610114565b8063718b57dc1461027b5780637284e416146102a45780637ac9b098146102cf578063893d20e8146102eb5780638a2405a81461031657610114565b806321922488116100e757806321922488146101c357806322f3e2d4146101da5780632750fc78146102055780633399d3891461022e5780633b47a9ac1461024a57610114565b806306fdde031461011957806317d7de7c146101445780631a0925411461016f578063212350831461019a575b600080fd5b34801561012557600080fd5b5061012e6103ea565b60405161013b91906120c2565b60405180910390f35b34801561015057600080fd5b50610159610478565b60405161016691906120c2565b60405180910390f35b34801561017b57600080fd5b5061018461050a565b60405161019191906120c2565b60405180910390f35b3480156101a657600080fd5b506101c160048036038101906101bc919061212e565b61059c565b005b3480156101cf57600080fd5b506101d8610825565b005b3480156101e657600080fd5b506101ef6109cb565b6040516101fc9190612176565b60405180910390f35b34801561021157600080fd5b5061022c600480360381019061022791906121bd565b6109de565b005b61024860048036038101906102439190612248565b610a89565b005b34801561025657600080fd5b5061025f610db7565b6040516102729796959493929190612523565b60405180910390f35b34801561028757600080fd5b506102a2600480360381019061029d91906126f8565b6113bd565b005b3480156102b057600080fd5b506102b96114f8565b6040516102c691906120c2565b60405180910390f35b6102e960048036038101906102e4919061212e565b611586565b005b3480156102f757600080fd5b506103006118ca565b60405161030d919061277f565b60405180910390f35b34801561032257600080fd5b5061033d60048036038101906103389190612248565b6118f2565b005b34801561034b57600080fd5b506103666004803603810190610361919061279a565b611bef565b005b34801561037457600080fd5b5061037d611cdf565b005b34801561038b57600080fd5b506103a660048036038101906103a1919061279a565b611e10565b005b3480156103b457600080fd5b506103bd611f00565b005b3480156103cb57600080fd5b506103d461201b565b6040516103e19190612176565b60405180910390f35b600080546103f790612812565b80601f016020809104026020016040519081016040528092919081815260200182805461042390612812565b80156104705780601f1061044557610100808354040283529160200191610470565b820191906000526020600020905b81548152906001019060200180831161045357829003601f168201915b505050505081565b60606000805461048790612812565b80601f01602080910402602001604051908101604052809291908181526020018280546104b390612812565b80156105005780601f106104d557610100808354040283529160200191610500565b820191906000526020600020905b8154815290600101906020018083116104e357829003601f168201915b5050505050905090565b60606001805461051990612812565b80601f016020809104026020016040519081016040528092919081815260200182805461054590612812565b80156105925780601f1061056757610100808354040283529160200191610592565b820191906000526020600020905b81548152906001019060200180831161057557829003601f168201915b5050505050905090565b80600073ffffffffffffffffffffffffffffffffffffffff166004600083815260200190815260200160002060000160009054906101000a900473ffffffffffffffffffffffffffffffffffffffff1673ffffffffffffffffffffffffffffffffffffffff1603610642576040517f08c379a00000000000000000000000000000000000000000000000000000000081526004016106399061288f565b60405180910390fd5b813373ffffffffffffffffffffffffffffffffffffffff166004600083815260200190815260200160002060000160009054906101000a900473ffffffffffffffffffffffffffffffffffffffff1673ffffffffffffffffffffffffffffffffffffffff1614806106fe57507f000000000000000000000000000000000000000000000000000000000000000073ffffffffffffffffffffffffffffffffffffffff163373ffffffffffffffffffffffffffffffffffffffff16145b61073d576040517f08c379a0000000000000000000000000000000000000000000000000000000008152600401610734906128fb565b60405180910390fd5b600260009054906101000a900460ff1661078c576040517f08c379a000000000000000000000000000000000000000000000000000000000815260040161078390612967565b60405180910390fd5b6103e84261079a91906129b6565b600460008581526020019081526020016000206005018190555060036004600085815260200190815260200160002060060160006101000a81548160ff021916908360038111156107ee576107ed6129f8565b5b0217905550827fbd2bcea75d16a85f005cd83447e0de57341bf926fe7419e6d553663e91ab4da760405160405180910390a2505050565b60006040518060e001604052803373ffffffffffffffffffffffffffffffffffffffff168152602001600354815260200160648152602001601e81526020016103e8624f1a00426108769190612a27565b61088091906129b6565b81526020016103e862278d00426108979190612a27565b6108a191906129b6565b8152602001600160038111156108ba576108b96129f8565b5b81525090508060046000600354815260200190815260200160002060008201518160000160006101000a81548173ffffffffffffffffffffffffffffffffffffffff021916908373ffffffffffffffffffffffffffffffffffffffff1602179055506020820151816001015560408201518160020155606082015181600301556080820151816004015560a0820151816005015560c08201518160060160006101000a81548160ff02191690836003811115610979576109786129f8565b5b02179055509050506003547f6a2b70dde6ae0193f84b6a9eeb3b0ebdc3a35e99d9167b88c570158dd09cb0f760405160405180910390a2600360008154809291906109c390612a5b565b919050555050565b600260009054906101000a900460ff1681565b7f000000000000000000000000000000000000000000000000000000000000000073ffffffffffffffffffffffffffffffffffffffff163373ffffffffffffffffffffffffffffffffffffffff1614610a6c576040517f08c379a0000000000000000000000000000000000000000000000000000000008152600401610a6390612aef565b60405180910390fd5b80600260006101000a81548160ff02191690831515021790555050565b8260005b600354811015610b7d578173ffffffffffffffffffffffffffffffffffffffff166004600083815260200190815260200160002060000160009054906101000a900473ffffffffffffffffffffffffffffffffffffffff1673ffffffffffffffffffffffffffffffffffffffff16148015610b2a575060046000828152602001908152602001600020600501546103e842610b2891906129b6565b105b15610b6a576040517f08c379a0000000000000000000000000000000000000000000000000000000008152600401610b6190612b81565b60405180910390fd5b8080610b7590612a5b565b915050610a8d565b508260008111610bc2576040517f08c379a0000000000000000000000000000000000000000000000000000000008152600401610bb990612bed565b60405180910390fd5b600260009054906101000a900460ff16610c11576040517f08c379a0000000000000000000000000000000000000000000000000000000008152600401610c0890612967565b60405180910390fd5b60006040518060e001604052808773ffffffffffffffffffffffffffffffffffffffff16815260200160035481526020018681526020018581526020016103e842610c5c91906129b6565b81526020016103e86201518087610c7391906129b6565b42610c7e9190612c0d565b610c8891906129b6565b815260200160016003811115610ca157610ca06129f8565b5b81525090508060046000600354815260200190815260200160002060008201518160000160006101000a81548173ffffffffffffffffffffffffffffffffffffffff021916908373ffffffffffffffffffffffffffffffffffffffff1602179055506020820151816001015560408201518160020155606082015181600301556080820151816004015560a0820151816005015560c08201518160060160006101000a81548160ff02191690836003811115610d6057610d5f6129f8565b5b02179055509050506003547ffc92a747fa9c2199bb773d08eb7a76c871b1c9b634b5a1afc3cc4ccc643032e660405160405180910390a260036000815480929190610daa90612a5b565b9190505550505050505050565b6060806060806060806060600060035467ffffffffffffffff811115610de057610ddf6125cd565b5b604051908082528060200260200182016040528015610e0e5781602001602082028036833780820191505090505b509050600060035467ffffffffffffffff811115610e2f57610e2e6125cd565b5b604051908082528060200260200182016040528015610e5d5781602001602082028036833780820191505090505b509050600060035467ffffffffffffffff811115610e7e57610e7d6125cd565b5b604051908082528060200260200182016040528015610eac5781602001602082028036833780820191505090505b509050600060035467ffffffffffffffff811115610ecd57610ecc6125cd565b5b604051908082528060200260200182016040528015610efb5781602001602082028036833780820191505090505b509050600060035467ffffffffffffffff811115610f1c57610f1b6125cd565b5b604051908082528060200260200182016040528015610f4a5781602001602082028036833780820191505090505b509050600060035467ffffffffffffffff811115610f6b57610f6a6125cd565b5b604051908082528060200260200182016040528015610f995781602001602082028036833780820191505090505b509050600060035467ffffffffffffffff811115610fba57610fb96125cd565b5b604051908082528060200260200182016040528015610fed57816020015b6060815260200190600190039081610fd85790505b50905060005b600354811015611397576004600082815260200190815260200160002060000160009054906101000a900473ffffffffffffffffffffffffffffffffffffffff1688828151811061104757611046612c41565b5b602002602001019073ffffffffffffffffffffffffffffffffffffffff16908173ffffffffffffffffffffffffffffffffffffffff168152505060046000828152602001908152602001600020600101548782815181106110ab576110aa612c41565b5b60200260200101818152505060046000828152602001908152602001600020600201548682815181106110e1576110e0612c41565b5b602002602001018181525050600460008281526020019081526020016000206003015485828151811061111757611116612c41565b5b602002602001018181525050600460008281526020019081526020016000206004015484828151811061114d5761114c612c41565b5b602002602001018181525050600460008281526020019081526020016000206005015483828151811061118357611182612c41565b5b602002602001018181525050600060038111156111a3576111a26129f8565b5b6004600083815260200190815260200160002060060160009054906101000a900460ff1660038111156111d9576111d86129f8565b5b1461132f57600160038111156111f2576111f16129f8565b5b6004600083815260200190815260200160002060060160009054906101000a900460ff166003811115611228576112276129f8565b5b146112f35760026003811115611241576112406129f8565b5b6004600083815260200190815260200160002060060160009054906101000a900460ff166003811115611277576112766129f8565b5b146112b7576040518060400160405280600981526020017f43616e63656c6c656400000000000000000000000000000000000000000000008152506112ee565b6040518060400160405280600781526020017f45787069726564000000000000000000000000000000000000000000000000008152505b61132a565b6040518060400160405280600781526020017f4f6e676f696e67000000000000000000000000000000000000000000000000008152505b611366565b6040518060400160405280600381526020017f4e657700000000000000000000000000000000000000000000000000000000008152505b82828151811061137957611378612c41565b5b6020026020010181905250808061138f90612a5b565b915050610ff3565b50868686868686869d509d509d509d509d509d509d505050505050505090919293949596565b7f000000000000000000000000000000000000000000000000000000000000000073ffffffffffffffffffffffffffffffffffffffff163373ffffffffffffffffffffffffffffffffffffffff161461144b576040517f08c379a000000000000000000000000000000000000000000000000000000000815260040161144290612aef565b60405180910390fd5b600260009054906101000a900460ff1661149a576040517f08c379a000000000000000000000000000000000000000000000000000000000815260040161149190612967565b60405180910390fd5b81600090816114a99190612e1c565b5080600190816114b99190612e1c565b507f4753ea05804b68917fe65e38a8d48a1c098336025a4e9f9bb64e37afe72680083060006040516114ec929190612f72565b60405180910390a15050565b6001805461150590612812565b80601f016020809104026020016040519081016040528092919081815260200182805461153190612812565b801561157e5780601f106115535761010080835404028352916020019161157e565b820191906000526020600020905b81548152906001019060200180831161156157829003601f168201915b505050505081565b80600073ffffffffffffffffffffffffffffffffffffffff166004600083815260200190815260200160002060000160009054906101000a900473ffffffffffffffffffffffffffffffffffffffff1673ffffffffffffffffffffffffffffffffffffffff160361162c576040517f08c379a00000000000000000000000000000000000000000000000000000000081526004016116239061288f565b60405180910390fd5b813373ffffffffffffffffffffffffffffffffffffffff166004600083815260200190815260200160002060000160009054906101000a900473ffffffffffffffffffffffffffffffffffffffff1673ffffffffffffffffffffffffffffffffffffffff1614806116e857507f000000000000000000000000000000000000000000000000000000000000000073ffffffffffffffffffffffffffffffffffffffff163373ffffffffffffffffffffffffffffffffffffffff16145b611727576040517f08c379a000000000000000000000000000000000000000000000000000000000815260040161171e906128fb565b60405180910390fd5b600260009054906101000a900460ff16611776576040517f08c379a000000000000000000000000000000000000000000000000000000000815260040161176d90612967565b60405180910390fd5b60003490506000600460008681526020019081526020016000206002015490508082146117d8576040517f08c379a00000000000000000000000000000000000000000000000000000000081526004016117cf90612fee565b60405180910390fd5b6103e8426117e691906129b6565b60046000878152602001908152602001600020600401819055506103e862015180600460008881526020019081526020016000206003015461182891906129b6565b426118339190612c0d565b61183d91906129b6565b600460008781526020019081526020016000206005018190555060016004600087815260200190815260200160002060060160006101000a81548160ff02191690836003811115611891576118906129f8565b5b0217905550847f9040c259954b48f5dfdf60ea91e742403e7552202de9925d509fdd8187b2130b60405160405180910390a25050505050565b60007f0000000000000000000000000000000000000000000000000000000000000000905090565b8260005b6003548110156119e6578173ffffffffffffffffffffffffffffffffffffffff166004600083815260200190815260200160002060000160009054906101000a900473ffffffffffffffffffffffffffffffffffffffff1673ffffffffffffffffffffffffffffffffffffffff16148015611993575060046000828152602001908152602001600020600501546103e84261199191906129b6565b105b156119d3576040517f08c379a00000000000000000000000000000000000000000000000000000000081526004016119ca90612b81565b60405180910390fd5b80806119de90612a5b565b9150506118f6565b508260008111611a2b576040517f08c379a0000000000000000000000000000000000000000000000000000000008152600401611a2290612bed565b60405180910390fd5b600260009054906101000a900460ff16611a7a576040517f08c379a0000000000000000000000000000000000000000000000000000000008152600401611a7190612967565b60405180910390fd5b60006040518060e001604052808773ffffffffffffffffffffffffffffffffffffffff1681526020016003548152602001868152602001858152602001600081526020016000815260200160006003811115611ad957611ad86129f8565b5b81525090508060046000600354815260200190815260200160002060008201518160000160006101000a81548173ffffffffffffffffffffffffffffffffffffffff021916908373ffffffffffffffffffffffffffffffffffffffff1602179055506020820151816001015560408201518160020155606082015181600301556080820151816004015560a0820151816005015560c08201518160060160006101000a81548160ff02191690836003811115611b9857611b976129f8565b5b02179055509050506003547f6a2b70dde6ae0193f84b6a9eeb3b0ebdc3a35e99d9167b88c570158dd09cb0f760405160405180910390a260036000815480929190611be290612a5b565b9190505550505050505050565b7f000000000000000000000000000000000000000000000000000000000000000073ffffffffffffffffffffffffffffffffffffffff163373ffffffffffffffffffffffffffffffffffffffff1614611c7d576040517f08c379a0000000000000000000000000000000000000000000000000000000008152600401611c7490612aef565b60405180910390fd5b600260009054906101000a900460ff16611ccc576040517f08c379a0000000000000000000000000000000000000000000000000000000008152600401611cc390612967565b60405180910390fd5b8060019081611cdb9190612e1c565b5050565b7f000000000000000000000000000000000000000000000000000000000000000073ffffffffffffffffffffffffffffffffffffffff163373ffffffffffffffffffffffffffffffffffffffff1614611d6d576040517f08c379a0000000000000000000000000000000000000000000000000000000008152600401611d6490612aef565b60405180910390fd5b600260009054906101000a900460ff16611dbc576040517f08c379a0000000000000000000000000000000000000000000000000000000008152600401611db390612967565b60405180910390fd5b6000600260006101000a81548160ff0219169083151502179055507f86d6aa2827e28270c1635780e8a17d61c38028e75531a0a25c5004862521289d30604051611e06919061277f565b60405180910390a1565b7f000000000000000000000000000000000000000000000000000000000000000073ffffffffffffffffffffffffffffffffffffffff163373ffffffffffffffffffffffffffffffffffffffff1614611e9e576040517f08c379a0000000000000000000000000000000000000000000000000000000008152600401611e9590612aef565b60405180910390fd5b600260009054906101000a900460ff16611eed576040517f08c379a0000000000000000000000000000000000000000000000000000000008152600401611ee490612967565b60405180910390fd5b8060009081611efc9190612e1c565b5050565b60005b6003548110156120185760046000828152602001908152602001600020600501546103e842611f3291906129b6565b118015611f86575060016003811115611f4e57611f4d6129f8565b5b6004600083815260200190815260200160002060060160009054906101000a900460ff166003811115611f8457611f836129f8565b5b145b156120055760026004600083815260200190815260200160002060060160006101000a81548160ff02191690836003811115611fc557611fc46129f8565b5b02179055507f4753ea05804b68917fe65e38a8d48a1c098336025a4e9f9bb64e37afe7268008306000604051611ffc929190612f72565b60405180910390a15b808061201090612a5b565b915050611f03565b50565b6000600260009054906101000a900460ff16905090565b600081519050919050565b600082825260208201905092915050565b60005b8381101561206c578082015181840152602081019050612051565b60008484015250505050565b6000601f19601f8301169050919050565b600061209482612032565b61209e818561203d565b93506120ae81856020860161204e565b6120b781612078565b840191505092915050565b600060208201905081810360008301526120dc8184612089565b905092915050565b6000604051905090565b600080fd5b600080fd5b6000819050919050565b61210b816120f8565b811461211657600080fd5b50565b60008135905061212881612102565b92915050565b600060208284031215612144576121436120ee565b5b600061215284828501612119565b91505092915050565b60008115159050919050565b6121708161215b565b82525050565b600060208201905061218b6000830184612167565b92915050565b61219a8161215b565b81146121a557600080fd5b50565b6000813590506121b781612191565b92915050565b6000602082840312156121d3576121d26120ee565b5b60006121e1848285016121a8565b91505092915050565b600073ffffffffffffffffffffffffffffffffffffffff82169050919050565b6000612215826121ea565b9050919050565b6122258161220a565b811461223057600080fd5b50565b6000813590506122428161221c565b92915050565b600080600060608486031215612261576122606120ee565b5b600061226f86828701612233565b935050602061228086828701612119565b925050604061229186828701612119565b9150509250925092565b600081519050919050565b600082825260208201905092915050565b6000819050602082019050919050565b6122d08161220a565b82525050565b60006122e283836122c7565b60208301905092915050565b6000602082019050919050565b60006123068261229b565b61231081856122a6565b935061231b836122b7565b8060005b8381101561234c57815161233388826122d6565b975061233e836122ee565b92505060018101905061231f565b5085935050505092915050565b600081519050919050565b600082825260208201905092915050565b6000819050602082019050919050565b61238e816120f8565b82525050565b60006123a08383612385565b60208301905092915050565b6000602082019050919050565b60006123c482612359565b6123ce8185612364565b93506123d983612375565b8060005b8381101561240a5781516123f18882612394565b97506123fc836123ac565b9250506001810190506123dd565b5085935050505092915050565b600081519050919050565b600082825260208201905092915050565b6000819050602082019050919050565b600082825260208201905092915050565b600061245f82612032565b6124698185612443565b935061247981856020860161204e565b61248281612078565b840191505092915050565b60006124998383612454565b905092915050565b6000602082019050919050565b60006124b982612417565b6124c38185612422565b9350836020820285016124d585612433565b8060005b8581101561251157848403895281516124f2858261248d565b94506124fd836124a1565b925060208a019950506001810190506124d9565b50829750879550505050505092915050565b600060e082019050818103600083015261253d818a6122fb565b9050818103602083015261255181896123b9565b9050818103604083015261256581886123b9565b9050818103606083015261257981876123b9565b9050818103608083015261258d81866123b9565b905081810360a08301526125a181856123b9565b905081810360c08301526125b581846124ae565b905098975050505050505050565b600080fd5b600080fd5b7f4e487b7100000000000000000000000000000000000000000000000000000000600052604160045260246000fd5b61260582612078565b810181811067ffffffffffffffff82111715612624576126236125cd565b5b80604052505050565b60006126376120e4565b905061264382826125fc565b919050565b600067ffffffffffffffff821115612663576126626125cd565b5b61266c82612078565b9050602081019050919050565b82818337600083830152505050565b600061269b61269684612648565b61262d565b9050828152602081018484840111156126b7576126b66125c8565b5b6126c2848285612679565b509392505050565b600082601f8301126126df576126de6125c3565b5b81356126ef848260208601612688565b91505092915050565b6000806040838503121561270f5761270e6120ee565b5b600083013567ffffffffffffffff81111561272d5761272c6120f3565b5b612739858286016126ca565b925050602083013567ffffffffffffffff81111561275a576127596120f3565b5b612766858286016126ca565b9150509250929050565b6127798161220a565b82525050565b60006020820190506127946000830184612770565b92915050565b6000602082840312156127b0576127af6120ee565b5b600082013567ffffffffffffffff8111156127ce576127cd6120f3565b5b6127da848285016126ca565b91505092915050565b7f4e487b7100000000000000000000000000000000000000000000000000000000600052602260045260246000fd5b6000600282049050600182168061282a57607f821691505b60208210810361283d5761283c6127e3565b5b50919050565b7f537562736372697074696f6e20646f6573206e6f742065786973740000000000600082015250565b6000612879601b8361203d565b915061288482612843565b602082019050919050565b600060208201905081810360008301526128a88161286c565b9050919050565b7f43616c6c6572206973206e6f7420746865207375627363726962657200000000600082015250565b60006128e5601c8361203d565b91506128f0826128af565b602082019050919050565b60006020820190508181036000830152612914816128d8565b9050919050565b7f53657276696365206973206e6f74206163746976650000000000000000000000600082015250565b600061295160158361203d565b915061295c8261291b565b602082019050919050565b6000602082019050818103600083015261298081612944565b9050919050565b7f4e487b7100000000000000000000000000000000000000000000000000000000600052601160045260246000fd5b60006129c1826120f8565b91506129cc836120f8565b92508282026129da816120f8565b915082820484148315176129f1576129f0612987565b5b5092915050565b7f4e487b7100000000000000000000000000000000000000000000000000000000600052602160045260246000fd5b6000612a32826120f8565b9150612a3d836120f8565b9250828203905081811115612a5557612a54612987565b5b92915050565b6000612a66826120f8565b91507fffffffffffffffffffffffffffffffffffffffffffffffffffffffffffffffff8203612a9857612a97612987565b5b600182019050919050565b7f4f6e6c79206f776e657220697320616c6c6f7765640000000000000000000000600082015250565b6000612ad960158361203d565b9150612ae482612aa3565b602082019050919050565b60006020820190508181036000830152612b0881612acc565b9050919050565b7f5375627363726962657220616c72656164792068617320616e2061637469766560008201527f20737562736372697074696f6e00000000000000000000000000000000000000602082015250565b6000612b6b602d8361203d565b9150612b7682612b0f565b604082019050919050565b60006020820190508181036000830152612b9a81612b5e565b9050919050565b7f56616c7565206d7573742062652067726561746572207468616e207a65726f00600082015250565b6000612bd7601f8361203d565b9150612be282612ba1565b602082019050919050565b60006020820190508181036000830152612c0681612bca565b9050919050565b6000612c18826120f8565b9150612c23836120f8565b9250828201905080821115612c3b57612c3a612987565b5b92915050565b7f4e487b7100000000000000000000000000000000000000000000000000000000600052603260045260246000fd5b60008190508160005260206000209050919050565b60006020601f8301049050919050565b600082821b905092915050565b600060088302612cd27fffffffffffffffffffffffffffffffffffffffffffffffffffffffffffffffff82612c95565b612cdc8683612c95565b95508019841693508086168417925050509392505050565b6000819050919050565b6000612d19612d14612d0f846120f8565b612cf4565b6120f8565b9050919050565b6000819050919050565b612d3383612cfe565b612d47612d3f82612d20565b848454612ca2565b825550505050565b600090565b612d5c612d4f565b612d67818484612d2a565b505050565b5b81811015612d8b57612d80600082612d54565b600181019050612d6d565b5050565b601f821115612dd057612da181612c70565b612daa84612c85565b81016020851015612db9578190505b612dcd612dc585612c85565b830182612d6c565b50505b505050565b600082821c905092915050565b6000612df360001984600802612dd5565b1980831691505092915050565b6000612e0c8383612de2565b9150826002028217905092915050565b612e2582612032565b67ffffffffffffffff811115612e3e57612e3d6125cd565b5b612e488254612812565b612e53828285612d8f565b600060209050601f831160018114612e865760008415612e74578287015190505b612e7e8582612e00565b865550612ee6565b601f198416612e9486612c70565b60005b82811015612ebc57848901518255600182019150602085019450602081019050612e97565b86831015612ed95784890151612ed5601f891682612de2565b8355505b6001600288020188555050505b505050505050565b60008154612efb81612812565b612f05818661203d565b94506001821660008114612f205760018114612f3657612f69565b60ff198316865281151560200286019350612f69565b612f3f85612c70565b60005b83811015612f6157815481890152600182019150602081019050612f42565b808801955050505b50505092915050565b6000604082019050612f876000830185612770565b8181036020830152612f998184612eee565b90509392505050565b7f496e76616c696420616d6f756e74000000000000000000000000000000000000600082015250565b6000612fd8600e8361203d565b9150612fe382612fa2565b602082019050919050565b6000602082019050818103600083015261300781612fcb565b905091905056fea26469706673582212209102cbc4ddbf813be17243c4db8a07e2d55147c36231e8cbd15d5e3b6c4d7d9c64736f6c63430008140033",
  "linkReferences": {},
  "deployedLinkReferences": {}
}