{
  "_format": "hh-sol-artifact-1",
  "contractName": "Service",
  "sourceName": "contracts/Service.sol",
  "abi": [
    {
      "inputs": [
        {
          "internalType": "address",
          "name": "_deployeraddress",
          "type": "address"
        },
        {
          "internalType": "string",
          "name": "_name",
          "type": "string"
        },
        {
          "internalType": "string",
          "name": "_description",
          "type": "string"
        }
      ],
      "stateMutability": "nonpayable",
      "type": "constructor"
    },
    {
      "anonymous": false,
      "inputs": [
        {
          "indexed": true,
          "internalType": "uint256",
          "name": "tokenId",
          "type": "uint256"
        }
      ],
      "name": "SubscriptionCancelled",
      "type": "event"
    },
    {
      "anonymous": false,
      "inputs": [
        {
          "indexed": true,
          "internalType": "uint256",
          "name": "tokenId",
          "type": "uint256"
        }
      ],
      "name": "SubscriptionCreated",
      "type": "event"
    },
    {
      "anonymous": false,
      "inputs": [
        {
          "indexed": true,
          "internalType": "uint256",
          "name": "tokenId",
          "type": "uint256"
        }
      ],
      "name": "SubscriptionPaid",
      "type": "event"
    },
    {
      "inputs": [
        {
          "internalType": "address",
          "name": "_user",
          "type": "address"
        },
        {
          "internalType": "uint256",
          "name": "_price",
          "type": "uint256"
        },
        {
          "internalType": "uint256",
          "name": "_duration",
          "type": "uint256"
        }
      ],
      "name": "buySubscription",
      "outputs": [],
      "stateMutability": "payable",
      "type": "function"
    },
    {
      "inputs": [
        {
          "internalType": "uint256",
          "name": "_tokenId",
          "type": "uint256"
        }
      ],
      "name": "cancelSubscription",
      "outputs": [],
      "stateMutability": "nonpayable",
      "type": "function"
    },
    {
      "inputs": [
        {
          "internalType": "address",
          "name": "_user",
          "type": "address"
        },
        {
          "internalType": "uint256",
          "name": "_price",
          "type": "uint256"
        },
        {
          "internalType": "uint256",
          "name": "_duration",
          "type": "uint256"
        }
      ],
      "name": "createSubscription",
      "outputs": [],
      "stateMutability": "nonpayable",
      "type": "function"
    },
    {
      "inputs": [],
      "name": "description",
      "outputs": [
        {
          "internalType": "string",
          "name": "",
          "type": "string"
        }
      ],
      "stateMutability": "view",
      "type": "function"
    },
    {
      "inputs": [],
      "name": "getDescription",
      "outputs": [
        {
          "internalType": "string",
          "name": "",
          "type": "string"
        }
      ],
      "stateMutability": "view",
      "type": "function"
    },
    {
      "inputs": [],
      "name": "getIsActive",
      "outputs": [
        {
          "internalType": "bool",
          "name": "",
          "type": "bool"
        }
      ],
      "stateMutability": "view",
      "type": "function"
    },
    {
      "inputs": [],
      "name": "getName",
      "outputs": [
        {
          "internalType": "string",
          "name": "",
          "type": "string"
        }
      ],
      "stateMutability": "view",
      "type": "function"
    },
    {
      "inputs": [],
      "name": "getOwner",
      "outputs": [
        {
          "internalType": "address",
          "name": "",
          "type": "address"
        }
      ],
      "stateMutability": "view",
      "type": "function"
    },
    {
      "inputs": [],
      "name": "getSubscriptions",
      "outputs": [
        {
          "internalType": "address[]",
          "name": "",
          "type": "address[]"
        },
        {
          "internalType": "uint256[]",
          "name": "",
          "type": "uint256[]"
        },
        {
          "internalType": "uint256[]",
          "name": "",
          "type": "uint256[]"
        },
        {
          "internalType": "uint256[]",
          "name": "",
          "type": "uint256[]"
        },
        {
          "internalType": "uint256[]",
          "name": "",
          "type": "uint256[]"
        },
        {
          "internalType": "uint256[]",
          "name": "",
          "type": "uint256[]"
        }
      ],
      "stateMutability": "view",
      "type": "function"
    },
    {
      "inputs": [],
      "name": "isActive",
      "outputs": [
        {
          "internalType": "bool",
          "name": "",
          "type": "bool"
        }
      ],
      "stateMutability": "view",
      "type": "function"
    },
    {
      "inputs": [],
      "name": "name",
      "outputs": [
        {
          "internalType": "string",
          "name": "",
          "type": "string"
        }
      ],
      "stateMutability": "view",
      "type": "function"
    },
    {
      "inputs": [
        {
          "internalType": "uint256",
          "name": "_tokenId",
          "type": "uint256"
        }
      ],
      "name": "paySubscription",
      "outputs": [],
      "stateMutability": "payable",
      "type": "function"
    },
    {
      "inputs": [
        {
          "internalType": "string",
          "name": "_description",
          "type": "string"
        }
      ],
      "name": "setDescription",
      "outputs": [],
      "stateMutability": "nonpayable",
      "type": "function"
    },
    {
      "inputs": [
        {
          "internalType": "bool",
          "name": "_isActive",
          "type": "bool"
        }
      ],
      "name": "setIsActive",
      "outputs": [],
      "stateMutability": "nonpayable",
      "type": "function"
    },
    {
      "inputs": [
        {
          "internalType": "string",
          "name": "_name",
          "type": "string"
        }
      ],
      "name": "setName",
      "outputs": [],
      "stateMutability": "nonpayable",
      "type": "function"
    }
  ],
  "bytecode": "0x60a06040526001600260006101000a81548160ff02191690831515021790555060006003553480156200003157600080fd5b506040516200292b3803806200292b8339818101604052810190620000579190620002b0565b8273ffffffffffffffffffffffffffffffffffffffff1660808173ffffffffffffffffffffffffffffffffffffffff168152505081600090816200009c919062000595565b508060019081620000ae919062000595565b505050506200067c565b6000604051905090565b600080fd5b600080fd5b600073ffffffffffffffffffffffffffffffffffffffff82169050919050565b6000620000f982620000cc565b9050919050565b6200010b81620000ec565b81146200011757600080fd5b50565b6000815190506200012b8162000100565b92915050565b600080fd5b600080fd5b6000601f19601f8301169050919050565b7f4e487b7100000000000000000000000000000000000000000000000000000000600052604160045260246000fd5b62000186826200013b565b810181811067ffffffffffffffff82111715620001a857620001a76200014c565b5b80604052505050565b6000620001bd620000b8565b9050620001cb82826200017b565b919050565b600067ffffffffffffffff821115620001ee57620001ed6200014c565b5b620001f9826200013b565b9050602081019050919050565b60005b838110156200022657808201518184015260208101905062000209565b60008484015250505050565b6000620002496200024384620001d0565b620001b1565b90508281526020810184848401111562000268576200026762000136565b5b6200027584828562000206565b509392505050565b600082601f83011262000295576200029462000131565b5b8151620002a784826020860162000232565b91505092915050565b600080600060608486031215620002cc57620002cb620000c2565b5b6000620002dc868287016200011a565b935050602084015167ffffffffffffffff8111156200030057620002ff620000c7565b5b6200030e868287016200027d565b925050604084015167ffffffffffffffff811115620003325762000331620000c7565b5b62000340868287016200027d565b9150509250925092565b600081519050919050565b7f4e487b7100000000000000000000000000000000000000000000000000000000600052602260045260246000fd5b600060028204905060018216806200039d57607f821691505b602082108103620003b357620003b262000355565b5b50919050565b60008190508160005260206000209050919050565b60006020601f8301049050919050565b600082821b905092915050565b6000600883026200041d7fffffffffffffffffffffffffffffffffffffffffffffffffffffffffffffffff82620003de565b620004298683620003de565b95508019841693508086168417925050509392505050565b6000819050919050565b6000819050919050565b600062000476620004706200046a8462000441565b6200044b565b62000441565b9050919050565b6000819050919050565b620004928362000455565b620004aa620004a1826200047d565b848454620003eb565b825550505050565b600090565b620004c1620004b2565b620004ce81848462000487565b505050565b5b81811015620004f657620004ea600082620004b7565b600181019050620004d4565b5050565b601f82111562000545576200050f81620003b9565b6200051a84620003ce565b810160208510156200052a578190505b620005426200053985620003ce565b830182620004d3565b50505b505050565b600082821c905092915050565b60006200056a600019846008026200054a565b1980831691505092915050565b600062000585838362000557565b9150826002028217905092915050565b620005a0826200034a565b67ffffffffffffffff811115620005bc57620005bb6200014c565b5b620005c8825462000384565b620005d5828285620004fa565b600060209050601f8311600181146200060d5760008415620005f8578287015190505b62000604858262000577565b86555062000674565b601f1984166200061d86620003b9565b60005b82811015620006475784890151825560018201915060208501945060208101905062000620565b8683101562000667578489015162000663601f89168262000557565b8355505b6001600288020188555050505b505050505050565b608051612285620006a66000396000818161061501528181610fe701526111dc01526122856000f3fe6080604052600436106100e85760003560e01c80633b47a9ac1161008a5780638a2405a8116100595780638a2405a8146102a957806390c3f38f146102d2578063c47f0027146102fb578063fba7cc7914610324576100e8565b80633b47a9ac146102075780637284e416146102375780637ac9b09814610262578063893d20e81461027e576100e8565b806321235083116100c6578063212350831461016e57806322f3e2d4146101975780632750fc78146101c25780633399d389146101eb576100e8565b806306fdde03146100ed57806317d7de7c146101185780631a09254114610143575b600080fd5b3480156100f957600080fd5b5061010261034f565b60405161010f919061161f565b60405180910390f35b34801561012457600080fd5b5061012d6103dd565b60405161013a919061161f565b60405180910390f35b34801561014f57600080fd5b5061015861046f565b604051610165919061161f565b60405180910390f35b34801561017a57600080fd5b506101956004803603810190610190919061168b565b610501565b005b3480156101a357600080fd5b506101ac61074b565b6040516101b991906116d3565b60405180910390f35b3480156101ce57600080fd5b506101e960048036038101906101e4919061171a565b61075e565b005b610205600480360381019061020091906117a5565b61077b565b005b34801561021357600080fd5b5061021c610a8f565b60405161022e96959493929190611974565b60405180910390f35b34801561024357600080fd5b5061024c610e45565b604051610259919061161f565b60405180910390f35b61027c6004803603810190610277919061168b565b610ed3565b005b34801561028a57600080fd5b506102936111d8565b6040516102a09190611a0e565b60405180910390f35b3480156102b557600080fd5b506102d060048036038101906102cb91906117a5565b611200565b005b3480156102de57600080fd5b506102f960048036038101906102f49190611b5e565b6114b4565b005b34801561030757600080fd5b50610322600480360381019061031d9190611b5e565b611516565b005b34801561033057600080fd5b50610339611578565b60405161034691906116d3565b60405180910390f35b6000805461035c90611bd6565b80601f016020809104026020016040519081016040528092919081815260200182805461038890611bd6565b80156103d55780601f106103aa576101008083540402835291602001916103d5565b820191906000526020600020905b8154815290600101906020018083116103b857829003601f168201915b505050505081565b6060600080546103ec90611bd6565b80601f016020809104026020016040519081016040528092919081815260200182805461041890611bd6565b80156104655780601f1061043a57610100808354040283529160200191610465565b820191906000526020600020905b81548152906001019060200180831161044857829003601f168201915b5050505050905090565b60606001805461047e90611bd6565b80601f01602080910402602001604051908101604052809291908181526020018280546104aa90611bd6565b80156104f75780601f106104cc576101008083540402835291602001916104f7565b820191906000526020600020905b8154815290600101906020018083116104da57829003601f168201915b5050505050905090565b80600073ffffffffffffffffffffffffffffffffffffffff166004600083815260200190815260200160002060000160009054906101000a900473ffffffffffffffffffffffffffffffffffffffff1673ffffffffffffffffffffffffffffffffffffffff16036105a7576040517f08c379a000000000000000000000000000000000000000000000000000000000815260040161059e90611c53565b60405180910390fd5b813373ffffffffffffffffffffffffffffffffffffffff166004600083815260200190815260200160002060000160009054906101000a900473ffffffffffffffffffffffffffffffffffffffff1673ffffffffffffffffffffffffffffffffffffffff16148061066357507f000000000000000000000000000000000000000000000000000000000000000073ffffffffffffffffffffffffffffffffffffffff163373ffffffffffffffffffffffffffffffffffffffff16145b6106a2576040517f08c379a000000000000000000000000000000000000000000000000000000000815260040161069990611cbf565b60405180910390fd5b600260009054906101000a900460ff166106f1576040517f08c379a00000000000000000000000000000000000000000000000000000000081526004016106e890611d2b565b60405180910390fd5b6103e8426106ff9190611d7a565b6004600085815260200190815260200160002060050181905550827fbd2bcea75d16a85f005cd83447e0de57341bf926fe7419e6d553663e91ab4da760405160405180910390a2505050565b600260009054906101000a900460ff1681565b80600260006101000a81548160ff02191690831515021790555050565b8260005b60035481101561086f578173ffffffffffffffffffffffffffffffffffffffff166004600083815260200190815260200160002060000160009054906101000a900473ffffffffffffffffffffffffffffffffffffffff1673ffffffffffffffffffffffffffffffffffffffff1614801561081c575060046000828152602001908152602001600020600501546103e84261081a9190611d7a565b105b1561085c576040517f08c379a000000000000000000000000000000000000000000000000000000000815260040161085390611e2e565b60405180910390fd5b808061086790611e4e565b91505061077f565b5082600081116108b4576040517f08c379a00000000000000000000000000000000000000000000000000000000081526004016108ab90611ee2565b60405180910390fd5b600260009054906101000a900460ff16610903576040517f08c379a00000000000000000000000000000000000000000000000000000000081526004016108fa90611d2b565b60405180910390fd5b60006040518060c001604052808773ffffffffffffffffffffffffffffffffffffffff16815260200160035481526020018681526020018581526020016103e84261094e9190611d7a565b81526020016103e862015180876109659190611d7a565b426109709190611f02565b61097a9190611d7a565b81525090508060046000600354815260200190815260200160002060008201518160000160006101000a81548173ffffffffffffffffffffffffffffffffffffffff021916908373ffffffffffffffffffffffffffffffffffffffff1602179055506020820151816001015560408201518160020155606082015181600301556080820151816004015560a082015181600501559050506003547f6a2b70dde6ae0193f84b6a9eeb3b0ebdc3a35e99d9167b88c570158dd09cb0f760405160405180910390a26003547f9040c259954b48f5dfdf60ea91e742403e7552202de9925d509fdd8187b2130b60405160405180910390a260036000815480929190610a8290611e4e565b9190505550505050505050565b606080606080606080600060035467ffffffffffffffff811115610ab657610ab5611a33565b5b604051908082528060200260200182016040528015610ae45781602001602082028036833780820191505090505b509050600060035467ffffffffffffffff811115610b0557610b04611a33565b5b604051908082528060200260200182016040528015610b335781602001602082028036833780820191505090505b509050600060035467ffffffffffffffff811115610b5457610b53611a33565b5b604051908082528060200260200182016040528015610b825781602001602082028036833780820191505090505b509050600060035467ffffffffffffffff811115610ba357610ba2611a33565b5b604051908082528060200260200182016040528015610bd15781602001602082028036833780820191505090505b509050600060035467ffffffffffffffff811115610bf257610bf1611a33565b5b604051908082528060200260200182016040528015610c205781602001602082028036833780820191505090505b509050600060035467ffffffffffffffff811115610c4157610c40611a33565b5b604051908082528060200260200182016040528015610c6f5781602001602082028036833780820191505090505b50905060005b600354811015610e24576004600082815260200190815260200160002060000160009054906101000a900473ffffffffffffffffffffffffffffffffffffffff16878281518110610cc957610cc8611f36565b5b602002602001019073ffffffffffffffffffffffffffffffffffffffff16908173ffffffffffffffffffffffffffffffffffffffff16815250506004600082815260200190815260200160002060010154868281518110610d2d57610d2c611f36565b5b6020026020010181815250506004600082815260200190815260200160002060020154858281518110610d6357610d62611f36565b5b6020026020010181815250506004600082815260200190815260200160002060030154848281518110610d9957610d98611f36565b5b6020026020010181815250506004600082815260200190815260200160002060040154838281518110610dcf57610dce611f36565b5b6020026020010181815250506004600082815260200190815260200160002060050154828281518110610e0557610e04611f36565b5b6020026020010181815250508080610e1c90611e4e565b915050610c75565b508585858585859b509b509b509b509b509b50505050505050909192939495565b60018054610e5290611bd6565b80601f0160208091040260200160405190810160405280929190818152602001828054610e7e90611bd6565b8015610ecb5780601f10610ea057610100808354040283529160200191610ecb565b820191906000526020600020905b815481529060010190602001808311610eae57829003601f168201915b505050505081565b80600073ffffffffffffffffffffffffffffffffffffffff166004600083815260200190815260200160002060000160009054906101000a900473ffffffffffffffffffffffffffffffffffffffff1673ffffffffffffffffffffffffffffffffffffffff1603610f79576040517f08c379a0000000000000000000000000000000000000000000000000000000008152600401610f7090611c53565b60405180910390fd5b813373ffffffffffffffffffffffffffffffffffffffff166004600083815260200190815260200160002060000160009054906101000a900473ffffffffffffffffffffffffffffffffffffffff1673ffffffffffffffffffffffffffffffffffffffff16148061103557507f000000000000000000000000000000000000000000000000000000000000000073ffffffffffffffffffffffffffffffffffffffff163373ffffffffffffffffffffffffffffffffffffffff16145b611074576040517f08c379a000000000000000000000000000000000000000000000000000000000815260040161106b90611cbf565b60405180910390fd5b600260009054906101000a900460ff166110c3576040517f08c379a00000000000000000000000000000000000000000000000000000000081526004016110ba90611d2b565b60405180910390fd5b6000349050600060046000868152602001908152602001600020600201549050808214611125576040517f08c379a000000000000000000000000000000000000000000000000000000000815260040161111c90611fb1565b60405180910390fd5b6103e8426111339190611d7a565b60046000878152602001908152602001600020600401819055506103e86201518060046000888152602001908152602001600020600301546111759190611d7a565b426111809190611f02565b61118a9190611d7a565b6004600087815260200190815260200160002060050181905550847f9040c259954b48f5dfdf60ea91e742403e7552202de9925d509fdd8187b2130b60405160405180910390a25050505050565b60007f0000000000000000000000000000000000000000000000000000000000000000905090565b8260005b6003548110156112f4578173ffffffffffffffffffffffffffffffffffffffff166004600083815260200190815260200160002060000160009054906101000a900473ffffffffffffffffffffffffffffffffffffffff1673ffffffffffffffffffffffffffffffffffffffff161480156112a1575060046000828152602001908152602001600020600501546103e84261129f9190611d7a565b105b156112e1576040517f08c379a00000000000000000000000000000000000000000000000000000000081526004016112d890611e2e565b60405180910390fd5b80806112ec90611e4e565b915050611204565b508260008111611339576040517f08c379a000000000000000000000000000000000000000000000000000000000815260040161133090611ee2565b60405180910390fd5b600260009054906101000a900460ff16611388576040517f08c379a000000000000000000000000000000000000000000000000000000000815260040161137f90611d2b565b60405180910390fd5b60006040518060c001604052808773ffffffffffffffffffffffffffffffffffffffff168152602001600354815260200186815260200185815260200160008152602001600081525090508060046000600354815260200190815260200160002060008201518160000160006101000a81548173ffffffffffffffffffffffffffffffffffffffff021916908373ffffffffffffffffffffffffffffffffffffffff1602179055506020820151816001015560408201518160020155606082015181600301556080820151816004015560a082015181600501559050506003547f6a2b70dde6ae0193f84b6a9eeb3b0ebdc3a35e99d9167b88c570158dd09cb0f760405160405180910390a2600360008154809291906114a790611e4e565b9190505550505050505050565b600260009054906101000a900460ff16611503576040517f08c379a00000000000000000000000000000000000000000000000000000000081526004016114fa90611d2b565b60405180910390fd5b8060019081611512919061217d565b5050565b600260009054906101000a900460ff16611565576040517f08c379a000000000000000000000000000000000000000000000000000000000815260040161155c90611d2b565b60405180910390fd5b8060009081611574919061217d565b5050565b6000600260009054906101000a900460ff16905090565b600081519050919050565b600082825260208201905092915050565b60005b838110156115c95780820151818401526020810190506115ae565b60008484015250505050565b6000601f19601f8301169050919050565b60006115f18261158f565b6115fb818561159a565b935061160b8185602086016115ab565b611614816115d5565b840191505092915050565b6000602082019050818103600083015261163981846115e6565b905092915050565b6000604051905090565b600080fd5b600080fd5b6000819050919050565b61166881611655565b811461167357600080fd5b50565b6000813590506116858161165f565b92915050565b6000602082840312156116a1576116a061164b565b5b60006116af84828501611676565b91505092915050565b60008115159050919050565b6116cd816116b8565b82525050565b60006020820190506116e860008301846116c4565b92915050565b6116f7816116b8565b811461170257600080fd5b50565b600081359050611714816116ee565b92915050565b6000602082840312156117305761172f61164b565b5b600061173e84828501611705565b91505092915050565b600073ffffffffffffffffffffffffffffffffffffffff82169050919050565b600061177282611747565b9050919050565b61178281611767565b811461178d57600080fd5b50565b60008135905061179f81611779565b92915050565b6000806000606084860312156117be576117bd61164b565b5b60006117cc86828701611790565b93505060206117dd86828701611676565b92505060406117ee86828701611676565b9150509250925092565b600081519050919050565b600082825260208201905092915050565b6000819050602082019050919050565b61182d81611767565b82525050565b600061183f8383611824565b60208301905092915050565b6000602082019050919050565b6000611863826117f8565b61186d8185611803565b935061187883611814565b8060005b838110156118a95781516118908882611833565b975061189b8361184b565b92505060018101905061187c565b5085935050505092915050565b600081519050919050565b600082825260208201905092915050565b6000819050602082019050919050565b6118eb81611655565b82525050565b60006118fd83836118e2565b60208301905092915050565b6000602082019050919050565b6000611921826118b6565b61192b81856118c1565b9350611936836118d2565b8060005b8381101561196757815161194e88826118f1565b975061195983611909565b92505060018101905061193a565b5085935050505092915050565b600060c082019050818103600083015261198e8189611858565b905081810360208301526119a28188611916565b905081810360408301526119b68187611916565b905081810360608301526119ca8186611916565b905081810360808301526119de8185611916565b905081810360a08301526119f28184611916565b9050979650505050505050565b611a0881611767565b82525050565b6000602082019050611a2360008301846119ff565b92915050565b600080fd5b600080fd5b7f4e487b7100000000000000000000000000000000000000000000000000000000600052604160045260246000fd5b611a6b826115d5565b810181811067ffffffffffffffff82111715611a8a57611a89611a33565b5b80604052505050565b6000611a9d611641565b9050611aa98282611a62565b919050565b600067ffffffffffffffff821115611ac957611ac8611a33565b5b611ad2826115d5565b9050602081019050919050565b82818337600083830152505050565b6000611b01611afc84611aae565b611a93565b905082815260208101848484011115611b1d57611b1c611a2e565b5b611b28848285611adf565b509392505050565b600082601f830112611b4557611b44611a29565b5b8135611b55848260208601611aee565b91505092915050565b600060208284031215611b7457611b7361164b565b5b600082013567ffffffffffffffff811115611b9257611b91611650565b5b611b9e84828501611b30565b91505092915050565b7f4e487b7100000000000000000000000000000000000000000000000000000000600052602260045260246000fd5b60006002820490506001821680611bee57607f821691505b602082108103611c0157611c00611ba7565b5b50919050565b7f537562736372697074696f6e20646f6573206e6f742065786973740000000000600082015250565b6000611c3d601b8361159a565b9150611c4882611c07565b602082019050919050565b60006020820190508181036000830152611c6c81611c30565b9050919050565b7f43616c6c6572206973206e6f7420746865207375627363726962657200000000600082015250565b6000611ca9601c8361159a565b9150611cb482611c73565b602082019050919050565b60006020820190508181036000830152611cd881611c9c565b9050919050565b7f53657276696365206973206e6f74206163746976650000000000000000000000600082015250565b6000611d1560158361159a565b9150611d2082611cdf565b602082019050919050565b60006020820190508181036000830152611d4481611d08565b9050919050565b7f4e487b7100000000000000000000000000000000000000000000000000000000600052601160045260246000fd5b6000611d8582611655565b9150611d9083611655565b9250828202611d9e81611655565b91508282048414831517611db557611db4611d4b565b5b5092915050565b7f5375627363726962657220616c72656164792068617320616e2061637469766560008201527f20737562736372697074696f6e00000000000000000000000000000000000000602082015250565b6000611e18602d8361159a565b9150611e2382611dbc565b604082019050919050565b60006020820190508181036000830152611e4781611e0b565b9050919050565b6000611e5982611655565b91507fffffffffffffffffffffffffffffffffffffffffffffffffffffffffffffffff8203611e8b57611e8a611d4b565b5b600182019050919050565b7f56616c7565206d7573742062652067726561746572207468616e207a65726f00600082015250565b6000611ecc601f8361159a565b9150611ed782611e96565b602082019050919050565b60006020820190508181036000830152611efb81611ebf565b9050919050565b6000611f0d82611655565b9150611f1883611655565b9250828201905080821115611f3057611f2f611d4b565b5b92915050565b7f4e487b7100000000000000000000000000000000000000000000000000000000600052603260045260246000fd5b7f496e76616c696420616d6f756e74000000000000000000000000000000000000600082015250565b6000611f9b600e8361159a565b9150611fa682611f65565b602082019050919050565b60006020820190508181036000830152611fca81611f8e565b9050919050565b60008190508160005260206000209050919050565b60006020601f8301049050919050565b600082821b905092915050565b6000600883026120337fffffffffffffffffffffffffffffffffffffffffffffffffffffffffffffffff82611ff6565b61203d8683611ff6565b95508019841693508086168417925050509392505050565b6000819050919050565b600061207a61207561207084611655565b612055565b611655565b9050919050565b6000819050919050565b6120948361205f565b6120a86120a082612081565b848454612003565b825550505050565b600090565b6120bd6120b0565b6120c881848461208b565b505050565b5b818110156120ec576120e16000826120b5565b6001810190506120ce565b5050565b601f8211156121315761210281611fd1565b61210b84611fe6565b8101602085101561211a578190505b61212e61212685611fe6565b8301826120cd565b50505b505050565b600082821c905092915050565b600061215460001984600802612136565b1980831691505092915050565b600061216d8383612143565b9150826002028217905092915050565b6121868261158f565b67ffffffffffffffff81111561219f5761219e611a33565b5b6121a98254611bd6565b6121b48282856120f0565b600060209050601f8311600181146121e757600084156121d5578287015190505b6121df8582612161565b865550612247565b601f1984166121f586611fd1565b60005b8281101561221d578489015182556001820191506020850194506020810190506121f8565b8683101561223a5784890151612236601f891682612143565b8355505b6001600288020188555050505b50505050505056fea26469706673582212204a5fe3b82988aed1b8045fe7b5a51828c7856f7a2a309b9a78621afb17bbd0c764736f6c63430008140033",
  "linkReferences": {},
  "deployedLinkReferences": {}
}