{
  "_format": "hh-sol-artifact-1",
  "contractName": "ServiceFactory",
  "sourceName": "contracts/ServiceFactory.sol",
  "abi": [
    {
      "inputs": [],
      "stateMutability": "nonpayable",
      "type": "constructor"
    },
    {
      "anonymous": false,
      "inputs": [
        {
          "indexed": false,
          "internalType": "address",
          "name": "serviceAddress",
          "type": "address"
        }
      ],
      "name": "ServiceCreated",
      "type": "event"
    },
    {
      "anonymous": false,
      "inputs": [
        {
          "indexed": false,
          "internalType": "address",
          "name": "serviceAddress",
          "type": "address"
        }
      ],
      "name": "ServiceNotFound",
      "type": "event"
    },
    {
      "inputs": [
        {
          "internalType": "string",
          "name": "_servicename",
          "type": "string"
        }
      ],
      "name": "checkNameAvailability",
      "outputs": [
        {
          "internalType": "bool",
          "name": "",
          "type": "bool"
        }
      ],
      "stateMutability": "view",
      "type": "function"
    },
    {
      "inputs": [],
      "name": "checkServices",
      "outputs": [],
      "stateMutability": "nonpayable",
      "type": "function"
    },
    {
      "inputs": [
        {
          "internalType": "string",
          "name": "_servicename",
          "type": "string"
        },
        {
          "internalType": "string",
          "name": "_servicedescription",
          "type": "string"
        }
      ],
      "name": "createService",
      "outputs": [],
      "stateMutability": "nonpayable",
      "type": "function"
    },
    {
      "inputs": [],
      "name": "getServicesAddresses",
      "outputs": [
        {
          "internalType": "address[]",
          "name": "",
          "type": "address[]"
        }
      ],
      "stateMutability": "view",
      "type": "function"
    },
    {
      "inputs": [
        {
          "internalType": "uint256",
          "name": "",
          "type": "uint256"
        }
      ],
      "name": "services",
      "outputs": [
        {
          "internalType": "contract Service",
          "name": "",
          "type": "address"
        }
      ],
      "stateMutability": "view",
      "type": "function"
    }
  ],
  "bytecode": "0x608060405234801561001057600080fd5b5061465d806100206000396000f3fe60806040523480156200001157600080fd5b50600436106200005e5760003560e01c80636a5e1f921462000063578063a6a46ccb1462000083578063bd5ec58f146200008f578063c22c4f4314620000b1578063eabfca6914620000e7575b600080fd5b6200008160048036038101906200007b91906200089f565b6200011d565b005b6200008d62000375565b005b6200009962000442565b604051620000a8919062000a26565b60405180910390f35b620000cf6004803603810190620000c9919062000a85565b6200055a565b604051620000de919062000b22565b60405180910390f35b620001056004803603810190620000ff919062000b3f565b6200059a565b60405162000114919062000bad565b60405180910390f35b8160005b60008054905081101562000291578160405160200162000142919062000c43565b60405160208183030381529060405280519060200120600082815481106200016f576200016e62000c5c565b5b9060005260206000200160009054906101000a900473ffffffffffffffffffffffffffffffffffffffff1673ffffffffffffffffffffffffffffffffffffffff166317d7de7c6040518163ffffffff1660e01b8152600401600060405180830381865afa158015620001e5573d6000803e3d6000fd5b505050506040513d6000823e3d601f19601f8201168201806040525081019062000210919062000d09565b60405160200162000222919062000c43565b60405160208183030381529060405280519060200120036200027b576040517f08c379a0000000000000000000000000000000000000000000000000000000008152600401620002729062000dbb565b60405180910390fd5b8080620002889062000e0c565b91505062000121565b506000338484604051620002a5906200071b565b620002b39392919062000eab565b604051809103906000f080158015620002d0573d6000803e3d6000fd5b5090506000819080600181540180825580915050600190039060005260206000200160009091909190916101000a81548173ffffffffffffffffffffffffffffffffffffffff021916908373ffffffffffffffffffffffffffffffffffffffff1602179055507fae046aa848296872ccdf284df55df8650f0cf3addb0f62eb26d9a10112c744508160405162000367919062000ef6565b60405180910390a150505050565b60005b6000805490508110156200043f57600081815481106200039d576200039c62000c5c565b5b9060005260206000200160009054906101000a900473ffffffffffffffffffffffffffffffffffffffff1673ffffffffffffffffffffffffffffffffffffffff1663c82494a26040518163ffffffff1660e01b8152600401600060405180830381600087803b1580156200041057600080fd5b505af115801562000425573d6000803e3d6000fd5b505050508080620004369062000e0c565b91505062000378565b50565b60606000808054905067ffffffffffffffff81111562000467576200046662000758565b5b604051908082528060200260200182016040528015620004965781602001602082028036833780820191505090505b50905060005b600080549050811015620005525760008181548110620004c157620004c062000c5c565b5b9060005260206000200160009054906101000a900473ffffffffffffffffffffffffffffffffffffffff1682828151811062000502576200050162000c5c565b5b602002602001019073ffffffffffffffffffffffffffffffffffffffff16908173ffffffffffffffffffffffffffffffffffffffff16815250508080620005499062000e0c565b9150506200049c565b508091505090565b600081815481106200056b57600080fd5b906000526020600020016000915054906101000a900473ffffffffffffffffffffffffffffffffffffffff1681565b60008160005b600080549050811015620007105781604051602001620005c1919062000c43565b6040516020818303038152906040528051906020012060008281548110620005ee57620005ed62000c5c565b5b9060005260206000200160009054906101000a900473ffffffffffffffffffffffffffffffffffffffff1673ffffffffffffffffffffffffffffffffffffffff166317d7de7c6040518163ffffffff1660e01b8152600401600060405180830381865afa15801562000664573d6000803e3d6000fd5b505050506040513d6000823e3d601f19601f820116820180604052508101906200068f919062000d09565b604051602001620006a1919062000c43565b6040516020818303038152906040528051906020012003620006fa576040517f08c379a0000000000000000000000000000000000000000000000000000000008152600401620006f19062000dbb565b60405180910390fd5b8080620007079062000e0c565b915050620005a0565b506001915050919050565b6137148062000f1483390190565b6000604051905090565b600080fd5b600080fd5b600080fd5b600080fd5b6000601f19601f8301169050919050565b7f4e487b7100000000000000000000000000000000000000000000000000000000600052604160045260246000fd5b620007928262000747565b810181811067ffffffffffffffff82111715620007b457620007b362000758565b5b80604052505050565b6000620007c962000729565b9050620007d7828262000787565b919050565b600067ffffffffffffffff821115620007fa57620007f962000758565b5b620008058262000747565b9050602081019050919050565b82818337600083830152505050565b6000620008386200083284620007dc565b620007bd565b90508281526020810184848401111562000857576200085662000742565b5b6200086484828562000812565b509392505050565b600082601f8301126200088457620008836200073d565b5b81356200089684826020860162000821565b91505092915050565b60008060408385031215620008b957620008b862000733565b5b600083013567ffffffffffffffff811115620008da57620008d962000738565b5b620008e8858286016200086c565b925050602083013567ffffffffffffffff8111156200090c576200090b62000738565b5b6200091a858286016200086c565b9150509250929050565b600081519050919050565b600082825260208201905092915050565b6000819050602082019050919050565b600073ffffffffffffffffffffffffffffffffffffffff82169050919050565b60006200097d8262000950565b9050919050565b6200098f8162000970565b82525050565b6000620009a3838362000984565b60208301905092915050565b6000602082019050919050565b6000620009c98262000924565b620009d581856200092f565b9350620009e28362000940565b8060005b8381101562000a19578151620009fd888262000995565b975062000a0a83620009af565b925050600181019050620009e6565b5085935050505092915050565b6000602082019050818103600083015262000a428184620009bc565b905092915050565b6000819050919050565b62000a5f8162000a4a565b811462000a6b57600080fd5b50565b60008135905062000a7f8162000a54565b92915050565b60006020828403121562000a9e5762000a9d62000733565b5b600062000aae8482850162000a6e565b91505092915050565b6000819050919050565b600062000ae262000adc62000ad68462000950565b62000ab7565b62000950565b9050919050565b600062000af68262000ac1565b9050919050565b600062000b0a8262000ae9565b9050919050565b62000b1c8162000afd565b82525050565b600060208201905062000b39600083018462000b11565b92915050565b60006020828403121562000b585762000b5762000733565b5b600082013567ffffffffffffffff81111562000b795762000b7862000738565b5b62000b87848285016200086c565b91505092915050565b60008115159050919050565b62000ba78162000b90565b82525050565b600060208201905062000bc4600083018462000b9c565b92915050565b600081519050919050565b600081905092915050565b60005b8381101562000c0057808201518184015260208101905062000be3565b60008484015250505050565b600062000c198262000bca565b62000c25818562000bd5565b935062000c3781856020860162000be0565b80840191505092915050565b600062000c51828462000c0c565b915081905092915050565b7f4e487b7100000000000000000000000000000000000000000000000000000000600052603260045260246000fd5b600062000ca262000c9c84620007dc565b620007bd565b90508281526020810184848401111562000cc15762000cc062000742565b5b62000cce84828562000be0565b509392505050565b600082601f83011262000cee5762000ced6200073d565b5b815162000d0084826020860162000c8b565b91505092915050565b60006020828403121562000d225762000d2162000733565b5b600082015167ffffffffffffffff81111562000d435762000d4262000738565b5b62000d518482850162000cd6565b91505092915050565b600082825260208201905092915050565b7f53657276696365206e616d6520697320616c72656164792074616b656e000000600082015250565b600062000da3601d8362000d5a565b915062000db08262000d6b565b602082019050919050565b6000602082019050818103600083015262000dd68162000d94565b9050919050565b7f4e487b7100000000000000000000000000000000000000000000000000000000600052601160045260246000fd5b600062000e198262000a4a565b91507fffffffffffffffffffffffffffffffffffffffffffffffffffffffffffffffff820362000e4e5762000e4d62000ddd565b5b600182019050919050565b62000e648162000970565b82525050565b600062000e778262000bca565b62000e83818562000d5a565b935062000e9581856020860162000be0565b62000ea08162000747565b840191505092915050565b600060608201905062000ec2600083018662000e59565b818103602083015262000ed6818562000e6a565b9050818103604083015262000eec818462000e6a565b9050949350505050565b600060208201905062000f0d600083018462000e59565b9291505056fe60a06040526001600260006101000a81548160ff02191690831515021790555060006003553480156200003157600080fd5b5060405162003714380380620037148339818101604052810190620000579190620002b0565b8273ffffffffffffffffffffffffffffffffffffffff1660808173ffffffffffffffffffffffffffffffffffffffff168152505081600090816200009c919062000595565b508060019081620000ae919062000595565b505050506200067c565b6000604051905090565b600080fd5b600080fd5b600073ffffffffffffffffffffffffffffffffffffffff82169050919050565b6000620000f982620000cc565b9050919050565b6200010b81620000ec565b81146200011757600080fd5b50565b6000815190506200012b8162000100565b92915050565b600080fd5b600080fd5b6000601f19601f8301169050919050565b7f4e487b7100000000000000000000000000000000000000000000000000000000600052604160045260246000fd5b62000186826200013b565b810181811067ffffffffffffffff82111715620001a857620001a76200014c565b5b80604052505050565b6000620001bd620000b8565b9050620001cb82826200017b565b919050565b600067ffffffffffffffff821115620001ee57620001ed6200014c565b5b620001f9826200013b565b9050602081019050919050565b60005b838110156200022657808201518184015260208101905062000209565b60008484015250505050565b6000620002496200024384620001d0565b620001b1565b90508281526020810184848401111562000268576200026762000136565b5b6200027584828562000206565b509392505050565b600082601f83011262000295576200029462000131565b5b8151620002a784826020860162000232565b91505092915050565b600080600060608486031215620002cc57620002cb620000c2565b5b6000620002dc868287016200011a565b935050602084015167ffffffffffffffff8111156200030057620002ff620000c7565b5b6200030e868287016200027d565b925050604084015167ffffffffffffffff811115620003325762000331620000c7565b5b62000340868287016200027d565b9150509250925092565b600081519050919050565b7f4e487b7100000000000000000000000000000000000000000000000000000000600052602260045260246000fd5b600060028204905060018216806200039d57607f821691505b602082108103620003b357620003b262000355565b5b50919050565b60008190508160005260206000209050919050565b60006020601f8301049050919050565b600082821b905092915050565b6000600883026200041d7fffffffffffffffffffffffffffffffffffffffffffffffffffffffffffffffff82620003de565b620004298683620003de565b95508019841693508086168417925050509392505050565b6000819050919050565b6000819050919050565b600062000476620004706200046a8462000441565b6200044b565b62000441565b9050919050565b6000819050919050565b620004928362000455565b620004aa620004a1826200047d565b848454620003eb565b825550505050565b600090565b620004c1620004b2565b620004ce81848462000487565b505050565b5b81811015620004f657620004ea600082620004b7565b600181019050620004d4565b5050565b601f82111562000545576200050f81620003b9565b6200051a84620003ce565b810160208510156200052a578190505b620005426200053985620003ce565b830182620004d3565b50505b505050565b600082821c905092915050565b60006200056a600019846008026200054a565b1980831691505092915050565b600062000585838362000557565b9150826002028217905092915050565b620005a0826200034a565b67ffffffffffffffff811115620005bc57620005bb6200014c565b5b620005c8825462000384565b620005d5828285620004fa565b600060209050601f8311600181146200060d5760008415620005f8578287015190505b62000604858262000577565b86555062000674565b601f1984166200061d86620003b9565b60005b82811015620006475784890151825560018201915060208501945060208101905062000620565b8683101562000667578489015162000663601f89168262000557565b8355505b6001600288020188555050505b505050505050565b60805161304b620006c9600039600081816106b0015281816109e7015281816113c6015281816116a1015281816118d501528181611bf801528181611ce80152611e19015261304b6000f3fe6080604052600436106101145760003560e01c8063718b57dc116100a057806390c3f38f1161006457806390c3f38f1461033f578063a4f96c0c14610368578063c47f00271461037f578063c82494a2146103a8578063fba7cc79146103bf57610114565b8063718b57dc1461027b5780637284e416146102a45780637ac9b098146102cf578063893d20e8146102eb5780638a2405a81461031657610114565b806321922488116100e757806321922488146101c357806322f3e2d4146101da5780632750fc78146102055780633399d3891461022e5780633b47a9ac1461024a57610114565b806306fdde031461011957806317d7de7c146101445780631a0925411461016f578063212350831461019a575b600080fd5b34801561012557600080fd5b5061012e6103ea565b60405161013b91906120c9565b60405180910390f35b34801561015057600080fd5b50610159610478565b60405161016691906120c9565b60405180910390f35b34801561017b57600080fd5b5061018461050a565b60405161019191906120c9565b60405180910390f35b3480156101a657600080fd5b506101c160048036038101906101bc9190612135565b61059c565b005b3480156101cf57600080fd5b506101d8610825565b005b3480156101e657600080fd5b506101ef6109d2565b6040516101fc919061217d565b60405180910390f35b34801561021157600080fd5b5061022c600480360381019061022791906121c4565b6109e5565b005b6102486004803603810190610243919061224f565b610a90565b005b34801561025657600080fd5b5061025f610dbe565b604051610272979695949392919061252a565b60405180910390f35b34801561028757600080fd5b506102a2600480360381019061029d91906126ff565b6113c4565b005b3480156102b057600080fd5b506102b96114ff565b6040516102c691906120c9565b60405180910390f35b6102e960048036038101906102e49190612135565b61158d565b005b3480156102f757600080fd5b506103006118d1565b60405161030d9190612786565b60405180910390f35b34801561032257600080fd5b5061033d6004803603810190610338919061224f565b6118f9565b005b34801561034b57600080fd5b50610366600480360381019061036191906127a1565b611bf6565b005b34801561037457600080fd5b5061037d611ce6565b005b34801561038b57600080fd5b506103a660048036038101906103a191906127a1565b611e17565b005b3480156103b457600080fd5b506103bd611f07565b005b3480156103cb57600080fd5b506103d4612022565b6040516103e1919061217d565b60405180910390f35b600080546103f790612819565b80601f016020809104026020016040519081016040528092919081815260200182805461042390612819565b80156104705780601f1061044557610100808354040283529160200191610470565b820191906000526020600020905b81548152906001019060200180831161045357829003601f168201915b505050505081565b60606000805461048790612819565b80601f01602080910402602001604051908101604052809291908181526020018280546104b390612819565b80156105005780601f106104d557610100808354040283529160200191610500565b820191906000526020600020905b8154815290600101906020018083116104e357829003601f168201915b5050505050905090565b60606001805461051990612819565b80601f016020809104026020016040519081016040528092919081815260200182805461054590612819565b80156105925780601f1061056757610100808354040283529160200191610592565b820191906000526020600020905b81548152906001019060200180831161057557829003601f168201915b5050505050905090565b80600073ffffffffffffffffffffffffffffffffffffffff166004600083815260200190815260200160002060000160009054906101000a900473ffffffffffffffffffffffffffffffffffffffff1673ffffffffffffffffffffffffffffffffffffffff1603610642576040517f08c379a000000000000000000000000000000000000000000000000000000000815260040161063990612896565b60405180910390fd5b813373ffffffffffffffffffffffffffffffffffffffff166004600083815260200190815260200160002060000160009054906101000a900473ffffffffffffffffffffffffffffffffffffffff1673ffffffffffffffffffffffffffffffffffffffff1614806106fe57507f000000000000000000000000000000000000000000000000000000000000000073ffffffffffffffffffffffffffffffffffffffff163373ffffffffffffffffffffffffffffffffffffffff16145b61073d576040517f08c379a000000000000000000000000000000000000000000000000000000000815260040161073490612902565b60405180910390fd5b600260009054906101000a900460ff1661078c576040517f08c379a00000000000000000000000000000000000000000000000000000000081526004016107839061296e565b60405180910390fd5b6103e84261079a91906129bd565b600460008581526020019081526020016000206005018190555060036004600085815260200190815260200160002060060160006101000a81548160ff021916908360038111156107ee576107ed6129ff565b5b0217905550827fbd2bcea75d16a85f005cd83447e0de57341bf926fe7419e6d553663e91ab4da760405160405180910390a2505050565b60006040518060e001604052803373ffffffffffffffffffffffffffffffffffffffff1681526020016003548152602001670de0b6b3a76400008152602001601e81526020016103e8624f1a004261087d9190612a2e565b61088791906129bd565b81526020016103e862278d004261089e9190612a2e565b6108a891906129bd565b8152602001600160038111156108c1576108c06129ff565b5b81525090508060046000600354815260200190815260200160002060008201518160000160006101000a81548173ffffffffffffffffffffffffffffffffffffffff021916908373ffffffffffffffffffffffffffffffffffffffff1602179055506020820151816001015560408201518160020155606082015181600301556080820151816004015560a0820151816005015560c08201518160060160006101000a81548160ff021916908360038111156109805761097f6129ff565b5b02179055509050506003547f6a2b70dde6ae0193f84b6a9eeb3b0ebdc3a35e99d9167b88c570158dd09cb0f760405160405180910390a2600360008154809291906109ca90612a62565b919050555050565b600260009054906101000a900460ff1681565b7f000000000000000000000000000000000000000000000000000000000000000073ffffffffffffffffffffffffffffffffffffffff163373ffffffffffffffffffffffffffffffffffffffff1614610a73576040517f08c379a0000000000000000000000000000000000000000000000000000000008152600401610a6a90612af6565b60405180910390fd5b80600260006101000a81548160ff02191690831515021790555050565b8260005b600354811015610b84578173ffffffffffffffffffffffffffffffffffffffff166004600083815260200190815260200160002060000160009054906101000a900473ffffffffffffffffffffffffffffffffffffffff1673ffffffffffffffffffffffffffffffffffffffff16148015610b31575060046000828152602001908152602001600020600501546103e842610b2f91906129bd565b105b15610b71576040517f08c379a0000000000000000000000000000000000000000000000000000000008152600401610b6890612b88565b60405180910390fd5b8080610b7c90612a62565b915050610a94565b508260008111610bc9576040517f08c379a0000000000000000000000000000000000000000000000000000000008152600401610bc090612bf4565b60405180910390fd5b600260009054906101000a900460ff16610c18576040517f08c379a0000000000000000000000000000000000000000000000000000000008152600401610c0f9061296e565b60405180910390fd5b60006040518060e001604052808773ffffffffffffffffffffffffffffffffffffffff16815260200160035481526020018681526020018581526020016103e842610c6391906129bd565b81526020016103e86201518087610c7a91906129bd565b42610c859190612c14565b610c8f91906129bd565b815260200160016003811115610ca857610ca76129ff565b5b81525090508060046000600354815260200190815260200160002060008201518160000160006101000a81548173ffffffffffffffffffffffffffffffffffffffff021916908373ffffffffffffffffffffffffffffffffffffffff1602179055506020820151816001015560408201518160020155606082015181600301556080820151816004015560a0820151816005015560c08201518160060160006101000a81548160ff02191690836003811115610d6757610d666129ff565b5b02179055509050506003547ffc92a747fa9c2199bb773d08eb7a76c871b1c9b634b5a1afc3cc4ccc643032e660405160405180910390a260036000815480929190610db190612a62565b9190505550505050505050565b6060806060806060806060600060035467ffffffffffffffff811115610de757610de66125d4565b5b604051908082528060200260200182016040528015610e155781602001602082028036833780820191505090505b509050600060035467ffffffffffffffff811115610e3657610e356125d4565b5b604051908082528060200260200182016040528015610e645781602001602082028036833780820191505090505b509050600060035467ffffffffffffffff811115610e8557610e846125d4565b5b604051908082528060200260200182016040528015610eb35781602001602082028036833780820191505090505b509050600060035467ffffffffffffffff811115610ed457610ed36125d4565b5b604051908082528060200260200182016040528015610f025781602001602082028036833780820191505090505b509050600060035467ffffffffffffffff811115610f2357610f226125d4565b5b604051908082528060200260200182016040528015610f515781602001602082028036833780820191505090505b509050600060035467ffffffffffffffff811115610f7257610f716125d4565b5b604051908082528060200260200182016040528015610fa05781602001602082028036833780820191505090505b509050600060035467ffffffffffffffff811115610fc157610fc06125d4565b5b604051908082528060200260200182016040528015610ff457816020015b6060815260200190600190039081610fdf5790505b50905060005b60035481101561139e576004600082815260200190815260200160002060000160009054906101000a900473ffffffffffffffffffffffffffffffffffffffff1688828151811061104e5761104d612c48565b5b602002602001019073ffffffffffffffffffffffffffffffffffffffff16908173ffffffffffffffffffffffffffffffffffffffff168152505060046000828152602001908152602001600020600101548782815181106110b2576110b1612c48565b5b60200260200101818152505060046000828152602001908152602001600020600201548682815181106110e8576110e7612c48565b5b602002602001018181525050600460008281526020019081526020016000206003015485828151811061111e5761111d612c48565b5b602002602001018181525050600460008281526020019081526020016000206004015484828151811061115457611153612c48565b5b602002602001018181525050600460008281526020019081526020016000206005015483828151811061118a57611189612c48565b5b602002602001018181525050600060038111156111aa576111a96129ff565b5b6004600083815260200190815260200160002060060160009054906101000a900460ff1660038111156111e0576111df6129ff565b5b1461133657600160038111156111f9576111f86129ff565b5b6004600083815260200190815260200160002060060160009054906101000a900460ff16600381111561122f5761122e6129ff565b5b146112fa5760026003811115611248576112476129ff565b5b6004600083815260200190815260200160002060060160009054906101000a900460ff16600381111561127e5761127d6129ff565b5b146112be576040518060400160405280600981526020017f43616e63656c6c656400000000000000000000000000000000000000000000008152506112f5565b6040518060400160405280600781526020017f45787069726564000000000000000000000000000000000000000000000000008152505b611331565b6040518060400160405280600781526020017f4f6e676f696e67000000000000000000000000000000000000000000000000008152505b61136d565b6040518060400160405280600381526020017f4e657700000000000000000000000000000000000000000000000000000000008152505b8282815181106113805761137f612c48565b5b6020026020010181905250808061139690612a62565b915050610ffa565b50868686868686869d509d509d509d509d509d509d505050505050505090919293949596565b7f000000000000000000000000000000000000000000000000000000000000000073ffffffffffffffffffffffffffffffffffffffff163373ffffffffffffffffffffffffffffffffffffffff1614611452576040517f08c379a000000000000000000000000000000000000000000000000000000000815260040161144990612af6565b60405180910390fd5b600260009054906101000a900460ff166114a1576040517f08c379a00000000000000000000000000000000000000000000000000000000081526004016114989061296e565b60405180910390fd5b81600090816114b09190612e23565b5080600190816114c09190612e23565b507f4753ea05804b68917fe65e38a8d48a1c098336025a4e9f9bb64e37afe72680083060006040516114f3929190612f79565b60405180910390a15050565b6001805461150c90612819565b80601f016020809104026020016040519081016040528092919081815260200182805461153890612819565b80156115855780601f1061155a57610100808354040283529160200191611585565b820191906000526020600020905b81548152906001019060200180831161156857829003601f168201915b505050505081565b80600073ffffffffffffffffffffffffffffffffffffffff166004600083815260200190815260200160002060000160009054906101000a900473ffffffffffffffffffffffffffffffffffffffff1673ffffffffffffffffffffffffffffffffffffffff1603611633576040517f08c379a000000000000000000000000000000000000000000000000000000000815260040161162a90612896565b60405180910390fd5b813373ffffffffffffffffffffffffffffffffffffffff166004600083815260200190815260200160002060000160009054906101000a900473ffffffffffffffffffffffffffffffffffffffff1673ffffffffffffffffffffffffffffffffffffffff1614806116ef57507f000000000000000000000000000000000000000000000000000000000000000073ffffffffffffffffffffffffffffffffffffffff163373ffffffffffffffffffffffffffffffffffffffff16145b61172e576040517f08c379a000000000000000000000000000000000000000000000000000000000815260040161172590612902565b60405180910390fd5b600260009054906101000a900460ff1661177d576040517f08c379a00000000000000000000000000000000000000000000000000000000081526004016117749061296e565b60405180910390fd5b60003490506000600460008681526020019081526020016000206002015490508082146117df576040517f08c379a00000000000000000000000000000000000000000000000000000000081526004016117d690612ff5565b60405180910390fd5b6103e8426117ed91906129bd565b60046000878152602001908152602001600020600401819055506103e862015180600460008881526020019081526020016000206003015461182f91906129bd565b4261183a9190612c14565b61184491906129bd565b600460008781526020019081526020016000206005018190555060016004600087815260200190815260200160002060060160006101000a81548160ff02191690836003811115611898576118976129ff565b5b0217905550847f9040c259954b48f5dfdf60ea91e742403e7552202de9925d509fdd8187b2130b60405160405180910390a25050505050565b60007f0000000000000000000000000000000000000000000000000000000000000000905090565b8260005b6003548110156119ed578173ffffffffffffffffffffffffffffffffffffffff166004600083815260200190815260200160002060000160009054906101000a900473ffffffffffffffffffffffffffffffffffffffff1673ffffffffffffffffffffffffffffffffffffffff1614801561199a575060046000828152602001908152602001600020600501546103e84261199891906129bd565b105b156119da576040517f08c379a00000000000000000000000000000000000000000000000000000000081526004016119d190612b88565b60405180910390fd5b80806119e590612a62565b9150506118fd565b508260008111611a32576040517f08c379a0000000000000000000000000000000000000000000000000000000008152600401611a2990612bf4565b60405180910390fd5b600260009054906101000a900460ff16611a81576040517f08c379a0000000000000000000000000000000000000000000000000000000008152600401611a789061296e565b60405180910390fd5b60006040518060e001604052808773ffffffffffffffffffffffffffffffffffffffff1681526020016003548152602001868152602001858152602001600081526020016000815260200160006003811115611ae057611adf6129ff565b5b81525090508060046000600354815260200190815260200160002060008201518160000160006101000a81548173ffffffffffffffffffffffffffffffffffffffff021916908373ffffffffffffffffffffffffffffffffffffffff1602179055506020820151816001015560408201518160020155606082015181600301556080820151816004015560a0820151816005015560c08201518160060160006101000a81548160ff02191690836003811115611b9f57611b9e6129ff565b5b02179055509050506003547f6a2b70dde6ae0193f84b6a9eeb3b0ebdc3a35e99d9167b88c570158dd09cb0f760405160405180910390a260036000815480929190611be990612a62565b9190505550505050505050565b7f000000000000000000000000000000000000000000000000000000000000000073ffffffffffffffffffffffffffffffffffffffff163373ffffffffffffffffffffffffffffffffffffffff1614611c84576040517f08c379a0000000000000000000000000000000000000000000000000000000008152600401611c7b90612af6565b60405180910390fd5b600260009054906101000a900460ff16611cd3576040517f08c379a0000000000000000000000000000000000000000000000000000000008152600401611cca9061296e565b60405180910390fd5b8060019081611ce29190612e23565b5050565b7f000000000000000000000000000000000000000000000000000000000000000073ffffffffffffffffffffffffffffffffffffffff163373ffffffffffffffffffffffffffffffffffffffff1614611d74576040517f08c379a0000000000000000000000000000000000000000000000000000000008152600401611d6b90612af6565b60405180910390fd5b600260009054906101000a900460ff16611dc3576040517f08c379a0000000000000000000000000000000000000000000000000000000008152600401611dba9061296e565b60405180910390fd5b6000600260006101000a81548160ff0219169083151502179055507f86d6aa2827e28270c1635780e8a17d61c38028e75531a0a25c5004862521289d30604051611e0d9190612786565b60405180910390a1565b7f000000000000000000000000000000000000000000000000000000000000000073ffffffffffffffffffffffffffffffffffffffff163373ffffffffffffffffffffffffffffffffffffffff1614611ea5576040517f08c379a0000000000000000000000000000000000000000000000000000000008152600401611e9c90612af6565b60405180910390fd5b600260009054906101000a900460ff16611ef4576040517f08c379a0000000000000000000000000000000000000000000000000000000008152600401611eeb9061296e565b60405180910390fd5b8060009081611f039190612e23565b5050565b60005b60035481101561201f5760046000828152602001908152602001600020600501546103e842611f3991906129bd565b118015611f8d575060016003811115611f5557611f546129ff565b5b6004600083815260200190815260200160002060060160009054906101000a900460ff166003811115611f8b57611f8a6129ff565b5b145b1561200c5760026004600083815260200190815260200160002060060160006101000a81548160ff02191690836003811115611fcc57611fcb6129ff565b5b02179055507f4753ea05804b68917fe65e38a8d48a1c098336025a4e9f9bb64e37afe7268008306000604051612003929190612f79565b60405180910390a15b808061201790612a62565b915050611f0a565b50565b6000600260009054906101000a900460ff16905090565b600081519050919050565b600082825260208201905092915050565b60005b83811015612073578082015181840152602081019050612058565b60008484015250505050565b6000601f19601f8301169050919050565b600061209b82612039565b6120a58185612044565b93506120b5818560208601612055565b6120be8161207f565b840191505092915050565b600060208201905081810360008301526120e38184612090565b905092915050565b6000604051905090565b600080fd5b600080fd5b6000819050919050565b612112816120ff565b811461211d57600080fd5b50565b60008135905061212f81612109565b92915050565b60006020828403121561214b5761214a6120f5565b5b600061215984828501612120565b91505092915050565b60008115159050919050565b61217781612162565b82525050565b6000602082019050612192600083018461216e565b92915050565b6121a181612162565b81146121ac57600080fd5b50565b6000813590506121be81612198565b92915050565b6000602082840312156121da576121d96120f5565b5b60006121e8848285016121af565b91505092915050565b600073ffffffffffffffffffffffffffffffffffffffff82169050919050565b600061221c826121f1565b9050919050565b61222c81612211565b811461223757600080fd5b50565b60008135905061224981612223565b92915050565b600080600060608486031215612268576122676120f5565b5b60006122768682870161223a565b935050602061228786828701612120565b925050604061229886828701612120565b9150509250925092565b600081519050919050565b600082825260208201905092915050565b6000819050602082019050919050565b6122d781612211565b82525050565b60006122e983836122ce565b60208301905092915050565b6000602082019050919050565b600061230d826122a2565b61231781856122ad565b9350612322836122be565b8060005b8381101561235357815161233a88826122dd565b9750612345836122f5565b925050600181019050612326565b5085935050505092915050565b600081519050919050565b600082825260208201905092915050565b6000819050602082019050919050565b612395816120ff565b82525050565b60006123a7838361238c565b60208301905092915050565b6000602082019050919050565b60006123cb82612360565b6123d5818561236b565b93506123e08361237c565b8060005b838110156124115781516123f8888261239b565b9750612403836123b3565b9250506001810190506123e4565b5085935050505092915050565b600081519050919050565b600082825260208201905092915050565b6000819050602082019050919050565b600082825260208201905092915050565b600061246682612039565b612470818561244a565b9350612480818560208601612055565b6124898161207f565b840191505092915050565b60006124a0838361245b565b905092915050565b6000602082019050919050565b60006124c08261241e565b6124ca8185612429565b9350836020820285016124dc8561243a565b8060005b8581101561251857848403895281516124f98582612494565b9450612504836124a8565b925060208a019950506001810190506124e0565b50829750879550505050505092915050565b600060e0820190508181036000830152612544818a612302565b9050818103602083015261255881896123c0565b9050818103604083015261256c81886123c0565b9050818103606083015261258081876123c0565b9050818103608083015261259481866123c0565b905081810360a08301526125a881856123c0565b905081810360c08301526125bc81846124b5565b905098975050505050505050565b600080fd5b600080fd5b7f4e487b7100000000000000000000000000000000000000000000000000000000600052604160045260246000fd5b61260c8261207f565b810181811067ffffffffffffffff8211171561262b5761262a6125d4565b5b80604052505050565b600061263e6120eb565b905061264a8282612603565b919050565b600067ffffffffffffffff82111561266a576126696125d4565b5b6126738261207f565b9050602081019050919050565b82818337600083830152505050565b60006126a261269d8461264f565b612634565b9050828152602081018484840111156126be576126bd6125cf565b5b6126c9848285612680565b509392505050565b600082601f8301126126e6576126e56125ca565b5b81356126f684826020860161268f565b91505092915050565b60008060408385031215612716576127156120f5565b5b600083013567ffffffffffffffff811115612734576127336120fa565b5b612740858286016126d1565b925050602083013567ffffffffffffffff811115612761576127606120fa565b5b61276d858286016126d1565b9150509250929050565b61278081612211565b82525050565b600060208201905061279b6000830184612777565b92915050565b6000602082840312156127b7576127b66120f5565b5b600082013567ffffffffffffffff8111156127d5576127d46120fa565b5b6127e1848285016126d1565b91505092915050565b7f4e487b7100000000000000000000000000000000000000000000000000000000600052602260045260246000fd5b6000600282049050600182168061283157607f821691505b602082108103612844576128436127ea565b5b50919050565b7f537562736372697074696f6e20646f6573206e6f742065786973740000000000600082015250565b6000612880601b83612044565b915061288b8261284a565b602082019050919050565b600060208201905081810360008301526128af81612873565b9050919050565b7f43616c6c6572206973206e6f7420746865207375627363726962657200000000600082015250565b60006128ec601c83612044565b91506128f7826128b6565b602082019050919050565b6000602082019050818103600083015261291b816128df565b9050919050565b7f53657276696365206973206e6f74206163746976650000000000000000000000600082015250565b6000612958601583612044565b915061296382612922565b602082019050919050565b600060208201905081810360008301526129878161294b565b9050919050565b7f4e487b7100000000000000000000000000000000000000000000000000000000600052601160045260246000fd5b60006129c8826120ff565b91506129d3836120ff565b92508282026129e1816120ff565b915082820484148315176129f8576129f761298e565b5b5092915050565b7f4e487b7100000000000000000000000000000000000000000000000000000000600052602160045260246000fd5b6000612a39826120ff565b9150612a44836120ff565b9250828203905081811115612a5c57612a5b61298e565b5b92915050565b6000612a6d826120ff565b91507fffffffffffffffffffffffffffffffffffffffffffffffffffffffffffffffff8203612a9f57612a9e61298e565b5b600182019050919050565b7f4f6e6c79206f776e657220697320616c6c6f7765640000000000000000000000600082015250565b6000612ae0601583612044565b9150612aeb82612aaa565b602082019050919050565b60006020820190508181036000830152612b0f81612ad3565b9050919050565b7f5375627363726962657220616c72656164792068617320616e2061637469766560008201527f20737562736372697074696f6e00000000000000000000000000000000000000602082015250565b6000612b72602d83612044565b9150612b7d82612b16565b604082019050919050565b60006020820190508181036000830152612ba181612b65565b9050919050565b7f56616c7565206d7573742062652067726561746572207468616e207a65726f00600082015250565b6000612bde601f83612044565b9150612be982612ba8565b602082019050919050565b60006020820190508181036000830152612c0d81612bd1565b9050919050565b6000612c1f826120ff565b9150612c2a836120ff565b9250828201905080821115612c4257612c4161298e565b5b92915050565b7f4e487b7100000000000000000000000000000000000000000000000000000000600052603260045260246000fd5b60008190508160005260206000209050919050565b60006020601f8301049050919050565b600082821b905092915050565b600060088302612cd97fffffffffffffffffffffffffffffffffffffffffffffffffffffffffffffffff82612c9c565b612ce38683612c9c565b95508019841693508086168417925050509392505050565b6000819050919050565b6000612d20612d1b612d16846120ff565b612cfb565b6120ff565b9050919050565b6000819050919050565b612d3a83612d05565b612d4e612d4682612d27565b848454612ca9565b825550505050565b600090565b612d63612d56565b612d6e818484612d31565b505050565b5b81811015612d9257612d87600082612d5b565b600181019050612d74565b5050565b601f821115612dd757612da881612c77565b612db184612c8c565b81016020851015612dc0578190505b612dd4612dcc85612c8c565b830182612d73565b50505b505050565b600082821c905092915050565b6000612dfa60001984600802612ddc565b1980831691505092915050565b6000612e138383612de9565b9150826002028217905092915050565b612e2c82612039565b67ffffffffffffffff811115612e4557612e446125d4565b5b612e4f8254612819565b612e5a828285612d96565b600060209050601f831160018114612e8d5760008415612e7b578287015190505b612e858582612e07565b865550612eed565b601f198416612e9b86612c77565b60005b82811015612ec357848901518255600182019150602085019450602081019050612e9e565b86831015612ee05784890151612edc601f891682612de9565b8355505b6001600288020188555050505b505050505050565b60008154612f0281612819565b612f0c8186612044565b94506001821660008114612f275760018114612f3d57612f70565b60ff198316865281151560200286019350612f70565b612f4685612c77565b60005b83811015612f6857815481890152600182019150602081019050612f49565b808801955050505b50505092915050565b6000604082019050612f8e6000830185612777565b8181036020830152612fa08184612ef5565b90509392505050565b7f496e76616c696420616d6f756e74000000000000000000000000000000000000600082015250565b6000612fdf600e83612044565b9150612fea82612fa9565b602082019050919050565b6000602082019050818103600083015261300e81612fd2565b905091905056fea2646970667358221220620e59e2d8d6837f9c0fd4625424c4537d8f41e0379024bdf0090b15cf9917b964736f6c63430008140033a26469706673582212200768e681f801ff14f0836afee0c964f07a623670531e9740542b0a94915ce8cf64736f6c63430008140033",
  "linkReferences": {},
  "deployedLinkReferences": {}
}