{
  "_format": "hh-sol-artifact-1",
  "contractName": "ServiceFactory",
  "sourceName": "contracts/ServiceFactory.sol",
  "abi": [
    {
      "inputs": [],
      "stateMutability": "nonpayable",
      "type": "constructor"
    },
    {
      "anonymous": false,
      "inputs": [
        {
          "indexed": true,
          "internalType": "address",
          "name": "seller",
          "type": "address"
        },
        {
          "indexed": false,
          "internalType": "address",
          "name": "serviceAddress",
          "type": "address"
        }
      ],
      "name": "ServiceCreated",
      "type": "event"
    },
    {
      "anonymous": false,
      "inputs": [
        {
          "indexed": true,
          "internalType": "address",
          "name": "seller",
          "type": "address"
        },
        {
          "indexed": false,
          "internalType": "address",
          "name": "serviceAddress",
          "type": "address"
        }
      ],
      "name": "ServiceDeactivate",
      "type": "event"
    },
    {
      "anonymous": false,
      "inputs": [
        {
          "indexed": true,
          "internalType": "address",
          "name": "seller",
          "type": "address"
        },
        {
          "indexed": false,
          "internalType": "address",
          "name": "serviceAddress",
          "type": "address"
        }
      ],
      "name": "ServiceUpdated",
      "type": "event"
    },
    {
      "inputs": [
        {
          "internalType": "string",
          "name": "_servicename",
          "type": "string"
        },
        {
          "internalType": "string",
          "name": "_servicedescription",
          "type": "string"
        }
      ],
      "name": "createService",
      "outputs": [],
      "stateMutability": "nonpayable",
      "type": "function"
    },
    {
      "inputs": [
        {
          "internalType": "string",
          "name": "_servicename",
          "type": "string"
        }
      ],
      "name": "deactivateService",
      "outputs": [],
      "stateMutability": "nonpayable",
      "type": "function"
    },
    {
      "inputs": [],
      "name": "getServicesAddresses",
      "outputs": [
        {
          "internalType": "address[]",
          "name": "",
          "type": "address[]"
        }
      ],
      "stateMutability": "view",
      "type": "function"
    },
    {
      "inputs": [
        {
          "internalType": "uint256",
          "name": "",
          "type": "uint256"
        }
      ],
      "name": "services",
      "outputs": [
        {
          "internalType": "contract Service",
          "name": "",
          "type": "address"
        }
      ],
      "stateMutability": "view",
      "type": "function"
    },
    {
      "inputs": [
        {
          "internalType": "string",
          "name": "_servicename",
          "type": "string"
        },
        {
          "internalType": "string",
          "name": "_servicedescription",
          "type": "string"
        }
      ],
      "name": "updateService",
      "outputs": [],
      "stateMutability": "nonpayable",
      "type": "function"
    }
  ],
  "bytecode": "0x60a060405234801561001057600080fd5b503373ffffffffffffffffffffffffffffffffffffffff1660808173ffffffffffffffffffffffffffffffffffffffff1681525050608051614cc861005d60003960005050614cc86000f3fe60806040523480156200001157600080fd5b50600436106200005e5760003560e01c80636a5e1f921462000063578063718b57dc1462000083578063956a9e1514620000a3578063bd5ec58f14620000c3578063c22c4f4314620000e5575b600080fd5b6200008160048036038101906200007b91906200173a565b6200011b565b005b620000a160048036038101906200009b91906200173a565b62000214565b005b620000c16004803603810190620000bb9190620017bf565b62000b91565b005b620000cd6200145e565b604051620000dc919062001912565b60405180910390f35b620001036004803603810190620000fd919062001971565b62001576565b60405162000112919062001a0e565b60405180910390f35b60003383836040516200012e90620015b6565b6200013c9392919062001ac5565b604051809103906000f08015801562000159573d6000803e3d6000fd5b5090506000819080600181540180825580915050600190039060005260206000200160009091909190916101000a81548173ffffffffffffffffffffffffffffffffffffffff021916908373ffffffffffffffffffffffffffffffffffffffff1602179055503373ffffffffffffffffffffffffffffffffffffffff167f8c7aaaeebf752abf043872061bbbd8963e7ad51c16f16dd260e42d4565fe4f318260405162000207919062001b10565b60405180910390a2505050565b816000805b6000805490508110156200047957826040516020016200023a919062001b6f565b604051602081830303815290604052805190602001206000828154811062000267576200026662001b88565b5b9060005260206000200160009054906101000a900473ffffffffffffffffffffffffffffffffffffffff1673ffffffffffffffffffffffffffffffffffffffff166306fdde036040518163ffffffff1660e01b8152600401600060405180830381865afa158015620002dd573d6000803e3d6000fd5b505050506040513d6000823e3d601f19601f8201168201806040525081019062000308919062001c35565b6040516020016200031a919062001b6f565b60405160208183030381529060405280519060200120036200046357600081815481106200034d576200034c62001b88565b5b9060005260206000200160009054906101000a900473ffffffffffffffffffffffffffffffffffffffff1673ffffffffffffffffffffffffffffffffffffffff1663893d20e86040518163ffffffff1660e01b8152600401602060405180830381865afa158015620003c3573d6000803e3d6000fd5b505050506040513d601f19601f82011682018060405250810190620003e9919062001cb7565b73ffffffffffffffffffffffffffffffffffffffff163373ffffffffffffffffffffffffffffffffffffffff161462000459576040517f08c379a0000000000000000000000000000000000000000000000000000000008152600401620004509062001d5f565b60405180910390fd5b6001915062000479565b8080620004709062001db0565b91505062000219565b5080620004bd576040517f08c379a0000000000000000000000000000000000000000000000000000000008152600401620004b49062001e4d565b60405180910390fd5b836000805b600080549050811015620006f45782604051602001620004e3919062001b6f565b604051602081830303815290604052805190602001206000828154811062000510576200050f62001b88565b5b9060005260206000200160009054906101000a900473ffffffffffffffffffffffffffffffffffffffff1673ffffffffffffffffffffffffffffffffffffffff166306fdde036040518163ffffffff1660e01b8152600401600060405180830381865afa15801562000586573d6000803e3d6000fd5b505050506040513d6000823e3d601f19601f82011682018060405250810190620005b1919062001c35565b604051602001620005c3919062001b6f565b6040516020818303038152906040528051906020012003620006de5760008181548110620005f657620005f562001b88565b5b9060005260206000200160009054906101000a900473ffffffffffffffffffffffffffffffffffffffff1673ffffffffffffffffffffffffffffffffffffffff166322f3e2d46040518163ffffffff1660e01b8152600401602060405180830381865afa1580156200066c573d6000803e3d6000fd5b505050506040513d601f19601f8201168201806040525081019062000692919062001eac565b620006d4576040517f08c379a0000000000000000000000000000000000000000000000000000000008152600401620006cb9062001f2e565b60405180910390fd5b60019150620006f4565b8080620006eb9062001db0565b915050620004c2565b508062000738576040517f08c379a00000000000000000000000000000000000000000000000000000000081526004016200072f9062001e4d565b60405180910390fd5b60005b60008054905081101562000b8857866040516020016200075c919062001b6f565b604051602081830303815290604052805190602001206000828154811062000789576200078862001b88565b5b9060005260206000200160009054906101000a900473ffffffffffffffffffffffffffffffffffffffff1673ffffffffffffffffffffffffffffffffffffffff166306fdde036040518163ffffffff1660e01b8152600401600060405180830381865afa158015620007ff573d6000803e3d6000fd5b505050506040513d6000823e3d601f19601f820116820180604052508101906200082a919062001c35565b6040516020016200083c919062001b6f565b604051602081830303815290604052805190602001200362000b7257600081815481106200086f576200086e62001b88565b5b9060005260206000200160009054906101000a900473ffffffffffffffffffffffffffffffffffffffff1673ffffffffffffffffffffffffffffffffffffffff1663893d20e86040518163ffffffff1660e01b8152600401602060405180830381865afa158015620008e5573d6000803e3d6000fd5b505050506040513d601f19601f820116820180604052508101906200090b919062001cb7565b73ffffffffffffffffffffffffffffffffffffffff163373ffffffffffffffffffffffffffffffffffffffff16146200097b576040517f08c379a0000000000000000000000000000000000000000000000000000000008152600401620009729062001d5f565b60405180910390fd5b6000818154811062000992576200099162001b88565b5b9060005260206000200160009054906101000a900473ffffffffffffffffffffffffffffffffffffffff1673ffffffffffffffffffffffffffffffffffffffff1663c47f0027886040518263ffffffff1660e01b8152600401620009f7919062001f50565b600060405180830381600087803b15801562000a1257600080fd5b505af115801562000a27573d6000803e3d6000fd5b505050506000818154811062000a425762000a4162001b88565b5b9060005260206000200160009054906101000a900473ffffffffffffffffffffffffffffffffffffffff1673ffffffffffffffffffffffffffffffffffffffff166390c3f38f876040518263ffffffff1660e01b815260040162000aa7919062001f50565b600060405180830381600087803b15801562000ac257600080fd5b505af115801562000ad7573d6000803e3d6000fd5b505050503373ffffffffffffffffffffffffffffffffffffffff167f8dd9d4fb666af0b82c9823e221aedb4557c6a38226da896973c5a245e7b0450d6000838154811062000b2a5762000b2962001b88565b5b9060005260206000200160009054906101000a900473ffffffffffffffffffffffffffffffffffffffff1660405162000b64919062001b10565b60405180910390a262000b88565b808062000b7f9062001db0565b9150506200073b565b50505050505050565b806000805b60008054905081101562000df6578260405160200162000bb7919062001b6f565b604051602081830303815290604052805190602001206000828154811062000be45762000be362001b88565b5b9060005260206000200160009054906101000a900473ffffffffffffffffffffffffffffffffffffffff1673ffffffffffffffffffffffffffffffffffffffff166306fdde036040518163ffffffff1660e01b8152600401600060405180830381865afa15801562000c5a573d6000803e3d6000fd5b505050506040513d6000823e3d601f19601f8201168201806040525081019062000c85919062001c35565b60405160200162000c97919062001b6f565b604051602081830303815290604052805190602001200362000de0576000818154811062000cca5762000cc962001b88565b5b9060005260206000200160009054906101000a900473ffffffffffffffffffffffffffffffffffffffff1673ffffffffffffffffffffffffffffffffffffffff1663893d20e86040518163ffffffff1660e01b8152600401602060405180830381865afa15801562000d40573d6000803e3d6000fd5b505050506040513d601f19601f8201168201806040525081019062000d66919062001cb7565b73ffffffffffffffffffffffffffffffffffffffff163373ffffffffffffffffffffffffffffffffffffffff161462000dd6576040517f08c379a000000000000000000000000000000000000000000000000000000000815260040162000dcd9062001d5f565b60405180910390fd5b6001915062000df6565b808062000ded9062001db0565b91505062000b96565b508062000e3a576040517f08c379a000000000000000000000000000000000000000000000000000000000815260040162000e319062001e4d565b60405180910390fd5b826000805b60008054905081101562001071578260405160200162000e60919062001b6f565b604051602081830303815290604052805190602001206000828154811062000e8d5762000e8c62001b88565b5b9060005260206000200160009054906101000a900473ffffffffffffffffffffffffffffffffffffffff1673ffffffffffffffffffffffffffffffffffffffff166306fdde036040518163ffffffff1660e01b8152600401600060405180830381865afa15801562000f03573d6000803e3d6000fd5b505050506040513d6000823e3d601f19601f8201168201806040525081019062000f2e919062001c35565b60405160200162000f40919062001b6f565b60405160208183030381529060405280519060200120036200105b576000818154811062000f735762000f7262001b88565b5b9060005260206000200160009054906101000a900473ffffffffffffffffffffffffffffffffffffffff1673ffffffffffffffffffffffffffffffffffffffff166322f3e2d46040518163ffffffff1660e01b8152600401602060405180830381865afa15801562000fe9573d6000803e3d6000fd5b505050506040513d601f19601f820116820180604052508101906200100f919062001eac565b62001051576040517f08c379a0000000000000000000000000000000000000000000000000000000008152600401620010489062001f2e565b60405180910390fd5b6001915062001071565b8080620010689062001db0565b91505062000e3f565b5080620010b5576040517f08c379a0000000000000000000000000000000000000000000000000000000008152600401620010ac9062001e4d565b60405180910390fd5b60005b600080549050811015620014565785604051602001620010d9919062001b6f565b604051602081830303815290604052805190602001206000828154811062001106576200110562001b88565b5b9060005260206000200160009054906101000a900473ffffffffffffffffffffffffffffffffffffffff1673ffffffffffffffffffffffffffffffffffffffff166306fdde036040518163ffffffff1660e01b8152600401600060405180830381865afa1580156200117c573d6000803e3d6000fd5b505050506040513d6000823e3d601f19601f82011682018060405250810190620011a7919062001c35565b604051602001620011b9919062001b6f565b6040516020818303038152906040528051906020012003620014405760008181548110620011ec57620011eb62001b88565b5b9060005260206000200160009054906101000a900473ffffffffffffffffffffffffffffffffffffffff1673ffffffffffffffffffffffffffffffffffffffff1663893d20e86040518163ffffffff1660e01b8152600401602060405180830381865afa15801562001262573d6000803e3d6000fd5b505050506040513d601f19601f8201168201806040525081019062001288919062001cb7565b73ffffffffffffffffffffffffffffffffffffffff163373ffffffffffffffffffffffffffffffffffffffff1614620012f8576040517f08c379a0000000000000000000000000000000000000000000000000000000008152600401620012ef9062001d5f565b60405180910390fd5b600081815481106200130f576200130e62001b88565b5b9060005260206000200160009054906101000a900473ffffffffffffffffffffffffffffffffffffffff1673ffffffffffffffffffffffffffffffffffffffff16632750fc7860006040518263ffffffff1660e01b815260040162001375919062001f85565b600060405180830381600087803b1580156200139057600080fd5b505af1158015620013a5573d6000803e3d6000fd5b505050503373ffffffffffffffffffffffffffffffffffffffff167ff06e81c1ada9c812d94044a534bf6ca8bbe18ba4a514336c9b632c561345081660008381548110620013f857620013f762001b88565b5b9060005260206000200160009054906101000a900473ffffffffffffffffffffffffffffffffffffffff1660405162001432919062001b10565b60405180910390a262001456565b80806200144d9062001db0565b915050620010b8565b505050505050565b60606000808054905067ffffffffffffffff811115620014835762001482620015f3565b5b604051908082528060200260200182016040528015620014b25781602001602082028036833780820191505090505b50905060005b6000805490508110156200156e5760008181548110620014dd57620014dc62001b88565b5b9060005260206000200160009054906101000a900473ffffffffffffffffffffffffffffffffffffffff168282815181106200151e576200151d62001b88565b5b602002602001019073ffffffffffffffffffffffffffffffffffffffff16908173ffffffffffffffffffffffffffffffffffffffff16815250508080620015659062001db0565b915050620014b8565b508091505090565b600081815481106200158757600080fd5b906000526020600020016000915054906101000a900473ffffffffffffffffffffffffffffffffffffffff1681565b612cf08062001fa383390190565b6000604051905090565b600080fd5b600080fd5b600080fd5b600080fd5b6000601f19601f8301169050919050565b7f4e487b7100000000000000000000000000000000000000000000000000000000600052604160045260246000fd5b6200162d82620015e2565b810181811067ffffffffffffffff821117156200164f576200164e620015f3565b5b80604052505050565b600062001664620015c4565b905062001672828262001622565b919050565b600067ffffffffffffffff821115620016955762001694620015f3565b5b620016a082620015e2565b9050602081019050919050565b82818337600083830152505050565b6000620016d3620016cd8462001677565b62001658565b905082815260208101848484011115620016f257620016f1620015dd565b5b620016ff848285620016ad565b509392505050565b600082601f8301126200171f576200171e620015d8565b5b813562001731848260208601620016bc565b91505092915050565b60008060408385031215620017545762001753620015ce565b5b600083013567ffffffffffffffff811115620017755762001774620015d3565b5b620017838582860162001707565b925050602083013567ffffffffffffffff811115620017a757620017a6620015d3565b5b620017b58582860162001707565b9150509250929050565b600060208284031215620017d857620017d7620015ce565b5b600082013567ffffffffffffffff811115620017f957620017f8620015d3565b5b620018078482850162001707565b91505092915050565b600081519050919050565b600082825260208201905092915050565b6000819050602082019050919050565b600073ffffffffffffffffffffffffffffffffffffffff82169050919050565b600062001869826200183c565b9050919050565b6200187b816200185c565b82525050565b60006200188f838362001870565b60208301905092915050565b6000602082019050919050565b6000620018b58262001810565b620018c181856200181b565b9350620018ce836200182c565b8060005b8381101562001905578151620018e9888262001881565b9750620018f6836200189b565b925050600181019050620018d2565b5085935050505092915050565b600060208201905081810360008301526200192e8184620018a8565b905092915050565b6000819050919050565b6200194b8162001936565b81146200195757600080fd5b50565b6000813590506200196b8162001940565b92915050565b6000602082840312156200198a5762001989620015ce565b5b60006200199a848285016200195a565b91505092915050565b6000819050919050565b6000620019ce620019c8620019c2846200183c565b620019a3565b6200183c565b9050919050565b6000620019e282620019ad565b9050919050565b6000620019f682620019d5565b9050919050565b62001a0881620019e9565b82525050565b600060208201905062001a256000830184620019fd565b92915050565b62001a36816200185c565b82525050565b600081519050919050565b600082825260208201905092915050565b60005b8381101562001a7857808201518184015260208101905062001a5b565b60008484015250505050565b600062001a918262001a3c565b62001a9d818562001a47565b935062001aaf81856020860162001a58565b62001aba81620015e2565b840191505092915050565b600060608201905062001adc600083018662001a2b565b818103602083015262001af0818562001a84565b9050818103604083015262001b06818462001a84565b9050949350505050565b600060208201905062001b27600083018462001a2b565b92915050565b600081905092915050565b600062001b458262001a3c565b62001b51818562001b2d565b935062001b6381856020860162001a58565b80840191505092915050565b600062001b7d828462001b38565b915081905092915050565b7f4e487b7100000000000000000000000000000000000000000000000000000000600052603260045260246000fd5b600062001bce62001bc88462001677565b62001658565b90508281526020810184848401111562001bed5762001bec620015dd565b5b62001bfa84828562001a58565b509392505050565b600082601f83011262001c1a5762001c19620015d8565b5b815162001c2c84826020860162001bb7565b91505092915050565b60006020828403121562001c4e5762001c4d620015ce565b5b600082015167ffffffffffffffff81111562001c6f5762001c6e620015d3565b5b62001c7d8482850162001c02565b91505092915050565b62001c91816200185c565b811462001c9d57600080fd5b50565b60008151905062001cb18162001c86565b92915050565b60006020828403121562001cd05762001ccf620015ce565b5b600062001ce08482850162001ca0565b91505092915050565b7f4f6e6c79207468652073656c6c65722074686174206f776e732074686520736560008201527f72766963652063616e2063616c6c20746869732066756e6374696f6e00000000602082015250565b600062001d47603c8362001a47565b915062001d548262001ce9565b604082019050919050565b6000602082019050818103600083015262001d7a8162001d38565b9050919050565b7f4e487b7100000000000000000000000000000000000000000000000000000000600052601160045260246000fd5b600062001dbd8262001936565b91507fffffffffffffffffffffffffffffffffffffffffffffffffffffffffffffffff820362001df25762001df162001d81565b5b600182019050919050565b7f53657276696365206e6f7420666f756e64000000000000000000000000000000600082015250565b600062001e3560118362001a47565b915062001e428262001dfd565b602082019050919050565b6000602082019050818103600083015262001e688162001e26565b9050919050565b60008115159050919050565b62001e868162001e6f565b811462001e9257600080fd5b50565b60008151905062001ea68162001e7b565b92915050565b60006020828403121562001ec55762001ec4620015ce565b5b600062001ed58482850162001e95565b91505092915050565b7f53657276696365206973206e6f74206163746976650000000000000000000000600082015250565b600062001f1660158362001a47565b915062001f238262001ede565b602082019050919050565b6000602082019050818103600083015262001f498162001f07565b9050919050565b6000602082019050818103600083015262001f6c818462001a84565b905092915050565b62001f7f8162001e6f565b82525050565b600060208201905062001f9c600083018462001f74565b9291505056fe60a06040526001600260006101000a81548160ff02191690831515021790555060006003553480156200003157600080fd5b5060405162002cf038038062002cf08339818101604052810190620000579190620002b0565b8273ffffffffffffffffffffffffffffffffffffffff1660808173ffffffffffffffffffffffffffffffffffffffff168152505081600090816200009c919062000595565b508060019081620000ae919062000595565b505050506200067c565b6000604051905090565b600080fd5b600080fd5b600073ffffffffffffffffffffffffffffffffffffffff82169050919050565b6000620000f982620000cc565b9050919050565b6200010b81620000ec565b81146200011757600080fd5b50565b6000815190506200012b8162000100565b92915050565b600080fd5b600080fd5b6000601f19601f8301169050919050565b7f4e487b7100000000000000000000000000000000000000000000000000000000600052604160045260246000fd5b62000186826200013b565b810181811067ffffffffffffffff82111715620001a857620001a76200014c565b5b80604052505050565b6000620001bd620000b8565b9050620001cb82826200017b565b919050565b600067ffffffffffffffff821115620001ee57620001ed6200014c565b5b620001f9826200013b565b9050602081019050919050565b60005b838110156200022657808201518184015260208101905062000209565b60008484015250505050565b6000620002496200024384620001d0565b620001b1565b90508281526020810184848401111562000268576200026762000136565b5b6200027584828562000206565b509392505050565b600082601f83011262000295576200029462000131565b5b8151620002a784826020860162000232565b91505092915050565b600080600060608486031215620002cc57620002cb620000c2565b5b6000620002dc868287016200011a565b935050602084015167ffffffffffffffff8111156200030057620002ff620000c7565b5b6200030e868287016200027d565b925050604084015167ffffffffffffffff811115620003325762000331620000c7565b5b62000340868287016200027d565b9150509250925092565b600081519050919050565b7f4e487b7100000000000000000000000000000000000000000000000000000000600052602260045260246000fd5b600060028204905060018216806200039d57607f821691505b602082108103620003b357620003b262000355565b5b50919050565b60008190508160005260206000209050919050565b60006020601f8301049050919050565b600082821b905092915050565b6000600883026200041d7fffffffffffffffffffffffffffffffffffffffffffffffffffffffffffffffff82620003de565b620004298683620003de565b95508019841693508086168417925050509392505050565b6000819050919050565b6000819050919050565b600062000476620004706200046a8462000441565b6200044b565b62000441565b9050919050565b6000819050919050565b620004928362000455565b620004aa620004a1826200047d565b848454620003eb565b825550505050565b600090565b620004c1620004b2565b620004ce81848462000487565b505050565b5b81811015620004f657620004ea600082620004b7565b600181019050620004d4565b5050565b601f82111562000545576200050f81620003b9565b6200051a84620003ce565b810160208510156200052a578190505b620005426200053985620003ce565b830182620004d3565b50505b505050565b600082821c905092915050565b60006200056a600019846008026200054a565b1980831691505092915050565b600062000585838362000557565b9150826002028217905092915050565b620005a0826200034a565b67ffffffffffffffff811115620005bc57620005bb6200014c565b5b620005c8825462000384565b620005d5828285620004fa565b600060209050601f8311600181146200060d5760008415620005f8578287015190505b62000604858262000577565b86555062000674565b601f1984166200061d86620003b9565b60005b82811015620006475784890151825560018201915060208501945060208101905062000620565b8683101562000667578489015162000663601f89168262000557565b8355505b6001600288020188555050505b505050505050565b608051612635620006bb60003960008181610666015281816107b1015281816111c4015281816113b90152818161168601526117a201526126356000f3fe6080604052600436106100f35760003560e01c80633b47a9ac1161008a5780638a2405a8116100595780638a2405a8146102cb57806390c3f38f146102f4578063c47f00271461031d578063fba7cc7914610346576100f3565b80633b47a9ac146102295780637284e416146102595780637ac9b09814610284578063893d20e8146102a0576100f3565b806322f3e2d4116100c657806322f3e2d4146101a25780632750fc78146101cd5780633168a8cd146101f65780633399d3891461020d576100f3565b806306fdde03146100f857806317d7de7c146101235780631a0925411461014e5780632123508314610179575b600080fd5b34801561010457600080fd5b5061010d610371565b60405161011a9190611963565b60405180910390f35b34801561012f57600080fd5b506101386103ff565b6040516101459190611963565b60405180910390f35b34801561015a57600080fd5b50610163610491565b6040516101709190611963565b60405180910390f35b34801561018557600080fd5b506101a0600480360381019061019b91906119cf565b610523565b005b3480156101ae57600080fd5b506101b761079c565b6040516101c49190611a17565b60405180910390f35b3480156101d957600080fd5b506101f460048036038101906101ef9190611a5e565b6107af565b005b34801561020257600080fd5b5061020b610886565b005b61022760048036038101906102229190611ae9565b610936565b005b34801561023557600080fd5b5061023e610c3d565b60405161025096959493929190611cb8565b60405180910390f35b34801561026557600080fd5b5061026e610ff3565b60405161027b9190611963565b60405180910390f35b61029e600480360381019061029991906119cf565b611081565b005b3480156102ac57600080fd5b506102b56113b5565b6040516102c29190611d52565b60405180910390f35b3480156102d757600080fd5b506102f260048036038101906102ed9190611ae9565b6113dd565b005b34801561030057600080fd5b5061031b60048036038101906103169190611ea2565b611684565b005b34801561032957600080fd5b50610344600480360381019061033f9190611ea2565b6117a0565b005b34801561035257600080fd5b5061035b6118bc565b6040516103689190611a17565b60405180910390f35b6000805461037e90611f1a565b80601f01602080910402602001604051908101604052809291908181526020018280546103aa90611f1a565b80156103f75780601f106103cc576101008083540402835291602001916103f7565b820191906000526020600020905b8154815290600101906020018083116103da57829003601f168201915b505050505081565b60606000805461040e90611f1a565b80601f016020809104026020016040519081016040528092919081815260200182805461043a90611f1a565b80156104875780601f1061045c57610100808354040283529160200191610487565b820191906000526020600020905b81548152906001019060200180831161046a57829003601f168201915b5050505050905090565b6060600180546104a090611f1a565b80601f01602080910402602001604051908101604052809291908181526020018280546104cc90611f1a565b80156105195780601f106104ee57610100808354040283529160200191610519565b820191906000526020600020905b8154815290600101906020018083116104fc57829003601f168201915b5050505050905090565b80600073ffffffffffffffffffffffffffffffffffffffff166004600083815260200190815260200160002060000160009054906101000a900473ffffffffffffffffffffffffffffffffffffffff1673ffffffffffffffffffffffffffffffffffffffff16141580156105b957506103e8426105a09190611f7a565b6004600083815260200190815260200160002060050154115b6105f8576040517f08c379a00000000000000000000000000000000000000000000000000000000081526004016105ef90612008565b60405180910390fd5b813373ffffffffffffffffffffffffffffffffffffffff166004600083815260200190815260200160002060000160009054906101000a900473ffffffffffffffffffffffffffffffffffffffff1673ffffffffffffffffffffffffffffffffffffffff1614806106b457507f000000000000000000000000000000000000000000000000000000000000000073ffffffffffffffffffffffffffffffffffffffff163373ffffffffffffffffffffffffffffffffffffffff16145b6106f3576040517f08c379a00000000000000000000000000000000000000000000000000000000081526004016106ea90612074565b60405180910390fd5b600260009054906101000a900460ff16610742576040517f08c379a0000000000000000000000000000000000000000000000000000000008152600401610739906120e0565b60405180910390fd5b6103e8426107509190611f7a565b6004600085815260200190815260200160002060050181905550827fbd2bcea75d16a85f005cd83447e0de57341bf926fe7419e6d553663e91ab4da760405160405180910390a2505050565b600260009054906101000a900460ff1681565b7f000000000000000000000000000000000000000000000000000000000000000073ffffffffffffffffffffffffffffffffffffffff163373ffffffffffffffffffffffffffffffffffffffff161461083d576040517f08c379a00000000000000000000000000000000000000000000000000000000081526004016108349061214c565b60405180910390fd5b80600260006101000a81548160ff0219169083151502179055507f0338bfbdafb8aabb328abde5acfe20059c4c051ba2d9c13b41fa03b3bc9e637a60405160405180910390a150565b600260009054906101000a900460ff166108d5576040517f08c379a00000000000000000000000000000000000000000000000000000000081526004016108cc906120e0565b60405180910390fd5b60005b60035481101561093357600060046000838152602001908152602001600020600501541415801561091f575060046000828152602001908152602001600020600501544210155b50808061092b9061216c565b9150506108d8565b50565b8260005b600354811015610a1d578173ffffffffffffffffffffffffffffffffffffffff166004600083815260200190815260200160002060000160009054906101000a900473ffffffffffffffffffffffffffffffffffffffff1673ffffffffffffffffffffffffffffffffffffffff161480156109ca5750600460008281526020019081526020016000206005015442105b15610a0a576040517f08c379a0000000000000000000000000000000000000000000000000000000008152600401610a0190612226565b60405180910390fd5b8080610a159061216c565b91505061093a565b508260008111610a62576040517f08c379a0000000000000000000000000000000000000000000000000000000008152600401610a5990612292565b60405180910390fd5b600260009054906101000a900460ff16610ab1576040517f08c379a0000000000000000000000000000000000000000000000000000000008152600401610aa8906120e0565b60405180910390fd5b60006040518060c001604052808773ffffffffffffffffffffffffffffffffffffffff16815260200160035481526020018681526020018581526020016103e842610afc9190611f7a565b81526020016103e86201518087610b139190611f7a565b42610b1e91906122b2565b610b289190611f7a565b81525090508060046000600354815260200190815260200160002060008201518160000160006101000a81548173ffffffffffffffffffffffffffffffffffffffff021916908373ffffffffffffffffffffffffffffffffffffffff1602179055506020820151816001015560408201518160020155606082015181600301556080820151816004015560a082015181600501559050506003547f6a2b70dde6ae0193f84b6a9eeb3b0ebdc3a35e99d9167b88c570158dd09cb0f760405160405180910390a26003547f9040c259954b48f5dfdf60ea91e742403e7552202de9925d509fdd8187b2130b60405160405180910390a260036000815480929190610c309061216c565b9190505550505050505050565b606080606080606080600060035467ffffffffffffffff811115610c6457610c63611d77565b5b604051908082528060200260200182016040528015610c925781602001602082028036833780820191505090505b509050600060035467ffffffffffffffff811115610cb357610cb2611d77565b5b604051908082528060200260200182016040528015610ce15781602001602082028036833780820191505090505b509050600060035467ffffffffffffffff811115610d0257610d01611d77565b5b604051908082528060200260200182016040528015610d305781602001602082028036833780820191505090505b509050600060035467ffffffffffffffff811115610d5157610d50611d77565b5b604051908082528060200260200182016040528015610d7f5781602001602082028036833780820191505090505b509050600060035467ffffffffffffffff811115610da057610d9f611d77565b5b604051908082528060200260200182016040528015610dce5781602001602082028036833780820191505090505b509050600060035467ffffffffffffffff811115610def57610dee611d77565b5b604051908082528060200260200182016040528015610e1d5781602001602082028036833780820191505090505b50905060005b600354811015610fd2576004600082815260200190815260200160002060000160009054906101000a900473ffffffffffffffffffffffffffffffffffffffff16878281518110610e7757610e766122e6565b5b602002602001019073ffffffffffffffffffffffffffffffffffffffff16908173ffffffffffffffffffffffffffffffffffffffff16815250506004600082815260200190815260200160002060010154868281518110610edb57610eda6122e6565b5b6020026020010181815250506004600082815260200190815260200160002060020154858281518110610f1157610f106122e6565b5b6020026020010181815250506004600082815260200190815260200160002060030154848281518110610f4757610f466122e6565b5b6020026020010181815250506004600082815260200190815260200160002060040154838281518110610f7d57610f7c6122e6565b5b6020026020010181815250506004600082815260200190815260200160002060050154828281518110610fb357610fb26122e6565b5b6020026020010181815250508080610fca9061216c565b915050610e23565b508585858585859b509b509b509b509b509b50505050505050909192939495565b6001805461100090611f1a565b80601f016020809104026020016040519081016040528092919081815260200182805461102c90611f1a565b80156110795780601f1061104e57610100808354040283529160200191611079565b820191906000526020600020905b81548152906001019060200180831161105c57829003601f168201915b505050505081565b80600073ffffffffffffffffffffffffffffffffffffffff166004600083815260200190815260200160002060000160009054906101000a900473ffffffffffffffffffffffffffffffffffffffff1673ffffffffffffffffffffffffffffffffffffffff161415801561111757506103e8426110fe9190611f7a565b6004600083815260200190815260200160002060050154115b611156576040517f08c379a000000000000000000000000000000000000000000000000000000000815260040161114d90612008565b60405180910390fd5b813373ffffffffffffffffffffffffffffffffffffffff166004600083815260200190815260200160002060000160009054906101000a900473ffffffffffffffffffffffffffffffffffffffff1673ffffffffffffffffffffffffffffffffffffffff16148061121257507f000000000000000000000000000000000000000000000000000000000000000073ffffffffffffffffffffffffffffffffffffffff163373ffffffffffffffffffffffffffffffffffffffff16145b611251576040517f08c379a000000000000000000000000000000000000000000000000000000000815260040161124890612074565b60405180910390fd5b600260009054906101000a900460ff166112a0576040517f08c379a0000000000000000000000000000000000000000000000000000000008152600401611297906120e0565b60405180910390fd5b6000349050600060046000868152602001908152602001600020600201549050808214611302576040517f08c379a00000000000000000000000000000000000000000000000000000000081526004016112f990612361565b60405180910390fd5b6103e8426113109190611f7a565b60046000878152602001908152602001600020600401819055506103e86201518060046000888152602001908152602001600020600301546113529190611f7a565b4261135d91906122b2565b6113679190611f7a565b6004600087815260200190815260200160002060050181905550847f9040c259954b48f5dfdf60ea91e742403e7552202de9925d509fdd8187b2130b60405160405180910390a25050505050565b60007f0000000000000000000000000000000000000000000000000000000000000000905090565b8260005b6003548110156114c4578173ffffffffffffffffffffffffffffffffffffffff166004600083815260200190815260200160002060000160009054906101000a900473ffffffffffffffffffffffffffffffffffffffff1673ffffffffffffffffffffffffffffffffffffffff161480156114715750600460008281526020019081526020016000206005015442105b156114b1576040517f08c379a00000000000000000000000000000000000000000000000000000000081526004016114a890612226565b60405180910390fd5b80806114bc9061216c565b9150506113e1565b508260008111611509576040517f08c379a000000000000000000000000000000000000000000000000000000000815260040161150090612292565b60405180910390fd5b600260009054906101000a900460ff16611558576040517f08c379a000000000000000000000000000000000000000000000000000000000815260040161154f906120e0565b60405180910390fd5b60006040518060c001604052808773ffffffffffffffffffffffffffffffffffffffff168152602001600354815260200186815260200185815260200160008152602001600081525090508060046000600354815260200190815260200160002060008201518160000160006101000a81548173ffffffffffffffffffffffffffffffffffffffff021916908373ffffffffffffffffffffffffffffffffffffffff1602179055506020820151816001015560408201518160020155606082015181600301556080820151816004015560a082015181600501559050506003547f6a2b70dde6ae0193f84b6a9eeb3b0ebdc3a35e99d9167b88c570158dd09cb0f760405160405180910390a2600360008154809291906116779061216c565b9190505550505050505050565b7f000000000000000000000000000000000000000000000000000000000000000073ffffffffffffffffffffffffffffffffffffffff163373ffffffffffffffffffffffffffffffffffffffff1614611712576040517f08c379a00000000000000000000000000000000000000000000000000000000081526004016117099061214c565b60405180910390fd5b600260009054906101000a900460ff16611761576040517f08c379a0000000000000000000000000000000000000000000000000000000008152600401611758906120e0565b60405180910390fd5b8060019081611770919061252d565b507f0338bfbdafb8aabb328abde5acfe20059c4c051ba2d9c13b41fa03b3bc9e637a60405160405180910390a150565b7f000000000000000000000000000000000000000000000000000000000000000073ffffffffffffffffffffffffffffffffffffffff163373ffffffffffffffffffffffffffffffffffffffff161461182e576040517f08c379a00000000000000000000000000000000000000000000000000000000081526004016118259061214c565b60405180910390fd5b600260009054906101000a900460ff1661187d576040517f08c379a0000000000000000000000000000000000000000000000000000000008152600401611874906120e0565b60405180910390fd5b806000908161188c919061252d565b507f0338bfbdafb8aabb328abde5acfe20059c4c051ba2d9c13b41fa03b3bc9e637a60405160405180910390a150565b6000600260009054906101000a900460ff16905090565b600081519050919050565b600082825260208201905092915050565b60005b8381101561190d5780820151818401526020810190506118f2565b60008484015250505050565b6000601f19601f8301169050919050565b6000611935826118d3565b61193f81856118de565b935061194f8185602086016118ef565b61195881611919565b840191505092915050565b6000602082019050818103600083015261197d818461192a565b905092915050565b6000604051905090565b600080fd5b600080fd5b6000819050919050565b6119ac81611999565b81146119b757600080fd5b50565b6000813590506119c9816119a3565b92915050565b6000602082840312156119e5576119e461198f565b5b60006119f3848285016119ba565b91505092915050565b60008115159050919050565b611a11816119fc565b82525050565b6000602082019050611a2c6000830184611a08565b92915050565b611a3b816119fc565b8114611a4657600080fd5b50565b600081359050611a5881611a32565b92915050565b600060208284031215611a7457611a7361198f565b5b6000611a8284828501611a49565b91505092915050565b600073ffffffffffffffffffffffffffffffffffffffff82169050919050565b6000611ab682611a8b565b9050919050565b611ac681611aab565b8114611ad157600080fd5b50565b600081359050611ae381611abd565b92915050565b600080600060608486031215611b0257611b0161198f565b5b6000611b1086828701611ad4565b9350506020611b21868287016119ba565b9250506040611b32868287016119ba565b9150509250925092565b600081519050919050565b600082825260208201905092915050565b6000819050602082019050919050565b611b7181611aab565b82525050565b6000611b838383611b68565b60208301905092915050565b6000602082019050919050565b6000611ba782611b3c565b611bb18185611b47565b9350611bbc83611b58565b8060005b83811015611bed578151611bd48882611b77565b9750611bdf83611b8f565b925050600181019050611bc0565b5085935050505092915050565b600081519050919050565b600082825260208201905092915050565b6000819050602082019050919050565b611c2f81611999565b82525050565b6000611c418383611c26565b60208301905092915050565b6000602082019050919050565b6000611c6582611bfa565b611c6f8185611c05565b9350611c7a83611c16565b8060005b83811015611cab578151611c928882611c35565b9750611c9d83611c4d565b925050600181019050611c7e565b5085935050505092915050565b600060c0820190508181036000830152611cd28189611b9c565b90508181036020830152611ce68188611c5a565b90508181036040830152611cfa8187611c5a565b90508181036060830152611d0e8186611c5a565b90508181036080830152611d228185611c5a565b905081810360a0830152611d368184611c5a565b9050979650505050505050565b611d4c81611aab565b82525050565b6000602082019050611d676000830184611d43565b92915050565b600080fd5b600080fd5b7f4e487b7100000000000000000000000000000000000000000000000000000000600052604160045260246000fd5b611daf82611919565b810181811067ffffffffffffffff82111715611dce57611dcd611d77565b5b80604052505050565b6000611de1611985565b9050611ded8282611da6565b919050565b600067ffffffffffffffff821115611e0d57611e0c611d77565b5b611e1682611919565b9050602081019050919050565b82818337600083830152505050565b6000611e45611e4084611df2565b611dd7565b905082815260208101848484011115611e6157611e60611d72565b5b611e6c848285611e23565b509392505050565b600082601f830112611e8957611e88611d6d565b5b8135611e99848260208601611e32565b91505092915050565b600060208284031215611eb857611eb761198f565b5b600082013567ffffffffffffffff811115611ed657611ed5611994565b5b611ee284828501611e74565b91505092915050565b7f4e487b7100000000000000000000000000000000000000000000000000000000600052602260045260246000fd5b60006002820490506001821680611f3257607f821691505b602082108103611f4557611f44611eeb565b5b50919050565b7f4e487b7100000000000000000000000000000000000000000000000000000000600052601160045260246000fd5b6000611f8582611999565b9150611f9083611999565b9250828202611f9e81611999565b91508282048414831517611fb557611fb4611f4b565b5b5092915050565b7f537562736372697074696f6e20646f6573206e6f742065786973740000000000600082015250565b6000611ff2601b836118de565b9150611ffd82611fbc565b602082019050919050565b6000602082019050818103600083015261202181611fe5565b9050919050565b7f43616c6c6572206973206e6f7420746865207375627363726962657200000000600082015250565b600061205e601c836118de565b915061206982612028565b602082019050919050565b6000602082019050818103600083015261208d81612051565b9050919050565b7f53657276696365206973206e6f74206163746976650000000000000000000000600082015250565b60006120ca6015836118de565b91506120d582612094565b602082019050919050565b600060208201905081810360008301526120f9816120bd565b9050919050565b7f4f6e6c79206f776e657220697320616c6c6f7765640000000000000000000000600082015250565b60006121366015836118de565b915061214182612100565b602082019050919050565b6000602082019050818103600083015261216581612129565b9050919050565b600061217782611999565b91507fffffffffffffffffffffffffffffffffffffffffffffffffffffffffffffffff82036121a9576121a8611f4b565b5b600182019050919050565b7f5375627363726962657220616c72656164792068617320616e2061637469766560008201527f20737562736372697074696f6e00000000000000000000000000000000000000602082015250565b6000612210602d836118de565b915061221b826121b4565b604082019050919050565b6000602082019050818103600083015261223f81612203565b9050919050565b7f56616c7565206d7573742062652067726561746572207468616e207a65726f00600082015250565b600061227c601f836118de565b915061228782612246565b602082019050919050565b600060208201905081810360008301526122ab8161226f565b9050919050565b60006122bd82611999565b91506122c883611999565b92508282019050808211156122e0576122df611f4b565b5b92915050565b7f4e487b7100000000000000000000000000000000000000000000000000000000600052603260045260246000fd5b7f496e76616c696420616d6f756e74000000000000000000000000000000000000600082015250565b600061234b600e836118de565b915061235682612315565b602082019050919050565b6000602082019050818103600083015261237a8161233e565b9050919050565b60008190508160005260206000209050919050565b60006020601f8301049050919050565b600082821b905092915050565b6000600883026123e37fffffffffffffffffffffffffffffffffffffffffffffffffffffffffffffffff826123a6565b6123ed86836123a6565b95508019841693508086168417925050509392505050565b6000819050919050565b600061242a61242561242084611999565b612405565b611999565b9050919050565b6000819050919050565b6124448361240f565b61245861245082612431565b8484546123b3565b825550505050565b600090565b61246d612460565b61247881848461243b565b505050565b5b8181101561249c57612491600082612465565b60018101905061247e565b5050565b601f8211156124e1576124b281612381565b6124bb84612396565b810160208510156124ca578190505b6124de6124d685612396565b83018261247d565b50505b505050565b600082821c905092915050565b6000612504600019846008026124e6565b1980831691505092915050565b600061251d83836124f3565b9150826002028217905092915050565b612536826118d3565b67ffffffffffffffff81111561254f5761254e611d77565b5b6125598254611f1a565b6125648282856124a0565b600060209050601f8311600181146125975760008415612585578287015190505b61258f8582612511565b8655506125f7565b601f1984166125a586612381565b60005b828110156125cd578489015182556001820191506020850194506020810190506125a8565b868310156125ea57848901516125e6601f8916826124f3565b8355505b6001600288020188555050505b50505050505056fea26469706673582212200fa3ada9d222ac416a8f548baf60b267a8c084b89ead658719ecd7fbb348711964736f6c63430008140033a2646970667358221220c437f595a1e659090f4486aac71979dc358b786b6655d32ba23b88d91cf2146164736f6c63430008140033",
  "linkReferences": {},
  "deployedLinkReferences": {}
}