{
  "_format": "hh-sol-artifact-1",
  "contractName": "ServiceFactory",
  "sourceName": "contracts/ServiceFactory.sol",
  "abi": [
    {
      "inputs": [],
      "stateMutability": "nonpayable",
      "type": "constructor"
    },
    {
      "anonymous": false,
      "inputs": [
        {
          "indexed": true,
          "internalType": "address",
          "name": "seller",
          "type": "address"
        },
        {
          "indexed": false,
          "internalType": "address",
          "name": "serviceAddress",
          "type": "address"
        }
      ],
      "name": "ServiceCreated",
      "type": "event"
    },
    {
      "anonymous": false,
      "inputs": [
        {
          "indexed": true,
          "internalType": "address",
          "name": "seller",
          "type": "address"
        },
        {
          "indexed": false,
          "internalType": "address",
          "name": "serviceAddress",
          "type": "address"
        }
      ],
      "name": "ServiceDeactivate",
      "type": "event"
    },
    {
      "anonymous": false,
      "inputs": [
        {
          "indexed": true,
          "internalType": "address",
          "name": "seller",
          "type": "address"
        },
        {
          "indexed": false,
          "internalType": "address",
          "name": "serviceAddress",
          "type": "address"
        }
      ],
      "name": "ServiceUpdated",
      "type": "event"
    },
    {
      "inputs": [
        {
          "internalType": "string",
          "name": "_servicename",
          "type": "string"
        },
        {
          "internalType": "string",
          "name": "_servicedescription",
          "type": "string"
        }
      ],
      "name": "createService",
      "outputs": [],
      "stateMutability": "nonpayable",
      "type": "function"
    },
    {
      "inputs": [
        {
          "internalType": "string",
          "name": "_servicename",
          "type": "string"
        }
      ],
      "name": "deactivateService",
      "outputs": [],
      "stateMutability": "nonpayable",
      "type": "function"
    },
    {
      "inputs": [],
      "name": "getServicesAddresses",
      "outputs": [
        {
          "internalType": "address[]",
          "name": "",
          "type": "address[]"
        }
      ],
      "stateMutability": "view",
      "type": "function"
    },
    {
      "inputs": [
        {
          "internalType": "uint256",
          "name": "",
          "type": "uint256"
        }
      ],
      "name": "services",
      "outputs": [
        {
          "internalType": "contract Service",
          "name": "",
          "type": "address"
        }
      ],
      "stateMutability": "view",
      "type": "function"
    },
    {
      "inputs": [
        {
          "internalType": "string",
          "name": "_servicename",
          "type": "string"
        },
        {
          "internalType": "string",
          "name": "_servicedescription",
          "type": "string"
        }
      ],
      "name": "updateService",
      "outputs": [],
      "stateMutability": "nonpayable",
      "type": "function"
    }
  ],
  "bytecode": "0x60a060405234801561001057600080fd5b503373ffffffffffffffffffffffffffffffffffffffff1660808173ffffffffffffffffffffffffffffffffffffffff1681525050608051614bb261005d60003960005050614bb26000f3fe60806040523480156200001157600080fd5b50600436106200005e5760003560e01c80636a5e1f921462000063578063718b57dc1462000083578063956a9e1514620000a3578063bd5ec58f14620000c3578063c22c4f4314620000e5575b600080fd5b6200008160048036038101906200007b91906200173a565b6200011b565b005b620000a160048036038101906200009b91906200173a565b62000214565b005b620000c16004803603810190620000bb9190620017bf565b62000b91565b005b620000cd6200145e565b604051620000dc919062001912565b60405180910390f35b620001036004803603810190620000fd919062001971565b62001576565b60405162000112919062001a0e565b60405180910390f35b60003383836040516200012e90620015b6565b6200013c9392919062001ac5565b604051809103906000f08015801562000159573d6000803e3d6000fd5b5090506000819080600181540180825580915050600190039060005260206000200160009091909190916101000a81548173ffffffffffffffffffffffffffffffffffffffff021916908373ffffffffffffffffffffffffffffffffffffffff1602179055503373ffffffffffffffffffffffffffffffffffffffff167f8c7aaaeebf752abf043872061bbbd8963e7ad51c16f16dd260e42d4565fe4f318260405162000207919062001b10565b60405180910390a2505050565b816000805b6000805490508110156200047957826040516020016200023a919062001b6f565b604051602081830303815290604052805190602001206000828154811062000267576200026662001b88565b5b9060005260206000200160009054906101000a900473ffffffffffffffffffffffffffffffffffffffff1673ffffffffffffffffffffffffffffffffffffffff166306fdde036040518163ffffffff1660e01b8152600401600060405180830381865afa158015620002dd573d6000803e3d6000fd5b505050506040513d6000823e3d601f19601f8201168201806040525081019062000308919062001c35565b6040516020016200031a919062001b6f565b60405160208183030381529060405280519060200120036200046357600081815481106200034d576200034c62001b88565b5b9060005260206000200160009054906101000a900473ffffffffffffffffffffffffffffffffffffffff1673ffffffffffffffffffffffffffffffffffffffff1663893d20e86040518163ffffffff1660e01b8152600401602060405180830381865afa158015620003c3573d6000803e3d6000fd5b505050506040513d601f19601f82011682018060405250810190620003e9919062001cb7565b73ffffffffffffffffffffffffffffffffffffffff163373ffffffffffffffffffffffffffffffffffffffff161462000459576040517f08c379a0000000000000000000000000000000000000000000000000000000008152600401620004509062001d5f565b60405180910390fd5b6001915062000479565b8080620004709062001db0565b91505062000219565b5080620004bd576040517f08c379a0000000000000000000000000000000000000000000000000000000008152600401620004b49062001e4d565b60405180910390fd5b836000805b600080549050811015620006f45782604051602001620004e3919062001b6f565b604051602081830303815290604052805190602001206000828154811062000510576200050f62001b88565b5b9060005260206000200160009054906101000a900473ffffffffffffffffffffffffffffffffffffffff1673ffffffffffffffffffffffffffffffffffffffff166306fdde036040518163ffffffff1660e01b8152600401600060405180830381865afa15801562000586573d6000803e3d6000fd5b505050506040513d6000823e3d601f19601f82011682018060405250810190620005b1919062001c35565b604051602001620005c3919062001b6f565b6040516020818303038152906040528051906020012003620006de5760008181548110620005f657620005f562001b88565b5b9060005260206000200160009054906101000a900473ffffffffffffffffffffffffffffffffffffffff1673ffffffffffffffffffffffffffffffffffffffff166322f3e2d46040518163ffffffff1660e01b8152600401602060405180830381865afa1580156200066c573d6000803e3d6000fd5b505050506040513d601f19601f8201168201806040525081019062000692919062001eac565b620006d4576040517f08c379a0000000000000000000000000000000000000000000000000000000008152600401620006cb9062001f2e565b60405180910390fd5b60019150620006f4565b8080620006eb9062001db0565b915050620004c2565b508062000738576040517f08c379a00000000000000000000000000000000000000000000000000000000081526004016200072f9062001e4d565b60405180910390fd5b60005b60008054905081101562000b8857866040516020016200075c919062001b6f565b604051602081830303815290604052805190602001206000828154811062000789576200078862001b88565b5b9060005260206000200160009054906101000a900473ffffffffffffffffffffffffffffffffffffffff1673ffffffffffffffffffffffffffffffffffffffff166306fdde036040518163ffffffff1660e01b8152600401600060405180830381865afa158015620007ff573d6000803e3d6000fd5b505050506040513d6000823e3d601f19601f820116820180604052508101906200082a919062001c35565b6040516020016200083c919062001b6f565b604051602081830303815290604052805190602001200362000b7257600081815481106200086f576200086e62001b88565b5b9060005260206000200160009054906101000a900473ffffffffffffffffffffffffffffffffffffffff1673ffffffffffffffffffffffffffffffffffffffff1663893d20e86040518163ffffffff1660e01b8152600401602060405180830381865afa158015620008e5573d6000803e3d6000fd5b505050506040513d601f19601f820116820180604052508101906200090b919062001cb7565b73ffffffffffffffffffffffffffffffffffffffff163373ffffffffffffffffffffffffffffffffffffffff16146200097b576040517f08c379a0000000000000000000000000000000000000000000000000000000008152600401620009729062001d5f565b60405180910390fd5b6000818154811062000992576200099162001b88565b5b9060005260206000200160009054906101000a900473ffffffffffffffffffffffffffffffffffffffff1673ffffffffffffffffffffffffffffffffffffffff1663c47f0027886040518263ffffffff1660e01b8152600401620009f7919062001f50565b600060405180830381600087803b15801562000a1257600080fd5b505af115801562000a27573d6000803e3d6000fd5b505050506000818154811062000a425762000a4162001b88565b5b9060005260206000200160009054906101000a900473ffffffffffffffffffffffffffffffffffffffff1673ffffffffffffffffffffffffffffffffffffffff166390c3f38f876040518263ffffffff1660e01b815260040162000aa7919062001f50565b600060405180830381600087803b15801562000ac257600080fd5b505af115801562000ad7573d6000803e3d6000fd5b505050503373ffffffffffffffffffffffffffffffffffffffff167f8dd9d4fb666af0b82c9823e221aedb4557c6a38226da896973c5a245e7b0450d6000838154811062000b2a5762000b2962001b88565b5b9060005260206000200160009054906101000a900473ffffffffffffffffffffffffffffffffffffffff1660405162000b64919062001b10565b60405180910390a262000b88565b808062000b7f9062001db0565b9150506200073b565b50505050505050565b806000805b60008054905081101562000df6578260405160200162000bb7919062001b6f565b604051602081830303815290604052805190602001206000828154811062000be45762000be362001b88565b5b9060005260206000200160009054906101000a900473ffffffffffffffffffffffffffffffffffffffff1673ffffffffffffffffffffffffffffffffffffffff166306fdde036040518163ffffffff1660e01b8152600401600060405180830381865afa15801562000c5a573d6000803e3d6000fd5b505050506040513d6000823e3d601f19601f8201168201806040525081019062000c85919062001c35565b60405160200162000c97919062001b6f565b604051602081830303815290604052805190602001200362000de0576000818154811062000cca5762000cc962001b88565b5b9060005260206000200160009054906101000a900473ffffffffffffffffffffffffffffffffffffffff1673ffffffffffffffffffffffffffffffffffffffff1663893d20e86040518163ffffffff1660e01b8152600401602060405180830381865afa15801562000d40573d6000803e3d6000fd5b505050506040513d601f19601f8201168201806040525081019062000d66919062001cb7565b73ffffffffffffffffffffffffffffffffffffffff163373ffffffffffffffffffffffffffffffffffffffff161462000dd6576040517f08c379a000000000000000000000000000000000000000000000000000000000815260040162000dcd9062001d5f565b60405180910390fd5b6001915062000df6565b808062000ded9062001db0565b91505062000b96565b508062000e3a576040517f08c379a000000000000000000000000000000000000000000000000000000000815260040162000e319062001e4d565b60405180910390fd5b826000805b60008054905081101562001071578260405160200162000e60919062001b6f565b604051602081830303815290604052805190602001206000828154811062000e8d5762000e8c62001b88565b5b9060005260206000200160009054906101000a900473ffffffffffffffffffffffffffffffffffffffff1673ffffffffffffffffffffffffffffffffffffffff166306fdde036040518163ffffffff1660e01b8152600401600060405180830381865afa15801562000f03573d6000803e3d6000fd5b505050506040513d6000823e3d601f19601f8201168201806040525081019062000f2e919062001c35565b60405160200162000f40919062001b6f565b60405160208183030381529060405280519060200120036200105b576000818154811062000f735762000f7262001b88565b5b9060005260206000200160009054906101000a900473ffffffffffffffffffffffffffffffffffffffff1673ffffffffffffffffffffffffffffffffffffffff166322f3e2d46040518163ffffffff1660e01b8152600401602060405180830381865afa15801562000fe9573d6000803e3d6000fd5b505050506040513d601f19601f820116820180604052508101906200100f919062001eac565b62001051576040517f08c379a0000000000000000000000000000000000000000000000000000000008152600401620010489062001f2e565b60405180910390fd5b6001915062001071565b8080620010689062001db0565b91505062000e3f565b5080620010b5576040517f08c379a0000000000000000000000000000000000000000000000000000000008152600401620010ac9062001e4d565b60405180910390fd5b60005b600080549050811015620014565785604051602001620010d9919062001b6f565b604051602081830303815290604052805190602001206000828154811062001106576200110562001b88565b5b9060005260206000200160009054906101000a900473ffffffffffffffffffffffffffffffffffffffff1673ffffffffffffffffffffffffffffffffffffffff166306fdde036040518163ffffffff1660e01b8152600401600060405180830381865afa1580156200117c573d6000803e3d6000fd5b505050506040513d6000823e3d601f19601f82011682018060405250810190620011a7919062001c35565b604051602001620011b9919062001b6f565b6040516020818303038152906040528051906020012003620014405760008181548110620011ec57620011eb62001b88565b5b9060005260206000200160009054906101000a900473ffffffffffffffffffffffffffffffffffffffff1673ffffffffffffffffffffffffffffffffffffffff1663893d20e86040518163ffffffff1660e01b8152600401602060405180830381865afa15801562001262573d6000803e3d6000fd5b505050506040513d601f19601f8201168201806040525081019062001288919062001cb7565b73ffffffffffffffffffffffffffffffffffffffff163373ffffffffffffffffffffffffffffffffffffffff1614620012f8576040517f08c379a0000000000000000000000000000000000000000000000000000000008152600401620012ef9062001d5f565b60405180910390fd5b600081815481106200130f576200130e62001b88565b5b9060005260206000200160009054906101000a900473ffffffffffffffffffffffffffffffffffffffff1673ffffffffffffffffffffffffffffffffffffffff16632750fc7860006040518263ffffffff1660e01b815260040162001375919062001f85565b600060405180830381600087803b1580156200139057600080fd5b505af1158015620013a5573d6000803e3d6000fd5b505050503373ffffffffffffffffffffffffffffffffffffffff167ff06e81c1ada9c812d94044a534bf6ca8bbe18ba4a514336c9b632c561345081660008381548110620013f857620013f762001b88565b5b9060005260206000200160009054906101000a900473ffffffffffffffffffffffffffffffffffffffff1660405162001432919062001b10565b60405180910390a262001456565b80806200144d9062001db0565b915050620010b8565b505050505050565b60606000808054905067ffffffffffffffff811115620014835762001482620015f3565b5b604051908082528060200260200182016040528015620014b25781602001602082028036833780820191505090505b50905060005b6000805490508110156200156e5760008181548110620014dd57620014dc62001b88565b5b9060005260206000200160009054906101000a900473ffffffffffffffffffffffffffffffffffffffff168282815181106200151e576200151d62001b88565b5b602002602001019073ffffffffffffffffffffffffffffffffffffffff16908173ffffffffffffffffffffffffffffffffffffffff16815250508080620015659062001db0565b915050620014b8565b508091505090565b600081815481106200158757600080fd5b906000526020600020016000915054906101000a900473ffffffffffffffffffffffffffffffffffffffff1681565b612bda8062001fa383390190565b6000604051905090565b600080fd5b600080fd5b600080fd5b600080fd5b6000601f19601f8301169050919050565b7f4e487b7100000000000000000000000000000000000000000000000000000000600052604160045260246000fd5b6200162d82620015e2565b810181811067ffffffffffffffff821117156200164f576200164e620015f3565b5b80604052505050565b600062001664620015c4565b905062001672828262001622565b919050565b600067ffffffffffffffff821115620016955762001694620015f3565b5b620016a082620015e2565b9050602081019050919050565b82818337600083830152505050565b6000620016d3620016cd8462001677565b62001658565b905082815260208101848484011115620016f257620016f1620015dd565b5b620016ff848285620016ad565b509392505050565b600082601f8301126200171f576200171e620015d8565b5b813562001731848260208601620016bc565b91505092915050565b60008060408385031215620017545762001753620015ce565b5b600083013567ffffffffffffffff811115620017755762001774620015d3565b5b620017838582860162001707565b925050602083013567ffffffffffffffff811115620017a757620017a6620015d3565b5b620017b58582860162001707565b9150509250929050565b600060208284031215620017d857620017d7620015ce565b5b600082013567ffffffffffffffff811115620017f957620017f8620015d3565b5b620018078482850162001707565b91505092915050565b600081519050919050565b600082825260208201905092915050565b6000819050602082019050919050565b600073ffffffffffffffffffffffffffffffffffffffff82169050919050565b600062001869826200183c565b9050919050565b6200187b816200185c565b82525050565b60006200188f838362001870565b60208301905092915050565b6000602082019050919050565b6000620018b58262001810565b620018c181856200181b565b9350620018ce836200182c565b8060005b8381101562001905578151620018e9888262001881565b9750620018f6836200189b565b925050600181019050620018d2565b5085935050505092915050565b600060208201905081810360008301526200192e8184620018a8565b905092915050565b6000819050919050565b6200194b8162001936565b81146200195757600080fd5b50565b6000813590506200196b8162001940565b92915050565b6000602082840312156200198a5762001989620015ce565b5b60006200199a848285016200195a565b91505092915050565b6000819050919050565b6000620019ce620019c8620019c2846200183c565b620019a3565b6200183c565b9050919050565b6000620019e282620019ad565b9050919050565b6000620019f682620019d5565b9050919050565b62001a0881620019e9565b82525050565b600060208201905062001a256000830184620019fd565b92915050565b62001a36816200185c565b82525050565b600081519050919050565b600082825260208201905092915050565b60005b8381101562001a7857808201518184015260208101905062001a5b565b60008484015250505050565b600062001a918262001a3c565b62001a9d818562001a47565b935062001aaf81856020860162001a58565b62001aba81620015e2565b840191505092915050565b600060608201905062001adc600083018662001a2b565b818103602083015262001af0818562001a84565b9050818103604083015262001b06818462001a84565b9050949350505050565b600060208201905062001b27600083018462001a2b565b92915050565b600081905092915050565b600062001b458262001a3c565b62001b51818562001b2d565b935062001b6381856020860162001a58565b80840191505092915050565b600062001b7d828462001b38565b915081905092915050565b7f4e487b7100000000000000000000000000000000000000000000000000000000600052603260045260246000fd5b600062001bce62001bc88462001677565b62001658565b90508281526020810184848401111562001bed5762001bec620015dd565b5b62001bfa84828562001a58565b509392505050565b600082601f83011262001c1a5762001c19620015d8565b5b815162001c2c84826020860162001bb7565b91505092915050565b60006020828403121562001c4e5762001c4d620015ce565b5b600082015167ffffffffffffffff81111562001c6f5762001c6e620015d3565b5b62001c7d8482850162001c02565b91505092915050565b62001c91816200185c565b811462001c9d57600080fd5b50565b60008151905062001cb18162001c86565b92915050565b60006020828403121562001cd05762001ccf620015ce565b5b600062001ce08482850162001ca0565b91505092915050565b7f4f6e6c79207468652073656c6c65722074686174206f776e732074686520736560008201527f72766963652063616e2063616c6c20746869732066756e6374696f6e00000000602082015250565b600062001d47603c8362001a47565b915062001d548262001ce9565b604082019050919050565b6000602082019050818103600083015262001d7a8162001d38565b9050919050565b7f4e487b7100000000000000000000000000000000000000000000000000000000600052601160045260246000fd5b600062001dbd8262001936565b91507fffffffffffffffffffffffffffffffffffffffffffffffffffffffffffffffff820362001df25762001df162001d81565b5b600182019050919050565b7f53657276696365206e6f7420666f756e64000000000000000000000000000000600082015250565b600062001e3560118362001a47565b915062001e428262001dfd565b602082019050919050565b6000602082019050818103600083015262001e688162001e26565b9050919050565b60008115159050919050565b62001e868162001e6f565b811462001e9257600080fd5b50565b60008151905062001ea68162001e7b565b92915050565b60006020828403121562001ec55762001ec4620015ce565b5b600062001ed58482850162001e95565b91505092915050565b7f53657276696365206973206e6f74206163746976650000000000000000000000600082015250565b600062001f1660158362001a47565b915062001f238262001ede565b602082019050919050565b6000602082019050818103600083015262001f498162001f07565b9050919050565b6000602082019050818103600083015262001f6c818462001a84565b905092915050565b62001f7f8162001e6f565b82525050565b600060208201905062001f9c600083018462001f74565b9291505056fe60a06040526001600260006101000a81548160ff02191690831515021790555060006003553480156200003157600080fd5b5060405162002bda38038062002bda8339818101604052810190620000579190620002b0565b8273ffffffffffffffffffffffffffffffffffffffff1660808173ffffffffffffffffffffffffffffffffffffffff168152505081600090816200009c919062000595565b508060019081620000ae919062000595565b505050506200067c565b6000604051905090565b600080fd5b600080fd5b600073ffffffffffffffffffffffffffffffffffffffff82169050919050565b6000620000f982620000cc565b9050919050565b6200010b81620000ec565b81146200011757600080fd5b50565b6000815190506200012b8162000100565b92915050565b600080fd5b600080fd5b6000601f19601f8301169050919050565b7f4e487b7100000000000000000000000000000000000000000000000000000000600052604160045260246000fd5b62000186826200013b565b810181811067ffffffffffffffff82111715620001a857620001a76200014c565b5b80604052505050565b6000620001bd620000b8565b9050620001cb82826200017b565b919050565b600067ffffffffffffffff821115620001ee57620001ed6200014c565b5b620001f9826200013b565b9050602081019050919050565b60005b838110156200022657808201518184015260208101905062000209565b60008484015250505050565b6000620002496200024384620001d0565b620001b1565b90508281526020810184848401111562000268576200026762000136565b5b6200027584828562000206565b509392505050565b600082601f83011262000295576200029462000131565b5b8151620002a784826020860162000232565b91505092915050565b600080600060608486031215620002cc57620002cb620000c2565b5b6000620002dc868287016200011a565b935050602084015167ffffffffffffffff8111156200030057620002ff620000c7565b5b6200030e868287016200027d565b925050604084015167ffffffffffffffff811115620003325762000331620000c7565b5b62000340868287016200027d565b9150509250925092565b600081519050919050565b7f4e487b7100000000000000000000000000000000000000000000000000000000600052602260045260246000fd5b600060028204905060018216806200039d57607f821691505b602082108103620003b357620003b262000355565b5b50919050565b60008190508160005260206000209050919050565b60006020601f8301049050919050565b600082821b905092915050565b6000600883026200041d7fffffffffffffffffffffffffffffffffffffffffffffffffffffffffffffffff82620003de565b620004298683620003de565b95508019841693508086168417925050509392505050565b6000819050919050565b6000819050919050565b600062000476620004706200046a8462000441565b6200044b565b62000441565b9050919050565b6000819050919050565b620004928362000455565b620004aa620004a1826200047d565b848454620003eb565b825550505050565b600090565b620004c1620004b2565b620004ce81848462000487565b505050565b5b81811015620004f657620004ea600082620004b7565b600181019050620004d4565b5050565b601f82111562000545576200050f81620003b9565b6200051a84620003ce565b810160208510156200052a578190505b620005426200053985620003ce565b830182620004d3565b50505b505050565b600082821c905092915050565b60006200056a600019846008026200054a565b1980831691505092915050565b600062000585838362000557565b9150826002028217905092915050565b620005a0826200034a565b67ffffffffffffffff811115620005bc57620005bb6200014c565b5b620005c8825462000384565b620005d5828285620004fa565b600060209050601f8311600181146200060d5760008415620005f8578287015190505b62000604858262000577565b86555062000674565b601f1984166200061d86620003b9565b60005b82811015620006475784890151825560018201915060208501945060208101905062000620565b8683101562000667578489015162000663601f89168262000557565b8355505b6001600288020188555050505b505050505050565b60805161251f620006bb6000396000818161061501528181610760015281816110a10152818161129601528181611570015261168c015261251f6000f3fe6080604052600436106100e85760003560e01c80633b47a9ac1161008a5780638a2405a8116100595780638a2405a8146102a957806390c3f38f146102d2578063c47f0027146102fb578063fba7cc7914610324576100e8565b80633b47a9ac146102075780637284e416146102375780637ac9b09814610262578063893d20e81461027e576100e8565b806321235083116100c6578063212350831461016e57806322f3e2d4146101975780632750fc78146101c25780633399d389146101eb576100e8565b806306fdde03146100ed57806317d7de7c146101185780631a09254114610143575b600080fd5b3480156100f957600080fd5b5061010261034f565b60405161010f919061184d565b60405180910390f35b34801561012457600080fd5b5061012d6103dd565b60405161013a919061184d565b60405180910390f35b34801561014f57600080fd5b5061015861046f565b604051610165919061184d565b60405180910390f35b34801561017a57600080fd5b50610195600480360381019061019091906118b9565b610501565b005b3480156101a357600080fd5b506101ac61074b565b6040516101b99190611901565b60405180910390f35b3480156101ce57600080fd5b506101e960048036038101906101e49190611948565b61075e565b005b610205600480360381019061020091906119d3565b610835565b005b34801561021357600080fd5b5061021c610b49565b60405161022e96959493929190611ba2565b60405180910390f35b34801561024357600080fd5b5061024c610eff565b604051610259919061184d565b60405180910390f35b61027c600480360381019061027791906118b9565b610f8d565b005b34801561028a57600080fd5b50610293611292565b6040516102a09190611c3c565b60405180910390f35b3480156102b557600080fd5b506102d060048036038101906102cb91906119d3565b6112ba565b005b3480156102de57600080fd5b506102f960048036038101906102f49190611d8c565b61156e565b005b34801561030757600080fd5b50610322600480360381019061031d9190611d8c565b61168a565b005b34801561033057600080fd5b506103396117a6565b6040516103469190611901565b60405180910390f35b6000805461035c90611e04565b80601f016020809104026020016040519081016040528092919081815260200182805461038890611e04565b80156103d55780601f106103aa576101008083540402835291602001916103d5565b820191906000526020600020905b8154815290600101906020018083116103b857829003601f168201915b505050505081565b6060600080546103ec90611e04565b80601f016020809104026020016040519081016040528092919081815260200182805461041890611e04565b80156104655780601f1061043a57610100808354040283529160200191610465565b820191906000526020600020905b81548152906001019060200180831161044857829003601f168201915b5050505050905090565b60606001805461047e90611e04565b80601f01602080910402602001604051908101604052809291908181526020018280546104aa90611e04565b80156104f75780601f106104cc576101008083540402835291602001916104f7565b820191906000526020600020905b8154815290600101906020018083116104da57829003601f168201915b5050505050905090565b80600073ffffffffffffffffffffffffffffffffffffffff166004600083815260200190815260200160002060000160009054906101000a900473ffffffffffffffffffffffffffffffffffffffff1673ffffffffffffffffffffffffffffffffffffffff16036105a7576040517f08c379a000000000000000000000000000000000000000000000000000000000815260040161059e90611e81565b60405180910390fd5b813373ffffffffffffffffffffffffffffffffffffffff166004600083815260200190815260200160002060000160009054906101000a900473ffffffffffffffffffffffffffffffffffffffff1673ffffffffffffffffffffffffffffffffffffffff16148061066357507f000000000000000000000000000000000000000000000000000000000000000073ffffffffffffffffffffffffffffffffffffffff163373ffffffffffffffffffffffffffffffffffffffff16145b6106a2576040517f08c379a000000000000000000000000000000000000000000000000000000000815260040161069990611eed565b60405180910390fd5b600260009054906101000a900460ff166106f1576040517f08c379a00000000000000000000000000000000000000000000000000000000081526004016106e890611f59565b60405180910390fd5b6103e8426106ff9190611fa8565b6004600085815260200190815260200160002060050181905550827fbd2bcea75d16a85f005cd83447e0de57341bf926fe7419e6d553663e91ab4da760405160405180910390a2505050565b600260009054906101000a900460ff1681565b7f000000000000000000000000000000000000000000000000000000000000000073ffffffffffffffffffffffffffffffffffffffff163373ffffffffffffffffffffffffffffffffffffffff16146107ec576040517f08c379a00000000000000000000000000000000000000000000000000000000081526004016107e390612036565b60405180910390fd5b80600260006101000a81548160ff0219169083151502179055507f0338bfbdafb8aabb328abde5acfe20059c4c051ba2d9c13b41fa03b3bc9e637a60405160405180910390a150565b8260005b600354811015610929578173ffffffffffffffffffffffffffffffffffffffff166004600083815260200190815260200160002060000160009054906101000a900473ffffffffffffffffffffffffffffffffffffffff1673ffffffffffffffffffffffffffffffffffffffff161480156108d6575060046000828152602001908152602001600020600501546103e8426108d49190611fa8565b105b15610916576040517f08c379a000000000000000000000000000000000000000000000000000000000815260040161090d906120c8565b60405180910390fd5b8080610921906120e8565b915050610839565b50826000811161096e576040517f08c379a00000000000000000000000000000000000000000000000000000000081526004016109659061217c565b60405180910390fd5b600260009054906101000a900460ff166109bd576040517f08c379a00000000000000000000000000000000000000000000000000000000081526004016109b490611f59565b60405180910390fd5b60006040518060c001604052808773ffffffffffffffffffffffffffffffffffffffff16815260200160035481526020018681526020018581526020016103e842610a089190611fa8565b81526020016103e86201518087610a1f9190611fa8565b42610a2a919061219c565b610a349190611fa8565b81525090508060046000600354815260200190815260200160002060008201518160000160006101000a81548173ffffffffffffffffffffffffffffffffffffffff021916908373ffffffffffffffffffffffffffffffffffffffff1602179055506020820151816001015560408201518160020155606082015181600301556080820151816004015560a082015181600501559050506003547f6a2b70dde6ae0193f84b6a9eeb3b0ebdc3a35e99d9167b88c570158dd09cb0f760405160405180910390a26003547f9040c259954b48f5dfdf60ea91e742403e7552202de9925d509fdd8187b2130b60405160405180910390a260036000815480929190610b3c906120e8565b9190505550505050505050565b606080606080606080600060035467ffffffffffffffff811115610b7057610b6f611c61565b5b604051908082528060200260200182016040528015610b9e5781602001602082028036833780820191505090505b509050600060035467ffffffffffffffff811115610bbf57610bbe611c61565b5b604051908082528060200260200182016040528015610bed5781602001602082028036833780820191505090505b509050600060035467ffffffffffffffff811115610c0e57610c0d611c61565b5b604051908082528060200260200182016040528015610c3c5781602001602082028036833780820191505090505b509050600060035467ffffffffffffffff811115610c5d57610c5c611c61565b5b604051908082528060200260200182016040528015610c8b5781602001602082028036833780820191505090505b509050600060035467ffffffffffffffff811115610cac57610cab611c61565b5b604051908082528060200260200182016040528015610cda5781602001602082028036833780820191505090505b509050600060035467ffffffffffffffff811115610cfb57610cfa611c61565b5b604051908082528060200260200182016040528015610d295781602001602082028036833780820191505090505b50905060005b600354811015610ede576004600082815260200190815260200160002060000160009054906101000a900473ffffffffffffffffffffffffffffffffffffffff16878281518110610d8357610d826121d0565b5b602002602001019073ffffffffffffffffffffffffffffffffffffffff16908173ffffffffffffffffffffffffffffffffffffffff16815250506004600082815260200190815260200160002060010154868281518110610de757610de66121d0565b5b6020026020010181815250506004600082815260200190815260200160002060020154858281518110610e1d57610e1c6121d0565b5b6020026020010181815250506004600082815260200190815260200160002060030154848281518110610e5357610e526121d0565b5b6020026020010181815250506004600082815260200190815260200160002060040154838281518110610e8957610e886121d0565b5b6020026020010181815250506004600082815260200190815260200160002060050154828281518110610ebf57610ebe6121d0565b5b6020026020010181815250508080610ed6906120e8565b915050610d2f565b508585858585859b509b509b509b509b509b50505050505050909192939495565b60018054610f0c90611e04565b80601f0160208091040260200160405190810160405280929190818152602001828054610f3890611e04565b8015610f855780601f10610f5a57610100808354040283529160200191610f85565b820191906000526020600020905b815481529060010190602001808311610f6857829003601f168201915b505050505081565b80600073ffffffffffffffffffffffffffffffffffffffff166004600083815260200190815260200160002060000160009054906101000a900473ffffffffffffffffffffffffffffffffffffffff1673ffffffffffffffffffffffffffffffffffffffff1603611033576040517f08c379a000000000000000000000000000000000000000000000000000000000815260040161102a90611e81565b60405180910390fd5b813373ffffffffffffffffffffffffffffffffffffffff166004600083815260200190815260200160002060000160009054906101000a900473ffffffffffffffffffffffffffffffffffffffff1673ffffffffffffffffffffffffffffffffffffffff1614806110ef57507f000000000000000000000000000000000000000000000000000000000000000073ffffffffffffffffffffffffffffffffffffffff163373ffffffffffffffffffffffffffffffffffffffff16145b61112e576040517f08c379a000000000000000000000000000000000000000000000000000000000815260040161112590611eed565b60405180910390fd5b600260009054906101000a900460ff1661117d576040517f08c379a000000000000000000000000000000000000000000000000000000000815260040161117490611f59565b60405180910390fd5b60003490506000600460008681526020019081526020016000206002015490508082146111df576040517f08c379a00000000000000000000000000000000000000000000000000000000081526004016111d69061224b565b60405180910390fd5b6103e8426111ed9190611fa8565b60046000878152602001908152602001600020600401819055506103e862015180600460008881526020019081526020016000206003015461122f9190611fa8565b4261123a919061219c565b6112449190611fa8565b6004600087815260200190815260200160002060050181905550847f9040c259954b48f5dfdf60ea91e742403e7552202de9925d509fdd8187b2130b60405160405180910390a25050505050565b60007f0000000000000000000000000000000000000000000000000000000000000000905090565b8260005b6003548110156113ae578173ffffffffffffffffffffffffffffffffffffffff166004600083815260200190815260200160002060000160009054906101000a900473ffffffffffffffffffffffffffffffffffffffff1673ffffffffffffffffffffffffffffffffffffffff1614801561135b575060046000828152602001908152602001600020600501546103e8426113599190611fa8565b105b1561139b576040517f08c379a0000000000000000000000000000000000000000000000000000000008152600401611392906120c8565b60405180910390fd5b80806113a6906120e8565b9150506112be565b5082600081116113f3576040517f08c379a00000000000000000000000000000000000000000000000000000000081526004016113ea9061217c565b60405180910390fd5b600260009054906101000a900460ff16611442576040517f08c379a000000000000000000000000000000000000000000000000000000000815260040161143990611f59565b60405180910390fd5b60006040518060c001604052808773ffffffffffffffffffffffffffffffffffffffff168152602001600354815260200186815260200185815260200160008152602001600081525090508060046000600354815260200190815260200160002060008201518160000160006101000a81548173ffffffffffffffffffffffffffffffffffffffff021916908373ffffffffffffffffffffffffffffffffffffffff1602179055506020820151816001015560408201518160020155606082015181600301556080820151816004015560a082015181600501559050506003547f6a2b70dde6ae0193f84b6a9eeb3b0ebdc3a35e99d9167b88c570158dd09cb0f760405160405180910390a260036000815480929190611561906120e8565b9190505550505050505050565b7f000000000000000000000000000000000000000000000000000000000000000073ffffffffffffffffffffffffffffffffffffffff163373ffffffffffffffffffffffffffffffffffffffff16146115fc576040517f08c379a00000000000000000000000000000000000000000000000000000000081526004016115f390612036565b60405180910390fd5b600260009054906101000a900460ff1661164b576040517f08c379a000000000000000000000000000000000000000000000000000000000815260040161164290611f59565b60405180910390fd5b806001908161165a9190612417565b507f0338bfbdafb8aabb328abde5acfe20059c4c051ba2d9c13b41fa03b3bc9e637a60405160405180910390a150565b7f000000000000000000000000000000000000000000000000000000000000000073ffffffffffffffffffffffffffffffffffffffff163373ffffffffffffffffffffffffffffffffffffffff1614611718576040517f08c379a000000000000000000000000000000000000000000000000000000000815260040161170f90612036565b60405180910390fd5b600260009054906101000a900460ff16611767576040517f08c379a000000000000000000000000000000000000000000000000000000000815260040161175e90611f59565b60405180910390fd5b80600090816117769190612417565b507f0338bfbdafb8aabb328abde5acfe20059c4c051ba2d9c13b41fa03b3bc9e637a60405160405180910390a150565b6000600260009054906101000a900460ff16905090565b600081519050919050565b600082825260208201905092915050565b60005b838110156117f75780820151818401526020810190506117dc565b60008484015250505050565b6000601f19601f8301169050919050565b600061181f826117bd565b61182981856117c8565b93506118398185602086016117d9565b61184281611803565b840191505092915050565b600060208201905081810360008301526118678184611814565b905092915050565b6000604051905090565b600080fd5b600080fd5b6000819050919050565b61189681611883565b81146118a157600080fd5b50565b6000813590506118b38161188d565b92915050565b6000602082840312156118cf576118ce611879565b5b60006118dd848285016118a4565b91505092915050565b60008115159050919050565b6118fb816118e6565b82525050565b600060208201905061191660008301846118f2565b92915050565b611925816118e6565b811461193057600080fd5b50565b6000813590506119428161191c565b92915050565b60006020828403121561195e5761195d611879565b5b600061196c84828501611933565b91505092915050565b600073ffffffffffffffffffffffffffffffffffffffff82169050919050565b60006119a082611975565b9050919050565b6119b081611995565b81146119bb57600080fd5b50565b6000813590506119cd816119a7565b92915050565b6000806000606084860312156119ec576119eb611879565b5b60006119fa868287016119be565b9350506020611a0b868287016118a4565b9250506040611a1c868287016118a4565b9150509250925092565b600081519050919050565b600082825260208201905092915050565b6000819050602082019050919050565b611a5b81611995565b82525050565b6000611a6d8383611a52565b60208301905092915050565b6000602082019050919050565b6000611a9182611a26565b611a9b8185611a31565b9350611aa683611a42565b8060005b83811015611ad7578151611abe8882611a61565b9750611ac983611a79565b925050600181019050611aaa565b5085935050505092915050565b600081519050919050565b600082825260208201905092915050565b6000819050602082019050919050565b611b1981611883565b82525050565b6000611b2b8383611b10565b60208301905092915050565b6000602082019050919050565b6000611b4f82611ae4565b611b598185611aef565b9350611b6483611b00565b8060005b83811015611b95578151611b7c8882611b1f565b9750611b8783611b37565b925050600181019050611b68565b5085935050505092915050565b600060c0820190508181036000830152611bbc8189611a86565b90508181036020830152611bd08188611b44565b90508181036040830152611be48187611b44565b90508181036060830152611bf88186611b44565b90508181036080830152611c0c8185611b44565b905081810360a0830152611c208184611b44565b9050979650505050505050565b611c3681611995565b82525050565b6000602082019050611c516000830184611c2d565b92915050565b600080fd5b600080fd5b7f4e487b7100000000000000000000000000000000000000000000000000000000600052604160045260246000fd5b611c9982611803565b810181811067ffffffffffffffff82111715611cb857611cb7611c61565b5b80604052505050565b6000611ccb61186f565b9050611cd78282611c90565b919050565b600067ffffffffffffffff821115611cf757611cf6611c61565b5b611d0082611803565b9050602081019050919050565b82818337600083830152505050565b6000611d2f611d2a84611cdc565b611cc1565b905082815260208101848484011115611d4b57611d4a611c5c565b5b611d56848285611d0d565b509392505050565b600082601f830112611d7357611d72611c57565b5b8135611d83848260208601611d1c565b91505092915050565b600060208284031215611da257611da1611879565b5b600082013567ffffffffffffffff811115611dc057611dbf61187e565b5b611dcc84828501611d5e565b91505092915050565b7f4e487b7100000000000000000000000000000000000000000000000000000000600052602260045260246000fd5b60006002820490506001821680611e1c57607f821691505b602082108103611e2f57611e2e611dd5565b5b50919050565b7f537562736372697074696f6e20646f6573206e6f742065786973740000000000600082015250565b6000611e6b601b836117c8565b9150611e7682611e35565b602082019050919050565b60006020820190508181036000830152611e9a81611e5e565b9050919050565b7f43616c6c6572206973206e6f7420746865207375627363726962657200000000600082015250565b6000611ed7601c836117c8565b9150611ee282611ea1565b602082019050919050565b60006020820190508181036000830152611f0681611eca565b9050919050565b7f53657276696365206973206e6f74206163746976650000000000000000000000600082015250565b6000611f436015836117c8565b9150611f4e82611f0d565b602082019050919050565b60006020820190508181036000830152611f7281611f36565b9050919050565b7f4e487b7100000000000000000000000000000000000000000000000000000000600052601160045260246000fd5b6000611fb382611883565b9150611fbe83611883565b9250828202611fcc81611883565b91508282048414831517611fe357611fe2611f79565b5b5092915050565b7f4f6e6c79206f776e657220697320616c6c6f7765640000000000000000000000600082015250565b60006120206015836117c8565b915061202b82611fea565b602082019050919050565b6000602082019050818103600083015261204f81612013565b9050919050565b7f5375627363726962657220616c72656164792068617320616e2061637469766560008201527f20737562736372697074696f6e00000000000000000000000000000000000000602082015250565b60006120b2602d836117c8565b91506120bd82612056565b604082019050919050565b600060208201905081810360008301526120e1816120a5565b9050919050565b60006120f382611883565b91507fffffffffffffffffffffffffffffffffffffffffffffffffffffffffffffffff820361212557612124611f79565b5b600182019050919050565b7f56616c7565206d7573742062652067726561746572207468616e207a65726f00600082015250565b6000612166601f836117c8565b915061217182612130565b602082019050919050565b6000602082019050818103600083015261219581612159565b9050919050565b60006121a782611883565b91506121b283611883565b92508282019050808211156121ca576121c9611f79565b5b92915050565b7f4e487b7100000000000000000000000000000000000000000000000000000000600052603260045260246000fd5b7f496e76616c696420616d6f756e74000000000000000000000000000000000000600082015250565b6000612235600e836117c8565b9150612240826121ff565b602082019050919050565b6000602082019050818103600083015261226481612228565b9050919050565b60008190508160005260206000209050919050565b60006020601f8301049050919050565b600082821b905092915050565b6000600883026122cd7fffffffffffffffffffffffffffffffffffffffffffffffffffffffffffffffff82612290565b6122d78683612290565b95508019841693508086168417925050509392505050565b6000819050919050565b600061231461230f61230a84611883565b6122ef565b611883565b9050919050565b6000819050919050565b61232e836122f9565b61234261233a8261231b565b84845461229d565b825550505050565b600090565b61235761234a565b612362818484612325565b505050565b5b818110156123865761237b60008261234f565b600181019050612368565b5050565b601f8211156123cb5761239c8161226b565b6123a584612280565b810160208510156123b4578190505b6123c86123c085612280565b830182612367565b50505b505050565b600082821c905092915050565b60006123ee600019846008026123d0565b1980831691505092915050565b600061240783836123dd565b9150826002028217905092915050565b612420826117bd565b67ffffffffffffffff81111561243957612438611c61565b5b6124438254611e04565b61244e82828561238a565b600060209050601f831160018114612481576000841561246f578287015190505b61247985826123fb565b8655506124e1565b601f19841661248f8661226b565b60005b828110156124b757848901518255600182019150602085019450602081019050612492565b868310156124d457848901516124d0601f8916826123dd565b8355505b6001600288020188555050505b50505050505056fea2646970667358221220a4436363195f229d59d2470c64eef2f9c0b2e520901f7b9bfd35c06007625d9d64736f6c63430008140033a2646970667358221220f68607401180378fba90e50fc9e705b589424ee0a53d68ceb895b2ffe6d2c4aa64736f6c63430008140033",
  "linkReferences": {},
  "deployedLinkReferences": {}
}