{
  "_format": "hh-sol-artifact-1",
  "contractName": "ServiceFactory",
  "sourceName": "contracts/ServiceFactory.sol",
  "abi": [
    {
      "inputs": [],
      "stateMutability": "nonpayable",
      "type": "constructor"
    },
    {
      "anonymous": false,
      "inputs": [
        {
          "indexed": false,
          "internalType": "address",
          "name": "serviceAddress",
          "type": "address"
        }
      ],
      "name": "ServiceCreated",
      "type": "event"
    },
    {
      "anonymous": false,
      "inputs": [
        {
          "indexed": false,
          "internalType": "address",
          "name": "serviceAddress",
          "type": "address"
        }
      ],
      "name": "ServiceNotFound",
      "type": "event"
    },
    {
      "inputs": [
        {
          "internalType": "string",
          "name": "_servicename",
          "type": "string"
        }
      ],
      "name": "checkNameAvailability",
      "outputs": [
        {
          "internalType": "bool",
          "name": "",
          "type": "bool"
        }
      ],
      "stateMutability": "view",
      "type": "function"
    },
    {
      "inputs": [],
      "name": "checkServices",
      "outputs": [],
      "stateMutability": "nonpayable",
      "type": "function"
    },
    {
      "inputs": [
        {
          "internalType": "string",
          "name": "_servicename",
          "type": "string"
        },
        {
          "internalType": "string",
          "name": "_servicedescription",
          "type": "string"
        }
      ],
      "name": "createService",
      "outputs": [],
      "stateMutability": "nonpayable",
      "type": "function"
    },
    {
      "inputs": [],
      "name": "getServicesAddresses",
      "outputs": [
        {
          "internalType": "address[]",
          "name": "",
          "type": "address[]"
        }
      ],
      "stateMutability": "view",
      "type": "function"
    },
    {
      "inputs": [
        {
          "internalType": "uint256",
          "name": "",
          "type": "uint256"
        }
      ],
      "name": "services",
      "outputs": [
        {
          "internalType": "contract Service",
          "name": "",
          "type": "address"
        }
      ],
      "stateMutability": "view",
      "type": "function"
    }
  ],
  "bytecode": "0x608060405234801561001057600080fd5b506143cd806100206000396000f3fe60806040523480156200001157600080fd5b50600436106200005e5760003560e01c80636a5e1f921462000063578063a6a46ccb1462000083578063bd5ec58f146200008f578063c22c4f4314620000b1578063eabfca6914620000e7575b600080fd5b6200008160048036038101906200007b91906200089f565b6200011d565b005b6200008d62000375565b005b6200009962000442565b604051620000a8919062000a26565b60405180910390f35b620000cf6004803603810190620000c9919062000a85565b6200055a565b604051620000de919062000b22565b60405180910390f35b620001056004803603810190620000ff919062000b3f565b6200059a565b60405162000114919062000bad565b60405180910390f35b8160005b60008054905081101562000291578160405160200162000142919062000c43565b60405160208183030381529060405280519060200120600082815481106200016f576200016e62000c5c565b5b9060005260206000200160009054906101000a900473ffffffffffffffffffffffffffffffffffffffff1673ffffffffffffffffffffffffffffffffffffffff166317d7de7c6040518163ffffffff1660e01b8152600401600060405180830381865afa158015620001e5573d6000803e3d6000fd5b505050506040513d6000823e3d601f19601f8201168201806040525081019062000210919062000d09565b60405160200162000222919062000c43565b60405160208183030381529060405280519060200120036200027b576040517f08c379a0000000000000000000000000000000000000000000000000000000008152600401620002729062000dbb565b60405180910390fd5b8080620002889062000e0c565b91505062000121565b506000338484604051620002a5906200071b565b620002b39392919062000eab565b604051809103906000f080158015620002d0573d6000803e3d6000fd5b5090506000819080600181540180825580915050600190039060005260206000200160009091909190916101000a81548173ffffffffffffffffffffffffffffffffffffffff021916908373ffffffffffffffffffffffffffffffffffffffff1602179055507fae046aa848296872ccdf284df55df8650f0cf3addb0f62eb26d9a10112c744508160405162000367919062000ef6565b60405180910390a150505050565b60005b6000805490508110156200043f57600081815481106200039d576200039c62000c5c565b5b9060005260206000200160009054906101000a900473ffffffffffffffffffffffffffffffffffffffff1673ffffffffffffffffffffffffffffffffffffffff1663c82494a26040518163ffffffff1660e01b8152600401600060405180830381600087803b1580156200041057600080fd5b505af115801562000425573d6000803e3d6000fd5b505050508080620004369062000e0c565b91505062000378565b50565b60606000808054905067ffffffffffffffff81111562000467576200046662000758565b5b604051908082528060200260200182016040528015620004965781602001602082028036833780820191505090505b50905060005b600080549050811015620005525760008181548110620004c157620004c062000c5c565b5b9060005260206000200160009054906101000a900473ffffffffffffffffffffffffffffffffffffffff1682828151811062000502576200050162000c5c565b5b602002602001019073ffffffffffffffffffffffffffffffffffffffff16908173ffffffffffffffffffffffffffffffffffffffff16815250508080620005499062000e0c565b9150506200049c565b508091505090565b600081815481106200056b57600080fd5b906000526020600020016000915054906101000a900473ffffffffffffffffffffffffffffffffffffffff1681565b60008160005b600080549050811015620007105781604051602001620005c1919062000c43565b6040516020818303038152906040528051906020012060008281548110620005ee57620005ed62000c5c565b5b9060005260206000200160009054906101000a900473ffffffffffffffffffffffffffffffffffffffff1673ffffffffffffffffffffffffffffffffffffffff166317d7de7c6040518163ffffffff1660e01b8152600401600060405180830381865afa15801562000664573d6000803e3d6000fd5b505050506040513d6000823e3d601f19601f820116820180604052508101906200068f919062000d09565b604051602001620006a1919062000c43565b6040516020818303038152906040528051906020012003620006fa576040517f08c379a0000000000000000000000000000000000000000000000000000000008152600401620006f19062000dbb565b60405180910390fd5b8080620007079062000e0c565b915050620005a0565b506001915050919050565b6134848062000f1483390190565b6000604051905090565b600080fd5b600080fd5b600080fd5b600080fd5b6000601f19601f8301169050919050565b7f4e487b7100000000000000000000000000000000000000000000000000000000600052604160045260246000fd5b620007928262000747565b810181811067ffffffffffffffff82111715620007b457620007b362000758565b5b80604052505050565b6000620007c962000729565b9050620007d7828262000787565b919050565b600067ffffffffffffffff821115620007fa57620007f962000758565b5b620008058262000747565b9050602081019050919050565b82818337600083830152505050565b6000620008386200083284620007dc565b620007bd565b90508281526020810184848401111562000857576200085662000742565b5b6200086484828562000812565b509392505050565b600082601f8301126200088457620008836200073d565b5b81356200089684826020860162000821565b91505092915050565b60008060408385031215620008b957620008b862000733565b5b600083013567ffffffffffffffff811115620008da57620008d962000738565b5b620008e8858286016200086c565b925050602083013567ffffffffffffffff8111156200090c576200090b62000738565b5b6200091a858286016200086c565b9150509250929050565b600081519050919050565b600082825260208201905092915050565b6000819050602082019050919050565b600073ffffffffffffffffffffffffffffffffffffffff82169050919050565b60006200097d8262000950565b9050919050565b6200098f8162000970565b82525050565b6000620009a3838362000984565b60208301905092915050565b6000602082019050919050565b6000620009c98262000924565b620009d581856200092f565b9350620009e28362000940565b8060005b8381101562000a19578151620009fd888262000995565b975062000a0a83620009af565b925050600181019050620009e6565b5085935050505092915050565b6000602082019050818103600083015262000a428184620009bc565b905092915050565b6000819050919050565b62000a5f8162000a4a565b811462000a6b57600080fd5b50565b60008135905062000a7f8162000a54565b92915050565b60006020828403121562000a9e5762000a9d62000733565b5b600062000aae8482850162000a6e565b91505092915050565b6000819050919050565b600062000ae262000adc62000ad68462000950565b62000ab7565b62000950565b9050919050565b600062000af68262000ac1565b9050919050565b600062000b0a8262000ae9565b9050919050565b62000b1c8162000afd565b82525050565b600060208201905062000b39600083018462000b11565b92915050565b60006020828403121562000b585762000b5762000733565b5b600082013567ffffffffffffffff81111562000b795762000b7862000738565b5b62000b87848285016200086c565b91505092915050565b60008115159050919050565b62000ba78162000b90565b82525050565b600060208201905062000bc4600083018462000b9c565b92915050565b600081519050919050565b600081905092915050565b60005b8381101562000c0057808201518184015260208101905062000be3565b60008484015250505050565b600062000c198262000bca565b62000c25818562000bd5565b935062000c3781856020860162000be0565b80840191505092915050565b600062000c51828462000c0c565b915081905092915050565b7f4e487b7100000000000000000000000000000000000000000000000000000000600052603260045260246000fd5b600062000ca262000c9c84620007dc565b620007bd565b90508281526020810184848401111562000cc15762000cc062000742565b5b62000cce84828562000be0565b509392505050565b600082601f83011262000cee5762000ced6200073d565b5b815162000d0084826020860162000c8b565b91505092915050565b60006020828403121562000d225762000d2162000733565b5b600082015167ffffffffffffffff81111562000d435762000d4262000738565b5b62000d518482850162000cd6565b91505092915050565b600082825260208201905092915050565b7f53657276696365206e616d6520697320616c72656164792074616b656e000000600082015250565b600062000da3601d8362000d5a565b915062000db08262000d6b565b602082019050919050565b6000602082019050818103600083015262000dd68162000d94565b9050919050565b7f4e487b7100000000000000000000000000000000000000000000000000000000600052601160045260246000fd5b600062000e198262000a4a565b91507fffffffffffffffffffffffffffffffffffffffffffffffffffffffffffffffff820362000e4e5762000e4d62000ddd565b5b600182019050919050565b62000e648162000970565b82525050565b600062000e778262000bca565b62000e83818562000d5a565b935062000e9581856020860162000be0565b62000ea08162000747565b840191505092915050565b600060608201905062000ec2600083018662000e59565b818103602083015262000ed6818562000e6a565b9050818103604083015262000eec818462000e6a565b9050949350505050565b600060208201905062000f0d600083018462000e59565b9291505056fe60a06040526001600260006101000a81548160ff02191690831515021790555060006003553480156200003157600080fd5b5060405162003484380380620034848339818101604052810190620000579190620002b0565b8273ffffffffffffffffffffffffffffffffffffffff1660808173ffffffffffffffffffffffffffffffffffffffff168152505081600090816200009c919062000595565b508060019081620000ae919062000595565b505050506200067c565b6000604051905090565b600080fd5b600080fd5b600073ffffffffffffffffffffffffffffffffffffffff82169050919050565b6000620000f982620000cc565b9050919050565b6200010b81620000ec565b81146200011757600080fd5b50565b6000815190506200012b8162000100565b92915050565b600080fd5b600080fd5b6000601f19601f8301169050919050565b7f4e487b7100000000000000000000000000000000000000000000000000000000600052604160045260246000fd5b62000186826200013b565b810181811067ffffffffffffffff82111715620001a857620001a76200014c565b5b80604052505050565b6000620001bd620000b8565b9050620001cb82826200017b565b919050565b600067ffffffffffffffff821115620001ee57620001ed6200014c565b5b620001f9826200013b565b9050602081019050919050565b60005b838110156200022657808201518184015260208101905062000209565b60008484015250505050565b6000620002496200024384620001d0565b620001b1565b90508281526020810184848401111562000268576200026762000136565b5b6200027584828562000206565b509392505050565b600082601f83011262000295576200029462000131565b5b8151620002a784826020860162000232565b91505092915050565b600080600060608486031215620002cc57620002cb620000c2565b5b6000620002dc868287016200011a565b935050602084015167ffffffffffffffff8111156200030057620002ff620000c7565b5b6200030e868287016200027d565b925050604084015167ffffffffffffffff811115620003325762000331620000c7565b5b62000340868287016200027d565b9150509250925092565b600081519050919050565b7f4e487b7100000000000000000000000000000000000000000000000000000000600052602260045260246000fd5b600060028204905060018216806200039d57607f821691505b602082108103620003b357620003b262000355565b5b50919050565b60008190508160005260206000209050919050565b60006020601f8301049050919050565b600082821b905092915050565b6000600883026200041d7fffffffffffffffffffffffffffffffffffffffffffffffffffffffffffffffff82620003de565b620004298683620003de565b95508019841693508086168417925050509392505050565b6000819050919050565b6000819050919050565b600062000476620004706200046a8462000441565b6200044b565b62000441565b9050919050565b6000819050919050565b620004928362000455565b620004aa620004a1826200047d565b848454620003eb565b825550505050565b600090565b620004c1620004b2565b620004ce81848462000487565b505050565b5b81811015620004f657620004ea600082620004b7565b600181019050620004d4565b5050565b601f82111562000545576200050f81620003b9565b6200051a84620003ce565b810160208510156200052a578190505b620005426200053985620003ce565b830182620004d3565b50505b505050565b600082821c905092915050565b60006200056a600019846008026200054a565b1980831691505092915050565b600062000585838362000557565b9150826002028217905092915050565b620005a0826200034a565b67ffffffffffffffff811115620005bc57620005bb6200014c565b5b620005c8825462000384565b620005d5828285620004fa565b600060209050601f8311600181146200060d5760008415620005f8578287015190505b62000604858262000577565b86555062000674565b601f1984166200061d86620003b9565b60005b82811015620006475784890151825560018201915060208501945060208101905062000620565b8683101562000667578489015162000663601f89168262000557565b8355505b6001600288020188555050505b505050505050565b608051612dbb620006c96000396000818161068e01528181610818015281816111f7015281816114d20152818161170601528181611a2901528181611b190152611c4a0152612dbb6000f3fe6080604052600436106101095760003560e01c80637284e4161161009557806390c3f38f1161006457806390c3f38f1461031d578063a4f96c0c14610346578063c47f00271461035d578063c82494a214610386578063fba7cc791461039d57610109565b80637284e416146102825780637ac9b098146102ad578063893d20e8146102c95780638a2405a8146102f457610109565b806322f3e2d4116100dc57806322f3e2d4146101b85780632750fc78146101e35780633399d3891461020c5780633b47a9ac14610228578063718b57dc1461025957610109565b806306fdde031461010e57806317d7de7c146101395780631a09254114610164578063212350831461018f575b600080fd5b34801561011a57600080fd5b506101236103c8565b6040516101309190611e6d565b60405180910390f35b34801561014557600080fd5b5061014e610456565b60405161015b9190611e6d565b60405180910390f35b34801561017057600080fd5b506101796104e8565b6040516101869190611e6d565b60405180910390f35b34801561019b57600080fd5b506101b660048036038101906101b19190611ed9565b61057a565b005b3480156101c457600080fd5b506101cd610803565b6040516101da9190611f21565b60405180910390f35b3480156101ef57600080fd5b5061020a60048036038101906102059190611f68565b610816565b005b61022660048036038101906102219190611ff3565b6108c1565b005b34801561023457600080fd5b5061023d610bef565b60405161025097969594939291906122ce565b60405180910390f35b34801561026557600080fd5b50610280600480360381019061027b91906124a3565b6111f5565b005b34801561028e57600080fd5b50610297611330565b6040516102a49190611e6d565b60405180910390f35b6102c760048036038101906102c29190611ed9565b6113be565b005b3480156102d557600080fd5b506102de611702565b6040516102eb919061252a565b60405180910390f35b34801561030057600080fd5b5061031b60048036038101906103169190611ff3565b61172a565b005b34801561032957600080fd5b50610344600480360381019061033f9190612545565b611a27565b005b34801561035257600080fd5b5061035b611b17565b005b34801561036957600080fd5b50610384600480360381019061037f9190612545565b611c48565b005b34801561039257600080fd5b5061039b611d38565b005b3480156103a957600080fd5b506103b2611dc6565b6040516103bf9190611f21565b60405180910390f35b600080546103d5906125bd565b80601f0160208091040260200160405190810160405280929190818152602001828054610401906125bd565b801561044e5780601f106104235761010080835404028352916020019161044e565b820191906000526020600020905b81548152906001019060200180831161043157829003601f168201915b505050505081565b606060008054610465906125bd565b80601f0160208091040260200160405190810160405280929190818152602001828054610491906125bd565b80156104de5780601f106104b3576101008083540402835291602001916104de565b820191906000526020600020905b8154815290600101906020018083116104c157829003601f168201915b5050505050905090565b6060600180546104f7906125bd565b80601f0160208091040260200160405190810160405280929190818152602001828054610523906125bd565b80156105705780601f1061054557610100808354040283529160200191610570565b820191906000526020600020905b81548152906001019060200180831161055357829003601f168201915b5050505050905090565b80600073ffffffffffffffffffffffffffffffffffffffff166004600083815260200190815260200160002060000160009054906101000a900473ffffffffffffffffffffffffffffffffffffffff1673ffffffffffffffffffffffffffffffffffffffff1603610620576040517f08c379a00000000000000000000000000000000000000000000000000000000081526004016106179061263a565b60405180910390fd5b813373ffffffffffffffffffffffffffffffffffffffff166004600083815260200190815260200160002060000160009054906101000a900473ffffffffffffffffffffffffffffffffffffffff1673ffffffffffffffffffffffffffffffffffffffff1614806106dc57507f000000000000000000000000000000000000000000000000000000000000000073ffffffffffffffffffffffffffffffffffffffff163373ffffffffffffffffffffffffffffffffffffffff16145b61071b576040517f08c379a0000000000000000000000000000000000000000000000000000000008152600401610712906126a6565b60405180910390fd5b600260009054906101000a900460ff1661076a576040517f08c379a000000000000000000000000000000000000000000000000000000000815260040161076190612712565b60405180910390fd5b6103e8426107789190612761565b600460008581526020019081526020016000206005018190555060036004600085815260200190815260200160002060060160006101000a81548160ff021916908360038111156107cc576107cb6127a3565b5b0217905550827fbd2bcea75d16a85f005cd83447e0de57341bf926fe7419e6d553663e91ab4da760405160405180910390a2505050565b600260009054906101000a900460ff1681565b7f000000000000000000000000000000000000000000000000000000000000000073ffffffffffffffffffffffffffffffffffffffff163373ffffffffffffffffffffffffffffffffffffffff16146108a4576040517f08c379a000000000000000000000000000000000000000000000000000000000815260040161089b9061281e565b60405180910390fd5b80600260006101000a81548160ff02191690831515021790555050565b8260005b6003548110156109b5578173ffffffffffffffffffffffffffffffffffffffff166004600083815260200190815260200160002060000160009054906101000a900473ffffffffffffffffffffffffffffffffffffffff1673ffffffffffffffffffffffffffffffffffffffff16148015610962575060046000828152602001908152602001600020600501546103e8426109609190612761565b105b156109a2576040517f08c379a0000000000000000000000000000000000000000000000000000000008152600401610999906128b0565b60405180910390fd5b80806109ad906128d0565b9150506108c5565b5082600081116109fa576040517f08c379a00000000000000000000000000000000000000000000000000000000081526004016109f190612964565b60405180910390fd5b600260009054906101000a900460ff16610a49576040517f08c379a0000000000000000000000000000000000000000000000000000000008152600401610a4090612712565b60405180910390fd5b60006040518060e001604052808773ffffffffffffffffffffffffffffffffffffffff16815260200160035481526020018681526020018581526020016103e842610a949190612761565b81526020016103e86201518087610aab9190612761565b42610ab69190612984565b610ac09190612761565b815260200160016003811115610ad957610ad86127a3565b5b81525090508060046000600354815260200190815260200160002060008201518160000160006101000a81548173ffffffffffffffffffffffffffffffffffffffff021916908373ffffffffffffffffffffffffffffffffffffffff1602179055506020820151816001015560408201518160020155606082015181600301556080820151816004015560a0820151816005015560c08201518160060160006101000a81548160ff02191690836003811115610b9857610b976127a3565b5b02179055509050506003547ffc92a747fa9c2199bb773d08eb7a76c871b1c9b634b5a1afc3cc4ccc643032e660405160405180910390a260036000815480929190610be2906128d0565b9190505550505050505050565b6060806060806060806060600060035467ffffffffffffffff811115610c1857610c17612378565b5b604051908082528060200260200182016040528015610c465781602001602082028036833780820191505090505b509050600060035467ffffffffffffffff811115610c6757610c66612378565b5b604051908082528060200260200182016040528015610c955781602001602082028036833780820191505090505b509050600060035467ffffffffffffffff811115610cb657610cb5612378565b5b604051908082528060200260200182016040528015610ce45781602001602082028036833780820191505090505b509050600060035467ffffffffffffffff811115610d0557610d04612378565b5b604051908082528060200260200182016040528015610d335781602001602082028036833780820191505090505b509050600060035467ffffffffffffffff811115610d5457610d53612378565b5b604051908082528060200260200182016040528015610d825781602001602082028036833780820191505090505b509050600060035467ffffffffffffffff811115610da357610da2612378565b5b604051908082528060200260200182016040528015610dd15781602001602082028036833780820191505090505b509050600060035467ffffffffffffffff811115610df257610df1612378565b5b604051908082528060200260200182016040528015610e2557816020015b6060815260200190600190039081610e105790505b50905060005b6003548110156111cf576004600082815260200190815260200160002060000160009054906101000a900473ffffffffffffffffffffffffffffffffffffffff16888281518110610e7f57610e7e6129b8565b5b602002602001019073ffffffffffffffffffffffffffffffffffffffff16908173ffffffffffffffffffffffffffffffffffffffff16815250506004600082815260200190815260200160002060010154878281518110610ee357610ee26129b8565b5b6020026020010181815250506004600082815260200190815260200160002060020154868281518110610f1957610f186129b8565b5b6020026020010181815250506004600082815260200190815260200160002060030154858281518110610f4f57610f4e6129b8565b5b6020026020010181815250506004600082815260200190815260200160002060040154848281518110610f8557610f846129b8565b5b6020026020010181815250506004600082815260200190815260200160002060050154838281518110610fbb57610fba6129b8565b5b60200260200101818152505060006003811115610fdb57610fda6127a3565b5b6004600083815260200190815260200160002060060160009054906101000a900460ff166003811115611011576110106127a3565b5b14611167576001600381111561102a576110296127a3565b5b6004600083815260200190815260200160002060060160009054906101000a900460ff1660038111156110605761105f6127a3565b5b1461112b5760026003811115611079576110786127a3565b5b6004600083815260200190815260200160002060060160009054906101000a900460ff1660038111156110af576110ae6127a3565b5b146110ef576040518060400160405280600981526020017f43616e63656c6c65640000000000000000000000000000000000000000000000815250611126565b6040518060400160405280600781526020017f45787069726564000000000000000000000000000000000000000000000000008152505b611162565b6040518060400160405280600781526020017f4f6e676f696e67000000000000000000000000000000000000000000000000008152505b61119e565b6040518060400160405280600381526020017f4e657700000000000000000000000000000000000000000000000000000000008152505b8282815181106111b1576111b06129b8565b5b602002602001018190525080806111c7906128d0565b915050610e2b565b50868686868686869d509d509d509d509d509d509d505050505050505090919293949596565b7f000000000000000000000000000000000000000000000000000000000000000073ffffffffffffffffffffffffffffffffffffffff163373ffffffffffffffffffffffffffffffffffffffff1614611283576040517f08c379a000000000000000000000000000000000000000000000000000000000815260040161127a9061281e565b60405180910390fd5b600260009054906101000a900460ff166112d2576040517f08c379a00000000000000000000000000000000000000000000000000000000081526004016112c990612712565b60405180910390fd5b81600090816112e19190612b93565b5080600190816112f19190612b93565b507f4753ea05804b68917fe65e38a8d48a1c098336025a4e9f9bb64e37afe7268008306000604051611324929190612ce9565b60405180910390a15050565b6001805461133d906125bd565b80601f0160208091040260200160405190810160405280929190818152602001828054611369906125bd565b80156113b65780601f1061138b576101008083540402835291602001916113b6565b820191906000526020600020905b81548152906001019060200180831161139957829003601f168201915b505050505081565b80600073ffffffffffffffffffffffffffffffffffffffff166004600083815260200190815260200160002060000160009054906101000a900473ffffffffffffffffffffffffffffffffffffffff1673ffffffffffffffffffffffffffffffffffffffff1603611464576040517f08c379a000000000000000000000000000000000000000000000000000000000815260040161145b9061263a565b60405180910390fd5b813373ffffffffffffffffffffffffffffffffffffffff166004600083815260200190815260200160002060000160009054906101000a900473ffffffffffffffffffffffffffffffffffffffff1673ffffffffffffffffffffffffffffffffffffffff16148061152057507f000000000000000000000000000000000000000000000000000000000000000073ffffffffffffffffffffffffffffffffffffffff163373ffffffffffffffffffffffffffffffffffffffff16145b61155f576040517f08c379a0000000000000000000000000000000000000000000000000000000008152600401611556906126a6565b60405180910390fd5b600260009054906101000a900460ff166115ae576040517f08c379a00000000000000000000000000000000000000000000000000000000081526004016115a590612712565b60405180910390fd5b6000349050600060046000868152602001908152602001600020600201549050808214611610576040517f08c379a000000000000000000000000000000000000000000000000000000000815260040161160790612d65565b60405180910390fd5b6103e84261161e9190612761565b60046000878152602001908152602001600020600401819055506103e86201518060046000888152602001908152602001600020600301546116609190612761565b4261166b9190612984565b6116759190612761565b600460008781526020019081526020016000206005018190555060016004600087815260200190815260200160002060060160006101000a81548160ff021916908360038111156116c9576116c86127a3565b5b0217905550847f9040c259954b48f5dfdf60ea91e742403e7552202de9925d509fdd8187b2130b60405160405180910390a25050505050565b60007f0000000000000000000000000000000000000000000000000000000000000000905090565b8260005b60035481101561181e578173ffffffffffffffffffffffffffffffffffffffff166004600083815260200190815260200160002060000160009054906101000a900473ffffffffffffffffffffffffffffffffffffffff1673ffffffffffffffffffffffffffffffffffffffff161480156117cb575060046000828152602001908152602001600020600501546103e8426117c99190612761565b105b1561180b576040517f08c379a0000000000000000000000000000000000000000000000000000000008152600401611802906128b0565b60405180910390fd5b8080611816906128d0565b91505061172e565b508260008111611863576040517f08c379a000000000000000000000000000000000000000000000000000000000815260040161185a90612964565b60405180910390fd5b600260009054906101000a900460ff166118b2576040517f08c379a00000000000000000000000000000000000000000000000000000000081526004016118a990612712565b60405180910390fd5b60006040518060e001604052808773ffffffffffffffffffffffffffffffffffffffff1681526020016003548152602001868152602001858152602001600081526020016000815260200160006003811115611911576119106127a3565b5b81525090508060046000600354815260200190815260200160002060008201518160000160006101000a81548173ffffffffffffffffffffffffffffffffffffffff021916908373ffffffffffffffffffffffffffffffffffffffff1602179055506020820151816001015560408201518160020155606082015181600301556080820151816004015560a0820151816005015560c08201518160060160006101000a81548160ff021916908360038111156119d0576119cf6127a3565b5b02179055509050506003547f6a2b70dde6ae0193f84b6a9eeb3b0ebdc3a35e99d9167b88c570158dd09cb0f760405160405180910390a260036000815480929190611a1a906128d0565b9190505550505050505050565b7f000000000000000000000000000000000000000000000000000000000000000073ffffffffffffffffffffffffffffffffffffffff163373ffffffffffffffffffffffffffffffffffffffff1614611ab5576040517f08c379a0000000000000000000000000000000000000000000000000000000008152600401611aac9061281e565b60405180910390fd5b600260009054906101000a900460ff16611b04576040517f08c379a0000000000000000000000000000000000000000000000000000000008152600401611afb90612712565b60405180910390fd5b8060019081611b139190612b93565b5050565b7f000000000000000000000000000000000000000000000000000000000000000073ffffffffffffffffffffffffffffffffffffffff163373ffffffffffffffffffffffffffffffffffffffff1614611ba5576040517f08c379a0000000000000000000000000000000000000000000000000000000008152600401611b9c9061281e565b60405180910390fd5b600260009054906101000a900460ff16611bf4576040517f08c379a0000000000000000000000000000000000000000000000000000000008152600401611beb90612712565b60405180910390fd5b6000600260006101000a81548160ff0219169083151502179055507f86d6aa2827e28270c1635780e8a17d61c38028e75531a0a25c5004862521289d30604051611c3e919061252a565b60405180910390a1565b7f000000000000000000000000000000000000000000000000000000000000000073ffffffffffffffffffffffffffffffffffffffff163373ffffffffffffffffffffffffffffffffffffffff1614611cd6576040517f08c379a0000000000000000000000000000000000000000000000000000000008152600401611ccd9061281e565b60405180910390fd5b600260009054906101000a900460ff16611d25576040517f08c379a0000000000000000000000000000000000000000000000000000000008152600401611d1c90612712565b60405180910390fd5b8060009081611d349190612b93565b5050565b60005b600354811015611dc35760046000828152602001908152602001600020600501546103e842611d6a9190612761565b1115611db05760026004600083815260200190815260200160002060060160006101000a81548160ff02191690836003811115611daa57611da96127a3565b5b02179055505b8080611dbb906128d0565b915050611d3b565b50565b6000600260009054906101000a900460ff16905090565b600081519050919050565b600082825260208201905092915050565b60005b83811015611e17578082015181840152602081019050611dfc565b60008484015250505050565b6000601f19601f8301169050919050565b6000611e3f82611ddd565b611e498185611de8565b9350611e59818560208601611df9565b611e6281611e23565b840191505092915050565b60006020820190508181036000830152611e878184611e34565b905092915050565b6000604051905090565b600080fd5b600080fd5b6000819050919050565b611eb681611ea3565b8114611ec157600080fd5b50565b600081359050611ed381611ead565b92915050565b600060208284031215611eef57611eee611e99565b5b6000611efd84828501611ec4565b91505092915050565b60008115159050919050565b611f1b81611f06565b82525050565b6000602082019050611f366000830184611f12565b92915050565b611f4581611f06565b8114611f5057600080fd5b50565b600081359050611f6281611f3c565b92915050565b600060208284031215611f7e57611f7d611e99565b5b6000611f8c84828501611f53565b91505092915050565b600073ffffffffffffffffffffffffffffffffffffffff82169050919050565b6000611fc082611f95565b9050919050565b611fd081611fb5565b8114611fdb57600080fd5b50565b600081359050611fed81611fc7565b92915050565b60008060006060848603121561200c5761200b611e99565b5b600061201a86828701611fde565b935050602061202b86828701611ec4565b925050604061203c86828701611ec4565b9150509250925092565b600081519050919050565b600082825260208201905092915050565b6000819050602082019050919050565b61207b81611fb5565b82525050565b600061208d8383612072565b60208301905092915050565b6000602082019050919050565b60006120b182612046565b6120bb8185612051565b93506120c683612062565b8060005b838110156120f75781516120de8882612081565b97506120e983612099565b9250506001810190506120ca565b5085935050505092915050565b600081519050919050565b600082825260208201905092915050565b6000819050602082019050919050565b61213981611ea3565b82525050565b600061214b8383612130565b60208301905092915050565b6000602082019050919050565b600061216f82612104565b612179818561210f565b935061218483612120565b8060005b838110156121b557815161219c888261213f565b97506121a783612157565b925050600181019050612188565b5085935050505092915050565b600081519050919050565b600082825260208201905092915050565b6000819050602082019050919050565b600082825260208201905092915050565b600061220a82611ddd565b61221481856121ee565b9350612224818560208601611df9565b61222d81611e23565b840191505092915050565b600061224483836121ff565b905092915050565b6000602082019050919050565b6000612264826121c2565b61226e81856121cd565b935083602082028501612280856121de565b8060005b858110156122bc578484038952815161229d8582612238565b94506122a88361224c565b925060208a01995050600181019050612284565b50829750879550505050505092915050565b600060e08201905081810360008301526122e8818a6120a6565b905081810360208301526122fc8189612164565b905081810360408301526123108188612164565b905081810360608301526123248187612164565b905081810360808301526123388186612164565b905081810360a083015261234c8185612164565b905081810360c08301526123608184612259565b905098975050505050505050565b600080fd5b600080fd5b7f4e487b7100000000000000000000000000000000000000000000000000000000600052604160045260246000fd5b6123b082611e23565b810181811067ffffffffffffffff821117156123cf576123ce612378565b5b80604052505050565b60006123e2611e8f565b90506123ee82826123a7565b919050565b600067ffffffffffffffff82111561240e5761240d612378565b5b61241782611e23565b9050602081019050919050565b82818337600083830152505050565b6000612446612441846123f3565b6123d8565b90508281526020810184848401111561246257612461612373565b5b61246d848285612424565b509392505050565b600082601f83011261248a5761248961236e565b5b813561249a848260208601612433565b91505092915050565b600080604083850312156124ba576124b9611e99565b5b600083013567ffffffffffffffff8111156124d8576124d7611e9e565b5b6124e485828601612475565b925050602083013567ffffffffffffffff81111561250557612504611e9e565b5b61251185828601612475565b9150509250929050565b61252481611fb5565b82525050565b600060208201905061253f600083018461251b565b92915050565b60006020828403121561255b5761255a611e99565b5b600082013567ffffffffffffffff81111561257957612578611e9e565b5b61258584828501612475565b91505092915050565b7f4e487b7100000000000000000000000000000000000000000000000000000000600052602260045260246000fd5b600060028204905060018216806125d557607f821691505b6020821081036125e8576125e761258e565b5b50919050565b7f537562736372697074696f6e20646f6573206e6f742065786973740000000000600082015250565b6000612624601b83611de8565b915061262f826125ee565b602082019050919050565b6000602082019050818103600083015261265381612617565b9050919050565b7f43616c6c6572206973206e6f7420746865207375627363726962657200000000600082015250565b6000612690601c83611de8565b915061269b8261265a565b602082019050919050565b600060208201905081810360008301526126bf81612683565b9050919050565b7f53657276696365206973206e6f74206163746976650000000000000000000000600082015250565b60006126fc601583611de8565b9150612707826126c6565b602082019050919050565b6000602082019050818103600083015261272b816126ef565b9050919050565b7f4e487b7100000000000000000000000000000000000000000000000000000000600052601160045260246000fd5b600061276c82611ea3565b915061277783611ea3565b925082820261278581611ea3565b9150828204841483151761279c5761279b612732565b5b5092915050565b7f4e487b7100000000000000000000000000000000000000000000000000000000600052602160045260246000fd5b7f4f6e6c79206f776e657220697320616c6c6f7765640000000000000000000000600082015250565b6000612808601583611de8565b9150612813826127d2565b602082019050919050565b60006020820190508181036000830152612837816127fb565b9050919050565b7f5375627363726962657220616c72656164792068617320616e2061637469766560008201527f20737562736372697074696f6e00000000000000000000000000000000000000602082015250565b600061289a602d83611de8565b91506128a58261283e565b604082019050919050565b600060208201905081810360008301526128c98161288d565b9050919050565b60006128db82611ea3565b91507fffffffffffffffffffffffffffffffffffffffffffffffffffffffffffffffff820361290d5761290c612732565b5b600182019050919050565b7f56616c7565206d7573742062652067726561746572207468616e207a65726f00600082015250565b600061294e601f83611de8565b915061295982612918565b602082019050919050565b6000602082019050818103600083015261297d81612941565b9050919050565b600061298f82611ea3565b915061299a83611ea3565b92508282019050808211156129b2576129b1612732565b5b92915050565b7f4e487b7100000000000000000000000000000000000000000000000000000000600052603260045260246000fd5b60008190508160005260206000209050919050565b60006020601f8301049050919050565b600082821b905092915050565b600060088302612a497fffffffffffffffffffffffffffffffffffffffffffffffffffffffffffffffff82612a0c565b612a538683612a0c565b95508019841693508086168417925050509392505050565b6000819050919050565b6000612a90612a8b612a8684611ea3565b612a6b565b611ea3565b9050919050565b6000819050919050565b612aaa83612a75565b612abe612ab682612a97565b848454612a19565b825550505050565b600090565b612ad3612ac6565b612ade818484612aa1565b505050565b5b81811015612b0257612af7600082612acb565b600181019050612ae4565b5050565b601f821115612b4757612b18816129e7565b612b21846129fc565b81016020851015612b30578190505b612b44612b3c856129fc565b830182612ae3565b50505b505050565b600082821c905092915050565b6000612b6a60001984600802612b4c565b1980831691505092915050565b6000612b838383612b59565b9150826002028217905092915050565b612b9c82611ddd565b67ffffffffffffffff811115612bb557612bb4612378565b5b612bbf82546125bd565b612bca828285612b06565b600060209050601f831160018114612bfd5760008415612beb578287015190505b612bf58582612b77565b865550612c5d565b601f198416612c0b866129e7565b60005b82811015612c3357848901518255600182019150602085019450602081019050612c0e565b86831015612c505784890151612c4c601f891682612b59565b8355505b6001600288020188555050505b505050505050565b60008154612c72816125bd565b612c7c8186611de8565b94506001821660008114612c975760018114612cad57612ce0565b60ff198316865281151560200286019350612ce0565b612cb6856129e7565b60005b83811015612cd857815481890152600182019150602081019050612cb9565b808801955050505b50505092915050565b6000604082019050612cfe600083018561251b565b8181036020830152612d108184612c65565b90509392505050565b7f496e76616c696420616d6f756e74000000000000000000000000000000000000600082015250565b6000612d4f600e83611de8565b9150612d5a82612d19565b602082019050919050565b60006020820190508181036000830152612d7e81612d42565b905091905056fea26469706673582212209d431bce8d30ff8168f24c898ca9c26c1e12dd3d99ad1a719ecd4feeb2f6de3264736f6c63430008140033a2646970667358221220305f6d4291e73b2e339b9b6ba4acd9bc348097bc68d83006eb22394da88f8d4b64736f6c63430008140033",
  "linkReferences": {},
  "deployedLinkReferences": {}
}